{
  "_format": "hh-sol-artifact-1",
  "contractName": "BurgerNFT",
  "sourceName": "contracts/BurgueNew.sol",
  "abi": [
    {
      "inputs": [
        {
          "internalType": "string",
          "name": "_strBaseTokenURI",
          "type": "string"
        }
      ],
      "stateMutability": "nonpayable",
      "type": "constructor"
    },
    {
      "anonymous": false,
      "inputs": [
        {
          "indexed": true,
          "internalType": "address",
          "name": "owner",
          "type": "address"
        },
        {
          "indexed": true,
          "internalType": "address",
          "name": "approved",
          "type": "address"
        },
        {
          "indexed": true,
          "internalType": "uint256",
          "name": "tokenId",
          "type": "uint256"
        }
      ],
      "name": "Approval",
      "type": "event"
    },
    {
      "anonymous": false,
      "inputs": [
        {
          "indexed": true,
          "internalType": "address",
          "name": "owner",
          "type": "address"
        },
        {
          "indexed": true,
          "internalType": "address",
          "name": "operator",
          "type": "address"
        },
        {
          "indexed": false,
          "internalType": "bool",
          "name": "approved",
          "type": "bool"
        }
      ],
      "name": "ApprovalForAll",
      "type": "event"
    },
    {
      "anonymous": false,
      "inputs": [
        {
          "indexed": true,
          "internalType": "address",
          "name": "_to",
          "type": "address"
        },
        {
          "indexed": true,
          "internalType": "uint256",
          "name": "_id",
          "type": "uint256"
        },
        {
          "indexed": true,
          "internalType": "uint8",
          "name": "_boxType",
          "type": "uint8"
        }
      ],
      "name": "MintNFT",
      "type": "event"
    },
    {
      "anonymous": false,
      "inputs": [
        {
          "indexed": true,
          "internalType": "address",
          "name": "previousOwner",
          "type": "address"
        },
        {
          "indexed": true,
          "internalType": "address",
          "name": "newOwner",
          "type": "address"
        }
      ],
      "name": "OwnershipTransferred",
      "type": "event"
    },
    {
      "anonymous": false,
      "inputs": [
        {
          "indexed": false,
          "internalType": "address",
          "name": "account",
          "type": "address"
        }
      ],
      "name": "Paused",
      "type": "event"
    },
    {
      "anonymous": false,
      "inputs": [
        {
          "indexed": true,
          "internalType": "address",
          "name": "from",
          "type": "address"
        },
        {
          "indexed": true,
          "internalType": "address",
          "name": "to",
          "type": "address"
        },
        {
          "indexed": true,
          "internalType": "uint256",
          "name": "tokenId",
          "type": "uint256"
        }
      ],
      "name": "Transfer",
      "type": "event"
    },
    {
      "anonymous": false,
      "inputs": [
        {
          "indexed": false,
          "internalType": "address",
          "name": "account",
          "type": "address"
        }
      ],
      "name": "Unpaused",
      "type": "event"
    },
    {
      "inputs": [
        {
          "internalType": "address",
          "name": "to",
          "type": "address"
        },
        {
          "internalType": "uint256",
          "name": "tokenId",
          "type": "uint256"
        }
      ],
      "name": "approve",
      "outputs": [],
      "stateMutability": "nonpayable",
      "type": "function"
    },
    {
      "inputs": [
        {
          "internalType": "address",
          "name": "owner",
          "type": "address"
        }
      ],
      "name": "balanceOf",
      "outputs": [
        {
          "internalType": "uint256",
          "name": "",
          "type": "uint256"
        }
      ],
      "stateMutability": "view",
      "type": "function"
    },
    {
      "inputs": [
        {
          "internalType": "uint256",
          "name": "",
          "type": "uint256"
        }
      ],
      "name": "boxPriceBNB",
      "outputs": [
        {
          "internalType": "uint256",
          "name": "",
          "type": "uint256"
        }
      ],
      "stateMutability": "view",
      "type": "function"
    },
    {
      "inputs": [
        {
          "internalType": "uint256",
          "name": "",
          "type": "uint256"
        }
      ],
      "name": "boxTypeById",
      "outputs": [
        {
          "internalType": "uint8",
          "name": "",
          "type": "uint8"
        }
      ],
      "stateMutability": "view",
      "type": "function"
    },
    {
      "inputs": [
        {
          "internalType": "string",
          "name": "newBaseTokenURI",
          "type": "string"
        }
      ],
      "name": "changeBaseTokenURI",
      "outputs": [],
      "stateMutability": "nonpayable",
      "type": "function"
    },
    {
      "inputs": [
        {
          "internalType": "uint256",
          "name": "newPrice",
          "type": "uint256"
        }
      ],
      "name": "changePrice",
      "outputs": [],
      "stateMutability": "nonpayable",
      "type": "function"
    },
    {
      "inputs": [
        {
          "internalType": "bytes32",
          "name": "newRoot",
          "type": "bytes32"
        }
      ],
      "name": "changeRoot",
      "outputs": [],
      "stateMutability": "nonpayable",
      "type": "function"
    },
    {
      "inputs": [
        {
          "internalType": "bool",
          "name": "newState",
          "type": "bool"
        }
      ],
      "name": "changeWhitelistState",
      "outputs": [],
      "stateMutability": "nonpayable",
      "type": "function"
    },
    {
      "inputs": [
        {
          "internalType": "uint256",
          "name": "tokenId",
          "type": "uint256"
        }
      ],
      "name": "getApproved",
      "outputs": [
        {
          "internalType": "address",
          "name": "",
          "type": "address"
        }
      ],
      "stateMutability": "view",
      "type": "function"
    },
    {
      "inputs": [
        {
          "internalType": "address",
          "name": "owner",
          "type": "address"
        },
        {
          "internalType": "address",
          "name": "operator",
          "type": "address"
        }
      ],
      "name": "isApprovedForAll",
      "outputs": [
        {
          "internalType": "bool",
          "name": "",
          "type": "bool"
        }
      ],
      "stateMutability": "view",
      "type": "function"
    },
    {
      "inputs": [
        {
          "internalType": "uint8",
          "name": "boxType",
          "type": "uint8"
        }
      ],
      "name": "mintNormal",
      "outputs": [],
      "stateMutability": "payable",
      "type": "function"
    },
    {
      "inputs": [
        {
          "internalType": "bytes32",
          "name": "leaf",
          "type": "bytes32"
        },
        {
          "internalType": "bytes32[]",
          "name": "proof",
          "type": "bytes32[]"
        }
      ],
      "name": "mintWhitelist",
      "outputs": [],
      "stateMutability": "payable",
      "type": "function"
    },
    {
      "inputs": [],
      "name": "name",
      "outputs": [
        {
          "internalType": "string",
          "name": "",
          "type": "string"
        }
      ],
      "stateMutability": "view",
      "type": "function"
    },
    {
      "inputs": [],
      "name": "owner",
      "outputs": [
        {
          "internalType": "address",
          "name": "",
          "type": "address"
        }
      ],
      "stateMutability": "view",
      "type": "function"
    },
    {
      "inputs": [
        {
          "internalType": "uint256",
          "name": "tokenId",
          "type": "uint256"
        }
      ],
      "name": "ownerOf",
      "outputs": [
        {
          "internalType": "address",
          "name": "",
          "type": "address"
        }
      ],
      "stateMutability": "view",
      "type": "function"
    },
    {
      "inputs": [],
      "name": "paused",
      "outputs": [
        {
          "internalType": "bool",
          "name": "",
          "type": "bool"
        }
      ],
      "stateMutability": "view",
      "type": "function"
    },
    {
      "inputs": [],
      "name": "price",
      "outputs": [
        {
          "internalType": "uint256",
          "name": "",
          "type": "uint256"
        }
      ],
      "stateMutability": "view",
      "type": "function"
    },
    {
      "inputs": [],
      "name": "renounceOwnership",
      "outputs": [],
      "stateMutability": "nonpayable",
      "type": "function"
    },
    {
      "inputs": [
        {
          "internalType": "address",
          "name": "from",
          "type": "address"
        },
        {
          "internalType": "address",
          "name": "to",
          "type": "address"
        },
        {
          "internalType": "uint256",
          "name": "tokenId",
          "type": "uint256"
        }
      ],
      "name": "safeTransferFrom",
      "outputs": [],
      "stateMutability": "nonpayable",
      "type": "function"
    },
    {
      "inputs": [
        {
          "internalType": "address",
          "name": "from",
          "type": "address"
        },
        {
          "internalType": "address",
          "name": "to",
          "type": "address"
        },
        {
          "internalType": "uint256",
          "name": "tokenId",
          "type": "uint256"
        },
        {
          "internalType": "bytes",
          "name": "_data",
          "type": "bytes"
        }
      ],
      "name": "safeTransferFrom",
      "outputs": [],
      "stateMutability": "nonpayable",
      "type": "function"
    },
    {
      "inputs": [
        {
          "internalType": "address",
          "name": "operator",
          "type": "address"
        },
        {
          "internalType": "bool",
          "name": "approved",
          "type": "bool"
        }
      ],
      "name": "setApprovalForAll",
      "outputs": [],
      "stateMutability": "nonpayable",
      "type": "function"
    },
    {
      "inputs": [],
      "name": "strBaseTokenURI",
      "outputs": [
        {
          "internalType": "string",
          "name": "",
          "type": "string"
        }
      ],
      "stateMutability": "view",
      "type": "function"
    },
    {
      "inputs": [
        {
          "internalType": "bytes4",
          "name": "interfaceId",
          "type": "bytes4"
        }
      ],
      "name": "supportsInterface",
      "outputs": [
        {
          "internalType": "bool",
          "name": "",
          "type": "bool"
        }
      ],
      "stateMutability": "view",
      "type": "function"
    },
    {
      "inputs": [],
      "name": "symbol",
      "outputs": [
        {
          "internalType": "string",
          "name": "",
          "type": "string"
        }
      ],
      "stateMutability": "view",
      "type": "function"
    },
    {
      "inputs": [
        {
          "internalType": "uint256",
          "name": "index",
          "type": "uint256"
        }
      ],
      "name": "tokenByIndex",
      "outputs": [
        {
          "internalType": "uint256",
          "name": "",
          "type": "uint256"
        }
      ],
      "stateMutability": "view",
      "type": "function"
    },
    {
      "inputs": [
        {
          "internalType": "address",
          "name": "owner",
          "type": "address"
        },
        {
          "internalType": "uint256",
          "name": "index",
          "type": "uint256"
        }
      ],
      "name": "tokenOfOwnerByIndex",
      "outputs": [
        {
          "internalType": "uint256",
          "name": "",
          "type": "uint256"
        }
      ],
      "stateMutability": "view",
      "type": "function"
    },
    {
      "inputs": [
        {
          "internalType": "uint256",
          "name": "tokenId",
          "type": "uint256"
        }
      ],
      "name": "tokenURI",
      "outputs": [
        {
          "internalType": "string",
          "name": "",
          "type": "string"
        }
      ],
      "stateMutability": "view",
      "type": "function"
    },
    {
      "inputs": [],
      "name": "totalSupply",
      "outputs": [
        {
          "internalType": "uint256",
          "name": "",
          "type": "uint256"
        }
      ],
      "stateMutability": "view",
      "type": "function"
    },
    {
      "inputs": [
        {
          "internalType": "address",
          "name": "from",
          "type": "address"
        },
        {
          "internalType": "address",
          "name": "to",
          "type": "address"
        },
        {
          "internalType": "uint256",
          "name": "tokenId",
          "type": "uint256"
        }
      ],
      "name": "transferFrom",
      "outputs": [],
      "stateMutability": "nonpayable",
      "type": "function"
    },
    {
      "inputs": [
        {
          "internalType": "address",
          "name": "newOwner",
          "type": "address"
        }
      ],
      "name": "transferOwnership",
      "outputs": [],
      "stateMutability": "nonpayable",
      "type": "function"
    },
    {
      "inputs": [
        {
          "internalType": "uint256[]",
          "name": "_newBoxPricesBNB",
          "type": "uint256[]"
        }
      ],
      "name": "updateBoxPricesBNB",
      "outputs": [
        {
          "internalType": "bool",
          "name": "",
          "type": "bool"
        }
      ],
      "stateMutability": "nonpayable",
      "type": "function"
    },
    {
      "inputs": [
        {
          "internalType": "bytes32",
          "name": "leaf",
          "type": "bytes32"
        },
        {
          "internalType": "bytes32[]",
          "name": "proof",
          "type": "bytes32[]"
        }
      ],
      "name": "verifyWhitelist",
      "outputs": [
        {
          "internalType": "bool",
          "name": "",
          "type": "bool"
        }
      ],
      "stateMutability": "view",
      "type": "function"
    },
    {
      "inputs": [
        {
          "internalType": "address",
          "name": "_owner",
          "type": "address"
        }
      ],
      "name": "walletOfOwner",
      "outputs": [
        {
          "internalType": "uint256[]",
          "name": "",
          "type": "uint256[]"
        }
      ],
      "stateMutability": "view",
      "type": "function"
    },
    {
      "inputs": [],
      "name": "whitelistActive",
      "outputs": [
        {
          "internalType": "bool",
          "name": "",
          "type": "bool"
        }
      ],
      "stateMutability": "view",
      "type": "function"
    },
    {
      "inputs": [],
      "name": "whitelistPrice",
      "outputs": [
        {
          "internalType": "uint256",
          "name": "",
          "type": "uint256"
        }
      ],
      "stateMutability": "view",
      "type": "function"
    },
    {
      "inputs": [],
      "name": "withdraw",
      "outputs": [],
      "stateMutability": "nonpayable",
      "type": "function"
    }
  ],
  "bytecode": "0x6080604052604051806060016040528067016345785d8a000067ffffffffffffffff1681526020016702c68af0bb14000067ffffffffffffffff1681526020016729a2241af62c000067ffffffffffffffff16815250600c90600362000067929190620002bc565b50668e1bc9bf040000600d5566b1a2bc2ec50000600e556001601060006101000a81548160ff0219169083151502179055507f786cc6a5c4201b7672450409f6a717d0e33e88369e82ed52b453ec0cfcc4b23d60001b601155348015620000cd57600080fd5b506040516200500b3803806200500b8339818101604052810190620000f391906200043c565b6040518060400160405280600681526020017f42757267657200000000000000000000000000000000000000000000000000008152506040518060400160405280600681526020017f42555247455200000000000000000000000000000000000000000000000000008152508160009080519060200190620001779291906200031a565b508060019080519060200190620001909291906200031a565b5050506000600a60006101000a81548160ff021916908315150217905550620001ce620001c2620001ee60201b60201c565b620001f660201b60201c565b80600f9080519060200190620001e69291906200031a565b5050620005f1565b600033905090565b6000600a60019054906101000a900473ffffffffffffffffffffffffffffffffffffffff16905081600a60016101000a81548173ffffffffffffffffffffffffffffffffffffffff021916908373ffffffffffffffffffffffffffffffffffffffff1602179055508173ffffffffffffffffffffffffffffffffffffffff168173ffffffffffffffffffffffffffffffffffffffff167f8be0079c531659141344cd1fd0a4f28419497f9722a3daafe3b4186f6b6457e060405160405180910390a35050565b82805482825590600052602060002090810192821562000307579160200282015b8281111562000306578251829067ffffffffffffffff16905591602001919060010190620002dd565b5b509050620003169190620003ab565b5090565b828054620003289062000516565b90600052602060002090601f0160209004810192826200034c576000855562000398565b82601f106200036757805160ff191683800117855562000398565b8280016001018555821562000398579182015b82811115620003975782518255916020019190600101906200037a565b5b509050620003a79190620003ab565b5090565b5b80821115620003c6576000816000905550600101620003ac565b5090565b6000620003e1620003db84620004aa565b62000481565b905082815260208101848484011115620003fa57600080fd5b62000407848285620004e0565b509392505050565b600082601f8301126200042157600080fd5b815162000433848260208601620003ca565b91505092915050565b6000602082840312156200044f57600080fd5b600082015167ffffffffffffffff8111156200046a57600080fd5b62000478848285016200040f565b91505092915050565b60006200048d620004a0565b90506200049b82826200054c565b919050565b6000604051905090565b600067ffffffffffffffff821115620004c857620004c7620005b1565b5b620004d382620005e0565b9050602081019050919050565b60005b8381101562000500578082015181840152602081019050620004e3565b8381111562000510576000848401525b50505050565b600060028204905060018216806200052f57607f821691505b6020821081141562000546576200054562000582565b5b50919050565b6200055782620005e0565b810181811067ffffffffffffffff82111715620005795762000578620005b1565b5b80604052505050565b7f4e487b7100000000000000000000000000000000000000000000000000000000600052602260045260246000fd5b7f4e487b7100000000000000000000000000000000000000000000000000000000600052604160045260246000fd5b6000601f19601f8301169050919050565b614a0a80620006016000396000f3fe60806040526004361061020f5760003560e01c8063715018a611610118578063c0fb5e8f116100a0578063e40e97a71161006f578063e40e97a7146107da578063e985e9c514610803578063f09542b314610840578063f2fde38b1461085c578063fc1a1c36146108855761020f565b8063c0fb5e8f1461072d578063c87b56dd14610749578063ca84763314610786578063d9583b9f146107b15761020f565b8063a035b1fe116100e7578063a035b1fe1461064a578063a22cb46514610675578063a2b40d191461069e578063a69a6e82146106c7578063b88d4fde146107045761020f565b8063715018a6146105a05780637b89622d146105b75780638da5cb5b146105f457806395d89b411461061f5761020f565b8063329ea90d1161019b578063438b63001161016a578063438b6300146104815780634f6ccce7146104be5780635c975abb146104fb5780636352211e1461052657806370a08231146105635761020f565b8063329ea90d146103db5780633ccfd60b146104185780633d59cd601461042f57806342842e0e146104585761020f565b8063095ea7b3116101e2578063095ea7b3146102e4578063120f91d51461030d57806318160ddd1461034a57806323b872dd146103755780632f745c591461039e5761020f565b806301ffc9a71461021457806302ce58131461025157806306fdde031461027c578063081812fc146102a7575b600080fd5b34801561022057600080fd5b5061023b6004803603810190610236919061353f565b6108b0565b6040516102489190613b9d565b60405180910390f35b34801561025d57600080fd5b5061026661092a565b6040516102739190613b9d565b60405180910390f35b34801561028857600080fd5b5061029161093d565b60405161029e9190613bb8565b60405180910390f35b3480156102b357600080fd5b506102ce60048036038101906102c991906135d2565b6109cf565b6040516102db9190613b14565b60405180910390f35b3480156102f057600080fd5b5061030b6004803603810190610306919061341c565b610a54565b005b34801561031957600080fd5b50610334600480360381019061032f91906135d2565b610b6c565b6040516103419190613eba565b60405180910390f35b34801561035657600080fd5b5061035f610b90565b60405161036c9190613eba565b60405180910390f35b34801561038157600080fd5b5061039c60048036038101906103979190613316565b610b9d565b005b3480156103aa57600080fd5b506103c560048036038101906103c0919061341c565b610bfd565b6040516103d29190613eba565b60405180910390f35b3480156103e757600080fd5b5061040260048036038101906103fd91906134eb565b610ca2565b60405161040f9190613b9d565b60405180910390f35b34801561042457600080fd5b5061042d610d80565b005b34801561043b57600080fd5b50610456600480360381019061045191906134c2565b610e52565b005b34801561046457600080fd5b5061047f600480360381019061047a9190613316565b610ed8565b005b34801561048d57600080fd5b506104a860048036038101906104a391906132b1565b610ef8565b6040516104b59190613b7b565b60405180910390f35b3480156104ca57600080fd5b506104e560048036038101906104e091906135d2565b610ff2565b6040516104f29190613eba565b60405180910390f35b34801561050757600080fd5b50610510611089565b60405161051d9190613b9d565b60405180910390f35b34801561053257600080fd5b5061054d600480360381019061054891906135d2565b6110a0565b60405161055a9190613b14565b60405180910390f35b34801561056f57600080fd5b5061058a600480360381019061058591906132b1565b611152565b6040516105979190613eba565b60405180910390f35b3480156105ac57600080fd5b506105b561120a565b005b3480156105c357600080fd5b506105de60048036038101906105d991906135d2565b611292565b6040516105eb9190613ed5565b60405180910390f35b34801561060057600080fd5b506106096112b2565b6040516106169190613b14565b60405180910390f35b34801561062b57600080fd5b506106346112dc565b6040516106419190613bb8565b60405180910390f35b34801561065657600080fd5b5061065f61136e565b60405161066c9190613eba565b60405180910390f35b34801561068157600080fd5b5061069c600480360381019061069791906133e0565b611374565b005b3480156106aa57600080fd5b506106c560048036038101906106c091906135d2565b6114f5565b005b3480156106d357600080fd5b506106ee60048036038101906106e99190613458565b61157b565b6040516106fb9190613b9d565b60405180910390f35b34801561071057600080fd5b5061072b60048036038101906107269190613365565b611619565b005b610747600480360381019061074291906134eb565b61167b565b005b34801561075557600080fd5b50610770600480360381019061076b91906135d2565b611894565b60405161077d9190613bb8565b60405180910390f35b34801561079257600080fd5b5061079b61193b565b6040516107a89190613bb8565b60405180910390f35b3480156107bd57600080fd5b506107d860048036038101906107d39190613499565b6119c9565b005b3480156107e657600080fd5b5061080160048036038101906107fc9190613591565b611a62565b005b34801561080f57600080fd5b5061082a600480360381019061082591906132da565b611af8565b6040516108379190613b9d565b60405180910390f35b61085a600480360381019061085591906135fb565b611b8c565b005b34801561086857600080fd5b50610883600480360381019061087e91906132b1565b611cba565b005b34801561089157600080fd5b5061089a611db2565b6040516108a79190613eba565b60405180910390f35b60007f780e9d63000000000000000000000000000000000000000000000000000000007bffffffffffffffffffffffffffffffffffffffffffffffffffffffff1916827bffffffffffffffffffffffffffffffffffffffffffffffffffffffff19161480610923575061092282611db8565b5b9050919050565b601060009054906101000a900460ff1681565b60606000805461094c906141d3565b80601f0160208091040260200160405190810160405280929190818152602001828054610978906141d3565b80156109c55780601f1061099a576101008083540402835291602001916109c5565b820191906000526020600020905b8154815290600101906020018083116109a857829003601f168201915b5050505050905090565b60006109da82611e9a565b610a19576040517f08c379a0000000000000000000000000000000000000000000000000000000008152600401610a1090613dda565b60405180910390fd5b6004600083815260200190815260200160002060009054906101000a900473ffffffffffffffffffffffffffffffffffffffff169050919050565b6000610a5f826110a0565b90508073ffffffffffffffffffffffffffffffffffffffff168373ffffffffffffffffffffffffffffffffffffffff161415610ad0576040517f08c379a0000000000000000000000000000000000000000000000000000000008152600401610ac790613e5a565b60405180910390fd5b8073ffffffffffffffffffffffffffffffffffffffff16610aef611f06565b73ffffffffffffffffffffffffffffffffffffffff161480610b1e5750610b1d81610b18611f06565b611af8565b5b610b5d576040517f08c379a0000000000000000000000000000000000000000000000000000000008152600401610b5490613d1a565b60405180910390fd5b610b678383611f0e565b505050565b600c8181548110610b7c57600080fd5b906000526020600020016000915090505481565b6000600880549050905090565b610bae610ba8611f06565b82611fc7565b610bed576040517f08c379a0000000000000000000000000000000000000000000000000000000008152600401610be490613e7a565b60405180910390fd5b610bf88383836120a5565b505050565b6000610c0883611152565b8210610c49576040517f08c379a0000000000000000000000000000000000000000000000000000000008152600401610c4090613bfa565b60405180910390fd5b600660008473ffffffffffffffffffffffffffffffffffffffff1673ffffffffffffffffffffffffffffffffffffffff168152602001908152602001600020600083815260200190815260200160002054905092915050565b60008083905060005b8351811015610d71576000848281518110610cef577f4e487b7100000000000000000000000000000000000000000000000000000000600052603260045260246000fd5b6020026020010151905080831015610d31578281604051602001610d14929190613ac4565b604051602081830303815290604052805190602001209250610d5d565b8083604051602001610d44929190613ac4565b6040516020818303038152906040528051906020012092505b508080610d6990614236565b915050610cab565b50601154811491505092915050565b610d88611f06565b73ffffffffffffffffffffffffffffffffffffffff16610da66112b2565b73ffffffffffffffffffffffffffffffffffffffff1614610dfc576040517f08c379a0000000000000000000000000000000000000000000000000000000008152600401610df390613dfa565b60405180910390fd5b6000479050610e096112b2565b73ffffffffffffffffffffffffffffffffffffffff166108fc829081150290604051600060405180830381858888f19350505050158015610e4e573d6000803e3d6000fd5b5050565b610e5a611f06565b73ffffffffffffffffffffffffffffffffffffffff16610e786112b2565b73ffffffffffffffffffffffffffffffffffffffff1614610ece576040517f08c379a0000000000000000000000000000000000000000000000000000000008152600401610ec590613dfa565b60405180910390fd5b8060118190555050565b610ef383838360405180602001604052806000815250611619565b505050565b60606000610f0583611152565b905060008167ffffffffffffffff811115610f49577f4e487b7100000000000000000000000000000000000000000000000000000000600052604160045260246000fd5b604051908082528060200260200182016040528015610f775781602001602082028036833780820191505090505b50905060005b82811015610fe757610f8f8582610bfd565b828281518110610fc8577f4e487b7100000000000000000000000000000000000000000000000000000000600052603260045260246000fd5b6020026020010181815250508080610fdf90614236565b915050610f7d565b508092505050919050565b6000610ffc610b90565b821061103d576040517f08c379a000000000000000000000000000000000000000000000000000000000815260040161103490613e9a565b60405180910390fd5b60088281548110611077577f4e487b7100000000000000000000000000000000000000000000000000000000600052603260045260246000fd5b90600052602060002001549050919050565b6000600a60009054906101000a900460ff16905090565b6000806002600084815260200190815260200160002060009054906101000a900473ffffffffffffffffffffffffffffffffffffffff169050600073ffffffffffffffffffffffffffffffffffffffff168173ffffffffffffffffffffffffffffffffffffffff161415611149576040517f08c379a000000000000000000000000000000000000000000000000000000000815260040161114090613d7a565b60405180910390fd5b80915050919050565b60008073ffffffffffffffffffffffffffffffffffffffff168273ffffffffffffffffffffffffffffffffffffffff1614156111c3576040517f08c379a00000000000000000000000000000000000000000000000000000000081526004016111ba90613d5a565b60405180910390fd5b600360008373ffffffffffffffffffffffffffffffffffffffff1673ffffffffffffffffffffffffffffffffffffffff168152602001908152602001600020549050919050565b611212611f06565b73ffffffffffffffffffffffffffffffffffffffff166112306112b2565b73ffffffffffffffffffffffffffffffffffffffff1614611286576040517f08c379a000000000000000000000000000000000000000000000000000000000815260040161127d90613dfa565b60405180910390fd5b6112906000612301565b565b600b6020528060005260406000206000915054906101000a900460ff1681565b6000600a60019054906101000a900473ffffffffffffffffffffffffffffffffffffffff16905090565b6060600180546112eb906141d3565b80601f0160208091040260200160405190810160405280929190818152602001828054611317906141d3565b80156113645780601f1061133957610100808354040283529160200191611364565b820191906000526020600020905b81548152906001019060200180831161134757829003601f168201915b5050505050905090565b600e5481565b61137c611f06565b73ffffffffffffffffffffffffffffffffffffffff168273ffffffffffffffffffffffffffffffffffffffff1614156113ea576040517f08c379a00000000000000000000000000000000000000000000000000000000081526004016113e190613c9a565b60405180910390fd5b80600560006113f7611f06565b73ffffffffffffffffffffffffffffffffffffffff1673ffffffffffffffffffffffffffffffffffffffff16815260200190815260200160002060008473ffffffffffffffffffffffffffffffffffffffff1673ffffffffffffffffffffffffffffffffffffffff16815260200190815260200160002060006101000a81548160ff0219169083151502179055508173ffffffffffffffffffffffffffffffffffffffff166114a4611f06565b73ffffffffffffffffffffffffffffffffffffffff167f17307eab39ab6107e8899845ad3d59bd9653f200f220920489ca2b5937696c31836040516114e99190613b9d565b60405180910390a35050565b6114fd611f06565b73ffffffffffffffffffffffffffffffffffffffff1661151b6112b2565b73ffffffffffffffffffffffffffffffffffffffff1614611571576040517f08c379a000000000000000000000000000000000000000000000000000000000815260040161156890613dfa565b60405180910390fd5b80600e8190555050565b6000611585611f06565b73ffffffffffffffffffffffffffffffffffffffff166115a36112b2565b73ffffffffffffffffffffffffffffffffffffffff16146115f9576040517f08c379a00000000000000000000000000000000000000000000000000000000081526004016115f090613dfa565b60405180910390fd5b81600c908051906020019061160f929190612f32565b5060019050919050565b61162a611624611f06565b83611fc7565b611669576040517f08c379a000000000000000000000000000000000000000000000000000000000815260040161166090613e7a565b60405180910390fd5b611675848484846123c7565b50505050565b611683611089565b156116c3576040517f08c379a00000000000000000000000000000000000000000000000000000000081526004016116ba90613cfa565b60405180910390fd5b601060009054906101000a900460ff16611712576040517f08c379a000000000000000000000000000000000000000000000000000000000815260040161170990613bda565b60405180910390fd5b600c60028154811061174d577f4e487b7100000000000000000000000000000000000000000000000000000000600052603260045260246000fd5b906000526020600020015434101561179a576040517f08c379a000000000000000000000000000000000000000000000000000000000815260040161179190613cda565b60405180910390fd5b60006117a68383610ca2565b905080156117bd576117b86002612423565b6117f8565b6040517f08c379a00000000000000000000000000000000000000000000000000000000081526004016117ef90613d3a565b60405180910390fd5b3373ffffffffffffffffffffffffffffffffffffffff166108fc600c60028154811061184d577f4e487b7100000000000000000000000000000000000000000000000000000000600052603260045260246000fd5b90600052602060002001543461186391906140d2565b9081150290604051600060405180830381858888f1935050505015801561188e573d6000803e3d6000fd5b50505050565b606061189f82611e9a565b6118de576040517f08c379a00000000000000000000000000000000000000000000000000000000081526004016118d590613e3a565b60405180910390fd5b60006118e8612482565b905060008151116119085760405180602001604052806000815250611933565b8061191284612499565b604051602001611923929190613af0565b6040516020818303038152906040525b915050919050565b600f8054611948906141d3565b80601f0160208091040260200160405190810160405280929190818152602001828054611974906141d3565b80156119c15780601f10611996576101008083540402835291602001916119c1565b820191906000526020600020905b8154815290600101906020018083116119a457829003601f168201915b505050505081565b6119d1611f06565b73ffffffffffffffffffffffffffffffffffffffff166119ef6112b2565b73ffffffffffffffffffffffffffffffffffffffff1614611a45576040517f08c379a0000000000000000000000000000000000000000000000000000000008152600401611a3c90613dfa565b60405180910390fd5b80601060006101000a81548160ff02191690831515021790555050565b611a6a611f06565b73ffffffffffffffffffffffffffffffffffffffff16611a886112b2565b73ffffffffffffffffffffffffffffffffffffffff1614611ade576040517f08c379a0000000000000000000000000000000000000000000000000000000008152600401611ad590613dfa565b60405180910390fd5b80600f9080519060200190611af4929190612f7f565b5050565b6000600560008473ffffffffffffffffffffffffffffffffffffffff1673ffffffffffffffffffffffffffffffffffffffff16815260200190815260200160002060008373ffffffffffffffffffffffffffffffffffffffff1673ffffffffffffffffffffffffffffffffffffffff16815260200190815260200160002060009054906101000a900460ff16905092915050565b611b94611089565b15611bd4576040517f08c379a0000000000000000000000000000000000000000000000000000000008152600401611bcb90613cfa565b60405180910390fd5b601060009054906101000a900460ff1615611c24576040517f08c379a0000000000000000000000000000000000000000000000000000000008152600401611c1b90613dba565b60405180910390fd5b600c8160ff1681548110611c61577f4e487b7100000000000000000000000000000000000000000000000000000000600052603260045260246000fd5b9060005260206000200154341015611cae576040517f08c379a0000000000000000000000000000000000000000000000000000000008152600401611ca590613cda565b60405180910390fd5b611cb781612423565b50565b611cc2611f06565b73ffffffffffffffffffffffffffffffffffffffff16611ce06112b2565b73ffffffffffffffffffffffffffffffffffffffff1614611d36576040517f08c379a0000000000000000000000000000000000000000000000000000000008152600401611d2d90613dfa565b60405180910390fd5b600073ffffffffffffffffffffffffffffffffffffffff168173ffffffffffffffffffffffffffffffffffffffff161415611da6576040517f08c379a0000000000000000000000000000000000000000000000000000000008152600401611d9d90613c3a565b60405180910390fd5b611daf81612301565b50565b600d5481565b60007f80ac58cd000000000000000000000000000000000000000000000000000000007bffffffffffffffffffffffffffffffffffffffffffffffffffffffff1916827bffffffffffffffffffffffffffffffffffffffffffffffffffffffff19161480611e8357507f5b5e139f000000000000000000000000000000000000000000000000000000007bffffffffffffffffffffffffffffffffffffffffffffffffffffffff1916827bffffffffffffffffffffffffffffffffffffffffffffffffffffffff1916145b80611e935750611e9282612646565b5b9050919050565b60008073ffffffffffffffffffffffffffffffffffffffff166002600084815260200190815260200160002060009054906101000a900473ffffffffffffffffffffffffffffffffffffffff1673ffffffffffffffffffffffffffffffffffffffff1614159050919050565b600033905090565b816004600083815260200190815260200160002060006101000a81548173ffffffffffffffffffffffffffffffffffffffff021916908373ffffffffffffffffffffffffffffffffffffffff160217905550808273ffffffffffffffffffffffffffffffffffffffff16611f81836110a0565b73ffffffffffffffffffffffffffffffffffffffff167f8c5be1e5ebec7d5bd14f71427d1e84f3dd0314c0f7b2291e5b200ac8c7c3b92560405160405180910390a45050565b6000611fd282611e9a565b612011576040517f08c379a000000000000000000000000000000000000000000000000000000000815260040161200890613cba565b60405180910390fd5b600061201c836110a0565b90508073ffffffffffffffffffffffffffffffffffffffff168473ffffffffffffffffffffffffffffffffffffffff16148061208b57508373ffffffffffffffffffffffffffffffffffffffff16612073846109cf565b73ffffffffffffffffffffffffffffffffffffffff16145b8061209c575061209b8185611af8565b5b91505092915050565b8273ffffffffffffffffffffffffffffffffffffffff166120c5826110a0565b73ffffffffffffffffffffffffffffffffffffffff161461211b576040517f08c379a000000000000000000000000000000000000000000000000000000000815260040161211290613e1a565b60405180910390fd5b600073ffffffffffffffffffffffffffffffffffffffff168273ffffffffffffffffffffffffffffffffffffffff16141561218b576040517f08c379a000000000000000000000000000000000000000000000000000000000815260040161218290613c7a565b60405180910390fd5b6121968383836126b0565b6121a1600082611f0e565b6001600360008573ffffffffffffffffffffffffffffffffffffffff1673ffffffffffffffffffffffffffffffffffffffff16815260200190815260200160002060008282546121f191906140d2565b925050819055506001600360008473ffffffffffffffffffffffffffffffffffffffff1673ffffffffffffffffffffffffffffffffffffffff1681526020019081526020016000206000828254612248919061404b565b92505081905550816002600083815260200190815260200160002060006101000a81548173ffffffffffffffffffffffffffffffffffffffff021916908373ffffffffffffffffffffffffffffffffffffffff160217905550808273ffffffffffffffffffffffffffffffffffffffff168473ffffffffffffffffffffffffffffffffffffffff167fddf252ad1be2c89b69c2b068fc378daa952ba7f163c4a11628f55a4df523b3ef60405160405180910390a4505050565b6000600a60019054906101000a900473ffffffffffffffffffffffffffffffffffffffff16905081600a60016101000a81548173ffffffffffffffffffffffffffffffffffffffff021916908373ffffffffffffffffffffffffffffffffffffffff1602179055508173ffffffffffffffffffffffffffffffffffffffff168173ffffffffffffffffffffffffffffffffffffffff167f8be0079c531659141344cd1fd0a4f28419497f9722a3daafe3b4186f6b6457e060405160405180910390a35050565b6123d28484846120a5565b6123de848484846127c4565b61241d576040517f08c379a000000000000000000000000000000000000000000000000000000000815260040161241490613c1a565b60405180910390fd5b50505050565b612440336001612431610b90565b61243b919061404b565b61295b565b80600b6000600161244f610b90565b612459919061404b565b815260200190815260200160002060006101000a81548160ff021916908360ff16021790555050565b606060405180602001604052806000815250905090565b606060008214156124e1576040518060400160405280600181526020017f30000000000000000000000000000000000000000000000000000000000000008152509050612641565b600082905060005b600082146125135780806124fc90614236565b915050600a8261250c91906140a1565b91506124e9565b60008167ffffffffffffffff811115612555577f4e487b7100000000000000000000000000000000000000000000000000000000600052604160045260246000fd5b6040519080825280601f01601f1916602001820160405280156125875781602001600182028036833780820191505090505b5090505b6000851461263a576001826125a091906140d2565b9150600a856125af9190614289565b60306125bb919061404b565b60f81b8183815181106125f7577f4e487b7100000000000000000000000000000000000000000000000000000000600052603260045260246000fd5b60200101907effffffffffffffffffffffffffffffffffffffffffffffffffffffffffffff1916908160001a905350600a8561263391906140a1565b945061258b565b8093505050505b919050565b60007f01ffc9a7000000000000000000000000000000000000000000000000000000007bffffffffffffffffffffffffffffffffffffffffffffffffffffffff1916827bffffffffffffffffffffffffffffffffffffffffffffffffffffffff1916149050919050565b6126bb838383612979565b600073ffffffffffffffffffffffffffffffffffffffff168373ffffffffffffffffffffffffffffffffffffffff1614156126fe576126f98161297e565b61273d565b8173ffffffffffffffffffffffffffffffffffffffff168373ffffffffffffffffffffffffffffffffffffffff161461273c5761273b83826129c7565b5b5b600073ffffffffffffffffffffffffffffffffffffffff168273ffffffffffffffffffffffffffffffffffffffff1614156127805761277b81612b34565b6127bf565b8273ffffffffffffffffffffffffffffffffffffffff168273ffffffffffffffffffffffffffffffffffffffff16146127be576127bd8282612c77565b5b5b505050565b60006127e58473ffffffffffffffffffffffffffffffffffffffff16612cf6565b1561294e578373ffffffffffffffffffffffffffffffffffffffff1663150b7a0261280e611f06565b8786866040518563ffffffff1660e01b81526004016128309493929190613b2f565b602060405180830381600087803b15801561284a57600080fd5b505af192505050801561287b57506040513d601f19601f820116820180604052508101906128789190613568565b60015b6128fe573d80600081146128ab576040519150601f19603f3d011682016040523d82523d6000602084013e6128b0565b606091505b506000815114156128f6576040517f08c379a00000000000000000000000000000000000000000000000000000000081526004016128ed90613c1a565b60405180910390fd5b805181602001fd5b63150b7a0260e01b7bffffffffffffffffffffffffffffffffffffffffffffffffffffffff1916817bffffffffffffffffffffffffffffffffffffffffffffffffffffffff191614915050612953565b600190505b949350505050565b612975828260405180602001604052806000815250612d09565b5050565b505050565b6008805490506009600083815260200190815260200160002081905550600881908060018154018082558091505060019003906000526020600020016000909190919091505550565b600060016129d484611152565b6129de91906140d2565b9050600060076000848152602001908152602001600020549050818114612ac3576000600660008673ffffffffffffffffffffffffffffffffffffffff1673ffffffffffffffffffffffffffffffffffffffff168152602001908152602001600020600084815260200190815260200160002054905080600660008773ffffffffffffffffffffffffffffffffffffffff1673ffffffffffffffffffffffffffffffffffffffff168152602001908152602001600020600084815260200190815260200160002081905550816007600083815260200190815260200160002081905550505b6007600084815260200190815260200160002060009055600660008573ffffffffffffffffffffffffffffffffffffffff1673ffffffffffffffffffffffffffffffffffffffff16815260200190815260200160002060008381526020019081526020016000206000905550505050565b60006001600880549050612b4891906140d2565b9050600060096000848152602001908152602001600020549050600060088381548110612b9e577f4e487b7100000000000000000000000000000000000000000000000000000000600052603260045260246000fd5b906000526020600020015490508060088381548110612be6577f4e487b7100000000000000000000000000000000000000000000000000000000600052603260045260246000fd5b906000526020600020018190555081600960008381526020019081526020016000208190555060096000858152602001908152602001600020600090556008805480612c5b577f4e487b7100000000000000000000000000000000000000000000000000000000600052603160045260246000fd5b6001900381819060005260206000200160009055905550505050565b6000612c8283611152565b905081600660008573ffffffffffffffffffffffffffffffffffffffff1673ffffffffffffffffffffffffffffffffffffffff168152602001908152602001600020600083815260200190815260200160002081905550806007600084815260200190815260200160002081905550505050565b600080823b905060008111915050919050565b612d138383612d64565b612d2060008484846127c4565b612d5f576040517f08c379a0000000000000000000000000000000000000000000000000000000008152600401612d5690613c1a565b60405180910390fd5b505050565b600073ffffffffffffffffffffffffffffffffffffffff168273ffffffffffffffffffffffffffffffffffffffff161415612dd4576040517f08c379a0000000000000000000000000000000000000000000000000000000008152600401612dcb90613d9a565b60405180910390fd5b612ddd81611e9a565b15612e1d576040517f08c379a0000000000000000000000000000000000000000000000000000000008152600401612e1490613c5a565b60405180910390fd5b612e29600083836126b0565b6001600360008473ffffffffffffffffffffffffffffffffffffffff1673ffffffffffffffffffffffffffffffffffffffff1681526020019081526020016000206000828254612e79919061404b565b92505081905550816002600083815260200190815260200160002060006101000a81548173ffffffffffffffffffffffffffffffffffffffff021916908373ffffffffffffffffffffffffffffffffffffffff160217905550808273ffffffffffffffffffffffffffffffffffffffff16600073ffffffffffffffffffffffffffffffffffffffff167fddf252ad1be2c89b69c2b068fc378daa952ba7f163c4a11628f55a4df523b3ef60405160405180910390a45050565b828054828255906000526020600020908101928215612f6e579160200282015b82811115612f6d578251825591602001919060010190612f52565b5b509050612f7b9190613005565b5090565b828054612f8b906141d3565b90600052602060002090601f016020900481019282612fad5760008555612ff4565b82601f10612fc657805160ff1916838001178555612ff4565b82800160010185558215612ff4579182015b82811115612ff3578251825591602001919060010190612fd8565b5b5090506130019190613005565b5090565b5b8082111561301e576000816000905550600101613006565b5090565b600061303561303084613f15565b613ef0565b9050808382526020820190508285602086028201111561305457600080fd5b60005b85811015613084578161306a88826131f4565b845260208401935060208301925050600181019050613057565b5050509392505050565b60006130a161309c84613f41565b613ef0565b905080838252602082019050828560208602820111156130c057600080fd5b60005b858110156130f057816130d68882613287565b8452602084019350602083019250506001810190506130c3565b5050509392505050565b600061310d61310884613f6d565b613ef0565b90508281526020810184848401111561312557600080fd5b613130848285614191565b509392505050565b600061314b61314684613f9e565b613ef0565b90508281526020810184848401111561316357600080fd5b61316e848285614191565b509392505050565b6000813590506131858161494a565b92915050565b600082601f83011261319c57600080fd5b81356131ac848260208601613022565b91505092915050565b600082601f8301126131c657600080fd5b81356131d684826020860161308e565b91505092915050565b6000813590506131ee81614961565b92915050565b60008135905061320381614978565b92915050565b6000813590506132188161498f565b92915050565b60008151905061322d8161498f565b92915050565b600082601f83011261324457600080fd5b81356132548482602086016130fa565b91505092915050565b600082601f83011261326e57600080fd5b813561327e848260208601613138565b91505092915050565b600081359050613296816149a6565b92915050565b6000813590506132ab816149bd565b92915050565b6000602082840312156132c357600080fd5b60006132d184828501613176565b91505092915050565b600080604083850312156132ed57600080fd5b60006132fb85828601613176565b925050602061330c85828601613176565b9150509250929050565b60008060006060848603121561332b57600080fd5b600061333986828701613176565b935050602061334a86828701613176565b925050604061335b86828701613287565b9150509250925092565b6000806000806080858703121561337b57600080fd5b600061338987828801613176565b945050602061339a87828801613176565b93505060406133ab87828801613287565b925050606085013567ffffffffffffffff8111156133c857600080fd5b6133d487828801613233565b91505092959194509250565b600080604083850312156133f357600080fd5b600061340185828601613176565b9250506020613412858286016131df565b9150509250929050565b6000806040838503121561342f57600080fd5b600061343d85828601613176565b925050602061344e85828601613287565b9150509250929050565b60006020828403121561346a57600080fd5b600082013567ffffffffffffffff81111561348457600080fd5b613490848285016131b5565b91505092915050565b6000602082840312156134ab57600080fd5b60006134b9848285016131df565b91505092915050565b6000602082840312156134d457600080fd5b60006134e2848285016131f4565b91505092915050565b600080604083850312156134fe57600080fd5b600061350c858286016131f4565b925050602083013567ffffffffffffffff81111561352957600080fd5b6135358582860161318b565b9150509250929050565b60006020828403121561355157600080fd5b600061355f84828501613209565b91505092915050565b60006020828403121561357a57600080fd5b60006135888482850161321e565b91505092915050565b6000602082840312156135a357600080fd5b600082013567ffffffffffffffff8111156135bd57600080fd5b6135c98482850161325d565b91505092915050565b6000602082840312156135e457600080fd5b60006135f284828501613287565b91505092915050565b60006020828403121561360d57600080fd5b600061361b8482850161329c565b91505092915050565b60006136308383613a97565b60208301905092915050565b61364581614106565b82525050565b600061365682613fdf565b613660818561400d565b935061366b83613fcf565b8060005b8381101561369c5781516136838882613624565b975061368e83614000565b92505060018101905061366f565b5085935050505092915050565b6136b281614118565b82525050565b6136c96136c482614124565b61427f565b82525050565b60006136da82613fea565b6136e4818561401e565b93506136f48185602086016141a0565b6136fd81614376565b840191505092915050565b600061371382613ff5565b61371d818561402f565b935061372d8185602086016141a0565b61373681614376565b840191505092915050565b600061374c82613ff5565b6137568185614040565b93506137668185602086016141a0565b80840191505092915050565b600061377f60178361402f565b915061378a82614387565b602082019050919050565b60006137a2602b8361402f565b91506137ad826143b0565b604082019050919050565b60006137c560328361402f565b91506137d0826143ff565b604082019050919050565b60006137e860268361402f565b91506137f38261444e565b604082019050919050565b600061380b601c8361402f565b91506138168261449d565b602082019050919050565b600061382e60248361402f565b9150613839826144c6565b604082019050919050565b600061385160198361402f565b915061385c82614515565b602082019050919050565b6000613874602c8361402f565b915061387f8261453e565b604082019050919050565b6000613897600f8361402f565b91506138a28261458d565b602082019050919050565b60006138ba60108361402f565b91506138c5826145b6565b602082019050919050565b60006138dd60388361402f565b91506138e8826145df565b604082019050919050565b6000613900600f8361402f565b915061390b8261462e565b602082019050919050565b6000613923602a8361402f565b915061392e82614657565b604082019050919050565b600061394660298361402f565b9150613951826146a6565b604082019050919050565b600061396960208361402f565b9150613974826146f5565b602082019050919050565b600061398c60138361402f565b91506139978261471e565b602082019050919050565b60006139af602c8361402f565b91506139ba82614747565b604082019050919050565b60006139d260208361402f565b91506139dd82614796565b602082019050919050565b60006139f560298361402f565b9150613a00826147bf565b604082019050919050565b6000613a18602f8361402f565b9150613a238261480e565b604082019050919050565b6000613a3b60218361402f565b9150613a468261485d565b604082019050919050565b6000613a5e60318361402f565b9150613a69826148ac565b604082019050919050565b6000613a81602c8361402f565b9150613a8c826148fb565b604082019050919050565b613aa08161417a565b82525050565b613aaf8161417a565b82525050565b613abe81614184565b82525050565b6000613ad082856136b8565b602082019150613ae082846136b8565b6020820191508190509392505050565b6000613afc8285613741565b9150613b088284613741565b91508190509392505050565b6000602082019050613b29600083018461363c565b92915050565b6000608082019050613b44600083018761363c565b613b51602083018661363c565b613b5e6040830185613aa6565b8181036060830152613b7081846136cf565b905095945050505050565b60006020820190508181036000830152613b95818461364b565b905092915050565b6000602082019050613bb260008301846136a9565b92915050565b60006020820190508181036000830152613bd28184613708565b905092915050565b60006020820190508181036000830152613bf381613772565b9050919050565b60006020820190508181036000830152613c1381613795565b9050919050565b60006020820190508181036000830152613c33816137b8565b9050919050565b60006020820190508181036000830152613c53816137db565b9050919050565b60006020820190508181036000830152613c73816137fe565b9050919050565b60006020820190508181036000830152613c9381613821565b9050919050565b60006020820190508181036000830152613cb381613844565b9050919050565b60006020820190508181036000830152613cd381613867565b9050919050565b60006020820190508181036000830152613cf38161388a565b9050919050565b60006020820190508181036000830152613d13816138ad565b9050919050565b60006020820190508181036000830152613d33816138d0565b9050919050565b60006020820190508181036000830152613d53816138f3565b9050919050565b60006020820190508181036000830152613d7381613916565b9050919050565b60006020820190508181036000830152613d9381613939565b9050919050565b60006020820190508181036000830152613db38161395c565b9050919050565b60006020820190508181036000830152613dd38161397f565b9050919050565b60006020820190508181036000830152613df3816139a2565b9050919050565b60006020820190508181036000830152613e13816139c5565b9050919050565b60006020820190508181036000830152613e33816139e8565b9050919050565b60006020820190508181036000830152613e5381613a0b565b9050919050565b60006020820190508181036000830152613e7381613a2e565b9050919050565b60006020820190508181036000830152613e9381613a51565b9050919050565b60006020820190508181036000830152613eb381613a74565b9050919050565b6000602082019050613ecf6000830184613aa6565b92915050565b6000602082019050613eea6000830184613ab5565b92915050565b6000613efa613f0b565b9050613f068282614205565b919050565b6000604051905090565b600067ffffffffffffffff821115613f3057613f2f614347565b5b602082029050602081019050919050565b600067ffffffffffffffff821115613f5c57613f5b614347565b5b602082029050602081019050919050565b600067ffffffffffffffff821115613f8857613f87614347565b5b613f9182614376565b9050602081019050919050565b600067ffffffffffffffff821115613fb957613fb8614347565b5b613fc282614376565b9050602081019050919050565b6000819050602082019050919050565b600081519050919050565b600081519050919050565b600081519050919050565b6000602082019050919050565b600082825260208201905092915050565b600082825260208201905092915050565b600082825260208201905092915050565b600081905092915050565b60006140568261417a565b91506140618361417a565b9250827fffffffffffffffffffffffffffffffffffffffffffffffffffffffffffffffff03821115614096576140956142ba565b5b828201905092915050565b60006140ac8261417a565b91506140b78361417a565b9250826140c7576140c66142e9565b5b828204905092915050565b60006140dd8261417a565b91506140e88361417a565b9250828210156140fb576140fa6142ba565b5b828203905092915050565b60006141118261415a565b9050919050565b60008115159050919050565b6000819050919050565b60007fffffffff0000000000000000000000000000000000000000000000000000000082169050919050565b600073ffffffffffffffffffffffffffffffffffffffff82169050919050565b6000819050919050565b600060ff82169050919050565b82818337600083830152505050565b60005b838110156141be5780820151818401526020810190506141a3565b838111156141cd576000848401525b50505050565b600060028204905060018216806141eb57607f821691505b602082108114156141ff576141fe614318565b5b50919050565b61420e82614376565b810181811067ffffffffffffffff8211171561422d5761422c614347565b5b80604052505050565b60006142418261417a565b91507fffffffffffffffffffffffffffffffffffffffffffffffffffffffffffffffff821415614274576142736142ba565b5b600182019050919050565b6000819050919050565b60006142948261417a565b915061429f8361417a565b9250826142af576142ae6142e9565b5b828206905092915050565b7f4e487b7100000000000000000000000000000000000000000000000000000000600052601160045260246000fd5b7f4e487b7100000000000000000000000000000000000000000000000000000000600052601260045260246000fd5b7f4e487b7100000000000000000000000000000000000000000000000000000000600052602260045260246000fd5b7f4e487b7100000000000000000000000000000000000000000000000000000000600052604160045260246000fd5b6000601f19601f8301169050919050565b7f57686974656c697374206973206e6f7420616374697665000000000000000000600082015250565b7f455243373231456e756d657261626c653a206f776e657220696e646578206f7560008201527f74206f6620626f756e6473000000000000000000000000000000000000000000602082015250565b7f4552433732313a207472616e7366657220746f206e6f6e20455243373231526560008201527f63656976657220696d706c656d656e7465720000000000000000000000000000602082015250565b7f4f776e61626c653a206e6577206f776e657220697320746865207a65726f206160008201527f6464726573730000000000000000000000000000000000000000000000000000602082015250565b7f4552433732313a20746f6b656e20616c7265616479206d696e74656400000000600082015250565b7f4552433732313a207472616e7366657220746f20746865207a65726f2061646460008201527f7265737300000000000000000000000000000000000000000000000000000000602082015250565b7f4552433732313a20617070726f766520746f2063616c6c657200000000000000600082015250565b7f4552433732313a206f70657261746f7220717565727920666f72206e6f6e657860008201527f697374656e7420746f6b656e0000000000000000000000000000000000000000602082015250565b7f4e6f7420656e6f7567687420424e420000000000000000000000000000000000600082015250565b7f5061757361626c653a2070617573656400000000000000000000000000000000600082015250565b7f4552433732313a20617070726f76652063616c6c6572206973206e6f74206f7760008201527f6e6572206e6f7220617070726f76656420666f7220616c6c0000000000000000602082015250565b7f4e6f742077686974656c69737465640000000000000000000000000000000000600082015250565b7f4552433732313a2062616c616e636520717565727920666f7220746865207a6560008201527f726f206164647265737300000000000000000000000000000000000000000000602082015250565b7f4552433732313a206f776e657220717565727920666f72206e6f6e657869737460008201527f656e7420746f6b656e0000000000000000000000000000000000000000000000602082015250565b7f4552433732313a206d696e7420746f20746865207a65726f2061646472657373600082015250565b7f57686974656c6973742069732061637469766500000000000000000000000000600082015250565b7f4552433732313a20617070726f76656420717565727920666f72206e6f6e657860008201527f697374656e7420746f6b656e0000000000000000000000000000000000000000602082015250565b7f4f776e61626c653a2063616c6c6572206973206e6f7420746865206f776e6572600082015250565b7f4552433732313a207472616e73666572206f6620746f6b656e2074686174206960008201527f73206e6f74206f776e0000000000000000000000000000000000000000000000602082015250565b7f4552433732314d657461646174613a2055524920717565727920666f72206e6f60008201527f6e6578697374656e7420746f6b656e0000000000000000000000000000000000602082015250565b7f4552433732313a20617070726f76616c20746f2063757272656e74206f776e6560008201527f7200000000000000000000000000000000000000000000000000000000000000602082015250565b7f4552433732313a207472616e736665722063616c6c6572206973206e6f74206f60008201527f776e6572206e6f7220617070726f766564000000000000000000000000000000602082015250565b7f455243373231456e756d657261626c653a20676c6f62616c20696e646578206f60008201527f7574206f6620626f756e64730000000000000000000000000000000000000000602082015250565b61495381614106565b811461495e57600080fd5b50565b61496a81614118565b811461497557600080fd5b50565b61498181614124565b811461498c57600080fd5b50565b6149988161412e565b81146149a357600080fd5b50565b6149af8161417a565b81146149ba57600080fd5b50565b6149c681614184565b81146149d157600080fd5b5056fea2646970667358221220fc2ccff07f3908889f51a469625d102dd6b112719d8458118b00fe363b588bf264736f6c63430008040033",
  "linkReferences": {},
  "deployedLinkReferences": {}
}