{
  "_format": "hh-sol-artifact-1",
  "contractName": "BurgerOld",
  "sourceName": "contracts/BurgerOld.sol",
  "abi": [
    {
      "inputs": [],
      "stateMutability": "nonpayable",
      "type": "constructor"
    },
    {
      "anonymous": false,
      "inputs": [
        {
          "indexed": true,
          "internalType": "address",
          "name": "owner",
          "type": "address"
        },
        {
          "indexed": true,
          "internalType": "address",
          "name": "approved",
          "type": "address"
        },
        {
          "indexed": true,
          "internalType": "uint256",
          "name": "tokenId",
          "type": "uint256"
        }
      ],
      "name": "Approval",
      "type": "event"
    },
    {
      "anonymous": false,
      "inputs": [
        {
          "indexed": true,
          "internalType": "address",
          "name": "owner",
          "type": "address"
        },
        {
          "indexed": true,
          "internalType": "address",
          "name": "operator",
          "type": "address"
        },
        {
          "indexed": false,
          "internalType": "bool",
          "name": "approved",
          "type": "bool"
        }
      ],
      "name": "ApprovalForAll",
      "type": "event"
    },
    {
      "anonymous": false,
      "inputs": [
        {
          "indexed": true,
          "internalType": "address",
          "name": "_to",
          "type": "address"
        },
        {
          "indexed": false,
          "internalType": "string",
          "name": "tokenURI",
          "type": "string"
        },
        {
          "indexed": false,
          "internalType": "uint256",
          "name": "id",
          "type": "uint256"
        }
      ],
      "name": "NFTMintEvent",
      "type": "event"
    },
    {
      "anonymous": false,
      "inputs": [
        {
          "indexed": true,
          "internalType": "address",
          "name": "previousOwner",
          "type": "address"
        },
        {
          "indexed": true,
          "internalType": "address",
          "name": "newOwner",
          "type": "address"
        }
      ],
      "name": "OwnershipTransferred",
      "type": "event"
    },
    {
      "anonymous": false,
      "inputs": [
        {
          "indexed": false,
          "internalType": "address",
          "name": "account",
          "type": "address"
        }
      ],
      "name": "Paused",
      "type": "event"
    },
    {
      "anonymous": false,
      "inputs": [
        {
          "indexed": true,
          "internalType": "address",
          "name": "from",
          "type": "address"
        },
        {
          "indexed": true,
          "internalType": "address",
          "name": "to",
          "type": "address"
        },
        {
          "indexed": true,
          "internalType": "uint256",
          "name": "tokenId",
          "type": "uint256"
        }
      ],
      "name": "Transfer",
      "type": "event"
    },
    {
      "anonymous": false,
      "inputs": [
        {
          "indexed": false,
          "internalType": "address",
          "name": "account",
          "type": "address"
        }
      ],
      "name": "Unpaused",
      "type": "event"
    },
    {
      "inputs": [
        {
          "internalType": "address",
          "name": "to",
          "type": "address"
        },
        {
          "internalType": "uint256",
          "name": "tokenId",
          "type": "uint256"
        }
      ],
      "name": "approve",
      "outputs": [],
      "stateMutability": "nonpayable",
      "type": "function"
    },
    {
      "inputs": [
        {
          "internalType": "address",
          "name": "owner",
          "type": "address"
        }
      ],
      "name": "balanceOf",
      "outputs": [
        {
          "internalType": "uint256",
          "name": "",
          "type": "uint256"
        }
      ],
      "stateMutability": "view",
      "type": "function"
    },
    {
      "inputs": [
        {
          "internalType": "uint256[3]",
          "name": "newPrice",
          "type": "uint256[3]"
        }
      ],
      "name": "changePrice",
      "outputs": [],
      "stateMutability": "nonpayable",
      "type": "function"
    },
    {
      "inputs": [
        {
          "internalType": "bytes32",
          "name": "newRoot",
          "type": "bytes32"
        }
      ],
      "name": "changeRoot",
      "outputs": [],
      "stateMutability": "nonpayable",
      "type": "function"
    },
    {
      "inputs": [
        {
          "internalType": "uint256[3]",
          "name": "newPrice",
          "type": "uint256[3]"
        }
      ],
      "name": "changeWhitelistPrice",
      "outputs": [],
      "stateMutability": "nonpayable",
      "type": "function"
    },
    {
      "inputs": [
        {
          "internalType": "bool",
          "name": "newState",
          "type": "bool"
        }
      ],
      "name": "changeWhitelistState",
      "outputs": [],
      "stateMutability": "nonpayable",
      "type": "function"
    },
    {
      "inputs": [
        {
          "internalType": "uint256",
          "name": "tokenId",
          "type": "uint256"
        }
      ],
      "name": "getApproved",
      "outputs": [
        {
          "internalType": "address",
          "name": "",
          "type": "address"
        }
      ],
      "stateMutability": "view",
      "type": "function"
    },
    {
      "inputs": [
        {
          "internalType": "uint8",
          "name": "boxId",
          "type": "uint8"
        }
      ],
      "name": "getPrice",
      "outputs": [
        {
          "internalType": "uint256",
          "name": "actualPrice",
          "type": "uint256"
        }
      ],
      "stateMutability": "view",
      "type": "function"
    },
    {
      "inputs": [],
      "name": "getVerfiedAddress",
      "outputs": [
        {
          "internalType": "address",
          "name": "",
          "type": "address"
        }
      ],
      "stateMutability": "view",
      "type": "function"
    },
    {
      "inputs": [
        {
          "internalType": "address",
          "name": "owner",
          "type": "address"
        },
        {
          "internalType": "address",
          "name": "operator",
          "type": "address"
        }
      ],
      "name": "isApprovedForAll",
      "outputs": [
        {
          "internalType": "bool",
          "name": "",
          "type": "bool"
        }
      ],
      "stateMutability": "view",
      "type": "function"
    },
    {
      "inputs": [
        {
          "internalType": "address",
          "name": "_to",
          "type": "address"
        },
        {
          "internalType": "string",
          "name": "tokenUri",
          "type": "string"
        },
        {
          "internalType": "bytes32",
          "name": "tokenUriHash",
          "type": "bytes32"
        },
        {
          "internalType": "bytes",
          "name": "tokenUriSignature",
          "type": "bytes"
        },
        {
          "internalType": "uint8",
          "name": "boxId",
          "type": "uint8"
        },
        {
          "internalType": "bytes32",
          "name": "boxIdHash",
          "type": "bytes32"
        },
        {
          "internalType": "bytes",
          "name": "boxIdSignature",
          "type": "bytes"
        },
        {
          "internalType": "bytes32[]",
          "name": "proof",
          "type": "bytes32[]"
        }
      ],
      "name": "mint",
      "outputs": [
        {
          "internalType": "uint256",
          "name": "",
          "type": "uint256"
        }
      ],
      "stateMutability": "payable",
      "type": "function"
    },
    {
      "inputs": [],
      "name": "name",
      "outputs": [
        {
          "internalType": "string",
          "name": "",
          "type": "string"
        }
      ],
      "stateMutability": "view",
      "type": "function"
    },
    {
      "inputs": [],
      "name": "owner",
      "outputs": [
        {
          "internalType": "address",
          "name": "",
          "type": "address"
        }
      ],
      "stateMutability": "view",
      "type": "function"
    },
    {
      "inputs": [
        {
          "internalType": "uint256",
          "name": "tokenId",
          "type": "uint256"
        }
      ],
      "name": "ownerOf",
      "outputs": [
        {
          "internalType": "address",
          "name": "",
          "type": "address"
        }
      ],
      "stateMutability": "view",
      "type": "function"
    },
    {
      "inputs": [],
      "name": "pause",
      "outputs": [
        {
          "internalType": "bool",
          "name": "",
          "type": "bool"
        }
      ],
      "stateMutability": "nonpayable",
      "type": "function"
    },
    {
      "inputs": [],
      "name": "paused",
      "outputs": [
        {
          "internalType": "bool",
          "name": "",
          "type": "bool"
        }
      ],
      "stateMutability": "view",
      "type": "function"
    },
    {
      "inputs": [],
      "name": "renounceOwnership",
      "outputs": [],
      "stateMutability": "nonpayable",
      "type": "function"
    },
    {
      "inputs": [
        {
          "internalType": "address",
          "name": "from",
          "type": "address"
        },
        {
          "internalType": "address",
          "name": "to",
          "type": "address"
        },
        {
          "internalType": "uint256",
          "name": "tokenId",
          "type": "uint256"
        }
      ],
      "name": "safeTransferFrom",
      "outputs": [],
      "stateMutability": "nonpayable",
      "type": "function"
    },
    {
      "inputs": [
        {
          "internalType": "address",
          "name": "from",
          "type": "address"
        },
        {
          "internalType": "address",
          "name": "to",
          "type": "address"
        },
        {
          "internalType": "uint256",
          "name": "tokenId",
          "type": "uint256"
        },
        {
          "internalType": "bytes",
          "name": "_data",
          "type": "bytes"
        }
      ],
      "name": "safeTransferFrom",
      "outputs": [],
      "stateMutability": "nonpayable",
      "type": "function"
    },
    {
      "inputs": [
        {
          "internalType": "address",
          "name": "operator",
          "type": "address"
        },
        {
          "internalType": "bool",
          "name": "approved",
          "type": "bool"
        }
      ],
      "name": "setApprovalForAll",
      "outputs": [],
      "stateMutability": "nonpayable",
      "type": "function"
    },
    {
      "inputs": [
        {
          "internalType": "address",
          "name": "_verifiedAddress",
          "type": "address"
        }
      ],
      "name": "setVerifiedAddress",
      "outputs": [],
      "stateMutability": "nonpayable",
      "type": "function"
    },
    {
      "inputs": [
        {
          "internalType": "bytes4",
          "name": "interfaceId",
          "type": "bytes4"
        }
      ],
      "name": "supportsInterface",
      "outputs": [
        {
          "internalType": "bool",
          "name": "",
          "type": "bool"
        }
      ],
      "stateMutability": "view",
      "type": "function"
    },
    {
      "inputs": [],
      "name": "symbol",
      "outputs": [
        {
          "internalType": "string",
          "name": "",
          "type": "string"
        }
      ],
      "stateMutability": "view",
      "type": "function"
    },
    {
      "inputs": [
        {
          "internalType": "uint256",
          "name": "index",
          "type": "uint256"
        }
      ],
      "name": "tokenByIndex",
      "outputs": [
        {
          "internalType": "uint256",
          "name": "",
          "type": "uint256"
        }
      ],
      "stateMutability": "view",
      "type": "function"
    },
    {
      "inputs": [
        {
          "internalType": "address",
          "name": "owner",
          "type": "address"
        },
        {
          "internalType": "uint256",
          "name": "index",
          "type": "uint256"
        }
      ],
      "name": "tokenOfOwnerByIndex",
      "outputs": [
        {
          "internalType": "uint256",
          "name": "",
          "type": "uint256"
        }
      ],
      "stateMutability": "view",
      "type": "function"
    },
    {
      "inputs": [
        {
          "internalType": "uint256",
          "name": "tokenId",
          "type": "uint256"
        }
      ],
      "name": "tokenURI",
      "outputs": [
        {
          "internalType": "string",
          "name": "",
          "type": "string"
        }
      ],
      "stateMutability": "view",
      "type": "function"
    },
    {
      "inputs": [],
      "name": "totalSupply",
      "outputs": [
        {
          "internalType": "uint256",
          "name": "",
          "type": "uint256"
        }
      ],
      "stateMutability": "view",
      "type": "function"
    },
    {
      "inputs": [
        {
          "internalType": "address",
          "name": "from",
          "type": "address"
        },
        {
          "internalType": "address",
          "name": "to",
          "type": "address"
        },
        {
          "internalType": "uint256",
          "name": "tokenId",
          "type": "uint256"
        }
      ],
      "name": "transferFrom",
      "outputs": [],
      "stateMutability": "nonpayable",
      "type": "function"
    },
    {
      "inputs": [
        {
          "internalType": "address",
          "name": "newOwner",
          "type": "address"
        }
      ],
      "name": "transferOwnership",
      "outputs": [],
      "stateMutability": "nonpayable",
      "type": "function"
    },
    {
      "inputs": [],
      "name": "unpause",
      "outputs": [
        {
          "internalType": "bool",
          "name": "",
          "type": "bool"
        }
      ],
      "stateMutability": "nonpayable",
      "type": "function"
    },
    {
      "inputs": [
        {
          "internalType": "bytes32",
          "name": "leaf",
          "type": "bytes32"
        },
        {
          "internalType": "bytes32[]",
          "name": "proof",
          "type": "bytes32[]"
        }
      ],
      "name": "verifyWhitelist",
      "outputs": [
        {
          "internalType": "bool",
          "name": "",
          "type": "bool"
        }
      ],
      "stateMutability": "view",
      "type": "function"
    },
    {
      "inputs": [],
      "name": "whitelistActive",
      "outputs": [
        {
          "internalType": "bool",
          "name": "",
          "type": "bool"
        }
      ],
      "stateMutability": "view",
      "type": "function"
    }
  ],
  "bytecode": "0x60e060405264e8d4a5100060809081526501d1a94a200060a0526502ba7def300060c0526200003390600c906003620001b9565b506040805160608101825264174876e8008152642e90edd00060208201526445d964b800918101919091526200006e90600f90600362000206565b50601380546001600160a81b03191673c09eac15f9ba6462e8e4612af7c431e1cfe08b871790557fa2fc709bf2f4b9cb44b8a9114485d12d4877bb1beedd81f62f4f85a8056480ee601455348015620000c657600080fd5b5060405180604001604052806006815260200165213ab933b2b960d11b81525060405180604001604052806006815260200165212aa923a2a960d11b81525081600090805190602001906200011d92919062000240565b5080516200013390600190602084019062000240565b505050620001506200014a6200016360201b60201c565b62000167565b600b805460ff60a01b1916905562000311565b3390565b600b80546001600160a01b038381166001600160a01b0319831681179093556040519116919082907f8be0079c531659141344cd1fd0a4f28419497f9722a3daafe3b4186f6b6457e090600090a35050565b8260038101928215620001f4579160200282015b82811115620001f4578251829065ffffffffffff16905591602001919060010190620001cd565b5062000202929150620002bd565b5090565b8260038101928215620001f4579160200282015b82811115620001f4578251829064ffffffffff169055916020019190600101906200021a565b8280546200024e90620002d4565b90600052602060002090601f016020900481019282620002725760008555620001f4565b82601f106200028d57805160ff1916838001178555620001f4565b82800160010185558215620001f4579182015b82811115620001f4578251825591602001919060010190620002a0565b5b80821115620002025760008155600101620002be565b600181811c90821680620002e957607f821691505b602082108114156200030b57634e487b7160e01b600052602260045260246000fd5b50919050565b612d1780620003216000396000f3fe6080604052600436106101e35760003560e01c80634f6ccce711610102578063a22cb46511610095578063d9583b9f11610064578063d9583b9f1461055b578063e793cce81461057b578063e985e9c51461059b578063f2fde38b146105e457600080fd5b8063a22cb465146104e8578063b62f94f114610508578063b88d4fde1461051b578063c87b56dd1461053b57600080fd5b8063715018a6116100d1578063715018a61461048b5780638456cb59146104a05780638da5cb5b146104b557806395d89b41146104d357600080fd5b80634f6ccce71461040c5780635c975abb1461042c5780636352211e1461044b57806370a082311461046b57600080fd5b8063329ea90d1161017a5780633e4356d7116101495780633e4356d7146103995780633f4ba83a146103b757806342842e0e146103cc5780634f66cbcd146103ec57600080fd5b8063329ea90d1461031957806335ec93f51461033957806337f1e7f2146103595780633d59cd601461037957600080fd5b8063095ea7b3116101b6578063095ea7b31461029857806318160ddd146102ba57806323b872dd146102d95780632f745c59146102f957600080fd5b806301ffc9a7146101e857806302ce58131461021d57806306fdde031461023e578063081812fc14610260575b600080fd5b3480156101f457600080fd5b506102086102033660046124ed565b610604565b60405190151581526020015b60405180910390f35b34801561022957600080fd5b5060135461020890600160a01b900460ff1681565b34801561024a57600080fd5b50610253610615565b6040516102149190612562565b34801561026c57600080fd5b5061028061027b366004612575565b6106a7565b6040516001600160a01b039091168152602001610214565b3480156102a457600080fd5b506102b86102b33660046125a5565b610734565b005b3480156102c657600080fd5b506009545b604051908152602001610214565b3480156102e557600080fd5b506102b86102f43660046125cf565b61084a565b34801561030557600080fd5b506102cb6103143660046125a5565b61087b565b34801561032557600080fd5b506102086103343660046126d2565b610911565b34801561034557600080fd5b506102b8610354366004612719565b6109c2565b34801561036557600080fd5b506102cb6103743660046127a8565b6109fd565b34801561038557600080fd5b506102b8610394366004612575565b610aa6565b3480156103a557600080fd5b506013546001600160a01b0316610280565b3480156103c357600080fd5b50610208610ad5565b3480156103d857600080fd5b506102b86103e73660046125cf565b610b10565b3480156103f857600080fd5b506102b86104073660046127c3565b610b2b565b34801561041857600080fd5b506102cb610427366004612575565b610b77565b34801561043857600080fd5b50600b54600160a01b900460ff16610208565b34801561045757600080fd5b50610280610466366004612575565b610c0a565b34801561047757600080fd5b506102cb6104863660046127c3565b610c81565b34801561049757600080fd5b506102b8610d08565b3480156104ac57600080fd5b50610208610d3e565b3480156104c157600080fd5b50600b546001600160a01b0316610280565b3480156104df57600080fd5b50610253610d73565b3480156104f457600080fd5b506102b86105033660046127ee565b610d82565b6102cb610516366004612891565b610e47565b34801561052757600080fd5b506102b8610536366004612973565b610f5c565b34801561054757600080fd5b50610253610556366004612575565b610f94565b34801561056757600080fd5b506102b86105763660046129db565b610f9f565b34801561058757600080fd5b506102b8610596366004612719565b610fe7565b3480156105a757600080fd5b506102086105b63660046129f6565b6001600160a01b03918216600090815260056020908152604080832093909416825291909152205460ff1690565b3480156105f057600080fd5b506102b86105ff3660046127c3565b61101e565b600061060f826110b9565b92915050565b60606000805461062490612a20565b80601f016020809104026020016040519081016040528092919081815260200182805461065090612a20565b801561069d5780601f106106725761010080835404028352916020019161069d565b820191906000526020600020905b81548152906001019060200180831161068057829003601f168201915b5050505050905090565b60006106b2826110de565b6107185760405162461bcd60e51b815260206004820152602c60248201527f4552433732313a20617070726f76656420717565727920666f72206e6f6e657860448201526b34b9ba32b73a103a37b5b2b760a11b60648201526084015b60405180910390fd5b506000908152600460205260409020546001600160a01b031690565b600061073f82610c0a565b9050806001600160a01b0316836001600160a01b031614156107ad5760405162461bcd60e51b815260206004820152602160248201527f4552433732313a20617070726f76616c20746f2063757272656e74206f776e656044820152603960f91b606482015260840161070f565b336001600160a01b03821614806107c957506107c981336105b6565b61083b5760405162461bcd60e51b815260206004820152603860248201527f4552433732313a20617070726f76652063616c6c6572206973206e6f74206f7760448201527f6e6572206e6f7220617070726f76656420666f7220616c6c0000000000000000606482015260840161070f565b61084583836110fb565b505050565b6108543382611169565b6108705760405162461bcd60e51b815260040161070f90612a5b565b610845838383611253565b600061088683610c81565b82106108e85760405162461bcd60e51b815260206004820152602b60248201527f455243373231456e756d657261626c653a206f776e657220696e646578206f7560448201526a74206f6620626f756e647360a81b606482015260840161070f565b506001600160a01b03919091166000908152600760209081526040808320938352929052205490565b600082815b83518110156109b657600084828151811061093357610933612aac565b60200260200101519050808310156109765760408051602081018590529081018290526060016040516020818303038152906040528051906020012092506109a3565b60408051602081018390529081018490526060016040516020818303038152906040528051906020012092505b50806109ae81612ad8565b915050610916565b50601454149392505050565b600b546001600160a01b031633146109ec5760405162461bcd60e51b815260040161070f90612af3565b6109f9600c826003612411565b5050565b600060018260ff1610158015610a17575060038260ff1611155b610a5a5760405162461bcd60e51b8152602060048201526014602482015273109bde1259081a5cc81b9bdd0818dbdc9c9958dd60621b604482015260640161070f565b601354600160a01b900460ff1615610a9457600f610a79600184612b28565b60ff1660038110610a8c57610a8c612aac565b015492915050565b600c610a79600184612b28565b919050565b600b546001600160a01b03163314610ad05760405162461bcd60e51b815260040161070f90612af3565b601455565b600b546000906001600160a01b03163314610b025760405162461bcd60e51b815260040161070f90612af3565b610b0a6113fe565b50600190565b61084583838360405180602001604052806000815250610f5c565b600b546001600160a01b03163314610b555760405162461bcd60e51b815260040161070f90612af3565b601380546001600160a01b0319166001600160a01b0392909216919091179055565b6000610b8260095490565b8210610be55760405162461bcd60e51b815260206004820152602c60248201527f455243373231456e756d657261626c653a20676c6f62616c20696e646578206f60448201526b7574206f6620626f756e647360a01b606482015260840161070f565b60098281548110610bf857610bf8612aac565b90600052602060002001549050919050565b6000818152600260205260408120546001600160a01b03168061060f5760405162461bcd60e51b815260206004820152602960248201527f4552433732313a206f776e657220717565727920666f72206e6f6e657869737460448201526832b73a103a37b5b2b760b91b606482015260840161070f565b60006001600160a01b038216610cec5760405162461bcd60e51b815260206004820152602a60248201527f4552433732313a2062616c616e636520717565727920666f7220746865207a65604482015269726f206164647265737360b01b606482015260840161070f565b506001600160a01b031660009081526003602052604090205490565b600b546001600160a01b03163314610d325760405162461bcd60e51b815260040161070f90612af3565b610d3c600061149b565b565b600b546000906001600160a01b03163314610d6b5760405162461bcd60e51b815260040161070f90612af3565b610b0a6114ed565b60606001805461062490612a20565b6001600160a01b038216331415610ddb5760405162461bcd60e51b815260206004820152601960248201527f4552433732313a20617070726f766520746f2063616c6c657200000000000000604482015260640161070f565b3360008181526005602090815260408083206001600160a01b03871680855290835292819020805460ff191686151590811790915590519081529192917f17307eab39ab6107e8899845ad3d59bd9653f200f220920489ca2b5937696c31910160405180910390a35050565b60008686610e558282611575565b610e8b5760405162461bcd60e51b815260206004820152600760248201526644656e6965642160c81b604482015260640161070f565b8585610e978282611575565b610ecd5760405162461bcd60e51b815260206004820152600760248201526644656e6965642160c81b604482015260640161070f565b600b54600160a01b900460ff1615610f1c5760405162461bcd60e51b81526020600482015260126024820152714d696e74696e67206973207061757365642160701b604482015260640161070f565b601354600160a01b900460ff1615610f4157610f3a8d8d8b8961159f565b9450610f4c565b610f3a8d8d8b61169e565b5050505098975050505050505050565b610f663383611169565b610f825760405162461bcd60e51b815260040161070f90612a5b565b610f8e848484846117b7565b50505050565b606061060f826117ea565b600b546001600160a01b03163314610fc95760405162461bcd60e51b815260040161070f90612af3565b60138054911515600160a01b0260ff60a01b19909216919091179055565b600b546001600160a01b031633146110115760405162461bcd60e51b815260040161070f90612af3565b6109f9600f826003612411565b600b546001600160a01b031633146110485760405162461bcd60e51b815260040161070f90612af3565b6001600160a01b0381166110ad5760405162461bcd60e51b815260206004820152602660248201527f4f776e61626c653a206e6577206f776e657220697320746865207a65726f206160448201526564647265737360d01b606482015260840161070f565b6110b68161149b565b50565b60006001600160e01b0319821663780e9d6360e01b148061060f575061060f82611959565b6000908152600260205260409020546001600160a01b0316151590565b600081815260046020526040902080546001600160a01b0319166001600160a01b038416908117909155819061113082610c0a565b6001600160a01b03167f8c5be1e5ebec7d5bd14f71427d1e84f3dd0314c0f7b2291e5b200ac8c7c3b92560405160405180910390a45050565b6000611174826110de565b6111d55760405162461bcd60e51b815260206004820152602c60248201527f4552433732313a206f70657261746f7220717565727920666f72206e6f6e657860448201526b34b9ba32b73a103a37b5b2b760a11b606482015260840161070f565b60006111e083610c0a565b9050806001600160a01b0316846001600160a01b0316148061121b5750836001600160a01b0316611210846106a7565b6001600160a01b0316145b8061124b57506001600160a01b0380821660009081526005602090815260408083209388168352929052205460ff165b949350505050565b826001600160a01b031661126682610c0a565b6001600160a01b0316146112ce5760405162461bcd60e51b815260206004820152602960248201527f4552433732313a207472616e73666572206f6620746f6b656e2074686174206960448201526839903737ba1037bbb760b91b606482015260840161070f565b6001600160a01b0382166113305760405162461bcd60e51b8152602060048201526024808201527f4552433732313a207472616e7366657220746f20746865207a65726f206164646044820152637265737360e01b606482015260840161070f565b61133b8383836119a9565b6113466000826110fb565b6001600160a01b038316600090815260036020526040812080546001929061136f908490612b4b565b90915550506001600160a01b038216600090815260036020526040812080546001929061139d908490612b62565b909155505060008181526002602052604080822080546001600160a01b0319166001600160a01b0386811691821790925591518493918716917fddf252ad1be2c89b69c2b068fc378daa952ba7f163c4a11628f55a4df523b3ef91a4505050565b600b54600160a01b900460ff1661144e5760405162461bcd60e51b815260206004820152601460248201527314185d5cd8589b194e881b9bdd081c185d5cd95960621b604482015260640161070f565b600b805460ff60a01b191690557f5db9ee0a495bf2e6ff9c91a7834c1ba4fdd244a5e8aa4e537bd38aeae4b073aa335b6040516001600160a01b03909116815260200160405180910390a1565b600b80546001600160a01b038381166001600160a01b0319831681179093556040519116919082907f8be0079c531659141344cd1fd0a4f28419497f9722a3daafe3b4186f6b6457e090600090a35050565b600b54600160a01b900460ff161561153a5760405162461bcd60e51b815260206004820152601060248201526f14185d5cd8589b194e881c185d5cd95960821b604482015260640161070f565b600b805460ff60a01b1916600160a01b1790557f62e78cea01bee320cd4e420270b5ea74000d11b0c9f74754ebdbfc544b05a25861147e3390565b6013546000906001600160a01b031661158e84846119b4565b6001600160a01b0316149392505050565b601354600090600160a01b900460ff166115fb5760405162461bcd60e51b815260206004820152601760248201527f57686974656c697374206973206e6f7420616374697665000000000000000000604482015260640161070f565b6000611649611643876040516bffffffffffffffffffffffff19606083901b166020820152600090603401604051602081830303815290604052805190602001209050919050565b84610911565b905080156116645761165c86868661169e565b91505061124b565b60405162461bcd60e51b815260206004820152600f60248201526e139bdd081dda1a5d195b1a5cdd1959608a1b604482015260640161070f565b6000806116aa836109fd565b9050803410156116fc5760405162461bcd60e51b815260206004820152601f60248201527f4574686572206973206e6f7420656e6f75676820746f206d696e74204e465400604482015260640161070f565b61170a601280546001019055565b600061171560125490565b905061172186826119d8565b61172b8186611b17565b336001600160a01b03167f381522718816817f694da06ead37444f6a1ad8252bd7d029101cafc183a65ff68683604051611766929190612b7a565b60405180910390a2813411156117ae57336108fc6117848434612b4b565b6040518115909202916000818181858888f193505050501580156117ac573d6000803e3d6000fd5b505b95945050505050565b6117c2848484611253565b6117ce84848484611ba2565b610f8e5760405162461bcd60e51b815260040161070f90612b9c565b60606117f5826110de565b61185b5760405162461bcd60e51b815260206004820152603160248201527f45524337323155524953746f726167653a2055524920717565727920666f72206044820152703737b732bc34b9ba32b73a103a37b5b2b760791b606482015260840161070f565b6000828152600660205260408120805461187490612a20565b80601f01602080910402602001604051908101604052809291908181526020018280546118a090612a20565b80156118ed5780601f106118c2576101008083540402835291602001916118ed565b820191906000526020600020905b8154815290600101906020018083116118d057829003601f168201915b50505050509050600061190b60408051602081019091526000815290565b905080516000141561191e575092915050565b815115611950578082604051602001611938929190612bee565b60405160208183030381529060405292505050919050565b61124b84611cac565b60006001600160e01b031982166380ac58cd60e01b148061198a57506001600160e01b03198216635b5e139f60e01b145b8061060f57506301ffc9a760e01b6001600160e01b031983161461060f565b610845838383611d84565b60008060006119c38585611e3c565b915091506119d081611eac565b509392505050565b6001600160a01b038216611a2e5760405162461bcd60e51b815260206004820181905260248201527f4552433732313a206d696e7420746f20746865207a65726f2061646472657373604482015260640161070f565b611a37816110de565b15611a845760405162461bcd60e51b815260206004820152601c60248201527f4552433732313a20746f6b656e20616c7265616479206d696e74656400000000604482015260640161070f565b611a90600083836119a9565b6001600160a01b0382166000908152600360205260408120805460019290611ab9908490612b62565b909155505060008181526002602052604080822080546001600160a01b0319166001600160a01b03861690811790915590518392907fddf252ad1be2c89b69c2b068fc378daa952ba7f163c4a11628f55a4df523b3ef908290a45050565b611b20826110de565b611b835760405162461bcd60e51b815260206004820152602e60248201527f45524337323155524953746f726167653a2055524920736574206f66206e6f6e60448201526d32bc34b9ba32b73a103a37b5b2b760911b606482015260840161070f565b600082815260066020908152604090912082516108459284019061244f565b60006001600160a01b0384163b15611ca457604051630a85bd0160e11b81526001600160a01b0385169063150b7a0290611be6903390899088908890600401612c1d565b602060405180830381600087803b158015611c0057600080fd5b505af1925050508015611c30575060408051601f3d908101601f19168201909252611c2d91810190612c5a565b60015b611c8a573d808015611c5e576040519150601f19603f3d011682016040523d82523d6000602084013e611c63565b606091505b508051611c825760405162461bcd60e51b815260040161070f90612b9c565b805181602001fd5b6001600160e01b031916630a85bd0160e11b14905061124b565b50600161124b565b6060611cb7826110de565b611d1b5760405162461bcd60e51b815260206004820152602f60248201527f4552433732314d657461646174613a2055524920717565727920666f72206e6f60448201526e3732bc34b9ba32b73a103a37b5b2b760891b606482015260840161070f565b6000611d3260408051602081019091526000815290565b90506000815111611d525760405180602001604052806000815250611d7d565b80611d5c84612067565b604051602001611d6d929190612bee565b6040516020818303038152906040525b9392505050565b6001600160a01b038316611ddf57611dda81600980546000838152600a60205260408120829055600182018355919091527f6e1540171b6c0c960b71a7020d9f60077f6af931a8bbf590da0223dacf75c7af0155565b611e02565b816001600160a01b0316836001600160a01b031614611e0257611e028382612165565b6001600160a01b038216611e195761084581612202565b826001600160a01b0316826001600160a01b0316146108455761084582826122b1565b600080825160411415611e735760208301516040840151606085015160001a611e67878285856122f5565b94509450505050611ea5565b825160401415611e9d5760208301516040840151611e928683836123e2565b935093505050611ea5565b506000905060025b9250929050565b6000816004811115611ec057611ec0612c77565b1415611ec95750565b6001816004811115611edd57611edd612c77565b1415611f2b5760405162461bcd60e51b815260206004820152601860248201527f45434453413a20696e76616c6964207369676e61747572650000000000000000604482015260640161070f565b6002816004811115611f3f57611f3f612c77565b1415611f8d5760405162461bcd60e51b815260206004820152601f60248201527f45434453413a20696e76616c6964207369676e6174757265206c656e67746800604482015260640161070f565b6003816004811115611fa157611fa1612c77565b1415611ffa5760405162461bcd60e51b815260206004820152602260248201527f45434453413a20696e76616c6964207369676e6174757265202773272076616c604482015261756560f01b606482015260840161070f565b600481600481111561200e5761200e612c77565b14156110b65760405162461bcd60e51b815260206004820152602260248201527f45434453413a20696e76616c6964207369676e6174757265202776272076616c604482015261756560f01b606482015260840161070f565b60608161208b5750506040805180820190915260018152600360fc1b602082015290565b8160005b81156120b5578061209f81612ad8565b91506120ae9050600a83612ca3565b915061208f565b60008167ffffffffffffffff8111156120d0576120d061260b565b6040519080825280601f01601f1916602001820160405280156120fa576020820181803683370190505b5090505b841561124b5761210f600183612b4b565b915061211c600a86612cb7565b612127906030612b62565b60f81b81838151811061213c5761213c612aac565b60200101906001600160f81b031916908160001a90535061215e600a86612ca3565b94506120fe565b6000600161217284610c81565b61217c9190612b4b565b6000838152600860205260409020549091508082146121cf576001600160a01b03841660009081526007602090815260408083208584528252808320548484528184208190558352600890915290208190555b5060009182526008602090815260408084208490556001600160a01b039094168352600781528383209183525290812055565b60095460009061221490600190612b4b565b6000838152600a60205260408120546009805493945090928490811061223c5761223c612aac565b90600052602060002001549050806009838154811061225d5761225d612aac565b6000918252602080832090910192909255828152600a9091526040808220849055858252812055600980548061229557612295612ccb565b6001900381819060005260206000200160009055905550505050565b60006122bc83610c81565b6001600160a01b039093166000908152600760209081526040808320868452825280832085905593825260089052919091209190915550565b6000807f7fffffffffffffffffffffffffffffff5d576e7357a4501ddfe92f46681b20a083111561232c57506000905060036123d9565b8460ff16601b1415801561234457508460ff16601c14155b1561235557506000905060046123d9565b6040805160008082526020820180845289905260ff881692820192909252606081018690526080810185905260019060a0016020604051602081039080840390855afa1580156123a9573d6000803e3d6000fd5b5050604051601f1901519150506001600160a01b0381166123d2576000600192509250506123d9565b9150600090505b94509492505050565b6000806001600160ff1b03831660ff84901c601b01612403878288856122f5565b935093505050935093915050565b826003810192821561243f579160200282015b8281111561243f578251825591602001919060010190612424565b5061244b9291506124c2565b5090565b82805461245b90612a20565b90600052602060002090601f01602090048101928261247d576000855561243f565b82601f1061249657805160ff191683800117855561243f565b8280016001018555821561243f579182018281111561243f578251825591602001919060010190612424565b5b8082111561244b57600081556001016124c3565b6001600160e01b0319811681146110b657600080fd5b6000602082840312156124ff57600080fd5b8135611d7d816124d7565b60005b8381101561252557818101518382015260200161250d565b83811115610f8e5750506000910152565b6000815180845261254e81602086016020860161250a565b601f01601f19169290920160200192915050565b602081526000611d7d6020830184612536565b60006020828403121561258757600080fd5b5035919050565b80356001600160a01b0381168114610aa157600080fd5b600080604083850312156125b857600080fd5b6125c18361258e565b946020939093013593505050565b6000806000606084860312156125e457600080fd5b6125ed8461258e565b92506125fb6020850161258e565b9150604084013590509250925092565b634e487b7160e01b600052604160045260246000fd5b604051601f8201601f1916810167ffffffffffffffff8111828210171561264a5761264a61260b565b604052919050565b600082601f83011261266357600080fd5b8135602067ffffffffffffffff82111561267f5761267f61260b565b8160051b61268e828201612621565b92835284810182019282810190878511156126a857600080fd5b83870192505b848310156126c7578235825291830191908301906126ae565b979650505050505050565b600080604083850312156126e557600080fd5b82359150602083013567ffffffffffffffff81111561270357600080fd5b61270f85828601612652565b9150509250929050565b60006060828403121561272b57600080fd5b82601f83011261273a57600080fd5b6040516060810181811067ffffffffffffffff8211171561275d5761275d61260b565b60405280606084018581111561277257600080fd5b845b8181101561278c578035835260209283019201612774565b509195945050505050565b803560ff81168114610aa157600080fd5b6000602082840312156127ba57600080fd5b611d7d82612797565b6000602082840312156127d557600080fd5b611d7d8261258e565b80358015158114610aa157600080fd5b6000806040838503121561280157600080fd5b61280a8361258e565b9150612818602084016127de565b90509250929050565b600082601f83011261283257600080fd5b813567ffffffffffffffff81111561284c5761284c61260b565b61285f601f8201601f1916602001612621565b81815284602083860101111561287457600080fd5b816020850160208301376000918101602001919091529392505050565b600080600080600080600080610100898b0312156128ae57600080fd5b6128b78961258e565b9750602089013567ffffffffffffffff808211156128d457600080fd5b6128e08c838d01612821565b985060408b0135975060608b01359150808211156128fd57600080fd5b6129098c838d01612821565b965061291760808c01612797565b955060a08b0135945060c08b013591508082111561293457600080fd5b6129408c838d01612821565b935060e08b013591508082111561295657600080fd5b506129638b828c01612652565b9150509295985092959890939650565b6000806000806080858703121561298957600080fd5b6129928561258e565b93506129a06020860161258e565b925060408501359150606085013567ffffffffffffffff8111156129c357600080fd5b6129cf87828801612821565b91505092959194509250565b6000602082840312156129ed57600080fd5b611d7d826127de565b60008060408385031215612a0957600080fd5b612a128361258e565b91506128186020840161258e565b600181811c90821680612a3457607f821691505b60208210811415612a5557634e487b7160e01b600052602260045260246000fd5b50919050565b60208082526031908201527f4552433732313a207472616e736665722063616c6c6572206973206e6f74206f6040820152701ddb995c881b9bdc88185c1c1c9bdd9959607a1b606082015260800190565b634e487b7160e01b600052603260045260246000fd5b634e487b7160e01b600052601160045260246000fd5b6000600019821415612aec57612aec612ac2565b5060010190565b6020808252818101527f4f776e61626c653a2063616c6c6572206973206e6f7420746865206f776e6572604082015260600190565b600060ff821660ff841680821015612b4257612b42612ac2565b90039392505050565b600082821015612b5d57612b5d612ac2565b500390565b60008219821115612b7557612b75612ac2565b500190565b604081526000612b8d6040830185612536565b90508260208301529392505050565b60208082526032908201527f4552433732313a207472616e7366657220746f206e6f6e20455243373231526560408201527131b2b4bb32b91034b6b83632b6b2b73a32b960711b606082015260800190565b60008351612c0081846020880161250a565b835190830190612c1481836020880161250a565b01949350505050565b6001600160a01b0385811682528416602082015260408101839052608060608201819052600090612c5090830184612536565b9695505050505050565b600060208284031215612c6c57600080fd5b8151611d7d816124d7565b634e487b7160e01b600052602160045260246000fd5b634e487b7160e01b600052601260045260246000fd5b600082612cb257612cb2612c8d565b500490565b600082612cc657612cc6612c8d565b500690565b634e487b7160e01b600052603160045260246000fdfea26469706673582212205858e64d0f4241b4cd85328b2e7344692103e162318c0127b0efad9961627cca64736f6c63430008090033",
  "linkReferences": {},
  "deployedLinkReferences": {}
}