{
  "_format": "hh-sol-artifact-1",
  "contractName": "Burger",
  "sourceName": "contracts/Burger.sol",
  "abi": [
    {
      "inputs": [],
      "stateMutability": "nonpayable",
      "type": "constructor"
    },
    {
      "anonymous": false,
      "inputs": [
        {
          "indexed": true,
          "internalType": "address",
          "name": "owner",
          "type": "address"
        },
        {
          "indexed": true,
          "internalType": "address",
          "name": "approved",
          "type": "address"
        },
        {
          "indexed": true,
          "internalType": "uint256",
          "name": "tokenId",
          "type": "uint256"
        }
      ],
      "name": "Approval",
      "type": "event"
    },
    {
      "anonymous": false,
      "inputs": [
        {
          "indexed": true,
          "internalType": "address",
          "name": "owner",
          "type": "address"
        },
        {
          "indexed": true,
          "internalType": "address",
          "name": "operator",
          "type": "address"
        },
        {
          "indexed": false,
          "internalType": "bool",
          "name": "approved",
          "type": "bool"
        }
      ],
      "name": "ApprovalForAll",
      "type": "event"
    },
    {
      "anonymous": false,
      "inputs": [
        {
          "indexed": true,
          "internalType": "address",
          "name": "_to",
          "type": "address"
        },
        {
          "indexed": true,
          "internalType": "uint256",
          "name": "_id",
          "type": "uint256"
        },
        {
          "indexed": true,
          "internalType": "uint8",
          "name": "_boxType",
          "type": "uint8"
        }
      ],
      "name": "MintNFT",
      "type": "event"
    },
    {
      "anonymous": false,
      "inputs": [
        {
          "indexed": true,
          "internalType": "address",
          "name": "previousOwner",
          "type": "address"
        },
        {
          "indexed": true,
          "internalType": "address",
          "name": "newOwner",
          "type": "address"
        }
      ],
      "name": "OwnershipTransferred",
      "type": "event"
    },
    {
      "anonymous": false,
      "inputs": [
        {
          "indexed": false,
          "internalType": "address",
          "name": "account",
          "type": "address"
        }
      ],
      "name": "Paused",
      "type": "event"
    },
    {
      "anonymous": false,
      "inputs": [
        {
          "indexed": true,
          "internalType": "address",
          "name": "from",
          "type": "address"
        },
        {
          "indexed": true,
          "internalType": "address",
          "name": "to",
          "type": "address"
        },
        {
          "indexed": true,
          "internalType": "uint256",
          "name": "tokenId",
          "type": "uint256"
        }
      ],
      "name": "Transfer",
      "type": "event"
    },
    {
      "anonymous": false,
      "inputs": [
        {
          "indexed": false,
          "internalType": "address",
          "name": "account",
          "type": "address"
        }
      ],
      "name": "Unpaused",
      "type": "event"
    },
    {
      "anonymous": false,
      "inputs": [
        {
          "indexed": false,
          "internalType": "bool",
          "name": "isWhiteList",
          "type": "bool"
        }
      ],
      "name": "whitelistModeChanged",
      "type": "event"
    },
    {
      "inputs": [
        {
          "internalType": "uint256",
          "name": "",
          "type": "uint256"
        }
      ],
      "name": "_limitTokenAmountPerBoxtype",
      "outputs": [
        {
          "internalType": "uint64",
          "name": "",
          "type": "uint64"
        }
      ],
      "stateMutability": "view",
      "type": "function"
    },
    {
      "inputs": [
        {
          "internalType": "uint256",
          "name": "",
          "type": "uint256"
        }
      ],
      "name": "_tokenSupply",
      "outputs": [
        {
          "internalType": "uint256",
          "name": "",
          "type": "uint256"
        }
      ],
      "stateMutability": "view",
      "type": "function"
    },
    {
      "inputs": [
        {
          "internalType": "address",
          "name": "to",
          "type": "address"
        },
        {
          "internalType": "uint256",
          "name": "tokenId",
          "type": "uint256"
        }
      ],
      "name": "approve",
      "outputs": [],
      "stateMutability": "nonpayable",
      "type": "function"
    },
    {
      "inputs": [
        {
          "internalType": "address",
          "name": "owner",
          "type": "address"
        }
      ],
      "name": "balanceOf",
      "outputs": [
        {
          "internalType": "uint256",
          "name": "",
          "type": "uint256"
        }
      ],
      "stateMutability": "view",
      "type": "function"
    },
    {
      "inputs": [
        {
          "internalType": "uint256",
          "name": "",
          "type": "uint256"
        }
      ],
      "name": "boxPriceBNB",
      "outputs": [
        {
          "internalType": "uint256",
          "name": "",
          "type": "uint256"
        }
      ],
      "stateMutability": "view",
      "type": "function"
    },
    {
      "inputs": [
        {
          "internalType": "uint256",
          "name": "",
          "type": "uint256"
        }
      ],
      "name": "boxPriceBURG",
      "outputs": [
        {
          "internalType": "uint256",
          "name": "",
          "type": "uint256"
        }
      ],
      "stateMutability": "view",
      "type": "function"
    },
    {
      "inputs": [
        {
          "internalType": "string",
          "name": "newBaseTokenURI",
          "type": "string"
        }
      ],
      "name": "changeBaseTokenURI",
      "outputs": [],
      "stateMutability": "nonpayable",
      "type": "function"
    },
    {
      "inputs": [
        {
          "internalType": "bytes32",
          "name": "newRoot",
          "type": "bytes32"
        }
      ],
      "name": "changeRoot",
      "outputs": [],
      "stateMutability": "nonpayable",
      "type": "function"
    },
    {
      "inputs": [
        {
          "internalType": "bool",
          "name": "newState",
          "type": "bool"
        }
      ],
      "name": "changeWhitelistState",
      "outputs": [],
      "stateMutability": "nonpayable",
      "type": "function"
    },
    {
      "inputs": [
        {
          "internalType": "uint256",
          "name": "tokenId",
          "type": "uint256"
        }
      ],
      "name": "getApproved",
      "outputs": [
        {
          "internalType": "address",
          "name": "",
          "type": "address"
        }
      ],
      "stateMutability": "view",
      "type": "function"
    },
    {
      "inputs": [
        {
          "internalType": "uint256",
          "name": "_tokenId",
          "type": "uint256"
        }
      ],
      "name": "getboxTypeById",
      "outputs": [
        {
          "internalType": "uint8",
          "name": "",
          "type": "uint8"
        }
      ],
      "stateMutability": "view",
      "type": "function"
    },
    {
      "inputs": [
        {
          "internalType": "address",
          "name": "owner",
          "type": "address"
        },
        {
          "internalType": "address",
          "name": "operator",
          "type": "address"
        }
      ],
      "name": "isApprovedForAll",
      "outputs": [
        {
          "internalType": "bool",
          "name": "",
          "type": "bool"
        }
      ],
      "stateMutability": "view",
      "type": "function"
    },
    {
      "inputs": [
        {
          "internalType": "address",
          "name": "_to",
          "type": "address"
        }
      ],
      "name": "mintForGoldenTicket",
      "outputs": [
        {
          "internalType": "uint256",
          "name": "",
          "type": "uint256"
        }
      ],
      "stateMutability": "nonpayable",
      "type": "function"
    },
    {
      "inputs": [
        {
          "internalType": "uint8",
          "name": "boxType",
          "type": "uint8"
        }
      ],
      "name": "mintNormal",
      "outputs": [
        {
          "internalType": "uint256",
          "name": "",
          "type": "uint256"
        }
      ],
      "stateMutability": "payable",
      "type": "function"
    },
    {
      "inputs": [
        {
          "internalType": "uint8",
          "name": "boxType",
          "type": "uint8"
        }
      ],
      "name": "mintNormalBURG",
      "outputs": [
        {
          "internalType": "uint256",
          "name": "",
          "type": "uint256"
        }
      ],
      "stateMutability": "nonpayable",
      "type": "function"
    },
    {
      "inputs": [
        {
          "internalType": "address",
          "name": "_to",
          "type": "address"
        },
        {
          "internalType": "uint8",
          "name": "boxType",
          "type": "uint8"
        }
      ],
      "name": "mintOwner",
      "outputs": [
        {
          "internalType": "uint256",
          "name": "",
          "type": "uint256"
        }
      ],
      "stateMutability": "nonpayable",
      "type": "function"
    },
    {
      "inputs": [
        {
          "internalType": "bytes32[]",
          "name": "proof",
          "type": "bytes32[]"
        },
        {
          "internalType": "uint8",
          "name": "boxType",
          "type": "uint8"
        }
      ],
      "name": "mintWhitelist",
      "outputs": [],
      "stateMutability": "payable",
      "type": "function"
    },
    {
      "inputs": [],
      "name": "name",
      "outputs": [
        {
          "internalType": "string",
          "name": "",
          "type": "string"
        }
      ],
      "stateMutability": "view",
      "type": "function"
    },
    {
      "inputs": [],
      "name": "owner",
      "outputs": [
        {
          "internalType": "address",
          "name": "",
          "type": "address"
        }
      ],
      "stateMutability": "view",
      "type": "function"
    },
    {
      "inputs": [
        {
          "internalType": "uint256",
          "name": "tokenId",
          "type": "uint256"
        }
      ],
      "name": "ownerOf",
      "outputs": [
        {
          "internalType": "address",
          "name": "",
          "type": "address"
        }
      ],
      "stateMutability": "view",
      "type": "function"
    },
    {
      "inputs": [],
      "name": "pause",
      "outputs": [
        {
          "internalType": "bool",
          "name": "",
          "type": "bool"
        }
      ],
      "stateMutability": "nonpayable",
      "type": "function"
    },
    {
      "inputs": [],
      "name": "paused",
      "outputs": [
        {
          "internalType": "bool",
          "name": "",
          "type": "bool"
        }
      ],
      "stateMutability": "view",
      "type": "function"
    },
    {
      "inputs": [],
      "name": "renounceOwnership",
      "outputs": [],
      "stateMutability": "nonpayable",
      "type": "function"
    },
    {
      "inputs": [
        {
          "internalType": "address",
          "name": "from",
          "type": "address"
        },
        {
          "internalType": "address",
          "name": "to",
          "type": "address"
        },
        {
          "internalType": "uint256",
          "name": "tokenId",
          "type": "uint256"
        }
      ],
      "name": "safeTransferFrom",
      "outputs": [],
      "stateMutability": "nonpayable",
      "type": "function"
    },
    {
      "inputs": [
        {
          "internalType": "address",
          "name": "from",
          "type": "address"
        },
        {
          "internalType": "address",
          "name": "to",
          "type": "address"
        },
        {
          "internalType": "uint256",
          "name": "tokenId",
          "type": "uint256"
        },
        {
          "internalType": "bytes",
          "name": "_data",
          "type": "bytes"
        }
      ],
      "name": "safeTransferFrom",
      "outputs": [],
      "stateMutability": "nonpayable",
      "type": "function"
    },
    {
      "inputs": [],
      "name": "saleBNBEnabled",
      "outputs": [
        {
          "internalType": "bool",
          "name": "",
          "type": "bool"
        }
      ],
      "stateMutability": "view",
      "type": "function"
    },
    {
      "inputs": [],
      "name": "saleBURGEnabled",
      "outputs": [
        {
          "internalType": "bool",
          "name": "",
          "type": "bool"
        }
      ],
      "stateMutability": "view",
      "type": "function"
    },
    {
      "inputs": [
        {
          "internalType": "address",
          "name": "operator",
          "type": "address"
        },
        {
          "internalType": "bool",
          "name": "approved",
          "type": "bool"
        }
      ],
      "name": "setApprovalForAll",
      "outputs": [],
      "stateMutability": "nonpayable",
      "type": "function"
    },
    {
      "inputs": [
        {
          "internalType": "address",
          "name": "_newAddress",
          "type": "address"
        }
      ],
      "name": "setBURGAddress",
      "outputs": [
        {
          "internalType": "bool",
          "name": "",
          "type": "bool"
        }
      ],
      "stateMutability": "nonpayable",
      "type": "function"
    },
    {
      "inputs": [],
      "name": "strBaseTokenURI",
      "outputs": [
        {
          "internalType": "string",
          "name": "",
          "type": "string"
        }
      ],
      "stateMutability": "view",
      "type": "function"
    },
    {
      "inputs": [
        {
          "internalType": "bytes4",
          "name": "interfaceId",
          "type": "bytes4"
        }
      ],
      "name": "supportsInterface",
      "outputs": [
        {
          "internalType": "bool",
          "name": "",
          "type": "bool"
        }
      ],
      "stateMutability": "view",
      "type": "function"
    },
    {
      "inputs": [],
      "name": "symbol",
      "outputs": [
        {
          "internalType": "string",
          "name": "",
          "type": "string"
        }
      ],
      "stateMutability": "view",
      "type": "function"
    },
    {
      "inputs": [
        {
          "internalType": "uint256",
          "name": "index",
          "type": "uint256"
        }
      ],
      "name": "tokenByIndex",
      "outputs": [
        {
          "internalType": "uint256",
          "name": "",
          "type": "uint256"
        }
      ],
      "stateMutability": "view",
      "type": "function"
    },
    {
      "inputs": [
        {
          "internalType": "address",
          "name": "owner",
          "type": "address"
        },
        {
          "internalType": "uint256",
          "name": "index",
          "type": "uint256"
        }
      ],
      "name": "tokenOfOwnerByIndex",
      "outputs": [
        {
          "internalType": "uint256",
          "name": "",
          "type": "uint256"
        }
      ],
      "stateMutability": "view",
      "type": "function"
    },
    {
      "inputs": [
        {
          "internalType": "uint256",
          "name": "_tokenId",
          "type": "uint256"
        }
      ],
      "name": "tokenURI",
      "outputs": [
        {
          "internalType": "string",
          "name": "",
          "type": "string"
        }
      ],
      "stateMutability": "view",
      "type": "function"
    },
    {
      "inputs": [],
      "name": "totalSupply",
      "outputs": [
        {
          "internalType": "uint256",
          "name": "",
          "type": "uint256"
        }
      ],
      "stateMutability": "view",
      "type": "function"
    },
    {
      "inputs": [
        {
          "internalType": "address",
          "name": "from",
          "type": "address"
        },
        {
          "internalType": "address",
          "name": "to",
          "type": "address"
        },
        {
          "internalType": "uint256",
          "name": "tokenId",
          "type": "uint256"
        }
      ],
      "name": "transferFrom",
      "outputs": [],
      "stateMutability": "nonpayable",
      "type": "function"
    },
    {
      "inputs": [
        {
          "internalType": "address",
          "name": "newOwner",
          "type": "address"
        }
      ],
      "name": "transferOwnership",
      "outputs": [],
      "stateMutability": "nonpayable",
      "type": "function"
    },
    {
      "inputs": [],
      "name": "unpause",
      "outputs": [
        {
          "internalType": "bool",
          "name": "",
          "type": "bool"
        }
      ],
      "stateMutability": "nonpayable",
      "type": "function"
    },
    {
      "inputs": [
        {
          "internalType": "uint256[]",
          "name": "_newBoxPricesBNB",
          "type": "uint256[]"
        }
      ],
      "name": "updateBoxPricesBNB",
      "outputs": [
        {
          "internalType": "bool",
          "name": "",
          "type": "bool"
        }
      ],
      "stateMutability": "nonpayable",
      "type": "function"
    },
    {
      "inputs": [
        {
          "internalType": "uint256[]",
          "name": "_newBoxPricesBURG",
          "type": "uint256[]"
        }
      ],
      "name": "updateBoxPricesBURG",
      "outputs": [
        {
          "internalType": "bool",
          "name": "",
          "type": "bool"
        }
      ],
      "stateMutability": "nonpayable",
      "type": "function"
    },
    {
      "inputs": [
        {
          "internalType": "bytes32",
          "name": "leaf",
          "type": "bytes32"
        },
        {
          "internalType": "bytes32[]",
          "name": "proof",
          "type": "bytes32[]"
        }
      ],
      "name": "verifyWhitelist",
      "outputs": [
        {
          "internalType": "bool",
          "name": "",
          "type": "bool"
        }
      ],
      "stateMutability": "view",
      "type": "function"
    },
    {
      "inputs": [
        {
          "internalType": "address",
          "name": "_owner",
          "type": "address"
        }
      ],
      "name": "walletOfOwner",
      "outputs": [
        {
          "internalType": "uint256[]",
          "name": "",
          "type": "uint256[]"
        }
      ],
      "stateMutability": "view",
      "type": "function"
    },
    {
      "inputs": [],
      "name": "whitelistActive",
      "outputs": [
        {
          "internalType": "bool",
          "name": "",
          "type": "bool"
        }
      ],
      "stateMutability": "view",
      "type": "function"
    },
    {
      "inputs": [],
      "name": "whitelistPrice",
      "outputs": [
        {
          "internalType": "uint256",
          "name": "",
          "type": "uint256"
        }
      ],
      "stateMutability": "view",
      "type": "function"
    },
    {
      "inputs": [],
      "name": "withdraw",
      "outputs": [],
      "stateMutability": "nonpayable",
      "type": "function"
    }
  ],
  "bytecode": "0x60806040526040518060600160405280662386f26fc1000066ffffffffffffff16815260200166470de4df82000066ffffffffffffff168152602001666a94d74f43000066ffffffffffffff16815250600d90600362000061929190620003b4565b506040518060600160405280662386f26fc1000066ffffffffffffff16815260200166470de4df82000066ffffffffffffff168152602001666a94d74f43000066ffffffffffffff16815250600e906003620000bf929190620003b4565b5066470de4df820000600f556040518060600160405280602281526020016200640b6022913960109080519060200190620000fc92919062000411565b506001601160006101000a81548160ff0219169083151502179055506001601160016101000a81548160ff0219169083151502179055506000601160026101000a81548160ff0219169083151502179055507fa2fc709bf2f4b9cb44b8a9114485d12d4877bb1beedd81f62f4f85a8056480ee60001b6012556040518060600160405280600060ff168152602001600060ff168152602001600060ff168152506014906003620001ae929190620004a2565b50604051806060016040528061113061ffff16815260200161089861ffff16815260200161038461ffff168152506015906003620001ee929190620004f9565b50348015620001fc57600080fd5b506040518060400160405280600681526020017f42757267657200000000000000000000000000000000000000000000000000008152506040518060400160405280600681526020017f425552474552000000000000000000000000000000000000000000000000000081525081600090805190602001906200028192919062000411565b5080600190805190602001906200029a92919062000411565b5050506000600a60006101000a81548160ff021916908315150217905550620002d8620002cc620002e660201b60201c565b620002ee60201b60201c565b6001600b819055506200063a565b600033905090565b6000600a60019054906101000a900473ffffffffffffffffffffffffffffffffffffffff16905081600a60016101000a81548173ffffffffffffffffffffffffffffffffffffffff021916908373ffffffffffffffffffffffffffffffffffffffff1602179055508173ffffffffffffffffffffffffffffffffffffffff168173ffffffffffffffffffffffffffffffffffffffff167f8be0079c531659141344cd1fd0a4f28419497f9722a3daafe3b4186f6b6457e060405160405180910390a35050565b828054828255906000526020600020908101928215620003fe579160200282015b82811115620003fd578251829066ffffffffffffff16905591602001919060010190620003d5565b5b5090506200040d9190620005b6565b5090565b8280546200041f9062000604565b90600052602060002090601f0160209004810192826200044357600085556200048f565b82601f106200045e57805160ff19168380011785556200048f565b828001600101855582156200048f579182015b828111156200048e57825182559160200191906001019062000471565b5b5090506200049e9190620005b6565b5090565b828054828255906000526020600020908101928215620004e6579160200282015b82811115620004e5578251829060ff16905591602001919060010190620004c3565b5b509050620004f59190620005b6565b5090565b82805482825590600052602060002090600301600490048101928215620005a35791602002820160005b838211156200056b57835183826101000a81548167ffffffffffffffff021916908361ffff160217905550926020019260080160208160070104928301926001030262000523565b8015620005a15782816101000a81549067ffffffffffffffff02191690556008016020816007010492830192600103026200056b565b505b509050620005b29190620005b6565b5090565b5b80821115620005d1576000816000905550600101620005b7565b5090565b7f4e487b7100000000000000000000000000000000000000000000000000000000600052602260045260246000fd5b600060028204905060018216806200061d57607f821691505b60208210811415620006345762000633620005d5565b5b50919050565b615dc1806200064a6000396000f3fe60806040526004361061027d5760003560e01c8063715018a61161014f578063b88d4fde116100c1578063e0d5f5db1161007a578063e0d5f5db14610a4b578063e40e97a714610a88578063e985e9c514610ab1578063f09542b314610aee578063f2fde38b14610b1e578063fc1a1c3614610b475761027d565b8063b88d4fde14610938578063c87b56dd14610961578063ca8476331461099e578063d124d28f146109c9578063d883656a14610a06578063d9583b9f14610a225761027d565b80638cba90b0116101135780638cba90b0146108025780638d79cc481461083f5780638da5cb5b1461087c57806395d89b41146108a7578063a22cb465146108d2578063a69a6e82146108fb5761027d565b8063715018a61461070957806379d72794146107205780637b125a1d1461075d5780638456cb591461079a57806387ddb7b7146107c55761027d565b806329c7f1fa116101f357806342842e0e116101ac57806342842e0e146105c1578063438b6300146105ea5780634f6ccce7146106275780635c975abb146106645780636352211e1461068f57806370a08231146106cc5761027d565b806329c7f1fa146104b15780632f745c59146104dc578063329ea90d146105195780633ccfd60b146105565780633d59cd601461056d5780633f4ba83a146105965761027d565b8063081812fc11610245578063081812fc1461038f578063095ea7b3146103cc578063120f91d5146103f5578063158d9ac31461043257806318160ddd1461045d57806323b872dd146104885761027d565b8063014d41151461028257806301ffc9a7146102bf57806302ce5813146102fc57806306db2e341461032757806306fdde0314610364575b600080fd5b34801561028e57600080fd5b506102a960048036038101906102a49190613eb4565b610b72565b6040516102b69190613ef0565b60405180910390f35b3480156102cb57600080fd5b506102e660048036038101906102e19190613f63565b610b96565b6040516102f39190613fab565b60405180910390f35b34801561030857600080fd5b50610311610c10565b60405161031e9190613fab565b60405180910390f35b34801561033357600080fd5b5061034e60048036038101906103499190613eb4565b610c23565b60405161035b9190613fe9565b60405180910390f35b34801561037057600080fd5b50610379610c61565b604051610386919061409d565b60405180910390f35b34801561039b57600080fd5b506103b660048036038101906103b19190613eb4565b610cf3565b6040516103c39190614100565b60405180910390f35b3480156103d857600080fd5b506103f360048036038101906103ee9190614147565b610d78565b005b34801561040157600080fd5b5061041c60048036038101906104179190613eb4565b610e90565b6040516104299190613ef0565b60405180910390f35b34801561043e57600080fd5b50610447610eb4565b6040516104549190613fab565b60405180910390f35b34801561046957600080fd5b50610472610ec7565b60405161047f9190613ef0565b60405180910390f35b34801561049457600080fd5b506104af60048036038101906104aa9190614187565b610ed4565b005b3480156104bd57600080fd5b506104c6610f34565b6040516104d39190613fab565b60405180910390f35b3480156104e857600080fd5b5061050360048036038101906104fe9190614147565b610f47565b6040516105109190613ef0565b60405180910390f35b34801561052557600080fd5b50610540600480360381019061053b9190614358565b610fec565b60405161054d9190613fab565b60405180910390f35b34801561056257600080fd5b5061056b6110a4565b005b34801561057957600080fd5b50610594600480360381019061058f91906143b4565b611176565b005b3480156105a257600080fd5b506105ab6111fc565b6040516105b89190613fab565b60405180910390f35b3480156105cd57600080fd5b506105e860048036038101906105e39190614187565b611289565b005b3480156105f657600080fd5b50610611600480360381019061060c91906143e1565b6112a9565b60405161061e91906144cc565b60405180910390f35b34801561063357600080fd5b5061064e60048036038101906106499190613eb4565b611357565b60405161065b9190613ef0565b60405180910390f35b34801561067057600080fd5b506106796113c8565b6040516106869190613fab565b60405180910390f35b34801561069b57600080fd5b506106b660048036038101906106b19190613eb4565b6113df565b6040516106c39190614100565b60405180910390f35b3480156106d857600080fd5b506106f360048036038101906106ee91906143e1565b611491565b6040516107009190613ef0565b60405180910390f35b34801561071557600080fd5b5061071e611549565b005b34801561072c57600080fd5b5061074760048036038101906107429190614527565b6115d1565b6040516107549190613ef0565b60405180910390f35b34801561076957600080fd5b50610784600480360381019061077f91906143e1565b611661565b6040516107919190613fab565b60405180910390f35b3480156107a657600080fd5b506107af611729565b6040516107bc9190613fab565b60405180910390f35b3480156107d157600080fd5b506107ec60048036038101906107e79190613eb4565b6117b6565b6040516107f99190613ef0565b60405180910390f35b34801561080e57600080fd5b5061082960048036038101906108249190613eb4565b6117da565b6040516108369190614576565b60405180910390f35b34801561084b57600080fd5b50610866600480360381019061086191906143e1565b61184c565b6040516108739190613ef0565b60405180910390f35b34801561088857600080fd5b506108916118dc565b60405161089e9190614100565b60405180910390f35b3480156108b357600080fd5b506108bc611906565b6040516108c9919061409d565b60405180910390f35b3480156108de57600080fd5b506108f960048036038101906108f491906145bd565b611998565b005b34801561090757600080fd5b50610922600480360381019061091d91906146c0565b611b19565b60405161092f9190613fab565b60405180910390f35b34801561094457600080fd5b5061095f600480360381019061095a91906147be565b611bb7565b005b34801561096d57600080fd5b5061098860048036038101906109839190613eb4565b611c19565b604051610995919061409d565b60405180910390f35b3480156109aa57600080fd5b506109b3611c9b565b6040516109c0919061409d565b60405180910390f35b3480156109d557600080fd5b506109f060048036038101906109eb9190614841565b611d29565b6040516109fd9190613ef0565b60405180910390f35b610a206004803603810190610a1b919061486e565b612186565b005b348015610a2e57600080fd5b50610a496004803603810190610a4491906148ca565b612463565b005b348015610a5757600080fd5b50610a726004803603810190610a6d91906146c0565b612542565b604051610a7f9190613fab565b60405180910390f35b348015610a9457600080fd5b50610aaf6004803603810190610aaa9190614998565b6125e0565b005b348015610abd57600080fd5b50610ad86004803603810190610ad391906149e1565b612676565b604051610ae59190613fab565b60405180910390f35b610b086004803603810190610b039190614841565b61270a565b604051610b159190613ef0565b60405180910390f35b348015610b2a57600080fd5b50610b456004803603810190610b4091906143e1565b612937565b005b348015610b5357600080fd5b50610b5c612a2f565b604051610b699190613ef0565b60405180910390f35b60148181548110610b8257600080fd5b906000526020600020016000915090505481565b60007f780e9d63000000000000000000000000000000000000000000000000000000007bffffffffffffffffffffffffffffffffffffffffffffffffffffffff1916827bffffffffffffffffffffffffffffffffffffffffffffffffffffffff19161480610c095750610c0882612a35565b5b9050919050565b601160029054906101000a900460ff1681565b60158181548110610c3357600080fd5b9060005260206000209060049182820401919006600802915054906101000a900467ffffffffffffffff1681565b606060008054610c7090614a50565b80601f0160208091040260200160405190810160405280929190818152602001828054610c9c90614a50565b8015610ce95780601f10610cbe57610100808354040283529160200191610ce9565b820191906000526020600020905b815481529060010190602001808311610ccc57829003601f168201915b5050505050905090565b6000610cfe82612b17565b610d3d576040517f08c379a0000000000000000000000000000000000000000000000000000000008152600401610d3490614af4565b60405180910390fd5b6004600083815260200190815260200160002060009054906101000a900473ffffffffffffffffffffffffffffffffffffffff169050919050565b6000610d83826113df565b90508073ffffffffffffffffffffffffffffffffffffffff168373ffffffffffffffffffffffffffffffffffffffff161415610df4576040517f08c379a0000000000000000000000000000000000000000000000000000000008152600401610deb90614b86565b60405180910390fd5b8073ffffffffffffffffffffffffffffffffffffffff16610e13612b83565b73ffffffffffffffffffffffffffffffffffffffff161480610e425750610e4181610e3c612b83565b612676565b5b610e81576040517f08c379a0000000000000000000000000000000000000000000000000000000008152600401610e7890614c18565b60405180910390fd5b610e8b8383612b8b565b505050565b600d8181548110610ea057600080fd5b906000526020600020016000915090505481565b601160019054906101000a900460ff1681565b6000600880549050905090565b610ee5610edf612b83565b82612c44565b610f24576040517f08c379a0000000000000000000000000000000000000000000000000000000008152600401610f1b90614caa565b60405180910390fd5b610f2f838383612d22565b505050565b601160009054906101000a900460ff1681565b6000610f5283611491565b8210610f93576040517f08c379a0000000000000000000000000000000000000000000000000000000008152600401610f8a90614d3c565b60405180910390fd5b600660008473ffffffffffffffffffffffffffffffffffffffff1673ffffffffffffffffffffffffffffffffffffffff168152602001908152602001600020600083815260200190815260200160002054905092915050565b60008083905060005b835181101561109557600084828151811061101357611012614d5c565b5b6020026020010151905080831015611055578281604051602001611038929190614dac565b604051602081830303815290604052805190602001209250611081565b8083604051602001611068929190614dac565b6040516020818303038152906040528051906020012092505b50808061108d90614e07565b915050610ff5565b50601254811491505092915050565b6110ac612b83565b73ffffffffffffffffffffffffffffffffffffffff166110ca6118dc565b73ffffffffffffffffffffffffffffffffffffffff1614611120576040517f08c379a000000000000000000000000000000000000000000000000000000000815260040161111790614e9c565b60405180910390fd5b600047905061112d6118dc565b73ffffffffffffffffffffffffffffffffffffffff166108fc829081150290604051600060405180830381858888f19350505050158015611172573d6000803e3d6000fd5b5050565b61117e612b83565b73ffffffffffffffffffffffffffffffffffffffff1661119c6118dc565b73ffffffffffffffffffffffffffffffffffffffff16146111f2576040517f08c379a00000000000000000000000000000000000000000000000000000000081526004016111e990614e9c565b60405180910390fd5b8060128190555050565b6000611206612b83565b73ffffffffffffffffffffffffffffffffffffffff166112246118dc565b73ffffffffffffffffffffffffffffffffffffffff161461127a576040517f08c379a000000000000000000000000000000000000000000000000000000000815260040161127190614e9c565b60405180910390fd5b611282612f7e565b6001905090565b6112a483838360405180602001604052806000815250611bb7565b505050565b606060006112b683611491565b905060008167ffffffffffffffff8111156112d4576112d3614215565b5b6040519080825280602002602001820160405280156113025781602001602082028036833780820191505090505b50905060005b8281101561134c5761131a8582610f47565b82828151811061132d5761132c614d5c565b5b602002602001018181525050808061134490614e07565b915050611308565b508092505050919050565b6000611361610ec7565b82106113a2576040517f08c379a000000000000000000000000000000000000000000000000000000000815260040161139990614f2e565b60405180910390fd5b600882815481106113b6576113b5614d5c565b5b90600052602060002001549050919050565b6000600a60009054906101000a900460ff16905090565b6000806002600084815260200190815260200160002060009054906101000a900473ffffffffffffffffffffffffffffffffffffffff169050600073ffffffffffffffffffffffffffffffffffffffff168173ffffffffffffffffffffffffffffffffffffffff161415611488576040517f08c379a000000000000000000000000000000000000000000000000000000000815260040161147f90614fc0565b60405180910390fd5b80915050919050565b60008073ffffffffffffffffffffffffffffffffffffffff168273ffffffffffffffffffffffffffffffffffffffff161415611502576040517f08c379a00000000000000000000000000000000000000000000000000000000081526004016114f990615052565b60405180910390fd5b600360008373ffffffffffffffffffffffffffffffffffffffff1673ffffffffffffffffffffffffffffffffffffffff168152602001908152602001600020549050919050565b611551612b83565b73ffffffffffffffffffffffffffffffffffffffff1661156f6118dc565b73ffffffffffffffffffffffffffffffffffffffff16146115c5576040517f08c379a00000000000000000000000000000000000000000000000000000000081526004016115bc90614e9c565b60405180910390fd5b6115cf6000613020565b565b60006115db612b83565b73ffffffffffffffffffffffffffffffffffffffff166115f96118dc565b73ffffffffffffffffffffffffffffffffffffffff161461164f576040517f08c379a000000000000000000000000000000000000000000000000000000000815260040161164690614e9c565b60405180910390fd5b61165983836130e6565b905092915050565b600061166b612b83565b73ffffffffffffffffffffffffffffffffffffffff166116896118dc565b73ffffffffffffffffffffffffffffffffffffffff16146116df576040517f08c379a00000000000000000000000000000000000000000000000000000000081526004016116d690614e9c565b60405180910390fd5b81601360006101000a81548173ffffffffffffffffffffffffffffffffffffffff021916908373ffffffffffffffffffffffffffffffffffffffff16021790555060019050919050565b6000611733612b83565b73ffffffffffffffffffffffffffffffffffffffff166117516118dc565b73ffffffffffffffffffffffffffffffffffffffff16146117a7576040517f08c379a000000000000000000000000000000000000000000000000000000000815260040161179e90614e9c565b60405180910390fd5b6117af6131b2565b6001905090565b600e81815481106117c657600080fd5b906000526020600020016000915090505481565b60006117e582612b17565b611824576040517f08c379a000000000000000000000000000000000000000000000000000000000815260040161181b906150be565b60405180910390fd5b600c600083815260200190815260200160002060009054906101000a900460ff169050919050565b6000611856612b83565b73ffffffffffffffffffffffffffffffffffffffff166118746118dc565b73ffffffffffffffffffffffffffffffffffffffff16146118ca576040517f08c379a00000000000000000000000000000000000000000000000000000000081526004016118c190614e9c565b60405180910390fd5b6118d58260016130e6565b9050919050565b6000600a60019054906101000a900473ffffffffffffffffffffffffffffffffffffffff16905090565b60606001805461191590614a50565b80601f016020809104026020016040519081016040528092919081815260200182805461194190614a50565b801561198e5780601f106119635761010080835404028352916020019161198e565b820191906000526020600020905b81548152906001019060200180831161197157829003601f168201915b5050505050905090565b6119a0612b83565b73ffffffffffffffffffffffffffffffffffffffff168273ffffffffffffffffffffffffffffffffffffffff161415611a0e576040517f08c379a0000000000000000000000000000000000000000000000000000000008152600401611a059061512a565b60405180910390fd5b8060056000611a1b612b83565b73ffffffffffffffffffffffffffffffffffffffff1673ffffffffffffffffffffffffffffffffffffffff16815260200190815260200160002060008473ffffffffffffffffffffffffffffffffffffffff1673ffffffffffffffffffffffffffffffffffffffff16815260200190815260200160002060006101000a81548160ff0219169083151502179055508173ffffffffffffffffffffffffffffffffffffffff16611ac8612b83565b73ffffffffffffffffffffffffffffffffffffffff167f17307eab39ab6107e8899845ad3d59bd9653f200f220920489ca2b5937696c3183604051611b0d9190613fab565b60405180910390a35050565b6000611b23612b83565b73ffffffffffffffffffffffffffffffffffffffff16611b416118dc565b73ffffffffffffffffffffffffffffffffffffffff1614611b97576040517f08c379a0000000000000000000000000000000000000000000000000000000008152600401611b8e90614e9c565b60405180910390fd5b81600d9080519060200190611bad929190613d7a565b5060019050919050565b611bc8611bc2612b83565b83612c44565b611c07576040517f08c379a0000000000000000000000000000000000000000000000000000000008152600401611bfe90614caa565b60405180910390fd5b611c1384848484613255565b50505050565b6060611c2482612b17565b611c63576040517f08c379a0000000000000000000000000000000000000000000000000000000008152600401611c5a906150be565b60405180910390fd5b611c6b6132b1565b611c7483613343565b604051602001611c85929190615186565b6040516020818303038152906040529050919050565b60108054611ca890614a50565b80601f0160208091040260200160405190810160405280929190818152602001828054611cd490614a50565b8015611d215780601f10611cf657610100808354040283529160200191611d21565b820191906000526020600020905b815481529060010190602001808311611d0457829003601f168201915b505050505081565b6000611d336113c8565b15611d73576040517f08c379a0000000000000000000000000000000000000000000000000000000008152600401611d6a906151f6565b60405180910390fd5b6002600b541415611db9576040517f08c379a0000000000000000000000000000000000000000000000000000000008152600401611db090615262565b60405180910390fd5b6002600b81905550601160029054906101000a900460ff1615611e11576040517f08c379a0000000000000000000000000000000000000000000000000000000008152600401611e08906152ce565b60405180910390fd5b601160019054906101000a900460ff16611e60576040517f08c379a0000000000000000000000000000000000000000000000000000000008152600401611e579061533a565b60405180910390fd5b600e8260ff1681548110611e7757611e76614d5c565b5b9060005260206000200154601360009054906101000a900473ffffffffffffffffffffffffffffffffffffffff1673ffffffffffffffffffffffffffffffffffffffff1663dd62ed3e33306040518363ffffffff1660e01b8152600401611edf92919061535a565b60206040518083038186803b158015611ef757600080fd5b505afa158015611f0b573d6000803e3d6000fd5b505050506040513d601f19601f82011682018060405250810190611f2f9190615398565b1015611f70576040517f08c379a0000000000000000000000000000000000000000000000000000000008152600401611f6790615411565b60405180910390fd5b601360009054906101000a900473ffffffffffffffffffffffffffffffffffffffff1673ffffffffffffffffffffffffffffffffffffffff166323b872dd33611fb76118dc565b611fff6064611ff16008600e8a60ff1681548110611fd857611fd7614d5c565b5b90600052602060002001546134a490919063ffffffff16565b6134ba90919063ffffffff16565b6040518463ffffffff1660e01b815260040161201d93929190615431565b602060405180830381600087803b15801561203757600080fd5b505af115801561204b573d6000803e3d6000fd5b505050506040513d601f19601f8201168201806040525081019061206f919061547d565b50601360009054906101000a900473ffffffffffffffffffffffffffffffffffffffff1673ffffffffffffffffffffffffffffffffffffffff16639dc29fac336120f760646120e9605c600e8960ff16815481106120d0576120cf614d5c565b5b90600052602060002001546134a490919063ffffffff16565b6134ba90919063ffffffff16565b6040518363ffffffff1660e01b81526004016121149291906154aa565b602060405180830381600087803b15801561212e57600080fd5b505af1158015612142573d6000803e3d6000fd5b505050506040513d601f19601f82011682018060405250810190612166919061547d565b50600061217333846130e6565b9050809150506001600b81905550919050565b61218e6113c8565b156121ce576040517f08c379a00000000000000000000000000000000000000000000000000000000081526004016121c5906151f6565b60405180910390fd5b6002600b541415612214576040517f08c379a000000000000000000000000000000000000000000000000000000000815260040161220b90615262565b60405180910390fd5b6002600b81905550601160029054906101000a900460ff1661226b576040517f08c379a00000000000000000000000000000000000000000000000000000000081526004016122629061551f565b60405180910390fd5b600d8160ff168154811061228257612281614d5c565b5b90600052602060002001543410156122cf576040517f08c379a00000000000000000000000000000000000000000000000000000000081526004016122c69061558b565b60405180910390fd5b60158160ff16815481106122e6576122e5614d5c565b5b90600052602060002090600491828204019190066008029054906101000a900467ffffffffffffffff1667ffffffffffffffff1660148260ff168154811061233157612330614d5c565b5b90600052602060002001541061237c576040517f08c379a0000000000000000000000000000000000000000000000000000000008152600401612373906155f7565b60405180910390fd5b600061239061238a336134d0565b84610fec565b905080156123a8576123a233836130e6565b506123e3565b6040517f08c379a00000000000000000000000000000000000000000000000000000000081526004016123da90615663565b60405180910390fd5b3373ffffffffffffffffffffffffffffffffffffffff166108fc600d8460ff168154811061241457612413614d5c565b5b90600052602060002001543461242a9190615683565b9081150290604051600060405180830381858888f19350505050158015612455573d6000803e3d6000fd5b50506001600b819055505050565b61246b612b83565b73ffffffffffffffffffffffffffffffffffffffff166124896118dc565b73ffffffffffffffffffffffffffffffffffffffff16146124df576040517f08c379a00000000000000000000000000000000000000000000000000000000081526004016124d690614e9c565b60405180910390fd5b80601160026101000a81548160ff0219169083151502179055507f52cf77d97507bfe5c826e8a0dd53032bac06a11f9d0db13603d9887ed5cbf217601160029054906101000a900460ff166040516125379190613fab565b60405180910390a150565b600061254c612b83565b73ffffffffffffffffffffffffffffffffffffffff1661256a6118dc565b73ffffffffffffffffffffffffffffffffffffffff16146125c0576040517f08c379a00000000000000000000000000000000000000000000000000000000081526004016125b790614e9c565b60405180910390fd5b81600e90805190602001906125d6929190613d7a565b5060019050919050565b6125e8612b83565b73ffffffffffffffffffffffffffffffffffffffff166126066118dc565b73ffffffffffffffffffffffffffffffffffffffff161461265c576040517f08c379a000000000000000000000000000000000000000000000000000000000815260040161265390614e9c565b60405180910390fd5b8060109080519060200190612672929190613dc7565b5050565b6000600560008473ffffffffffffffffffffffffffffffffffffffff1673ffffffffffffffffffffffffffffffffffffffff16815260200190815260200160002060008373ffffffffffffffffffffffffffffffffffffffff1673ffffffffffffffffffffffffffffffffffffffff16815260200190815260200160002060009054906101000a900460ff16905092915050565b60006127146113c8565b15612754576040517f08c379a000000000000000000000000000000000000000000000000000000000815260040161274b906151f6565b60405180910390fd5b6002600b54141561279a576040517f08c379a000000000000000000000000000000000000000000000000000000000815260040161279190615262565b60405180910390fd5b6002600b81905550601160029054906101000a900460ff16156127f2576040517f08c379a00000000000000000000000000000000000000000000000000000000081526004016127e9906152ce565b60405180910390fd5b601160009054906101000a900460ff16612841576040517f08c379a00000000000000000000000000000000000000000000000000000000081526004016128389061533a565b60405180910390fd5b600d8260ff168154811061285857612857614d5c565b5b90600052602060002001543410156128a5576040517f08c379a000000000000000000000000000000000000000000000000000000000815260040161289c9061558b565b60405180910390fd5b60006128b133846130e6565b90503373ffffffffffffffffffffffffffffffffffffffff166108fc600d8560ff16815481106128e4576128e3614d5c565b5b9060005260206000200154346128fa9190615683565b9081150290604051600060405180830381858888f19350505050158015612925573d6000803e3d6000fd5b50809150506001600b81905550919050565b61293f612b83565b73ffffffffffffffffffffffffffffffffffffffff1661295d6118dc565b73ffffffffffffffffffffffffffffffffffffffff16146129b3576040517f08c379a00000000000000000000000000000000000000000000000000000000081526004016129aa90614e9c565b60405180910390fd5b600073ffffffffffffffffffffffffffffffffffffffff168173ffffffffffffffffffffffffffffffffffffffff161415612a23576040517f08c379a0000000000000000000000000000000000000000000000000000000008152600401612a1a90615729565b60405180910390fd5b612a2c81613020565b50565b600f5481565b60007f80ac58cd000000000000000000000000000000000000000000000000000000007bffffffffffffffffffffffffffffffffffffffffffffffffffffffff1916827bffffffffffffffffffffffffffffffffffffffffffffffffffffffff19161480612b0057507f5b5e139f000000000000000000000000000000000000000000000000000000007bffffffffffffffffffffffffffffffffffffffffffffffffffffffff1916827bffffffffffffffffffffffffffffffffffffffffffffffffffffffff1916145b80612b105750612b0f82613500565b5b9050919050565b60008073ffffffffffffffffffffffffffffffffffffffff166002600084815260200190815260200160002060009054906101000a900473ffffffffffffffffffffffffffffffffffffffff1673ffffffffffffffffffffffffffffffffffffffff1614159050919050565b600033905090565b816004600083815260200190815260200160002060006101000a81548173ffffffffffffffffffffffffffffffffffffffff021916908373ffffffffffffffffffffffffffffffffffffffff160217905550808273ffffffffffffffffffffffffffffffffffffffff16612bfe836113df565b73ffffffffffffffffffffffffffffffffffffffff167f8c5be1e5ebec7d5bd14f71427d1e84f3dd0314c0f7b2291e5b200ac8c7c3b92560405160405180910390a45050565b6000612c4f82612b17565b612c8e576040517f08c379a0000000000000000000000000000000000000000000000000000000008152600401612c85906157bb565b60405180910390fd5b6000612c99836113df565b90508073ffffffffffffffffffffffffffffffffffffffff168473ffffffffffffffffffffffffffffffffffffffff161480612d0857508373ffffffffffffffffffffffffffffffffffffffff16612cf084610cf3565b73ffffffffffffffffffffffffffffffffffffffff16145b80612d195750612d188185612676565b5b91505092915050565b8273ffffffffffffffffffffffffffffffffffffffff16612d42826113df565b73ffffffffffffffffffffffffffffffffffffffff1614612d98576040517f08c379a0000000000000000000000000000000000000000000000000000000008152600401612d8f9061584d565b60405180910390fd5b600073ffffffffffffffffffffffffffffffffffffffff168273ffffffffffffffffffffffffffffffffffffffff161415612e08576040517f08c379a0000000000000000000000000000000000000000000000000000000008152600401612dff906158df565b60405180910390fd5b612e1383838361356a565b612e1e600082612b8b565b6001600360008573ffffffffffffffffffffffffffffffffffffffff1673ffffffffffffffffffffffffffffffffffffffff1681526020019081526020016000206000828254612e6e9190615683565b925050819055506001600360008473ffffffffffffffffffffffffffffffffffffffff1673ffffffffffffffffffffffffffffffffffffffff1681526020019081526020016000206000828254612ec591906158ff565b92505081905550816002600083815260200190815260200160002060006101000a81548173ffffffffffffffffffffffffffffffffffffffff021916908373ffffffffffffffffffffffffffffffffffffffff160217905550808273ffffffffffffffffffffffffffffffffffffffff168473ffffffffffffffffffffffffffffffffffffffff167fddf252ad1be2c89b69c2b068fc378daa952ba7f163c4a11628f55a4df523b3ef60405160405180910390a4505050565b612f866113c8565b612fc5576040517f08c379a0000000000000000000000000000000000000000000000000000000008152600401612fbc906159a1565b60405180910390fd5b6000600a60006101000a81548160ff0219169083151502179055507f5db9ee0a495bf2e6ff9c91a7834c1ba4fdd244a5e8aa4e537bd38aeae4b073aa613009612b83565b6040516130169190614100565b60405180910390a1565b6000600a60019054906101000a900473ffffffffffffffffffffffffffffffffffffffff16905081600a60016101000a81548173ffffffffffffffffffffffffffffffffffffffff021916908373ffffffffffffffffffffffffffffffffffffffff1602179055508173ffffffffffffffffffffffffffffffffffffffff168173ffffffffffffffffffffffffffffffffffffffff167f8be0079c531659141344cd1fd0a4f28419497f9722a3daafe3b4186f6b6457e060405160405180910390a35050565b6000806130f1610ec7565b90506130fd848261367e565b82600c600083815260200190815260200160002060006101000a81548160ff021916908360ff16021790555060148360ff16815481106131405761313f614d5c565b5b90600052602060002001600081548092919061315b90614e07565b91905055508260ff16818573ffffffffffffffffffffffffffffffffffffffff167faabcc1eb354f11e651c87f835e7de6ac847d514718ed76fad480d55d2632992260405160405180910390a48091505092915050565b6131ba6113c8565b156131fa576040517f08c379a00000000000000000000000000000000000000000000000000000000081526004016131f1906151f6565b60405180910390fd5b6001600a60006101000a81548160ff0219169083151502179055507f62e78cea01bee320cd4e420270b5ea74000d11b0c9f74754ebdbfc544b05a25861323e612b83565b60405161324b9190614100565b60405180910390a1565b613260848484612d22565b61326c8484848461369c565b6132ab576040517f08c379a00000000000000000000000000000000000000000000000000000000081526004016132a290615a33565b60405180910390fd5b50505050565b6060601080546132c090614a50565b80601f01602080910402602001604051908101604052809291908181526020018280546132ec90614a50565b80156133395780601f1061330e57610100808354040283529160200191613339565b820191906000526020600020905b81548152906001019060200180831161331c57829003601f168201915b5050505050905090565b6060600082141561338b576040518060400160405280600181526020017f3000000000000000000000000000000000000000000000000000000000000000815250905061349f565b600082905060005b600082146133bd5780806133a690614e07565b915050600a826133b69190615a82565b9150613393565b60008167ffffffffffffffff8111156133d9576133d8614215565b5b6040519080825280601f01601f19166020018201604052801561340b5781602001600182028036833780820191505090505b5090505b60008514613498576001826134249190615683565b9150600a856134339190615ab3565b603061343f91906158ff565b60f81b81838151811061345557613454614d5c565b5b60200101907effffffffffffffffffffffffffffffffffffffffffffffffffffffffffffff1916908160001a905350600a856134919190615a82565b945061340f565b8093505050505b919050565b600081836134b29190615ae4565b905092915050565b600081836134c89190615a82565b905092915050565b6000816040516020016134e39190615b86565b604051602081830303815290604052805190602001209050919050565b60007f01ffc9a7000000000000000000000000000000000000000000000000000000007bffffffffffffffffffffffffffffffffffffffffffffffffffffffff1916827bffffffffffffffffffffffffffffffffffffffffffffffffffffffff1916149050919050565b613575838383613833565b600073ffffffffffffffffffffffffffffffffffffffff168373ffffffffffffffffffffffffffffffffffffffff1614156135b8576135b381613838565b6135f7565b8173ffffffffffffffffffffffffffffffffffffffff168373ffffffffffffffffffffffffffffffffffffffff16146135f6576135f58382613881565b5b5b600073ffffffffffffffffffffffffffffffffffffffff168273ffffffffffffffffffffffffffffffffffffffff16141561363a57613635816139ee565b613679565b8273ffffffffffffffffffffffffffffffffffffffff168273ffffffffffffffffffffffffffffffffffffffff1614613678576136778282613abf565b5b5b505050565b613698828260405180602001604052806000815250613b3e565b5050565b60006136bd8473ffffffffffffffffffffffffffffffffffffffff16613b99565b15613826578373ffffffffffffffffffffffffffffffffffffffff1663150b7a026136e6612b83565b8786866040518563ffffffff1660e01b81526004016137089493929190615bf6565b602060405180830381600087803b15801561372257600080fd5b505af192505050801561375357506040513d601f19601f820116820180604052508101906137509190615c57565b60015b6137d6573d8060008114613783576040519150601f19603f3d011682016040523d82523d6000602084013e613788565b606091505b506000815114156137ce576040517f08c379a00000000000000000000000000000000000000000000000000000000081526004016137c590615a33565b60405180910390fd5b805181602001fd5b63150b7a0260e01b7bffffffffffffffffffffffffffffffffffffffffffffffffffffffff1916817bffffffffffffffffffffffffffffffffffffffffffffffffffffffff19161491505061382b565b600190505b949350505050565b505050565b6008805490506009600083815260200190815260200160002081905550600881908060018154018082558091505060019003906000526020600020016000909190919091505550565b6000600161388e84611491565b6138989190615683565b905060006007600084815260200190815260200160002054905081811461397d576000600660008673ffffffffffffffffffffffffffffffffffffffff1673ffffffffffffffffffffffffffffffffffffffff168152602001908152602001600020600084815260200190815260200160002054905080600660008773ffffffffffffffffffffffffffffffffffffffff1673ffffffffffffffffffffffffffffffffffffffff168152602001908152602001600020600084815260200190815260200160002081905550816007600083815260200190815260200160002081905550505b6007600084815260200190815260200160002060009055600660008573ffffffffffffffffffffffffffffffffffffffff1673ffffffffffffffffffffffffffffffffffffffff16815260200190815260200160002060008381526020019081526020016000206000905550505050565b60006001600880549050613a029190615683565b9050600060096000848152602001908152602001600020549050600060088381548110613a3257613a31614d5c565b5b906000526020600020015490508060088381548110613a5457613a53614d5c565b5b906000526020600020018190555081600960008381526020019081526020016000208190555060096000858152602001908152602001600020600090556008805480613aa357613aa2615c84565b5b6001900381819060005260206000200160009055905550505050565b6000613aca83611491565b905081600660008573ffffffffffffffffffffffffffffffffffffffff1673ffffffffffffffffffffffffffffffffffffffff168152602001908152602001600020600083815260200190815260200160002081905550806007600084815260200190815260200160002081905550505050565b613b488383613bac565b613b55600084848461369c565b613b94576040517f08c379a0000000000000000000000000000000000000000000000000000000008152600401613b8b90615a33565b60405180910390fd5b505050565b600080823b905060008111915050919050565b600073ffffffffffffffffffffffffffffffffffffffff168273ffffffffffffffffffffffffffffffffffffffff161415613c1c576040517f08c379a0000000000000000000000000000000000000000000000000000000008152600401613c1390615cff565b60405180910390fd5b613c2581612b17565b15613c65576040517f08c379a0000000000000000000000000000000000000000000000000000000008152600401613c5c90615d6b565b60405180910390fd5b613c716000838361356a565b6001600360008473ffffffffffffffffffffffffffffffffffffffff1673ffffffffffffffffffffffffffffffffffffffff1681526020019081526020016000206000828254613cc191906158ff565b92505081905550816002600083815260200190815260200160002060006101000a81548173ffffffffffffffffffffffffffffffffffffffff021916908373ffffffffffffffffffffffffffffffffffffffff160217905550808273ffffffffffffffffffffffffffffffffffffffff16600073ffffffffffffffffffffffffffffffffffffffff167fddf252ad1be2c89b69c2b068fc378daa952ba7f163c4a11628f55a4df523b3ef60405160405180910390a45050565b828054828255906000526020600020908101928215613db6579160200282015b82811115613db5578251825591602001919060010190613d9a565b5b509050613dc39190613e4d565b5090565b828054613dd390614a50565b90600052602060002090601f016020900481019282613df55760008555613e3c565b82601f10613e0e57805160ff1916838001178555613e3c565b82800160010185558215613e3c579182015b82811115613e3b578251825591602001919060010190613e20565b5b509050613e499190613e4d565b5090565b5b80821115613e66576000816000905550600101613e4e565b5090565b6000604051905090565b600080fd5b600080fd5b6000819050919050565b613e9181613e7e565b8114613e9c57600080fd5b50565b600081359050613eae81613e88565b92915050565b600060208284031215613eca57613ec9613e74565b5b6000613ed884828501613e9f565b91505092915050565b613eea81613e7e565b82525050565b6000602082019050613f056000830184613ee1565b92915050565b60007fffffffff0000000000000000000000000000000000000000000000000000000082169050919050565b613f4081613f0b565b8114613f4b57600080fd5b50565b600081359050613f5d81613f37565b92915050565b600060208284031215613f7957613f78613e74565b5b6000613f8784828501613f4e565b91505092915050565b60008115159050919050565b613fa581613f90565b82525050565b6000602082019050613fc06000830184613f9c565b92915050565b600067ffffffffffffffff82169050919050565b613fe381613fc6565b82525050565b6000602082019050613ffe6000830184613fda565b92915050565b600081519050919050565b600082825260208201905092915050565b60005b8381101561403e578082015181840152602081019050614023565b8381111561404d576000848401525b50505050565b6000601f19601f8301169050919050565b600061406f82614004565b614079818561400f565b9350614089818560208601614020565b61409281614053565b840191505092915050565b600060208201905081810360008301526140b78184614064565b905092915050565b600073ffffffffffffffffffffffffffffffffffffffff82169050919050565b60006140ea826140bf565b9050919050565b6140fa816140df565b82525050565b600060208201905061411560008301846140f1565b92915050565b614124816140df565b811461412f57600080fd5b50565b6000813590506141418161411b565b92915050565b6000806040838503121561415e5761415d613e74565b5b600061416c85828601614132565b925050602061417d85828601613e9f565b9150509250929050565b6000806000606084860312156141a05761419f613e74565b5b60006141ae86828701614132565b93505060206141bf86828701614132565b92505060406141d086828701613e9f565b9150509250925092565b6000819050919050565b6141ed816141da565b81146141f857600080fd5b50565b60008135905061420a816141e4565b92915050565b600080fd5b7f4e487b7100000000000000000000000000000000000000000000000000000000600052604160045260246000fd5b61424d82614053565b810181811067ffffffffffffffff8211171561426c5761426b614215565b5b80604052505050565b600061427f613e6a565b905061428b8282614244565b919050565b600067ffffffffffffffff8211156142ab576142aa614215565b5b602082029050602081019050919050565b600080fd5b60006142d46142cf84614290565b614275565b905080838252602082019050602084028301858111156142f7576142f66142bc565b5b835b81811015614320578061430c88826141fb565b8452602084019350506020810190506142f9565b5050509392505050565b600082601f83011261433f5761433e614210565b5b813561434f8482602086016142c1565b91505092915050565b6000806040838503121561436f5761436e613e74565b5b600061437d858286016141fb565b925050602083013567ffffffffffffffff81111561439e5761439d613e79565b5b6143aa8582860161432a565b9150509250929050565b6000602082840312156143ca576143c9613e74565b5b60006143d8848285016141fb565b91505092915050565b6000602082840312156143f7576143f6613e74565b5b600061440584828501614132565b91505092915050565b600081519050919050565b600082825260208201905092915050565b6000819050602082019050919050565b61444381613e7e565b82525050565b6000614455838361443a565b60208301905092915050565b6000602082019050919050565b60006144798261440e565b6144838185614419565b935061448e8361442a565b8060005b838110156144bf5781516144a68882614449565b97506144b183614461565b925050600181019050614492565b5085935050505092915050565b600060208201905081810360008301526144e6818461446e565b905092915050565b600060ff82169050919050565b614504816144ee565b811461450f57600080fd5b50565b600081359050614521816144fb565b92915050565b6000806040838503121561453e5761453d613e74565b5b600061454c85828601614132565b925050602061455d85828601614512565b9150509250929050565b614570816144ee565b82525050565b600060208201905061458b6000830184614567565b92915050565b61459a81613f90565b81146145a557600080fd5b50565b6000813590506145b781614591565b92915050565b600080604083850312156145d4576145d3613e74565b5b60006145e285828601614132565b92505060206145f3858286016145a8565b9150509250929050565b600067ffffffffffffffff82111561461857614617614215565b5b602082029050602081019050919050565b600061463c614637846145fd565b614275565b9050808382526020820190506020840283018581111561465f5761465e6142bc565b5b835b8181101561468857806146748882613e9f565b845260208401935050602081019050614661565b5050509392505050565b600082601f8301126146a7576146a6614210565b5b81356146b7848260208601614629565b91505092915050565b6000602082840312156146d6576146d5613e74565b5b600082013567ffffffffffffffff8111156146f4576146f3613e79565b5b61470084828501614692565b91505092915050565b600080fd5b600067ffffffffffffffff82111561472957614728614215565b5b61473282614053565b9050602081019050919050565b82818337600083830152505050565b600061476161475c8461470e565b614275565b90508281526020810184848401111561477d5761477c614709565b5b61478884828561473f565b509392505050565b600082601f8301126147a5576147a4614210565b5b81356147b584826020860161474e565b91505092915050565b600080600080608085870312156147d8576147d7613e74565b5b60006147e687828801614132565b94505060206147f787828801614132565b935050604061480887828801613e9f565b925050606085013567ffffffffffffffff81111561482957614828613e79565b5b61483587828801614790565b91505092959194509250565b60006020828403121561485757614856613e74565b5b600061486584828501614512565b91505092915050565b6000806040838503121561488557614884613e74565b5b600083013567ffffffffffffffff8111156148a3576148a2613e79565b5b6148af8582860161432a565b92505060206148c085828601614512565b9150509250929050565b6000602082840312156148e0576148df613e74565b5b60006148ee848285016145a8565b91505092915050565b600067ffffffffffffffff82111561491257614911614215565b5b61491b82614053565b9050602081019050919050565b600061493b614936846148f7565b614275565b90508281526020810184848401111561495757614956614709565b5b61496284828561473f565b509392505050565b600082601f83011261497f5761497e614210565b5b813561498f848260208601614928565b91505092915050565b6000602082840312156149ae576149ad613e74565b5b600082013567ffffffffffffffff8111156149cc576149cb613e79565b5b6149d88482850161496a565b91505092915050565b600080604083850312156149f8576149f7613e74565b5b6000614a0685828601614132565b9250506020614a1785828601614132565b9150509250929050565b7f4e487b7100000000000000000000000000000000000000000000000000000000600052602260045260246000fd5b60006002820490506001821680614a6857607f821691505b60208210811415614a7c57614a7b614a21565b5b50919050565b7f4552433732313a20617070726f76656420717565727920666f72206e6f6e657860008201527f697374656e7420746f6b656e0000000000000000000000000000000000000000602082015250565b6000614ade602c8361400f565b9150614ae982614a82565b604082019050919050565b60006020820190508181036000830152614b0d81614ad1565b9050919050565b7f4552433732313a20617070726f76616c20746f2063757272656e74206f776e6560008201527f7200000000000000000000000000000000000000000000000000000000000000602082015250565b6000614b7060218361400f565b9150614b7b82614b14565b604082019050919050565b60006020820190508181036000830152614b9f81614b63565b9050919050565b7f4552433732313a20617070726f76652063616c6c6572206973206e6f74206f7760008201527f6e6572206e6f7220617070726f76656420666f7220616c6c0000000000000000602082015250565b6000614c0260388361400f565b9150614c0d82614ba6565b604082019050919050565b60006020820190508181036000830152614c3181614bf5565b9050919050565b7f4552433732313a207472616e736665722063616c6c6572206973206e6f74206f60008201527f776e6572206e6f7220617070726f766564000000000000000000000000000000602082015250565b6000614c9460318361400f565b9150614c9f82614c38565b604082019050919050565b60006020820190508181036000830152614cc381614c87565b9050919050565b7f455243373231456e756d657261626c653a206f776e657220696e646578206f7560008201527f74206f6620626f756e6473000000000000000000000000000000000000000000602082015250565b6000614d26602b8361400f565b9150614d3182614cca565b604082019050919050565b60006020820190508181036000830152614d5581614d19565b9050919050565b7f4e487b7100000000000000000000000000000000000000000000000000000000600052603260045260246000fd5b6000819050919050565b614da6614da1826141da565b614d8b565b82525050565b6000614db88285614d95565b602082019150614dc88284614d95565b6020820191508190509392505050565b7f4e487b7100000000000000000000000000000000000000000000000000000000600052601160045260246000fd5b6000614e1282613e7e565b91507fffffffffffffffffffffffffffffffffffffffffffffffffffffffffffffffff821415614e4557614e44614dd8565b5b600182019050919050565b7f4f776e61626c653a2063616c6c6572206973206e6f7420746865206f776e6572600082015250565b6000614e8660208361400f565b9150614e9182614e50565b602082019050919050565b60006020820190508181036000830152614eb581614e79565b9050919050565b7f455243373231456e756d657261626c653a20676c6f62616c20696e646578206f60008201527f7574206f6620626f756e64730000000000000000000000000000000000000000602082015250565b6000614f18602c8361400f565b9150614f2382614ebc565b604082019050919050565b60006020820190508181036000830152614f4781614f0b565b9050919050565b7f4552433732313a206f776e657220717565727920666f72206e6f6e657869737460008201527f656e7420746f6b656e0000000000000000000000000000000000000000000000602082015250565b6000614faa60298361400f565b9150614fb582614f4e565b604082019050919050565b60006020820190508181036000830152614fd981614f9d565b9050919050565b7f4552433732313a2062616c616e636520717565727920666f7220746865207a6560008201527f726f206164647265737300000000000000000000000000000000000000000000602082015250565b600061503c602a8361400f565b915061504782614fe0565b604082019050919050565b6000602082019050818103600083015261506b8161502f565b9050919050565b7f546f6b656e20646f6573206e6f74206578697374000000000000000000000000600082015250565b60006150a860148361400f565b91506150b382615072565b602082019050919050565b600060208201905081810360008301526150d78161509b565b9050919050565b7f4552433732313a20617070726f766520746f2063616c6c657200000000000000600082015250565b600061511460198361400f565b915061511f826150de565b602082019050919050565b6000602082019050818103600083015261514381615107565b9050919050565b600081905092915050565b600061516082614004565b61516a818561514a565b935061517a818560208601614020565b80840191505092915050565b60006151928285615155565b915061519e8284615155565b91508190509392505050565b7f5061757361626c653a2070617573656400000000000000000000000000000000600082015250565b60006151e060108361400f565b91506151eb826151aa565b602082019050919050565b6000602082019050818103600083015261520f816151d3565b9050919050565b7f5265656e7472616e637947756172643a207265656e7472616e742063616c6c00600082015250565b600061524c601f8361400f565b915061525782615216565b602082019050919050565b6000602082019050818103600083015261527b8161523f565b9050919050565b7f57686974656c6973742069732061637469766500000000000000000000000000600082015250565b60006152b860138361400f565b91506152c382615282565b602082019050919050565b600060208201905081810360008301526152e7816152ab565b9050919050565b7f53616c657320696e20424e4220617265206e6f74207065726d69747465640000600082015250565b6000615324601e8361400f565b915061532f826152ee565b602082019050919050565b6000602082019050818103600083015261535381615317565b9050919050565b600060408201905061536f60008301856140f1565b61537c60208301846140f1565b9392505050565b60008151905061539281613e88565b92915050565b6000602082840312156153ae576153ad613e74565b5b60006153bc84828501615383565b91505092915050565b7f4e6f7420656e6f7567687420616c6c6f77616e63650000000000000000000000600082015250565b60006153fb60158361400f565b9150615406826153c5565b602082019050919050565b6000602082019050818103600083015261542a816153ee565b9050919050565b600060608201905061544660008301866140f1565b61545360208301856140f1565b6154606040830184613ee1565b949350505050565b60008151905061547781614591565b92915050565b60006020828403121561549357615492613e74565b5b60006154a184828501615468565b91505092915050565b60006040820190506154bf60008301856140f1565b6154cc6020830184613ee1565b9392505050565b7f57686974656c697374206973206e6f7420616374697665000000000000000000600082015250565b600061550960178361400f565b9150615514826154d3565b602082019050919050565b60006020820190508181036000830152615538816154fc565b9050919050565b7f4e6f7420656e6f7567687420424e420000000000000000000000000000000000600082015250565b6000615575600f8361400f565b91506155808261553f565b602082019050919050565b600060208201905081810360008301526155a481615568565b9050919050565b7f4c696d69746174696f6e20686173206265656e20726561636865640000000000600082015250565b60006155e1601b8361400f565b91506155ec826155ab565b602082019050919050565b60006020820190508181036000830152615610816155d4565b9050919050565b7f4e6f742077686974656c69737465640000000000000000000000000000000000600082015250565b600061564d600f8361400f565b915061565882615617565b602082019050919050565b6000602082019050818103600083015261567c81615640565b9050919050565b600061568e82613e7e565b915061569983613e7e565b9250828210156156ac576156ab614dd8565b5b828203905092915050565b7f4f776e61626c653a206e6577206f776e657220697320746865207a65726f206160008201527f6464726573730000000000000000000000000000000000000000000000000000602082015250565b600061571360268361400f565b915061571e826156b7565b604082019050919050565b6000602082019050818103600083015261574281615706565b9050919050565b7f4552433732313a206f70657261746f7220717565727920666f72206e6f6e657860008201527f697374656e7420746f6b656e0000000000000000000000000000000000000000602082015250565b60006157a5602c8361400f565b91506157b082615749565b604082019050919050565b600060208201905081810360008301526157d481615798565b9050919050565b7f4552433732313a207472616e73666572206f6620746f6b656e2074686174206960008201527f73206e6f74206f776e0000000000000000000000000000000000000000000000602082015250565b600061583760298361400f565b9150615842826157db565b604082019050919050565b600060208201905081810360008301526158668161582a565b9050919050565b7f4552433732313a207472616e7366657220746f20746865207a65726f2061646460008201527f7265737300000000000000000000000000000000000000000000000000000000602082015250565b60006158c960248361400f565b91506158d48261586d565b604082019050919050565b600060208201905081810360008301526158f8816158bc565b9050919050565b600061590a82613e7e565b915061591583613e7e565b9250827fffffffffffffffffffffffffffffffffffffffffffffffffffffffffffffffff0382111561594a57615949614dd8565b5b828201905092915050565b7f5061757361626c653a206e6f7420706175736564000000000000000000000000600082015250565b600061598b60148361400f565b915061599682615955565b602082019050919050565b600060208201905081810360008301526159ba8161597e565b9050919050565b7f4552433732313a207472616e7366657220746f206e6f6e20455243373231526560008201527f63656976657220696d706c656d656e7465720000000000000000000000000000602082015250565b6000615a1d60328361400f565b9150615a28826159c1565b604082019050919050565b60006020820190508181036000830152615a4c81615a10565b9050919050565b7f4e487b7100000000000000000000000000000000000000000000000000000000600052601260045260246000fd5b6000615a8d82613e7e565b9150615a9883613e7e565b925082615aa857615aa7615a53565b5b828204905092915050565b6000615abe82613e7e565b9150615ac983613e7e565b925082615ad957615ad8615a53565b5b828206905092915050565b6000615aef82613e7e565b9150615afa83613e7e565b9250817fffffffffffffffffffffffffffffffffffffffffffffffffffffffffffffffff0483118215151615615b3357615b32614dd8565b5b828202905092915050565b60008160601b9050919050565b6000615b5682615b3e565b9050919050565b6000615b6882615b4b565b9050919050565b615b80615b7b826140df565b615b5d565b82525050565b6000615b928284615b6f565b60148201915081905092915050565b600081519050919050565b600082825260208201905092915050565b6000615bc882615ba1565b615bd28185615bac565b9350615be2818560208601614020565b615beb81614053565b840191505092915050565b6000608082019050615c0b60008301876140f1565b615c1860208301866140f1565b615c256040830185613ee1565b8181036060830152615c378184615bbd565b905095945050505050565b600081519050615c5181613f37565b92915050565b600060208284031215615c6d57615c6c613e74565b5b6000615c7b84828501615c42565b91505092915050565b7f4e487b7100000000000000000000000000000000000000000000000000000000600052603160045260246000fd5b7f4552433732313a206d696e7420746f20746865207a65726f2061646472657373600082015250565b6000615ce960208361400f565b9150615cf482615cb3565b602082019050919050565b60006020820190508181036000830152615d1881615cdc565b9050919050565b7f4552433732313a20746f6b656e20616c7265616479206d696e74656400000000600082015250565b6000615d55601c8361400f565b9150615d6082615d1f565b602082019050919050565b60006020820190508181036000830152615d8481615d48565b905091905056fea26469706673582212200cc208d172a1bda1eee5b4e12bfb53117adb57cc7ef8b3908ab1f69e2b2eaa4e64736f6c63430008090033687474703a2f2f6c6f63616c686f73743a383038302f6170692f6d6574616474612f",
  "linkReferences": {},
  "deployedLinkReferences": {}
}