{
  "_format": "hh-sol-artifact-1",
  "contractName": "Burger",
  "sourceName": "contracts/Burger.sol",
  "abi": [
    {
      "inputs": [],
      "stateMutability": "nonpayable",
      "type": "constructor"
    },
    {
      "anonymous": false,
      "inputs": [
        {
          "indexed": true,
          "internalType": "address",
          "name": "owner",
          "type": "address"
        },
        {
          "indexed": true,
          "internalType": "address",
          "name": "approved",
          "type": "address"
        },
        {
          "indexed": true,
          "internalType": "uint256",
          "name": "tokenId",
          "type": "uint256"
        }
      ],
      "name": "Approval",
      "type": "event"
    },
    {
      "anonymous": false,
      "inputs": [
        {
          "indexed": true,
          "internalType": "address",
          "name": "owner",
          "type": "address"
        },
        {
          "indexed": true,
          "internalType": "address",
          "name": "operator",
          "type": "address"
        },
        {
          "indexed": false,
          "internalType": "bool",
          "name": "approved",
          "type": "bool"
        }
      ],
      "name": "ApprovalForAll",
      "type": "event"
    },
    {
      "anonymous": false,
      "inputs": [
        {
          "indexed": true,
          "internalType": "address",
          "name": "_to",
          "type": "address"
        },
        {
          "indexed": true,
          "internalType": "uint256",
          "name": "_id",
          "type": "uint256"
        },
        {
          "indexed": true,
          "internalType": "uint8",
          "name": "_boxType",
          "type": "uint8"
        }
      ],
      "name": "MintNFT",
      "type": "event"
    },
    {
      "anonymous": false,
      "inputs": [
        {
          "indexed": true,
          "internalType": "address",
          "name": "previousOwner",
          "type": "address"
        },
        {
          "indexed": true,
          "internalType": "address",
          "name": "newOwner",
          "type": "address"
        }
      ],
      "name": "OwnershipTransferred",
      "type": "event"
    },
    {
      "anonymous": false,
      "inputs": [
        {
          "indexed": false,
          "internalType": "address",
          "name": "account",
          "type": "address"
        }
      ],
      "name": "Paused",
      "type": "event"
    },
    {
      "anonymous": false,
      "inputs": [
        {
          "indexed": true,
          "internalType": "address",
          "name": "from",
          "type": "address"
        },
        {
          "indexed": true,
          "internalType": "address",
          "name": "to",
          "type": "address"
        },
        {
          "indexed": true,
          "internalType": "uint256",
          "name": "tokenId",
          "type": "uint256"
        }
      ],
      "name": "Transfer",
      "type": "event"
    },
    {
      "anonymous": false,
      "inputs": [
        {
          "indexed": false,
          "internalType": "address",
          "name": "account",
          "type": "address"
        }
      ],
      "name": "Unpaused",
      "type": "event"
    },
    {
      "anonymous": false,
      "inputs": [
        {
          "indexed": false,
          "internalType": "bool",
          "name": "isWhiteList",
          "type": "bool"
        }
      ],
      "name": "whitelistModeChanged",
      "type": "event"
    },
    {
      "inputs": [
        {
          "internalType": "uint256",
          "name": "",
          "type": "uint256"
        }
      ],
      "name": "_limitTokenAmountPerBoxtype",
      "outputs": [
        {
          "internalType": "uint64",
          "name": "",
          "type": "uint64"
        }
      ],
      "stateMutability": "view",
      "type": "function"
    },
    {
      "inputs": [
        {
          "internalType": "uint256",
          "name": "",
          "type": "uint256"
        }
      ],
      "name": "_tokenSupply",
      "outputs": [
        {
          "internalType": "uint256",
          "name": "",
          "type": "uint256"
        }
      ],
      "stateMutability": "view",
      "type": "function"
    },
    {
      "inputs": [
        {
          "internalType": "address",
          "name": "to",
          "type": "address"
        },
        {
          "internalType": "uint256",
          "name": "tokenId",
          "type": "uint256"
        }
      ],
      "name": "approve",
      "outputs": [],
      "stateMutability": "nonpayable",
      "type": "function"
    },
    {
      "inputs": [
        {
          "internalType": "address",
          "name": "owner",
          "type": "address"
        }
      ],
      "name": "balanceOf",
      "outputs": [
        {
          "internalType": "uint256",
          "name": "",
          "type": "uint256"
        }
      ],
      "stateMutability": "view",
      "type": "function"
    },
    {
      "inputs": [
        {
          "internalType": "uint256",
          "name": "",
          "type": "uint256"
        }
      ],
      "name": "boxPriceBNB",
      "outputs": [
        {
          "internalType": "uint256",
          "name": "",
          "type": "uint256"
        }
      ],
      "stateMutability": "view",
      "type": "function"
    },
    {
      "inputs": [
        {
          "internalType": "uint256",
          "name": "",
          "type": "uint256"
        }
      ],
      "name": "boxPriceBURG",
      "outputs": [
        {
          "internalType": "uint256",
          "name": "",
          "type": "uint256"
        }
      ],
      "stateMutability": "view",
      "type": "function"
    },
    {
      "inputs": [
        {
          "internalType": "string",
          "name": "newBaseTokenURI",
          "type": "string"
        }
      ],
      "name": "changeBaseTokenURI",
      "outputs": [],
      "stateMutability": "nonpayable",
      "type": "function"
    },
    {
      "inputs": [
        {
          "internalType": "bool",
          "name": "newValue",
          "type": "bool"
        }
      ],
      "name": "changeEnableSaleBNB",
      "outputs": [],
      "stateMutability": "nonpayable",
      "type": "function"
    },
    {
      "inputs": [
        {
          "internalType": "bool",
          "name": "newValue",
          "type": "bool"
        }
      ],
      "name": "changeEnableSaleBURG",
      "outputs": [],
      "stateMutability": "nonpayable",
      "type": "function"
    },
    {
      "inputs": [
        {
          "internalType": "bytes32",
          "name": "newRoot",
          "type": "bytes32"
        }
      ],
      "name": "changeRoot",
      "outputs": [],
      "stateMutability": "nonpayable",
      "type": "function"
    },
    {
      "inputs": [
        {
          "internalType": "bool",
          "name": "newState",
          "type": "bool"
        }
      ],
      "name": "changeWhitelistState",
      "outputs": [],
      "stateMutability": "nonpayable",
      "type": "function"
    },
    {
      "inputs": [
        {
          "internalType": "uint256",
          "name": "tokenId",
          "type": "uint256"
        }
      ],
      "name": "getApproved",
      "outputs": [
        {
          "internalType": "address",
          "name": "",
          "type": "address"
        }
      ],
      "stateMutability": "view",
      "type": "function"
    },
    {
      "inputs": [],
      "name": "getPriceType",
      "outputs": [
        {
          "internalType": "string",
          "name": "",
          "type": "string"
        }
      ],
      "stateMutability": "view",
      "type": "function"
    },
    {
      "inputs": [
        {
          "internalType": "uint256",
          "name": "_tokenId",
          "type": "uint256"
        }
      ],
      "name": "getboxTypeById",
      "outputs": [
        {
          "internalType": "uint8",
          "name": "",
          "type": "uint8"
        }
      ],
      "stateMutability": "view",
      "type": "function"
    },
    {
      "inputs": [
        {
          "internalType": "address",
          "name": "owner",
          "type": "address"
        },
        {
          "internalType": "address",
          "name": "operator",
          "type": "address"
        }
      ],
      "name": "isApprovedForAll",
      "outputs": [
        {
          "internalType": "bool",
          "name": "",
          "type": "bool"
        }
      ],
      "stateMutability": "view",
      "type": "function"
    },
    {
      "inputs": [
        {
          "internalType": "address",
          "name": "_to",
          "type": "address"
        }
      ],
      "name": "mintForGoldenTicket",
      "outputs": [
        {
          "internalType": "uint256",
          "name": "",
          "type": "uint256"
        }
      ],
      "stateMutability": "nonpayable",
      "type": "function"
    },
    {
      "inputs": [
        {
          "internalType": "uint8",
          "name": "boxType",
          "type": "uint8"
        }
      ],
      "name": "mintNormal",
      "outputs": [
        {
          "internalType": "uint256",
          "name": "",
          "type": "uint256"
        }
      ],
      "stateMutability": "payable",
      "type": "function"
    },
    {
      "inputs": [
        {
          "internalType": "uint8",
          "name": "boxType",
          "type": "uint8"
        }
      ],
      "name": "mintNormalBURG",
      "outputs": [
        {
          "internalType": "uint256",
          "name": "",
          "type": "uint256"
        }
      ],
      "stateMutability": "nonpayable",
      "type": "function"
    },
    {
      "inputs": [
        {
          "internalType": "address",
          "name": "_to",
          "type": "address"
        },
        {
          "internalType": "uint8",
          "name": "boxType",
          "type": "uint8"
        }
      ],
      "name": "mintOwner",
      "outputs": [
        {
          "internalType": "uint256",
          "name": "",
          "type": "uint256"
        }
      ],
      "stateMutability": "nonpayable",
      "type": "function"
    },
    {
      "inputs": [
        {
          "internalType": "bytes32[]",
          "name": "proof",
          "type": "bytes32[]"
        },
        {
          "internalType": "uint8",
          "name": "boxType",
          "type": "uint8"
        }
      ],
      "name": "mintWhitelist",
      "outputs": [],
      "stateMutability": "payable",
      "type": "function"
    },
    {
      "inputs": [],
      "name": "name",
      "outputs": [
        {
          "internalType": "string",
          "name": "",
          "type": "string"
        }
      ],
      "stateMutability": "view",
      "type": "function"
    },
    {
      "inputs": [],
      "name": "owner",
      "outputs": [
        {
          "internalType": "address",
          "name": "",
          "type": "address"
        }
      ],
      "stateMutability": "view",
      "type": "function"
    },
    {
      "inputs": [
        {
          "internalType": "uint256",
          "name": "tokenId",
          "type": "uint256"
        }
      ],
      "name": "ownerOf",
      "outputs": [
        {
          "internalType": "address",
          "name": "",
          "type": "address"
        }
      ],
      "stateMutability": "view",
      "type": "function"
    },
    {
      "inputs": [],
      "name": "pause",
      "outputs": [
        {
          "internalType": "bool",
          "name": "",
          "type": "bool"
        }
      ],
      "stateMutability": "nonpayable",
      "type": "function"
    },
    {
      "inputs": [],
      "name": "paused",
      "outputs": [
        {
          "internalType": "bool",
          "name": "",
          "type": "bool"
        }
      ],
      "stateMutability": "view",
      "type": "function"
    },
    {
      "inputs": [],
      "name": "renounceOwnership",
      "outputs": [],
      "stateMutability": "nonpayable",
      "type": "function"
    },
    {
      "inputs": [
        {
          "internalType": "address",
          "name": "from",
          "type": "address"
        },
        {
          "internalType": "address",
          "name": "to",
          "type": "address"
        },
        {
          "internalType": "uint256",
          "name": "tokenId",
          "type": "uint256"
        }
      ],
      "name": "safeTransferFrom",
      "outputs": [],
      "stateMutability": "nonpayable",
      "type": "function"
    },
    {
      "inputs": [
        {
          "internalType": "address",
          "name": "from",
          "type": "address"
        },
        {
          "internalType": "address",
          "name": "to",
          "type": "address"
        },
        {
          "internalType": "uint256",
          "name": "tokenId",
          "type": "uint256"
        },
        {
          "internalType": "bytes",
          "name": "_data",
          "type": "bytes"
        }
      ],
      "name": "safeTransferFrom",
      "outputs": [],
      "stateMutability": "nonpayable",
      "type": "function"
    },
    {
      "inputs": [],
      "name": "saleBNBEnabled",
      "outputs": [
        {
          "internalType": "bool",
          "name": "",
          "type": "bool"
        }
      ],
      "stateMutability": "view",
      "type": "function"
    },
    {
      "inputs": [],
      "name": "saleBURGEnabled",
      "outputs": [
        {
          "internalType": "bool",
          "name": "",
          "type": "bool"
        }
      ],
      "stateMutability": "view",
      "type": "function"
    },
    {
      "inputs": [
        {
          "internalType": "address",
          "name": "operator",
          "type": "address"
        },
        {
          "internalType": "bool",
          "name": "approved",
          "type": "bool"
        }
      ],
      "name": "setApprovalForAll",
      "outputs": [],
      "stateMutability": "nonpayable",
      "type": "function"
    },
    {
      "inputs": [
        {
          "internalType": "address",
          "name": "_newAddress",
          "type": "address"
        }
      ],
      "name": "setBURGAddress",
      "outputs": [
        {
          "internalType": "bool",
          "name": "",
          "type": "bool"
        }
      ],
      "stateMutability": "nonpayable",
      "type": "function"
    },
    {
      "inputs": [],
      "name": "strBaseTokenURI",
      "outputs": [
        {
          "internalType": "string",
          "name": "",
          "type": "string"
        }
      ],
      "stateMutability": "view",
      "type": "function"
    },
    {
      "inputs": [
        {
          "internalType": "bytes4",
          "name": "interfaceId",
          "type": "bytes4"
        }
      ],
      "name": "supportsInterface",
      "outputs": [
        {
          "internalType": "bool",
          "name": "",
          "type": "bool"
        }
      ],
      "stateMutability": "view",
      "type": "function"
    },
    {
      "inputs": [],
      "name": "symbol",
      "outputs": [
        {
          "internalType": "string",
          "name": "",
          "type": "string"
        }
      ],
      "stateMutability": "view",
      "type": "function"
    },
    {
      "inputs": [
        {
          "internalType": "uint256",
          "name": "index",
          "type": "uint256"
        }
      ],
      "name": "tokenByIndex",
      "outputs": [
        {
          "internalType": "uint256",
          "name": "",
          "type": "uint256"
        }
      ],
      "stateMutability": "view",
      "type": "function"
    },
    {
      "inputs": [
        {
          "internalType": "address",
          "name": "owner",
          "type": "address"
        },
        {
          "internalType": "uint256",
          "name": "index",
          "type": "uint256"
        }
      ],
      "name": "tokenOfOwnerByIndex",
      "outputs": [
        {
          "internalType": "uint256",
          "name": "",
          "type": "uint256"
        }
      ],
      "stateMutability": "view",
      "type": "function"
    },
    {
      "inputs": [
        {
          "internalType": "uint256",
          "name": "_tokenId",
          "type": "uint256"
        }
      ],
      "name": "tokenURI",
      "outputs": [
        {
          "internalType": "string",
          "name": "",
          "type": "string"
        }
      ],
      "stateMutability": "view",
      "type": "function"
    },
    {
      "inputs": [],
      "name": "totalSupply",
      "outputs": [
        {
          "internalType": "uint256",
          "name": "",
          "type": "uint256"
        }
      ],
      "stateMutability": "view",
      "type": "function"
    },
    {
      "inputs": [
        {
          "internalType": "address",
          "name": "from",
          "type": "address"
        },
        {
          "internalType": "address",
          "name": "to",
          "type": "address"
        },
        {
          "internalType": "uint256",
          "name": "tokenId",
          "type": "uint256"
        }
      ],
      "name": "transferFrom",
      "outputs": [],
      "stateMutability": "nonpayable",
      "type": "function"
    },
    {
      "inputs": [
        {
          "internalType": "address",
          "name": "newOwner",
          "type": "address"
        }
      ],
      "name": "transferOwnership",
      "outputs": [],
      "stateMutability": "nonpayable",
      "type": "function"
    },
    {
      "inputs": [],
      "name": "unpause",
      "outputs": [
        {
          "internalType": "bool",
          "name": "",
          "type": "bool"
        }
      ],
      "stateMutability": "nonpayable",
      "type": "function"
    },
    {
      "inputs": [
        {
          "internalType": "uint256[]",
          "name": "_newBoxPricesBNB",
          "type": "uint256[]"
        }
      ],
      "name": "updateBoxPricesBNB",
      "outputs": [
        {
          "internalType": "bool",
          "name": "",
          "type": "bool"
        }
      ],
      "stateMutability": "nonpayable",
      "type": "function"
    },
    {
      "inputs": [
        {
          "internalType": "uint256[]",
          "name": "_newBoxPricesBURG",
          "type": "uint256[]"
        }
      ],
      "name": "updateBoxPricesBURG",
      "outputs": [
        {
          "internalType": "bool",
          "name": "",
          "type": "bool"
        }
      ],
      "stateMutability": "nonpayable",
      "type": "function"
    },
    {
      "inputs": [
        {
          "internalType": "bytes32",
          "name": "leaf",
          "type": "bytes32"
        },
        {
          "internalType": "bytes32[]",
          "name": "proof",
          "type": "bytes32[]"
        }
      ],
      "name": "verifyWhitelist",
      "outputs": [
        {
          "internalType": "bool",
          "name": "",
          "type": "bool"
        }
      ],
      "stateMutability": "view",
      "type": "function"
    },
    {
      "inputs": [
        {
          "internalType": "address",
          "name": "_owner",
          "type": "address"
        }
      ],
      "name": "walletOfOwner",
      "outputs": [
        {
          "internalType": "uint256[]",
          "name": "",
          "type": "uint256[]"
        }
      ],
      "stateMutability": "view",
      "type": "function"
    },
    {
      "inputs": [],
      "name": "whitelistActive",
      "outputs": [
        {
          "internalType": "bool",
          "name": "",
          "type": "bool"
        }
      ],
      "stateMutability": "view",
      "type": "function"
    },
    {
      "inputs": [],
      "name": "withdraw",
      "outputs": [],
      "stateMutability": "nonpayable",
      "type": "function"
    }
  ],
  "bytecode": "0x60e0604052662386f26fc10000608090815266470de4df82000060a052666a94d74f43000060c0526200003790600d90600362000235565b5060408051606081018252662386f26fc10000815266470de4df8200006020820152666a94d74f430000918101919091526200007890600e90600362000235565b506040518060600160405280602281526020016200392b602291398051620000a991600f9160209091019062000290565b506010805462ffffff19166101011790557fa2fc709bf2f4b9cb44b8a9114485d12d4877bb1beedd81f62f4f85a8056480ee60115560408051606081018252600080825260208201819052918101919091526200010b9060139060036200030d565b506040805160608101825261113081526108986020820152610384918101919091526200013d90601490600362000350565b503480156200014b57600080fd5b5060405180604001604052806006815260200165213ab933b2b960d11b81525060405180604001604052806006815260200165212aa923a2a960d11b8152508160009080519060200190620001a292919062000290565b508051620001b890600190602084019062000290565b5050600a805460ff1916905550620001d033620001db565b6001600b5562000454565b600a80546001600160a01b03838116610100818102610100600160a81b031985161790945560405193909204169182907f8be0079c531659141344cd1fd0a4f28419497f9722a3daafe3b4186f6b6457e090600090a35050565b8280548282559060005260206000209081019282156200027e579160200282015b828111156200027e578251829066ffffffffffffff1690559160200191906001019062000256565b506200028c92915062000400565b5090565b8280546200029e9062000417565b90600052602060002090601f016020900481019282620002c257600085556200027e565b82601f10620002dd57805160ff19168380011785556200027e565b828001600101855582156200027e579182015b828111156200027e578251825591602001919060010190620002f0565b8280548282559060005260206000209081019282156200027e579160200282015b828111156200027e578251829060ff169055916020019190600101906200032e565b828054828255906000526020600020906003016004900481019282156200027e5791602002820160005b83821115620003c157835183826101000a8154816001600160401b03021916908361ffff16021790555092602001926008016020816007010492830192600103026200037a565b8015620003f65782816101000a8154906001600160401b030219169055600801602081600701049283019260010302620003c1565b50506200028c9291505b5b808211156200028c576000815560010162000401565b600181811c908216806200042c57607f821691505b602082108114156200044e57634e487b7160e01b600052602260045260246000fd5b50919050565b6134c780620004646000396000f3fe6080604052600436106102935760003560e01c8063715018a61161015a578063b88d4fde116100c1578063e0d5f5db1161007a578063e0d5f5db146107e8578063e40e97a714610808578063e985e9c514610828578063f09542b314610871578063f1859b8c14610884578063f2fde38b1461089957600080fd5b8063b88d4fde14610740578063c87b56dd14610760578063ca84763314610780578063d124d28f14610795578063d883656a146107b5578063d9583b9f146107c857600080fd5b80638cba90b0116101135780638cba90b0146106765780638d79cc48146106a85780638da5cb5b146106c857806395d89b41146106eb578063a22cb46514610700578063a69a6e821461072057600080fd5b8063715018a6146105cc57806379d72794146105e15780637b125a1d146106015780638456cb591461062157806384b70ecb1461063657806387ddb7b71461065657600080fd5b80632f745c59116101fe57806342842e0e116101b757806342842e0e14610507578063438b6300146105275780634f6ccce7146105545780635c975abb146105745780636352211e1461058c57806370a08231146105ac57600080fd5b80632f745c591461045d578063329ea90d1461047d5780633ccfd60b1461049d5780633d59cd60146104b25780633eed9d76146104d25780633f4ba83a146104f257600080fd5b8063095ea7b311610250578063095ea7b3146103ad578063120f91d5146103cf578063158d9ac3146103ef57806318160ddd1461040e57806323b872dd1461042357806329c7f1fa1461044357600080fd5b8063014d41151461029857806301ffc9a7146102cb57806302ce5813146102fb57806306db2e341461031b57806306fdde0314610353578063081812fc14610375575b600080fd5b3480156102a457600080fd5b506102b86102b3366004612bef565b6108b9565b6040519081526020015b60405180910390f35b3480156102d757600080fd5b506102eb6102e6366004612c1e565b6108da565b60405190151581526020016102c2565b34801561030757600080fd5b506010546102eb9062010000900460ff1681565b34801561032757600080fd5b5061033b610336366004612bef565b610905565b6040516001600160401b0390911681526020016102c2565b34801561035f57600080fd5b50610368610942565b6040516102c29190612c93565b34801561038157600080fd5b50610395610390366004612bef565b6109d4565b6040516001600160a01b0390911681526020016102c2565b3480156103b957600080fd5b506103cd6103c8366004612cbd565b610a6e565b005b3480156103db57600080fd5b506102b86103ea366004612bef565b610b84565b3480156103fb57600080fd5b506010546102eb90610100900460ff1681565b34801561041a57600080fd5b506008546102b8565b34801561042f57600080fd5b506103cd61043e366004612ce7565b610b94565b34801561044f57600080fd5b506010546102eb9060ff1681565b34801561046957600080fd5b506102b8610478366004612cbd565b610bc5565b34801561048957600080fd5b506102eb610498366004612df7565b610c5b565b3480156104a957600080fd5b506103cd610d0c565b3480156104be57600080fd5b506103cd6104cd366004612bef565b610d7f565b3480156104de57600080fd5b506103cd6104ed366004612e4b565b610db4565b3480156104fe57600080fd5b506102eb610dfe565b34801561051357600080fd5b506103cd610522366004612ce7565b610e3f565b34801561053357600080fd5b50610547610542366004612e68565b610e5a565b6040516102c29190612e83565b34801561056057600080fd5b506102b861056f366004612bef565b610efb565b34801561058057600080fd5b50600a5460ff166102eb565b34801561059857600080fd5b506103956105a7366004612bef565b610f8e565b3480156105b857600080fd5b506102b86105c7366004612e68565b611005565b3480156105d857600080fd5b506103cd61108c565b3480156105ed57600080fd5b506102b86105fc366004612ed8565b6110c8565b34801561060d57600080fd5b506102eb61061c366004612e68565b61110c565b34801561062d57600080fd5b506102eb611163565b34801561064257600080fd5b506103cd610651366004612e4b565b61119e565b34801561066257600080fd5b506102b8610671366004612bef565b6111e1565b34801561068257600080fd5b50610696610691366004612bef565b6111f1565b60405160ff90911681526020016102c2565b3480156106b457600080fd5b506102b86106c3366004612e68565b611262565b3480156106d457600080fd5b50600a5461010090046001600160a01b0316610395565b3480156106f757600080fd5b506103686112a0565b34801561070c57600080fd5b506103cd61071b366004612f0b565b6112af565b34801561072c57600080fd5b506102eb61073b366004612f42565b611374565b34801561074c57600080fd5b506103cd61075b366004613029565b6113c3565b34801561076c57600080fd5b5061036861077b366004612bef565b6113fb565b34801561078c57600080fd5b50610368611491565b3480156107a157600080fd5b506102b86107b03660046130a4565b61151f565b6103cd6107c33660046130bf565b6118ce565b3480156107d457600080fd5b506103cd6107e3366004612e4b565b611b8b565b3480156107f457600080fd5b506102eb610803366004612f42565b611c14565b34801561081457600080fd5b506103cd610823366004613103565b611c5a565b34801561083457600080fd5b506102eb61084336600461314b565b6001600160a01b03918216600090815260056020908152604080832093909416825291909152205460ff1690565b6102b861087f3660046130a4565b611c9d565b34801561089057600080fd5b50610368611e6e565b3480156108a557600080fd5b506103cd6108b4366004612e68565b611ee7565b601381815481106108c957600080fd5b600091825260209091200154905081565b60006001600160e01b0319821663780e9d6360e01b14806108ff57506108ff82611f88565b92915050565b6014818154811061091557600080fd5b9060005260206000209060049182820401919006600802915054906101000a90046001600160401b031681565b60606000805461095190613175565b80601f016020809104026020016040519081016040528092919081815260200182805461097d90613175565b80156109ca5780601f1061099f576101008083540402835291602001916109ca565b820191906000526020600020905b8154815290600101906020018083116109ad57829003601f168201915b5050505050905090565b6000818152600260205260408120546001600160a01b0316610a525760405162461bcd60e51b815260206004820152602c60248201527f4552433732313a20617070726f76656420717565727920666f72206e6f6e657860448201526b34b9ba32b73a103a37b5b2b760a11b60648201526084015b60405180910390fd5b506000908152600460205260409020546001600160a01b031690565b6000610a7982610f8e565b9050806001600160a01b0316836001600160a01b03161415610ae75760405162461bcd60e51b815260206004820152602160248201527f4552433732313a20617070726f76616c20746f2063757272656e74206f776e656044820152603960f91b6064820152608401610a49565b336001600160a01b0382161480610b035750610b038133610843565b610b755760405162461bcd60e51b815260206004820152603860248201527f4552433732313a20617070726f76652063616c6c6572206973206e6f74206f7760448201527f6e6572206e6f7220617070726f76656420666f7220616c6c00000000000000006064820152608401610a49565b610b7f8383611fd8565b505050565b600d81815481106108c957600080fd5b610b9e3382612046565b610bba5760405162461bcd60e51b8152600401610a49906131b0565b610b7f83838361213d565b6000610bd083611005565b8210610c325760405162461bcd60e51b815260206004820152602b60248201527f455243373231456e756d657261626c653a206f776e657220696e646578206f7560448201526a74206f6620626f756e647360a81b6064820152608401610a49565b506001600160a01b03919091166000908152600660209081526040808320938352929052205490565b600082815b8351811015610d00576000848281518110610c7d57610c7d613201565b6020026020010151905080831015610cc0576040805160208101859052908101829052606001604051602081830303815290604052805190602001209250610ced565b60408051602081018390529081018490526060016040516020818303038152906040528051906020012092505b5080610cf88161322d565b915050610c60565b50601154149392505050565b600a546001600160a01b03610100909104163314610d3c5760405162461bcd60e51b8152600401610a4990613248565b600a54604051479161010090046001600160a01b0316906108fc8315029083906000818181858888f19350505050158015610d7b573d6000803e3d6000fd5b5050565b600a546001600160a01b03610100909104163314610daf5760405162461bcd60e51b8152600401610a4990613248565b601155565b600a546001600160a01b03610100909104163314610de45760405162461bcd60e51b8152600401610a4990613248565b601080549115156101000261ff0019909216919091179055565b600a546000906001600160a01b03610100909104163314610e315760405162461bcd60e51b8152600401610a4990613248565b610e396122e8565b50600190565b610b7f838383604051806020016040528060008152506113c3565b60606000610e6783611005565b90506000816001600160401b03811115610e8357610e83612d23565b604051908082528060200260200182016040528015610eac578160200160208202803683370190505b50905060005b82811015610ef357610ec48582610bc5565b828281518110610ed657610ed6613201565b602090810291909101015280610eeb8161322d565b915050610eb2565b509392505050565b6000610f0660085490565b8210610f695760405162461bcd60e51b815260206004820152602c60248201527f455243373231456e756d657261626c653a20676c6f62616c20696e646578206f60448201526b7574206f6620626f756e647360a01b6064820152608401610a49565b60088281548110610f7c57610f7c613201565b90600052602060002001549050919050565b6000818152600260205260408120546001600160a01b0316806108ff5760405162461bcd60e51b815260206004820152602960248201527f4552433732313a206f776e657220717565727920666f72206e6f6e657869737460448201526832b73a103a37b5b2b760b91b6064820152608401610a49565b60006001600160a01b0382166110705760405162461bcd60e51b815260206004820152602a60248201527f4552433732313a2062616c616e636520717565727920666f7220746865207a65604482015269726f206164647265737360b01b6064820152608401610a49565b506001600160a01b031660009081526003602052604090205490565b600a546001600160a01b036101009091041633146110bc5760405162461bcd60e51b8152600401610a4990613248565b6110c6600061237b565b565b600a546000906001600160a01b036101009091041633146110fb5760405162461bcd60e51b8152600401610a4990613248565b61110583836123d5565b9392505050565b600a546000906001600160a01b0361010090910416331461113f5760405162461bcd60e51b8152600401610a4990613248565b50601280546001600160a01b0319166001600160a01b03831617905560015b919050565b600a546000906001600160a01b036101009091041633146111965760405162461bcd60e51b8152600401610a4990613248565b610e3961247d565b600a546001600160a01b036101009091041633146111ce5760405162461bcd60e51b8152600401610a4990613248565b6010805460ff1916911515919091179055565b600e81815481106108c957600080fd5b6000818152600260205260408120546001600160a01b031661124c5760405162461bcd60e51b8152602060048201526014602482015273151bdad95b88191bd95cc81b9bdd08195e1a5cdd60621b6044820152606401610a49565b506000908152600c602052604090205460ff1690565b600a546000906001600160a01b036101009091041633146112955760405162461bcd60e51b8152600401610a4990613248565b6108ff8260016123d5565b60606001805461095190613175565b6001600160a01b0382163314156113085760405162461bcd60e51b815260206004820152601960248201527f4552433732313a20617070726f766520746f2063616c6c6572000000000000006044820152606401610a49565b3360008181526005602090815260408083206001600160a01b03871680855290835292819020805460ff191686151590811790915590519081529192917f17307eab39ab6107e8899845ad3d59bd9653f200f220920489ca2b5937696c31910160405180910390a35050565b600a546000906001600160a01b036101009091041633146113a75760405162461bcd60e51b8152600401610a4990613248565b81516113ba90600d906020850190612b1c565b50600192915050565b6113cd3383612046565b6113e95760405162461bcd60e51b8152600401610a49906131b0565b6113f5848484846124d5565b50505050565b6000818152600260205260409020546060906001600160a01b03166114595760405162461bcd60e51b8152602060048201526014602482015273151bdad95b88191bd95cc81b9bdd08195e1a5cdd60621b6044820152606401610a49565b611461612508565b61146a83612517565b60405160200161147b92919061327d565b6040516020818303038152906040529050919050565b600f805461149e90613175565b80601f01602080910402602001604051908101604052809291908181526020018280546114ca90613175565b80156115175780601f106114ec57610100808354040283529160200191611517565b820191906000526020600020905b8154815290600101906020018083116114fa57829003601f168201915b505050505081565b600061152d600a5460ff1690565b1561154a5760405162461bcd60e51b8152600401610a49906132ac565b6002600b54141561156d5760405162461bcd60e51b8152600401610a49906132d6565b6002600b5560105462010000900460ff16156115c15760405162461bcd60e51b815260206004820152601360248201527257686974656c6973742069732061637469766560681b6044820152606401610a49565b601054610100900460ff166116185760405162461bcd60e51b815260206004820152601e60248201527f53616c657320696e20424e4220617265206e6f74207065726d697474656400006044820152606401610a49565b600e8260ff168154811061162e5761162e613201565b600091825260209091200154601254604051636eb1769f60e11b81523360048201523060248201526001600160a01b039091169063dd62ed3e9060440160206040518083038186803b15801561168357600080fd5b505afa158015611697573d6000803e3d6000fd5b505050506040513d601f19601f820116820180604052508101906116bb919061330d565b10156117015760405162461bcd60e51b81526020600482015260156024820152744e6f7420656e6f7567687420616c6c6f77616e636560581b6044820152606401610a49565b6012546001600160a01b03166323b872dd3361172b600a546001600160a01b036101009091041690565b61176a60646117646008600e8a60ff168154811061174b5761174b613201565b906000526020600020015461261490919063ffffffff16565b90612620565b6040516001600160e01b031960e086901b1681526001600160a01b0393841660048201529290911660248301526044820152606401602060405180830381600087803b1580156117b957600080fd5b505af11580156117cd573d6000803e3d6000fd5b505050506040513d601f19601f820116820180604052508101906117f19190613326565b50601260009054906101000a90046001600160a01b03166001600160a01b0316639dc29fac336118376064611764605c600e8960ff168154811061174b5761174b613201565b6040516001600160e01b031960e085901b1681526001600160a01b0390921660048301526024820152604401602060405180830381600087803b15801561187d57600080fd5b505af1158015611891573d6000803e3d6000fd5b505050506040513d601f19601f820116820180604052508101906118b59190613326565b5060006118c233846123d5565b6001600b559392505050565b600a5460ff16156118f15760405162461bcd60e51b8152600401610a49906132ac565b6002600b5414156119145760405162461bcd60e51b8152600401610a49906132d6565b6002600b5560105462010000900460ff166119715760405162461bcd60e51b815260206004820152601760248201527f57686974656c697374206973206e6f74206163746976650000000000000000006044820152606401610a49565b600d8160ff168154811061198757611987613201565b90600052602060002001543410156119d35760405162461bcd60e51b815260206004820152600f60248201526e2737ba1032b737bab3b43a1021272160891b6044820152606401610a49565b60148160ff16815481106119e9576119e9613201565b90600052602060002090600491828204019190066008029054906101000a90046001600160401b03166001600160401b031660138260ff1681548110611a3157611a31613201565b906000526020600020015410611a895760405162461bcd60e51b815260206004820152601b60248201527f4c696d69746174696f6e20686173206265656e207265616368656400000000006044820152606401610a49565b604080513360601b6bffffffffffffffffffffffff19166020808301919091528251601481840301815260349092019092528051910120600090611acd9084610c5b565b90508015611ae557611adf33836123d5565b50611b1f565b60405162461bcd60e51b815260206004820152600f60248201526e139bdd081dda1a5d195b1a5cdd1959608a1b6044820152606401610a49565b336001600160a01b03166108fc600d8460ff1681548110611b4257611b42613201565b906000526020600020015434611b589190613343565b6040518115909202916000818181858888f19350505050158015611b80573d6000803e3d6000fd5b50506001600b555050565b600a546001600160a01b03610100909104163314611bbb5760405162461bcd60e51b8152600401610a4990613248565b6010805462ff00001916620100008315158102919091179182905560405160ff9190920416151581527f52cf77d97507bfe5c826e8a0dd53032bac06a11f9d0db13603d9887ed5cbf2179060200160405180910390a150565b600a546000906001600160a01b03610100909104163314611c475760405162461bcd60e51b8152600401610a4990613248565b81516113ba90600e906020850190612b1c565b600a546001600160a01b03610100909104163314611c8a5760405162461bcd60e51b8152600401610a4990613248565b8051610d7b90600f906020840190612b67565b6000611cab600a5460ff1690565b15611cc85760405162461bcd60e51b8152600401610a49906132ac565b6002600b541415611ceb5760405162461bcd60e51b8152600401610a49906132d6565b6002600b5560105462010000900460ff1615611d3f5760405162461bcd60e51b815260206004820152601360248201527257686974656c6973742069732061637469766560681b6044820152606401610a49565b60105460ff16611d915760405162461bcd60e51b815260206004820152601e60248201527f53616c657320696e20424e4220617265206e6f74207065726d697474656400006044820152606401610a49565b600d8260ff1681548110611da757611da7613201565b9060005260206000200154341015611df35760405162461bcd60e51b815260206004820152600f60248201526e2737ba1032b737bab3b43a1021272160891b6044820152606401610a49565b6000611dff33846123d5565b9050336001600160a01b03166108fc600d8560ff1681548110611e2457611e24613201565b906000526020600020015434611e3a9190613343565b6040518115909202916000818181858888f19350505050158015611e62573d6000803e3d6000fd5b506001600b5592915050565b60105460609060ff1615611e9a575060408051808201909152600381526221272160e91b602082015290565b601054610100900460ff1615611ec957506040805180820190915260048152634255524760e01b602082015290565b5060408051808201909152600381526221272160e91b602082015290565b600a546001600160a01b03610100909104163314611f175760405162461bcd60e51b8152600401610a4990613248565b6001600160a01b038116611f7c5760405162461bcd60e51b815260206004820152602660248201527f4f776e61626c653a206e6577206f776e657220697320746865207a65726f206160448201526564647265737360d01b6064820152608401610a49565b611f858161237b565b50565b60006001600160e01b031982166380ac58cd60e01b1480611fb957506001600160e01b03198216635b5e139f60e01b145b806108ff57506301ffc9a760e01b6001600160e01b03198316146108ff565b600081815260046020526040902080546001600160a01b0319166001600160a01b038416908117909155819061200d82610f8e565b6001600160a01b03167f8c5be1e5ebec7d5bd14f71427d1e84f3dd0314c0f7b2291e5b200ac8c7c3b92560405160405180910390a45050565b6000818152600260205260408120546001600160a01b03166120bf5760405162461bcd60e51b815260206004820152602c60248201527f4552433732313a206f70657261746f7220717565727920666f72206e6f6e657860448201526b34b9ba32b73a103a37b5b2b760a11b6064820152608401610a49565b60006120ca83610f8e565b9050806001600160a01b0316846001600160a01b031614806121055750836001600160a01b03166120fa846109d4565b6001600160a01b0316145b8061213557506001600160a01b0380821660009081526005602090815260408083209388168352929052205460ff165b949350505050565b826001600160a01b031661215082610f8e565b6001600160a01b0316146121b85760405162461bcd60e51b815260206004820152602960248201527f4552433732313a207472616e73666572206f6620746f6b656e2074686174206960448201526839903737ba1037bbb760b91b6064820152608401610a49565b6001600160a01b03821661221a5760405162461bcd60e51b8152602060048201526024808201527f4552433732313a207472616e7366657220746f20746865207a65726f206164646044820152637265737360e01b6064820152608401610a49565b61222583838361262c565b612230600082611fd8565b6001600160a01b0383166000908152600360205260408120805460019290612259908490613343565b90915550506001600160a01b038216600090815260036020526040812080546001929061228790849061335a565b909155505060008181526002602052604080822080546001600160a01b0319166001600160a01b0386811691821790925591518493918716917fddf252ad1be2c89b69c2b068fc378daa952ba7f163c4a11628f55a4df523b3ef91a4505050565b600a5460ff166123315760405162461bcd60e51b815260206004820152601460248201527314185d5cd8589b194e881b9bdd081c185d5cd95960621b6044820152606401610a49565b600a805460ff191690557f5db9ee0a495bf2e6ff9c91a7834c1ba4fdd244a5e8aa4e537bd38aeae4b073aa335b6040516001600160a01b03909116815260200160405180910390a1565b600a80546001600160a01b03838116610100818102610100600160a81b031985161790945560405193909204169182907f8be0079c531659141344cd1fd0a4f28419497f9722a3daafe3b4186f6b6457e090600090a35050565b6000806123e160085490565b90506123ed84826126e4565b6000818152600c60205260409020805460ff191660ff851690811790915560138054909190811061242057612420613201565b600091825260208220018054916124368361322d565b91905055508260ff1681856001600160a01b03167faabcc1eb354f11e651c87f835e7de6ac847d514718ed76fad480d55d2632992260405160405180910390a49392505050565b600a5460ff16156124a05760405162461bcd60e51b8152600401610a49906132ac565b600a805460ff191660011790557f62e78cea01bee320cd4e420270b5ea74000d11b0c9f74754ebdbfc544b05a25861235e3390565b6124e084848461213d565b6124ec848484846126fe565b6113f55760405162461bcd60e51b8152600401610a4990613372565b6060600f805461095190613175565b60608161253b5750506040805180820190915260018152600360fc1b602082015290565b8160005b8115612565578061254f8161322d565b915061255e9050600a836133da565b915061253f565b6000816001600160401b0381111561257f5761257f612d23565b6040519080825280601f01601f1916602001820160405280156125a9576020820181803683370190505b5090505b8415612135576125be600183613343565b91506125cb600a866133ee565b6125d690603061335a565b60f81b8183815181106125eb576125eb613201565b60200101906001600160f81b031916908160001a90535061260d600a866133da565b94506125ad565b60006111058284613402565b600061110582846133da565b6001600160a01b0383166126875761268281600880546000838152600960205260408120829055600182018355919091527ff3f7a9fe364faab93b216da50a3214154f22a0a2b415b23a84c8169e8b636ee30155565b6126aa565b816001600160a01b0316836001600160a01b0316146126aa576126aa838261280b565b6001600160a01b0382166126c157610b7f816128a8565b826001600160a01b0316826001600160a01b031614610b7f57610b7f8282612957565b610d7b82826040518060200160405280600081525061299b565b60006001600160a01b0384163b1561280057604051630a85bd0160e11b81526001600160a01b0385169063150b7a0290612742903390899088908890600401613421565b602060405180830381600087803b15801561275c57600080fd5b505af192505050801561278c575060408051601f3d908101601f191682019092526127899181019061345e565b60015b6127e6573d8080156127ba576040519150601f19603f3d011682016040523d82523d6000602084013e6127bf565b606091505b5080516127de5760405162461bcd60e51b8152600401610a4990613372565b805181602001fd5b6001600160e01b031916630a85bd0160e11b149050612135565b506001949350505050565b6000600161281884611005565b6128229190613343565b600083815260076020526040902054909150808214612875576001600160a01b03841660009081526006602090815260408083208584528252808320548484528184208190558352600790915290208190555b5060009182526007602090815260408084208490556001600160a01b039094168352600681528383209183525290812055565b6008546000906128ba90600190613343565b600083815260096020526040812054600880549394509092849081106128e2576128e2613201565b90600052602060002001549050806008838154811061290357612903613201565b600091825260208083209091019290925582815260099091526040808220849055858252812055600880548061293b5761293b61347b565b6001900381819060005260206000200160009055905550505050565b600061296283611005565b6001600160a01b039093166000908152600660209081526040808320868452825280832085905593825260079052919091209190915550565b6129a583836129ce565b6129b260008484846126fe565b610b7f5760405162461bcd60e51b8152600401610a4990613372565b6001600160a01b038216612a245760405162461bcd60e51b815260206004820181905260248201527f4552433732313a206d696e7420746f20746865207a65726f20616464726573736044820152606401610a49565b6000818152600260205260409020546001600160a01b031615612a895760405162461bcd60e51b815260206004820152601c60248201527f4552433732313a20746f6b656e20616c7265616479206d696e746564000000006044820152606401610a49565b612a956000838361262c565b6001600160a01b0382166000908152600360205260408120805460019290612abe90849061335a565b909155505060008181526002602052604080822080546001600160a01b0319166001600160a01b03861690811790915590518392907fddf252ad1be2c89b69c2b068fc378daa952ba7f163c4a11628f55a4df523b3ef908290a45050565b828054828255906000526020600020908101928215612b57579160200282015b82811115612b57578251825591602001919060010190612b3c565b50612b63929150612bda565b5090565b828054612b7390613175565b90600052602060002090601f016020900481019282612b955760008555612b57565b82601f10612bae57805160ff1916838001178555612b57565b82800160010185558215612b575791820182811115612b57578251825591602001919060010190612b3c565b5b80821115612b635760008155600101612bdb565b600060208284031215612c0157600080fd5b5035919050565b6001600160e01b031981168114611f8557600080fd5b600060208284031215612c3057600080fd5b813561110581612c08565b60005b83811015612c56578181015183820152602001612c3e565b838111156113f55750506000910152565b60008151808452612c7f816020860160208601612c3b565b601f01601f19169290920160200192915050565b6020815260006111056020830184612c67565b80356001600160a01b038116811461115e57600080fd5b60008060408385031215612cd057600080fd5b612cd983612ca6565b946020939093013593505050565b600080600060608486031215612cfc57600080fd5b612d0584612ca6565b9250612d1360208501612ca6565b9150604084013590509250925092565b634e487b7160e01b600052604160045260246000fd5b604051601f8201601f191681016001600160401b0381118282101715612d6157612d61612d23565b604052919050565b60006001600160401b03821115612d8257612d82612d23565b5060051b60200190565b600082601f830112612d9d57600080fd5b81356020612db2612dad83612d69565b612d39565b82815260059290921b84018101918181019086841115612dd157600080fd5b8286015b84811015612dec5780358352918301918301612dd5565b509695505050505050565b60008060408385031215612e0a57600080fd5b8235915060208301356001600160401b03811115612e2757600080fd5b612e3385828601612d8c565b9150509250929050565b8015158114611f8557600080fd5b600060208284031215612e5d57600080fd5b813561110581612e3d565b600060208284031215612e7a57600080fd5b61110582612ca6565b6020808252825182820181905260009190848201906040850190845b81811015612ebb57835183529284019291840191600101612e9f565b50909695505050505050565b803560ff8116811461115e57600080fd5b60008060408385031215612eeb57600080fd5b612ef483612ca6565b9150612f0260208401612ec7565b90509250929050565b60008060408385031215612f1e57600080fd5b612f2783612ca6565b91506020830135612f3781612e3d565b809150509250929050565b60006020808385031215612f5557600080fd5b82356001600160401b03811115612f6b57600080fd5b8301601f81018513612f7c57600080fd5b8035612f8a612dad82612d69565b81815260059190911b82018301908381019087831115612fa957600080fd5b928401925b82841015612fc757833582529284019290840190612fae565b979650505050505050565b60006001600160401b03831115612feb57612feb612d23565b612ffe601f8401601f1916602001612d39565b905082815283838301111561301257600080fd5b828260208301376000602084830101529392505050565b6000806000806080858703121561303f57600080fd5b61304885612ca6565b935061305660208601612ca6565b92506040850135915060608501356001600160401b0381111561307857600080fd5b8501601f8101871361308957600080fd5b61309887823560208401612fd2565b91505092959194509250565b6000602082840312156130b657600080fd5b61110582612ec7565b600080604083850312156130d257600080fd5b82356001600160401b038111156130e857600080fd5b6130f485828601612d8c565b925050612f0260208401612ec7565b60006020828403121561311557600080fd5b81356001600160401b0381111561312b57600080fd5b8201601f8101841361313c57600080fd5b61213584823560208401612fd2565b6000806040838503121561315e57600080fd5b61316783612ca6565b9150612f0260208401612ca6565b600181811c9082168061318957607f821691505b602082108114156131aa57634e487b7160e01b600052602260045260246000fd5b50919050565b60208082526031908201527f4552433732313a207472616e736665722063616c6c6572206973206e6f74206f6040820152701ddb995c881b9bdc88185c1c1c9bdd9959607a1b606082015260800190565b634e487b7160e01b600052603260045260246000fd5b634e487b7160e01b600052601160045260246000fd5b600060001982141561324157613241613217565b5060010190565b6020808252818101527f4f776e61626c653a2063616c6c6572206973206e6f7420746865206f776e6572604082015260600190565b6000835161328f818460208801612c3b565b8351908301906132a3818360208801612c3b565b01949350505050565b60208082526010908201526f14185d5cd8589b194e881c185d5cd95960821b604082015260600190565b6020808252601f908201527f5265656e7472616e637947756172643a207265656e7472616e742063616c6c00604082015260600190565b60006020828403121561331f57600080fd5b5051919050565b60006020828403121561333857600080fd5b815161110581612e3d565b60008282101561335557613355613217565b500390565b6000821982111561336d5761336d613217565b500190565b60208082526032908201527f4552433732313a207472616e7366657220746f206e6f6e20455243373231526560408201527131b2b4bb32b91034b6b83632b6b2b73a32b960711b606082015260800190565b634e487b7160e01b600052601260045260246000fd5b6000826133e9576133e96133c4565b500490565b6000826133fd576133fd6133c4565b500690565b600081600019048311821515161561341c5761341c613217565b500290565b6001600160a01b038581168252841660208201526040810183905260806060820181905260009061345490830184612c67565b9695505050505050565b60006020828403121561347057600080fd5b815161110581612c08565b634e487b7160e01b600052603160045260246000fdfea264697066735822122071cfacd15e03494a6c5c20e0057cfd7fa88fd78d7c781c272b80a433724f340964736f6c63430008090033687474703a2f2f6c6f63616c686f73743a383038302f6170692f6d6574616474612f",
  "linkReferences": {},
  "deployedLinkReferences": {}
}