{
  "_format": "hh-sol-artifact-1",
  "contractName": "Burger",
  "sourceName": "contracts/Burger.sol",
  "abi": [
    {
      "inputs": [],
      "stateMutability": "nonpayable",
      "type": "constructor"
    },
    {
      "anonymous": false,
      "inputs": [
        {
          "indexed": true,
          "internalType": "address",
          "name": "owner",
          "type": "address"
        },
        {
          "indexed": true,
          "internalType": "address",
          "name": "approved",
          "type": "address"
        },
        {
          "indexed": true,
          "internalType": "uint256",
          "name": "tokenId",
          "type": "uint256"
        }
      ],
      "name": "Approval",
      "type": "event"
    },
    {
      "anonymous": false,
      "inputs": [
        {
          "indexed": true,
          "internalType": "address",
          "name": "owner",
          "type": "address"
        },
        {
          "indexed": true,
          "internalType": "address",
          "name": "operator",
          "type": "address"
        },
        {
          "indexed": false,
          "internalType": "bool",
          "name": "approved",
          "type": "bool"
        }
      ],
      "name": "ApprovalForAll",
      "type": "event"
    },
    {
      "anonymous": false,
      "inputs": [
        {
          "indexed": true,
          "internalType": "address",
          "name": "_to",
          "type": "address"
        },
        {
          "indexed": false,
          "internalType": "string",
          "name": "tokenURI",
          "type": "string"
        },
        {
          "indexed": false,
          "internalType": "uint256",
          "name": "id",
          "type": "uint256"
        }
      ],
      "name": "NFTMintEvent",
      "type": "event"
    },
    {
      "anonymous": false,
      "inputs": [
        {
          "indexed": true,
          "internalType": "address",
          "name": "previousOwner",
          "type": "address"
        },
        {
          "indexed": true,
          "internalType": "address",
          "name": "newOwner",
          "type": "address"
        }
      ],
      "name": "OwnershipTransferred",
      "type": "event"
    },
    {
      "anonymous": false,
      "inputs": [
        {
          "indexed": false,
          "internalType": "address",
          "name": "account",
          "type": "address"
        }
      ],
      "name": "Paused",
      "type": "event"
    },
    {
      "anonymous": false,
      "inputs": [
        {
          "indexed": true,
          "internalType": "address",
          "name": "from",
          "type": "address"
        },
        {
          "indexed": true,
          "internalType": "address",
          "name": "to",
          "type": "address"
        },
        {
          "indexed": true,
          "internalType": "uint256",
          "name": "tokenId",
          "type": "uint256"
        }
      ],
      "name": "Transfer",
      "type": "event"
    },
    {
      "anonymous": false,
      "inputs": [
        {
          "indexed": false,
          "internalType": "address",
          "name": "account",
          "type": "address"
        }
      ],
      "name": "Unpaused",
      "type": "event"
    },
    {
      "inputs": [
        {
          "internalType": "address",
          "name": "to",
          "type": "address"
        },
        {
          "internalType": "uint256",
          "name": "tokenId",
          "type": "uint256"
        }
      ],
      "name": "approve",
      "outputs": [],
      "stateMutability": "nonpayable",
      "type": "function"
    },
    {
      "inputs": [
        {
          "internalType": "address",
          "name": "owner",
          "type": "address"
        }
      ],
      "name": "balanceOf",
      "outputs": [
        {
          "internalType": "uint256",
          "name": "",
          "type": "uint256"
        }
      ],
      "stateMutability": "view",
      "type": "function"
    },
    {
      "inputs": [
        {
          "internalType": "uint256",
          "name": "newPrice",
          "type": "uint256"
        }
      ],
      "name": "changePrice",
      "outputs": [],
      "stateMutability": "nonpayable",
      "type": "function"
    },
    {
      "inputs": [
        {
          "internalType": "bytes32",
          "name": "newRoot",
          "type": "bytes32"
        }
      ],
      "name": "changeRoot",
      "outputs": [],
      "stateMutability": "nonpayable",
      "type": "function"
    },
    {
      "inputs": [
        {
          "internalType": "uint256",
          "name": "newPrice",
          "type": "uint256"
        }
      ],
      "name": "changeWhitelistPrice",
      "outputs": [],
      "stateMutability": "nonpayable",
      "type": "function"
    },
    {
      "inputs": [
        {
          "internalType": "bool",
          "name": "newState",
          "type": "bool"
        }
      ],
      "name": "changeWhitelistState",
      "outputs": [],
      "stateMutability": "nonpayable",
      "type": "function"
    },
    {
      "inputs": [
        {
          "internalType": "uint256",
          "name": "tokenId",
          "type": "uint256"
        }
      ],
      "name": "getApproved",
      "outputs": [
        {
          "internalType": "address",
          "name": "",
          "type": "address"
        }
      ],
      "stateMutability": "view",
      "type": "function"
    },
    {
      "inputs": [],
      "name": "getPrice",
      "outputs": [
        {
          "internalType": "uint256",
          "name": "actualPrice",
          "type": "uint256"
        }
      ],
      "stateMutability": "view",
      "type": "function"
    },
    {
      "inputs": [],
      "name": "getVerfiedAddress",
      "outputs": [
        {
          "internalType": "address",
          "name": "",
          "type": "address"
        }
      ],
      "stateMutability": "view",
      "type": "function"
    },
    {
      "inputs": [
        {
          "internalType": "address",
          "name": "owner",
          "type": "address"
        },
        {
          "internalType": "address",
          "name": "operator",
          "type": "address"
        }
      ],
      "name": "isApprovedForAll",
      "outputs": [
        {
          "internalType": "bool",
          "name": "",
          "type": "bool"
        }
      ],
      "stateMutability": "view",
      "type": "function"
    },
    {
      "inputs": [
        {
          "internalType": "address",
          "name": "_to",
          "type": "address"
        },
        {
          "internalType": "string",
          "name": "tokenUri",
          "type": "string"
        },
        {
          "internalType": "bytes32",
          "name": "tokenUriHash",
          "type": "bytes32"
        },
        {
          "internalType": "bytes",
          "name": "signature",
          "type": "bytes"
        }
      ],
      "name": "mint",
      "outputs": [
        {
          "internalType": "uint256",
          "name": "",
          "type": "uint256"
        }
      ],
      "stateMutability": "payable",
      "type": "function"
    },
    {
      "inputs": [
        {
          "internalType": "address",
          "name": "_to",
          "type": "address"
        },
        {
          "internalType": "string",
          "name": "tokenUri",
          "type": "string"
        },
        {
          "internalType": "bytes32",
          "name": "tokenUriHash",
          "type": "bytes32"
        },
        {
          "internalType": "bytes",
          "name": "signature",
          "type": "bytes"
        },
        {
          "internalType": "bytes32",
          "name": "leaf",
          "type": "bytes32"
        },
        {
          "internalType": "bytes32[]",
          "name": "proof",
          "type": "bytes32[]"
        }
      ],
      "name": "mintWhitelist",
      "outputs": [
        {
          "internalType": "uint256",
          "name": "",
          "type": "uint256"
        }
      ],
      "stateMutability": "payable",
      "type": "function"
    },
    {
      "inputs": [],
      "name": "name",
      "outputs": [
        {
          "internalType": "string",
          "name": "",
          "type": "string"
        }
      ],
      "stateMutability": "view",
      "type": "function"
    },
    {
      "inputs": [],
      "name": "owner",
      "outputs": [
        {
          "internalType": "address",
          "name": "",
          "type": "address"
        }
      ],
      "stateMutability": "view",
      "type": "function"
    },
    {
      "inputs": [
        {
          "internalType": "uint256",
          "name": "tokenId",
          "type": "uint256"
        }
      ],
      "name": "ownerOf",
      "outputs": [
        {
          "internalType": "address",
          "name": "",
          "type": "address"
        }
      ],
      "stateMutability": "view",
      "type": "function"
    },
    {
      "inputs": [],
      "name": "pause",
      "outputs": [
        {
          "internalType": "bool",
          "name": "",
          "type": "bool"
        }
      ],
      "stateMutability": "nonpayable",
      "type": "function"
    },
    {
      "inputs": [],
      "name": "paused",
      "outputs": [
        {
          "internalType": "bool",
          "name": "",
          "type": "bool"
        }
      ],
      "stateMutability": "view",
      "type": "function"
    },
    {
      "inputs": [],
      "name": "renounceOwnership",
      "outputs": [],
      "stateMutability": "nonpayable",
      "type": "function"
    },
    {
      "inputs": [
        {
          "internalType": "address",
          "name": "from",
          "type": "address"
        },
        {
          "internalType": "address",
          "name": "to",
          "type": "address"
        },
        {
          "internalType": "uint256",
          "name": "tokenId",
          "type": "uint256"
        }
      ],
      "name": "safeTransferFrom",
      "outputs": [],
      "stateMutability": "nonpayable",
      "type": "function"
    },
    {
      "inputs": [
        {
          "internalType": "address",
          "name": "from",
          "type": "address"
        },
        {
          "internalType": "address",
          "name": "to",
          "type": "address"
        },
        {
          "internalType": "uint256",
          "name": "tokenId",
          "type": "uint256"
        },
        {
          "internalType": "bytes",
          "name": "_data",
          "type": "bytes"
        }
      ],
      "name": "safeTransferFrom",
      "outputs": [],
      "stateMutability": "nonpayable",
      "type": "function"
    },
    {
      "inputs": [
        {
          "internalType": "address",
          "name": "operator",
          "type": "address"
        },
        {
          "internalType": "bool",
          "name": "approved",
          "type": "bool"
        }
      ],
      "name": "setApprovalForAll",
      "outputs": [],
      "stateMutability": "nonpayable",
      "type": "function"
    },
    {
      "inputs": [
        {
          "internalType": "address",
          "name": "_verifiedAddress",
          "type": "address"
        }
      ],
      "name": "setVerifiedAddress",
      "outputs": [],
      "stateMutability": "nonpayable",
      "type": "function"
    },
    {
      "inputs": [
        {
          "internalType": "bytes4",
          "name": "interfaceId",
          "type": "bytes4"
        }
      ],
      "name": "supportsInterface",
      "outputs": [
        {
          "internalType": "bool",
          "name": "",
          "type": "bool"
        }
      ],
      "stateMutability": "view",
      "type": "function"
    },
    {
      "inputs": [],
      "name": "symbol",
      "outputs": [
        {
          "internalType": "string",
          "name": "",
          "type": "string"
        }
      ],
      "stateMutability": "view",
      "type": "function"
    },
    {
      "inputs": [
        {
          "internalType": "uint256",
          "name": "index",
          "type": "uint256"
        }
      ],
      "name": "tokenByIndex",
      "outputs": [
        {
          "internalType": "uint256",
          "name": "",
          "type": "uint256"
        }
      ],
      "stateMutability": "view",
      "type": "function"
    },
    {
      "inputs": [
        {
          "internalType": "address",
          "name": "owner",
          "type": "address"
        },
        {
          "internalType": "uint256",
          "name": "index",
          "type": "uint256"
        }
      ],
      "name": "tokenOfOwnerByIndex",
      "outputs": [
        {
          "internalType": "uint256",
          "name": "",
          "type": "uint256"
        }
      ],
      "stateMutability": "view",
      "type": "function"
    },
    {
      "inputs": [
        {
          "internalType": "uint256",
          "name": "tokenId",
          "type": "uint256"
        }
      ],
      "name": "tokenURI",
      "outputs": [
        {
          "internalType": "string",
          "name": "",
          "type": "string"
        }
      ],
      "stateMutability": "view",
      "type": "function"
    },
    {
      "inputs": [],
      "name": "totalSupply",
      "outputs": [
        {
          "internalType": "uint256",
          "name": "",
          "type": "uint256"
        }
      ],
      "stateMutability": "view",
      "type": "function"
    },
    {
      "inputs": [
        {
          "internalType": "address",
          "name": "from",
          "type": "address"
        },
        {
          "internalType": "address",
          "name": "to",
          "type": "address"
        },
        {
          "internalType": "uint256",
          "name": "tokenId",
          "type": "uint256"
        }
      ],
      "name": "transferFrom",
      "outputs": [],
      "stateMutability": "nonpayable",
      "type": "function"
    },
    {
      "inputs": [
        {
          "internalType": "address",
          "name": "newOwner",
          "type": "address"
        }
      ],
      "name": "transferOwnership",
      "outputs": [],
      "stateMutability": "nonpayable",
      "type": "function"
    },
    {
      "inputs": [],
      "name": "unpause",
      "outputs": [
        {
          "internalType": "bool",
          "name": "",
          "type": "bool"
        }
      ],
      "stateMutability": "nonpayable",
      "type": "function"
    },
    {
      "inputs": [
        {
          "internalType": "bytes32",
          "name": "leaf",
          "type": "bytes32"
        },
        {
          "internalType": "bytes32[]",
          "name": "proof",
          "type": "bytes32[]"
        }
      ],
      "name": "verifyWhitelist",
      "outputs": [
        {
          "internalType": "bool",
          "name": "",
          "type": "bool"
        }
      ],
      "stateMutability": "view",
      "type": "function"
    },
    {
      "inputs": [],
      "name": "whitelistActive",
      "outputs": [
        {
          "internalType": "bool",
          "name": "",
          "type": "bool"
        }
      ],
      "stateMutability": "view",
      "type": "function"
    }
  ],
  "bytecode": "0x608060405264e8d4a51000600c5564174876e800600d5573c09eac15f9ba6462e8e4612af7c431e1cfe08b87600f60006101000a81548173ffffffffffffffffffffffffffffffffffffffff021916908373ffffffffffffffffffffffffffffffffffffffff1602179055506001600f60146101000a81548160ff0219169083151502179055507f786cc6a5c4201b7672450409f6a717d0e33e88369e82ed52b453ec0cfcc4b23d60001b601055348015620000ba57600080fd5b506040518060400160405280600681526020017f42757267657200000000000000000000000000000000000000000000000000008152506040518060400160405280600681526020017f425552474552000000000000000000000000000000000000000000000000000081525081600090805190602001906200013f9291906200026a565b508060019080519060200190620001589291906200026a565b5050506200017b6200016f6200019c60201b60201c565b620001a460201b60201c565b6000600b60146101000a81548160ff0219169083151502179055506200037f565b600033905090565b6000600b60009054906101000a900473ffffffffffffffffffffffffffffffffffffffff16905081600b60006101000a81548173ffffffffffffffffffffffffffffffffffffffff021916908373ffffffffffffffffffffffffffffffffffffffff1602179055508173ffffffffffffffffffffffffffffffffffffffff168173ffffffffffffffffffffffffffffffffffffffff167f8be0079c531659141344cd1fd0a4f28419497f9722a3daafe3b4186f6b6457e060405160405180910390a35050565b82805462000278906200031a565b90600052602060002090601f0160209004810192826200029c5760008555620002e8565b82601f10620002b757805160ff1916838001178555620002e8565b82800160010185558215620002e8579182015b82811115620002e7578251825591602001919060010190620002ca565b5b509050620002f79190620002fb565b5090565b5b8082111562000316576000816000905550600101620002fc565b5090565b600060028204905060018216806200033357607f821691505b602082108114156200034a576200034962000350565b5b50919050565b7f4e487b7100000000000000000000000000000000000000000000000000000000600052602260045260246000fd5b61536c806200038f6000396000f3fe6080604052600436106101ee5760003560e01c80636352211e1161010d578063a22cb465116100a0578063d8021fe41161006f578063d8021fe414610711578063d9583b9f14610741578063e985e9c51461076a578063f2fde38b146107a7578063f693ffaf146107d0576101ee565b8063a22cb46514610659578063a2b40d1914610682578063b88d4fde146106ab578063c87b56dd146106d4576101ee565b80638da5cb5b116100dc5780638da5cb5b146105af57806391b7d164146105da57806395d89b411461060357806398d5fdca1461062e576101ee565b80636352211e146104f357806370a0823114610530578063715018a61461056d5780638456cb5914610584576101ee565b8063329ea90d1161018557806342842e0e1161015457806342842e0e146104395780634f66cbcd146104625780634f6ccce71461048b5780635c975abb146104c8576101ee565b8063329ea90d1461037d5780633d59cd60146103ba5780633e4356d7146103e35780633f4ba83a1461040e576101ee565b8063095ea7b3116101c1578063095ea7b3146102c357806318160ddd146102ec57806323b872dd146103175780632f745c5914610340576101ee565b806301ffc9a7146101f357806302ce58131461023057806306fdde031461025b578063081812fc14610286575b600080fd5b3480156101ff57600080fd5b5061021a60048036038101906102159190613bcd565b610800565b6040516102279190614241565b60405180910390f35b34801561023c57600080fd5b50610245610812565b6040516102529190614241565b60405180910390f35b34801561026757600080fd5b50610270610825565b60405161027d91906142a1565b60405180910390f35b34801561029257600080fd5b506102ad60048036038101906102a89190613c1f565b6108b7565b6040516102ba91906141da565b60405180910390f35b3480156102cf57600080fd5b506102ea60048036038101906102e59190613aeb565b61093c565b005b3480156102f857600080fd5b50610301610a54565b60405161030e91906146d3565b60405180910390f35b34801561032357600080fd5b5061033e60048036038101906103399190613881565b610a61565b005b34801561034c57600080fd5b5061036760048036038101906103629190613aeb565b610ac1565b60405161037491906146d3565b60405180910390f35b34801561038957600080fd5b506103a4600480360381019061039f9190613b79565b610b66565b6040516103b19190614241565b60405180910390f35b3480156103c657600080fd5b506103e160048036038101906103dc9190613b50565b610c44565b005b3480156103ef57600080fd5b506103f8610cca565b60405161040591906141da565b60405180910390f35b34801561041a57600080fd5b50610423610cf4565b6040516104309190614241565b60405180910390f35b34801561044557600080fd5b50610460600480360381019061045b9190613881565b610d81565b005b34801561046e57600080fd5b506104896004803603810190610484919061381c565b610da1565b005b34801561049757600080fd5b506104b260048036038101906104ad9190613c1f565b610e61565b6040516104bf91906146d3565b60405180910390f35b3480156104d457600080fd5b506104dd610ef8565b6040516104ea9190614241565b60405180910390f35b3480156104ff57600080fd5b5061051a60048036038101906105159190613c1f565b610f0f565b60405161052791906141da565b60405180910390f35b34801561053c57600080fd5b506105576004803603810190610552919061381c565b610fc1565b60405161056491906146d3565b60405180910390f35b34801561057957600080fd5b50610582611079565b005b34801561059057600080fd5b50610599611101565b6040516105a69190614241565b60405180910390f35b3480156105bb57600080fd5b506105c461118e565b6040516105d191906141da565b60405180910390f35b3480156105e657600080fd5b5061060160048036038101906105fc9190613c1f565b6111b8565b005b34801561060f57600080fd5b5061061861123e565b60405161062591906142a1565b60405180910390f35b34801561063a57600080fd5b506106436112d0565b60405161065091906146d3565b60405180910390f35b34801561066557600080fd5b50610680600480360381019061067b919061394b565b6112fa565b005b34801561068e57600080fd5b506106a960048036038101906106a49190613c1f565b61147b565b005b3480156106b757600080fd5b506106d260048036038101906106cd91906138d0565b611501565b005b3480156106e057600080fd5b506106fb60048036038101906106f69190613c1f565b611563565b60405161070891906142a1565b60405180910390f35b61072b60048036038101906107269190613a1a565b611575565b60405161073891906146d3565b60405180910390f35b34801561074d57600080fd5b5061076860048036038101906107639190613b27565b61167e565b005b34801561077657600080fd5b50610791600480360381019061078c9190613845565b611717565b60405161079e9190614241565b60405180910390f35b3480156107b357600080fd5b506107ce60048036038101906107c9919061381c565b6117ab565b005b6107ea60048036038101906107e59190613987565b6118a3565b6040516107f791906146d3565b60405180910390f35b600061080b82611956565b9050919050565b600f60149054906101000a900460ff1681565b6060600080546108349061496c565b80601f01602080910402602001604051908101604052809291908181526020018280546108609061496c565b80156108ad5780601f10610882576101008083540402835291602001916108ad565b820191906000526020600020905b81548152906001019060200180831161089057829003601f168201915b5050505050905090565b60006108c2826119d0565b610901576040517f08c379a00000000000000000000000000000000000000000000000000000000081526004016108f8906145b3565b60405180910390fd5b6004600083815260200190815260200160002060009054906101000a900473ffffffffffffffffffffffffffffffffffffffff169050919050565b600061094782610f0f565b90508073ffffffffffffffffffffffffffffffffffffffff168373ffffffffffffffffffffffffffffffffffffffff1614156109b8576040517f08c379a00000000000000000000000000000000000000000000000000000000081526004016109af90614633565b60405180910390fd5b8073ffffffffffffffffffffffffffffffffffffffff166109d7611a3c565b73ffffffffffffffffffffffffffffffffffffffff161480610a065750610a0581610a00611a3c565b611717565b5b610a45576040517f08c379a0000000000000000000000000000000000000000000000000000000008152600401610a3c906144b3565b60405180910390fd5b610a4f8383611a44565b505050565b6000600980549050905090565b610a72610a6c611a3c565b82611afd565b610ab1576040517f08c379a0000000000000000000000000000000000000000000000000000000008152600401610aa890614653565b60405180910390fd5b610abc838383611bdb565b505050565b6000610acc83610fc1565b8210610b0d576040517f08c379a0000000000000000000000000000000000000000000000000000000008152600401610b0490614373565b60405180910390fd5b600760008473ffffffffffffffffffffffffffffffffffffffff1673ffffffffffffffffffffffffffffffffffffffff168152602001908152602001600020600083815260200190815260200160002054905092915050565b60008083905060005b8351811015610c35576000848281518110610bb3577f4e487b7100000000000000000000000000000000000000000000000000000000600052603260045260246000fd5b6020026020010151905080831015610bf5578281604051602001610bd892919061418a565b604051602081830303815290604052805190602001209250610c21565b8083604051602001610c0892919061418a565b6040516020818303038152906040528051906020012092505b508080610c2d906149cf565b915050610b6f565b50601054811491505092915050565b610c4c611a3c565b73ffffffffffffffffffffffffffffffffffffffff16610c6a61118e565b73ffffffffffffffffffffffffffffffffffffffff1614610cc0576040517f08c379a0000000000000000000000000000000000000000000000000000000008152600401610cb7906145d3565b60405180910390fd5b8060108190555050565b6000600f60009054906101000a900473ffffffffffffffffffffffffffffffffffffffff16905090565b6000610cfe611a3c565b73ffffffffffffffffffffffffffffffffffffffff16610d1c61118e565b73ffffffffffffffffffffffffffffffffffffffff1614610d72576040517f08c379a0000000000000000000000000000000000000000000000000000000008152600401610d69906145d3565b60405180910390fd5b610d7a611e37565b6001905090565b610d9c83838360405180602001604052806000815250611501565b505050565b610da9611a3c565b73ffffffffffffffffffffffffffffffffffffffff16610dc761118e565b73ffffffffffffffffffffffffffffffffffffffff1614610e1d576040517f08c379a0000000000000000000000000000000000000000000000000000000008152600401610e14906145d3565b60405180910390fd5b80600f60006101000a81548173ffffffffffffffffffffffffffffffffffffffff021916908373ffffffffffffffffffffffffffffffffffffffff16021790555050565b6000610e6b610a54565b8210610eac576040517f08c379a0000000000000000000000000000000000000000000000000000000008152600401610ea390614673565b60405180910390fd5b60098281548110610ee6577f4e487b7100000000000000000000000000000000000000000000000000000000600052603260045260246000fd5b90600052602060002001549050919050565b6000600b60149054906101000a900460ff16905090565b6000806002600084815260200190815260200160002060009054906101000a900473ffffffffffffffffffffffffffffffffffffffff169050600073ffffffffffffffffffffffffffffffffffffffff168173ffffffffffffffffffffffffffffffffffffffff161415610fb8576040517f08c379a0000000000000000000000000000000000000000000000000000000008152600401610faf90614513565b60405180910390fd5b80915050919050565b60008073ffffffffffffffffffffffffffffffffffffffff168273ffffffffffffffffffffffffffffffffffffffff161415611032576040517f08c379a0000000000000000000000000000000000000000000000000000000008152600401611029906144f3565b60405180910390fd5b600360008373ffffffffffffffffffffffffffffffffffffffff1673ffffffffffffffffffffffffffffffffffffffff168152602001908152602001600020549050919050565b611081611a3c565b73ffffffffffffffffffffffffffffffffffffffff1661109f61118e565b73ffffffffffffffffffffffffffffffffffffffff16146110f5576040517f08c379a00000000000000000000000000000000000000000000000000000000081526004016110ec906145d3565b60405180910390fd5b6110ff6000611ed9565b565b600061110b611a3c565b73ffffffffffffffffffffffffffffffffffffffff1661112961118e565b73ffffffffffffffffffffffffffffffffffffffff161461117f576040517f08c379a0000000000000000000000000000000000000000000000000000000008152600401611176906145d3565b60405180910390fd5b611187611f9f565b6001905090565b6000600b60009054906101000a900473ffffffffffffffffffffffffffffffffffffffff16905090565b6111c0611a3c565b73ffffffffffffffffffffffffffffffffffffffff166111de61118e565b73ffffffffffffffffffffffffffffffffffffffff1614611234576040517f08c379a000000000000000000000000000000000000000000000000000000000815260040161122b906145d3565b60405180910390fd5b80600d8190555050565b60606001805461124d9061496c565b80601f01602080910402602001604051908101604052809291908181526020018280546112799061496c565b80156112c65780601f1061129b576101008083540402835291602001916112c6565b820191906000526020600020905b8154815290600101906020018083116112a957829003601f168201915b5050505050905090565b6000600f60149054906101000a900460ff16156112f157600d5490506112f7565b600c5490505b90565b611302611a3c565b73ffffffffffffffffffffffffffffffffffffffff168273ffffffffffffffffffffffffffffffffffffffff161415611370576040517f08c379a000000000000000000000000000000000000000000000000000000000815260040161136790614413565b60405180910390fd5b806005600061137d611a3c565b73ffffffffffffffffffffffffffffffffffffffff1673ffffffffffffffffffffffffffffffffffffffff16815260200190815260200160002060008473ffffffffffffffffffffffffffffffffffffffff1673ffffffffffffffffffffffffffffffffffffffff16815260200190815260200160002060006101000a81548160ff0219169083151502179055508173ffffffffffffffffffffffffffffffffffffffff1661142a611a3c565b73ffffffffffffffffffffffffffffffffffffffff167f17307eab39ab6107e8899845ad3d59bd9653f200f220920489ca2b5937696c318360405161146f9190614241565b60405180910390a35050565b611483611a3c565b73ffffffffffffffffffffffffffffffffffffffff166114a161118e565b73ffffffffffffffffffffffffffffffffffffffff16146114f7576040517f08c379a00000000000000000000000000000000000000000000000000000000081526004016114ee906145d3565b60405180910390fd5b80600c8190555050565b61151261150c611a3c565b83611afd565b611551576040517f08c379a000000000000000000000000000000000000000000000000000000000815260040161154890614653565b60405180910390fd5b61155d84848484612042565b50505050565b606061156e8261209e565b9050919050565b6000848461158382826121f0565b6115c2576040517f08c379a00000000000000000000000000000000000000000000000000000000081526004016115b9906146b3565b60405180910390fd5b600f60149054906101000a900460ff16611611576040517f08c379a000000000000000000000000000000000000000000000000000000000815260040161160890614333565b60405180910390fd5b600061161d8686610b66565b905080156116375761162f8a8a61225d565b935050611672565b6040517f08c379a0000000000000000000000000000000000000000000000000000000008152600401611669906144d3565b60405180910390fd5b50509695505050505050565b611686611a3c565b73ffffffffffffffffffffffffffffffffffffffff166116a461118e565b73ffffffffffffffffffffffffffffffffffffffff16146116fa576040517f08c379a00000000000000000000000000000000000000000000000000000000081526004016116f1906145d3565b60405180910390fd5b80600f60146101000a81548160ff02191690831515021790555050565b6000600560008473ffffffffffffffffffffffffffffffffffffffff1673ffffffffffffffffffffffffffffffffffffffff16815260200190815260200160002060008373ffffffffffffffffffffffffffffffffffffffff1673ffffffffffffffffffffffffffffffffffffffff16815260200190815260200160002060009054906101000a900460ff16905092915050565b6117b3611a3c565b73ffffffffffffffffffffffffffffffffffffffff166117d161118e565b73ffffffffffffffffffffffffffffffffffffffff1614611827576040517f08c379a000000000000000000000000000000000000000000000000000000000815260040161181e906145d3565b60405180910390fd5b600073ffffffffffffffffffffffffffffffffffffffff168173ffffffffffffffffffffffffffffffffffffffff161415611897576040517f08c379a000000000000000000000000000000000000000000000000000000000815260040161188e906143b3565b60405180910390fd5b6118a081611ed9565b50565b600082826118b182826121f0565b6118f0576040517f08c379a00000000000000000000000000000000000000000000000000000000081526004016118e7906146b3565b60405180910390fd5b600f60149054906101000a900460ff1615611940576040517f08c379a000000000000000000000000000000000000000000000000000000000815260040161193790614333565b60405180910390fd5b61194a878761225d565b92505050949350505050565b60007f780e9d63000000000000000000000000000000000000000000000000000000007bffffffffffffffffffffffffffffffffffffffffffffffffffffffff1916827bffffffffffffffffffffffffffffffffffffffffffffffffffffffff191614806119c957506119c8826123d7565b5b9050919050565b60008073ffffffffffffffffffffffffffffffffffffffff166002600084815260200190815260200160002060009054906101000a900473ffffffffffffffffffffffffffffffffffffffff1673ffffffffffffffffffffffffffffffffffffffff1614159050919050565b600033905090565b816004600083815260200190815260200160002060006101000a81548173ffffffffffffffffffffffffffffffffffffffff021916908373ffffffffffffffffffffffffffffffffffffffff160217905550808273ffffffffffffffffffffffffffffffffffffffff16611ab783610f0f565b73ffffffffffffffffffffffffffffffffffffffff167f8c5be1e5ebec7d5bd14f71427d1e84f3dd0314c0f7b2291e5b200ac8c7c3b92560405160405180910390a45050565b6000611b08826119d0565b611b47576040517f08c379a0000000000000000000000000000000000000000000000000000000008152600401611b3e90614453565b60405180910390fd5b6000611b5283610f0f565b90508073ffffffffffffffffffffffffffffffffffffffff168473ffffffffffffffffffffffffffffffffffffffff161480611bc157508373ffffffffffffffffffffffffffffffffffffffff16611ba9846108b7565b73ffffffffffffffffffffffffffffffffffffffff16145b80611bd25750611bd18185611717565b5b91505092915050565b8273ffffffffffffffffffffffffffffffffffffffff16611bfb82610f0f565b73ffffffffffffffffffffffffffffffffffffffff1614611c51576040517f08c379a0000000000000000000000000000000000000000000000000000000008152600401611c48906145f3565b60405180910390fd5b600073ffffffffffffffffffffffffffffffffffffffff168273ffffffffffffffffffffffffffffffffffffffff161415611cc1576040517f08c379a0000000000000000000000000000000000000000000000000000000008152600401611cb8906143f3565b60405180910390fd5b611ccc8383836124b9565b611cd7600082611a44565b6001600360008573ffffffffffffffffffffffffffffffffffffffff1673ffffffffffffffffffffffffffffffffffffffff1681526020019081526020016000206000828254611d27919061486b565b925050819055506001600360008473ffffffffffffffffffffffffffffffffffffffff1673ffffffffffffffffffffffffffffffffffffffff1681526020019081526020016000206000828254611d7e91906147e4565b92505081905550816002600083815260200190815260200160002060006101000a81548173ffffffffffffffffffffffffffffffffffffffff021916908373ffffffffffffffffffffffffffffffffffffffff160217905550808273ffffffffffffffffffffffffffffffffffffffff168473ffffffffffffffffffffffffffffffffffffffff167fddf252ad1be2c89b69c2b068fc378daa952ba7f163c4a11628f55a4df523b3ef60405160405180910390a4505050565b611e3f610ef8565b611e7e576040517f08c379a0000000000000000000000000000000000000000000000000000000008152600401611e7590614313565b60405180910390fd5b6000600b60146101000a81548160ff0219169083151502179055507f5db9ee0a495bf2e6ff9c91a7834c1ba4fdd244a5e8aa4e537bd38aeae4b073aa611ec2611a3c565b604051611ecf91906141da565b60405180910390a1565b6000600b60009054906101000a900473ffffffffffffffffffffffffffffffffffffffff16905081600b60006101000a81548173ffffffffffffffffffffffffffffffffffffffff021916908373ffffffffffffffffffffffffffffffffffffffff1602179055508173ffffffffffffffffffffffffffffffffffffffff168173ffffffffffffffffffffffffffffffffffffffff167f8be0079c531659141344cd1fd0a4f28419497f9722a3daafe3b4186f6b6457e060405160405180910390a35050565b611fa7610ef8565b15611fe7576040517f08c379a0000000000000000000000000000000000000000000000000000000008152600401611fde90614493565b60405180910390fd5b6001600b60146101000a81548160ff0219169083151502179055507f62e78cea01bee320cd4e420270b5ea74000d11b0c9f74754ebdbfc544b05a25861202b611a3c565b60405161203891906141da565b60405180910390a1565b61204d848484611bdb565b612059848484846124c9565b612098576040517f08c379a000000000000000000000000000000000000000000000000000000000815260040161208f90614393565b60405180910390fd5b50505050565b60606120a9826119d0565b6120e8576040517f08c379a00000000000000000000000000000000000000000000000000000000081526004016120df90614593565b60405180910390fd5b60006006600084815260200190815260200160002080546121089061496c565b80601f01602080910402602001604051908101604052809291908181526020018280546121349061496c565b80156121815780601f1061215657610100808354040283529160200191612181565b820191906000526020600020905b81548152906001019060200180831161216457829003601f168201915b505050505090506000612192612660565b90506000815114156121a85781925050506121eb565b6000825111156121dd5780826040516020016121c59291906141b6565b604051602081830303815290604052925050506121eb565b6121e684612677565b925050505b919050565b6000600f60009054906101000a900473ffffffffffffffffffffffffffffffffffffffff1673ffffffffffffffffffffffffffffffffffffffff1661223e838561271e90919063ffffffff16565b73ffffffffffffffffffffffffffffffffffffffff1614905092915050565b6000806122686112d0565b9050612272610ef8565b156122b2576040517f08c379a00000000000000000000000000000000000000000000000000000000081526004016122a990614473565b60405180910390fd5b803410156122f5576040517f08c379a00000000000000000000000000000000000000000000000000000000081526004016122ec90614693565b60405180910390fd5b6122ff600e612745565b600061230b600e61275b565b90506123178582612769565b6123218185612937565b3373ffffffffffffffffffffffffffffffffffffffff167f381522718816817f694da06ead37444f6a1ad8252bd7d029101cafc183a65ff685836040516123699291906142c3565b60405180910390a2813411156123cc573373ffffffffffffffffffffffffffffffffffffffff166108fc833461239f919061486b565b9081150290604051600060405180830381858888f193505050501580156123ca573d6000803e3d6000fd5b505b809250505092915050565b60007f80ac58cd000000000000000000000000000000000000000000000000000000007bffffffffffffffffffffffffffffffffffffffffffffffffffffffff1916827bffffffffffffffffffffffffffffffffffffffffffffffffffffffff191614806124a257507f5b5e139f000000000000000000000000000000000000000000000000000000007bffffffffffffffffffffffffffffffffffffffffffffffffffffffff1916827bffffffffffffffffffffffffffffffffffffffffffffffffffffffff1916145b806124b257506124b1826129ab565b5b9050919050565b6124c4838383612a15565b505050565b60006124ea8473ffffffffffffffffffffffffffffffffffffffff16612b29565b15612653578373ffffffffffffffffffffffffffffffffffffffff1663150b7a02612513611a3c565b8786866040518563ffffffff1660e01b815260040161253594939291906141f5565b602060405180830381600087803b15801561254f57600080fd5b505af192505050801561258057506040513d601f19601f8201168201806040525081019061257d9190613bf6565b60015b612603573d80600081146125b0576040519150601f19603f3d011682016040523d82523d6000602084013e6125b5565b606091505b506000815114156125fb576040517f08c379a00000000000000000000000000000000000000000000000000000000081526004016125f290614393565b60405180910390fd5b805181602001fd5b63150b7a0260e01b7bffffffffffffffffffffffffffffffffffffffffffffffffffffffff1916817bffffffffffffffffffffffffffffffffffffffffffffffffffffffff191614915050612658565b600190505b949350505050565b606060405180602001604052806000815250905090565b6060612682826119d0565b6126c1576040517f08c379a00000000000000000000000000000000000000000000000000000000081526004016126b890614613565b60405180910390fd5b60006126cb612660565b905060008151116126eb5760405180602001604052806000815250612716565b806126f584612b3c565b6040516020016127069291906141b6565b6040516020818303038152906040525b915050919050565b600080600061272d8585612ce9565b9150915061273a81612d6c565b819250505092915050565b6001816000016000828254019250508190555050565b600081600001549050919050565b600073ffffffffffffffffffffffffffffffffffffffff168273ffffffffffffffffffffffffffffffffffffffff1614156127d9576040517f08c379a00000000000000000000000000000000000000000000000000000000081526004016127d090614573565b60405180910390fd5b6127e2816119d0565b15612822576040517f08c379a0000000000000000000000000000000000000000000000000000000008152600401612819906143d3565b60405180910390fd5b61282e600083836124b9565b6001600360008473ffffffffffffffffffffffffffffffffffffffff1673ffffffffffffffffffffffffffffffffffffffff168152602001908152602001600020600082825461287e91906147e4565b92505081905550816002600083815260200190815260200160002060006101000a81548173ffffffffffffffffffffffffffffffffffffffff021916908373ffffffffffffffffffffffffffffffffffffffff160217905550808273ffffffffffffffffffffffffffffffffffffffff16600073ffffffffffffffffffffffffffffffffffffffff167fddf252ad1be2c89b69c2b068fc378daa952ba7f163c4a11628f55a4df523b3ef60405160405180910390a45050565b612940826119d0565b61297f576040517f08c379a000000000000000000000000000000000000000000000000000000000815260040161297690614533565b60405180910390fd5b806006600084815260200190815260200160002090805190602001906129a6929190613595565b505050565b60007f01ffc9a7000000000000000000000000000000000000000000000000000000007bffffffffffffffffffffffffffffffffffffffffffffffffffffffff1916827bffffffffffffffffffffffffffffffffffffffffffffffffffffffff1916149050919050565b612a208383836130bd565b600073ffffffffffffffffffffffffffffffffffffffff168373ffffffffffffffffffffffffffffffffffffffff161415612a6357612a5e816130c2565b612aa2565b8173ffffffffffffffffffffffffffffffffffffffff168373ffffffffffffffffffffffffffffffffffffffff1614612aa157612aa0838261310b565b5b5b600073ffffffffffffffffffffffffffffffffffffffff168273ffffffffffffffffffffffffffffffffffffffff161415612ae557612ae081613278565b612b24565b8273ffffffffffffffffffffffffffffffffffffffff168273ffffffffffffffffffffffffffffffffffffffff1614612b2357612b2282826133bb565b5b5b505050565b600080823b905060008111915050919050565b60606000821415612b84576040518060400160405280600181526020017f30000000000000000000000000000000000000000000000000000000000000008152509050612ce4565b600082905060005b60008214612bb6578080612b9f906149cf565b915050600a82612baf919061483a565b9150612b8c565b60008167ffffffffffffffff811115612bf8577f4e487b7100000000000000000000000000000000000000000000000000000000600052604160045260246000fd5b6040519080825280601f01601f191660200182016040528015612c2a5781602001600182028036833780820191505090505b5090505b60008514612cdd57600182612c43919061486b565b9150600a85612c529190614a22565b6030612c5e91906147e4565b60f81b818381518110612c9a577f4e487b7100000000000000000000000000000000000000000000000000000000600052603260045260246000fd5b60200101907effffffffffffffffffffffffffffffffffffffffffffffffffffffffffffff1916908160001a905350600a85612cd6919061483a565b9450612c2e565b8093505050505b919050565b600080604183511415612d2b5760008060006020860151925060408601519150606086015160001a9050612d1f8782858561343a565b94509450505050612d65565b604083511415612d5c576000806020850151915060408501519050612d51868383613547565b935093505050612d65565b60006002915091505b9250929050565b60006004811115612da6577f4e487b7100000000000000000000000000000000000000000000000000000000600052602160045260246000fd5b816004811115612ddf577f4e487b7100000000000000000000000000000000000000000000000000000000600052602160045260246000fd5b1415612dea576130ba565b60016004811115612e24577f4e487b7100000000000000000000000000000000000000000000000000000000600052602160045260246000fd5b816004811115612e5d577f4e487b7100000000000000000000000000000000000000000000000000000000600052602160045260246000fd5b1415612e9e576040517f08c379a0000000000000000000000000000000000000000000000000000000008152600401612e95906142f3565b60405180910390fd5b60026004811115612ed8577f4e487b7100000000000000000000000000000000000000000000000000000000600052602160045260246000fd5b816004811115612f11577f4e487b7100000000000000000000000000000000000000000000000000000000600052602160045260246000fd5b1415612f52576040517f08c379a0000000000000000000000000000000000000000000000000000000008152600401612f4990614353565b60405180910390fd5b60036004811115612f8c577f4e487b7100000000000000000000000000000000000000000000000000000000600052602160045260246000fd5b816004811115612fc5577f4e487b7100000000000000000000000000000000000000000000000000000000600052602160045260246000fd5b1415613006576040517f08c379a0000000000000000000000000000000000000000000000000000000008152600401612ffd90614433565b60405180910390fd5b60048081111561303f577f4e487b7100000000000000000000000000000000000000000000000000000000600052602160045260246000fd5b816004811115613078577f4e487b7100000000000000000000000000000000000000000000000000000000600052602160045260246000fd5b14156130b9576040517f08c379a00000000000000000000000000000000000000000000000000000000081526004016130b090614553565b60405180910390fd5b5b50565b505050565b600980549050600a600083815260200190815260200160002081905550600981908060018154018082558091505060019003906000526020600020016000909190919091505550565b6000600161311884610fc1565b613122919061486b565b9050600060086000848152602001908152602001600020549050818114613207576000600760008673ffffffffffffffffffffffffffffffffffffffff1673ffffffffffffffffffffffffffffffffffffffff168152602001908152602001600020600084815260200190815260200160002054905080600760008773ffffffffffffffffffffffffffffffffffffffff1673ffffffffffffffffffffffffffffffffffffffff168152602001908152602001600020600084815260200190815260200160002081905550816008600083815260200190815260200160002081905550505b6008600084815260200190815260200160002060009055600760008573ffffffffffffffffffffffffffffffffffffffff1673ffffffffffffffffffffffffffffffffffffffff16815260200190815260200160002060008381526020019081526020016000206000905550505050565b6000600160098054905061328c919061486b565b90506000600a60008481526020019081526020016000205490506000600983815481106132e2577f4e487b7100000000000000000000000000000000000000000000000000000000600052603260045260246000fd5b90600052602060002001549050806009838154811061332a577f4e487b7100000000000000000000000000000000000000000000000000000000600052603260045260246000fd5b906000526020600020018190555081600a600083815260200190815260200160002081905550600a600085815260200190815260200160002060009055600980548061339f577f4e487b7100000000000000000000000000000000000000000000000000000000600052603160045260246000fd5b6001900381819060005260206000200160009055905550505050565b60006133c683610fc1565b905081600760008573ffffffffffffffffffffffffffffffffffffffff1673ffffffffffffffffffffffffffffffffffffffff168152602001908152602001600020600083815260200190815260200160002081905550806008600084815260200190815260200160002081905550505050565b6000807f7fffffffffffffffffffffffffffffff5d576e7357a4501ddfe92f46681b20a08360001c111561347557600060039150915061353e565b601b8560ff161415801561348d5750601c8560ff1614155b1561349f57600060049150915061353e565b6000600187878787604051600081526020016040526040516134c4949392919061425c565b6020604051602081039080840390855afa1580156134e6573d6000803e3d6000fd5b505050602060405103519050600073ffffffffffffffffffffffffffffffffffffffff168173ffffffffffffffffffffffffffffffffffffffff1614156135355760006001925092505061353e565b80600092509250505b94509492505050565b6000806000807f7fffffffffffffffffffffffffffffffffffffffffffffffffffffffffffffff85169150601b8560ff1c0190506135878782888561343a565b935093505050935093915050565b8280546135a19061496c565b90600052602060002090601f0160209004810192826135c3576000855561360a565b82601f106135dc57805160ff191683800117855561360a565b8280016001018555821561360a579182015b828111156136095782518255916020019190600101906135ee565b5b509050613617919061361b565b5090565b5b8082111561363457600081600090555060010161361c565b5090565b600061364b61364684614713565b6146ee565b9050808382526020820190508285602086028201111561366a57600080fd5b60005b8581101561369a57816136808882613774565b84526020840193506020830192505060018101905061366d565b5050509392505050565b60006136b76136b28461473f565b6146ee565b9050828152602081018484840111156136cf57600080fd5b6136da84828561492a565b509392505050565b60006136f56136f084614770565b6146ee565b90508281526020810184848401111561370d57600080fd5b61371884828561492a565b509392505050565b60008135905061372f816152c3565b92915050565b600082601f83011261374657600080fd5b8135613756848260208601613638565b91505092915050565b60008135905061376e816152da565b92915050565b600081359050613783816152f1565b92915050565b60008135905061379881615308565b92915050565b6000815190506137ad81615308565b92915050565b600082601f8301126137c457600080fd5b81356137d48482602086016136a4565b91505092915050565b600082601f8301126137ee57600080fd5b81356137fe8482602086016136e2565b91505092915050565b6000813590506138168161531f565b92915050565b60006020828403121561382e57600080fd5b600061383c84828501613720565b91505092915050565b6000806040838503121561385857600080fd5b600061386685828601613720565b925050602061387785828601613720565b9150509250929050565b60008060006060848603121561389657600080fd5b60006138a486828701613720565b93505060206138b586828701613720565b92505060406138c686828701613807565b9150509250925092565b600080600080608085870312156138e657600080fd5b60006138f487828801613720565b945050602061390587828801613720565b935050604061391687828801613807565b925050606085013567ffffffffffffffff81111561393357600080fd5b61393f878288016137b3565b91505092959194509250565b6000806040838503121561395e57600080fd5b600061396c85828601613720565b925050602061397d8582860161375f565b9150509250929050565b6000806000806080858703121561399d57600080fd5b60006139ab87828801613720565b945050602085013567ffffffffffffffff8111156139c857600080fd5b6139d4878288016137dd565b93505060406139e587828801613774565b925050606085013567ffffffffffffffff811115613a0257600080fd5b613a0e878288016137b3565b91505092959194509250565b60008060008060008060c08789031215613a3357600080fd5b6000613a4189828a01613720565b965050602087013567ffffffffffffffff811115613a5e57600080fd5b613a6a89828a016137dd565b9550506040613a7b89828a01613774565b945050606087013567ffffffffffffffff811115613a9857600080fd5b613aa489828a016137b3565b9350506080613ab589828a01613774565b92505060a087013567ffffffffffffffff811115613ad257600080fd5b613ade89828a01613735565b9150509295509295509295565b60008060408385031215613afe57600080fd5b6000613b0c85828601613720565b9250506020613b1d85828601613807565b9150509250929050565b600060208284031215613b3957600080fd5b6000613b478482850161375f565b91505092915050565b600060208284031215613b6257600080fd5b6000613b7084828501613774565b91505092915050565b60008060408385031215613b8c57600080fd5b6000613b9a85828601613774565b925050602083013567ffffffffffffffff811115613bb757600080fd5b613bc385828601613735565b9150509250929050565b600060208284031215613bdf57600080fd5b6000613bed84828501613789565b91505092915050565b600060208284031215613c0857600080fd5b6000613c168482850161379e565b91505092915050565b600060208284031215613c3157600080fd5b6000613c3f84828501613807565b91505092915050565b613c518161489f565b82525050565b613c60816148b1565b82525050565b613c6f816148bd565b82525050565b613c86613c81826148bd565b614a18565b82525050565b6000613c97826147a1565b613ca181856147b7565b9350613cb1818560208601614939565b613cba81614b0f565b840191505092915050565b6000613cd0826147ac565b613cda81856147c8565b9350613cea818560208601614939565b613cf381614b0f565b840191505092915050565b6000613d09826147ac565b613d1381856147d9565b9350613d23818560208601614939565b80840191505092915050565b6000613d3c6018836147c8565b9150613d4782614b20565b602082019050919050565b6000613d5f6014836147c8565b9150613d6a82614b49565b602082019050919050565b6000613d826017836147c8565b9150613d8d82614b72565b602082019050919050565b6000613da5601f836147c8565b9150613db082614b9b565b602082019050919050565b6000613dc8602b836147c8565b9150613dd382614bc4565b604082019050919050565b6000613deb6032836147c8565b9150613df682614c13565b604082019050919050565b6000613e0e6026836147c8565b9150613e1982614c62565b604082019050919050565b6000613e31601c836147c8565b9150613e3c82614cb1565b602082019050919050565b6000613e546024836147c8565b9150613e5f82614cda565b604082019050919050565b6000613e776019836147c8565b9150613e8282614d29565b602082019050919050565b6000613e9a6022836147c8565b9150613ea582614d52565b604082019050919050565b6000613ebd602c836147c8565b9150613ec882614da1565b604082019050919050565b6000613ee06012836147c8565b9150613eeb82614df0565b602082019050919050565b6000613f036010836147c8565b9150613f0e82614e19565b602082019050919050565b6000613f266038836147c8565b9150613f3182614e42565b604082019050919050565b6000613f49600f836147c8565b9150613f5482614e91565b602082019050919050565b6000613f6c602a836147c8565b9150613f7782614eba565b604082019050919050565b6000613f8f6029836147c8565b9150613f9a82614f09565b604082019050919050565b6000613fb2602e836147c8565b9150613fbd82614f58565b604082019050919050565b6000613fd56022836147c8565b9150613fe082614fa7565b604082019050919050565b6000613ff86020836147c8565b915061400382614ff6565b602082019050919050565b600061401b6031836147c8565b91506140268261501f565b604082019050919050565b600061403e602c836147c8565b91506140498261506e565b604082019050919050565b60006140616020836147c8565b915061406c826150bd565b602082019050919050565b60006140846029836147c8565b915061408f826150e6565b604082019050919050565b60006140a7602f836147c8565b91506140b282615135565b604082019050919050565b60006140ca6021836147c8565b91506140d582615184565b604082019050919050565b60006140ed6031836147c8565b91506140f8826151d3565b604082019050919050565b6000614110602c836147c8565b915061411b82615222565b604082019050919050565b6000614133601f836147c8565b915061413e82615271565b602082019050919050565b60006141566007836147c8565b91506141618261529a565b602082019050919050565b61417581614913565b82525050565b6141848161491d565b82525050565b60006141968285613c75565b6020820191506141a68284613c75565b6020820191508190509392505050565b60006141c28285613cfe565b91506141ce8284613cfe565b91508190509392505050565b60006020820190506141ef6000830184613c48565b92915050565b600060808201905061420a6000830187613c48565b6142176020830186613c48565b614224604083018561416c565b81810360608301526142368184613c8c565b905095945050505050565b60006020820190506142566000830184613c57565b92915050565b60006080820190506142716000830187613c66565b61427e602083018661417b565b61428b6040830185613c66565b6142986060830184613c66565b95945050505050565b600060208201905081810360008301526142bb8184613cc5565b905092915050565b600060408201905081810360008301526142dd8185613cc5565b90506142ec602083018461416c565b9392505050565b6000602082019050818103600083015261430c81613d2f565b9050919050565b6000602082019050818103600083015261432c81613d52565b9050919050565b6000602082019050818103600083015261434c81613d75565b9050919050565b6000602082019050818103600083015261436c81613d98565b9050919050565b6000602082019050818103600083015261438c81613dbb565b9050919050565b600060208201905081810360008301526143ac81613dde565b9050919050565b600060208201905081810360008301526143cc81613e01565b9050919050565b600060208201905081810360008301526143ec81613e24565b9050919050565b6000602082019050818103600083015261440c81613e47565b9050919050565b6000602082019050818103600083015261442c81613e6a565b9050919050565b6000602082019050818103600083015261444c81613e8d565b9050919050565b6000602082019050818103600083015261446c81613eb0565b9050919050565b6000602082019050818103600083015261448c81613ed3565b9050919050565b600060208201905081810360008301526144ac81613ef6565b9050919050565b600060208201905081810360008301526144cc81613f19565b9050919050565b600060208201905081810360008301526144ec81613f3c565b9050919050565b6000602082019050818103600083015261450c81613f5f565b9050919050565b6000602082019050818103600083015261452c81613f82565b9050919050565b6000602082019050818103600083015261454c81613fa5565b9050919050565b6000602082019050818103600083015261456c81613fc8565b9050919050565b6000602082019050818103600083015261458c81613feb565b9050919050565b600060208201905081810360008301526145ac8161400e565b9050919050565b600060208201905081810360008301526145cc81614031565b9050919050565b600060208201905081810360008301526145ec81614054565b9050919050565b6000602082019050818103600083015261460c81614077565b9050919050565b6000602082019050818103600083015261462c8161409a565b9050919050565b6000602082019050818103600083015261464c816140bd565b9050919050565b6000602082019050818103600083015261466c816140e0565b9050919050565b6000602082019050818103600083015261468c81614103565b9050919050565b600060208201905081810360008301526146ac81614126565b9050919050565b600060208201905081810360008301526146cc81614149565b9050919050565b60006020820190506146e8600083018461416c565b92915050565b60006146f8614709565b9050614704828261499e565b919050565b6000604051905090565b600067ffffffffffffffff82111561472e5761472d614ae0565b5b602082029050602081019050919050565b600067ffffffffffffffff82111561475a57614759614ae0565b5b61476382614b0f565b9050602081019050919050565b600067ffffffffffffffff82111561478b5761478a614ae0565b5b61479482614b0f565b9050602081019050919050565b600081519050919050565b600081519050919050565b600082825260208201905092915050565b600082825260208201905092915050565b600081905092915050565b60006147ef82614913565b91506147fa83614913565b9250827fffffffffffffffffffffffffffffffffffffffffffffffffffffffffffffffff0382111561482f5761482e614a53565b5b828201905092915050565b600061484582614913565b915061485083614913565b9250826148605761485f614a82565b5b828204905092915050565b600061487682614913565b915061488183614913565b92508282101561489457614893614a53565b5b828203905092915050565b60006148aa826148f3565b9050919050565b60008115159050919050565b6000819050919050565b60007fffffffff0000000000000000000000000000000000000000000000000000000082169050919050565b600073ffffffffffffffffffffffffffffffffffffffff82169050919050565b6000819050919050565b600060ff82169050919050565b82818337600083830152505050565b60005b8381101561495757808201518184015260208101905061493c565b83811115614966576000848401525b50505050565b6000600282049050600182168061498457607f821691505b6020821081141561499857614997614ab1565b5b50919050565b6149a782614b0f565b810181811067ffffffffffffffff821117156149c6576149c5614ae0565b5b80604052505050565b60006149da82614913565b91507fffffffffffffffffffffffffffffffffffffffffffffffffffffffffffffffff821415614a0d57614a0c614a53565b5b600182019050919050565b6000819050919050565b6000614a2d82614913565b9150614a3883614913565b925082614a4857614a47614a82565b5b828206905092915050565b7f4e487b7100000000000000000000000000000000000000000000000000000000600052601160045260246000fd5b7f4e487b7100000000000000000000000000000000000000000000000000000000600052601260045260246000fd5b7f4e487b7100000000000000000000000000000000000000000000000000000000600052602260045260246000fd5b7f4e487b7100000000000000000000000000000000000000000000000000000000600052604160045260246000fd5b6000601f19601f8301169050919050565b7f45434453413a20696e76616c6964207369676e61747572650000000000000000600082015250565b7f5061757361626c653a206e6f7420706175736564000000000000000000000000600082015250565b7f57686974656c697374206973206e6f7420616374697665000000000000000000600082015250565b7f45434453413a20696e76616c6964207369676e6174757265206c656e67746800600082015250565b7f455243373231456e756d657261626c653a206f776e657220696e646578206f7560008201527f74206f6620626f756e6473000000000000000000000000000000000000000000602082015250565b7f4552433732313a207472616e7366657220746f206e6f6e20455243373231526560008201527f63656976657220696d706c656d656e7465720000000000000000000000000000602082015250565b7f4f776e61626c653a206e6577206f776e657220697320746865207a65726f206160008201527f6464726573730000000000000000000000000000000000000000000000000000602082015250565b7f4552433732313a20746f6b656e20616c7265616479206d696e74656400000000600082015250565b7f4552433732313a207472616e7366657220746f20746865207a65726f2061646460008201527f7265737300000000000000000000000000000000000000000000000000000000602082015250565b7f4552433732313a20617070726f766520746f2063616c6c657200000000000000600082015250565b7f45434453413a20696e76616c6964207369676e6174757265202773272076616c60008201527f7565000000000000000000000000000000000000000000000000000000000000602082015250565b7f4552433732313a206f70657261746f7220717565727920666f72206e6f6e657860008201527f697374656e7420746f6b656e0000000000000000000000000000000000000000602082015250565b7f4d696e74696e6720697320706175736564210000000000000000000000000000600082015250565b7f5061757361626c653a2070617573656400000000000000000000000000000000600082015250565b7f4552433732313a20617070726f76652063616c6c6572206973206e6f74206f7760008201527f6e6572206e6f7220617070726f76656420666f7220616c6c0000000000000000602082015250565b7f4e6f742077686974656c69737465640000000000000000000000000000000000600082015250565b7f4552433732313a2062616c616e636520717565727920666f7220746865207a6560008201527f726f206164647265737300000000000000000000000000000000000000000000602082015250565b7f4552433732313a206f776e657220717565727920666f72206e6f6e657869737460008201527f656e7420746f6b656e0000000000000000000000000000000000000000000000602082015250565b7f45524337323155524953746f726167653a2055524920736574206f66206e6f6e60008201527f6578697374656e7420746f6b656e000000000000000000000000000000000000602082015250565b7f45434453413a20696e76616c6964207369676e6174757265202776272076616c60008201527f7565000000000000000000000000000000000000000000000000000000000000602082015250565b7f4552433732313a206d696e7420746f20746865207a65726f2061646472657373600082015250565b7f45524337323155524953746f726167653a2055524920717565727920666f722060008201527f6e6f6e6578697374656e7420746f6b656e000000000000000000000000000000602082015250565b7f4552433732313a20617070726f76656420717565727920666f72206e6f6e657860008201527f697374656e7420746f6b656e0000000000000000000000000000000000000000602082015250565b7f4f776e61626c653a2063616c6c6572206973206e6f7420746865206f776e6572600082015250565b7f4552433732313a207472616e73666572206f6620746f6b656e2074686174206960008201527f73206e6f74206f776e0000000000000000000000000000000000000000000000602082015250565b7f4552433732314d657461646174613a2055524920717565727920666f72206e6f60008201527f6e6578697374656e7420746f6b656e0000000000000000000000000000000000602082015250565b7f4552433732313a20617070726f76616c20746f2063757272656e74206f776e6560008201527f7200000000000000000000000000000000000000000000000000000000000000602082015250565b7f4552433732313a207472616e736665722063616c6c6572206973206e6f74206f60008201527f776e6572206e6f7220617070726f766564000000000000000000000000000000602082015250565b7f455243373231456e756d657261626c653a20676c6f62616c20696e646578206f60008201527f7574206f6620626f756e64730000000000000000000000000000000000000000602082015250565b7f4574686572206973206e6f7420656e6f75676820746f206d696e74204e465400600082015250565b7f44656e6965642100000000000000000000000000000000000000000000000000600082015250565b6152cc8161489f565b81146152d757600080fd5b50565b6152e3816148b1565b81146152ee57600080fd5b50565b6152fa816148bd565b811461530557600080fd5b50565b615311816148c7565b811461531c57600080fd5b50565b61532881614913565b811461533357600080fd5b5056fea2646970667358221220d0d97bc2049a739654f67c5d26ac5dbf099b7220d65769275294efc3b3a6c92364736f6c63430008040033",
  "linkReferences": {},
  "deployedLinkReferences": {}
}