{
  "_format": "hh-sol-artifact-1",
  "contractName": "Burger",
  "sourceName": "contracts/Burger.sol",
  "abi": [
    {
      "inputs": [],
      "stateMutability": "nonpayable",
      "type": "constructor"
    },
    {
      "anonymous": false,
      "inputs": [
        {
          "indexed": true,
          "internalType": "address",
          "name": "owner",
          "type": "address"
        },
        {
          "indexed": true,
          "internalType": "address",
          "name": "approved",
          "type": "address"
        },
        {
          "indexed": true,
          "internalType": "uint256",
          "name": "tokenId",
          "type": "uint256"
        }
      ],
      "name": "Approval",
      "type": "event"
    },
    {
      "anonymous": false,
      "inputs": [
        {
          "indexed": true,
          "internalType": "address",
          "name": "owner",
          "type": "address"
        },
        {
          "indexed": true,
          "internalType": "address",
          "name": "operator",
          "type": "address"
        },
        {
          "indexed": false,
          "internalType": "bool",
          "name": "approved",
          "type": "bool"
        }
      ],
      "name": "ApprovalForAll",
      "type": "event"
    },
    {
      "anonymous": false,
      "inputs": [
        {
          "indexed": true,
          "internalType": "address",
          "name": "_to",
          "type": "address"
        },
        {
          "indexed": false,
          "internalType": "string",
          "name": "tokenURI",
          "type": "string"
        },
        {
          "indexed": false,
          "internalType": "uint256",
          "name": "id",
          "type": "uint256"
        }
      ],
      "name": "NFTMintEvent",
      "type": "event"
    },
    {
      "anonymous": false,
      "inputs": [
        {
          "indexed": true,
          "internalType": "address",
          "name": "previousOwner",
          "type": "address"
        },
        {
          "indexed": true,
          "internalType": "address",
          "name": "newOwner",
          "type": "address"
        }
      ],
      "name": "OwnershipTransferred",
      "type": "event"
    },
    {
      "anonymous": false,
      "inputs": [
        {
          "indexed": true,
          "internalType": "address",
          "name": "from",
          "type": "address"
        },
        {
          "indexed": true,
          "internalType": "address",
          "name": "to",
          "type": "address"
        },
        {
          "indexed": true,
          "internalType": "uint256",
          "name": "tokenId",
          "type": "uint256"
        }
      ],
      "name": "Transfer",
      "type": "event"
    },
    {
      "inputs": [
        {
          "internalType": "bytes32",
          "name": "data",
          "type": "bytes32"
        },
        {
          "internalType": "bytes",
          "name": "signature",
          "type": "bytes"
        }
      ],
      "name": "_verify",
      "outputs": [
        {
          "internalType": "bool",
          "name": "",
          "type": "bool"
        }
      ],
      "stateMutability": "view",
      "type": "function"
    },
    {
      "inputs": [
        {
          "internalType": "address",
          "name": "to",
          "type": "address"
        },
        {
          "internalType": "uint256",
          "name": "tokenId",
          "type": "uint256"
        }
      ],
      "name": "approve",
      "outputs": [],
      "stateMutability": "nonpayable",
      "type": "function"
    },
    {
      "inputs": [
        {
          "internalType": "address",
          "name": "owner",
          "type": "address"
        }
      ],
      "name": "balanceOf",
      "outputs": [
        {
          "internalType": "uint256",
          "name": "",
          "type": "uint256"
        }
      ],
      "stateMutability": "view",
      "type": "function"
    },
    {
      "inputs": [
        {
          "internalType": "uint256",
          "name": "tokenId",
          "type": "uint256"
        }
      ],
      "name": "getApproved",
      "outputs": [
        {
          "internalType": "address",
          "name": "",
          "type": "address"
        }
      ],
      "stateMutability": "view",
      "type": "function"
    },
    {
      "inputs": [],
      "name": "getVerfiedAddress",
      "outputs": [
        {
          "internalType": "address",
          "name": "",
          "type": "address"
        }
      ],
      "stateMutability": "view",
      "type": "function"
    },
    {
      "inputs": [
        {
          "internalType": "address",
          "name": "owner",
          "type": "address"
        },
        {
          "internalType": "address",
          "name": "operator",
          "type": "address"
        }
      ],
      "name": "isApprovedForAll",
      "outputs": [
        {
          "internalType": "bool",
          "name": "",
          "type": "bool"
        }
      ],
      "stateMutability": "view",
      "type": "function"
    },
    {
      "inputs": [
        {
          "internalType": "address",
          "name": "_to",
          "type": "address"
        },
        {
          "internalType": "string",
          "name": "tokenUri",
          "type": "string"
        },
        {
          "internalType": "bytes32",
          "name": "tokenURIHash",
          "type": "bytes32"
        },
        {
          "internalType": "bytes",
          "name": "signature",
          "type": "bytes"
        }
      ],
      "name": "mint",
      "outputs": [],
      "stateMutability": "payable",
      "type": "function"
    },
    {
      "inputs": [
        {
          "internalType": "address",
          "name": "recipient",
          "type": "address"
        },
        {
          "internalType": "string",
          "name": "tokenURI",
          "type": "string"
        }
      ],
      "name": "mintNFT",
      "outputs": [
        {
          "internalType": "uint256",
          "name": "",
          "type": "uint256"
        }
      ],
      "stateMutability": "payable",
      "type": "function"
    },
    {
      "inputs": [],
      "name": "name",
      "outputs": [
        {
          "internalType": "string",
          "name": "",
          "type": "string"
        }
      ],
      "stateMutability": "view",
      "type": "function"
    },
    {
      "inputs": [],
      "name": "owner",
      "outputs": [
        {
          "internalType": "address",
          "name": "",
          "type": "address"
        }
      ],
      "stateMutability": "view",
      "type": "function"
    },
    {
      "inputs": [
        {
          "internalType": "uint256",
          "name": "tokenId",
          "type": "uint256"
        }
      ],
      "name": "ownerOf",
      "outputs": [
        {
          "internalType": "address",
          "name": "",
          "type": "address"
        }
      ],
      "stateMutability": "view",
      "type": "function"
    },
    {
      "inputs": [],
      "name": "renounceOwnership",
      "outputs": [],
      "stateMutability": "nonpayable",
      "type": "function"
    },
    {
      "inputs": [
        {
          "internalType": "address",
          "name": "from",
          "type": "address"
        },
        {
          "internalType": "address",
          "name": "to",
          "type": "address"
        },
        {
          "internalType": "uint256",
          "name": "tokenId",
          "type": "uint256"
        }
      ],
      "name": "safeTransferFrom",
      "outputs": [],
      "stateMutability": "nonpayable",
      "type": "function"
    },
    {
      "inputs": [
        {
          "internalType": "address",
          "name": "from",
          "type": "address"
        },
        {
          "internalType": "address",
          "name": "to",
          "type": "address"
        },
        {
          "internalType": "uint256",
          "name": "tokenId",
          "type": "uint256"
        },
        {
          "internalType": "bytes",
          "name": "_data",
          "type": "bytes"
        }
      ],
      "name": "safeTransferFrom",
      "outputs": [],
      "stateMutability": "nonpayable",
      "type": "function"
    },
    {
      "inputs": [
        {
          "internalType": "address",
          "name": "operator",
          "type": "address"
        },
        {
          "internalType": "bool",
          "name": "approved",
          "type": "bool"
        }
      ],
      "name": "setApprovalForAll",
      "outputs": [],
      "stateMutability": "nonpayable",
      "type": "function"
    },
    {
      "inputs": [
        {
          "internalType": "address",
          "name": "_verifiedAddress",
          "type": "address"
        }
      ],
      "name": "setVerifiedAddress",
      "outputs": [],
      "stateMutability": "nonpayable",
      "type": "function"
    },
    {
      "inputs": [
        {
          "internalType": "bytes4",
          "name": "interfaceId",
          "type": "bytes4"
        }
      ],
      "name": "supportsInterface",
      "outputs": [
        {
          "internalType": "bool",
          "name": "",
          "type": "bool"
        }
      ],
      "stateMutability": "view",
      "type": "function"
    },
    {
      "inputs": [],
      "name": "symbol",
      "outputs": [
        {
          "internalType": "string",
          "name": "",
          "type": "string"
        }
      ],
      "stateMutability": "view",
      "type": "function"
    },
    {
      "inputs": [
        {
          "internalType": "uint256",
          "name": "tokenId",
          "type": "uint256"
        }
      ],
      "name": "tokenURI",
      "outputs": [
        {
          "internalType": "string",
          "name": "",
          "type": "string"
        }
      ],
      "stateMutability": "view",
      "type": "function"
    },
    {
      "inputs": [
        {
          "internalType": "address",
          "name": "from",
          "type": "address"
        },
        {
          "internalType": "address",
          "name": "to",
          "type": "address"
        },
        {
          "internalType": "uint256",
          "name": "tokenId",
          "type": "uint256"
        }
      ],
      "name": "transferFrom",
      "outputs": [],
      "stateMutability": "nonpayable",
      "type": "function"
    },
    {
      "inputs": [
        {
          "internalType": "address",
          "name": "newOwner",
          "type": "address"
        }
      ],
      "name": "transferOwnership",
      "outputs": [],
      "stateMutability": "nonpayable",
      "type": "function"
    }
  ],
  "bytecode": "0x608060405264e8d4a5100060085573c09eac15f9ba6462e8e4612af7c431e1cfe08b87600a60006101000a81548173ffffffffffffffffffffffffffffffffffffffff021916908373ffffffffffffffffffffffffffffffffffffffff1602179055503480156200006f57600080fd5b506040518060400160405280600681526020017f42757267657200000000000000000000000000000000000000000000000000008152506040518060400160405280600681526020017f42555247455200000000000000000000000000000000000000000000000000008152508160009080519060200190620000f492919062000204565b5080600190805190602001906200010d92919062000204565b50505062000130620001246200013660201b60201c565b6200013e60201b60201c565b62000319565b600033905090565b6000600760009054906101000a900473ffffffffffffffffffffffffffffffffffffffff16905081600760006101000a81548173ffffffffffffffffffffffffffffffffffffffff021916908373ffffffffffffffffffffffffffffffffffffffff1602179055508173ffffffffffffffffffffffffffffffffffffffff168173ffffffffffffffffffffffffffffffffffffffff167f8be0079c531659141344cd1fd0a4f28419497f9722a3daafe3b4186f6b6457e060405160405180910390a35050565b8280546200021290620002b4565b90600052602060002090601f01602090048101928262000236576000855562000282565b82601f106200025157805160ff191683800117855562000282565b8280016001018555821562000282579182015b828111156200028157825182559160200191906001019062000264565b5b50905062000291919062000295565b5090565b5b80821115620002b057600081600090555060010162000296565b5090565b60006002820490506001821680620002cd57607f821691505b60208210811415620002e457620002e3620002ea565b5b50919050565b7f4e487b7100000000000000000000000000000000000000000000000000000000600052602260045260246000fd5b613d0e80620003296000396000f3fe60806040526004361061012a5760003560e01c8063715018a6116100ab578063c87b56dd1161006f578063c87b56dd146103dc578063cfa8ba4f14610419578063e985e9c514610456578063eacabe1414610493578063f2fde38b146104c3578063f693ffaf146104ec5761012a565b8063715018a61461031d5780638da5cb5b1461033457806395d89b411461035f578063a22cb4651461038a578063b88d4fde146103b35761012a565b80633e4356d7116100f25780633e4356d71461022657806342842e0e146102515780634f66cbcd1461027a5780636352211e146102a357806370a08231146102e05761012a565b806301ffc9a71461012f57806306fdde031461016c578063081812fc14610197578063095ea7b3146101d457806323b872dd146101fd575b600080fd5b34801561013b57600080fd5b5061015660048036038101906101519190612928565b610508565b6040516101639190612e64565b60405180910390f35b34801561017857600080fd5b506101816105ea565b60405161018e9190612ec4565b60405180910390f35b3480156101a357600080fd5b506101be60048036038101906101b9919061297a565b61067c565b6040516101cb9190612dfd565b60405180910390f35b3480156101e057600080fd5b506101fb60048036038101906101f69190612898565b610701565b005b34801561020957600080fd5b50610224600480360381019061021f91906126ab565b610819565b005b34801561023257600080fd5b5061023b610879565b6040516102489190612dfd565b60405180910390f35b34801561025d57600080fd5b50610278600480360381019061027391906126ab565b6108a3565b005b34801561028657600080fd5b506102a1600480360381019061029c9190612646565b6108c3565b005b3480156102af57600080fd5b506102ca60048036038101906102c5919061297a565b610983565b6040516102d79190612dfd565b60405180910390f35b3480156102ec57600080fd5b5061030760048036038101906103029190612646565b610a35565b6040516103149190613216565b60405180910390f35b34801561032957600080fd5b50610332610aed565b005b34801561034057600080fd5b50610349610b75565b6040516103569190612dfd565b60405180910390f35b34801561036b57600080fd5b50610374610b9f565b6040516103819190612ec4565b60405180910390f35b34801561039657600080fd5b506103b160048036038101906103ac9190612775565b610c31565b005b3480156103bf57600080fd5b506103da60048036038101906103d591906126fa565b610db2565b005b3480156103e857600080fd5b5061040360048036038101906103fe919061297a565b610e14565b6040516104109190612ec4565b60405180910390f35b34801561042557600080fd5b50610440600480360381019061043b91906128d4565b610f66565b60405161044d9190612e64565b60405180910390f35b34801561046257600080fd5b5061047d6004803603810190610478919061266f565b610fd3565b60405161048a9190612e64565b60405180910390f35b6104ad60048036038101906104a891906127b1565b611067565b6040516104ba9190613216565b60405180910390f35b3480156104cf57600080fd5b506104ea60048036038101906104e59190612646565b611134565b005b61050660048036038101906105019190612805565b61122c565b005b60007f80ac58cd000000000000000000000000000000000000000000000000000000007bffffffffffffffffffffffffffffffffffffffffffffffffffffffff1916827bffffffffffffffffffffffffffffffffffffffffffffffffffffffff191614806105d357507f5b5e139f000000000000000000000000000000000000000000000000000000007bffffffffffffffffffffffffffffffffffffffffffffffffffffffff1916827bffffffffffffffffffffffffffffffffffffffffffffffffffffffff1916145b806105e357506105e28261128c565b5b9050919050565b6060600080546105f990613483565b80601f016020809104026020016040519081016040528092919081815260200182805461062590613483565b80156106725780601f1061064757610100808354040283529160200191610672565b820191906000526020600020905b81548152906001019060200180831161065557829003601f168201915b5050505050905090565b6000610687826112f6565b6106c6576040517f08c379a00000000000000000000000000000000000000000000000000000000081526004016106bd90613116565b60405180910390fd5b6004600083815260200190815260200160002060009054906101000a900473ffffffffffffffffffffffffffffffffffffffff169050919050565b600061070c82610983565b90508073ffffffffffffffffffffffffffffffffffffffff168373ffffffffffffffffffffffffffffffffffffffff16141561077d576040517f08c379a000000000000000000000000000000000000000000000000000000000815260040161077490613196565b60405180910390fd5b8073ffffffffffffffffffffffffffffffffffffffff1661079c611362565b73ffffffffffffffffffffffffffffffffffffffff1614806107cb57506107ca816107c5611362565b610fd3565b5b61080a576040517f08c379a000000000000000000000000000000000000000000000000000000000815260040161080190613036565b60405180910390fd5b610814838361136a565b505050565b61082a610824611362565b82611423565b610869576040517f08c379a0000000000000000000000000000000000000000000000000000000008152600401610860906131b6565b60405180910390fd5b610874838383611501565b505050565b6000600a60009054906101000a900473ffffffffffffffffffffffffffffffffffffffff16905090565b6108be83838360405180602001604052806000815250610db2565b505050565b6108cb611362565b73ffffffffffffffffffffffffffffffffffffffff166108e9610b75565b73ffffffffffffffffffffffffffffffffffffffff161461093f576040517f08c379a000000000000000000000000000000000000000000000000000000000815260040161093690613136565b60405180910390fd5b80600a60006101000a81548173ffffffffffffffffffffffffffffffffffffffff021916908373ffffffffffffffffffffffffffffffffffffffff16021790555050565b6000806002600084815260200190815260200160002060009054906101000a900473ffffffffffffffffffffffffffffffffffffffff169050600073ffffffffffffffffffffffffffffffffffffffff168173ffffffffffffffffffffffffffffffffffffffff161415610a2c576040517f08c379a0000000000000000000000000000000000000000000000000000000008152600401610a2390613076565b60405180910390fd5b80915050919050565b60008073ffffffffffffffffffffffffffffffffffffffff168273ffffffffffffffffffffffffffffffffffffffff161415610aa6576040517f08c379a0000000000000000000000000000000000000000000000000000000008152600401610a9d90613056565b60405180910390fd5b600360008373ffffffffffffffffffffffffffffffffffffffff1673ffffffffffffffffffffffffffffffffffffffff168152602001908152602001600020549050919050565b610af5611362565b73ffffffffffffffffffffffffffffffffffffffff16610b13610b75565b73ffffffffffffffffffffffffffffffffffffffff1614610b69576040517f08c379a0000000000000000000000000000000000000000000000000000000008152600401610b6090613136565b60405180910390fd5b610b73600061175d565b565b6000600760009054906101000a900473ffffffffffffffffffffffffffffffffffffffff16905090565b606060018054610bae90613483565b80601f0160208091040260200160405190810160405280929190818152602001828054610bda90613483565b8015610c275780601f10610bfc57610100808354040283529160200191610c27565b820191906000526020600020905b815481529060010190602001808311610c0a57829003601f168201915b5050505050905090565b610c39611362565b73ffffffffffffffffffffffffffffffffffffffff168273ffffffffffffffffffffffffffffffffffffffff161415610ca7576040517f08c379a0000000000000000000000000000000000000000000000000000000008152600401610c9e90612fd6565b60405180910390fd5b8060056000610cb4611362565b73ffffffffffffffffffffffffffffffffffffffff1673ffffffffffffffffffffffffffffffffffffffff16815260200190815260200160002060008473ffffffffffffffffffffffffffffffffffffffff1673ffffffffffffffffffffffffffffffffffffffff16815260200190815260200160002060006101000a81548160ff0219169083151502179055508173ffffffffffffffffffffffffffffffffffffffff16610d61611362565b73ffffffffffffffffffffffffffffffffffffffff167f17307eab39ab6107e8899845ad3d59bd9653f200f220920489ca2b5937696c3183604051610da69190612e64565b60405180910390a35050565b610dc3610dbd611362565b83611423565b610e02576040517f08c379a0000000000000000000000000000000000000000000000000000000008152600401610df9906131b6565b60405180910390fd5b610e0e84848484611823565b50505050565b6060610e1f826112f6565b610e5e576040517f08c379a0000000000000000000000000000000000000000000000000000000008152600401610e55906130f6565b60405180910390fd5b6000600660008481526020019081526020016000208054610e7e90613483565b80601f0160208091040260200160405190810160405280929190818152602001828054610eaa90613483565b8015610ef75780601f10610ecc57610100808354040283529160200191610ef7565b820191906000526020600020905b815481529060010190602001808311610eda57829003601f168201915b505050505090506000610f0861187f565b9050600081511415610f1e578192505050610f61565b600082511115610f53578082604051602001610f3b929190612dd9565b60405160208183030381529060405292505050610f61565b610f5c84611896565b925050505b919050565b6000600a60009054906101000a900473ffffffffffffffffffffffffffffffffffffffff1673ffffffffffffffffffffffffffffffffffffffff16610fb4838561193d90919063ffffffff16565b73ffffffffffffffffffffffffffffffffffffffff1614905092915050565b6000600560008473ffffffffffffffffffffffffffffffffffffffff1673ffffffffffffffffffffffffffffffffffffffff16815260200190815260200160002060008373ffffffffffffffffffffffffffffffffffffffff1673ffffffffffffffffffffffffffffffffffffffff16815260200190815260200160002060009054906101000a900460ff16905092915050565b60006008543410156110ae576040517f08c379a00000000000000000000000000000000000000000000000000000000081526004016110a5906131d6565b60405180910390fd5b6110b86009611964565b60006110c4600961197a565b90506110d08482611988565b6110da8184611b56565b3373ffffffffffffffffffffffffffffffffffffffff167f381522718816817f694da06ead37444f6a1ad8252bd7d029101cafc183a65ff68483604051611122929190612ee6565b60405180910390a28091505092915050565b61113c611362565b73ffffffffffffffffffffffffffffffffffffffff1661115a610b75565b73ffffffffffffffffffffffffffffffffffffffff16146111b0576040517f08c379a00000000000000000000000000000000000000000000000000000000081526004016111a790613136565b60405180910390fd5b600073ffffffffffffffffffffffffffffffffffffffff168173ffffffffffffffffffffffffffffffffffffffff161415611220576040517f08c379a000000000000000000000000000000000000000000000000000000000815260040161121790612f76565b60405180910390fd5b6112298161175d565b50565b8282826112398282610f66565b611278576040517f08c379a000000000000000000000000000000000000000000000000000000000815260040161126f906131f6565b60405180910390fd5b6112828787611067565b5050505050505050565b60007f01ffc9a7000000000000000000000000000000000000000000000000000000007bffffffffffffffffffffffffffffffffffffffffffffffffffffffff1916827bffffffffffffffffffffffffffffffffffffffffffffffffffffffff1916149050919050565b60008073ffffffffffffffffffffffffffffffffffffffff166002600084815260200190815260200160002060009054906101000a900473ffffffffffffffffffffffffffffffffffffffff1673ffffffffffffffffffffffffffffffffffffffff1614159050919050565b600033905090565b816004600083815260200190815260200160002060006101000a81548173ffffffffffffffffffffffffffffffffffffffff021916908373ffffffffffffffffffffffffffffffffffffffff160217905550808273ffffffffffffffffffffffffffffffffffffffff166113dd83610983565b73ffffffffffffffffffffffffffffffffffffffff167f8c5be1e5ebec7d5bd14f71427d1e84f3dd0314c0f7b2291e5b200ac8c7c3b92560405160405180910390a45050565b600061142e826112f6565b61146d576040517f08c379a000000000000000000000000000000000000000000000000000000000815260040161146490613016565b60405180910390fd5b600061147883610983565b90508073ffffffffffffffffffffffffffffffffffffffff168473ffffffffffffffffffffffffffffffffffffffff1614806114e757508373ffffffffffffffffffffffffffffffffffffffff166114cf8461067c565b73ffffffffffffffffffffffffffffffffffffffff16145b806114f857506114f78185610fd3565b5b91505092915050565b8273ffffffffffffffffffffffffffffffffffffffff1661152182610983565b73ffffffffffffffffffffffffffffffffffffffff1614611577576040517f08c379a000000000000000000000000000000000000000000000000000000000815260040161156e90613156565b60405180910390fd5b600073ffffffffffffffffffffffffffffffffffffffff168273ffffffffffffffffffffffffffffffffffffffff1614156115e7576040517f08c379a00000000000000000000000000000000000000000000000000000000081526004016115de90612fb6565b60405180910390fd5b6115f2838383611bca565b6115fd60008261136a565b6001600360008573ffffffffffffffffffffffffffffffffffffffff1673ffffffffffffffffffffffffffffffffffffffff168152602001908152602001600020600082825461164d9190613382565b925050819055506001600360008473ffffffffffffffffffffffffffffffffffffffff1673ffffffffffffffffffffffffffffffffffffffff16815260200190815260200160002060008282546116a491906132fb565b92505081905550816002600083815260200190815260200160002060006101000a81548173ffffffffffffffffffffffffffffffffffffffff021916908373ffffffffffffffffffffffffffffffffffffffff160217905550808273ffffffffffffffffffffffffffffffffffffffff168473ffffffffffffffffffffffffffffffffffffffff167fddf252ad1be2c89b69c2b068fc378daa952ba7f163c4a11628f55a4df523b3ef60405160405180910390a4505050565b6000600760009054906101000a900473ffffffffffffffffffffffffffffffffffffffff16905081600760006101000a81548173ffffffffffffffffffffffffffffffffffffffff021916908373ffffffffffffffffffffffffffffffffffffffff1602179055508173ffffffffffffffffffffffffffffffffffffffff168173ffffffffffffffffffffffffffffffffffffffff167f8be0079c531659141344cd1fd0a4f28419497f9722a3daafe3b4186f6b6457e060405160405180910390a35050565b61182e848484611501565b61183a84848484611bcf565b611879576040517f08c379a000000000000000000000000000000000000000000000000000000000815260040161187090612f56565b60405180910390fd5b50505050565b606060405180602001604052806000815250905090565b60606118a1826112f6565b6118e0576040517f08c379a00000000000000000000000000000000000000000000000000000000081526004016118d790613176565b60405180910390fd5b60006118ea61187f565b9050600081511161190a5760405180602001604052806000815250611935565b8061191484611d66565b604051602001611925929190612dd9565b6040516020818303038152906040525b915050919050565b600080600061194c8585611f13565b9150915061195981611f96565b819250505092915050565b6001816000016000828254019250508190555050565b600081600001549050919050565b600073ffffffffffffffffffffffffffffffffffffffff168273ffffffffffffffffffffffffffffffffffffffff1614156119f8576040517f08c379a00000000000000000000000000000000000000000000000000000000081526004016119ef906130d6565b60405180910390fd5b611a01816112f6565b15611a41576040517f08c379a0000000000000000000000000000000000000000000000000000000008152600401611a3890612f96565b60405180910390fd5b611a4d60008383611bca565b6001600360008473ffffffffffffffffffffffffffffffffffffffff1673ffffffffffffffffffffffffffffffffffffffff1681526020019081526020016000206000828254611a9d91906132fb565b92505081905550816002600083815260200190815260200160002060006101000a81548173ffffffffffffffffffffffffffffffffffffffff021916908373ffffffffffffffffffffffffffffffffffffffff160217905550808273ffffffffffffffffffffffffffffffffffffffff16600073ffffffffffffffffffffffffffffffffffffffff167fddf252ad1be2c89b69c2b068fc378daa952ba7f163c4a11628f55a4df523b3ef60405160405180910390a45050565b611b5f826112f6565b611b9e576040517f08c379a0000000000000000000000000000000000000000000000000000000008152600401611b9590613096565b60405180910390fd5b80600660008481526020019081526020016000209080519060200190611bc5929190612455565b505050565b505050565b6000611bf08473ffffffffffffffffffffffffffffffffffffffff166122e7565b15611d59578373ffffffffffffffffffffffffffffffffffffffff1663150b7a02611c19611362565b8786866040518563ffffffff1660e01b8152600401611c3b9493929190612e18565b602060405180830381600087803b158015611c5557600080fd5b505af1925050508015611c8657506040513d601f19601f82011682018060405250810190611c839190612951565b60015b611d09573d8060008114611cb6576040519150601f19603f3d011682016040523d82523d6000602084013e611cbb565b606091505b50600081511415611d01576040517f08c379a0000000000000000000000000000000000000000000000000000000008152600401611cf890612f56565b60405180910390fd5b805181602001fd5b63150b7a0260e01b7bffffffffffffffffffffffffffffffffffffffffffffffffffffffff1916817bffffffffffffffffffffffffffffffffffffffffffffffffffffffff191614915050611d5e565b600190505b949350505050565b60606000821415611dae576040518060400160405280600181526020017f30000000000000000000000000000000000000000000000000000000000000008152509050611f0e565b600082905060005b60008214611de0578080611dc9906134e6565b915050600a82611dd99190613351565b9150611db6565b60008167ffffffffffffffff811115611e22577f4e487b7100000000000000000000000000000000000000000000000000000000600052604160045260246000fd5b6040519080825280601f01601f191660200182016040528015611e545781602001600182028036833780820191505090505b5090505b60008514611f0757600182611e6d9190613382565b9150600a85611e7c919061352f565b6030611e8891906132fb565b60f81b818381518110611ec4577f4e487b7100000000000000000000000000000000000000000000000000000000600052603260045260246000fd5b60200101907effffffffffffffffffffffffffffffffffffffffffffffffffffffffffffff1916908160001a905350600a85611f009190613351565b9450611e58565b8093505050505b919050565b600080604183511415611f555760008060006020860151925060408601519150606086015160001a9050611f49878285856122fa565b94509450505050611f8f565b604083511415611f86576000806020850151915060408501519050611f7b868383612407565b935093505050611f8f565b60006002915091505b9250929050565b60006004811115611fd0577f4e487b7100000000000000000000000000000000000000000000000000000000600052602160045260246000fd5b816004811115612009577f4e487b7100000000000000000000000000000000000000000000000000000000600052602160045260246000fd5b1415612014576122e4565b6001600481111561204e577f4e487b7100000000000000000000000000000000000000000000000000000000600052602160045260246000fd5b816004811115612087577f4e487b7100000000000000000000000000000000000000000000000000000000600052602160045260246000fd5b14156120c8576040517f08c379a00000000000000000000000000000000000000000000000000000000081526004016120bf90612f16565b60405180910390fd5b60026004811115612102577f4e487b7100000000000000000000000000000000000000000000000000000000600052602160045260246000fd5b81600481111561213b577f4e487b7100000000000000000000000000000000000000000000000000000000600052602160045260246000fd5b141561217c576040517f08c379a000000000000000000000000000000000000000000000000000000000815260040161217390612f36565b60405180910390fd5b600360048111156121b6577f4e487b7100000000000000000000000000000000000000000000000000000000600052602160045260246000fd5b8160048111156121ef577f4e487b7100000000000000000000000000000000000000000000000000000000600052602160045260246000fd5b1415612230576040517f08c379a000000000000000000000000000000000000000000000000000000000815260040161222790612ff6565b60405180910390fd5b600480811115612269577f4e487b7100000000000000000000000000000000000000000000000000000000600052602160045260246000fd5b8160048111156122a2577f4e487b7100000000000000000000000000000000000000000000000000000000600052602160045260246000fd5b14156122e3576040517f08c379a00000000000000000000000000000000000000000000000000000000081526004016122da906130b6565b60405180910390fd5b5b50565b600080823b905060008111915050919050565b6000807f7fffffffffffffffffffffffffffffff5d576e7357a4501ddfe92f46681b20a08360001c11156123355760006003915091506123fe565b601b8560ff161415801561234d5750601c8560ff1614155b1561235f5760006004915091506123fe565b6000600187878787604051600081526020016040526040516123849493929190612e7f565b6020604051602081039080840390855afa1580156123a6573d6000803e3d6000fd5b505050602060405103519050600073ffffffffffffffffffffffffffffffffffffffff168173ffffffffffffffffffffffffffffffffffffffff1614156123f5576000600192509250506123fe565b80600092509250505b94509492505050565b6000806000807f7fffffffffffffffffffffffffffffffffffffffffffffffffffffffffffffff85169150601b8560ff1c019050612447878288856122fa565b935093505050935093915050565b82805461246190613483565b90600052602060002090601f01602090048101928261248357600085556124ca565b82601f1061249c57805160ff19168380011785556124ca565b828001600101855582156124ca579182015b828111156124c95782518255916020019190600101906124ae565b5b5090506124d791906124db565b5090565b5b808211156124f45760008160009055506001016124dc565b5090565b600061250b61250684613256565b613231565b90508281526020810184848401111561252357600080fd5b61252e848285613441565b509392505050565b600061254961254484613287565b613231565b90508281526020810184848401111561256157600080fd5b61256c848285613441565b509392505050565b60008135905061258381613c65565b92915050565b60008135905061259881613c7c565b92915050565b6000813590506125ad81613c93565b92915050565b6000813590506125c281613caa565b92915050565b6000815190506125d781613caa565b92915050565b600082601f8301126125ee57600080fd5b81356125fe8482602086016124f8565b91505092915050565b600082601f83011261261857600080fd5b8135612628848260208601612536565b91505092915050565b60008135905061264081613cc1565b92915050565b60006020828403121561265857600080fd5b600061266684828501612574565b91505092915050565b6000806040838503121561268257600080fd5b600061269085828601612574565b92505060206126a185828601612574565b9150509250929050565b6000806000606084860312156126c057600080fd5b60006126ce86828701612574565b93505060206126df86828701612574565b92505060406126f086828701612631565b9150509250925092565b6000806000806080858703121561271057600080fd5b600061271e87828801612574565b945050602061272f87828801612574565b935050604061274087828801612631565b925050606085013567ffffffffffffffff81111561275d57600080fd5b612769878288016125dd565b91505092959194509250565b6000806040838503121561278857600080fd5b600061279685828601612574565b92505060206127a785828601612589565b9150509250929050565b600080604083850312156127c457600080fd5b60006127d285828601612574565b925050602083013567ffffffffffffffff8111156127ef57600080fd5b6127fb85828601612607565b9150509250929050565b6000806000806080858703121561281b57600080fd5b600061282987828801612574565b945050602085013567ffffffffffffffff81111561284657600080fd5b61285287828801612607565b93505060406128638782880161259e565b925050606085013567ffffffffffffffff81111561288057600080fd5b61288c878288016125dd565b91505092959194509250565b600080604083850312156128ab57600080fd5b60006128b985828601612574565b92505060206128ca85828601612631565b9150509250929050565b600080604083850312156128e757600080fd5b60006128f58582860161259e565b925050602083013567ffffffffffffffff81111561291257600080fd5b61291e858286016125dd565b9150509250929050565b60006020828403121561293a57600080fd5b6000612948848285016125b3565b91505092915050565b60006020828403121561296357600080fd5b6000612971848285016125c8565b91505092915050565b60006020828403121561298c57600080fd5b600061299a84828501612631565b91505092915050565b6129ac816133b6565b82525050565b6129bb816133c8565b82525050565b6129ca816133d4565b82525050565b60006129db826132b8565b6129e581856132ce565b93506129f5818560208601613450565b6129fe8161361c565b840191505092915050565b6000612a14826132c3565b612a1e81856132df565b9350612a2e818560208601613450565b612a378161361c565b840191505092915050565b6000612a4d826132c3565b612a5781856132f0565b9350612a67818560208601613450565b80840191505092915050565b6000612a806018836132df565b9150612a8b8261362d565b602082019050919050565b6000612aa3601f836132df565b9150612aae82613656565b602082019050919050565b6000612ac66032836132df565b9150612ad18261367f565b604082019050919050565b6000612ae96026836132df565b9150612af4826136ce565b604082019050919050565b6000612b0c601c836132df565b9150612b178261371d565b602082019050919050565b6000612b2f6024836132df565b9150612b3a82613746565b604082019050919050565b6000612b526019836132df565b9150612b5d82613795565b602082019050919050565b6000612b756022836132df565b9150612b80826137be565b604082019050919050565b6000612b98602c836132df565b9150612ba38261380d565b604082019050919050565b6000612bbb6038836132df565b9150612bc68261385c565b604082019050919050565b6000612bde602a836132df565b9150612be9826138ab565b604082019050919050565b6000612c016029836132df565b9150612c0c826138fa565b604082019050919050565b6000612c24602e836132df565b9150612c2f82613949565b604082019050919050565b6000612c476022836132df565b9150612c5282613998565b604082019050919050565b6000612c6a6020836132df565b9150612c75826139e7565b602082019050919050565b6000612c8d6031836132df565b9150612c9882613a10565b604082019050919050565b6000612cb0602c836132df565b9150612cbb82613a5f565b604082019050919050565b6000612cd36020836132df565b9150612cde82613aae565b602082019050919050565b6000612cf66029836132df565b9150612d0182613ad7565b604082019050919050565b6000612d19602f836132df565b9150612d2482613b26565b604082019050919050565b6000612d3c6021836132df565b9150612d4782613b75565b604082019050919050565b6000612d5f6031836132df565b9150612d6a82613bc4565b604082019050919050565b6000612d82601f836132df565b9150612d8d82613c13565b602082019050919050565b6000612da56007836132df565b9150612db082613c3c565b602082019050919050565b612dc48161342a565b82525050565b612dd381613434565b82525050565b6000612de58285612a42565b9150612df18284612a42565b91508190509392505050565b6000602082019050612e1260008301846129a3565b92915050565b6000608082019050612e2d60008301876129a3565b612e3a60208301866129a3565b612e476040830185612dbb565b8181036060830152612e5981846129d0565b905095945050505050565b6000602082019050612e7960008301846129b2565b92915050565b6000608082019050612e9460008301876129c1565b612ea16020830186612dca565b612eae60408301856129c1565b612ebb60608301846129c1565b95945050505050565b60006020820190508181036000830152612ede8184612a09565b905092915050565b60006040820190508181036000830152612f008185612a09565b9050612f0f6020830184612dbb565b9392505050565b60006020820190508181036000830152612f2f81612a73565b9050919050565b60006020820190508181036000830152612f4f81612a96565b9050919050565b60006020820190508181036000830152612f6f81612ab9565b9050919050565b60006020820190508181036000830152612f8f81612adc565b9050919050565b60006020820190508181036000830152612faf81612aff565b9050919050565b60006020820190508181036000830152612fcf81612b22565b9050919050565b60006020820190508181036000830152612fef81612b45565b9050919050565b6000602082019050818103600083015261300f81612b68565b9050919050565b6000602082019050818103600083015261302f81612b8b565b9050919050565b6000602082019050818103600083015261304f81612bae565b9050919050565b6000602082019050818103600083015261306f81612bd1565b9050919050565b6000602082019050818103600083015261308f81612bf4565b9050919050565b600060208201905081810360008301526130af81612c17565b9050919050565b600060208201905081810360008301526130cf81612c3a565b9050919050565b600060208201905081810360008301526130ef81612c5d565b9050919050565b6000602082019050818103600083015261310f81612c80565b9050919050565b6000602082019050818103600083015261312f81612ca3565b9050919050565b6000602082019050818103600083015261314f81612cc6565b9050919050565b6000602082019050818103600083015261316f81612ce9565b9050919050565b6000602082019050818103600083015261318f81612d0c565b9050919050565b600060208201905081810360008301526131af81612d2f565b9050919050565b600060208201905081810360008301526131cf81612d52565b9050919050565b600060208201905081810360008301526131ef81612d75565b9050919050565b6000602082019050818103600083015261320f81612d98565b9050919050565b600060208201905061322b6000830184612dbb565b92915050565b600061323b61324c565b905061324782826134b5565b919050565b6000604051905090565b600067ffffffffffffffff821115613271576132706135ed565b5b61327a8261361c565b9050602081019050919050565b600067ffffffffffffffff8211156132a2576132a16135ed565b5b6132ab8261361c565b9050602081019050919050565b600081519050919050565b600081519050919050565b600082825260208201905092915050565b600082825260208201905092915050565b600081905092915050565b60006133068261342a565b91506133118361342a565b9250827fffffffffffffffffffffffffffffffffffffffffffffffffffffffffffffffff0382111561334657613345613560565b5b828201905092915050565b600061335c8261342a565b91506133678361342a565b9250826133775761337661358f565b5b828204905092915050565b600061338d8261342a565b91506133988361342a565b9250828210156133ab576133aa613560565b5b828203905092915050565b60006133c18261340a565b9050919050565b60008115159050919050565b6000819050919050565b60007fffffffff0000000000000000000000000000000000000000000000000000000082169050919050565b600073ffffffffffffffffffffffffffffffffffffffff82169050919050565b6000819050919050565b600060ff82169050919050565b82818337600083830152505050565b60005b8381101561346e578082015181840152602081019050613453565b8381111561347d576000848401525b50505050565b6000600282049050600182168061349b57607f821691505b602082108114156134af576134ae6135be565b5b50919050565b6134be8261361c565b810181811067ffffffffffffffff821117156134dd576134dc6135ed565b5b80604052505050565b60006134f18261342a565b91507fffffffffffffffffffffffffffffffffffffffffffffffffffffffffffffffff82141561352457613523613560565b5b600182019050919050565b600061353a8261342a565b91506135458361342a565b9250826135555761355461358f565b5b828206905092915050565b7f4e487b7100000000000000000000000000000000000000000000000000000000600052601160045260246000fd5b7f4e487b7100000000000000000000000000000000000000000000000000000000600052601260045260246000fd5b7f4e487b7100000000000000000000000000000000000000000000000000000000600052602260045260246000fd5b7f4e487b7100000000000000000000000000000000000000000000000000000000600052604160045260246000fd5b6000601f19601f8301169050919050565b7f45434453413a20696e76616c6964207369676e61747572650000000000000000600082015250565b7f45434453413a20696e76616c6964207369676e6174757265206c656e67746800600082015250565b7f4552433732313a207472616e7366657220746f206e6f6e20455243373231526560008201527f63656976657220696d706c656d656e7465720000000000000000000000000000602082015250565b7f4f776e61626c653a206e6577206f776e657220697320746865207a65726f206160008201527f6464726573730000000000000000000000000000000000000000000000000000602082015250565b7f4552433732313a20746f6b656e20616c7265616479206d696e74656400000000600082015250565b7f4552433732313a207472616e7366657220746f20746865207a65726f2061646460008201527f7265737300000000000000000000000000000000000000000000000000000000602082015250565b7f4552433732313a20617070726f766520746f2063616c6c657200000000000000600082015250565b7f45434453413a20696e76616c6964207369676e6174757265202773272076616c60008201527f7565000000000000000000000000000000000000000000000000000000000000602082015250565b7f4552433732313a206f70657261746f7220717565727920666f72206e6f6e657860008201527f697374656e7420746f6b656e0000000000000000000000000000000000000000602082015250565b7f4552433732313a20617070726f76652063616c6c6572206973206e6f74206f7760008201527f6e6572206e6f7220617070726f76656420666f7220616c6c0000000000000000602082015250565b7f4552433732313a2062616c616e636520717565727920666f7220746865207a6560008201527f726f206164647265737300000000000000000000000000000000000000000000602082015250565b7f4552433732313a206f776e657220717565727920666f72206e6f6e657869737460008201527f656e7420746f6b656e0000000000000000000000000000000000000000000000602082015250565b7f45524337323155524953746f726167653a2055524920736574206f66206e6f6e60008201527f6578697374656e7420746f6b656e000000000000000000000000000000000000602082015250565b7f45434453413a20696e76616c6964207369676e6174757265202776272076616c60008201527f7565000000000000000000000000000000000000000000000000000000000000602082015250565b7f4552433732313a206d696e7420746f20746865207a65726f2061646472657373600082015250565b7f45524337323155524953746f726167653a2055524920717565727920666f722060008201527f6e6f6e6578697374656e7420746f6b656e000000000000000000000000000000602082015250565b7f4552433732313a20617070726f76656420717565727920666f72206e6f6e657860008201527f697374656e7420746f6b656e0000000000000000000000000000000000000000602082015250565b7f4f776e61626c653a2063616c6c6572206973206e6f7420746865206f776e6572600082015250565b7f4552433732313a207472616e73666572206f6620746f6b656e2074686174206960008201527f73206e6f74206f776e0000000000000000000000000000000000000000000000602082015250565b7f4552433732314d657461646174613a2055524920717565727920666f72206e6f60008201527f6e6578697374656e7420746f6b656e0000000000000000000000000000000000602082015250565b7f4552433732313a20617070726f76616c20746f2063757272656e74206f776e6560008201527f7200000000000000000000000000000000000000000000000000000000000000602082015250565b7f4552433732313a207472616e736665722063616c6c6572206973206e6f74206f60008201527f776e6572206e6f7220617070726f766564000000000000000000000000000000602082015250565b7f4574686572206973206e6f7420656e6f75676820746f206d696e74204e465400600082015250565b7f44656e6965642100000000000000000000000000000000000000000000000000600082015250565b613c6e816133b6565b8114613c7957600080fd5b50565b613c85816133c8565b8114613c9057600080fd5b50565b613c9c816133d4565b8114613ca757600080fd5b50565b613cb3816133de565b8114613cbe57600080fd5b50565b613cca8161342a565b8114613cd557600080fd5b5056fea26469706673582212209e1d084992564cf66954c7593a57add106ac1c80d6ef58432961a8d87f20a6d064736f6c63430008040033",
  "linkReferences": {},
  "deployedLinkReferences": {}
}