{
  "_format": "hh-sol-artifact-1",
  "contractName": "Burger",
  "sourceName": "contracts/Burger.sol",
  "abi": [
    {
      "inputs": [],
      "stateMutability": "nonpayable",
      "type": "constructor"
    },
    {
      "anonymous": false,
      "inputs": [
        {
          "indexed": true,
          "internalType": "address",
          "name": "owner",
          "type": "address"
        },
        {
          "indexed": true,
          "internalType": "address",
          "name": "approved",
          "type": "address"
        },
        {
          "indexed": true,
          "internalType": "uint256",
          "name": "tokenId",
          "type": "uint256"
        }
      ],
      "name": "Approval",
      "type": "event"
    },
    {
      "anonymous": false,
      "inputs": [
        {
          "indexed": true,
          "internalType": "address",
          "name": "owner",
          "type": "address"
        },
        {
          "indexed": true,
          "internalType": "address",
          "name": "operator",
          "type": "address"
        },
        {
          "indexed": false,
          "internalType": "bool",
          "name": "approved",
          "type": "bool"
        }
      ],
      "name": "ApprovalForAll",
      "type": "event"
    },
    {
      "anonymous": false,
      "inputs": [
        {
          "indexed": true,
          "internalType": "address",
          "name": "_to",
          "type": "address"
        },
        {
          "indexed": true,
          "internalType": "uint256",
          "name": "_id",
          "type": "uint256"
        },
        {
          "indexed": true,
          "internalType": "uint8",
          "name": "_boxType",
          "type": "uint8"
        }
      ],
      "name": "MintNFT",
      "type": "event"
    },
    {
      "anonymous": false,
      "inputs": [
        {
          "indexed": true,
          "internalType": "address",
          "name": "previousOwner",
          "type": "address"
        },
        {
          "indexed": true,
          "internalType": "address",
          "name": "newOwner",
          "type": "address"
        }
      ],
      "name": "OwnershipTransferred",
      "type": "event"
    },
    {
      "anonymous": false,
      "inputs": [
        {
          "indexed": false,
          "internalType": "address",
          "name": "account",
          "type": "address"
        }
      ],
      "name": "Paused",
      "type": "event"
    },
    {
      "anonymous": false,
      "inputs": [
        {
          "indexed": true,
          "internalType": "address",
          "name": "from",
          "type": "address"
        },
        {
          "indexed": true,
          "internalType": "address",
          "name": "to",
          "type": "address"
        },
        {
          "indexed": true,
          "internalType": "uint256",
          "name": "tokenId",
          "type": "uint256"
        }
      ],
      "name": "Transfer",
      "type": "event"
    },
    {
      "anonymous": false,
      "inputs": [
        {
          "indexed": false,
          "internalType": "address",
          "name": "account",
          "type": "address"
        }
      ],
      "name": "Unpaused",
      "type": "event"
    },
    {
      "anonymous": false,
      "inputs": [
        {
          "indexed": false,
          "internalType": "bool",
          "name": "isWhiteList",
          "type": "bool"
        }
      ],
      "name": "whitelistModeChanged",
      "type": "event"
    },
    {
      "inputs": [
        {
          "internalType": "uint256",
          "name": "",
          "type": "uint256"
        }
      ],
      "name": "_limitTokenAmountPerBoxtype",
      "outputs": [
        {
          "internalType": "uint64",
          "name": "",
          "type": "uint64"
        }
      ],
      "stateMutability": "view",
      "type": "function"
    },
    {
      "inputs": [
        {
          "internalType": "uint256",
          "name": "",
          "type": "uint256"
        }
      ],
      "name": "_tokenSupply",
      "outputs": [
        {
          "internalType": "uint256",
          "name": "",
          "type": "uint256"
        }
      ],
      "stateMutability": "view",
      "type": "function"
    },
    {
      "inputs": [
        {
          "internalType": "address",
          "name": "to",
          "type": "address"
        },
        {
          "internalType": "uint256",
          "name": "tokenId",
          "type": "uint256"
        }
      ],
      "name": "approve",
      "outputs": [],
      "stateMutability": "nonpayable",
      "type": "function"
    },
    {
      "inputs": [
        {
          "internalType": "address",
          "name": "owner",
          "type": "address"
        }
      ],
      "name": "balanceOf",
      "outputs": [
        {
          "internalType": "uint256",
          "name": "",
          "type": "uint256"
        }
      ],
      "stateMutability": "view",
      "type": "function"
    },
    {
      "inputs": [
        {
          "internalType": "uint256",
          "name": "",
          "type": "uint256"
        }
      ],
      "name": "boxPriceBNB",
      "outputs": [
        {
          "internalType": "uint256",
          "name": "",
          "type": "uint256"
        }
      ],
      "stateMutability": "view",
      "type": "function"
    },
    {
      "inputs": [
        {
          "internalType": "uint256",
          "name": "",
          "type": "uint256"
        }
      ],
      "name": "boxPriceBURG",
      "outputs": [
        {
          "internalType": "uint256",
          "name": "",
          "type": "uint256"
        }
      ],
      "stateMutability": "view",
      "type": "function"
    },
    {
      "inputs": [
        {
          "internalType": "string",
          "name": "newBaseTokenURI",
          "type": "string"
        }
      ],
      "name": "changeBaseTokenURI",
      "outputs": [],
      "stateMutability": "nonpayable",
      "type": "function"
    },
    {
      "inputs": [
        {
          "internalType": "bytes32",
          "name": "newRoot",
          "type": "bytes32"
        }
      ],
      "name": "changeRoot",
      "outputs": [],
      "stateMutability": "nonpayable",
      "type": "function"
    },
    {
      "inputs": [
        {
          "internalType": "bool",
          "name": "newState",
          "type": "bool"
        }
      ],
      "name": "changeWhitelistState",
      "outputs": [],
      "stateMutability": "nonpayable",
      "type": "function"
    },
    {
      "inputs": [
        {
          "internalType": "uint256",
          "name": "tokenId",
          "type": "uint256"
        }
      ],
      "name": "getApproved",
      "outputs": [
        {
          "internalType": "address",
          "name": "",
          "type": "address"
        }
      ],
      "stateMutability": "view",
      "type": "function"
    },
    {
      "inputs": [
        {
          "internalType": "uint256",
          "name": "_tokenId",
          "type": "uint256"
        }
      ],
      "name": "getboxTypeById",
      "outputs": [
        {
          "internalType": "uint8",
          "name": "",
          "type": "uint8"
        }
      ],
      "stateMutability": "view",
      "type": "function"
    },
    {
      "inputs": [
        {
          "internalType": "address",
          "name": "owner",
          "type": "address"
        },
        {
          "internalType": "address",
          "name": "operator",
          "type": "address"
        }
      ],
      "name": "isApprovedForAll",
      "outputs": [
        {
          "internalType": "bool",
          "name": "",
          "type": "bool"
        }
      ],
      "stateMutability": "view",
      "type": "function"
    },
    {
      "inputs": [
        {
          "internalType": "address",
          "name": "_to",
          "type": "address"
        }
      ],
      "name": "mintForGoldenTicket",
      "outputs": [
        {
          "internalType": "uint256",
          "name": "",
          "type": "uint256"
        }
      ],
      "stateMutability": "nonpayable",
      "type": "function"
    },
    {
      "inputs": [
        {
          "internalType": "uint8",
          "name": "boxType",
          "type": "uint8"
        }
      ],
      "name": "mintNormal",
      "outputs": [
        {
          "internalType": "uint256",
          "name": "",
          "type": "uint256"
        }
      ],
      "stateMutability": "payable",
      "type": "function"
    },
    {
      "inputs": [
        {
          "internalType": "uint8",
          "name": "boxType",
          "type": "uint8"
        }
      ],
      "name": "mintNormalBURG",
      "outputs": [
        {
          "internalType": "uint256",
          "name": "",
          "type": "uint256"
        }
      ],
      "stateMutability": "nonpayable",
      "type": "function"
    },
    {
      "inputs": [
        {
          "internalType": "address",
          "name": "_to",
          "type": "address"
        },
        {
          "internalType": "uint8",
          "name": "boxType",
          "type": "uint8"
        }
      ],
      "name": "mintOwner",
      "outputs": [
        {
          "internalType": "uint256",
          "name": "",
          "type": "uint256"
        }
      ],
      "stateMutability": "nonpayable",
      "type": "function"
    },
    {
      "inputs": [
        {
          "internalType": "bytes32[]",
          "name": "proof",
          "type": "bytes32[]"
        },
        {
          "internalType": "uint8",
          "name": "boxType",
          "type": "uint8"
        }
      ],
      "name": "mintWhitelist",
      "outputs": [],
      "stateMutability": "payable",
      "type": "function"
    },
    {
      "inputs": [],
      "name": "name",
      "outputs": [
        {
          "internalType": "string",
          "name": "",
          "type": "string"
        }
      ],
      "stateMutability": "view",
      "type": "function"
    },
    {
      "inputs": [],
      "name": "owner",
      "outputs": [
        {
          "internalType": "address",
          "name": "",
          "type": "address"
        }
      ],
      "stateMutability": "view",
      "type": "function"
    },
    {
      "inputs": [
        {
          "internalType": "uint256",
          "name": "tokenId",
          "type": "uint256"
        }
      ],
      "name": "ownerOf",
      "outputs": [
        {
          "internalType": "address",
          "name": "",
          "type": "address"
        }
      ],
      "stateMutability": "view",
      "type": "function"
    },
    {
      "inputs": [],
      "name": "pause",
      "outputs": [
        {
          "internalType": "bool",
          "name": "",
          "type": "bool"
        }
      ],
      "stateMutability": "nonpayable",
      "type": "function"
    },
    {
      "inputs": [],
      "name": "paused",
      "outputs": [
        {
          "internalType": "bool",
          "name": "",
          "type": "bool"
        }
      ],
      "stateMutability": "view",
      "type": "function"
    },
    {
      "inputs": [],
      "name": "renounceOwnership",
      "outputs": [],
      "stateMutability": "nonpayable",
      "type": "function"
    },
    {
      "inputs": [
        {
          "internalType": "address",
          "name": "from",
          "type": "address"
        },
        {
          "internalType": "address",
          "name": "to",
          "type": "address"
        },
        {
          "internalType": "uint256",
          "name": "tokenId",
          "type": "uint256"
        }
      ],
      "name": "safeTransferFrom",
      "outputs": [],
      "stateMutability": "nonpayable",
      "type": "function"
    },
    {
      "inputs": [
        {
          "internalType": "address",
          "name": "from",
          "type": "address"
        },
        {
          "internalType": "address",
          "name": "to",
          "type": "address"
        },
        {
          "internalType": "uint256",
          "name": "tokenId",
          "type": "uint256"
        },
        {
          "internalType": "bytes",
          "name": "_data",
          "type": "bytes"
        }
      ],
      "name": "safeTransferFrom",
      "outputs": [],
      "stateMutability": "nonpayable",
      "type": "function"
    },
    {
      "inputs": [],
      "name": "saleBNBEnabled",
      "outputs": [
        {
          "internalType": "bool",
          "name": "",
          "type": "bool"
        }
      ],
      "stateMutability": "view",
      "type": "function"
    },
    {
      "inputs": [],
      "name": "saleBURGEnabled",
      "outputs": [
        {
          "internalType": "bool",
          "name": "",
          "type": "bool"
        }
      ],
      "stateMutability": "view",
      "type": "function"
    },
    {
      "inputs": [
        {
          "internalType": "address",
          "name": "operator",
          "type": "address"
        },
        {
          "internalType": "bool",
          "name": "approved",
          "type": "bool"
        }
      ],
      "name": "setApprovalForAll",
      "outputs": [],
      "stateMutability": "nonpayable",
      "type": "function"
    },
    {
      "inputs": [
        {
          "internalType": "address",
          "name": "_newAddress",
          "type": "address"
        }
      ],
      "name": "setBURGAddress",
      "outputs": [
        {
          "internalType": "bool",
          "name": "",
          "type": "bool"
        }
      ],
      "stateMutability": "nonpayable",
      "type": "function"
    },
    {
      "inputs": [],
      "name": "strBaseTokenURI",
      "outputs": [
        {
          "internalType": "string",
          "name": "",
          "type": "string"
        }
      ],
      "stateMutability": "view",
      "type": "function"
    },
    {
      "inputs": [
        {
          "internalType": "bytes4",
          "name": "interfaceId",
          "type": "bytes4"
        }
      ],
      "name": "supportsInterface",
      "outputs": [
        {
          "internalType": "bool",
          "name": "",
          "type": "bool"
        }
      ],
      "stateMutability": "view",
      "type": "function"
    },
    {
      "inputs": [],
      "name": "symbol",
      "outputs": [
        {
          "internalType": "string",
          "name": "",
          "type": "string"
        }
      ],
      "stateMutability": "view",
      "type": "function"
    },
    {
      "inputs": [
        {
          "internalType": "uint256",
          "name": "index",
          "type": "uint256"
        }
      ],
      "name": "tokenByIndex",
      "outputs": [
        {
          "internalType": "uint256",
          "name": "",
          "type": "uint256"
        }
      ],
      "stateMutability": "view",
      "type": "function"
    },
    {
      "inputs": [
        {
          "internalType": "address",
          "name": "owner",
          "type": "address"
        },
        {
          "internalType": "uint256",
          "name": "index",
          "type": "uint256"
        }
      ],
      "name": "tokenOfOwnerByIndex",
      "outputs": [
        {
          "internalType": "uint256",
          "name": "",
          "type": "uint256"
        }
      ],
      "stateMutability": "view",
      "type": "function"
    },
    {
      "inputs": [
        {
          "internalType": "uint256",
          "name": "_tokenId",
          "type": "uint256"
        }
      ],
      "name": "tokenURI",
      "outputs": [
        {
          "internalType": "string",
          "name": "",
          "type": "string"
        }
      ],
      "stateMutability": "view",
      "type": "function"
    },
    {
      "inputs": [],
      "name": "totalSupply",
      "outputs": [
        {
          "internalType": "uint256",
          "name": "",
          "type": "uint256"
        }
      ],
      "stateMutability": "view",
      "type": "function"
    },
    {
      "inputs": [
        {
          "internalType": "address",
          "name": "from",
          "type": "address"
        },
        {
          "internalType": "address",
          "name": "to",
          "type": "address"
        },
        {
          "internalType": "uint256",
          "name": "tokenId",
          "type": "uint256"
        }
      ],
      "name": "transferFrom",
      "outputs": [],
      "stateMutability": "nonpayable",
      "type": "function"
    },
    {
      "inputs": [
        {
          "internalType": "address",
          "name": "newOwner",
          "type": "address"
        }
      ],
      "name": "transferOwnership",
      "outputs": [],
      "stateMutability": "nonpayable",
      "type": "function"
    },
    {
      "inputs": [],
      "name": "unpause",
      "outputs": [
        {
          "internalType": "bool",
          "name": "",
          "type": "bool"
        }
      ],
      "stateMutability": "nonpayable",
      "type": "function"
    },
    {
      "inputs": [
        {
          "internalType": "uint256[]",
          "name": "_newBoxPricesBNB",
          "type": "uint256[]"
        }
      ],
      "name": "updateBoxPricesBNB",
      "outputs": [
        {
          "internalType": "bool",
          "name": "",
          "type": "bool"
        }
      ],
      "stateMutability": "nonpayable",
      "type": "function"
    },
    {
      "inputs": [
        {
          "internalType": "uint256[]",
          "name": "_newBoxPricesBURG",
          "type": "uint256[]"
        }
      ],
      "name": "updateBoxPricesBURG",
      "outputs": [
        {
          "internalType": "bool",
          "name": "",
          "type": "bool"
        }
      ],
      "stateMutability": "nonpayable",
      "type": "function"
    },
    {
      "inputs": [
        {
          "internalType": "bytes32",
          "name": "leaf",
          "type": "bytes32"
        },
        {
          "internalType": "bytes32[]",
          "name": "proof",
          "type": "bytes32[]"
        }
      ],
      "name": "verifyWhitelist",
      "outputs": [
        {
          "internalType": "bool",
          "name": "",
          "type": "bool"
        }
      ],
      "stateMutability": "view",
      "type": "function"
    },
    {
      "inputs": [
        {
          "internalType": "address",
          "name": "_owner",
          "type": "address"
        }
      ],
      "name": "walletOfOwner",
      "outputs": [
        {
          "internalType": "uint256[]",
          "name": "",
          "type": "uint256[]"
        }
      ],
      "stateMutability": "view",
      "type": "function"
    },
    {
      "inputs": [],
      "name": "whitelistActive",
      "outputs": [
        {
          "internalType": "bool",
          "name": "",
          "type": "bool"
        }
      ],
      "stateMutability": "view",
      "type": "function"
    },
    {
      "inputs": [],
      "name": "whitelistPrice",
      "outputs": [
        {
          "internalType": "uint256",
          "name": "",
          "type": "uint256"
        }
      ],
      "stateMutability": "view",
      "type": "function"
    },
    {
      "inputs": [],
      "name": "withdraw",
      "outputs": [],
      "stateMutability": "nonpayable",
      "type": "function"
    }
  ],
  "bytecode": "0x60806040526040518060600160405280662386f26fc1000066ffffffffffffff16815260200166470de4df82000066ffffffffffffff168152602001666a94d74f43000066ffffffffffffff16815250600d90600362000061929190620003b4565b506040518060600160405280662386f26fc1000066ffffffffffffff16815260200166470de4df82000066ffffffffffffff168152602001666a94d74f43000066ffffffffffffff16815250600e906003620000bf929190620003b4565b5066470de4df820000600f55604051806060016040528060228152602001620064336022913960109080519060200190620000fc92919062000411565b506001601160006101000a81548160ff0219169083151502179055506001601160016101000a81548160ff0219169083151502179055506000601160026101000a81548160ff0219169083151502179055507fa2fc709bf2f4b9cb44b8a9114485d12d4877bb1beedd81f62f4f85a8056480ee60001b6012556040518060600160405280600060ff168152602001600060ff168152602001600060ff168152506014906003620001ae929190620004a2565b50604051806060016040528061113061ffff16815260200161089861ffff16815260200161038461ffff168152506015906003620001ee929190620004f9565b50348015620001fc57600080fd5b506040518060400160405280600681526020017f42757267657200000000000000000000000000000000000000000000000000008152506040518060400160405280600681526020017f425552474552000000000000000000000000000000000000000000000000000081525081600090805190602001906200028192919062000411565b5080600190805190602001906200029a92919062000411565b5050506000600a60006101000a81548160ff021916908315150217905550620002d8620002cc620002e660201b60201c565b620002ee60201b60201c565b6001600b819055506200063a565b600033905090565b6000600a60019054906101000a900473ffffffffffffffffffffffffffffffffffffffff16905081600a60016101000a81548173ffffffffffffffffffffffffffffffffffffffff021916908373ffffffffffffffffffffffffffffffffffffffff1602179055508173ffffffffffffffffffffffffffffffffffffffff168173ffffffffffffffffffffffffffffffffffffffff167f8be0079c531659141344cd1fd0a4f28419497f9722a3daafe3b4186f6b6457e060405160405180910390a35050565b828054828255906000526020600020908101928215620003fe579160200282015b82811115620003fd578251829066ffffffffffffff16905591602001919060010190620003d5565b5b5090506200040d9190620005b6565b5090565b8280546200041f9062000604565b90600052602060002090601f0160209004810192826200044357600085556200048f565b82601f106200045e57805160ff19168380011785556200048f565b828001600101855582156200048f579182015b828111156200048e57825182559160200191906001019062000471565b5b5090506200049e9190620005b6565b5090565b828054828255906000526020600020908101928215620004e6579160200282015b82811115620004e5578251829060ff16905591602001919060010190620004c3565b5b509050620004f59190620005b6565b5090565b82805482825590600052602060002090600301600490048101928215620005a35791602002820160005b838211156200056b57835183826101000a81548167ffffffffffffffff021916908361ffff160217905550926020019260080160208160070104928301926001030262000523565b8015620005a15782816101000a81549067ffffffffffffffff02191690556008016020816007010492830192600103026200056b565b505b509050620005b29190620005b6565b5090565b5b80821115620005d1576000816000905550600101620005b7565b5090565b7f4e487b7100000000000000000000000000000000000000000000000000000000600052602260045260246000fd5b600060028204905060018216806200061d57607f821691505b60208210811415620006345762000633620005d5565b5b50919050565b615de9806200064a6000396000f3fe60806040526004361061027d5760003560e01c8063715018a61161014f578063b88d4fde116100c1578063e0d5f5db1161007a578063e0d5f5db14610a4b578063e40e97a714610a88578063e985e9c514610ab1578063f09542b314610aee578063f2fde38b14610b1e578063fc1a1c3614610b475761027d565b8063b88d4fde14610938578063c87b56dd14610961578063ca8476331461099e578063d124d28f146109c9578063d883656a14610a06578063d9583b9f14610a225761027d565b80638cba90b0116101135780638cba90b0146108025780638d79cc481461083f5780638da5cb5b1461087c57806395d89b41146108a7578063a22cb465146108d2578063a69a6e82146108fb5761027d565b8063715018a61461070957806379d72794146107205780637b125a1d1461075d5780638456cb591461079a57806387ddb7b7146107c55761027d565b806329c7f1fa116101f357806342842e0e116101ac57806342842e0e146105c1578063438b6300146105ea5780634f6ccce7146106275780635c975abb146106645780636352211e1461068f57806370a08231146106cc5761027d565b806329c7f1fa146104b15780632f745c59146104dc578063329ea90d146105195780633ccfd60b146105565780633d59cd601461056d5780633f4ba83a146105965761027d565b8063081812fc11610245578063081812fc1461038f578063095ea7b3146103cc578063120f91d5146103f5578063158d9ac31461043257806318160ddd1461045d57806323b872dd146104885761027d565b8063014d41151461028257806301ffc9a7146102bf57806302ce5813146102fc57806306db2e341461032757806306fdde0314610364575b600080fd5b34801561028e57600080fd5b506102a960048036038101906102a49190613edc565b610b72565b6040516102b69190613f18565b60405180910390f35b3480156102cb57600080fd5b506102e660048036038101906102e19190613f8b565b610b96565b6040516102f39190613fd3565b60405180910390f35b34801561030857600080fd5b50610311610c10565b60405161031e9190613fd3565b60405180910390f35b34801561033357600080fd5b5061034e60048036038101906103499190613edc565b610c23565b60405161035b9190614011565b60405180910390f35b34801561037057600080fd5b50610379610c61565b60405161038691906140c5565b60405180910390f35b34801561039b57600080fd5b506103b660048036038101906103b19190613edc565b610cf3565b6040516103c39190614128565b60405180910390f35b3480156103d857600080fd5b506103f360048036038101906103ee919061416f565b610d78565b005b34801561040157600080fd5b5061041c60048036038101906104179190613edc565b610e90565b6040516104299190613f18565b60405180910390f35b34801561043e57600080fd5b50610447610eb4565b6040516104549190613fd3565b60405180910390f35b34801561046957600080fd5b50610472610ec7565b60405161047f9190613f18565b60405180910390f35b34801561049457600080fd5b506104af60048036038101906104aa91906141af565b610ed4565b005b3480156104bd57600080fd5b506104c6610f34565b6040516104d39190613fd3565b60405180910390f35b3480156104e857600080fd5b5061050360048036038101906104fe919061416f565b610f47565b6040516105109190613f18565b60405180910390f35b34801561052557600080fd5b50610540600480360381019061053b9190614380565b610fec565b60405161054d9190613fd3565b60405180910390f35b34801561056257600080fd5b5061056b6110a4565b005b34801561057957600080fd5b50610594600480360381019061058f91906143dc565b611176565b005b3480156105a257600080fd5b506105ab6111fc565b6040516105b89190613fd3565b60405180910390f35b3480156105cd57600080fd5b506105e860048036038101906105e391906141af565b611289565b005b3480156105f657600080fd5b50610611600480360381019061060c9190614409565b6112a9565b60405161061e91906144f4565b60405180910390f35b34801561063357600080fd5b5061064e60048036038101906106499190613edc565b611357565b60405161065b9190613f18565b60405180910390f35b34801561067057600080fd5b506106796113c8565b6040516106869190613fd3565b60405180910390f35b34801561069b57600080fd5b506106b660048036038101906106b19190613edc565b6113df565b6040516106c39190614128565b60405180910390f35b3480156106d857600080fd5b506106f360048036038101906106ee9190614409565b611491565b6040516107009190613f18565b60405180910390f35b34801561071557600080fd5b5061071e611549565b005b34801561072c57600080fd5b506107476004803603810190610742919061454f565b6115d1565b6040516107549190613f18565b60405180910390f35b34801561076957600080fd5b50610784600480360381019061077f9190614409565b611661565b6040516107919190613fd3565b60405180910390f35b3480156107a657600080fd5b506107af611729565b6040516107bc9190613fd3565b60405180910390f35b3480156107d157600080fd5b506107ec60048036038101906107e79190613edc565b6117b6565b6040516107f99190613f18565b60405180910390f35b34801561080e57600080fd5b5061082960048036038101906108249190613edc565b6117da565b604051610836919061459e565b60405180910390f35b34801561084b57600080fd5b5061086660048036038101906108619190614409565b61184c565b6040516108739190613f18565b60405180910390f35b34801561088857600080fd5b506108916118dc565b60405161089e9190614128565b60405180910390f35b3480156108b357600080fd5b506108bc611906565b6040516108c991906140c5565b60405180910390f35b3480156108de57600080fd5b506108f960048036038101906108f491906145e5565b611998565b005b34801561090757600080fd5b50610922600480360381019061091d91906146e8565b611b19565b60405161092f9190613fd3565b60405180910390f35b34801561094457600080fd5b5061095f600480360381019061095a91906147e6565b611bb7565b005b34801561096d57600080fd5b5061098860048036038101906109839190613edc565b611c19565b60405161099591906140c5565b60405180910390f35b3480156109aa57600080fd5b506109b3611c9b565b6040516109c091906140c5565b60405180910390f35b3480156109d557600080fd5b506109f060048036038101906109eb9190614869565b611d29565b6040516109fd9190613f18565b60405180910390f35b610a206004803603810190610a1b9190614896565b612186565b005b348015610a2e57600080fd5b50610a496004803603810190610a4491906148f2565b612463565b005b348015610a5757600080fd5b50610a726004803603810190610a6d91906146e8565b612542565b604051610a7f9190613fd3565b60405180910390f35b348015610a9457600080fd5b50610aaf6004803603810190610aaa91906149c0565b6125e0565b005b348015610abd57600080fd5b50610ad86004803603810190610ad39190614a09565b612676565b604051610ae59190613fd3565b60405180910390f35b610b086004803603810190610b039190614869565b61270a565b604051610b159190613f18565b60405180910390f35b348015610b2a57600080fd5b50610b456004803603810190610b409190614409565b612937565b005b348015610b5357600080fd5b50610b5c612a2f565b604051610b699190613f18565b60405180910390f35b60148181548110610b8257600080fd5b906000526020600020016000915090505481565b60007f780e9d63000000000000000000000000000000000000000000000000000000007bffffffffffffffffffffffffffffffffffffffffffffffffffffffff1916827bffffffffffffffffffffffffffffffffffffffffffffffffffffffff19161480610c095750610c0882612a35565b5b9050919050565b601160029054906101000a900460ff1681565b60158181548110610c3357600080fd5b9060005260206000209060049182820401919006600802915054906101000a900467ffffffffffffffff1681565b606060008054610c7090614a78565b80601f0160208091040260200160405190810160405280929190818152602001828054610c9c90614a78565b8015610ce95780601f10610cbe57610100808354040283529160200191610ce9565b820191906000526020600020905b815481529060010190602001808311610ccc57829003601f168201915b5050505050905090565b6000610cfe82612b17565b610d3d576040517f08c379a0000000000000000000000000000000000000000000000000000000008152600401610d3490614b1c565b60405180910390fd5b6004600083815260200190815260200160002060009054906101000a900473ffffffffffffffffffffffffffffffffffffffff169050919050565b6000610d83826113df565b90508073ffffffffffffffffffffffffffffffffffffffff168373ffffffffffffffffffffffffffffffffffffffff161415610df4576040517f08c379a0000000000000000000000000000000000000000000000000000000008152600401610deb90614bae565b60405180910390fd5b8073ffffffffffffffffffffffffffffffffffffffff16610e13612b83565b73ffffffffffffffffffffffffffffffffffffffff161480610e425750610e4181610e3c612b83565b612676565b5b610e81576040517f08c379a0000000000000000000000000000000000000000000000000000000008152600401610e7890614c40565b60405180910390fd5b610e8b8383612b8b565b505050565b600d8181548110610ea057600080fd5b906000526020600020016000915090505481565b601160019054906101000a900460ff1681565b6000600880549050905090565b610ee5610edf612b83565b82612c44565b610f24576040517f08c379a0000000000000000000000000000000000000000000000000000000008152600401610f1b90614cd2565b60405180910390fd5b610f2f838383612d22565b505050565b601160009054906101000a900460ff1681565b6000610f5283611491565b8210610f93576040517f08c379a0000000000000000000000000000000000000000000000000000000008152600401610f8a90614d64565b60405180910390fd5b600660008473ffffffffffffffffffffffffffffffffffffffff1673ffffffffffffffffffffffffffffffffffffffff168152602001908152602001600020600083815260200190815260200160002054905092915050565b60008083905060005b835181101561109557600084828151811061101357611012614d84565b5b6020026020010151905080831015611055578281604051602001611038929190614dd4565b604051602081830303815290604052805190602001209250611081565b8083604051602001611068929190614dd4565b6040516020818303038152906040528051906020012092505b50808061108d90614e2f565b915050610ff5565b50601254811491505092915050565b6110ac612b83565b73ffffffffffffffffffffffffffffffffffffffff166110ca6118dc565b73ffffffffffffffffffffffffffffffffffffffff1614611120576040517f08c379a000000000000000000000000000000000000000000000000000000000815260040161111790614ec4565b60405180910390fd5b600047905061112d6118dc565b73ffffffffffffffffffffffffffffffffffffffff166108fc829081150290604051600060405180830381858888f19350505050158015611172573d6000803e3d6000fd5b5050565b61117e612b83565b73ffffffffffffffffffffffffffffffffffffffff1661119c6118dc565b73ffffffffffffffffffffffffffffffffffffffff16146111f2576040517f08c379a00000000000000000000000000000000000000000000000000000000081526004016111e990614ec4565b60405180910390fd5b8060128190555050565b6000611206612b83565b73ffffffffffffffffffffffffffffffffffffffff166112246118dc565b73ffffffffffffffffffffffffffffffffffffffff161461127a576040517f08c379a000000000000000000000000000000000000000000000000000000000815260040161127190614ec4565b60405180910390fd5b611282612f7e565b6001905090565b6112a483838360405180602001604052806000815250611bb7565b505050565b606060006112b683611491565b905060008167ffffffffffffffff8111156112d4576112d361423d565b5b6040519080825280602002602001820160405280156113025781602001602082028036833780820191505090505b50905060005b8281101561134c5761131a8582610f47565b82828151811061132d5761132c614d84565b5b602002602001018181525050808061134490614e2f565b915050611308565b508092505050919050565b6000611361610ec7565b82106113a2576040517f08c379a000000000000000000000000000000000000000000000000000000000815260040161139990614f56565b60405180910390fd5b600882815481106113b6576113b5614d84565b5b90600052602060002001549050919050565b6000600a60009054906101000a900460ff16905090565b6000806002600084815260200190815260200160002060009054906101000a900473ffffffffffffffffffffffffffffffffffffffff169050600073ffffffffffffffffffffffffffffffffffffffff168173ffffffffffffffffffffffffffffffffffffffff161415611488576040517f08c379a000000000000000000000000000000000000000000000000000000000815260040161147f90614fe8565b60405180910390fd5b80915050919050565b60008073ffffffffffffffffffffffffffffffffffffffff168273ffffffffffffffffffffffffffffffffffffffff161415611502576040517f08c379a00000000000000000000000000000000000000000000000000000000081526004016114f99061507a565b60405180910390fd5b600360008373ffffffffffffffffffffffffffffffffffffffff1673ffffffffffffffffffffffffffffffffffffffff168152602001908152602001600020549050919050565b611551612b83565b73ffffffffffffffffffffffffffffffffffffffff1661156f6118dc565b73ffffffffffffffffffffffffffffffffffffffff16146115c5576040517f08c379a00000000000000000000000000000000000000000000000000000000081526004016115bc90614ec4565b60405180910390fd5b6115cf6000613020565b565b60006115db612b83565b73ffffffffffffffffffffffffffffffffffffffff166115f96118dc565b73ffffffffffffffffffffffffffffffffffffffff161461164f576040517f08c379a000000000000000000000000000000000000000000000000000000000815260040161164690614ec4565b60405180910390fd5b61165983836130e6565b905092915050565b600061166b612b83565b73ffffffffffffffffffffffffffffffffffffffff166116896118dc565b73ffffffffffffffffffffffffffffffffffffffff16146116df576040517f08c379a00000000000000000000000000000000000000000000000000000000081526004016116d690614ec4565b60405180910390fd5b81601360006101000a81548173ffffffffffffffffffffffffffffffffffffffff021916908373ffffffffffffffffffffffffffffffffffffffff16021790555060019050919050565b6000611733612b83565b73ffffffffffffffffffffffffffffffffffffffff166117516118dc565b73ffffffffffffffffffffffffffffffffffffffff16146117a7576040517f08c379a000000000000000000000000000000000000000000000000000000000815260040161179e90614ec4565b60405180910390fd5b6117af6131da565b6001905090565b600e81815481106117c657600080fd5b906000526020600020016000915090505481565b60006117e582612b17565b611824576040517f08c379a000000000000000000000000000000000000000000000000000000000815260040161181b906150e6565b60405180910390fd5b600c600083815260200190815260200160002060009054906101000a900460ff169050919050565b6000611856612b83565b73ffffffffffffffffffffffffffffffffffffffff166118746118dc565b73ffffffffffffffffffffffffffffffffffffffff16146118ca576040517f08c379a00000000000000000000000000000000000000000000000000000000081526004016118c190614ec4565b60405180910390fd5b6118d58260016130e6565b9050919050565b6000600a60019054906101000a900473ffffffffffffffffffffffffffffffffffffffff16905090565b60606001805461191590614a78565b80601f016020809104026020016040519081016040528092919081815260200182805461194190614a78565b801561198e5780601f106119635761010080835404028352916020019161198e565b820191906000526020600020905b81548152906001019060200180831161197157829003601f168201915b5050505050905090565b6119a0612b83565b73ffffffffffffffffffffffffffffffffffffffff168273ffffffffffffffffffffffffffffffffffffffff161415611a0e576040517f08c379a0000000000000000000000000000000000000000000000000000000008152600401611a0590615152565b60405180910390fd5b8060056000611a1b612b83565b73ffffffffffffffffffffffffffffffffffffffff1673ffffffffffffffffffffffffffffffffffffffff16815260200190815260200160002060008473ffffffffffffffffffffffffffffffffffffffff1673ffffffffffffffffffffffffffffffffffffffff16815260200190815260200160002060006101000a81548160ff0219169083151502179055508173ffffffffffffffffffffffffffffffffffffffff16611ac8612b83565b73ffffffffffffffffffffffffffffffffffffffff167f17307eab39ab6107e8899845ad3d59bd9653f200f220920489ca2b5937696c3183604051611b0d9190613fd3565b60405180910390a35050565b6000611b23612b83565b73ffffffffffffffffffffffffffffffffffffffff16611b416118dc565b73ffffffffffffffffffffffffffffffffffffffff1614611b97576040517f08c379a0000000000000000000000000000000000000000000000000000000008152600401611b8e90614ec4565b60405180910390fd5b81600d9080519060200190611bad929190613da2565b5060019050919050565b611bc8611bc2612b83565b83612c44565b611c07576040517f08c379a0000000000000000000000000000000000000000000000000000000008152600401611bfe90614cd2565b60405180910390fd5b611c138484848461327d565b50505050565b6060611c2482612b17565b611c63576040517f08c379a0000000000000000000000000000000000000000000000000000000008152600401611c5a906150e6565b60405180910390fd5b611c6b6132d9565b611c748361336b565b604051602001611c859291906151ae565b6040516020818303038152906040529050919050565b60108054611ca890614a78565b80601f0160208091040260200160405190810160405280929190818152602001828054611cd490614a78565b8015611d215780601f10611cf657610100808354040283529160200191611d21565b820191906000526020600020905b815481529060010190602001808311611d0457829003601f168201915b505050505081565b6000611d336113c8565b15611d73576040517f08c379a0000000000000000000000000000000000000000000000000000000008152600401611d6a9061521e565b60405180910390fd5b6002600b541415611db9576040517f08c379a0000000000000000000000000000000000000000000000000000000008152600401611db09061528a565b60405180910390fd5b6002600b81905550601160029054906101000a900460ff1615611e11576040517f08c379a0000000000000000000000000000000000000000000000000000000008152600401611e08906152f6565b60405180910390fd5b601160019054906101000a900460ff16611e60576040517f08c379a0000000000000000000000000000000000000000000000000000000008152600401611e5790615362565b60405180910390fd5b600e8260ff1681548110611e7757611e76614d84565b5b9060005260206000200154601360009054906101000a900473ffffffffffffffffffffffffffffffffffffffff1673ffffffffffffffffffffffffffffffffffffffff1663dd62ed3e33306040518363ffffffff1660e01b8152600401611edf929190615382565b60206040518083038186803b158015611ef757600080fd5b505afa158015611f0b573d6000803e3d6000fd5b505050506040513d601f19601f82011682018060405250810190611f2f91906153c0565b1015611f70576040517f08c379a0000000000000000000000000000000000000000000000000000000008152600401611f6790615439565b60405180910390fd5b601360009054906101000a900473ffffffffffffffffffffffffffffffffffffffff1673ffffffffffffffffffffffffffffffffffffffff166323b872dd33611fb76118dc565b611fff6064611ff16008600e8a60ff1681548110611fd857611fd7614d84565b5b90600052602060002001546134cc90919063ffffffff16565b6134e290919063ffffffff16565b6040518463ffffffff1660e01b815260040161201d93929190615459565b602060405180830381600087803b15801561203757600080fd5b505af115801561204b573d6000803e3d6000fd5b505050506040513d601f19601f8201168201806040525081019061206f91906154a5565b50601360009054906101000a900473ffffffffffffffffffffffffffffffffffffffff1673ffffffffffffffffffffffffffffffffffffffff16639dc29fac336120f760646120e9605c600e8960ff16815481106120d0576120cf614d84565b5b90600052602060002001546134cc90919063ffffffff16565b6134e290919063ffffffff16565b6040518363ffffffff1660e01b81526004016121149291906154d2565b602060405180830381600087803b15801561212e57600080fd5b505af1158015612142573d6000803e3d6000fd5b505050506040513d601f19601f8201168201806040525081019061216691906154a5565b50600061217333846130e6565b9050809150506001600b81905550919050565b61218e6113c8565b156121ce576040517f08c379a00000000000000000000000000000000000000000000000000000000081526004016121c59061521e565b60405180910390fd5b6002600b541415612214576040517f08c379a000000000000000000000000000000000000000000000000000000000815260040161220b9061528a565b60405180910390fd5b6002600b81905550601160029054906101000a900460ff1661226b576040517f08c379a000000000000000000000000000000000000000000000000000000000815260040161226290615547565b60405180910390fd5b600d8160ff168154811061228257612281614d84565b5b90600052602060002001543410156122cf576040517f08c379a00000000000000000000000000000000000000000000000000000000081526004016122c6906155b3565b60405180910390fd5b60158160ff16815481106122e6576122e5614d84565b5b90600052602060002090600491828204019190066008029054906101000a900467ffffffffffffffff1667ffffffffffffffff1660148260ff168154811061233157612330614d84565b5b90600052602060002001541061237c576040517f08c379a00000000000000000000000000000000000000000000000000000000081526004016123739061561f565b60405180910390fd5b600061239061238a336134f8565b84610fec565b905080156123a8576123a233836130e6565b506123e3565b6040517f08c379a00000000000000000000000000000000000000000000000000000000081526004016123da9061568b565b60405180910390fd5b3373ffffffffffffffffffffffffffffffffffffffff166108fc600d8460ff168154811061241457612413614d84565b5b90600052602060002001543461242a91906156ab565b9081150290604051600060405180830381858888f19350505050158015612455573d6000803e3d6000fd5b50506001600b819055505050565b61246b612b83565b73ffffffffffffffffffffffffffffffffffffffff166124896118dc565b73ffffffffffffffffffffffffffffffffffffffff16146124df576040517f08c379a00000000000000000000000000000000000000000000000000000000081526004016124d690614ec4565b60405180910390fd5b80601160026101000a81548160ff0219169083151502179055507f52cf77d97507bfe5c826e8a0dd53032bac06a11f9d0db13603d9887ed5cbf217601160029054906101000a900460ff166040516125379190613fd3565b60405180910390a150565b600061254c612b83565b73ffffffffffffffffffffffffffffffffffffffff1661256a6118dc565b73ffffffffffffffffffffffffffffffffffffffff16146125c0576040517f08c379a00000000000000000000000000000000000000000000000000000000081526004016125b790614ec4565b60405180910390fd5b81600e90805190602001906125d6929190613da2565b5060019050919050565b6125e8612b83565b73ffffffffffffffffffffffffffffffffffffffff166126066118dc565b73ffffffffffffffffffffffffffffffffffffffff161461265c576040517f08c379a000000000000000000000000000000000000000000000000000000000815260040161265390614ec4565b60405180910390fd5b8060109080519060200190612672929190613def565b5050565b6000600560008473ffffffffffffffffffffffffffffffffffffffff1673ffffffffffffffffffffffffffffffffffffffff16815260200190815260200160002060008373ffffffffffffffffffffffffffffffffffffffff1673ffffffffffffffffffffffffffffffffffffffff16815260200190815260200160002060009054906101000a900460ff16905092915050565b60006127146113c8565b15612754576040517f08c379a000000000000000000000000000000000000000000000000000000000815260040161274b9061521e565b60405180910390fd5b6002600b54141561279a576040517f08c379a00000000000000000000000000000000000000000000000000000000081526004016127919061528a565b60405180910390fd5b6002600b81905550601160029054906101000a900460ff16156127f2576040517f08c379a00000000000000000000000000000000000000000000000000000000081526004016127e9906152f6565b60405180910390fd5b601160009054906101000a900460ff16612841576040517f08c379a000000000000000000000000000000000000000000000000000000000815260040161283890615362565b60405180910390fd5b600d8260ff168154811061285857612857614d84565b5b90600052602060002001543410156128a5576040517f08c379a000000000000000000000000000000000000000000000000000000000815260040161289c906155b3565b60405180910390fd5b60006128b133846130e6565b90503373ffffffffffffffffffffffffffffffffffffffff166108fc600d8560ff16815481106128e4576128e3614d84565b5b9060005260206000200154346128fa91906156ab565b9081150290604051600060405180830381858888f19350505050158015612925573d6000803e3d6000fd5b50809150506001600b81905550919050565b61293f612b83565b73ffffffffffffffffffffffffffffffffffffffff1661295d6118dc565b73ffffffffffffffffffffffffffffffffffffffff16146129b3576040517f08c379a00000000000000000000000000000000000000000000000000000000081526004016129aa90614ec4565b60405180910390fd5b600073ffffffffffffffffffffffffffffffffffffffff168173ffffffffffffffffffffffffffffffffffffffff161415612a23576040517f08c379a0000000000000000000000000000000000000000000000000000000008152600401612a1a90615751565b60405180910390fd5b612a2c81613020565b50565b600f5481565b60007f80ac58cd000000000000000000000000000000000000000000000000000000007bffffffffffffffffffffffffffffffffffffffffffffffffffffffff1916827bffffffffffffffffffffffffffffffffffffffffffffffffffffffff19161480612b0057507f5b5e139f000000000000000000000000000000000000000000000000000000007bffffffffffffffffffffffffffffffffffffffffffffffffffffffff1916827bffffffffffffffffffffffffffffffffffffffffffffffffffffffff1916145b80612b105750612b0f82613528565b5b9050919050565b60008073ffffffffffffffffffffffffffffffffffffffff166002600084815260200190815260200160002060009054906101000a900473ffffffffffffffffffffffffffffffffffffffff1673ffffffffffffffffffffffffffffffffffffffff1614159050919050565b600033905090565b816004600083815260200190815260200160002060006101000a81548173ffffffffffffffffffffffffffffffffffffffff021916908373ffffffffffffffffffffffffffffffffffffffff160217905550808273ffffffffffffffffffffffffffffffffffffffff16612bfe836113df565b73ffffffffffffffffffffffffffffffffffffffff167f8c5be1e5ebec7d5bd14f71427d1e84f3dd0314c0f7b2291e5b200ac8c7c3b92560405160405180910390a45050565b6000612c4f82612b17565b612c8e576040517f08c379a0000000000000000000000000000000000000000000000000000000008152600401612c85906157e3565b60405180910390fd5b6000612c99836113df565b90508073ffffffffffffffffffffffffffffffffffffffff168473ffffffffffffffffffffffffffffffffffffffff161480612d0857508373ffffffffffffffffffffffffffffffffffffffff16612cf084610cf3565b73ffffffffffffffffffffffffffffffffffffffff16145b80612d195750612d188185612676565b5b91505092915050565b8273ffffffffffffffffffffffffffffffffffffffff16612d42826113df565b73ffffffffffffffffffffffffffffffffffffffff1614612d98576040517f08c379a0000000000000000000000000000000000000000000000000000000008152600401612d8f90615875565b60405180910390fd5b600073ffffffffffffffffffffffffffffffffffffffff168273ffffffffffffffffffffffffffffffffffffffff161415612e08576040517f08c379a0000000000000000000000000000000000000000000000000000000008152600401612dff90615907565b60405180910390fd5b612e13838383613592565b612e1e600082612b8b565b6001600360008573ffffffffffffffffffffffffffffffffffffffff1673ffffffffffffffffffffffffffffffffffffffff1681526020019081526020016000206000828254612e6e91906156ab565b925050819055506001600360008473ffffffffffffffffffffffffffffffffffffffff1673ffffffffffffffffffffffffffffffffffffffff1681526020019081526020016000206000828254612ec59190615927565b92505081905550816002600083815260200190815260200160002060006101000a81548173ffffffffffffffffffffffffffffffffffffffff021916908373ffffffffffffffffffffffffffffffffffffffff160217905550808273ffffffffffffffffffffffffffffffffffffffff168473ffffffffffffffffffffffffffffffffffffffff167fddf252ad1be2c89b69c2b068fc378daa952ba7f163c4a11628f55a4df523b3ef60405160405180910390a4505050565b612f866113c8565b612fc5576040517f08c379a0000000000000000000000000000000000000000000000000000000008152600401612fbc906159c9565b60405180910390fd5b6000600a60006101000a81548160ff0219169083151502179055507f5db9ee0a495bf2e6ff9c91a7834c1ba4fdd244a5e8aa4e537bd38aeae4b073aa613009612b83565b6040516130169190614128565b60405180910390a1565b6000600a60019054906101000a900473ffffffffffffffffffffffffffffffffffffffff16905081600a60016101000a81548173ffffffffffffffffffffffffffffffffffffffff021916908373ffffffffffffffffffffffffffffffffffffffff1602179055508173ffffffffffffffffffffffffffffffffffffffff168173ffffffffffffffffffffffffffffffffffffffff167f8be0079c531659141344cd1fd0a4f28419497f9722a3daafe3b4186f6b6457e060405160405180910390a35050565b60006130f9836130f4610ec7565b6136a6565b81600c6000613106610ec7565b815260200190815260200160002060006101000a81548160ff021916908360ff16021790555060148260ff168154811061314357613142614d84565b5b90600052602060002001600081548092919061315e90614e2f565b91905055508160ff166001613171610ec7565b61317b91906156ab565b8473ffffffffffffffffffffffffffffffffffffffff167faabcc1eb354f11e651c87f835e7de6ac847d514718ed76fad480d55d2632992260405160405180910390a460016131c8610ec7565b6131d291906156ab565b905092915050565b6131e26113c8565b15613222576040517f08c379a00000000000000000000000000000000000000000000000000000000081526004016132199061521e565b60405180910390fd5b6001600a60006101000a81548160ff0219169083151502179055507f62e78cea01bee320cd4e420270b5ea74000d11b0c9f74754ebdbfc544b05a258613266612b83565b6040516132739190614128565b60405180910390a1565b613288848484612d22565b613294848484846136c4565b6132d3576040517f08c379a00000000000000000000000000000000000000000000000000000000081526004016132ca90615a5b565b60405180910390fd5b50505050565b6060601080546132e890614a78565b80601f016020809104026020016040519081016040528092919081815260200182805461331490614a78565b80156133615780601f1061333657610100808354040283529160200191613361565b820191906000526020600020905b81548152906001019060200180831161334457829003601f168201915b5050505050905090565b606060008214156133b3576040518060400160405280600181526020017f300000000000000000000000000000000000000000000000000000000000000081525090506134c7565b600082905060005b600082146133e55780806133ce90614e2f565b915050600a826133de9190615aaa565b91506133bb565b60008167ffffffffffffffff8111156134015761340061423d565b5b6040519080825280601f01601f1916602001820160405280156134335781602001600182028036833780820191505090505b5090505b600085146134c05760018261344c91906156ab565b9150600a8561345b9190615adb565b60306134679190615927565b60f81b81838151811061347d5761347c614d84565b5b60200101907effffffffffffffffffffffffffffffffffffffffffffffffffffffffffffff1916908160001a905350600a856134b99190615aaa565b9450613437565b8093505050505b919050565b600081836134da9190615b0c565b905092915050565b600081836134f09190615aaa565b905092915050565b60008160405160200161350b9190615bae565b604051602081830303815290604052805190602001209050919050565b60007f01ffc9a7000000000000000000000000000000000000000000000000000000007bffffffffffffffffffffffffffffffffffffffffffffffffffffffff1916827bffffffffffffffffffffffffffffffffffffffffffffffffffffffff1916149050919050565b61359d83838361385b565b600073ffffffffffffffffffffffffffffffffffffffff168373ffffffffffffffffffffffffffffffffffffffff1614156135e0576135db81613860565b61361f565b8173ffffffffffffffffffffffffffffffffffffffff168373ffffffffffffffffffffffffffffffffffffffff161461361e5761361d83826138a9565b5b5b600073ffffffffffffffffffffffffffffffffffffffff168273ffffffffffffffffffffffffffffffffffffffff1614156136625761365d81613a16565b6136a1565b8273ffffffffffffffffffffffffffffffffffffffff168273ffffffffffffffffffffffffffffffffffffffff16146136a05761369f8282613ae7565b5b5b505050565b6136c0828260405180602001604052806000815250613b66565b5050565b60006136e58473ffffffffffffffffffffffffffffffffffffffff16613bc1565b1561384e578373ffffffffffffffffffffffffffffffffffffffff1663150b7a0261370e612b83565b8786866040518563ffffffff1660e01b81526004016137309493929190615c1e565b602060405180830381600087803b15801561374a57600080fd5b505af192505050801561377b57506040513d601f19601f820116820180604052508101906137789190615c7f565b60015b6137fe573d80600081146137ab576040519150601f19603f3d011682016040523d82523d6000602084013e6137b0565b606091505b506000815114156137f6576040517f08c379a00000000000000000000000000000000000000000000000000000000081526004016137ed90615a5b565b60405180910390fd5b805181602001fd5b63150b7a0260e01b7bffffffffffffffffffffffffffffffffffffffffffffffffffffffff1916817bffffffffffffffffffffffffffffffffffffffffffffffffffffffff191614915050613853565b600190505b949350505050565b505050565b6008805490506009600083815260200190815260200160002081905550600881908060018154018082558091505060019003906000526020600020016000909190919091505550565b600060016138b684611491565b6138c091906156ab565b90506000600760008481526020019081526020016000205490508181146139a5576000600660008673ffffffffffffffffffffffffffffffffffffffff1673ffffffffffffffffffffffffffffffffffffffff168152602001908152602001600020600084815260200190815260200160002054905080600660008773ffffffffffffffffffffffffffffffffffffffff1673ffffffffffffffffffffffffffffffffffffffff168152602001908152602001600020600084815260200190815260200160002081905550816007600083815260200190815260200160002081905550505b6007600084815260200190815260200160002060009055600660008573ffffffffffffffffffffffffffffffffffffffff1673ffffffffffffffffffffffffffffffffffffffff16815260200190815260200160002060008381526020019081526020016000206000905550505050565b60006001600880549050613a2a91906156ab565b9050600060096000848152602001908152602001600020549050600060088381548110613a5a57613a59614d84565b5b906000526020600020015490508060088381548110613a7c57613a7b614d84565b5b906000526020600020018190555081600960008381526020019081526020016000208190555060096000858152602001908152602001600020600090556008805480613acb57613aca615cac565b5b6001900381819060005260206000200160009055905550505050565b6000613af283611491565b905081600660008573ffffffffffffffffffffffffffffffffffffffff1673ffffffffffffffffffffffffffffffffffffffff168152602001908152602001600020600083815260200190815260200160002081905550806007600084815260200190815260200160002081905550505050565b613b708383613bd4565b613b7d60008484846136c4565b613bbc576040517f08c379a0000000000000000000000000000000000000000000000000000000008152600401613bb390615a5b565b60405180910390fd5b505050565b600080823b905060008111915050919050565b600073ffffffffffffffffffffffffffffffffffffffff168273ffffffffffffffffffffffffffffffffffffffff161415613c44576040517f08c379a0000000000000000000000000000000000000000000000000000000008152600401613c3b90615d27565b60405180910390fd5b613c4d81612b17565b15613c8d576040517f08c379a0000000000000000000000000000000000000000000000000000000008152600401613c8490615d93565b60405180910390fd5b613c9960008383613592565b6001600360008473ffffffffffffffffffffffffffffffffffffffff1673ffffffffffffffffffffffffffffffffffffffff1681526020019081526020016000206000828254613ce99190615927565b92505081905550816002600083815260200190815260200160002060006101000a81548173ffffffffffffffffffffffffffffffffffffffff021916908373ffffffffffffffffffffffffffffffffffffffff160217905550808273ffffffffffffffffffffffffffffffffffffffff16600073ffffffffffffffffffffffffffffffffffffffff167fddf252ad1be2c89b69c2b068fc378daa952ba7f163c4a11628f55a4df523b3ef60405160405180910390a45050565b828054828255906000526020600020908101928215613dde579160200282015b82811115613ddd578251825591602001919060010190613dc2565b5b509050613deb9190613e75565b5090565b828054613dfb90614a78565b90600052602060002090601f016020900481019282613e1d5760008555613e64565b82601f10613e3657805160ff1916838001178555613e64565b82800160010185558215613e64579182015b82811115613e63578251825591602001919060010190613e48565b5b509050613e719190613e75565b5090565b5b80821115613e8e576000816000905550600101613e76565b5090565b6000604051905090565b600080fd5b600080fd5b6000819050919050565b613eb981613ea6565b8114613ec457600080fd5b50565b600081359050613ed681613eb0565b92915050565b600060208284031215613ef257613ef1613e9c565b5b6000613f0084828501613ec7565b91505092915050565b613f1281613ea6565b82525050565b6000602082019050613f2d6000830184613f09565b92915050565b60007fffffffff0000000000000000000000000000000000000000000000000000000082169050919050565b613f6881613f33565b8114613f7357600080fd5b50565b600081359050613f8581613f5f565b92915050565b600060208284031215613fa157613fa0613e9c565b5b6000613faf84828501613f76565b91505092915050565b60008115159050919050565b613fcd81613fb8565b82525050565b6000602082019050613fe86000830184613fc4565b92915050565b600067ffffffffffffffff82169050919050565b61400b81613fee565b82525050565b60006020820190506140266000830184614002565b92915050565b600081519050919050565b600082825260208201905092915050565b60005b8381101561406657808201518184015260208101905061404b565b83811115614075576000848401525b50505050565b6000601f19601f8301169050919050565b60006140978261402c565b6140a18185614037565b93506140b1818560208601614048565b6140ba8161407b565b840191505092915050565b600060208201905081810360008301526140df818461408c565b905092915050565b600073ffffffffffffffffffffffffffffffffffffffff82169050919050565b6000614112826140e7565b9050919050565b61412281614107565b82525050565b600060208201905061413d6000830184614119565b92915050565b61414c81614107565b811461415757600080fd5b50565b60008135905061416981614143565b92915050565b6000806040838503121561418657614185613e9c565b5b60006141948582860161415a565b92505060206141a585828601613ec7565b9150509250929050565b6000806000606084860312156141c8576141c7613e9c565b5b60006141d68682870161415a565b93505060206141e78682870161415a565b92505060406141f886828701613ec7565b9150509250925092565b6000819050919050565b61421581614202565b811461422057600080fd5b50565b6000813590506142328161420c565b92915050565b600080fd5b7f4e487b7100000000000000000000000000000000000000000000000000000000600052604160045260246000fd5b6142758261407b565b810181811067ffffffffffffffff821117156142945761429361423d565b5b80604052505050565b60006142a7613e92565b90506142b3828261426c565b919050565b600067ffffffffffffffff8211156142d3576142d261423d565b5b602082029050602081019050919050565b600080fd5b60006142fc6142f7846142b8565b61429d565b9050808382526020820190506020840283018581111561431f5761431e6142e4565b5b835b8181101561434857806143348882614223565b845260208401935050602081019050614321565b5050509392505050565b600082601f83011261436757614366614238565b5b81356143778482602086016142e9565b91505092915050565b6000806040838503121561439757614396613e9c565b5b60006143a585828601614223565b925050602083013567ffffffffffffffff8111156143c6576143c5613ea1565b5b6143d285828601614352565b9150509250929050565b6000602082840312156143f2576143f1613e9c565b5b600061440084828501614223565b91505092915050565b60006020828403121561441f5761441e613e9c565b5b600061442d8482850161415a565b91505092915050565b600081519050919050565b600082825260208201905092915050565b6000819050602082019050919050565b61446b81613ea6565b82525050565b600061447d8383614462565b60208301905092915050565b6000602082019050919050565b60006144a182614436565b6144ab8185614441565b93506144b683614452565b8060005b838110156144e75781516144ce8882614471565b97506144d983614489565b9250506001810190506144ba565b5085935050505092915050565b6000602082019050818103600083015261450e8184614496565b905092915050565b600060ff82169050919050565b61452c81614516565b811461453757600080fd5b50565b60008135905061454981614523565b92915050565b6000806040838503121561456657614565613e9c565b5b60006145748582860161415a565b92505060206145858582860161453a565b9150509250929050565b61459881614516565b82525050565b60006020820190506145b3600083018461458f565b92915050565b6145c281613fb8565b81146145cd57600080fd5b50565b6000813590506145df816145b9565b92915050565b600080604083850312156145fc576145fb613e9c565b5b600061460a8582860161415a565b925050602061461b858286016145d0565b9150509250929050565b600067ffffffffffffffff8211156146405761463f61423d565b5b602082029050602081019050919050565b600061466461465f84614625565b61429d565b90508083825260208201905060208402830185811115614687576146866142e4565b5b835b818110156146b0578061469c8882613ec7565b845260208401935050602081019050614689565b5050509392505050565b600082601f8301126146cf576146ce614238565b5b81356146df848260208601614651565b91505092915050565b6000602082840312156146fe576146fd613e9c565b5b600082013567ffffffffffffffff81111561471c5761471b613ea1565b5b614728848285016146ba565b91505092915050565b600080fd5b600067ffffffffffffffff8211156147515761475061423d565b5b61475a8261407b565b9050602081019050919050565b82818337600083830152505050565b600061478961478484614736565b61429d565b9050828152602081018484840111156147a5576147a4614731565b5b6147b0848285614767565b509392505050565b600082601f8301126147cd576147cc614238565b5b81356147dd848260208601614776565b91505092915050565b60008060008060808587031215614800576147ff613e9c565b5b600061480e8782880161415a565b945050602061481f8782880161415a565b935050604061483087828801613ec7565b925050606085013567ffffffffffffffff81111561485157614850613ea1565b5b61485d878288016147b8565b91505092959194509250565b60006020828403121561487f5761487e613e9c565b5b600061488d8482850161453a565b91505092915050565b600080604083850312156148ad576148ac613e9c565b5b600083013567ffffffffffffffff8111156148cb576148ca613ea1565b5b6148d785828601614352565b92505060206148e88582860161453a565b9150509250929050565b60006020828403121561490857614907613e9c565b5b6000614916848285016145d0565b91505092915050565b600067ffffffffffffffff82111561493a5761493961423d565b5b6149438261407b565b9050602081019050919050565b600061496361495e8461491f565b61429d565b90508281526020810184848401111561497f5761497e614731565b5b61498a848285614767565b509392505050565b600082601f8301126149a7576149a6614238565b5b81356149b7848260208601614950565b91505092915050565b6000602082840312156149d6576149d5613e9c565b5b600082013567ffffffffffffffff8111156149f4576149f3613ea1565b5b614a0084828501614992565b91505092915050565b60008060408385031215614a2057614a1f613e9c565b5b6000614a2e8582860161415a565b9250506020614a3f8582860161415a565b9150509250929050565b7f4e487b7100000000000000000000000000000000000000000000000000000000600052602260045260246000fd5b60006002820490506001821680614a9057607f821691505b60208210811415614aa457614aa3614a49565b5b50919050565b7f4552433732313a20617070726f76656420717565727920666f72206e6f6e657860008201527f697374656e7420746f6b656e0000000000000000000000000000000000000000602082015250565b6000614b06602c83614037565b9150614b1182614aaa565b604082019050919050565b60006020820190508181036000830152614b3581614af9565b9050919050565b7f4552433732313a20617070726f76616c20746f2063757272656e74206f776e6560008201527f7200000000000000000000000000000000000000000000000000000000000000602082015250565b6000614b98602183614037565b9150614ba382614b3c565b604082019050919050565b60006020820190508181036000830152614bc781614b8b565b9050919050565b7f4552433732313a20617070726f76652063616c6c6572206973206e6f74206f7760008201527f6e6572206e6f7220617070726f76656420666f7220616c6c0000000000000000602082015250565b6000614c2a603883614037565b9150614c3582614bce565b604082019050919050565b60006020820190508181036000830152614c5981614c1d565b9050919050565b7f4552433732313a207472616e736665722063616c6c6572206973206e6f74206f60008201527f776e6572206e6f7220617070726f766564000000000000000000000000000000602082015250565b6000614cbc603183614037565b9150614cc782614c60565b604082019050919050565b60006020820190508181036000830152614ceb81614caf565b9050919050565b7f455243373231456e756d657261626c653a206f776e657220696e646578206f7560008201527f74206f6620626f756e6473000000000000000000000000000000000000000000602082015250565b6000614d4e602b83614037565b9150614d5982614cf2565b604082019050919050565b60006020820190508181036000830152614d7d81614d41565b9050919050565b7f4e487b7100000000000000000000000000000000000000000000000000000000600052603260045260246000fd5b6000819050919050565b614dce614dc982614202565b614db3565b82525050565b6000614de08285614dbd565b602082019150614df08284614dbd565b6020820191508190509392505050565b7f4e487b7100000000000000000000000000000000000000000000000000000000600052601160045260246000fd5b6000614e3a82613ea6565b91507fffffffffffffffffffffffffffffffffffffffffffffffffffffffffffffffff821415614e6d57614e6c614e00565b5b600182019050919050565b7f4f776e61626c653a2063616c6c6572206973206e6f7420746865206f776e6572600082015250565b6000614eae602083614037565b9150614eb982614e78565b602082019050919050565b60006020820190508181036000830152614edd81614ea1565b9050919050565b7f455243373231456e756d657261626c653a20676c6f62616c20696e646578206f60008201527f7574206f6620626f756e64730000000000000000000000000000000000000000602082015250565b6000614f40602c83614037565b9150614f4b82614ee4565b604082019050919050565b60006020820190508181036000830152614f6f81614f33565b9050919050565b7f4552433732313a206f776e657220717565727920666f72206e6f6e657869737460008201527f656e7420746f6b656e0000000000000000000000000000000000000000000000602082015250565b6000614fd2602983614037565b9150614fdd82614f76565b604082019050919050565b6000602082019050818103600083015261500181614fc5565b9050919050565b7f4552433732313a2062616c616e636520717565727920666f7220746865207a6560008201527f726f206164647265737300000000000000000000000000000000000000000000602082015250565b6000615064602a83614037565b915061506f82615008565b604082019050919050565b6000602082019050818103600083015261509381615057565b9050919050565b7f546f6b656e20646f6573206e6f74206578697374000000000000000000000000600082015250565b60006150d0601483614037565b91506150db8261509a565b602082019050919050565b600060208201905081810360008301526150ff816150c3565b9050919050565b7f4552433732313a20617070726f766520746f2063616c6c657200000000000000600082015250565b600061513c601983614037565b915061514782615106565b602082019050919050565b6000602082019050818103600083015261516b8161512f565b9050919050565b600081905092915050565b60006151888261402c565b6151928185615172565b93506151a2818560208601614048565b80840191505092915050565b60006151ba828561517d565b91506151c6828461517d565b91508190509392505050565b7f5061757361626c653a2070617573656400000000000000000000000000000000600082015250565b6000615208601083614037565b9150615213826151d2565b602082019050919050565b60006020820190508181036000830152615237816151fb565b9050919050565b7f5265656e7472616e637947756172643a207265656e7472616e742063616c6c00600082015250565b6000615274601f83614037565b915061527f8261523e565b602082019050919050565b600060208201905081810360008301526152a381615267565b9050919050565b7f57686974656c6973742069732061637469766500000000000000000000000000600082015250565b60006152e0601383614037565b91506152eb826152aa565b602082019050919050565b6000602082019050818103600083015261530f816152d3565b9050919050565b7f53616c657320696e20424e4220617265206e6f74207065726d69747465640000600082015250565b600061534c601e83614037565b915061535782615316565b602082019050919050565b6000602082019050818103600083015261537b8161533f565b9050919050565b60006040820190506153976000830185614119565b6153a46020830184614119565b9392505050565b6000815190506153ba81613eb0565b92915050565b6000602082840312156153d6576153d5613e9c565b5b60006153e4848285016153ab565b91505092915050565b7f4e6f7420656e6f7567687420616c6c6f77616e63650000000000000000000000600082015250565b6000615423601583614037565b915061542e826153ed565b602082019050919050565b6000602082019050818103600083015261545281615416565b9050919050565b600060608201905061546e6000830186614119565b61547b6020830185614119565b6154886040830184613f09565b949350505050565b60008151905061549f816145b9565b92915050565b6000602082840312156154bb576154ba613e9c565b5b60006154c984828501615490565b91505092915050565b60006040820190506154e76000830185614119565b6154f46020830184613f09565b9392505050565b7f57686974656c697374206973206e6f7420616374697665000000000000000000600082015250565b6000615531601783614037565b915061553c826154fb565b602082019050919050565b6000602082019050818103600083015261556081615524565b9050919050565b7f4e6f7420656e6f7567687420424e420000000000000000000000000000000000600082015250565b600061559d600f83614037565b91506155a882615567565b602082019050919050565b600060208201905081810360008301526155cc81615590565b9050919050565b7f4c696d69746174696f6e20686173206265656e20726561636865640000000000600082015250565b6000615609601b83614037565b9150615614826155d3565b602082019050919050565b60006020820190508181036000830152615638816155fc565b9050919050565b7f4e6f742077686974656c69737465640000000000000000000000000000000000600082015250565b6000615675600f83614037565b91506156808261563f565b602082019050919050565b600060208201905081810360008301526156a481615668565b9050919050565b60006156b682613ea6565b91506156c183613ea6565b9250828210156156d4576156d3614e00565b5b828203905092915050565b7f4f776e61626c653a206e6577206f776e657220697320746865207a65726f206160008201527f6464726573730000000000000000000000000000000000000000000000000000602082015250565b600061573b602683614037565b9150615746826156df565b604082019050919050565b6000602082019050818103600083015261576a8161572e565b9050919050565b7f4552433732313a206f70657261746f7220717565727920666f72206e6f6e657860008201527f697374656e7420746f6b656e0000000000000000000000000000000000000000602082015250565b60006157cd602c83614037565b91506157d882615771565b604082019050919050565b600060208201905081810360008301526157fc816157c0565b9050919050565b7f4552433732313a207472616e73666572206f6620746f6b656e2074686174206960008201527f73206e6f74206f776e0000000000000000000000000000000000000000000000602082015250565b600061585f602983614037565b915061586a82615803565b604082019050919050565b6000602082019050818103600083015261588e81615852565b9050919050565b7f4552433732313a207472616e7366657220746f20746865207a65726f2061646460008201527f7265737300000000000000000000000000000000000000000000000000000000602082015250565b60006158f1602483614037565b91506158fc82615895565b604082019050919050565b60006020820190508181036000830152615920816158e4565b9050919050565b600061593282613ea6565b915061593d83613ea6565b9250827fffffffffffffffffffffffffffffffffffffffffffffffffffffffffffffffff0382111561597257615971614e00565b5b828201905092915050565b7f5061757361626c653a206e6f7420706175736564000000000000000000000000600082015250565b60006159b3601483614037565b91506159be8261597d565b602082019050919050565b600060208201905081810360008301526159e2816159a6565b9050919050565b7f4552433732313a207472616e7366657220746f206e6f6e20455243373231526560008201527f63656976657220696d706c656d656e7465720000000000000000000000000000602082015250565b6000615a45603283614037565b9150615a50826159e9565b604082019050919050565b60006020820190508181036000830152615a7481615a38565b9050919050565b7f4e487b7100000000000000000000000000000000000000000000000000000000600052601260045260246000fd5b6000615ab582613ea6565b9150615ac083613ea6565b925082615ad057615acf615a7b565b5b828204905092915050565b6000615ae682613ea6565b9150615af183613ea6565b925082615b0157615b00615a7b565b5b828206905092915050565b6000615b1782613ea6565b9150615b2283613ea6565b9250817fffffffffffffffffffffffffffffffffffffffffffffffffffffffffffffffff0483118215151615615b5b57615b5a614e00565b5b828202905092915050565b60008160601b9050919050565b6000615b7e82615b66565b9050919050565b6000615b9082615b73565b9050919050565b615ba8615ba382614107565b615b85565b82525050565b6000615bba8284615b97565b60148201915081905092915050565b600081519050919050565b600082825260208201905092915050565b6000615bf082615bc9565b615bfa8185615bd4565b9350615c0a818560208601614048565b615c138161407b565b840191505092915050565b6000608082019050615c336000830187614119565b615c406020830186614119565b615c4d6040830185613f09565b8181036060830152615c5f8184615be5565b905095945050505050565b600081519050615c7981613f5f565b92915050565b600060208284031215615c9557615c94613e9c565b5b6000615ca384828501615c6a565b91505092915050565b7f4e487b7100000000000000000000000000000000000000000000000000000000600052603160045260246000fd5b7f4552433732313a206d696e7420746f20746865207a65726f2061646472657373600082015250565b6000615d11602083614037565b9150615d1c82615cdb565b602082019050919050565b60006020820190508181036000830152615d4081615d04565b9050919050565b7f4552433732313a20746f6b656e20616c7265616479206d696e74656400000000600082015250565b6000615d7d601c83614037565b9150615d8882615d47565b602082019050919050565b60006020820190508181036000830152615dac81615d70565b905091905056fea2646970667358221220de94371e9e34e5468963f9f0dc5b0ef71cb30454fc90e6ab008f5001e993e80064736f6c63430008090033687474703a2f2f6c6f63616c686f73743a383038302f6170692f6d6574616474612f",
  "linkReferences": {},
  "deployedLinkReferences": {}
}