{
  "_format": "hh-sol-artifact-1",
  "contractName": "Burger",
  "sourceName": "contracts/Burger.sol",
  "abi": [
    {
      "inputs": [],
      "stateMutability": "nonpayable",
      "type": "constructor"
    },
    {
      "anonymous": false,
      "inputs": [
        {
          "indexed": true,
          "internalType": "address",
          "name": "owner",
          "type": "address"
        },
        {
          "indexed": true,
          "internalType": "address",
          "name": "approved",
          "type": "address"
        },
        {
          "indexed": true,
          "internalType": "uint256",
          "name": "tokenId",
          "type": "uint256"
        }
      ],
      "name": "Approval",
      "type": "event"
    },
    {
      "anonymous": false,
      "inputs": [
        {
          "indexed": true,
          "internalType": "address",
          "name": "owner",
          "type": "address"
        },
        {
          "indexed": true,
          "internalType": "address",
          "name": "operator",
          "type": "address"
        },
        {
          "indexed": false,
          "internalType": "bool",
          "name": "approved",
          "type": "bool"
        }
      ],
      "name": "ApprovalForAll",
      "type": "event"
    },
    {
      "anonymous": false,
      "inputs": [
        {
          "indexed": true,
          "internalType": "address",
          "name": "_to",
          "type": "address"
        },
        {
          "indexed": false,
          "internalType": "string",
          "name": "tokenURI",
          "type": "string"
        },
        {
          "indexed": false,
          "internalType": "uint256",
          "name": "id",
          "type": "uint256"
        }
      ],
      "name": "NFTMintEvent",
      "type": "event"
    },
    {
      "anonymous": false,
      "inputs": [
        {
          "indexed": true,
          "internalType": "address",
          "name": "previousOwner",
          "type": "address"
        },
        {
          "indexed": true,
          "internalType": "address",
          "name": "newOwner",
          "type": "address"
        }
      ],
      "name": "OwnershipTransferred",
      "type": "event"
    },
    {
      "anonymous": false,
      "inputs": [
        {
          "indexed": false,
          "internalType": "address",
          "name": "account",
          "type": "address"
        }
      ],
      "name": "Paused",
      "type": "event"
    },
    {
      "anonymous": false,
      "inputs": [
        {
          "indexed": true,
          "internalType": "address",
          "name": "from",
          "type": "address"
        },
        {
          "indexed": true,
          "internalType": "address",
          "name": "to",
          "type": "address"
        },
        {
          "indexed": true,
          "internalType": "uint256",
          "name": "tokenId",
          "type": "uint256"
        }
      ],
      "name": "Transfer",
      "type": "event"
    },
    {
      "anonymous": false,
      "inputs": [
        {
          "indexed": false,
          "internalType": "address",
          "name": "account",
          "type": "address"
        }
      ],
      "name": "Unpaused",
      "type": "event"
    },
    {
      "inputs": [
        {
          "internalType": "address",
          "name": "to",
          "type": "address"
        },
        {
          "internalType": "uint256",
          "name": "tokenId",
          "type": "uint256"
        }
      ],
      "name": "approve",
      "outputs": [],
      "stateMutability": "nonpayable",
      "type": "function"
    },
    {
      "inputs": [
        {
          "internalType": "address",
          "name": "owner",
          "type": "address"
        }
      ],
      "name": "balanceOf",
      "outputs": [
        {
          "internalType": "uint256",
          "name": "",
          "type": "uint256"
        }
      ],
      "stateMutability": "view",
      "type": "function"
    },
    {
      "inputs": [
        {
          "internalType": "uint256[3]",
          "name": "newPrice",
          "type": "uint256[3]"
        }
      ],
      "name": "changePrice",
      "outputs": [],
      "stateMutability": "nonpayable",
      "type": "function"
    },
    {
      "inputs": [
        {
          "internalType": "bytes32",
          "name": "newRoot",
          "type": "bytes32"
        }
      ],
      "name": "changeRoot",
      "outputs": [],
      "stateMutability": "nonpayable",
      "type": "function"
    },
    {
      "inputs": [
        {
          "internalType": "uint256[3]",
          "name": "newPrice",
          "type": "uint256[3]"
        }
      ],
      "name": "changeWhitelistPrice",
      "outputs": [],
      "stateMutability": "nonpayable",
      "type": "function"
    },
    {
      "inputs": [
        {
          "internalType": "bool",
          "name": "newState",
          "type": "bool"
        }
      ],
      "name": "changeWhitelistState",
      "outputs": [],
      "stateMutability": "nonpayable",
      "type": "function"
    },
    {
      "inputs": [
        {
          "internalType": "uint256",
          "name": "tokenId",
          "type": "uint256"
        }
      ],
      "name": "getApproved",
      "outputs": [
        {
          "internalType": "address",
          "name": "",
          "type": "address"
        }
      ],
      "stateMutability": "view",
      "type": "function"
    },
    {
      "inputs": [
        {
          "internalType": "uint8",
          "name": "boxId",
          "type": "uint8"
        }
      ],
      "name": "getPrice",
      "outputs": [
        {
          "internalType": "uint256",
          "name": "actualPrice",
          "type": "uint256"
        }
      ],
      "stateMutability": "view",
      "type": "function"
    },
    {
      "inputs": [],
      "name": "getVerfiedAddress",
      "outputs": [
        {
          "internalType": "address",
          "name": "",
          "type": "address"
        }
      ],
      "stateMutability": "view",
      "type": "function"
    },
    {
      "inputs": [
        {
          "internalType": "address",
          "name": "owner",
          "type": "address"
        },
        {
          "internalType": "address",
          "name": "operator",
          "type": "address"
        }
      ],
      "name": "isApprovedForAll",
      "outputs": [
        {
          "internalType": "bool",
          "name": "",
          "type": "bool"
        }
      ],
      "stateMutability": "view",
      "type": "function"
    },
    {
      "inputs": [
        {
          "internalType": "address",
          "name": "_to",
          "type": "address"
        },
        {
          "internalType": "string",
          "name": "tokenUri",
          "type": "string"
        },
        {
          "internalType": "bytes32",
          "name": "tokenUriHash",
          "type": "bytes32"
        },
        {
          "internalType": "bytes",
          "name": "tokenUriSignature",
          "type": "bytes"
        },
        {
          "internalType": "uint8",
          "name": "boxId",
          "type": "uint8"
        },
        {
          "internalType": "bytes32",
          "name": "boxIdHash",
          "type": "bytes32"
        },
        {
          "internalType": "bytes",
          "name": "boxIdSignature",
          "type": "bytes"
        },
        {
          "internalType": "bytes32[]",
          "name": "proof",
          "type": "bytes32[]"
        }
      ],
      "name": "mint",
      "outputs": [
        {
          "internalType": "uint256",
          "name": "",
          "type": "uint256"
        }
      ],
      "stateMutability": "payable",
      "type": "function"
    },
    {
      "inputs": [],
      "name": "name",
      "outputs": [
        {
          "internalType": "string",
          "name": "",
          "type": "string"
        }
      ],
      "stateMutability": "view",
      "type": "function"
    },
    {
      "inputs": [],
      "name": "owner",
      "outputs": [
        {
          "internalType": "address",
          "name": "",
          "type": "address"
        }
      ],
      "stateMutability": "view",
      "type": "function"
    },
    {
      "inputs": [
        {
          "internalType": "uint256",
          "name": "tokenId",
          "type": "uint256"
        }
      ],
      "name": "ownerOf",
      "outputs": [
        {
          "internalType": "address",
          "name": "",
          "type": "address"
        }
      ],
      "stateMutability": "view",
      "type": "function"
    },
    {
      "inputs": [],
      "name": "pause",
      "outputs": [
        {
          "internalType": "bool",
          "name": "",
          "type": "bool"
        }
      ],
      "stateMutability": "nonpayable",
      "type": "function"
    },
    {
      "inputs": [],
      "name": "paused",
      "outputs": [
        {
          "internalType": "bool",
          "name": "",
          "type": "bool"
        }
      ],
      "stateMutability": "view",
      "type": "function"
    },
    {
      "inputs": [],
      "name": "renounceOwnership",
      "outputs": [],
      "stateMutability": "nonpayable",
      "type": "function"
    },
    {
      "inputs": [
        {
          "internalType": "address",
          "name": "from",
          "type": "address"
        },
        {
          "internalType": "address",
          "name": "to",
          "type": "address"
        },
        {
          "internalType": "uint256",
          "name": "tokenId",
          "type": "uint256"
        }
      ],
      "name": "safeTransferFrom",
      "outputs": [],
      "stateMutability": "nonpayable",
      "type": "function"
    },
    {
      "inputs": [
        {
          "internalType": "address",
          "name": "from",
          "type": "address"
        },
        {
          "internalType": "address",
          "name": "to",
          "type": "address"
        },
        {
          "internalType": "uint256",
          "name": "tokenId",
          "type": "uint256"
        },
        {
          "internalType": "bytes",
          "name": "_data",
          "type": "bytes"
        }
      ],
      "name": "safeTransferFrom",
      "outputs": [],
      "stateMutability": "nonpayable",
      "type": "function"
    },
    {
      "inputs": [
        {
          "internalType": "address",
          "name": "operator",
          "type": "address"
        },
        {
          "internalType": "bool",
          "name": "approved",
          "type": "bool"
        }
      ],
      "name": "setApprovalForAll",
      "outputs": [],
      "stateMutability": "nonpayable",
      "type": "function"
    },
    {
      "inputs": [
        {
          "internalType": "address",
          "name": "_verifiedAddress",
          "type": "address"
        }
      ],
      "name": "setVerifiedAddress",
      "outputs": [],
      "stateMutability": "nonpayable",
      "type": "function"
    },
    {
      "inputs": [
        {
          "internalType": "bytes4",
          "name": "interfaceId",
          "type": "bytes4"
        }
      ],
      "name": "supportsInterface",
      "outputs": [
        {
          "internalType": "bool",
          "name": "",
          "type": "bool"
        }
      ],
      "stateMutability": "view",
      "type": "function"
    },
    {
      "inputs": [],
      "name": "symbol",
      "outputs": [
        {
          "internalType": "string",
          "name": "",
          "type": "string"
        }
      ],
      "stateMutability": "view",
      "type": "function"
    },
    {
      "inputs": [
        {
          "internalType": "uint256",
          "name": "index",
          "type": "uint256"
        }
      ],
      "name": "tokenByIndex",
      "outputs": [
        {
          "internalType": "uint256",
          "name": "",
          "type": "uint256"
        }
      ],
      "stateMutability": "view",
      "type": "function"
    },
    {
      "inputs": [
        {
          "internalType": "address",
          "name": "owner",
          "type": "address"
        },
        {
          "internalType": "uint256",
          "name": "index",
          "type": "uint256"
        }
      ],
      "name": "tokenOfOwnerByIndex",
      "outputs": [
        {
          "internalType": "uint256",
          "name": "",
          "type": "uint256"
        }
      ],
      "stateMutability": "view",
      "type": "function"
    },
    {
      "inputs": [
        {
          "internalType": "uint256",
          "name": "tokenId",
          "type": "uint256"
        }
      ],
      "name": "tokenURI",
      "outputs": [
        {
          "internalType": "string",
          "name": "",
          "type": "string"
        }
      ],
      "stateMutability": "view",
      "type": "function"
    },
    {
      "inputs": [],
      "name": "totalSupply",
      "outputs": [
        {
          "internalType": "uint256",
          "name": "",
          "type": "uint256"
        }
      ],
      "stateMutability": "view",
      "type": "function"
    },
    {
      "inputs": [
        {
          "internalType": "address",
          "name": "from",
          "type": "address"
        },
        {
          "internalType": "address",
          "name": "to",
          "type": "address"
        },
        {
          "internalType": "uint256",
          "name": "tokenId",
          "type": "uint256"
        }
      ],
      "name": "transferFrom",
      "outputs": [],
      "stateMutability": "nonpayable",
      "type": "function"
    },
    {
      "inputs": [
        {
          "internalType": "address",
          "name": "newOwner",
          "type": "address"
        }
      ],
      "name": "transferOwnership",
      "outputs": [],
      "stateMutability": "nonpayable",
      "type": "function"
    },
    {
      "inputs": [],
      "name": "unpause",
      "outputs": [
        {
          "internalType": "bool",
          "name": "",
          "type": "bool"
        }
      ],
      "stateMutability": "nonpayable",
      "type": "function"
    },
    {
      "inputs": [
        {
          "internalType": "bytes32",
          "name": "leaf",
          "type": "bytes32"
        },
        {
          "internalType": "bytes32[]",
          "name": "proof",
          "type": "bytes32[]"
        }
      ],
      "name": "verifyWhitelist",
      "outputs": [
        {
          "internalType": "bool",
          "name": "",
          "type": "bool"
        }
      ],
      "stateMutability": "view",
      "type": "function"
    },
    {
      "inputs": [],
      "name": "whitelistActive",
      "outputs": [
        {
          "internalType": "bool",
          "name": "",
          "type": "bool"
        }
      ],
      "stateMutability": "view",
      "type": "function"
    }
  ],
  "bytecode": "0x6080604052604051806060016040528064e8d4a5100065ffffffffffff1681526020016501d1a94a200065ffffffffffff1681526020016502ba7def300065ffffffffffff16815250600c9060036200005a92919062000301565b50604051806060016040528064174876e80064ffffffffff168152602001642e90edd00064ffffffffff1681526020016445d964b80064ffffffffff16815250600f906003620000ac92919062000350565b5073c09eac15f9ba6462e8e4612af7c431e1cfe08b87601360006101000a81548173ffffffffffffffffffffffffffffffffffffffff021916908373ffffffffffffffffffffffffffffffffffffffff1602179055506000601360146101000a81548160ff0219169083151502179055507fa2fc709bf2f4b9cb44b8a9114485d12d4877bb1beedd81f62f4f85a8056480ee60001b6014553480156200015157600080fd5b506040518060400160405280600681526020017f42757267657200000000000000000000000000000000000000000000000000008152506040518060400160405280600681526020017f42555247455200000000000000000000000000000000000000000000000000008152508160009080519060200190620001d69291906200039e565b508060019080519060200190620001ef9291906200039e565b50505062000212620002066200023360201b60201c565b6200023b60201b60201c565b6000600b60146101000a81548160ff021916908315150217905550620004b3565b600033905090565b6000600b60009054906101000a900473ffffffffffffffffffffffffffffffffffffffff16905081600b60006101000a81548173ffffffffffffffffffffffffffffffffffffffff021916908373ffffffffffffffffffffffffffffffffffffffff1602179055508173ffffffffffffffffffffffffffffffffffffffff168173ffffffffffffffffffffffffffffffffffffffff167f8be0079c531659141344cd1fd0a4f28419497f9722a3daafe3b4186f6b6457e060405160405180910390a35050565b82600381019282156200033d579160200282015b828111156200033c578251829065ffffffffffff1690559160200191906001019062000315565b5b5090506200034c91906200042f565b5090565b82600381019282156200038b579160200282015b828111156200038a578251829064ffffffffff1690559160200191906001019062000364565b5b5090506200039a91906200042f565b5090565b828054620003ac906200044e565b90600052602060002090601f016020900481019282620003d057600085556200041c565b82601f10620003eb57805160ff19168380011785556200041c565b828001600101855582156200041c579182015b828111156200041b578251825591602001919060010190620003fe565b5b5090506200042b91906200042f565b5090565b5b808211156200044a57600081600090555060010162000430565b5090565b600060028204905060018216806200046757607f821691505b602082108114156200047e576200047d62000484565b5b50919050565b7f4e487b7100000000000000000000000000000000000000000000000000000000600052602260045260246000fd5b61567880620004c36000396000f3fe6080604052600436106101e35760003560e01c80634f6ccce711610102578063a22cb46511610095578063d9583b9f11610064578063d9583b9f1461071f578063e793cce814610748578063e985e9c514610771578063f2fde38b146107ae576101e3565b8063a22cb46514610660578063b62f94f114610689578063b88d4fde146106b9578063c87b56dd146106e2576101e3565b8063715018a6116100d1578063715018a6146105c85780638456cb59146105df5780638da5cb5b1461060a57806395d89b4114610635576101e3565b80634f6ccce7146104e65780635c975abb146105235780636352211e1461054e57806370a082311461058b576101e3565b8063329ea90d1161017a5780633e4356d7116101495780633e4356d71461043e5780633f4ba83a1461046957806342842e0e146104945780634f66cbcd146104bd576101e3565b8063329ea90d1461037257806335ec93f5146103af57806337f1e7f2146103d85780633d59cd6014610415576101e3565b8063095ea7b3116101b6578063095ea7b3146102b857806318160ddd146102e157806323b872dd1461030c5780632f745c5914610335576101e3565b806301ffc9a7146101e857806302ce58131461022557806306fdde0314610250578063081812fc1461027b575b600080fd5b3480156101f457600080fd5b5061020f600480360381019061020a9190613d70565b6107d7565b60405161021c9190614462565b60405180910390f35b34801561023157600080fd5b5061023a6107e9565b6040516102479190614462565b60405180910390f35b34801561025c57600080fd5b506102656107fc565b60405161027291906144c2565b60405180910390f35b34801561028757600080fd5b506102a2600480360381019061029d9190613dc2565b61088e565b6040516102af91906143fb565b60405180910390f35b3480156102c457600080fd5b506102df60048036038101906102da9190613c65565b610913565b005b3480156102ed57600080fd5b506102f6610a2b565b6040516103039190614914565b60405180910390f35b34801561031857600080fd5b50610333600480360381019061032e9190613a4d565b610a38565b005b34801561034157600080fd5b5061035c60048036038101906103579190613c65565b610a98565b6040516103699190614914565b60405180910390f35b34801561037e57600080fd5b5061039960048036038101906103949190613d1c565b610b3d565b6040516103a69190614462565b60405180910390f35b3480156103bb57600080fd5b506103d660048036038101906103d19190613ca1565b610c1b565b005b3480156103e457600080fd5b506103ff60048036038101906103fa9190613deb565b610cac565b60405161040c9190614914565b60405180910390f35b34801561042157600080fd5b5061043c60048036038101906104379190613cf3565b610dbf565b005b34801561044a57600080fd5b50610453610e45565b60405161046091906143fb565b60405180910390f35b34801561047557600080fd5b5061047e610e6f565b60405161048b9190614462565b60405180910390f35b3480156104a057600080fd5b506104bb60048036038101906104b69190613a4d565b610efc565b005b3480156104c957600080fd5b506104e460048036038101906104df91906139e8565b610f1c565b005b3480156104f257600080fd5b5061050d60048036038101906105089190613dc2565b610fdc565b60405161051a9190614914565b60405180910390f35b34801561052f57600080fd5b50610538611073565b6040516105459190614462565b60405180910390f35b34801561055a57600080fd5b5061057560048036038101906105709190613dc2565b61108a565b60405161058291906143fb565b60405180910390f35b34801561059757600080fd5b506105b260048036038101906105ad91906139e8565b61113c565b6040516105bf9190614914565b60405180910390f35b3480156105d457600080fd5b506105dd6111f4565b005b3480156105eb57600080fd5b506105f461127c565b6040516106019190614462565b60405180910390f35b34801561061657600080fd5b5061061f611309565b60405161062c91906143fb565b60405180910390f35b34801561064157600080fd5b5061064a611333565b60405161065791906144c2565b60405180910390f35b34801561066c57600080fd5b5061068760048036038101906106829190613b17565b6113c5565b005b6106a3600480360381019061069e9190613b53565b611546565b6040516106b09190614914565b60405180910390f35b3480156106c557600080fd5b506106e060048036038101906106db9190613a9c565b61166c565b005b3480156106ee57600080fd5b5061070960048036038101906107049190613dc2565b6116ce565b60405161071691906144c2565b60405180910390f35b34801561072b57600080fd5b5061074660048036038101906107419190613cca565b6116e0565b005b34801561075457600080fd5b5061076f600480360381019061076a9190613ca1565b611779565b005b34801561077d57600080fd5b5061079860048036038101906107939190613a11565b61180a565b6040516107a59190614462565b60405180910390f35b3480156107ba57600080fd5b506107d560048036038101906107d091906139e8565b61189e565b005b60006107e282611996565b9050919050565b601360149054906101000a900460ff1681565b60606000805461080b90614c07565b80601f016020809104026020016040519081016040528092919081815260200182805461083790614c07565b80156108845780601f1061085957610100808354040283529160200191610884565b820191906000526020600020905b81548152906001019060200180831161086757829003601f168201915b5050505050905090565b600061089982611a10565b6108d8576040517f08c379a00000000000000000000000000000000000000000000000000000000081526004016108cf906147f4565b60405180910390fd5b6004600083815260200190815260200160002060009054906101000a900473ffffffffffffffffffffffffffffffffffffffff169050919050565b600061091e8261108a565b90508073ffffffffffffffffffffffffffffffffffffffff168373ffffffffffffffffffffffffffffffffffffffff16141561098f576040517f08c379a000000000000000000000000000000000000000000000000000000000815260040161098690614874565b60405180910390fd5b8073ffffffffffffffffffffffffffffffffffffffff166109ae611a7c565b73ffffffffffffffffffffffffffffffffffffffff1614806109dd57506109dc816109d7611a7c565b61180a565b5b610a1c576040517f08c379a0000000000000000000000000000000000000000000000000000000008152600401610a13906146d4565b60405180910390fd5b610a268383611a84565b505050565b6000600980549050905090565b610a49610a43611a7c565b82611b3d565b610a88576040517f08c379a0000000000000000000000000000000000000000000000000000000008152600401610a7f90614894565b60405180910390fd5b610a93838383611c1b565b505050565b6000610aa38361113c565b8210610ae4576040517f08c379a0000000000000000000000000000000000000000000000000000000008152600401610adb90614594565b60405180910390fd5b600760008473ffffffffffffffffffffffffffffffffffffffff1673ffffffffffffffffffffffffffffffffffffffff168152602001908152602001600020600083815260200190815260200160002054905092915050565b60008083905060005b8351811015610c0c576000848281518110610b8a577f4e487b7100000000000000000000000000000000000000000000000000000000600052603260045260246000fd5b6020026020010151905080831015610bcc578281604051602001610baf9291906143ab565b604051602081830303815290604052805190602001209250610bf8565b8083604051602001610bdf9291906143ab565b6040516020818303038152906040528051906020012092505b508080610c0490614c6a565b915050610b46565b50601454811491505092915050565b610c23611a7c565b73ffffffffffffffffffffffffffffffffffffffff16610c41611309565b73ffffffffffffffffffffffffffffffffffffffff1614610c97576040517f08c379a0000000000000000000000000000000000000000000000000000000008152600401610c8e90614814565b60405180910390fd5b80600c906003610ca8929190613682565b5050565b600060018260ff1610158015610cc6575060038260ff1611155b610d05576040517f08c379a0000000000000000000000000000000000000000000000000000000008152600401610cfc90614794565b60405180910390fd5b601360149054906101000a900460ff1615610d6c57600f600183610d299190614b06565b60ff1660038110610d63577f4e487b7100000000000000000000000000000000000000000000000000000000600052603260045260246000fd5b01549050610dba565b600c600183610d7b9190614b06565b60ff1660038110610db5577f4e487b7100000000000000000000000000000000000000000000000000000000600052603260045260246000fd5b015490505b919050565b610dc7611a7c565b73ffffffffffffffffffffffffffffffffffffffff16610de5611309565b73ffffffffffffffffffffffffffffffffffffffff1614610e3b576040517f08c379a0000000000000000000000000000000000000000000000000000000008152600401610e3290614814565b60405180910390fd5b8060148190555050565b6000601360009054906101000a900473ffffffffffffffffffffffffffffffffffffffff16905090565b6000610e79611a7c565b73ffffffffffffffffffffffffffffffffffffffff16610e97611309565b73ffffffffffffffffffffffffffffffffffffffff1614610eed576040517f08c379a0000000000000000000000000000000000000000000000000000000008152600401610ee490614814565b60405180910390fd5b610ef5611e77565b6001905090565b610f178383836040518060200160405280600081525061166c565b505050565b610f24611a7c565b73ffffffffffffffffffffffffffffffffffffffff16610f42611309565b73ffffffffffffffffffffffffffffffffffffffff1614610f98576040517f08c379a0000000000000000000000000000000000000000000000000000000008152600401610f8f90614814565b60405180910390fd5b80601360006101000a81548173ffffffffffffffffffffffffffffffffffffffff021916908373ffffffffffffffffffffffffffffffffffffffff16021790555050565b6000610fe6610a2b565b8210611027576040517f08c379a000000000000000000000000000000000000000000000000000000000815260040161101e906148b4565b60405180910390fd5b60098281548110611061577f4e487b7100000000000000000000000000000000000000000000000000000000600052603260045260246000fd5b90600052602060002001549050919050565b6000600b60149054906101000a900460ff16905090565b6000806002600084815260200190815260200160002060009054906101000a900473ffffffffffffffffffffffffffffffffffffffff169050600073ffffffffffffffffffffffffffffffffffffffff168173ffffffffffffffffffffffffffffffffffffffff161415611133576040517f08c379a000000000000000000000000000000000000000000000000000000000815260040161112a90614734565b60405180910390fd5b80915050919050565b60008073ffffffffffffffffffffffffffffffffffffffff168273ffffffffffffffffffffffffffffffffffffffff1614156111ad576040517f08c379a00000000000000000000000000000000000000000000000000000000081526004016111a490614714565b60405180910390fd5b600360008373ffffffffffffffffffffffffffffffffffffffff1673ffffffffffffffffffffffffffffffffffffffff168152602001908152602001600020549050919050565b6111fc611a7c565b73ffffffffffffffffffffffffffffffffffffffff1661121a611309565b73ffffffffffffffffffffffffffffffffffffffff1614611270576040517f08c379a000000000000000000000000000000000000000000000000000000000815260040161126790614814565b60405180910390fd5b61127a6000611f19565b565b6000611286611a7c565b73ffffffffffffffffffffffffffffffffffffffff166112a4611309565b73ffffffffffffffffffffffffffffffffffffffff16146112fa576040517f08c379a00000000000000000000000000000000000000000000000000000000081526004016112f190614814565b60405180910390fd5b611302611fdf565b6001905090565b6000600b60009054906101000a900473ffffffffffffffffffffffffffffffffffffffff16905090565b60606001805461134290614c07565b80601f016020809104026020016040519081016040528092919081815260200182805461136e90614c07565b80156113bb5780601f10611390576101008083540402835291602001916113bb565b820191906000526020600020905b81548152906001019060200180831161139e57829003601f168201915b5050505050905090565b6113cd611a7c565b73ffffffffffffffffffffffffffffffffffffffff168273ffffffffffffffffffffffffffffffffffffffff16141561143b576040517f08c379a000000000000000000000000000000000000000000000000000000000815260040161143290614634565b60405180910390fd5b8060056000611448611a7c565b73ffffffffffffffffffffffffffffffffffffffff1673ffffffffffffffffffffffffffffffffffffffff16815260200190815260200160002060008473ffffffffffffffffffffffffffffffffffffffff1673ffffffffffffffffffffffffffffffffffffffff16815260200190815260200160002060006101000a81548160ff0219169083151502179055508173ffffffffffffffffffffffffffffffffffffffff166114f5611a7c565b73ffffffffffffffffffffffffffffffffffffffff167f17307eab39ab6107e8899845ad3d59bd9653f200f220920489ca2b5937696c318360405161153a9190614462565b60405180910390a35050565b600086866115548282612082565b611593576040517f08c379a000000000000000000000000000000000000000000000000000000000815260040161158a906148f4565b60405180910390fd5b858561159f8282612082565b6115de576040517f08c379a00000000000000000000000000000000000000000000000000000000081526004016115d5906148f4565b60405180910390fd5b6115e6611073565b15611626576040517f08c379a000000000000000000000000000000000000000000000000000000000815260040161161d90614694565b60405180910390fd5b601360149054906101000a900460ff161561164e576116478d8d8b896120ef565b945061165c565b6116598d8d8b6121b2565b94505b5050505098975050505050505050565b61167d611677611a7c565b83611b3d565b6116bc576040517f08c379a00000000000000000000000000000000000000000000000000000000081526004016116b390614894565b60405180910390fd5b6116c8848484846122e6565b50505050565b60606116d982612342565b9050919050565b6116e8611a7c565b73ffffffffffffffffffffffffffffffffffffffff16611706611309565b73ffffffffffffffffffffffffffffffffffffffff161461175c576040517f08c379a000000000000000000000000000000000000000000000000000000000815260040161175390614814565b60405180910390fd5b80601360146101000a81548160ff02191690831515021790555050565b611781611a7c565b73ffffffffffffffffffffffffffffffffffffffff1661179f611309565b73ffffffffffffffffffffffffffffffffffffffff16146117f5576040517f08c379a00000000000000000000000000000000000000000000000000000000081526004016117ec90614814565b60405180910390fd5b80600f906003611806929190613682565b5050565b6000600560008473ffffffffffffffffffffffffffffffffffffffff1673ffffffffffffffffffffffffffffffffffffffff16815260200190815260200160002060008373ffffffffffffffffffffffffffffffffffffffff1673ffffffffffffffffffffffffffffffffffffffff16815260200190815260200160002060009054906101000a900460ff16905092915050565b6118a6611a7c565b73ffffffffffffffffffffffffffffffffffffffff166118c4611309565b73ffffffffffffffffffffffffffffffffffffffff161461191a576040517f08c379a000000000000000000000000000000000000000000000000000000000815260040161191190614814565b60405180910390fd5b600073ffffffffffffffffffffffffffffffffffffffff168173ffffffffffffffffffffffffffffffffffffffff16141561198a576040517f08c379a0000000000000000000000000000000000000000000000000000000008152600401611981906145d4565b60405180910390fd5b61199381611f19565b50565b60007f780e9d63000000000000000000000000000000000000000000000000000000007bffffffffffffffffffffffffffffffffffffffffffffffffffffffff1916827bffffffffffffffffffffffffffffffffffffffffffffffffffffffff19161480611a095750611a0882612494565b5b9050919050565b60008073ffffffffffffffffffffffffffffffffffffffff166002600084815260200190815260200160002060009054906101000a900473ffffffffffffffffffffffffffffffffffffffff1673ffffffffffffffffffffffffffffffffffffffff1614159050919050565b600033905090565b816004600083815260200190815260200160002060006101000a81548173ffffffffffffffffffffffffffffffffffffffff021916908373ffffffffffffffffffffffffffffffffffffffff160217905550808273ffffffffffffffffffffffffffffffffffffffff16611af78361108a565b73ffffffffffffffffffffffffffffffffffffffff167f8c5be1e5ebec7d5bd14f71427d1e84f3dd0314c0f7b2291e5b200ac8c7c3b92560405160405180910390a45050565b6000611b4882611a10565b611b87576040517f08c379a0000000000000000000000000000000000000000000000000000000008152600401611b7e90614674565b60405180910390fd5b6000611b928361108a565b90508073ffffffffffffffffffffffffffffffffffffffff168473ffffffffffffffffffffffffffffffffffffffff161480611c0157508373ffffffffffffffffffffffffffffffffffffffff16611be98461088e565b73ffffffffffffffffffffffffffffffffffffffff16145b80611c125750611c11818561180a565b5b91505092915050565b8273ffffffffffffffffffffffffffffffffffffffff16611c3b8261108a565b73ffffffffffffffffffffffffffffffffffffffff1614611c91576040517f08c379a0000000000000000000000000000000000000000000000000000000008152600401611c8890614834565b60405180910390fd5b600073ffffffffffffffffffffffffffffffffffffffff168273ffffffffffffffffffffffffffffffffffffffff161415611d01576040517f08c379a0000000000000000000000000000000000000000000000000000000008152600401611cf890614614565b60405180910390fd5b611d0c838383612576565b611d17600082611a84565b6001600360008573ffffffffffffffffffffffffffffffffffffffff1673ffffffffffffffffffffffffffffffffffffffff1681526020019081526020016000206000828254611d679190614ad2565b925050819055506001600360008473ffffffffffffffffffffffffffffffffffffffff1673ffffffffffffffffffffffffffffffffffffffff1681526020019081526020016000206000828254611dbe9190614a4b565b92505081905550816002600083815260200190815260200160002060006101000a81548173ffffffffffffffffffffffffffffffffffffffff021916908373ffffffffffffffffffffffffffffffffffffffff160217905550808273ffffffffffffffffffffffffffffffffffffffff168473ffffffffffffffffffffffffffffffffffffffff167fddf252ad1be2c89b69c2b068fc378daa952ba7f163c4a11628f55a4df523b3ef60405160405180910390a4505050565b611e7f611073565b611ebe576040517f08c379a0000000000000000000000000000000000000000000000000000000008152600401611eb590614534565b60405180910390fd5b6000600b60146101000a81548160ff0219169083151502179055507f5db9ee0a495bf2e6ff9c91a7834c1ba4fdd244a5e8aa4e537bd38aeae4b073aa611f02611a7c565b604051611f0f91906143fb565b60405180910390a1565b6000600b60009054906101000a900473ffffffffffffffffffffffffffffffffffffffff16905081600b60006101000a81548173ffffffffffffffffffffffffffffffffffffffff021916908373ffffffffffffffffffffffffffffffffffffffff1602179055508173ffffffffffffffffffffffffffffffffffffffff168173ffffffffffffffffffffffffffffffffffffffff167f8be0079c531659141344cd1fd0a4f28419497f9722a3daafe3b4186f6b6457e060405160405180910390a35050565b611fe7611073565b15612027576040517f08c379a000000000000000000000000000000000000000000000000000000000815260040161201e906146b4565b60405180910390fd5b6001600b60146101000a81548160ff0219169083151502179055507f62e78cea01bee320cd4e420270b5ea74000d11b0c9f74754ebdbfc544b05a25861206b611a7c565b60405161207891906143fb565b60405180910390a1565b6000601360009054906101000a900473ffffffffffffffffffffffffffffffffffffffff1673ffffffffffffffffffffffffffffffffffffffff166120d0838561258690919063ffffffff16565b73ffffffffffffffffffffffffffffffffffffffff1614905092915050565b6000601360149054906101000a900460ff16612140576040517f08c379a000000000000000000000000000000000000000000000000000000000815260040161213790614554565b60405180910390fd5b600061215461214e876125ad565b84610b3d565b9050801561216f576121678686866121b2565b9150506121aa565b6040517f08c379a00000000000000000000000000000000000000000000000000000000081526004016121a1906146f4565b60405180910390fd5b949350505050565b6000806121be83610cac565b905080341015612203576040517f08c379a00000000000000000000000000000000000000000000000000000000081526004016121fa906148d4565b60405180910390fd5b61220d60126125dd565b600061221960126125f3565b90506122258682612601565b61222f81866127cf565b3373ffffffffffffffffffffffffffffffffffffffff167f381522718816817f694da06ead37444f6a1ad8252bd7d029101cafc183a65ff686836040516122779291906144e4565b60405180910390a2813411156122da573373ffffffffffffffffffffffffffffffffffffffff166108fc83346122ad9190614ad2565b9081150290604051600060405180830381858888f193505050501580156122d8573d6000803e3d6000fd5b505b80925050509392505050565b6122f1848484611c1b565b6122fd84848484612843565b61233c576040517f08c379a0000000000000000000000000000000000000000000000000000000008152600401612333906145b4565b60405180910390fd5b50505050565b606061234d82611a10565b61238c576040517f08c379a0000000000000000000000000000000000000000000000000000000008152600401612383906147d4565b60405180910390fd5b60006006600084815260200190815260200160002080546123ac90614c07565b80601f01602080910402602001604051908101604052809291908181526020018280546123d890614c07565b80156124255780601f106123fa57610100808354040283529160200191612425565b820191906000526020600020905b81548152906001019060200180831161240857829003601f168201915b5050505050905060006124366129da565b905060008151141561244c57819250505061248f565b6000825111156124815780826040516020016124699291906143d7565b6040516020818303038152906040529250505061248f565b61248a846129f1565b925050505b919050565b60007f80ac58cd000000000000000000000000000000000000000000000000000000007bffffffffffffffffffffffffffffffffffffffffffffffffffffffff1916827bffffffffffffffffffffffffffffffffffffffffffffffffffffffff1916148061255f57507f5b5e139f000000000000000000000000000000000000000000000000000000007bffffffffffffffffffffffffffffffffffffffffffffffffffffffff1916827bffffffffffffffffffffffffffffffffffffffffffffffffffffffff1916145b8061256f575061256e82612a98565b5b9050919050565b612581838383612b02565b505050565b60008060006125958585612c16565b915091506125a281612c99565b819250505092915050565b6000816040516020016125c09190614390565b604051602081830303815290604052805190602001209050919050565b6001816000016000828254019250508190555050565b600081600001549050919050565b600073ffffffffffffffffffffffffffffffffffffffff168273ffffffffffffffffffffffffffffffffffffffff161415612671576040517f08c379a0000000000000000000000000000000000000000000000000000000008152600401612668906147b4565b60405180910390fd5b61267a81611a10565b156126ba576040517f08c379a00000000000000000000000000000000000000000000000000000000081526004016126b1906145f4565b60405180910390fd5b6126c660008383612576565b6001600360008473ffffffffffffffffffffffffffffffffffffffff1673ffffffffffffffffffffffffffffffffffffffff16815260200190815260200160002060008282546127169190614a4b565b92505081905550816002600083815260200190815260200160002060006101000a81548173ffffffffffffffffffffffffffffffffffffffff021916908373ffffffffffffffffffffffffffffffffffffffff160217905550808273ffffffffffffffffffffffffffffffffffffffff16600073ffffffffffffffffffffffffffffffffffffffff167fddf252ad1be2c89b69c2b068fc378daa952ba7f163c4a11628f55a4df523b3ef60405160405180910390a45050565b6127d882611a10565b612817576040517f08c379a000000000000000000000000000000000000000000000000000000000815260040161280e90614754565b60405180910390fd5b8060066000848152602001908152602001600020908051906020019061283e9291906136c2565b505050565b60006128648473ffffffffffffffffffffffffffffffffffffffff16612fea565b156129cd578373ffffffffffffffffffffffffffffffffffffffff1663150b7a0261288d611a7c565b8786866040518563ffffffff1660e01b81526004016128af9493929190614416565b602060405180830381600087803b1580156128c957600080fd5b505af19250505080156128fa57506040513d601f19601f820116820180604052508101906128f79190613d99565b60015b61297d573d806000811461292a576040519150601f19603f3d011682016040523d82523d6000602084013e61292f565b606091505b50600081511415612975576040517f08c379a000000000000000000000000000000000000000000000000000000000815260040161296c906145b4565b60405180910390fd5b805181602001fd5b63150b7a0260e01b7bffffffffffffffffffffffffffffffffffffffffffffffffffffffff1916817bffffffffffffffffffffffffffffffffffffffffffffffffffffffff1916149150506129d2565b600190505b949350505050565b606060405180602001604052806000815250905090565b60606129fc82611a10565b612a3b576040517f08c379a0000000000000000000000000000000000000000000000000000000008152600401612a3290614854565b60405180910390fd5b6000612a456129da565b90506000815111612a655760405180602001604052806000815250612a90565b80612a6f84612ffd565b604051602001612a809291906143d7565b6040516020818303038152906040525b915050919050565b60007f01ffc9a7000000000000000000000000000000000000000000000000000000007bffffffffffffffffffffffffffffffffffffffffffffffffffffffff1916827bffffffffffffffffffffffffffffffffffffffffffffffffffffffff1916149050919050565b612b0d8383836131aa565b600073ffffffffffffffffffffffffffffffffffffffff168373ffffffffffffffffffffffffffffffffffffffff161415612b5057612b4b816131af565b612b8f565b8173ffffffffffffffffffffffffffffffffffffffff168373ffffffffffffffffffffffffffffffffffffffff1614612b8e57612b8d83826131f8565b5b5b600073ffffffffffffffffffffffffffffffffffffffff168273ffffffffffffffffffffffffffffffffffffffff161415612bd257612bcd81613365565b612c11565b8273ffffffffffffffffffffffffffffffffffffffff168273ffffffffffffffffffffffffffffffffffffffff1614612c1057612c0f82826134a8565b5b5b505050565b600080604183511415612c585760008060006020860151925060408601519150606086015160001a9050612c4c87828585613527565b94509450505050612c92565b604083511415612c89576000806020850151915060408501519050612c7e868383613634565b935093505050612c92565b60006002915091505b9250929050565b60006004811115612cd3577f4e487b7100000000000000000000000000000000000000000000000000000000600052602160045260246000fd5b816004811115612d0c577f4e487b7100000000000000000000000000000000000000000000000000000000600052602160045260246000fd5b1415612d1757612fe7565b60016004811115612d51577f4e487b7100000000000000000000000000000000000000000000000000000000600052602160045260246000fd5b816004811115612d8a577f4e487b7100000000000000000000000000000000000000000000000000000000600052602160045260246000fd5b1415612dcb576040517f08c379a0000000000000000000000000000000000000000000000000000000008152600401612dc290614514565b60405180910390fd5b60026004811115612e05577f4e487b7100000000000000000000000000000000000000000000000000000000600052602160045260246000fd5b816004811115612e3e577f4e487b7100000000000000000000000000000000000000000000000000000000600052602160045260246000fd5b1415612e7f576040517f08c379a0000000000000000000000000000000000000000000000000000000008152600401612e7690614574565b60405180910390fd5b60036004811115612eb9577f4e487b7100000000000000000000000000000000000000000000000000000000600052602160045260246000fd5b816004811115612ef2577f4e487b7100000000000000000000000000000000000000000000000000000000600052602160045260246000fd5b1415612f33576040517f08c379a0000000000000000000000000000000000000000000000000000000008152600401612f2a90614654565b60405180910390fd5b600480811115612f6c577f4e487b7100000000000000000000000000000000000000000000000000000000600052602160045260246000fd5b816004811115612fa5577f4e487b7100000000000000000000000000000000000000000000000000000000600052602160045260246000fd5b1415612fe6576040517f08c379a0000000000000000000000000000000000000000000000000000000008152600401612fdd90614774565b60405180910390fd5b5b50565b600080823b905060008111915050919050565b60606000821415613045576040518060400160405280600181526020017f300000000000000000000000000000000000000000000000000000000000000081525090506131a5565b600082905060005b6000821461307757808061306090614c6a565b915050600a826130709190614aa1565b915061304d565b60008167ffffffffffffffff8111156130b9577f4e487b7100000000000000000000000000000000000000000000000000000000600052604160045260246000fd5b6040519080825280601f01601f1916602001820160405280156130eb5781602001600182028036833780820191505090505b5090505b6000851461319e576001826131049190614ad2565b9150600a856131139190614ce1565b603061311f9190614a4b565b60f81b81838151811061315b577f4e487b7100000000000000000000000000000000000000000000000000000000600052603260045260246000fd5b60200101907effffffffffffffffffffffffffffffffffffffffffffffffffffffffffffff1916908160001a905350600a856131979190614aa1565b94506130ef565b8093505050505b919050565b505050565b600980549050600a600083815260200190815260200160002081905550600981908060018154018082558091505060019003906000526020600020016000909190919091505550565b600060016132058461113c565b61320f9190614ad2565b90506000600860008481526020019081526020016000205490508181146132f4576000600760008673ffffffffffffffffffffffffffffffffffffffff1673ffffffffffffffffffffffffffffffffffffffff168152602001908152602001600020600084815260200190815260200160002054905080600760008773ffffffffffffffffffffffffffffffffffffffff1673ffffffffffffffffffffffffffffffffffffffff168152602001908152602001600020600084815260200190815260200160002081905550816008600083815260200190815260200160002081905550505b6008600084815260200190815260200160002060009055600760008573ffffffffffffffffffffffffffffffffffffffff1673ffffffffffffffffffffffffffffffffffffffff16815260200190815260200160002060008381526020019081526020016000206000905550505050565b600060016009805490506133799190614ad2565b90506000600a60008481526020019081526020016000205490506000600983815481106133cf577f4e487b7100000000000000000000000000000000000000000000000000000000600052603260045260246000fd5b906000526020600020015490508060098381548110613417577f4e487b7100000000000000000000000000000000000000000000000000000000600052603260045260246000fd5b906000526020600020018190555081600a600083815260200190815260200160002081905550600a600085815260200190815260200160002060009055600980548061348c577f4e487b7100000000000000000000000000000000000000000000000000000000600052603160045260246000fd5b6001900381819060005260206000200160009055905550505050565b60006134b38361113c565b905081600760008573ffffffffffffffffffffffffffffffffffffffff1673ffffffffffffffffffffffffffffffffffffffff168152602001908152602001600020600083815260200190815260200160002081905550806008600084815260200190815260200160002081905550505050565b6000807f7fffffffffffffffffffffffffffffff5d576e7357a4501ddfe92f46681b20a08360001c111561356257600060039150915061362b565b601b8560ff161415801561357a5750601c8560ff1614155b1561358c57600060049150915061362b565b6000600187878787604051600081526020016040526040516135b1949392919061447d565b6020604051602081039080840390855afa1580156135d3573d6000803e3d6000fd5b505050602060405103519050600073ffffffffffffffffffffffffffffffffffffffff168173ffffffffffffffffffffffffffffffffffffffff1614156136225760006001925092505061362b565b80600092509250505b94509492505050565b6000806000807f7fffffffffffffffffffffffffffffffffffffffffffffffffffffffffffffff85169150601b8560ff1c01905061367487828885613527565b935093505050935093915050565b82600381019282156136b1579160200282015b828111156136b0578251825591602001919060010190613695565b5b5090506136be9190613748565b5090565b8280546136ce90614c07565b90600052602060002090601f0160209004810192826136f05760008555613737565b82601f1061370957805160ff1916838001178555613737565b82800160010185558215613737579182015b8281111561373657825182559160200191906001019061371b565b5b5090506137449190613748565b5090565b5b80821115613761576000816000905550600101613749565b5090565b600061377861377384614954565b61492f565b9050808382526020820190508285602086028201111561379757600080fd5b60005b858110156137c757816137ad888261392b565b84526020840193506020830192505060018101905061379a565b5050509392505050565b60006137e46137df84614980565b61492f565b905080828560208602820111156137fa57600080fd5b60005b8581101561382a578161381088826139be565b8452602084019350602083019250506001810190506137fd565b5050509392505050565b6000613847613842846149a6565b61492f565b90508281526020810184848401111561385f57600080fd5b61386a848285614bc5565b509392505050565b6000613885613880846149d7565b61492f565b90508281526020810184848401111561389d57600080fd5b6138a8848285614bc5565b509392505050565b6000813590506138bf816155b8565b92915050565b600082601f8301126138d657600080fd5b81356138e6848260208601613765565b91505092915050565b600082601f83011261390057600080fd5b600361390d8482856137d1565b91505092915050565b600081359050613925816155cf565b92915050565b60008135905061393a816155e6565b92915050565b60008135905061394f816155fd565b92915050565b600081519050613964816155fd565b92915050565b600082601f83011261397b57600080fd5b813561398b848260208601613834565b91505092915050565b600082601f8301126139a557600080fd5b81356139b5848260208601613872565b91505092915050565b6000813590506139cd81615614565b92915050565b6000813590506139e28161562b565b92915050565b6000602082840312156139fa57600080fd5b6000613a08848285016138b0565b91505092915050565b60008060408385031215613a2457600080fd5b6000613a32858286016138b0565b9250506020613a43858286016138b0565b9150509250929050565b600080600060608486031215613a6257600080fd5b6000613a70868287016138b0565b9350506020613a81868287016138b0565b9250506040613a92868287016139be565b9150509250925092565b60008060008060808587031215613ab257600080fd5b6000613ac0878288016138b0565b9450506020613ad1878288016138b0565b9350506040613ae2878288016139be565b925050606085013567ffffffffffffffff811115613aff57600080fd5b613b0b8782880161396a565b91505092959194509250565b60008060408385031215613b2a57600080fd5b6000613b38858286016138b0565b9250506020613b4985828601613916565b9150509250929050565b600080600080600080600080610100898b031215613b7057600080fd5b6000613b7e8b828c016138b0565b985050602089013567ffffffffffffffff811115613b9b57600080fd5b613ba78b828c01613994565b9750506040613bb88b828c0161392b565b965050606089013567ffffffffffffffff811115613bd557600080fd5b613be18b828c0161396a565b9550506080613bf28b828c016139d3565b94505060a0613c038b828c0161392b565b93505060c089013567ffffffffffffffff811115613c2057600080fd5b613c2c8b828c0161396a565b92505060e089013567ffffffffffffffff811115613c4957600080fd5b613c558b828c016138c5565b9150509295985092959890939650565b60008060408385031215613c7857600080fd5b6000613c86858286016138b0565b9250506020613c97858286016139be565b9150509250929050565b600060608284031215613cb357600080fd5b6000613cc1848285016138ef565b91505092915050565b600060208284031215613cdc57600080fd5b6000613cea84828501613916565b91505092915050565b600060208284031215613d0557600080fd5b6000613d138482850161392b565b91505092915050565b60008060408385031215613d2f57600080fd5b6000613d3d8582860161392b565b925050602083013567ffffffffffffffff811115613d5a57600080fd5b613d66858286016138c5565b9150509250929050565b600060208284031215613d8257600080fd5b6000613d9084828501613940565b91505092915050565b600060208284031215613dab57600080fd5b6000613db984828501613955565b91505092915050565b600060208284031215613dd457600080fd5b6000613de2848285016139be565b91505092915050565b600060208284031215613dfd57600080fd5b6000613e0b848285016139d3565b91505092915050565b613e1d81614b3a565b82525050565b613e34613e2f82614b3a565b614cb3565b82525050565b613e4381614b4c565b82525050565b613e5281614b58565b82525050565b613e69613e6482614b58565b614cc5565b82525050565b6000613e7a82614a08565b613e848185614a1e565b9350613e94818560208601614bd4565b613e9d81614dce565b840191505092915050565b6000613eb382614a13565b613ebd8185614a2f565b9350613ecd818560208601614bd4565b613ed681614dce565b840191505092915050565b6000613eec82614a13565b613ef68185614a40565b9350613f06818560208601614bd4565b80840191505092915050565b6000613f1f601883614a2f565b9150613f2a82614dec565b602082019050919050565b6000613f42601483614a2f565b9150613f4d82614e15565b602082019050919050565b6000613f65601783614a2f565b9150613f7082614e3e565b602082019050919050565b6000613f88601f83614a2f565b9150613f9382614e67565b602082019050919050565b6000613fab602b83614a2f565b9150613fb682614e90565b604082019050919050565b6000613fce603283614a2f565b9150613fd982614edf565b604082019050919050565b6000613ff1602683614a2f565b9150613ffc82614f2e565b604082019050919050565b6000614014601c83614a2f565b915061401f82614f7d565b602082019050919050565b6000614037602483614a2f565b915061404282614fa6565b604082019050919050565b600061405a601983614a2f565b915061406582614ff5565b602082019050919050565b600061407d602283614a2f565b91506140888261501e565b604082019050919050565b60006140a0602c83614a2f565b91506140ab8261506d565b604082019050919050565b60006140c3601283614a2f565b91506140ce826150bc565b602082019050919050565b60006140e6601083614a2f565b91506140f1826150e5565b602082019050919050565b6000614109603883614a2f565b91506141148261510e565b604082019050919050565b600061412c600f83614a2f565b91506141378261515d565b602082019050919050565b600061414f602a83614a2f565b915061415a82615186565b604082019050919050565b6000614172602983614a2f565b915061417d826151d5565b604082019050919050565b6000614195602e83614a2f565b91506141a082615224565b604082019050919050565b60006141b8602283614a2f565b91506141c382615273565b604082019050919050565b60006141db601483614a2f565b91506141e6826152c2565b602082019050919050565b60006141fe602083614a2f565b9150614209826152eb565b602082019050919050565b6000614221603183614a2f565b915061422c82615314565b604082019050919050565b6000614244602c83614a2f565b915061424f82615363565b604082019050919050565b6000614267602083614a2f565b9150614272826153b2565b602082019050919050565b600061428a602983614a2f565b9150614295826153db565b604082019050919050565b60006142ad602f83614a2f565b91506142b88261542a565b604082019050919050565b60006142d0602183614a2f565b91506142db82615479565b604082019050919050565b60006142f3603183614a2f565b91506142fe826154c8565b604082019050919050565b6000614316602c83614a2f565b915061432182615517565b604082019050919050565b6000614339601f83614a2f565b915061434482615566565b602082019050919050565b600061435c600783614a2f565b91506143678261558f565b602082019050919050565b61437b81614bae565b82525050565b61438a81614bb8565b82525050565b600061439c8284613e23565b60148201915081905092915050565b60006143b78285613e58565b6020820191506143c78284613e58565b6020820191508190509392505050565b60006143e38285613ee1565b91506143ef8284613ee1565b91508190509392505050565b60006020820190506144106000830184613e14565b92915050565b600060808201905061442b6000830187613e14565b6144386020830186613e14565b6144456040830185614372565b81810360608301526144578184613e6f565b905095945050505050565b60006020820190506144776000830184613e3a565b92915050565b60006080820190506144926000830187613e49565b61449f6020830186614381565b6144ac6040830185613e49565b6144b96060830184613e49565b95945050505050565b600060208201905081810360008301526144dc8184613ea8565b905092915050565b600060408201905081810360008301526144fe8185613ea8565b905061450d6020830184614372565b9392505050565b6000602082019050818103600083015261452d81613f12565b9050919050565b6000602082019050818103600083015261454d81613f35565b9050919050565b6000602082019050818103600083015261456d81613f58565b9050919050565b6000602082019050818103600083015261458d81613f7b565b9050919050565b600060208201905081810360008301526145ad81613f9e565b9050919050565b600060208201905081810360008301526145cd81613fc1565b9050919050565b600060208201905081810360008301526145ed81613fe4565b9050919050565b6000602082019050818103600083015261460d81614007565b9050919050565b6000602082019050818103600083015261462d8161402a565b9050919050565b6000602082019050818103600083015261464d8161404d565b9050919050565b6000602082019050818103600083015261466d81614070565b9050919050565b6000602082019050818103600083015261468d81614093565b9050919050565b600060208201905081810360008301526146ad816140b6565b9050919050565b600060208201905081810360008301526146cd816140d9565b9050919050565b600060208201905081810360008301526146ed816140fc565b9050919050565b6000602082019050818103600083015261470d8161411f565b9050919050565b6000602082019050818103600083015261472d81614142565b9050919050565b6000602082019050818103600083015261474d81614165565b9050919050565b6000602082019050818103600083015261476d81614188565b9050919050565b6000602082019050818103600083015261478d816141ab565b9050919050565b600060208201905081810360008301526147ad816141ce565b9050919050565b600060208201905081810360008301526147cd816141f1565b9050919050565b600060208201905081810360008301526147ed81614214565b9050919050565b6000602082019050818103600083015261480d81614237565b9050919050565b6000602082019050818103600083015261482d8161425a565b9050919050565b6000602082019050818103600083015261484d8161427d565b9050919050565b6000602082019050818103600083015261486d816142a0565b9050919050565b6000602082019050818103600083015261488d816142c3565b9050919050565b600060208201905081810360008301526148ad816142e6565b9050919050565b600060208201905081810360008301526148cd81614309565b9050919050565b600060208201905081810360008301526148ed8161432c565b9050919050565b6000602082019050818103600083015261490d8161434f565b9050919050565b60006020820190506149296000830184614372565b92915050565b600061493961494a565b90506149458282614c39565b919050565b6000604051905090565b600067ffffffffffffffff82111561496f5761496e614d9f565b5b602082029050602081019050919050565b600067ffffffffffffffff82111561499b5761499a614d9f565b5b602082029050919050565b600067ffffffffffffffff8211156149c1576149c0614d9f565b5b6149ca82614dce565b9050602081019050919050565b600067ffffffffffffffff8211156149f2576149f1614d9f565b5b6149fb82614dce565b9050602081019050919050565b600081519050919050565b600081519050919050565b600082825260208201905092915050565b600082825260208201905092915050565b600081905092915050565b6000614a5682614bae565b9150614a6183614bae565b9250827fffffffffffffffffffffffffffffffffffffffffffffffffffffffffffffffff03821115614a9657614a95614d12565b5b828201905092915050565b6000614aac82614bae565b9150614ab783614bae565b925082614ac757614ac6614d41565b5b828204905092915050565b6000614add82614bae565b9150614ae883614bae565b925082821015614afb57614afa614d12565b5b828203905092915050565b6000614b1182614bb8565b9150614b1c83614bb8565b925082821015614b2f57614b2e614d12565b5b828203905092915050565b6000614b4582614b8e565b9050919050565b60008115159050919050565b6000819050919050565b60007fffffffff0000000000000000000000000000000000000000000000000000000082169050919050565b600073ffffffffffffffffffffffffffffffffffffffff82169050919050565b6000819050919050565b600060ff82169050919050565b82818337600083830152505050565b60005b83811015614bf2578082015181840152602081019050614bd7565b83811115614c01576000848401525b50505050565b60006002820490506001821680614c1f57607f821691505b60208210811415614c3357614c32614d70565b5b50919050565b614c4282614dce565b810181811067ffffffffffffffff82111715614c6157614c60614d9f565b5b80604052505050565b6000614c7582614bae565b91507fffffffffffffffffffffffffffffffffffffffffffffffffffffffffffffffff821415614ca857614ca7614d12565b5b600182019050919050565b6000614cbe82614ccf565b9050919050565b6000819050919050565b6000614cda82614ddf565b9050919050565b6000614cec82614bae565b9150614cf783614bae565b925082614d0757614d06614d41565b5b828206905092915050565b7f4e487b7100000000000000000000000000000000000000000000000000000000600052601160045260246000fd5b7f4e487b7100000000000000000000000000000000000000000000000000000000600052601260045260246000fd5b7f4e487b7100000000000000000000000000000000000000000000000000000000600052602260045260246000fd5b7f4e487b7100000000000000000000000000000000000000000000000000000000600052604160045260246000fd5b6000601f19601f8301169050919050565b60008160601b9050919050565b7f45434453413a20696e76616c6964207369676e61747572650000000000000000600082015250565b7f5061757361626c653a206e6f7420706175736564000000000000000000000000600082015250565b7f57686974656c697374206973206e6f7420616374697665000000000000000000600082015250565b7f45434453413a20696e76616c6964207369676e6174757265206c656e67746800600082015250565b7f455243373231456e756d657261626c653a206f776e657220696e646578206f7560008201527f74206f6620626f756e6473000000000000000000000000000000000000000000602082015250565b7f4552433732313a207472616e7366657220746f206e6f6e20455243373231526560008201527f63656976657220696d706c656d656e7465720000000000000000000000000000602082015250565b7f4f776e61626c653a206e6577206f776e657220697320746865207a65726f206160008201527f6464726573730000000000000000000000000000000000000000000000000000602082015250565b7f4552433732313a20746f6b656e20616c7265616479206d696e74656400000000600082015250565b7f4552433732313a207472616e7366657220746f20746865207a65726f2061646460008201527f7265737300000000000000000000000000000000000000000000000000000000602082015250565b7f4552433732313a20617070726f766520746f2063616c6c657200000000000000600082015250565b7f45434453413a20696e76616c6964207369676e6174757265202773272076616c60008201527f7565000000000000000000000000000000000000000000000000000000000000602082015250565b7f4552433732313a206f70657261746f7220717565727920666f72206e6f6e657860008201527f697374656e7420746f6b656e0000000000000000000000000000000000000000602082015250565b7f4d696e74696e6720697320706175736564210000000000000000000000000000600082015250565b7f5061757361626c653a2070617573656400000000000000000000000000000000600082015250565b7f4552433732313a20617070726f76652063616c6c6572206973206e6f74206f7760008201527f6e6572206e6f7220617070726f76656420666f7220616c6c0000000000000000602082015250565b7f4e6f742077686974656c69737465640000000000000000000000000000000000600082015250565b7f4552433732313a2062616c616e636520717565727920666f7220746865207a6560008201527f726f206164647265737300000000000000000000000000000000000000000000602082015250565b7f4552433732313a206f776e657220717565727920666f72206e6f6e657869737460008201527f656e7420746f6b656e0000000000000000000000000000000000000000000000602082015250565b7f45524337323155524953746f726167653a2055524920736574206f66206e6f6e60008201527f6578697374656e7420746f6b656e000000000000000000000000000000000000602082015250565b7f45434453413a20696e76616c6964207369676e6174757265202776272076616c60008201527f7565000000000000000000000000000000000000000000000000000000000000602082015250565b7f426f784964206973206e6f7420636f7272656374000000000000000000000000600082015250565b7f4552433732313a206d696e7420746f20746865207a65726f2061646472657373600082015250565b7f45524337323155524953746f726167653a2055524920717565727920666f722060008201527f6e6f6e6578697374656e7420746f6b656e000000000000000000000000000000602082015250565b7f4552433732313a20617070726f76656420717565727920666f72206e6f6e657860008201527f697374656e7420746f6b656e0000000000000000000000000000000000000000602082015250565b7f4f776e61626c653a2063616c6c6572206973206e6f7420746865206f776e6572600082015250565b7f4552433732313a207472616e73666572206f6620746f6b656e2074686174206960008201527f73206e6f74206f776e0000000000000000000000000000000000000000000000602082015250565b7f4552433732314d657461646174613a2055524920717565727920666f72206e6f60008201527f6e6578697374656e7420746f6b656e0000000000000000000000000000000000602082015250565b7f4552433732313a20617070726f76616c20746f2063757272656e74206f776e6560008201527f7200000000000000000000000000000000000000000000000000000000000000602082015250565b7f4552433732313a207472616e736665722063616c6c6572206973206e6f74206f60008201527f776e6572206e6f7220617070726f766564000000000000000000000000000000602082015250565b7f455243373231456e756d657261626c653a20676c6f62616c20696e646578206f60008201527f7574206f6620626f756e64730000000000000000000000000000000000000000602082015250565b7f4574686572206973206e6f7420656e6f75676820746f206d696e74204e465400600082015250565b7f44656e6965642100000000000000000000000000000000000000000000000000600082015250565b6155c181614b3a565b81146155cc57600080fd5b50565b6155d881614b4c565b81146155e357600080fd5b50565b6155ef81614b58565b81146155fa57600080fd5b50565b61560681614b62565b811461561157600080fd5b50565b61561d81614bae565b811461562857600080fd5b50565b61563481614bb8565b811461563f57600080fd5b5056fea264697066735822122087546b0450f922dc541e1321920dbd322296a7f3873e00d91929116797b112fa64736f6c63430008040033",
  "linkReferences": {},
  "deployedLinkReferences": {}
}