{
  "_format": "hh-sol-artifact-1",
  "contractName": "Burger",
  "sourceName": "contracts/Burger.sol",
  "abi": [
    {
      "inputs": [],
      "stateMutability": "nonpayable",
      "type": "constructor"
    },
    {
      "anonymous": false,
      "inputs": [
        {
          "indexed": true,
          "internalType": "address",
          "name": "owner",
          "type": "address"
        },
        {
          "indexed": true,
          "internalType": "address",
          "name": "approved",
          "type": "address"
        },
        {
          "indexed": true,
          "internalType": "uint256",
          "name": "tokenId",
          "type": "uint256"
        }
      ],
      "name": "Approval",
      "type": "event"
    },
    {
      "anonymous": false,
      "inputs": [
        {
          "indexed": true,
          "internalType": "address",
          "name": "owner",
          "type": "address"
        },
        {
          "indexed": true,
          "internalType": "address",
          "name": "operator",
          "type": "address"
        },
        {
          "indexed": false,
          "internalType": "bool",
          "name": "approved",
          "type": "bool"
        }
      ],
      "name": "ApprovalForAll",
      "type": "event"
    },
    {
      "anonymous": false,
      "inputs": [
        {
          "indexed": true,
          "internalType": "address",
          "name": "_to",
          "type": "address"
        },
        {
          "indexed": true,
          "internalType": "uint256",
          "name": "_id",
          "type": "uint256"
        },
        {
          "indexed": true,
          "internalType": "uint8",
          "name": "_boxType",
          "type": "uint8"
        }
      ],
      "name": "MintNFT",
      "type": "event"
    },
    {
      "anonymous": false,
      "inputs": [
        {
          "indexed": true,
          "internalType": "address",
          "name": "previousOwner",
          "type": "address"
        },
        {
          "indexed": true,
          "internalType": "address",
          "name": "newOwner",
          "type": "address"
        }
      ],
      "name": "OwnershipTransferred",
      "type": "event"
    },
    {
      "anonymous": false,
      "inputs": [
        {
          "indexed": false,
          "internalType": "address",
          "name": "account",
          "type": "address"
        }
      ],
      "name": "Paused",
      "type": "event"
    },
    {
      "anonymous": false,
      "inputs": [
        {
          "indexed": true,
          "internalType": "address",
          "name": "from",
          "type": "address"
        },
        {
          "indexed": true,
          "internalType": "address",
          "name": "to",
          "type": "address"
        },
        {
          "indexed": true,
          "internalType": "uint256",
          "name": "tokenId",
          "type": "uint256"
        }
      ],
      "name": "Transfer",
      "type": "event"
    },
    {
      "anonymous": false,
      "inputs": [
        {
          "indexed": false,
          "internalType": "address",
          "name": "account",
          "type": "address"
        }
      ],
      "name": "Unpaused",
      "type": "event"
    },
    {
      "inputs": [
        {
          "internalType": "address",
          "name": "to",
          "type": "address"
        },
        {
          "internalType": "uint256",
          "name": "tokenId",
          "type": "uint256"
        }
      ],
      "name": "approve",
      "outputs": [],
      "stateMutability": "nonpayable",
      "type": "function"
    },
    {
      "inputs": [
        {
          "internalType": "address",
          "name": "owner",
          "type": "address"
        }
      ],
      "name": "balanceOf",
      "outputs": [
        {
          "internalType": "uint256",
          "name": "",
          "type": "uint256"
        }
      ],
      "stateMutability": "view",
      "type": "function"
    },
    {
      "inputs": [
        {
          "internalType": "uint256",
          "name": "",
          "type": "uint256"
        }
      ],
      "name": "boxPriceBNB",
      "outputs": [
        {
          "internalType": "uint256",
          "name": "",
          "type": "uint256"
        }
      ],
      "stateMutability": "view",
      "type": "function"
    },
    {
      "inputs": [
        {
          "internalType": "string",
          "name": "newBaseTokenURI",
          "type": "string"
        }
      ],
      "name": "changeBaseTokenURI",
      "outputs": [],
      "stateMutability": "nonpayable",
      "type": "function"
    },
    {
      "inputs": [
        {
          "internalType": "bytes32",
          "name": "newRoot",
          "type": "bytes32"
        }
      ],
      "name": "changeRoot",
      "outputs": [],
      "stateMutability": "nonpayable",
      "type": "function"
    },
    {
      "inputs": [
        {
          "internalType": "bool",
          "name": "newState",
          "type": "bool"
        }
      ],
      "name": "changeWhitelistState",
      "outputs": [],
      "stateMutability": "nonpayable",
      "type": "function"
    },
    {
      "inputs": [
        {
          "internalType": "uint256",
          "name": "tokenId",
          "type": "uint256"
        }
      ],
      "name": "getApproved",
      "outputs": [
        {
          "internalType": "address",
          "name": "",
          "type": "address"
        }
      ],
      "stateMutability": "view",
      "type": "function"
    },
    {
      "inputs": [
        {
          "internalType": "uint256",
          "name": "_tokenId",
          "type": "uint256"
        }
      ],
      "name": "getboxTypeById",
      "outputs": [
        {
          "internalType": "uint8",
          "name": "",
          "type": "uint8"
        }
      ],
      "stateMutability": "view",
      "type": "function"
    },
    {
      "inputs": [
        {
          "internalType": "address",
          "name": "owner",
          "type": "address"
        },
        {
          "internalType": "address",
          "name": "operator",
          "type": "address"
        }
      ],
      "name": "isApprovedForAll",
      "outputs": [
        {
          "internalType": "bool",
          "name": "",
          "type": "bool"
        }
      ],
      "stateMutability": "view",
      "type": "function"
    },
    {
      "inputs": [
        {
          "internalType": "uint8",
          "name": "boxType",
          "type": "uint8"
        }
      ],
      "name": "mintNormal",
      "outputs": [
        {
          "internalType": "uint256",
          "name": "",
          "type": "uint256"
        }
      ],
      "stateMutability": "payable",
      "type": "function"
    },
    {
      "inputs": [
        {
          "internalType": "address",
          "name": "_to",
          "type": "address"
        },
        {
          "internalType": "uint8",
          "name": "boxType",
          "type": "uint8"
        }
      ],
      "name": "mintOwner",
      "outputs": [
        {
          "internalType": "uint256",
          "name": "",
          "type": "uint256"
        }
      ],
      "stateMutability": "nonpayable",
      "type": "function"
    },
    {
      "inputs": [
        {
          "internalType": "bytes32",
          "name": "leaf",
          "type": "bytes32"
        },
        {
          "internalType": "bytes32[]",
          "name": "proof",
          "type": "bytes32[]"
        }
      ],
      "name": "mintWhitelist",
      "outputs": [],
      "stateMutability": "payable",
      "type": "function"
    },
    {
      "inputs": [],
      "name": "name",
      "outputs": [
        {
          "internalType": "string",
          "name": "",
          "type": "string"
        }
      ],
      "stateMutability": "view",
      "type": "function"
    },
    {
      "inputs": [],
      "name": "owner",
      "outputs": [
        {
          "internalType": "address",
          "name": "",
          "type": "address"
        }
      ],
      "stateMutability": "view",
      "type": "function"
    },
    {
      "inputs": [
        {
          "internalType": "uint256",
          "name": "tokenId",
          "type": "uint256"
        }
      ],
      "name": "ownerOf",
      "outputs": [
        {
          "internalType": "address",
          "name": "",
          "type": "address"
        }
      ],
      "stateMutability": "view",
      "type": "function"
    },
    {
      "inputs": [],
      "name": "pause",
      "outputs": [
        {
          "internalType": "bool",
          "name": "",
          "type": "bool"
        }
      ],
      "stateMutability": "nonpayable",
      "type": "function"
    },
    {
      "inputs": [],
      "name": "paused",
      "outputs": [
        {
          "internalType": "bool",
          "name": "",
          "type": "bool"
        }
      ],
      "stateMutability": "view",
      "type": "function"
    },
    {
      "inputs": [],
      "name": "renounceOwnership",
      "outputs": [],
      "stateMutability": "nonpayable",
      "type": "function"
    },
    {
      "inputs": [
        {
          "internalType": "address",
          "name": "from",
          "type": "address"
        },
        {
          "internalType": "address",
          "name": "to",
          "type": "address"
        },
        {
          "internalType": "uint256",
          "name": "tokenId",
          "type": "uint256"
        }
      ],
      "name": "safeTransferFrom",
      "outputs": [],
      "stateMutability": "nonpayable",
      "type": "function"
    },
    {
      "inputs": [
        {
          "internalType": "address",
          "name": "from",
          "type": "address"
        },
        {
          "internalType": "address",
          "name": "to",
          "type": "address"
        },
        {
          "internalType": "uint256",
          "name": "tokenId",
          "type": "uint256"
        },
        {
          "internalType": "bytes",
          "name": "_data",
          "type": "bytes"
        }
      ],
      "name": "safeTransferFrom",
      "outputs": [],
      "stateMutability": "nonpayable",
      "type": "function"
    },
    {
      "inputs": [
        {
          "internalType": "address",
          "name": "operator",
          "type": "address"
        },
        {
          "internalType": "bool",
          "name": "approved",
          "type": "bool"
        }
      ],
      "name": "setApprovalForAll",
      "outputs": [],
      "stateMutability": "nonpayable",
      "type": "function"
    },
    {
      "inputs": [],
      "name": "strBaseTokenURI",
      "outputs": [
        {
          "internalType": "string",
          "name": "",
          "type": "string"
        }
      ],
      "stateMutability": "view",
      "type": "function"
    },
    {
      "inputs": [
        {
          "internalType": "bytes4",
          "name": "interfaceId",
          "type": "bytes4"
        }
      ],
      "name": "supportsInterface",
      "outputs": [
        {
          "internalType": "bool",
          "name": "",
          "type": "bool"
        }
      ],
      "stateMutability": "view",
      "type": "function"
    },
    {
      "inputs": [],
      "name": "symbol",
      "outputs": [
        {
          "internalType": "string",
          "name": "",
          "type": "string"
        }
      ],
      "stateMutability": "view",
      "type": "function"
    },
    {
      "inputs": [
        {
          "internalType": "uint256",
          "name": "index",
          "type": "uint256"
        }
      ],
      "name": "tokenByIndex",
      "outputs": [
        {
          "internalType": "uint256",
          "name": "",
          "type": "uint256"
        }
      ],
      "stateMutability": "view",
      "type": "function"
    },
    {
      "inputs": [
        {
          "internalType": "address",
          "name": "owner",
          "type": "address"
        },
        {
          "internalType": "uint256",
          "name": "index",
          "type": "uint256"
        }
      ],
      "name": "tokenOfOwnerByIndex",
      "outputs": [
        {
          "internalType": "uint256",
          "name": "",
          "type": "uint256"
        }
      ],
      "stateMutability": "view",
      "type": "function"
    },
    {
      "inputs": [
        {
          "internalType": "uint256",
          "name": "_tokenId",
          "type": "uint256"
        }
      ],
      "name": "tokenURI",
      "outputs": [
        {
          "internalType": "string",
          "name": "",
          "type": "string"
        }
      ],
      "stateMutability": "view",
      "type": "function"
    },
    {
      "inputs": [],
      "name": "totalSupply",
      "outputs": [
        {
          "internalType": "uint256",
          "name": "",
          "type": "uint256"
        }
      ],
      "stateMutability": "view",
      "type": "function"
    },
    {
      "inputs": [
        {
          "internalType": "address",
          "name": "from",
          "type": "address"
        },
        {
          "internalType": "address",
          "name": "to",
          "type": "address"
        },
        {
          "internalType": "uint256",
          "name": "tokenId",
          "type": "uint256"
        }
      ],
      "name": "transferFrom",
      "outputs": [],
      "stateMutability": "nonpayable",
      "type": "function"
    },
    {
      "inputs": [
        {
          "internalType": "address",
          "name": "newOwner",
          "type": "address"
        }
      ],
      "name": "transferOwnership",
      "outputs": [],
      "stateMutability": "nonpayable",
      "type": "function"
    },
    {
      "inputs": [],
      "name": "unpause",
      "outputs": [
        {
          "internalType": "bool",
          "name": "",
          "type": "bool"
        }
      ],
      "stateMutability": "nonpayable",
      "type": "function"
    },
    {
      "inputs": [
        {
          "internalType": "uint256[]",
          "name": "_newBoxPricesBNB",
          "type": "uint256[]"
        }
      ],
      "name": "updateBoxPricesBNB",
      "outputs": [
        {
          "internalType": "bool",
          "name": "",
          "type": "bool"
        }
      ],
      "stateMutability": "nonpayable",
      "type": "function"
    },
    {
      "inputs": [
        {
          "internalType": "bytes32",
          "name": "leaf",
          "type": "bytes32"
        },
        {
          "internalType": "bytes32[]",
          "name": "proof",
          "type": "bytes32[]"
        }
      ],
      "name": "verifyWhitelist",
      "outputs": [
        {
          "internalType": "bool",
          "name": "",
          "type": "bool"
        }
      ],
      "stateMutability": "view",
      "type": "function"
    },
    {
      "inputs": [
        {
          "internalType": "address",
          "name": "_owner",
          "type": "address"
        }
      ],
      "name": "walletOfOwner",
      "outputs": [
        {
          "internalType": "uint256[]",
          "name": "",
          "type": "uint256[]"
        }
      ],
      "stateMutability": "view",
      "type": "function"
    },
    {
      "inputs": [],
      "name": "whitelistActive",
      "outputs": [
        {
          "internalType": "bool",
          "name": "",
          "type": "bool"
        }
      ],
      "stateMutability": "view",
      "type": "function"
    },
    {
      "inputs": [],
      "name": "whitelistPrice",
      "outputs": [
        {
          "internalType": "uint256",
          "name": "",
          "type": "uint256"
        }
      ],
      "stateMutability": "view",
      "type": "function"
    },
    {
      "inputs": [],
      "name": "withdraw",
      "outputs": [],
      "stateMutability": "nonpayable",
      "type": "function"
    }
  ],
  "bytecode": "0x60806040526040518060600160405280662386f26fc1000066ffffffffffffff16815260200166470de4df82000066ffffffffffffff168152602001666a94d74f43000066ffffffffffffff16815250600d90600362000061929190620002a6565b5066470de4df820000600e556040518060600160405280602281526020016200539260229139600f90805190602001906200009e92919062000303565b506000601060006101000a81548160ff0219169083151502179055507fa2fc709bf2f4b9cb44b8a9114485d12d4877bb1beedd81f62f4f85a8056480ee60001b601155348015620000ee57600080fd5b506040518060400160405280600681526020017f42757267657200000000000000000000000000000000000000000000000000008152506040518060400160405280600681526020017f425552474552000000000000000000000000000000000000000000000000000081525081600090805190602001906200017392919062000303565b5080600190805190602001906200018c92919062000303565b5050506000600a60006101000a81548160ff021916908315150217905550620001ca620001be620001d860201b60201c565b620001e060201b60201c565b6001600b8190555062000418565b600033905090565b6000600a60019054906101000a900473ffffffffffffffffffffffffffffffffffffffff16905081600a60016101000a81548173ffffffffffffffffffffffffffffffffffffffff021916908373ffffffffffffffffffffffffffffffffffffffff1602179055508173ffffffffffffffffffffffffffffffffffffffff168173ffffffffffffffffffffffffffffffffffffffff167f8be0079c531659141344cd1fd0a4f28419497f9722a3daafe3b4186f6b6457e060405160405180910390a35050565b828054828255906000526020600020908101928215620002f0579160200282015b82811115620002ef578251829066ffffffffffffff16905591602001919060010190620002c7565b5b509050620002ff919062000394565b5090565b8280546200031190620003e2565b90600052602060002090601f01602090048101928262000335576000855562000381565b82601f106200035057805160ff191683800117855562000381565b8280016001018555821562000381579182015b828111156200038057825182559160200191906001019062000363565b5b50905062000390919062000394565b5090565b5b80821115620003af57600081600090555060010162000395565b5090565b7f4e487b7100000000000000000000000000000000000000000000000000000000600052602260045260246000fd5b60006002820490506001821680620003fb57607f821691505b60208210811415620004125762000411620003b3565b5b50919050565b614f6a80620004286000396000f3fe60806040526004361061021a5760003560e01c806370a0823111610123578063b88d4fde116100ab578063e40e97a71161006f578063e40e97a714610824578063e985e9c51461084d578063f09542b31461088a578063f2fde38b146108ba578063fc1a1c36146108e35761021a565b8063b88d4fde1461074e578063c0fb5e8f14610777578063c87b56dd14610793578063ca847633146107d0578063d9583b9f146107fb5761021a565b80638cba90b0116100f25780638cba90b0146106555780638da5cb5b1461069257806395d89b41146106bd578063a22cb465146106e8578063a69a6e82146107115761021a565b806370a0823114610599578063715018a6146105d657806379d72794146105ed5780638456cb591461062a5761021a565b8063329ea90d116101a657806342842e0e1161017557806342842e0e1461048e578063438b6300146104b75780634f6ccce7146104f45780635c975abb146105315780636352211e1461055c5761021a565b8063329ea90d146103e65780633ccfd60b146104235780633d59cd601461043a5780633f4ba83a146104635761021a565b8063095ea7b3116101ed578063095ea7b3146102ef578063120f91d51461031857806318160ddd1461035557806323b872dd146103805780632f745c59146103a95761021a565b806301ffc9a71461021f57806302ce58131461025c57806306fdde0314610287578063081812fc146102b2575b600080fd5b34801561022b57600080fd5b50610246600480360381019061024191906133bb565b61090e565b6040516102539190613403565b60405180910390f35b34801561026857600080fd5b50610271610988565b60405161027e9190613403565b60405180910390f35b34801561029357600080fd5b5061029c61099b565b6040516102a991906134b7565b60405180910390f35b3480156102be57600080fd5b506102d960048036038101906102d4919061350f565b610a2d565b6040516102e6919061357d565b60405180910390f35b3480156102fb57600080fd5b50610316600480360381019061031191906135c4565b610ab2565b005b34801561032457600080fd5b5061033f600480360381019061033a919061350f565b610bca565b60405161034c9190613613565b60405180910390f35b34801561036157600080fd5b5061036a610bee565b6040516103779190613613565b60405180910390f35b34801561038c57600080fd5b506103a760048036038101906103a2919061362e565b610bfb565b005b3480156103b557600080fd5b506103d060048036038101906103cb91906135c4565b610c5b565b6040516103dd9190613613565b60405180910390f35b3480156103f257600080fd5b5061040d600480360381019061040891906137ff565b610d00565b60405161041a9190613403565b60405180910390f35b34801561042f57600080fd5b50610438610db8565b005b34801561044657600080fd5b50610461600480360381019061045c919061385b565b610e8a565b005b34801561046f57600080fd5b50610478610f10565b6040516104859190613403565b60405180910390f35b34801561049a57600080fd5b506104b560048036038101906104b0919061362e565b610f9d565b005b3480156104c357600080fd5b506104de60048036038101906104d99190613888565b610fbd565b6040516104eb9190613973565b60405180910390f35b34801561050057600080fd5b5061051b6004803603810190610516919061350f565b61106b565b6040516105289190613613565b60405180910390f35b34801561053d57600080fd5b506105466110dc565b6040516105539190613403565b60405180910390f35b34801561056857600080fd5b50610583600480360381019061057e919061350f565b6110f3565b604051610590919061357d565b60405180910390f35b3480156105a557600080fd5b506105c060048036038101906105bb9190613888565b6111a5565b6040516105cd9190613613565b60405180910390f35b3480156105e257600080fd5b506105eb61125d565b005b3480156105f957600080fd5b50610614600480360381019061060f91906139ce565b6112e5565b6040516106219190613613565b60405180910390f35b34801561063657600080fd5b5061063f611375565b60405161064c9190613403565b60405180910390f35b34801561066157600080fd5b5061067c6004803603810190610677919061350f565b611402565b6040516106899190613a1d565b60405180910390f35b34801561069e57600080fd5b506106a7611474565b6040516106b4919061357d565b60405180910390f35b3480156106c957600080fd5b506106d261149e565b6040516106df91906134b7565b60405180910390f35b3480156106f457600080fd5b5061070f600480360381019061070a9190613a64565b611530565b005b34801561071d57600080fd5b5061073860048036038101906107339190613b67565b6116b1565b6040516107459190613403565b60405180910390f35b34801561075a57600080fd5b5061077560048036038101906107709190613c65565b61174f565b005b610791600480360381019061078c91906137ff565b6117b1565b005b34801561079f57600080fd5b506107ba60048036038101906107b5919061350f565b6119d6565b6040516107c791906134b7565b60405180910390f35b3480156107dc57600080fd5b506107e5611a58565b6040516107f291906134b7565b60405180910390f35b34801561080757600080fd5b50610822600480360381019061081d9190613ce8565b611ae6565b005b34801561083057600080fd5b5061084b60048036038101906108469190613db6565b611b7f565b005b34801561085957600080fd5b50610874600480360381019061086f9190613dff565b611c15565b6040516108819190613403565b60405180910390f35b6108a4600480360381019061089f9190613e3f565b611ca9565b6040516108b19190613613565b60405180910390f35b3480156108c657600080fd5b506108e160048036038101906108dc9190613888565b611e87565b005b3480156108ef57600080fd5b506108f8611f7f565b6040516109059190613613565b60405180910390f35b60007f780e9d63000000000000000000000000000000000000000000000000000000007bffffffffffffffffffffffffffffffffffffffffffffffffffffffff1916827bffffffffffffffffffffffffffffffffffffffffffffffffffffffff19161480610981575061098082611f85565b5b9050919050565b601060009054906101000a900460ff1681565b6060600080546109aa90613e9b565b80601f01602080910402602001604051908101604052809291908181526020018280546109d690613e9b565b8015610a235780601f106109f857610100808354040283529160200191610a23565b820191906000526020600020905b815481529060010190602001808311610a0657829003601f168201915b5050505050905090565b6000610a3882612067565b610a77576040517f08c379a0000000000000000000000000000000000000000000000000000000008152600401610a6e90613f3f565b60405180910390fd5b6004600083815260200190815260200160002060009054906101000a900473ffffffffffffffffffffffffffffffffffffffff169050919050565b6000610abd826110f3565b90508073ffffffffffffffffffffffffffffffffffffffff168373ffffffffffffffffffffffffffffffffffffffff161415610b2e576040517f08c379a0000000000000000000000000000000000000000000000000000000008152600401610b2590613fd1565b60405180910390fd5b8073ffffffffffffffffffffffffffffffffffffffff16610b4d6120d3565b73ffffffffffffffffffffffffffffffffffffffff161480610b7c5750610b7b81610b766120d3565b611c15565b5b610bbb576040517f08c379a0000000000000000000000000000000000000000000000000000000008152600401610bb290614063565b60405180910390fd5b610bc583836120db565b505050565b600d8181548110610bda57600080fd5b906000526020600020016000915090505481565b6000600880549050905090565b610c0c610c066120d3565b82612194565b610c4b576040517f08c379a0000000000000000000000000000000000000000000000000000000008152600401610c42906140f5565b60405180910390fd5b610c56838383612272565b505050565b6000610c66836111a5565b8210610ca7576040517f08c379a0000000000000000000000000000000000000000000000000000000008152600401610c9e90614187565b60405180910390fd5b600660008473ffffffffffffffffffffffffffffffffffffffff1673ffffffffffffffffffffffffffffffffffffffff168152602001908152602001600020600083815260200190815260200160002054905092915050565b60008083905060005b8351811015610da9576000848281518110610d2757610d266141a7565b5b6020026020010151905080831015610d69578281604051602001610d4c9291906141f7565b604051602081830303815290604052805190602001209250610d95565b8083604051602001610d7c9291906141f7565b6040516020818303038152906040528051906020012092505b508080610da190614252565b915050610d09565b50601154811491505092915050565b610dc06120d3565b73ffffffffffffffffffffffffffffffffffffffff16610dde611474565b73ffffffffffffffffffffffffffffffffffffffff1614610e34576040517f08c379a0000000000000000000000000000000000000000000000000000000008152600401610e2b906142e7565b60405180910390fd5b6000479050610e41611474565b73ffffffffffffffffffffffffffffffffffffffff166108fc829081150290604051600060405180830381858888f19350505050158015610e86573d6000803e3d6000fd5b5050565b610e926120d3565b73ffffffffffffffffffffffffffffffffffffffff16610eb0611474565b73ffffffffffffffffffffffffffffffffffffffff1614610f06576040517f08c379a0000000000000000000000000000000000000000000000000000000008152600401610efd906142e7565b60405180910390fd5b8060118190555050565b6000610f1a6120d3565b73ffffffffffffffffffffffffffffffffffffffff16610f38611474565b73ffffffffffffffffffffffffffffffffffffffff1614610f8e576040517f08c379a0000000000000000000000000000000000000000000000000000000008152600401610f85906142e7565b60405180910390fd5b610f966124ce565b6001905090565b610fb88383836040518060200160405280600081525061174f565b505050565b60606000610fca836111a5565b905060008167ffffffffffffffff811115610fe857610fe76136bc565b5b6040519080825280602002602001820160405280156110165781602001602082028036833780820191505090505b50905060005b828110156110605761102e8582610c5b565b828281518110611041576110406141a7565b5b602002602001018181525050808061105890614252565b91505061101c565b508092505050919050565b6000611075610bee565b82106110b6576040517f08c379a00000000000000000000000000000000000000000000000000000000081526004016110ad90614379565b60405180910390fd5b600882815481106110ca576110c96141a7565b5b90600052602060002001549050919050565b6000600a60009054906101000a900460ff16905090565b6000806002600084815260200190815260200160002060009054906101000a900473ffffffffffffffffffffffffffffffffffffffff169050600073ffffffffffffffffffffffffffffffffffffffff168173ffffffffffffffffffffffffffffffffffffffff16141561119c576040517f08c379a00000000000000000000000000000000000000000000000000000000081526004016111939061440b565b60405180910390fd5b80915050919050565b60008073ffffffffffffffffffffffffffffffffffffffff168273ffffffffffffffffffffffffffffffffffffffff161415611216576040517f08c379a000000000000000000000000000000000000000000000000000000000815260040161120d9061449d565b60405180910390fd5b600360008373ffffffffffffffffffffffffffffffffffffffff1673ffffffffffffffffffffffffffffffffffffffff168152602001908152602001600020549050919050565b6112656120d3565b73ffffffffffffffffffffffffffffffffffffffff16611283611474565b73ffffffffffffffffffffffffffffffffffffffff16146112d9576040517f08c379a00000000000000000000000000000000000000000000000000000000081526004016112d0906142e7565b60405180910390fd5b6112e36000612570565b565b60006112ef6120d3565b73ffffffffffffffffffffffffffffffffffffffff1661130d611474565b73ffffffffffffffffffffffffffffffffffffffff1614611363576040517f08c379a000000000000000000000000000000000000000000000000000000000815260040161135a906142e7565b60405180910390fd5b61136d8383612636565b905092915050565b600061137f6120d3565b73ffffffffffffffffffffffffffffffffffffffff1661139d611474565b73ffffffffffffffffffffffffffffffffffffffff16146113f3576040517f08c379a00000000000000000000000000000000000000000000000000000000081526004016113ea906142e7565b60405180910390fd5b6113fb6126f3565b6001905090565b600061140d82612067565b61144c576040517f08c379a000000000000000000000000000000000000000000000000000000000815260040161144390614509565b60405180910390fd5b600c600083815260200190815260200160002060009054906101000a900460ff169050919050565b6000600a60019054906101000a900473ffffffffffffffffffffffffffffffffffffffff16905090565b6060600180546114ad90613e9b565b80601f01602080910402602001604051908101604052809291908181526020018280546114d990613e9b565b80156115265780601f106114fb57610100808354040283529160200191611526565b820191906000526020600020905b81548152906001019060200180831161150957829003601f168201915b5050505050905090565b6115386120d3565b73ffffffffffffffffffffffffffffffffffffffff168273ffffffffffffffffffffffffffffffffffffffff1614156115a6576040517f08c379a000000000000000000000000000000000000000000000000000000000815260040161159d90614575565b60405180910390fd5b80600560006115b36120d3565b73ffffffffffffffffffffffffffffffffffffffff1673ffffffffffffffffffffffffffffffffffffffff16815260200190815260200160002060008473ffffffffffffffffffffffffffffffffffffffff1673ffffffffffffffffffffffffffffffffffffffff16815260200190815260200160002060006101000a81548160ff0219169083151502179055508173ffffffffffffffffffffffffffffffffffffffff166116606120d3565b73ffffffffffffffffffffffffffffffffffffffff167f17307eab39ab6107e8899845ad3d59bd9653f200f220920489ca2b5937696c31836040516116a59190613403565b60405180910390a35050565b60006116bb6120d3565b73ffffffffffffffffffffffffffffffffffffffff166116d9611474565b73ffffffffffffffffffffffffffffffffffffffff161461172f576040517f08c379a0000000000000000000000000000000000000000000000000000000008152600401611726906142e7565b60405180910390fd5b81600d908051906020019061174592919061325f565b5060019050919050565b61176061175a6120d3565b83612194565b61179f576040517f08c379a0000000000000000000000000000000000000000000000000000000008152600401611796906140f5565b60405180910390fd5b6117ab84848484612796565b50505050565b6117b96110dc565b156117f9576040517f08c379a00000000000000000000000000000000000000000000000000000000081526004016117f0906145e1565b60405180910390fd5b6002600b54141561183f576040517f08c379a00000000000000000000000000000000000000000000000000000000081526004016118369061464d565b60405180910390fd5b6002600b81905550601060009054906101000a900460ff16611896576040517f08c379a000000000000000000000000000000000000000000000000000000000815260040161188d906146b9565b60405180910390fd5b600d6001815481106118ab576118aa6141a7565b5b90600052602060002001543410156118f8576040517f08c379a00000000000000000000000000000000000000000000000000000000081526004016118ef90614725565b60405180910390fd5b60006119048383610d00565b9050801561191d57611917336002612636565b50611958565b6040517f08c379a000000000000000000000000000000000000000000000000000000000815260040161194f90614791565b60405180910390fd5b3373ffffffffffffffffffffffffffffffffffffffff166108fc600d600181548110611987576119866141a7565b5b90600052602060002001543461199d91906147b1565b9081150290604051600060405180830381858888f193505050501580156119c8573d6000803e3d6000fd5b50506001600b819055505050565b60606119e182612067565b611a20576040517f08c379a0000000000000000000000000000000000000000000000000000000008152600401611a1790614509565b60405180910390fd5b611a286127f2565b611a3183612884565b604051602001611a42929190614821565b6040516020818303038152906040529050919050565b600f8054611a6590613e9b565b80601f0160208091040260200160405190810160405280929190818152602001828054611a9190613e9b565b8015611ade5780601f10611ab357610100808354040283529160200191611ade565b820191906000526020600020905b815481529060010190602001808311611ac157829003601f168201915b505050505081565b611aee6120d3565b73ffffffffffffffffffffffffffffffffffffffff16611b0c611474565b73ffffffffffffffffffffffffffffffffffffffff1614611b62576040517f08c379a0000000000000000000000000000000000000000000000000000000008152600401611b59906142e7565b60405180910390fd5b80601060006101000a81548160ff02191690831515021790555050565b611b876120d3565b73ffffffffffffffffffffffffffffffffffffffff16611ba5611474565b73ffffffffffffffffffffffffffffffffffffffff1614611bfb576040517f08c379a0000000000000000000000000000000000000000000000000000000008152600401611bf2906142e7565b60405180910390fd5b80600f9080519060200190611c119291906132ac565b5050565b6000600560008473ffffffffffffffffffffffffffffffffffffffff1673ffffffffffffffffffffffffffffffffffffffff16815260200190815260200160002060008373ffffffffffffffffffffffffffffffffffffffff1673ffffffffffffffffffffffffffffffffffffffff16815260200190815260200160002060009054906101000a900460ff16905092915050565b6000611cb36110dc565b15611cf3576040517f08c379a0000000000000000000000000000000000000000000000000000000008152600401611cea906145e1565b60405180910390fd5b6002600b541415611d39576040517f08c379a0000000000000000000000000000000000000000000000000000000008152600401611d309061464d565b60405180910390fd5b6002600b81905550601060009054906101000a900460ff1615611d91576040517f08c379a0000000000000000000000000000000000000000000000000000000008152600401611d8890614891565b60405180910390fd5b600d8260ff1681548110611da857611da76141a7565b5b9060005260206000200154341015611df5576040517f08c379a0000000000000000000000000000000000000000000000000000000008152600401611dec906148fd565b60405180910390fd5b6000611e013384612636565b90503373ffffffffffffffffffffffffffffffffffffffff166108fc600d8560ff1681548110611e3457611e336141a7565b5b906000526020600020015434611e4a91906147b1565b9081150290604051600060405180830381858888f19350505050158015611e75573d6000803e3d6000fd5b50809150506001600b81905550919050565b611e8f6120d3565b73ffffffffffffffffffffffffffffffffffffffff16611ead611474565b73ffffffffffffffffffffffffffffffffffffffff1614611f03576040517f08c379a0000000000000000000000000000000000000000000000000000000008152600401611efa906142e7565b60405180910390fd5b600073ffffffffffffffffffffffffffffffffffffffff168173ffffffffffffffffffffffffffffffffffffffff161415611f73576040517f08c379a0000000000000000000000000000000000000000000000000000000008152600401611f6a9061498f565b60405180910390fd5b611f7c81612570565b50565b600e5481565b60007f80ac58cd000000000000000000000000000000000000000000000000000000007bffffffffffffffffffffffffffffffffffffffffffffffffffffffff1916827bffffffffffffffffffffffffffffffffffffffffffffffffffffffff1916148061205057507f5b5e139f000000000000000000000000000000000000000000000000000000007bffffffffffffffffffffffffffffffffffffffffffffffffffffffff1916827bffffffffffffffffffffffffffffffffffffffffffffffffffffffff1916145b80612060575061205f826129e5565b5b9050919050565b60008073ffffffffffffffffffffffffffffffffffffffff166002600084815260200190815260200160002060009054906101000a900473ffffffffffffffffffffffffffffffffffffffff1673ffffffffffffffffffffffffffffffffffffffff1614159050919050565b600033905090565b816004600083815260200190815260200160002060006101000a81548173ffffffffffffffffffffffffffffffffffffffff021916908373ffffffffffffffffffffffffffffffffffffffff160217905550808273ffffffffffffffffffffffffffffffffffffffff1661214e836110f3565b73ffffffffffffffffffffffffffffffffffffffff167f8c5be1e5ebec7d5bd14f71427d1e84f3dd0314c0f7b2291e5b200ac8c7c3b92560405160405180910390a45050565b600061219f82612067565b6121de576040517f08c379a00000000000000000000000000000000000000000000000000000000081526004016121d590614a21565b60405180910390fd5b60006121e9836110f3565b90508073ffffffffffffffffffffffffffffffffffffffff168473ffffffffffffffffffffffffffffffffffffffff16148061225857508373ffffffffffffffffffffffffffffffffffffffff1661224084610a2d565b73ffffffffffffffffffffffffffffffffffffffff16145b8061226957506122688185611c15565b5b91505092915050565b8273ffffffffffffffffffffffffffffffffffffffff16612292826110f3565b73ffffffffffffffffffffffffffffffffffffffff16146122e8576040517f08c379a00000000000000000000000000000000000000000000000000000000081526004016122df90614ab3565b60405180910390fd5b600073ffffffffffffffffffffffffffffffffffffffff168273ffffffffffffffffffffffffffffffffffffffff161415612358576040517f08c379a000000000000000000000000000000000000000000000000000000000815260040161234f90614b45565b60405180910390fd5b612363838383612a4f565b61236e6000826120db565b6001600360008573ffffffffffffffffffffffffffffffffffffffff1673ffffffffffffffffffffffffffffffffffffffff16815260200190815260200160002060008282546123be91906147b1565b925050819055506001600360008473ffffffffffffffffffffffffffffffffffffffff1673ffffffffffffffffffffffffffffffffffffffff16815260200190815260200160002060008282546124159190614b65565b92505081905550816002600083815260200190815260200160002060006101000a81548173ffffffffffffffffffffffffffffffffffffffff021916908373ffffffffffffffffffffffffffffffffffffffff160217905550808273ffffffffffffffffffffffffffffffffffffffff168473ffffffffffffffffffffffffffffffffffffffff167fddf252ad1be2c89b69c2b068fc378daa952ba7f163c4a11628f55a4df523b3ef60405160405180910390a4505050565b6124d66110dc565b612515576040517f08c379a000000000000000000000000000000000000000000000000000000000815260040161250c90614c07565b60405180910390fd5b6000600a60006101000a81548160ff0219169083151502179055507f5db9ee0a495bf2e6ff9c91a7834c1ba4fdd244a5e8aa4e537bd38aeae4b073aa6125596120d3565b604051612566919061357d565b60405180910390a1565b6000600a60019054906101000a900473ffffffffffffffffffffffffffffffffffffffff16905081600a60016101000a81548173ffffffffffffffffffffffffffffffffffffffff021916908373ffffffffffffffffffffffffffffffffffffffff1602179055508173ffffffffffffffffffffffffffffffffffffffff168173ffffffffffffffffffffffffffffffffffffffff167f8be0079c531659141344cd1fd0a4f28419497f9722a3daafe3b4186f6b6457e060405160405180910390a35050565b600061264983612644610bee565b612b63565b81600c6000612656610bee565b815260200190815260200160002060006101000a81548160ff021916908360ff1602179055508160ff16600161268a610bee565b61269491906147b1565b8473ffffffffffffffffffffffffffffffffffffffff167faabcc1eb354f11e651c87f835e7de6ac847d514718ed76fad480d55d2632992260405160405180910390a460016126e1610bee565b6126eb91906147b1565b905092915050565b6126fb6110dc565b1561273b576040517f08c379a0000000000000000000000000000000000000000000000000000000008152600401612732906145e1565b60405180910390fd5b6001600a60006101000a81548160ff0219169083151502179055507f62e78cea01bee320cd4e420270b5ea74000d11b0c9f74754ebdbfc544b05a25861277f6120d3565b60405161278c919061357d565b60405180910390a1565b6127a1848484612272565b6127ad84848484612b81565b6127ec576040517f08c379a00000000000000000000000000000000000000000000000000000000081526004016127e390614c99565b60405180910390fd5b50505050565b6060600f805461280190613e9b565b80601f016020809104026020016040519081016040528092919081815260200182805461282d90613e9b565b801561287a5780601f1061284f5761010080835404028352916020019161287a565b820191906000526020600020905b81548152906001019060200180831161285d57829003601f168201915b5050505050905090565b606060008214156128cc576040518060400160405280600181526020017f300000000000000000000000000000000000000000000000000000000000000081525090506129e0565b600082905060005b600082146128fe5780806128e790614252565b915050600a826128f79190614ce8565b91506128d4565b60008167ffffffffffffffff81111561291a576129196136bc565b5b6040519080825280601f01601f19166020018201604052801561294c5781602001600182028036833780820191505090505b5090505b600085146129d95760018261296591906147b1565b9150600a856129749190614d19565b60306129809190614b65565b60f81b818381518110612996576129956141a7565b5b60200101907effffffffffffffffffffffffffffffffffffffffffffffffffffffffffffff1916908160001a905350600a856129d29190614ce8565b9450612950565b8093505050505b919050565b60007f01ffc9a7000000000000000000000000000000000000000000000000000000007bffffffffffffffffffffffffffffffffffffffffffffffffffffffff1916827bffffffffffffffffffffffffffffffffffffffffffffffffffffffff1916149050919050565b612a5a838383612d18565b600073ffffffffffffffffffffffffffffffffffffffff168373ffffffffffffffffffffffffffffffffffffffff161415612a9d57612a9881612d1d565b612adc565b8173ffffffffffffffffffffffffffffffffffffffff168373ffffffffffffffffffffffffffffffffffffffff1614612adb57612ada8382612d66565b5b5b600073ffffffffffffffffffffffffffffffffffffffff168273ffffffffffffffffffffffffffffffffffffffff161415612b1f57612b1a81612ed3565b612b5e565b8273ffffffffffffffffffffffffffffffffffffffff168273ffffffffffffffffffffffffffffffffffffffff1614612b5d57612b5c8282612fa4565b5b5b505050565b612b7d828260405180602001604052806000815250613023565b5050565b6000612ba28473ffffffffffffffffffffffffffffffffffffffff1661307e565b15612d0b578373ffffffffffffffffffffffffffffffffffffffff1663150b7a02612bcb6120d3565b8786866040518563ffffffff1660e01b8152600401612bed9493929190614d9f565b602060405180830381600087803b158015612c0757600080fd5b505af1925050508015612c3857506040513d601f19601f82011682018060405250810190612c359190614e00565b60015b612cbb573d8060008114612c68576040519150601f19603f3d011682016040523d82523d6000602084013e612c6d565b606091505b50600081511415612cb3576040517f08c379a0000000000000000000000000000000000000000000000000000000008152600401612caa90614c99565b60405180910390fd5b805181602001fd5b63150b7a0260e01b7bffffffffffffffffffffffffffffffffffffffffffffffffffffffff1916817bffffffffffffffffffffffffffffffffffffffffffffffffffffffff191614915050612d10565b600190505b949350505050565b505050565b6008805490506009600083815260200190815260200160002081905550600881908060018154018082558091505060019003906000526020600020016000909190919091505550565b60006001612d73846111a5565b612d7d91906147b1565b9050600060076000848152602001908152602001600020549050818114612e62576000600660008673ffffffffffffffffffffffffffffffffffffffff1673ffffffffffffffffffffffffffffffffffffffff168152602001908152602001600020600084815260200190815260200160002054905080600660008773ffffffffffffffffffffffffffffffffffffffff1673ffffffffffffffffffffffffffffffffffffffff168152602001908152602001600020600084815260200190815260200160002081905550816007600083815260200190815260200160002081905550505b6007600084815260200190815260200160002060009055600660008573ffffffffffffffffffffffffffffffffffffffff1673ffffffffffffffffffffffffffffffffffffffff16815260200190815260200160002060008381526020019081526020016000206000905550505050565b60006001600880549050612ee791906147b1565b9050600060096000848152602001908152602001600020549050600060088381548110612f1757612f166141a7565b5b906000526020600020015490508060088381548110612f3957612f386141a7565b5b906000526020600020018190555081600960008381526020019081526020016000208190555060096000858152602001908152602001600020600090556008805480612f8857612f87614e2d565b5b6001900381819060005260206000200160009055905550505050565b6000612faf836111a5565b905081600660008573ffffffffffffffffffffffffffffffffffffffff1673ffffffffffffffffffffffffffffffffffffffff168152602001908152602001600020600083815260200190815260200160002081905550806007600084815260200190815260200160002081905550505050565b61302d8383613091565b61303a6000848484612b81565b613079576040517f08c379a000000000000000000000000000000000000000000000000000000000815260040161307090614c99565b60405180910390fd5b505050565b600080823b905060008111915050919050565b600073ffffffffffffffffffffffffffffffffffffffff168273ffffffffffffffffffffffffffffffffffffffff161415613101576040517f08c379a00000000000000000000000000000000000000000000000000000000081526004016130f890614ea8565b60405180910390fd5b61310a81612067565b1561314a576040517f08c379a000000000000000000000000000000000000000000000000000000000815260040161314190614f14565b60405180910390fd5b61315660008383612a4f565b6001600360008473ffffffffffffffffffffffffffffffffffffffff1673ffffffffffffffffffffffffffffffffffffffff16815260200190815260200160002060008282546131a69190614b65565b92505081905550816002600083815260200190815260200160002060006101000a81548173ffffffffffffffffffffffffffffffffffffffff021916908373ffffffffffffffffffffffffffffffffffffffff160217905550808273ffffffffffffffffffffffffffffffffffffffff16600073ffffffffffffffffffffffffffffffffffffffff167fddf252ad1be2c89b69c2b068fc378daa952ba7f163c4a11628f55a4df523b3ef60405160405180910390a45050565b82805482825590600052602060002090810192821561329b579160200282015b8281111561329a57825182559160200191906001019061327f565b5b5090506132a89190613332565b5090565b8280546132b890613e9b565b90600052602060002090601f0160209004810192826132da5760008555613321565b82601f106132f357805160ff1916838001178555613321565b82800160010185558215613321579182015b82811115613320578251825591602001919060010190613305565b5b50905061332e9190613332565b5090565b5b8082111561334b576000816000905550600101613333565b5090565b6000604051905090565b600080fd5b600080fd5b60007fffffffff0000000000000000000000000000000000000000000000000000000082169050919050565b61339881613363565b81146133a357600080fd5b50565b6000813590506133b58161338f565b92915050565b6000602082840312156133d1576133d0613359565b5b60006133df848285016133a6565b91505092915050565b60008115159050919050565b6133fd816133e8565b82525050565b600060208201905061341860008301846133f4565b92915050565b600081519050919050565b600082825260208201905092915050565b60005b8381101561345857808201518184015260208101905061343d565b83811115613467576000848401525b50505050565b6000601f19601f8301169050919050565b60006134898261341e565b6134938185613429565b93506134a381856020860161343a565b6134ac8161346d565b840191505092915050565b600060208201905081810360008301526134d1818461347e565b905092915050565b6000819050919050565b6134ec816134d9565b81146134f757600080fd5b50565b600081359050613509816134e3565b92915050565b60006020828403121561352557613524613359565b5b6000613533848285016134fa565b91505092915050565b600073ffffffffffffffffffffffffffffffffffffffff82169050919050565b60006135678261353c565b9050919050565b6135778161355c565b82525050565b6000602082019050613592600083018461356e565b92915050565b6135a18161355c565b81146135ac57600080fd5b50565b6000813590506135be81613598565b92915050565b600080604083850312156135db576135da613359565b5b60006135e9858286016135af565b92505060206135fa858286016134fa565b9150509250929050565b61360d816134d9565b82525050565b60006020820190506136286000830184613604565b92915050565b60008060006060848603121561364757613646613359565b5b6000613655868287016135af565b9350506020613666868287016135af565b9250506040613677868287016134fa565b9150509250925092565b6000819050919050565b61369481613681565b811461369f57600080fd5b50565b6000813590506136b18161368b565b92915050565b600080fd5b7f4e487b7100000000000000000000000000000000000000000000000000000000600052604160045260246000fd5b6136f48261346d565b810181811067ffffffffffffffff82111715613713576137126136bc565b5b80604052505050565b600061372661334f565b905061373282826136eb565b919050565b600067ffffffffffffffff821115613752576137516136bc565b5b602082029050602081019050919050565b600080fd5b600061377b61377684613737565b61371c565b9050808382526020820190506020840283018581111561379e5761379d613763565b5b835b818110156137c757806137b388826136a2565b8452602084019350506020810190506137a0565b5050509392505050565b600082601f8301126137e6576137e56136b7565b5b81356137f6848260208601613768565b91505092915050565b6000806040838503121561381657613815613359565b5b6000613824858286016136a2565b925050602083013567ffffffffffffffff8111156138455761384461335e565b5b613851858286016137d1565b9150509250929050565b60006020828403121561387157613870613359565b5b600061387f848285016136a2565b91505092915050565b60006020828403121561389e5761389d613359565b5b60006138ac848285016135af565b91505092915050565b600081519050919050565b600082825260208201905092915050565b6000819050602082019050919050565b6138ea816134d9565b82525050565b60006138fc83836138e1565b60208301905092915050565b6000602082019050919050565b6000613920826138b5565b61392a81856138c0565b9350613935836138d1565b8060005b8381101561396657815161394d88826138f0565b975061395883613908565b925050600181019050613939565b5085935050505092915050565b6000602082019050818103600083015261398d8184613915565b905092915050565b600060ff82169050919050565b6139ab81613995565b81146139b657600080fd5b50565b6000813590506139c8816139a2565b92915050565b600080604083850312156139e5576139e4613359565b5b60006139f3858286016135af565b9250506020613a04858286016139b9565b9150509250929050565b613a1781613995565b82525050565b6000602082019050613a326000830184613a0e565b92915050565b613a41816133e8565b8114613a4c57600080fd5b50565b600081359050613a5e81613a38565b92915050565b60008060408385031215613a7b57613a7a613359565b5b6000613a89858286016135af565b9250506020613a9a85828601613a4f565b9150509250929050565b600067ffffffffffffffff821115613abf57613abe6136bc565b5b602082029050602081019050919050565b6000613ae3613ade84613aa4565b61371c565b90508083825260208201905060208402830185811115613b0657613b05613763565b5b835b81811015613b2f5780613b1b88826134fa565b845260208401935050602081019050613b08565b5050509392505050565b600082601f830112613b4e57613b4d6136b7565b5b8135613b5e848260208601613ad0565b91505092915050565b600060208284031215613b7d57613b7c613359565b5b600082013567ffffffffffffffff811115613b9b57613b9a61335e565b5b613ba784828501613b39565b91505092915050565b600080fd5b600067ffffffffffffffff821115613bd057613bcf6136bc565b5b613bd98261346d565b9050602081019050919050565b82818337600083830152505050565b6000613c08613c0384613bb5565b61371c565b905082815260208101848484011115613c2457613c23613bb0565b5b613c2f848285613be6565b509392505050565b600082601f830112613c4c57613c4b6136b7565b5b8135613c5c848260208601613bf5565b91505092915050565b60008060008060808587031215613c7f57613c7e613359565b5b6000613c8d878288016135af565b9450506020613c9e878288016135af565b9350506040613caf878288016134fa565b925050606085013567ffffffffffffffff811115613cd057613ccf61335e565b5b613cdc87828801613c37565b91505092959194509250565b600060208284031215613cfe57613cfd613359565b5b6000613d0c84828501613a4f565b91505092915050565b600067ffffffffffffffff821115613d3057613d2f6136bc565b5b613d398261346d565b9050602081019050919050565b6000613d59613d5484613d15565b61371c565b905082815260208101848484011115613d7557613d74613bb0565b5b613d80848285613be6565b509392505050565b600082601f830112613d9d57613d9c6136b7565b5b8135613dad848260208601613d46565b91505092915050565b600060208284031215613dcc57613dcb613359565b5b600082013567ffffffffffffffff811115613dea57613de961335e565b5b613df684828501613d88565b91505092915050565b60008060408385031215613e1657613e15613359565b5b6000613e24858286016135af565b9250506020613e35858286016135af565b9150509250929050565b600060208284031215613e5557613e54613359565b5b6000613e63848285016139b9565b91505092915050565b7f4e487b7100000000000000000000000000000000000000000000000000000000600052602260045260246000fd5b60006002820490506001821680613eb357607f821691505b60208210811415613ec757613ec6613e6c565b5b50919050565b7f4552433732313a20617070726f76656420717565727920666f72206e6f6e657860008201527f697374656e7420746f6b656e0000000000000000000000000000000000000000602082015250565b6000613f29602c83613429565b9150613f3482613ecd565b604082019050919050565b60006020820190508181036000830152613f5881613f1c565b9050919050565b7f4552433732313a20617070726f76616c20746f2063757272656e74206f776e6560008201527f7200000000000000000000000000000000000000000000000000000000000000602082015250565b6000613fbb602183613429565b9150613fc682613f5f565b604082019050919050565b60006020820190508181036000830152613fea81613fae565b9050919050565b7f4552433732313a20617070726f76652063616c6c6572206973206e6f74206f7760008201527f6e6572206e6f7220617070726f76656420666f7220616c6c0000000000000000602082015250565b600061404d603883613429565b915061405882613ff1565b604082019050919050565b6000602082019050818103600083015261407c81614040565b9050919050565b7f4552433732313a207472616e736665722063616c6c6572206973206e6f74206f60008201527f776e6572206e6f7220617070726f766564000000000000000000000000000000602082015250565b60006140df603183613429565b91506140ea82614083565b604082019050919050565b6000602082019050818103600083015261410e816140d2565b9050919050565b7f455243373231456e756d657261626c653a206f776e657220696e646578206f7560008201527f74206f6620626f756e6473000000000000000000000000000000000000000000602082015250565b6000614171602b83613429565b915061417c82614115565b604082019050919050565b600060208201905081810360008301526141a081614164565b9050919050565b7f4e487b7100000000000000000000000000000000000000000000000000000000600052603260045260246000fd5b6000819050919050565b6141f16141ec82613681565b6141d6565b82525050565b600061420382856141e0565b60208201915061421382846141e0565b6020820191508190509392505050565b7f4e487b7100000000000000000000000000000000000000000000000000000000600052601160045260246000fd5b600061425d826134d9565b91507fffffffffffffffffffffffffffffffffffffffffffffffffffffffffffffffff8214156142905761428f614223565b5b600182019050919050565b7f4f776e61626c653a2063616c6c6572206973206e6f7420746865206f776e6572600082015250565b60006142d1602083613429565b91506142dc8261429b565b602082019050919050565b60006020820190508181036000830152614300816142c4565b9050919050565b7f455243373231456e756d657261626c653a20676c6f62616c20696e646578206f60008201527f7574206f6620626f756e64730000000000000000000000000000000000000000602082015250565b6000614363602c83613429565b915061436e82614307565b604082019050919050565b6000602082019050818103600083015261439281614356565b9050919050565b7f4552433732313a206f776e657220717565727920666f72206e6f6e657869737460008201527f656e7420746f6b656e0000000000000000000000000000000000000000000000602082015250565b60006143f5602983613429565b915061440082614399565b604082019050919050565b60006020820190508181036000830152614424816143e8565b9050919050565b7f4552433732313a2062616c616e636520717565727920666f7220746865207a6560008201527f726f206164647265737300000000000000000000000000000000000000000000602082015250565b6000614487602a83613429565b91506144928261442b565b604082019050919050565b600060208201905081810360008301526144b68161447a565b9050919050565b7f546f6b656e20646f6573206e6f74206578697374000000000000000000000000600082015250565b60006144f3601483613429565b91506144fe826144bd565b602082019050919050565b60006020820190508181036000830152614522816144e6565b9050919050565b7f4552433732313a20617070726f766520746f2063616c6c657200000000000000600082015250565b600061455f601983613429565b915061456a82614529565b602082019050919050565b6000602082019050818103600083015261458e81614552565b9050919050565b7f5061757361626c653a2070617573656400000000000000000000000000000000600082015250565b60006145cb601083613429565b91506145d682614595565b602082019050919050565b600060208201905081810360008301526145fa816145be565b9050919050565b7f5265656e7472616e637947756172643a207265656e7472616e742063616c6c00600082015250565b6000614637601f83613429565b915061464282614601565b602082019050919050565b600060208201905081810360008301526146668161462a565b9050919050565b7f57686974656c697374206973206e6f7420616374697665000000000000000000600082015250565b60006146a3601783613429565b91506146ae8261466d565b602082019050919050565b600060208201905081810360008301526146d281614696565b9050919050565b7f4e6f7420656e6f7567687420424e420000000000000000000000000000000000600082015250565b600061470f600f83613429565b915061471a826146d9565b602082019050919050565b6000602082019050818103600083015261473e81614702565b9050919050565b7f4e6f742077686974656c69737465640000000000000000000000000000000000600082015250565b600061477b600f83613429565b915061478682614745565b602082019050919050565b600060208201905081810360008301526147aa8161476e565b9050919050565b60006147bc826134d9565b91506147c7836134d9565b9250828210156147da576147d9614223565b5b828203905092915050565b600081905092915050565b60006147fb8261341e565b61480581856147e5565b935061481581856020860161343a565b80840191505092915050565b600061482d82856147f0565b915061483982846147f0565b91508190509392505050565b7f57686974656c6973742069732061637469766500000000000000000000000000600082015250565b600061487b601383613429565b915061488682614845565b602082019050919050565b600060208201905081810360008301526148aa8161486e565b9050919050565b7f4e6f7420656e6f75676820424e42000000000000000000000000000000000000600082015250565b60006148e7600e83613429565b91506148f2826148b1565b602082019050919050565b60006020820190508181036000830152614916816148da565b9050919050565b7f4f776e61626c653a206e6577206f776e657220697320746865207a65726f206160008201527f6464726573730000000000000000000000000000000000000000000000000000602082015250565b6000614979602683613429565b91506149848261491d565b604082019050919050565b600060208201905081810360008301526149a88161496c565b9050919050565b7f4552433732313a206f70657261746f7220717565727920666f72206e6f6e657860008201527f697374656e7420746f6b656e0000000000000000000000000000000000000000602082015250565b6000614a0b602c83613429565b9150614a16826149af565b604082019050919050565b60006020820190508181036000830152614a3a816149fe565b9050919050565b7f4552433732313a207472616e73666572206f6620746f6b656e2074686174206960008201527f73206e6f74206f776e0000000000000000000000000000000000000000000000602082015250565b6000614a9d602983613429565b9150614aa882614a41565b604082019050919050565b60006020820190508181036000830152614acc81614a90565b9050919050565b7f4552433732313a207472616e7366657220746f20746865207a65726f2061646460008201527f7265737300000000000000000000000000000000000000000000000000000000602082015250565b6000614b2f602483613429565b9150614b3a82614ad3565b604082019050919050565b60006020820190508181036000830152614b5e81614b22565b9050919050565b6000614b70826134d9565b9150614b7b836134d9565b9250827fffffffffffffffffffffffffffffffffffffffffffffffffffffffffffffffff03821115614bb057614baf614223565b5b828201905092915050565b7f5061757361626c653a206e6f7420706175736564000000000000000000000000600082015250565b6000614bf1601483613429565b9150614bfc82614bbb565b602082019050919050565b60006020820190508181036000830152614c2081614be4565b9050919050565b7f4552433732313a207472616e7366657220746f206e6f6e20455243373231526560008201527f63656976657220696d706c656d656e7465720000000000000000000000000000602082015250565b6000614c83603283613429565b9150614c8e82614c27565b604082019050919050565b60006020820190508181036000830152614cb281614c76565b9050919050565b7f4e487b7100000000000000000000000000000000000000000000000000000000600052601260045260246000fd5b6000614cf3826134d9565b9150614cfe836134d9565b925082614d0e57614d0d614cb9565b5b828204905092915050565b6000614d24826134d9565b9150614d2f836134d9565b925082614d3f57614d3e614cb9565b5b828206905092915050565b600081519050919050565b600082825260208201905092915050565b6000614d7182614d4a565b614d7b8185614d55565b9350614d8b81856020860161343a565b614d948161346d565b840191505092915050565b6000608082019050614db4600083018761356e565b614dc1602083018661356e565b614dce6040830185613604565b8181036060830152614de08184614d66565b905095945050505050565b600081519050614dfa8161338f565b92915050565b600060208284031215614e1657614e15613359565b5b6000614e2484828501614deb565b91505092915050565b7f4e487b7100000000000000000000000000000000000000000000000000000000600052603160045260246000fd5b7f4552433732313a206d696e7420746f20746865207a65726f2061646472657373600082015250565b6000614e92602083613429565b9150614e9d82614e5c565b602082019050919050565b60006020820190508181036000830152614ec181614e85565b9050919050565b7f4552433732313a20746f6b656e20616c7265616479206d696e74656400000000600082015250565b6000614efe601c83613429565b9150614f0982614ec8565b602082019050919050565b60006020820190508181036000830152614f2d81614ef1565b905091905056fea2646970667358221220caa38221aadf74f7ea8d90ba2b182089b246c3c99119b56543bc44cca93c68a964736f6c63430008090033687474703a2f2f6c6f63616c686f73743a383038302f6170692f6d6574616474612f",
  "linkReferences": {},
  "deployedLinkReferences": {}
}