{
  "_format": "hh-sol-artifact-1",
  "contractName": "Burger",
  "sourceName": "contracts/Burger.sol",
  "abi": [
    {
      "inputs": [],
      "stateMutability": "nonpayable",
      "type": "constructor"
    },
    {
      "anonymous": false,
      "inputs": [
        {
          "indexed": true,
          "internalType": "address",
          "name": "owner",
          "type": "address"
        },
        {
          "indexed": true,
          "internalType": "address",
          "name": "approved",
          "type": "address"
        },
        {
          "indexed": true,
          "internalType": "uint256",
          "name": "tokenId",
          "type": "uint256"
        }
      ],
      "name": "Approval",
      "type": "event"
    },
    {
      "anonymous": false,
      "inputs": [
        {
          "indexed": true,
          "internalType": "address",
          "name": "owner",
          "type": "address"
        },
        {
          "indexed": true,
          "internalType": "address",
          "name": "operator",
          "type": "address"
        },
        {
          "indexed": false,
          "internalType": "bool",
          "name": "approved",
          "type": "bool"
        }
      ],
      "name": "ApprovalForAll",
      "type": "event"
    },
    {
      "anonymous": false,
      "inputs": [
        {
          "indexed": true,
          "internalType": "address",
          "name": "_to",
          "type": "address"
        },
        {
          "indexed": true,
          "internalType": "uint256",
          "name": "_id",
          "type": "uint256"
        },
        {
          "indexed": true,
          "internalType": "uint8",
          "name": "_boxType",
          "type": "uint8"
        }
      ],
      "name": "MintNFT",
      "type": "event"
    },
    {
      "anonymous": false,
      "inputs": [
        {
          "indexed": true,
          "internalType": "address",
          "name": "previousOwner",
          "type": "address"
        },
        {
          "indexed": true,
          "internalType": "address",
          "name": "newOwner",
          "type": "address"
        }
      ],
      "name": "OwnershipTransferred",
      "type": "event"
    },
    {
      "anonymous": false,
      "inputs": [
        {
          "indexed": false,
          "internalType": "address",
          "name": "account",
          "type": "address"
        }
      ],
      "name": "Paused",
      "type": "event"
    },
    {
      "anonymous": false,
      "inputs": [
        {
          "indexed": true,
          "internalType": "address",
          "name": "from",
          "type": "address"
        },
        {
          "indexed": true,
          "internalType": "address",
          "name": "to",
          "type": "address"
        },
        {
          "indexed": true,
          "internalType": "uint256",
          "name": "tokenId",
          "type": "uint256"
        }
      ],
      "name": "Transfer",
      "type": "event"
    },
    {
      "anonymous": false,
      "inputs": [
        {
          "indexed": false,
          "internalType": "address",
          "name": "account",
          "type": "address"
        }
      ],
      "name": "Unpaused",
      "type": "event"
    },
    {
      "anonymous": false,
      "inputs": [
        {
          "indexed": false,
          "internalType": "bool",
          "name": "isWhiteList",
          "type": "bool"
        }
      ],
      "name": "whitelistModeChanged",
      "type": "event"
    },
    {
      "inputs": [
        {
          "internalType": "uint256",
          "name": "",
          "type": "uint256"
        }
      ],
      "name": "_limitTokenAmountPerBoxtype",
      "outputs": [
        {
          "internalType": "uint64",
          "name": "",
          "type": "uint64"
        }
      ],
      "stateMutability": "view",
      "type": "function"
    },
    {
      "inputs": [
        {
          "internalType": "uint256",
          "name": "",
          "type": "uint256"
        }
      ],
      "name": "_tokenSupply",
      "outputs": [
        {
          "internalType": "uint256",
          "name": "",
          "type": "uint256"
        }
      ],
      "stateMutability": "view",
      "type": "function"
    },
    {
      "inputs": [
        {
          "internalType": "address",
          "name": "to",
          "type": "address"
        },
        {
          "internalType": "uint256",
          "name": "tokenId",
          "type": "uint256"
        }
      ],
      "name": "approve",
      "outputs": [],
      "stateMutability": "nonpayable",
      "type": "function"
    },
    {
      "inputs": [
        {
          "internalType": "address",
          "name": "owner",
          "type": "address"
        }
      ],
      "name": "balanceOf",
      "outputs": [
        {
          "internalType": "uint256",
          "name": "",
          "type": "uint256"
        }
      ],
      "stateMutability": "view",
      "type": "function"
    },
    {
      "inputs": [
        {
          "internalType": "uint256",
          "name": "",
          "type": "uint256"
        }
      ],
      "name": "boxPriceBNB",
      "outputs": [
        {
          "internalType": "uint256",
          "name": "",
          "type": "uint256"
        }
      ],
      "stateMutability": "view",
      "type": "function"
    },
    {
      "inputs": [
        {
          "internalType": "uint256",
          "name": "",
          "type": "uint256"
        }
      ],
      "name": "boxPriceBURG",
      "outputs": [
        {
          "internalType": "uint256",
          "name": "",
          "type": "uint256"
        }
      ],
      "stateMutability": "view",
      "type": "function"
    },
    {
      "inputs": [
        {
          "internalType": "string",
          "name": "newBaseTokenURI",
          "type": "string"
        }
      ],
      "name": "changeBaseTokenURI",
      "outputs": [],
      "stateMutability": "nonpayable",
      "type": "function"
    },
    {
      "inputs": [
        {
          "internalType": "bytes32",
          "name": "newRoot",
          "type": "bytes32"
        }
      ],
      "name": "changeRoot",
      "outputs": [],
      "stateMutability": "nonpayable",
      "type": "function"
    },
    {
      "inputs": [
        {
          "internalType": "bool",
          "name": "newState",
          "type": "bool"
        }
      ],
      "name": "changeWhitelistState",
      "outputs": [],
      "stateMutability": "nonpayable",
      "type": "function"
    },
    {
      "inputs": [
        {
          "internalType": "uint256",
          "name": "tokenId",
          "type": "uint256"
        }
      ],
      "name": "getApproved",
      "outputs": [
        {
          "internalType": "address",
          "name": "",
          "type": "address"
        }
      ],
      "stateMutability": "view",
      "type": "function"
    },
    {
      "inputs": [],
      "name": "getPriceType",
      "outputs": [
        {
          "internalType": "string",
          "name": "",
          "type": "string"
        }
      ],
      "stateMutability": "view",
      "type": "function"
    },
    {
      "inputs": [
        {
          "internalType": "uint256",
          "name": "_tokenId",
          "type": "uint256"
        }
      ],
      "name": "getboxTypeById",
      "outputs": [
        {
          "internalType": "uint8",
          "name": "",
          "type": "uint8"
        }
      ],
      "stateMutability": "view",
      "type": "function"
    },
    {
      "inputs": [
        {
          "internalType": "address",
          "name": "owner",
          "type": "address"
        },
        {
          "internalType": "address",
          "name": "operator",
          "type": "address"
        }
      ],
      "name": "isApprovedForAll",
      "outputs": [
        {
          "internalType": "bool",
          "name": "",
          "type": "bool"
        }
      ],
      "stateMutability": "view",
      "type": "function"
    },
    {
      "inputs": [
        {
          "internalType": "address",
          "name": "_to",
          "type": "address"
        }
      ],
      "name": "mintForGoldenTicket",
      "outputs": [
        {
          "internalType": "uint256",
          "name": "",
          "type": "uint256"
        }
      ],
      "stateMutability": "nonpayable",
      "type": "function"
    },
    {
      "inputs": [
        {
          "internalType": "uint8",
          "name": "boxType",
          "type": "uint8"
        }
      ],
      "name": "mintNormal",
      "outputs": [
        {
          "internalType": "uint256",
          "name": "",
          "type": "uint256"
        }
      ],
      "stateMutability": "payable",
      "type": "function"
    },
    {
      "inputs": [
        {
          "internalType": "uint8",
          "name": "boxType",
          "type": "uint8"
        }
      ],
      "name": "mintNormalBURG",
      "outputs": [
        {
          "internalType": "uint256",
          "name": "",
          "type": "uint256"
        }
      ],
      "stateMutability": "nonpayable",
      "type": "function"
    },
    {
      "inputs": [
        {
          "internalType": "address",
          "name": "_to",
          "type": "address"
        },
        {
          "internalType": "uint8",
          "name": "boxType",
          "type": "uint8"
        }
      ],
      "name": "mintOwner",
      "outputs": [
        {
          "internalType": "uint256",
          "name": "",
          "type": "uint256"
        }
      ],
      "stateMutability": "nonpayable",
      "type": "function"
    },
    {
      "inputs": [
        {
          "internalType": "bytes32[]",
          "name": "proof",
          "type": "bytes32[]"
        },
        {
          "internalType": "uint8",
          "name": "boxType",
          "type": "uint8"
        }
      ],
      "name": "mintWhitelist",
      "outputs": [],
      "stateMutability": "payable",
      "type": "function"
    },
    {
      "inputs": [],
      "name": "name",
      "outputs": [
        {
          "internalType": "string",
          "name": "",
          "type": "string"
        }
      ],
      "stateMutability": "view",
      "type": "function"
    },
    {
      "inputs": [],
      "name": "owner",
      "outputs": [
        {
          "internalType": "address",
          "name": "",
          "type": "address"
        }
      ],
      "stateMutability": "view",
      "type": "function"
    },
    {
      "inputs": [
        {
          "internalType": "uint256",
          "name": "tokenId",
          "type": "uint256"
        }
      ],
      "name": "ownerOf",
      "outputs": [
        {
          "internalType": "address",
          "name": "",
          "type": "address"
        }
      ],
      "stateMutability": "view",
      "type": "function"
    },
    {
      "inputs": [],
      "name": "pause",
      "outputs": [
        {
          "internalType": "bool",
          "name": "",
          "type": "bool"
        }
      ],
      "stateMutability": "nonpayable",
      "type": "function"
    },
    {
      "inputs": [],
      "name": "paused",
      "outputs": [
        {
          "internalType": "bool",
          "name": "",
          "type": "bool"
        }
      ],
      "stateMutability": "view",
      "type": "function"
    },
    {
      "inputs": [],
      "name": "renounceOwnership",
      "outputs": [],
      "stateMutability": "nonpayable",
      "type": "function"
    },
    {
      "inputs": [
        {
          "internalType": "address",
          "name": "from",
          "type": "address"
        },
        {
          "internalType": "address",
          "name": "to",
          "type": "address"
        },
        {
          "internalType": "uint256",
          "name": "tokenId",
          "type": "uint256"
        }
      ],
      "name": "safeTransferFrom",
      "outputs": [],
      "stateMutability": "nonpayable",
      "type": "function"
    },
    {
      "inputs": [
        {
          "internalType": "address",
          "name": "from",
          "type": "address"
        },
        {
          "internalType": "address",
          "name": "to",
          "type": "address"
        },
        {
          "internalType": "uint256",
          "name": "tokenId",
          "type": "uint256"
        },
        {
          "internalType": "bytes",
          "name": "_data",
          "type": "bytes"
        }
      ],
      "name": "safeTransferFrom",
      "outputs": [],
      "stateMutability": "nonpayable",
      "type": "function"
    },
    {
      "inputs": [],
      "name": "saleBNBEnabled",
      "outputs": [
        {
          "internalType": "bool",
          "name": "",
          "type": "bool"
        }
      ],
      "stateMutability": "view",
      "type": "function"
    },
    {
      "inputs": [],
      "name": "saleBURGEnabled",
      "outputs": [
        {
          "internalType": "bool",
          "name": "",
          "type": "bool"
        }
      ],
      "stateMutability": "view",
      "type": "function"
    },
    {
      "inputs": [
        {
          "internalType": "address",
          "name": "operator",
          "type": "address"
        },
        {
          "internalType": "bool",
          "name": "approved",
          "type": "bool"
        }
      ],
      "name": "setApprovalForAll",
      "outputs": [],
      "stateMutability": "nonpayable",
      "type": "function"
    },
    {
      "inputs": [
        {
          "internalType": "address",
          "name": "_newAddress",
          "type": "address"
        }
      ],
      "name": "setBURGAddress",
      "outputs": [
        {
          "internalType": "bool",
          "name": "",
          "type": "bool"
        }
      ],
      "stateMutability": "nonpayable",
      "type": "function"
    },
    {
      "inputs": [],
      "name": "strBaseTokenURI",
      "outputs": [
        {
          "internalType": "string",
          "name": "",
          "type": "string"
        }
      ],
      "stateMutability": "view",
      "type": "function"
    },
    {
      "inputs": [
        {
          "internalType": "bytes4",
          "name": "interfaceId",
          "type": "bytes4"
        }
      ],
      "name": "supportsInterface",
      "outputs": [
        {
          "internalType": "bool",
          "name": "",
          "type": "bool"
        }
      ],
      "stateMutability": "view",
      "type": "function"
    },
    {
      "inputs": [],
      "name": "symbol",
      "outputs": [
        {
          "internalType": "string",
          "name": "",
          "type": "string"
        }
      ],
      "stateMutability": "view",
      "type": "function"
    },
    {
      "inputs": [
        {
          "internalType": "uint256",
          "name": "index",
          "type": "uint256"
        }
      ],
      "name": "tokenByIndex",
      "outputs": [
        {
          "internalType": "uint256",
          "name": "",
          "type": "uint256"
        }
      ],
      "stateMutability": "view",
      "type": "function"
    },
    {
      "inputs": [
        {
          "internalType": "address",
          "name": "owner",
          "type": "address"
        },
        {
          "internalType": "uint256",
          "name": "index",
          "type": "uint256"
        }
      ],
      "name": "tokenOfOwnerByIndex",
      "outputs": [
        {
          "internalType": "uint256",
          "name": "",
          "type": "uint256"
        }
      ],
      "stateMutability": "view",
      "type": "function"
    },
    {
      "inputs": [
        {
          "internalType": "uint256",
          "name": "_tokenId",
          "type": "uint256"
        }
      ],
      "name": "tokenURI",
      "outputs": [
        {
          "internalType": "string",
          "name": "",
          "type": "string"
        }
      ],
      "stateMutability": "view",
      "type": "function"
    },
    {
      "inputs": [],
      "name": "totalSupply",
      "outputs": [
        {
          "internalType": "uint256",
          "name": "",
          "type": "uint256"
        }
      ],
      "stateMutability": "view",
      "type": "function"
    },
    {
      "inputs": [
        {
          "internalType": "address",
          "name": "from",
          "type": "address"
        },
        {
          "internalType": "address",
          "name": "to",
          "type": "address"
        },
        {
          "internalType": "uint256",
          "name": "tokenId",
          "type": "uint256"
        }
      ],
      "name": "transferFrom",
      "outputs": [],
      "stateMutability": "nonpayable",
      "type": "function"
    },
    {
      "inputs": [
        {
          "internalType": "address",
          "name": "newOwner",
          "type": "address"
        }
      ],
      "name": "transferOwnership",
      "outputs": [],
      "stateMutability": "nonpayable",
      "type": "function"
    },
    {
      "inputs": [],
      "name": "unpause",
      "outputs": [
        {
          "internalType": "bool",
          "name": "",
          "type": "bool"
        }
      ],
      "stateMutability": "nonpayable",
      "type": "function"
    },
    {
      "inputs": [
        {
          "internalType": "uint256[]",
          "name": "_newBoxPricesBNB",
          "type": "uint256[]"
        }
      ],
      "name": "updateBoxPricesBNB",
      "outputs": [
        {
          "internalType": "bool",
          "name": "",
          "type": "bool"
        }
      ],
      "stateMutability": "nonpayable",
      "type": "function"
    },
    {
      "inputs": [
        {
          "internalType": "uint256[]",
          "name": "_newBoxPricesBURG",
          "type": "uint256[]"
        }
      ],
      "name": "updateBoxPricesBURG",
      "outputs": [
        {
          "internalType": "bool",
          "name": "",
          "type": "bool"
        }
      ],
      "stateMutability": "nonpayable",
      "type": "function"
    },
    {
      "inputs": [
        {
          "internalType": "bytes32",
          "name": "leaf",
          "type": "bytes32"
        },
        {
          "internalType": "bytes32[]",
          "name": "proof",
          "type": "bytes32[]"
        }
      ],
      "name": "verifyWhitelist",
      "outputs": [
        {
          "internalType": "bool",
          "name": "",
          "type": "bool"
        }
      ],
      "stateMutability": "view",
      "type": "function"
    },
    {
      "inputs": [
        {
          "internalType": "address",
          "name": "_owner",
          "type": "address"
        }
      ],
      "name": "walletOfOwner",
      "outputs": [
        {
          "internalType": "uint256[]",
          "name": "",
          "type": "uint256[]"
        }
      ],
      "stateMutability": "view",
      "type": "function"
    },
    {
      "inputs": [],
      "name": "whitelistActive",
      "outputs": [
        {
          "internalType": "bool",
          "name": "",
          "type": "bool"
        }
      ],
      "stateMutability": "view",
      "type": "function"
    },
    {
      "inputs": [],
      "name": "withdraw",
      "outputs": [],
      "stateMutability": "nonpayable",
      "type": "function"
    }
  ],
  "bytecode": "0x60806040526040518060600160405280662386f26fc1000066ffffffffffffff16815260200166470de4df82000066ffffffffffffff168152602001666a94d74f43000066ffffffffffffff16815250600d90600362000061929190620003a9565b506040518060600160405280662386f26fc1000066ffffffffffffff16815260200166470de4df82000066ffffffffffffff168152602001666a94d74f43000066ffffffffffffff16815250600e906003620000bf929190620003a9565b50604051806060016040528060228152602001620064dc60229139600f9080519060200190620000f192919062000406565b506001601060006101000a81548160ff0219169083151502179055506001601060016101000a81548160ff0219169083151502179055506000601060026101000a81548160ff0219169083151502179055507fa2fc709bf2f4b9cb44b8a9114485d12d4877bb1beedd81f62f4f85a8056480ee60001b6011556040518060600160405280600060ff168152602001600060ff168152602001600060ff168152506013906003620001a392919062000497565b50604051806060016040528061113061ffff16815260200161089861ffff16815260200161038461ffff168152506014906003620001e3929190620004ee565b50348015620001f157600080fd5b506040518060400160405280600681526020017f42757267657200000000000000000000000000000000000000000000000000008152506040518060400160405280600681526020017f425552474552000000000000000000000000000000000000000000000000000081525081600090805190602001906200027692919062000406565b5080600190805190602001906200028f92919062000406565b5050506000600a60006101000a81548160ff021916908315150217905550620002cd620002c1620002db60201b60201c565b620002e360201b60201c565b6001600b819055506200062f565b600033905090565b6000600a60019054906101000a900473ffffffffffffffffffffffffffffffffffffffff16905081600a60016101000a81548173ffffffffffffffffffffffffffffffffffffffff021916908373ffffffffffffffffffffffffffffffffffffffff1602179055508173ffffffffffffffffffffffffffffffffffffffff168173ffffffffffffffffffffffffffffffffffffffff167f8be0079c531659141344cd1fd0a4f28419497f9722a3daafe3b4186f6b6457e060405160405180910390a35050565b828054828255906000526020600020908101928215620003f3579160200282015b82811115620003f2578251829066ffffffffffffff16905591602001919060010190620003ca565b5b509050620004029190620005ab565b5090565b8280546200041490620005f9565b90600052602060002090601f01602090048101928262000438576000855562000484565b82601f106200045357805160ff191683800117855562000484565b8280016001018555821562000484579182015b828111156200048357825182559160200191906001019062000466565b5b509050620004939190620005ab565b5090565b828054828255906000526020600020908101928215620004db579160200282015b82811115620004da578251829060ff16905591602001919060010190620004b8565b5b509050620004ea9190620005ab565b5090565b82805482825590600052602060002090600301600490048101928215620005985791602002820160005b838211156200056057835183826101000a81548167ffffffffffffffff021916908361ffff160217905550926020019260080160208160070104928301926001030262000518565b8015620005965782816101000a81549067ffffffffffffffff021916905560080160208160070104928301926001030262000560565b505b509050620005a79190620005ab565b5090565b5b80821115620005c6576000816000905550600101620005ac565b5090565b7f4e487b7100000000000000000000000000000000000000000000000000000000600052602260045260246000fd5b600060028204905060018216806200061257607f821691505b60208210811415620006295762000628620005ca565b5b50919050565b615e9d806200063f6000396000f3fe60806040526004361061027d5760003560e01c8063715018a61161014f578063b88d4fde116100c1578063e0d5f5db1161007a578063e0d5f5db14610a4b578063e40e97a714610a88578063e985e9c514610ab1578063f09542b314610aee578063f1859b8c14610b1e578063f2fde38b14610b495761027d565b8063b88d4fde14610938578063c87b56dd14610961578063ca8476331461099e578063d124d28f146109c9578063d883656a14610a06578063d9583b9f14610a225761027d565b80638cba90b0116101135780638cba90b0146108025780638d79cc481461083f5780638da5cb5b1461087c57806395d89b41146108a7578063a22cb465146108d2578063a69a6e82146108fb5761027d565b8063715018a61461070957806379d72794146107205780637b125a1d1461075d5780638456cb591461079a57806387ddb7b7146107c55761027d565b806329c7f1fa116101f357806342842e0e116101ac57806342842e0e146105c1578063438b6300146105ea5780634f6ccce7146106275780635c975abb146106645780636352211e1461068f57806370a08231146106cc5761027d565b806329c7f1fa146104b15780632f745c59146104dc578063329ea90d146105195780633ccfd60b146105565780633d59cd601461056d5780633f4ba83a146105965761027d565b8063081812fc11610245578063081812fc1461038f578063095ea7b3146103cc578063120f91d5146103f5578063158d9ac31461043257806318160ddd1461045d57806323b872dd146104885761027d565b8063014d41151461028257806301ffc9a7146102bf57806302ce5813146102fc57806306db2e341461032757806306fdde0314610364575b600080fd5b34801561028e57600080fd5b506102a960048036038101906102a49190613f90565b610b72565b6040516102b69190613fcc565b60405180910390f35b3480156102cb57600080fd5b506102e660048036038101906102e1919061403f565b610b96565b6040516102f39190614087565b60405180910390f35b34801561030857600080fd5b50610311610c10565b60405161031e9190614087565b60405180910390f35b34801561033357600080fd5b5061034e60048036038101906103499190613f90565b610c23565b60405161035b91906140c5565b60405180910390f35b34801561037057600080fd5b50610379610c61565b6040516103869190614179565b60405180910390f35b34801561039b57600080fd5b506103b660048036038101906103b19190613f90565b610cf3565b6040516103c391906141dc565b60405180910390f35b3480156103d857600080fd5b506103f360048036038101906103ee9190614223565b610d78565b005b34801561040157600080fd5b5061041c60048036038101906104179190613f90565b610e90565b6040516104299190613fcc565b60405180910390f35b34801561043e57600080fd5b50610447610eb4565b6040516104549190614087565b60405180910390f35b34801561046957600080fd5b50610472610ec7565b60405161047f9190613fcc565b60405180910390f35b34801561049457600080fd5b506104af60048036038101906104aa9190614263565b610ed4565b005b3480156104bd57600080fd5b506104c6610f34565b6040516104d39190614087565b60405180910390f35b3480156104e857600080fd5b5061050360048036038101906104fe9190614223565b610f47565b6040516105109190613fcc565b60405180910390f35b34801561052557600080fd5b50610540600480360381019061053b9190614434565b610fec565b60405161054d9190614087565b60405180910390f35b34801561056257600080fd5b5061056b6110a4565b005b34801561057957600080fd5b50610594600480360381019061058f9190614490565b611176565b005b3480156105a257600080fd5b506105ab6111fc565b6040516105b89190614087565b60405180910390f35b3480156105cd57600080fd5b506105e860048036038101906105e39190614263565b611289565b005b3480156105f657600080fd5b50610611600480360381019061060c91906144bd565b6112a9565b60405161061e91906145a8565b60405180910390f35b34801561063357600080fd5b5061064e60048036038101906106499190613f90565b611357565b60405161065b9190613fcc565b60405180910390f35b34801561067057600080fd5b506106796113c8565b6040516106869190614087565b60405180910390f35b34801561069b57600080fd5b506106b660048036038101906106b19190613f90565b6113df565b6040516106c391906141dc565b60405180910390f35b3480156106d857600080fd5b506106f360048036038101906106ee91906144bd565b611491565b6040516107009190613fcc565b60405180910390f35b34801561071557600080fd5b5061071e611549565b005b34801561072c57600080fd5b5061074760048036038101906107429190614603565b6115d1565b6040516107549190613fcc565b60405180910390f35b34801561076957600080fd5b50610784600480360381019061077f91906144bd565b611661565b6040516107919190614087565b60405180910390f35b3480156107a657600080fd5b506107af611729565b6040516107bc9190614087565b60405180910390f35b3480156107d157600080fd5b506107ec60048036038101906107e79190613f90565b6117b6565b6040516107f99190613fcc565b60405180910390f35b34801561080e57600080fd5b5061082960048036038101906108249190613f90565b6117da565b6040516108369190614652565b60405180910390f35b34801561084b57600080fd5b50610866600480360381019061086191906144bd565b61184c565b6040516108739190613fcc565b60405180910390f35b34801561088857600080fd5b506108916118dc565b60405161089e91906141dc565b60405180910390f35b3480156108b357600080fd5b506108bc611906565b6040516108c99190614179565b60405180910390f35b3480156108de57600080fd5b506108f960048036038101906108f49190614699565b611998565b005b34801561090757600080fd5b50610922600480360381019061091d919061479c565b611b19565b60405161092f9190614087565b60405180910390f35b34801561094457600080fd5b5061095f600480360381019061095a919061489a565b611bb7565b005b34801561096d57600080fd5b5061098860048036038101906109839190613f90565b611c19565b6040516109959190614179565b60405180910390f35b3480156109aa57600080fd5b506109b3611c9b565b6040516109c09190614179565b60405180910390f35b3480156109d557600080fd5b506109f060048036038101906109eb919061491d565b611d29565b6040516109fd9190613fcc565b60405180910390f35b610a206004803603810190610a1b919061494a565b612186565b005b348015610a2e57600080fd5b50610a496004803603810190610a4491906149a6565b612463565b005b348015610a5757600080fd5b50610a726004803603810190610a6d919061479c565b612542565b604051610a7f9190614087565b60405180910390f35b348015610a9457600080fd5b50610aaf6004803603810190610aaa9190614a74565b6125e0565b005b348015610abd57600080fd5b50610ad86004803603810190610ad39190614abd565b612676565b604051610ae59190614087565b60405180910390f35b610b086004803603810190610b03919061491d565b61270a565b604051610b159190613fcc565b60405180910390f35b348015610b2a57600080fd5b50610b33612937565b604051610b409190614179565b60405180910390f35b348015610b5557600080fd5b50610b706004803603810190610b6b91906144bd565b612a19565b005b60138181548110610b8257600080fd5b906000526020600020016000915090505481565b60007f780e9d63000000000000000000000000000000000000000000000000000000007bffffffffffffffffffffffffffffffffffffffffffffffffffffffff1916827bffffffffffffffffffffffffffffffffffffffffffffffffffffffff19161480610c095750610c0882612b11565b5b9050919050565b601060029054906101000a900460ff1681565b60148181548110610c3357600080fd5b9060005260206000209060049182820401919006600802915054906101000a900467ffffffffffffffff1681565b606060008054610c7090614b2c565b80601f0160208091040260200160405190810160405280929190818152602001828054610c9c90614b2c565b8015610ce95780601f10610cbe57610100808354040283529160200191610ce9565b820191906000526020600020905b815481529060010190602001808311610ccc57829003601f168201915b5050505050905090565b6000610cfe82612bf3565b610d3d576040517f08c379a0000000000000000000000000000000000000000000000000000000008152600401610d3490614bd0565b60405180910390fd5b6004600083815260200190815260200160002060009054906101000a900473ffffffffffffffffffffffffffffffffffffffff169050919050565b6000610d83826113df565b90508073ffffffffffffffffffffffffffffffffffffffff168373ffffffffffffffffffffffffffffffffffffffff161415610df4576040517f08c379a0000000000000000000000000000000000000000000000000000000008152600401610deb90614c62565b60405180910390fd5b8073ffffffffffffffffffffffffffffffffffffffff16610e13612c5f565b73ffffffffffffffffffffffffffffffffffffffff161480610e425750610e4181610e3c612c5f565b612676565b5b610e81576040517f08c379a0000000000000000000000000000000000000000000000000000000008152600401610e7890614cf4565b60405180910390fd5b610e8b8383612c67565b505050565b600d8181548110610ea057600080fd5b906000526020600020016000915090505481565b601060019054906101000a900460ff1681565b6000600880549050905090565b610ee5610edf612c5f565b82612d20565b610f24576040517f08c379a0000000000000000000000000000000000000000000000000000000008152600401610f1b90614d86565b60405180910390fd5b610f2f838383612dfe565b505050565b601060009054906101000a900460ff1681565b6000610f5283611491565b8210610f93576040517f08c379a0000000000000000000000000000000000000000000000000000000008152600401610f8a90614e18565b60405180910390fd5b600660008473ffffffffffffffffffffffffffffffffffffffff1673ffffffffffffffffffffffffffffffffffffffff168152602001908152602001600020600083815260200190815260200160002054905092915050565b60008083905060005b835181101561109557600084828151811061101357611012614e38565b5b6020026020010151905080831015611055578281604051602001611038929190614e88565b604051602081830303815290604052805190602001209250611081565b8083604051602001611068929190614e88565b6040516020818303038152906040528051906020012092505b50808061108d90614ee3565b915050610ff5565b50601154811491505092915050565b6110ac612c5f565b73ffffffffffffffffffffffffffffffffffffffff166110ca6118dc565b73ffffffffffffffffffffffffffffffffffffffff1614611120576040517f08c379a000000000000000000000000000000000000000000000000000000000815260040161111790614f78565b60405180910390fd5b600047905061112d6118dc565b73ffffffffffffffffffffffffffffffffffffffff166108fc829081150290604051600060405180830381858888f19350505050158015611172573d6000803e3d6000fd5b5050565b61117e612c5f565b73ffffffffffffffffffffffffffffffffffffffff1661119c6118dc565b73ffffffffffffffffffffffffffffffffffffffff16146111f2576040517f08c379a00000000000000000000000000000000000000000000000000000000081526004016111e990614f78565b60405180910390fd5b8060118190555050565b6000611206612c5f565b73ffffffffffffffffffffffffffffffffffffffff166112246118dc565b73ffffffffffffffffffffffffffffffffffffffff161461127a576040517f08c379a000000000000000000000000000000000000000000000000000000000815260040161127190614f78565b60405180910390fd5b61128261305a565b6001905090565b6112a483838360405180602001604052806000815250611bb7565b505050565b606060006112b683611491565b905060008167ffffffffffffffff8111156112d4576112d36142f1565b5b6040519080825280602002602001820160405280156113025781602001602082028036833780820191505090505b50905060005b8281101561134c5761131a8582610f47565b82828151811061132d5761132c614e38565b5b602002602001018181525050808061134490614ee3565b915050611308565b508092505050919050565b6000611361610ec7565b82106113a2576040517f08c379a00000000000000000000000000000000000000000000000000000000081526004016113999061500a565b60405180910390fd5b600882815481106113b6576113b5614e38565b5b90600052602060002001549050919050565b6000600a60009054906101000a900460ff16905090565b6000806002600084815260200190815260200160002060009054906101000a900473ffffffffffffffffffffffffffffffffffffffff169050600073ffffffffffffffffffffffffffffffffffffffff168173ffffffffffffffffffffffffffffffffffffffff161415611488576040517f08c379a000000000000000000000000000000000000000000000000000000000815260040161147f9061509c565b60405180910390fd5b80915050919050565b60008073ffffffffffffffffffffffffffffffffffffffff168273ffffffffffffffffffffffffffffffffffffffff161415611502576040517f08c379a00000000000000000000000000000000000000000000000000000000081526004016114f99061512e565b60405180910390fd5b600360008373ffffffffffffffffffffffffffffffffffffffff1673ffffffffffffffffffffffffffffffffffffffff168152602001908152602001600020549050919050565b611551612c5f565b73ffffffffffffffffffffffffffffffffffffffff1661156f6118dc565b73ffffffffffffffffffffffffffffffffffffffff16146115c5576040517f08c379a00000000000000000000000000000000000000000000000000000000081526004016115bc90614f78565b60405180910390fd5b6115cf60006130fc565b565b60006115db612c5f565b73ffffffffffffffffffffffffffffffffffffffff166115f96118dc565b73ffffffffffffffffffffffffffffffffffffffff161461164f576040517f08c379a000000000000000000000000000000000000000000000000000000000815260040161164690614f78565b60405180910390fd5b61165983836131c2565b905092915050565b600061166b612c5f565b73ffffffffffffffffffffffffffffffffffffffff166116896118dc565b73ffffffffffffffffffffffffffffffffffffffff16146116df576040517f08c379a00000000000000000000000000000000000000000000000000000000081526004016116d690614f78565b60405180910390fd5b81601260006101000a81548173ffffffffffffffffffffffffffffffffffffffff021916908373ffffffffffffffffffffffffffffffffffffffff16021790555060019050919050565b6000611733612c5f565b73ffffffffffffffffffffffffffffffffffffffff166117516118dc565b73ffffffffffffffffffffffffffffffffffffffff16146117a7576040517f08c379a000000000000000000000000000000000000000000000000000000000815260040161179e90614f78565b60405180910390fd5b6117af61328e565b6001905090565b600e81815481106117c657600080fd5b906000526020600020016000915090505481565b60006117e582612bf3565b611824576040517f08c379a000000000000000000000000000000000000000000000000000000000815260040161181b9061519a565b60405180910390fd5b600c600083815260200190815260200160002060009054906101000a900460ff169050919050565b6000611856612c5f565b73ffffffffffffffffffffffffffffffffffffffff166118746118dc565b73ffffffffffffffffffffffffffffffffffffffff16146118ca576040517f08c379a00000000000000000000000000000000000000000000000000000000081526004016118c190614f78565b60405180910390fd5b6118d58260016131c2565b9050919050565b6000600a60019054906101000a900473ffffffffffffffffffffffffffffffffffffffff16905090565b60606001805461191590614b2c565b80601f016020809104026020016040519081016040528092919081815260200182805461194190614b2c565b801561198e5780601f106119635761010080835404028352916020019161198e565b820191906000526020600020905b81548152906001019060200180831161197157829003601f168201915b5050505050905090565b6119a0612c5f565b73ffffffffffffffffffffffffffffffffffffffff168273ffffffffffffffffffffffffffffffffffffffff161415611a0e576040517f08c379a0000000000000000000000000000000000000000000000000000000008152600401611a0590615206565b60405180910390fd5b8060056000611a1b612c5f565b73ffffffffffffffffffffffffffffffffffffffff1673ffffffffffffffffffffffffffffffffffffffff16815260200190815260200160002060008473ffffffffffffffffffffffffffffffffffffffff1673ffffffffffffffffffffffffffffffffffffffff16815260200190815260200160002060006101000a81548160ff0219169083151502179055508173ffffffffffffffffffffffffffffffffffffffff16611ac8612c5f565b73ffffffffffffffffffffffffffffffffffffffff167f17307eab39ab6107e8899845ad3d59bd9653f200f220920489ca2b5937696c3183604051611b0d9190614087565b60405180910390a35050565b6000611b23612c5f565b73ffffffffffffffffffffffffffffffffffffffff16611b416118dc565b73ffffffffffffffffffffffffffffffffffffffff1614611b97576040517f08c379a0000000000000000000000000000000000000000000000000000000008152600401611b8e90614f78565b60405180910390fd5b81600d9080519060200190611bad929190613e56565b5060019050919050565b611bc8611bc2612c5f565b83612d20565b611c07576040517f08c379a0000000000000000000000000000000000000000000000000000000008152600401611bfe90614d86565b60405180910390fd5b611c1384848484613331565b50505050565b6060611c2482612bf3565b611c63576040517f08c379a0000000000000000000000000000000000000000000000000000000008152600401611c5a9061519a565b60405180910390fd5b611c6b61338d565b611c748361341f565b604051602001611c85929190615262565b6040516020818303038152906040529050919050565b600f8054611ca890614b2c565b80601f0160208091040260200160405190810160405280929190818152602001828054611cd490614b2c565b8015611d215780601f10611cf657610100808354040283529160200191611d21565b820191906000526020600020905b815481529060010190602001808311611d0457829003601f168201915b505050505081565b6000611d336113c8565b15611d73576040517f08c379a0000000000000000000000000000000000000000000000000000000008152600401611d6a906152d2565b60405180910390fd5b6002600b541415611db9576040517f08c379a0000000000000000000000000000000000000000000000000000000008152600401611db09061533e565b60405180910390fd5b6002600b81905550601060029054906101000a900460ff1615611e11576040517f08c379a0000000000000000000000000000000000000000000000000000000008152600401611e08906153aa565b60405180910390fd5b601060019054906101000a900460ff16611e60576040517f08c379a0000000000000000000000000000000000000000000000000000000008152600401611e5790615416565b60405180910390fd5b600e8260ff1681548110611e7757611e76614e38565b5b9060005260206000200154601260009054906101000a900473ffffffffffffffffffffffffffffffffffffffff1673ffffffffffffffffffffffffffffffffffffffff1663dd62ed3e33306040518363ffffffff1660e01b8152600401611edf929190615436565b60206040518083038186803b158015611ef757600080fd5b505afa158015611f0b573d6000803e3d6000fd5b505050506040513d601f19601f82011682018060405250810190611f2f9190615474565b1015611f70576040517f08c379a0000000000000000000000000000000000000000000000000000000008152600401611f67906154ed565b60405180910390fd5b601260009054906101000a900473ffffffffffffffffffffffffffffffffffffffff1673ffffffffffffffffffffffffffffffffffffffff166323b872dd33611fb76118dc565b611fff6064611ff16008600e8a60ff1681548110611fd857611fd7614e38565b5b906000526020600020015461358090919063ffffffff16565b61359690919063ffffffff16565b6040518463ffffffff1660e01b815260040161201d9392919061550d565b602060405180830381600087803b15801561203757600080fd5b505af115801561204b573d6000803e3d6000fd5b505050506040513d601f19601f8201168201806040525081019061206f9190615559565b50601260009054906101000a900473ffffffffffffffffffffffffffffffffffffffff1673ffffffffffffffffffffffffffffffffffffffff16639dc29fac336120f760646120e9605c600e8960ff16815481106120d0576120cf614e38565b5b906000526020600020015461358090919063ffffffff16565b61359690919063ffffffff16565b6040518363ffffffff1660e01b8152600401612114929190615586565b602060405180830381600087803b15801561212e57600080fd5b505af1158015612142573d6000803e3d6000fd5b505050506040513d601f19601f820116820180604052508101906121669190615559565b50600061217333846131c2565b9050809150506001600b81905550919050565b61218e6113c8565b156121ce576040517f08c379a00000000000000000000000000000000000000000000000000000000081526004016121c5906152d2565b60405180910390fd5b6002600b541415612214576040517f08c379a000000000000000000000000000000000000000000000000000000000815260040161220b9061533e565b60405180910390fd5b6002600b81905550601060029054906101000a900460ff1661226b576040517f08c379a0000000000000000000000000000000000000000000000000000000008152600401612262906155fb565b60405180910390fd5b600d8160ff168154811061228257612281614e38565b5b90600052602060002001543410156122cf576040517f08c379a00000000000000000000000000000000000000000000000000000000081526004016122c690615667565b60405180910390fd5b60148160ff16815481106122e6576122e5614e38565b5b90600052602060002090600491828204019190066008029054906101000a900467ffffffffffffffff1667ffffffffffffffff1660138260ff168154811061233157612330614e38565b5b90600052602060002001541061237c576040517f08c379a0000000000000000000000000000000000000000000000000000000008152600401612373906156d3565b60405180910390fd5b600061239061238a336135ac565b84610fec565b905080156123a8576123a233836131c2565b506123e3565b6040517f08c379a00000000000000000000000000000000000000000000000000000000081526004016123da9061573f565b60405180910390fd5b3373ffffffffffffffffffffffffffffffffffffffff166108fc600d8460ff168154811061241457612413614e38565b5b90600052602060002001543461242a919061575f565b9081150290604051600060405180830381858888f19350505050158015612455573d6000803e3d6000fd5b50506001600b819055505050565b61246b612c5f565b73ffffffffffffffffffffffffffffffffffffffff166124896118dc565b73ffffffffffffffffffffffffffffffffffffffff16146124df576040517f08c379a00000000000000000000000000000000000000000000000000000000081526004016124d690614f78565b60405180910390fd5b80601060026101000a81548160ff0219169083151502179055507f52cf77d97507bfe5c826e8a0dd53032bac06a11f9d0db13603d9887ed5cbf217601060029054906101000a900460ff166040516125379190614087565b60405180910390a150565b600061254c612c5f565b73ffffffffffffffffffffffffffffffffffffffff1661256a6118dc565b73ffffffffffffffffffffffffffffffffffffffff16146125c0576040517f08c379a00000000000000000000000000000000000000000000000000000000081526004016125b790614f78565b60405180910390fd5b81600e90805190602001906125d6929190613e56565b5060019050919050565b6125e8612c5f565b73ffffffffffffffffffffffffffffffffffffffff166126066118dc565b73ffffffffffffffffffffffffffffffffffffffff161461265c576040517f08c379a000000000000000000000000000000000000000000000000000000000815260040161265390614f78565b60405180910390fd5b80600f9080519060200190612672929190613ea3565b5050565b6000600560008473ffffffffffffffffffffffffffffffffffffffff1673ffffffffffffffffffffffffffffffffffffffff16815260200190815260200160002060008373ffffffffffffffffffffffffffffffffffffffff1673ffffffffffffffffffffffffffffffffffffffff16815260200190815260200160002060009054906101000a900460ff16905092915050565b60006127146113c8565b15612754576040517f08c379a000000000000000000000000000000000000000000000000000000000815260040161274b906152d2565b60405180910390fd5b6002600b54141561279a576040517f08c379a00000000000000000000000000000000000000000000000000000000081526004016127919061533e565b60405180910390fd5b6002600b81905550601060029054906101000a900460ff16156127f2576040517f08c379a00000000000000000000000000000000000000000000000000000000081526004016127e9906153aa565b60405180910390fd5b601060009054906101000a900460ff16612841576040517f08c379a000000000000000000000000000000000000000000000000000000000815260040161283890615416565b60405180910390fd5b600d8260ff168154811061285857612857614e38565b5b90600052602060002001543410156128a5576040517f08c379a000000000000000000000000000000000000000000000000000000000815260040161289c90615667565b60405180910390fd5b60006128b133846131c2565b90503373ffffffffffffffffffffffffffffffffffffffff166108fc600d8560ff16815481106128e4576128e3614e38565b5b9060005260206000200154346128fa919061575f565b9081150290604051600060405180830381858888f19350505050158015612925573d6000803e3d6000fd5b50809150506001600b81905550919050565b6060601060009054906101000a900460ff161561298b576040518060400160405280600381526020017f424e4200000000000000000000000000000000000000000000000000000000008152509050612a16565b601060019054906101000a900460ff16156129dd576040518060400160405280600481526020017f42555247000000000000000000000000000000000000000000000000000000008152509050612a16565b6040518060400160405280600381526020017f424e42000000000000000000000000000000000000000000000000000000000081525090505b90565b612a21612c5f565b73ffffffffffffffffffffffffffffffffffffffff16612a3f6118dc565b73ffffffffffffffffffffffffffffffffffffffff1614612a95576040517f08c379a0000000000000000000000000000000000000000000000000000000008152600401612a8c90614f78565b60405180910390fd5b600073ffffffffffffffffffffffffffffffffffffffff168173ffffffffffffffffffffffffffffffffffffffff161415612b05576040517f08c379a0000000000000000000000000000000000000000000000000000000008152600401612afc90615805565b60405180910390fd5b612b0e816130fc565b50565b60007f80ac58cd000000000000000000000000000000000000000000000000000000007bffffffffffffffffffffffffffffffffffffffffffffffffffffffff1916827bffffffffffffffffffffffffffffffffffffffffffffffffffffffff19161480612bdc57507f5b5e139f000000000000000000000000000000000000000000000000000000007bffffffffffffffffffffffffffffffffffffffffffffffffffffffff1916827bffffffffffffffffffffffffffffffffffffffffffffffffffffffff1916145b80612bec5750612beb826135dc565b5b9050919050565b60008073ffffffffffffffffffffffffffffffffffffffff166002600084815260200190815260200160002060009054906101000a900473ffffffffffffffffffffffffffffffffffffffff1673ffffffffffffffffffffffffffffffffffffffff1614159050919050565b600033905090565b816004600083815260200190815260200160002060006101000a81548173ffffffffffffffffffffffffffffffffffffffff021916908373ffffffffffffffffffffffffffffffffffffffff160217905550808273ffffffffffffffffffffffffffffffffffffffff16612cda836113df565b73ffffffffffffffffffffffffffffffffffffffff167f8c5be1e5ebec7d5bd14f71427d1e84f3dd0314c0f7b2291e5b200ac8c7c3b92560405160405180910390a45050565b6000612d2b82612bf3565b612d6a576040517f08c379a0000000000000000000000000000000000000000000000000000000008152600401612d6190615897565b60405180910390fd5b6000612d75836113df565b90508073ffffffffffffffffffffffffffffffffffffffff168473ffffffffffffffffffffffffffffffffffffffff161480612de457508373ffffffffffffffffffffffffffffffffffffffff16612dcc84610cf3565b73ffffffffffffffffffffffffffffffffffffffff16145b80612df55750612df48185612676565b5b91505092915050565b8273ffffffffffffffffffffffffffffffffffffffff16612e1e826113df565b73ffffffffffffffffffffffffffffffffffffffff1614612e74576040517f08c379a0000000000000000000000000000000000000000000000000000000008152600401612e6b90615929565b60405180910390fd5b600073ffffffffffffffffffffffffffffffffffffffff168273ffffffffffffffffffffffffffffffffffffffff161415612ee4576040517f08c379a0000000000000000000000000000000000000000000000000000000008152600401612edb906159bb565b60405180910390fd5b612eef838383613646565b612efa600082612c67565b6001600360008573ffffffffffffffffffffffffffffffffffffffff1673ffffffffffffffffffffffffffffffffffffffff1681526020019081526020016000206000828254612f4a919061575f565b925050819055506001600360008473ffffffffffffffffffffffffffffffffffffffff1673ffffffffffffffffffffffffffffffffffffffff1681526020019081526020016000206000828254612fa191906159db565b92505081905550816002600083815260200190815260200160002060006101000a81548173ffffffffffffffffffffffffffffffffffffffff021916908373ffffffffffffffffffffffffffffffffffffffff160217905550808273ffffffffffffffffffffffffffffffffffffffff168473ffffffffffffffffffffffffffffffffffffffff167fddf252ad1be2c89b69c2b068fc378daa952ba7f163c4a11628f55a4df523b3ef60405160405180910390a4505050565b6130626113c8565b6130a1576040517f08c379a000000000000000000000000000000000000000000000000000000000815260040161309890615a7d565b60405180910390fd5b6000600a60006101000a81548160ff0219169083151502179055507f5db9ee0a495bf2e6ff9c91a7834c1ba4fdd244a5e8aa4e537bd38aeae4b073aa6130e5612c5f565b6040516130f291906141dc565b60405180910390a1565b6000600a60019054906101000a900473ffffffffffffffffffffffffffffffffffffffff16905081600a60016101000a81548173ffffffffffffffffffffffffffffffffffffffff021916908373ffffffffffffffffffffffffffffffffffffffff1602179055508173ffffffffffffffffffffffffffffffffffffffff168173ffffffffffffffffffffffffffffffffffffffff167f8be0079c531659141344cd1fd0a4f28419497f9722a3daafe3b4186f6b6457e060405160405180910390a35050565b6000806131cd610ec7565b90506131d9848261375a565b82600c600083815260200190815260200160002060006101000a81548160ff021916908360ff16021790555060138360ff168154811061321c5761321b614e38565b5b90600052602060002001600081548092919061323790614ee3565b91905055508260ff16818573ffffffffffffffffffffffffffffffffffffffff167faabcc1eb354f11e651c87f835e7de6ac847d514718ed76fad480d55d2632992260405160405180910390a48091505092915050565b6132966113c8565b156132d6576040517f08c379a00000000000000000000000000000000000000000000000000000000081526004016132cd906152d2565b60405180910390fd5b6001600a60006101000a81548160ff0219169083151502179055507f62e78cea01bee320cd4e420270b5ea74000d11b0c9f74754ebdbfc544b05a25861331a612c5f565b60405161332791906141dc565b60405180910390a1565b61333c848484612dfe565b61334884848484613778565b613387576040517f08c379a000000000000000000000000000000000000000000000000000000000815260040161337e90615b0f565b60405180910390fd5b50505050565b6060600f805461339c90614b2c565b80601f01602080910402602001604051908101604052809291908181526020018280546133c890614b2c565b80156134155780601f106133ea57610100808354040283529160200191613415565b820191906000526020600020905b8154815290600101906020018083116133f857829003601f168201915b5050505050905090565b60606000821415613467576040518060400160405280600181526020017f3000000000000000000000000000000000000000000000000000000000000000815250905061357b565b600082905060005b6000821461349957808061348290614ee3565b915050600a826134929190615b5e565b915061346f565b60008167ffffffffffffffff8111156134b5576134b46142f1565b5b6040519080825280601f01601f1916602001820160405280156134e75781602001600182028036833780820191505090505b5090505b6000851461357457600182613500919061575f565b9150600a8561350f9190615b8f565b603061351b91906159db565b60f81b81838151811061353157613530614e38565b5b60200101907effffffffffffffffffffffffffffffffffffffffffffffffffffffffffffff1916908160001a905350600a8561356d9190615b5e565b94506134eb565b8093505050505b919050565b6000818361358e9190615bc0565b905092915050565b600081836135a49190615b5e565b905092915050565b6000816040516020016135bf9190615c62565b604051602081830303815290604052805190602001209050919050565b60007f01ffc9a7000000000000000000000000000000000000000000000000000000007bffffffffffffffffffffffffffffffffffffffffffffffffffffffff1916827bffffffffffffffffffffffffffffffffffffffffffffffffffffffff1916149050919050565b61365183838361390f565b600073ffffffffffffffffffffffffffffffffffffffff168373ffffffffffffffffffffffffffffffffffffffff1614156136945761368f81613914565b6136d3565b8173ffffffffffffffffffffffffffffffffffffffff168373ffffffffffffffffffffffffffffffffffffffff16146136d2576136d1838261395d565b5b5b600073ffffffffffffffffffffffffffffffffffffffff168273ffffffffffffffffffffffffffffffffffffffff1614156137165761371181613aca565b613755565b8273ffffffffffffffffffffffffffffffffffffffff168273ffffffffffffffffffffffffffffffffffffffff1614613754576137538282613b9b565b5b5b505050565b613774828260405180602001604052806000815250613c1a565b5050565b60006137998473ffffffffffffffffffffffffffffffffffffffff16613c75565b15613902578373ffffffffffffffffffffffffffffffffffffffff1663150b7a026137c2612c5f565b8786866040518563ffffffff1660e01b81526004016137e49493929190615cd2565b602060405180830381600087803b1580156137fe57600080fd5b505af192505050801561382f57506040513d601f19601f8201168201806040525081019061382c9190615d33565b60015b6138b2573d806000811461385f576040519150601f19603f3d011682016040523d82523d6000602084013e613864565b606091505b506000815114156138aa576040517f08c379a00000000000000000000000000000000000000000000000000000000081526004016138a190615b0f565b60405180910390fd5b805181602001fd5b63150b7a0260e01b7bffffffffffffffffffffffffffffffffffffffffffffffffffffffff1916817bffffffffffffffffffffffffffffffffffffffffffffffffffffffff191614915050613907565b600190505b949350505050565b505050565b6008805490506009600083815260200190815260200160002081905550600881908060018154018082558091505060019003906000526020600020016000909190919091505550565b6000600161396a84611491565b613974919061575f565b9050600060076000848152602001908152602001600020549050818114613a59576000600660008673ffffffffffffffffffffffffffffffffffffffff1673ffffffffffffffffffffffffffffffffffffffff168152602001908152602001600020600084815260200190815260200160002054905080600660008773ffffffffffffffffffffffffffffffffffffffff1673ffffffffffffffffffffffffffffffffffffffff168152602001908152602001600020600084815260200190815260200160002081905550816007600083815260200190815260200160002081905550505b6007600084815260200190815260200160002060009055600660008573ffffffffffffffffffffffffffffffffffffffff1673ffffffffffffffffffffffffffffffffffffffff16815260200190815260200160002060008381526020019081526020016000206000905550505050565b60006001600880549050613ade919061575f565b9050600060096000848152602001908152602001600020549050600060088381548110613b0e57613b0d614e38565b5b906000526020600020015490508060088381548110613b3057613b2f614e38565b5b906000526020600020018190555081600960008381526020019081526020016000208190555060096000858152602001908152602001600020600090556008805480613b7f57613b7e615d60565b5b6001900381819060005260206000200160009055905550505050565b6000613ba683611491565b905081600660008573ffffffffffffffffffffffffffffffffffffffff1673ffffffffffffffffffffffffffffffffffffffff168152602001908152602001600020600083815260200190815260200160002081905550806007600084815260200190815260200160002081905550505050565b613c248383613c88565b613c316000848484613778565b613c70576040517f08c379a0000000000000000000000000000000000000000000000000000000008152600401613c6790615b0f565b60405180910390fd5b505050565b600080823b905060008111915050919050565b600073ffffffffffffffffffffffffffffffffffffffff168273ffffffffffffffffffffffffffffffffffffffff161415613cf8576040517f08c379a0000000000000000000000000000000000000000000000000000000008152600401613cef90615ddb565b60405180910390fd5b613d0181612bf3565b15613d41576040517f08c379a0000000000000000000000000000000000000000000000000000000008152600401613d3890615e47565b60405180910390fd5b613d4d60008383613646565b6001600360008473ffffffffffffffffffffffffffffffffffffffff1673ffffffffffffffffffffffffffffffffffffffff1681526020019081526020016000206000828254613d9d91906159db565b92505081905550816002600083815260200190815260200160002060006101000a81548173ffffffffffffffffffffffffffffffffffffffff021916908373ffffffffffffffffffffffffffffffffffffffff160217905550808273ffffffffffffffffffffffffffffffffffffffff16600073ffffffffffffffffffffffffffffffffffffffff167fddf252ad1be2c89b69c2b068fc378daa952ba7f163c4a11628f55a4df523b3ef60405160405180910390a45050565b828054828255906000526020600020908101928215613e92579160200282015b82811115613e91578251825591602001919060010190613e76565b5b509050613e9f9190613f29565b5090565b828054613eaf90614b2c565b90600052602060002090601f016020900481019282613ed15760008555613f18565b82601f10613eea57805160ff1916838001178555613f18565b82800160010185558215613f18579182015b82811115613f17578251825591602001919060010190613efc565b5b509050613f259190613f29565b5090565b5b80821115613f42576000816000905550600101613f2a565b5090565b6000604051905090565b600080fd5b600080fd5b6000819050919050565b613f6d81613f5a565b8114613f7857600080fd5b50565b600081359050613f8a81613f64565b92915050565b600060208284031215613fa657613fa5613f50565b5b6000613fb484828501613f7b565b91505092915050565b613fc681613f5a565b82525050565b6000602082019050613fe16000830184613fbd565b92915050565b60007fffffffff0000000000000000000000000000000000000000000000000000000082169050919050565b61401c81613fe7565b811461402757600080fd5b50565b60008135905061403981614013565b92915050565b60006020828403121561405557614054613f50565b5b60006140638482850161402a565b91505092915050565b60008115159050919050565b6140818161406c565b82525050565b600060208201905061409c6000830184614078565b92915050565b600067ffffffffffffffff82169050919050565b6140bf816140a2565b82525050565b60006020820190506140da60008301846140b6565b92915050565b600081519050919050565b600082825260208201905092915050565b60005b8381101561411a5780820151818401526020810190506140ff565b83811115614129576000848401525b50505050565b6000601f19601f8301169050919050565b600061414b826140e0565b61415581856140eb565b93506141658185602086016140fc565b61416e8161412f565b840191505092915050565b600060208201905081810360008301526141938184614140565b905092915050565b600073ffffffffffffffffffffffffffffffffffffffff82169050919050565b60006141c68261419b565b9050919050565b6141d6816141bb565b82525050565b60006020820190506141f160008301846141cd565b92915050565b614200816141bb565b811461420b57600080fd5b50565b60008135905061421d816141f7565b92915050565b6000806040838503121561423a57614239613f50565b5b60006142488582860161420e565b925050602061425985828601613f7b565b9150509250929050565b60008060006060848603121561427c5761427b613f50565b5b600061428a8682870161420e565b935050602061429b8682870161420e565b92505060406142ac86828701613f7b565b9150509250925092565b6000819050919050565b6142c9816142b6565b81146142d457600080fd5b50565b6000813590506142e6816142c0565b92915050565b600080fd5b7f4e487b7100000000000000000000000000000000000000000000000000000000600052604160045260246000fd5b6143298261412f565b810181811067ffffffffffffffff82111715614348576143476142f1565b5b80604052505050565b600061435b613f46565b90506143678282614320565b919050565b600067ffffffffffffffff821115614387576143866142f1565b5b602082029050602081019050919050565b600080fd5b60006143b06143ab8461436c565b614351565b905080838252602082019050602084028301858111156143d3576143d2614398565b5b835b818110156143fc57806143e888826142d7565b8452602084019350506020810190506143d5565b5050509392505050565b600082601f83011261441b5761441a6142ec565b5b813561442b84826020860161439d565b91505092915050565b6000806040838503121561444b5761444a613f50565b5b6000614459858286016142d7565b925050602083013567ffffffffffffffff81111561447a57614479613f55565b5b61448685828601614406565b9150509250929050565b6000602082840312156144a6576144a5613f50565b5b60006144b4848285016142d7565b91505092915050565b6000602082840312156144d3576144d2613f50565b5b60006144e18482850161420e565b91505092915050565b600081519050919050565b600082825260208201905092915050565b6000819050602082019050919050565b61451f81613f5a565b82525050565b60006145318383614516565b60208301905092915050565b6000602082019050919050565b6000614555826144ea565b61455f81856144f5565b935061456a83614506565b8060005b8381101561459b5781516145828882614525565b975061458d8361453d565b92505060018101905061456e565b5085935050505092915050565b600060208201905081810360008301526145c2818461454a565b905092915050565b600060ff82169050919050565b6145e0816145ca565b81146145eb57600080fd5b50565b6000813590506145fd816145d7565b92915050565b6000806040838503121561461a57614619613f50565b5b60006146288582860161420e565b9250506020614639858286016145ee565b9150509250929050565b61464c816145ca565b82525050565b60006020820190506146676000830184614643565b92915050565b6146768161406c565b811461468157600080fd5b50565b6000813590506146938161466d565b92915050565b600080604083850312156146b0576146af613f50565b5b60006146be8582860161420e565b92505060206146cf85828601614684565b9150509250929050565b600067ffffffffffffffff8211156146f4576146f36142f1565b5b602082029050602081019050919050565b6000614718614713846146d9565b614351565b9050808382526020820190506020840283018581111561473b5761473a614398565b5b835b8181101561476457806147508882613f7b565b84526020840193505060208101905061473d565b5050509392505050565b600082601f830112614783576147826142ec565b5b8135614793848260208601614705565b91505092915050565b6000602082840312156147b2576147b1613f50565b5b600082013567ffffffffffffffff8111156147d0576147cf613f55565b5b6147dc8482850161476e565b91505092915050565b600080fd5b600067ffffffffffffffff821115614805576148046142f1565b5b61480e8261412f565b9050602081019050919050565b82818337600083830152505050565b600061483d614838846147ea565b614351565b905082815260208101848484011115614859576148586147e5565b5b61486484828561481b565b509392505050565b600082601f830112614881576148806142ec565b5b813561489184826020860161482a565b91505092915050565b600080600080608085870312156148b4576148b3613f50565b5b60006148c28782880161420e565b94505060206148d38782880161420e565b93505060406148e487828801613f7b565b925050606085013567ffffffffffffffff81111561490557614904613f55565b5b6149118782880161486c565b91505092959194509250565b60006020828403121561493357614932613f50565b5b6000614941848285016145ee565b91505092915050565b6000806040838503121561496157614960613f50565b5b600083013567ffffffffffffffff81111561497f5761497e613f55565b5b61498b85828601614406565b925050602061499c858286016145ee565b9150509250929050565b6000602082840312156149bc576149bb613f50565b5b60006149ca84828501614684565b91505092915050565b600067ffffffffffffffff8211156149ee576149ed6142f1565b5b6149f78261412f565b9050602081019050919050565b6000614a17614a12846149d3565b614351565b905082815260208101848484011115614a3357614a326147e5565b5b614a3e84828561481b565b509392505050565b600082601f830112614a5b57614a5a6142ec565b5b8135614a6b848260208601614a04565b91505092915050565b600060208284031215614a8a57614a89613f50565b5b600082013567ffffffffffffffff811115614aa857614aa7613f55565b5b614ab484828501614a46565b91505092915050565b60008060408385031215614ad457614ad3613f50565b5b6000614ae28582860161420e565b9250506020614af38582860161420e565b9150509250929050565b7f4e487b7100000000000000000000000000000000000000000000000000000000600052602260045260246000fd5b60006002820490506001821680614b4457607f821691505b60208210811415614b5857614b57614afd565b5b50919050565b7f4552433732313a20617070726f76656420717565727920666f72206e6f6e657860008201527f697374656e7420746f6b656e0000000000000000000000000000000000000000602082015250565b6000614bba602c836140eb565b9150614bc582614b5e565b604082019050919050565b60006020820190508181036000830152614be981614bad565b9050919050565b7f4552433732313a20617070726f76616c20746f2063757272656e74206f776e6560008201527f7200000000000000000000000000000000000000000000000000000000000000602082015250565b6000614c4c6021836140eb565b9150614c5782614bf0565b604082019050919050565b60006020820190508181036000830152614c7b81614c3f565b9050919050565b7f4552433732313a20617070726f76652063616c6c6572206973206e6f74206f7760008201527f6e6572206e6f7220617070726f76656420666f7220616c6c0000000000000000602082015250565b6000614cde6038836140eb565b9150614ce982614c82565b604082019050919050565b60006020820190508181036000830152614d0d81614cd1565b9050919050565b7f4552433732313a207472616e736665722063616c6c6572206973206e6f74206f60008201527f776e6572206e6f7220617070726f766564000000000000000000000000000000602082015250565b6000614d706031836140eb565b9150614d7b82614d14565b604082019050919050565b60006020820190508181036000830152614d9f81614d63565b9050919050565b7f455243373231456e756d657261626c653a206f776e657220696e646578206f7560008201527f74206f6620626f756e6473000000000000000000000000000000000000000000602082015250565b6000614e02602b836140eb565b9150614e0d82614da6565b604082019050919050565b60006020820190508181036000830152614e3181614df5565b9050919050565b7f4e487b7100000000000000000000000000000000000000000000000000000000600052603260045260246000fd5b6000819050919050565b614e82614e7d826142b6565b614e67565b82525050565b6000614e948285614e71565b602082019150614ea48284614e71565b6020820191508190509392505050565b7f4e487b7100000000000000000000000000000000000000000000000000000000600052601160045260246000fd5b6000614eee82613f5a565b91507fffffffffffffffffffffffffffffffffffffffffffffffffffffffffffffffff821415614f2157614f20614eb4565b5b600182019050919050565b7f4f776e61626c653a2063616c6c6572206973206e6f7420746865206f776e6572600082015250565b6000614f626020836140eb565b9150614f6d82614f2c565b602082019050919050565b60006020820190508181036000830152614f9181614f55565b9050919050565b7f455243373231456e756d657261626c653a20676c6f62616c20696e646578206f60008201527f7574206f6620626f756e64730000000000000000000000000000000000000000602082015250565b6000614ff4602c836140eb565b9150614fff82614f98565b604082019050919050565b6000602082019050818103600083015261502381614fe7565b9050919050565b7f4552433732313a206f776e657220717565727920666f72206e6f6e657869737460008201527f656e7420746f6b656e0000000000000000000000000000000000000000000000602082015250565b60006150866029836140eb565b91506150918261502a565b604082019050919050565b600060208201905081810360008301526150b581615079565b9050919050565b7f4552433732313a2062616c616e636520717565727920666f7220746865207a6560008201527f726f206164647265737300000000000000000000000000000000000000000000602082015250565b6000615118602a836140eb565b9150615123826150bc565b604082019050919050565b600060208201905081810360008301526151478161510b565b9050919050565b7f546f6b656e20646f6573206e6f74206578697374000000000000000000000000600082015250565b60006151846014836140eb565b915061518f8261514e565b602082019050919050565b600060208201905081810360008301526151b381615177565b9050919050565b7f4552433732313a20617070726f766520746f2063616c6c657200000000000000600082015250565b60006151f06019836140eb565b91506151fb826151ba565b602082019050919050565b6000602082019050818103600083015261521f816151e3565b9050919050565b600081905092915050565b600061523c826140e0565b6152468185615226565b93506152568185602086016140fc565b80840191505092915050565b600061526e8285615231565b915061527a8284615231565b91508190509392505050565b7f5061757361626c653a2070617573656400000000000000000000000000000000600082015250565b60006152bc6010836140eb565b91506152c782615286565b602082019050919050565b600060208201905081810360008301526152eb816152af565b9050919050565b7f5265656e7472616e637947756172643a207265656e7472616e742063616c6c00600082015250565b6000615328601f836140eb565b9150615333826152f2565b602082019050919050565b600060208201905081810360008301526153578161531b565b9050919050565b7f57686974656c6973742069732061637469766500000000000000000000000000600082015250565b60006153946013836140eb565b915061539f8261535e565b602082019050919050565b600060208201905081810360008301526153c381615387565b9050919050565b7f53616c657320696e20424e4220617265206e6f74207065726d69747465640000600082015250565b6000615400601e836140eb565b915061540b826153ca565b602082019050919050565b6000602082019050818103600083015261542f816153f3565b9050919050565b600060408201905061544b60008301856141cd565b61545860208301846141cd565b9392505050565b60008151905061546e81613f64565b92915050565b60006020828403121561548a57615489613f50565b5b60006154988482850161545f565b91505092915050565b7f4e6f7420656e6f7567687420616c6c6f77616e63650000000000000000000000600082015250565b60006154d76015836140eb565b91506154e2826154a1565b602082019050919050565b60006020820190508181036000830152615506816154ca565b9050919050565b600060608201905061552260008301866141cd565b61552f60208301856141cd565b61553c6040830184613fbd565b949350505050565b6000815190506155538161466d565b92915050565b60006020828403121561556f5761556e613f50565b5b600061557d84828501615544565b91505092915050565b600060408201905061559b60008301856141cd565b6155a86020830184613fbd565b9392505050565b7f57686974656c697374206973206e6f7420616374697665000000000000000000600082015250565b60006155e56017836140eb565b91506155f0826155af565b602082019050919050565b60006020820190508181036000830152615614816155d8565b9050919050565b7f4e6f7420656e6f7567687420424e420000000000000000000000000000000000600082015250565b6000615651600f836140eb565b915061565c8261561b565b602082019050919050565b6000602082019050818103600083015261568081615644565b9050919050565b7f4c696d69746174696f6e20686173206265656e20726561636865640000000000600082015250565b60006156bd601b836140eb565b91506156c882615687565b602082019050919050565b600060208201905081810360008301526156ec816156b0565b9050919050565b7f4e6f742077686974656c69737465640000000000000000000000000000000000600082015250565b6000615729600f836140eb565b9150615734826156f3565b602082019050919050565b600060208201905081810360008301526157588161571c565b9050919050565b600061576a82613f5a565b915061577583613f5a565b92508282101561578857615787614eb4565b5b828203905092915050565b7f4f776e61626c653a206e6577206f776e657220697320746865207a65726f206160008201527f6464726573730000000000000000000000000000000000000000000000000000602082015250565b60006157ef6026836140eb565b91506157fa82615793565b604082019050919050565b6000602082019050818103600083015261581e816157e2565b9050919050565b7f4552433732313a206f70657261746f7220717565727920666f72206e6f6e657860008201527f697374656e7420746f6b656e0000000000000000000000000000000000000000602082015250565b6000615881602c836140eb565b915061588c82615825565b604082019050919050565b600060208201905081810360008301526158b081615874565b9050919050565b7f4552433732313a207472616e73666572206f6620746f6b656e2074686174206960008201527f73206e6f74206f776e0000000000000000000000000000000000000000000000602082015250565b60006159136029836140eb565b915061591e826158b7565b604082019050919050565b6000602082019050818103600083015261594281615906565b9050919050565b7f4552433732313a207472616e7366657220746f20746865207a65726f2061646460008201527f7265737300000000000000000000000000000000000000000000000000000000602082015250565b60006159a56024836140eb565b91506159b082615949565b604082019050919050565b600060208201905081810360008301526159d481615998565b9050919050565b60006159e682613f5a565b91506159f183613f5a565b9250827fffffffffffffffffffffffffffffffffffffffffffffffffffffffffffffffff03821115615a2657615a25614eb4565b5b828201905092915050565b7f5061757361626c653a206e6f7420706175736564000000000000000000000000600082015250565b6000615a676014836140eb565b9150615a7282615a31565b602082019050919050565b60006020820190508181036000830152615a9681615a5a565b9050919050565b7f4552433732313a207472616e7366657220746f206e6f6e20455243373231526560008201527f63656976657220696d706c656d656e7465720000000000000000000000000000602082015250565b6000615af96032836140eb565b9150615b0482615a9d565b604082019050919050565b60006020820190508181036000830152615b2881615aec565b9050919050565b7f4e487b7100000000000000000000000000000000000000000000000000000000600052601260045260246000fd5b6000615b6982613f5a565b9150615b7483613f5a565b925082615b8457615b83615b2f565b5b828204905092915050565b6000615b9a82613f5a565b9150615ba583613f5a565b925082615bb557615bb4615b2f565b5b828206905092915050565b6000615bcb82613f5a565b9150615bd683613f5a565b9250817fffffffffffffffffffffffffffffffffffffffffffffffffffffffffffffffff0483118215151615615c0f57615c0e614eb4565b5b828202905092915050565b60008160601b9050919050565b6000615c3282615c1a565b9050919050565b6000615c4482615c27565b9050919050565b615c5c615c57826141bb565b615c39565b82525050565b6000615c6e8284615c4b565b60148201915081905092915050565b600081519050919050565b600082825260208201905092915050565b6000615ca482615c7d565b615cae8185615c88565b9350615cbe8185602086016140fc565b615cc78161412f565b840191505092915050565b6000608082019050615ce760008301876141cd565b615cf460208301866141cd565b615d016040830185613fbd565b8181036060830152615d138184615c99565b905095945050505050565b600081519050615d2d81614013565b92915050565b600060208284031215615d4957615d48613f50565b5b6000615d5784828501615d1e565b91505092915050565b7f4e487b7100000000000000000000000000000000000000000000000000000000600052603160045260246000fd5b7f4552433732313a206d696e7420746f20746865207a65726f2061646472657373600082015250565b6000615dc56020836140eb565b9150615dd082615d8f565b602082019050919050565b60006020820190508181036000830152615df481615db8565b9050919050565b7f4552433732313a20746f6b656e20616c7265616479206d696e74656400000000600082015250565b6000615e31601c836140eb565b9150615e3c82615dfb565b602082019050919050565b60006020820190508181036000830152615e6081615e24565b905091905056fea264697066735822122074ede1d223744b667ed63e0ee4c757e9b80fd0005b0e6169814f4301fee7ff4164736f6c63430008090033687474703a2f2f6c6f63616c686f73743a383038302f6170692f6d6574616474612f",
  "linkReferences": {},
  "deployedLinkReferences": {}
}