{
  "_format": "hh-sol-artifact-1",
  "contractName": "Burger",
  "sourceName": "contracts/Burger.sol",
  "abi": [
    {
      "inputs": [],
      "stateMutability": "nonpayable",
      "type": "constructor"
    },
    {
      "anonymous": false,
      "inputs": [
        {
          "indexed": true,
          "internalType": "address",
          "name": "owner",
          "type": "address"
        },
        {
          "indexed": true,
          "internalType": "address",
          "name": "approved",
          "type": "address"
        },
        {
          "indexed": true,
          "internalType": "uint256",
          "name": "tokenId",
          "type": "uint256"
        }
      ],
      "name": "Approval",
      "type": "event"
    },
    {
      "anonymous": false,
      "inputs": [
        {
          "indexed": true,
          "internalType": "address",
          "name": "owner",
          "type": "address"
        },
        {
          "indexed": true,
          "internalType": "address",
          "name": "operator",
          "type": "address"
        },
        {
          "indexed": false,
          "internalType": "bool",
          "name": "approved",
          "type": "bool"
        }
      ],
      "name": "ApprovalForAll",
      "type": "event"
    },
    {
      "anonymous": false,
      "inputs": [
        {
          "indexed": true,
          "internalType": "address",
          "name": "_to",
          "type": "address"
        },
        {
          "indexed": false,
          "internalType": "string",
          "name": "tokenURI",
          "type": "string"
        },
        {
          "indexed": false,
          "internalType": "uint256",
          "name": "id",
          "type": "uint256"
        }
      ],
      "name": "NFTMintEvent",
      "type": "event"
    },
    {
      "anonymous": false,
      "inputs": [
        {
          "indexed": true,
          "internalType": "address",
          "name": "previousOwner",
          "type": "address"
        },
        {
          "indexed": true,
          "internalType": "address",
          "name": "newOwner",
          "type": "address"
        }
      ],
      "name": "OwnershipTransferred",
      "type": "event"
    },
    {
      "anonymous": false,
      "inputs": [
        {
          "indexed": false,
          "internalType": "address",
          "name": "account",
          "type": "address"
        }
      ],
      "name": "Paused",
      "type": "event"
    },
    {
      "anonymous": false,
      "inputs": [
        {
          "indexed": true,
          "internalType": "address",
          "name": "from",
          "type": "address"
        },
        {
          "indexed": true,
          "internalType": "address",
          "name": "to",
          "type": "address"
        },
        {
          "indexed": true,
          "internalType": "uint256",
          "name": "tokenId",
          "type": "uint256"
        }
      ],
      "name": "Transfer",
      "type": "event"
    },
    {
      "anonymous": false,
      "inputs": [
        {
          "indexed": false,
          "internalType": "address",
          "name": "account",
          "type": "address"
        }
      ],
      "name": "Unpaused",
      "type": "event"
    },
    {
      "inputs": [
        {
          "internalType": "address",
          "name": "to",
          "type": "address"
        },
        {
          "internalType": "uint256",
          "name": "tokenId",
          "type": "uint256"
        }
      ],
      "name": "approve",
      "outputs": [],
      "stateMutability": "nonpayable",
      "type": "function"
    },
    {
      "inputs": [
        {
          "internalType": "address",
          "name": "owner",
          "type": "address"
        }
      ],
      "name": "balanceOf",
      "outputs": [
        {
          "internalType": "uint256",
          "name": "",
          "type": "uint256"
        }
      ],
      "stateMutability": "view",
      "type": "function"
    },
    {
      "inputs": [
        {
          "internalType": "bytes32",
          "name": "newRoot",
          "type": "bytes32"
        }
      ],
      "name": "changeRoot",
      "outputs": [],
      "stateMutability": "nonpayable",
      "type": "function"
    },
    {
      "inputs": [
        {
          "internalType": "bool",
          "name": "newState",
          "type": "bool"
        }
      ],
      "name": "changeWhitelistState",
      "outputs": [],
      "stateMutability": "nonpayable",
      "type": "function"
    },
    {
      "inputs": [
        {
          "internalType": "uint256",
          "name": "tokenId",
          "type": "uint256"
        }
      ],
      "name": "getApproved",
      "outputs": [
        {
          "internalType": "address",
          "name": "",
          "type": "address"
        }
      ],
      "stateMutability": "view",
      "type": "function"
    },
    {
      "inputs": [],
      "name": "getVerfiedAddress",
      "outputs": [
        {
          "internalType": "address",
          "name": "",
          "type": "address"
        }
      ],
      "stateMutability": "view",
      "type": "function"
    },
    {
      "inputs": [
        {
          "internalType": "address",
          "name": "owner",
          "type": "address"
        },
        {
          "internalType": "address",
          "name": "operator",
          "type": "address"
        }
      ],
      "name": "isApprovedForAll",
      "outputs": [
        {
          "internalType": "bool",
          "name": "",
          "type": "bool"
        }
      ],
      "stateMutability": "view",
      "type": "function"
    },
    {
      "inputs": [
        {
          "internalType": "address",
          "name": "_to",
          "type": "address"
        },
        {
          "internalType": "string",
          "name": "tokenUri",
          "type": "string"
        },
        {
          "internalType": "bytes32",
          "name": "tokenUriHash",
          "type": "bytes32"
        },
        {
          "internalType": "bytes",
          "name": "signature",
          "type": "bytes"
        }
      ],
      "name": "mint",
      "outputs": [
        {
          "internalType": "uint256",
          "name": "",
          "type": "uint256"
        }
      ],
      "stateMutability": "payable",
      "type": "function"
    },
    {
      "inputs": [
        {
          "internalType": "address",
          "name": "_to",
          "type": "address"
        },
        {
          "internalType": "string",
          "name": "tokenUri",
          "type": "string"
        },
        {
          "internalType": "bytes32",
          "name": "tokenUriHash",
          "type": "bytes32"
        },
        {
          "internalType": "bytes",
          "name": "signature",
          "type": "bytes"
        },
        {
          "internalType": "bytes32",
          "name": "leaf",
          "type": "bytes32"
        },
        {
          "internalType": "bytes32[]",
          "name": "proof",
          "type": "bytes32[]"
        }
      ],
      "name": "mintWhitelist",
      "outputs": [
        {
          "internalType": "uint256",
          "name": "",
          "type": "uint256"
        }
      ],
      "stateMutability": "payable",
      "type": "function"
    },
    {
      "inputs": [],
      "name": "name",
      "outputs": [
        {
          "internalType": "string",
          "name": "",
          "type": "string"
        }
      ],
      "stateMutability": "view",
      "type": "function"
    },
    {
      "inputs": [],
      "name": "owner",
      "outputs": [
        {
          "internalType": "address",
          "name": "",
          "type": "address"
        }
      ],
      "stateMutability": "view",
      "type": "function"
    },
    {
      "inputs": [
        {
          "internalType": "uint256",
          "name": "tokenId",
          "type": "uint256"
        }
      ],
      "name": "ownerOf",
      "outputs": [
        {
          "internalType": "address",
          "name": "",
          "type": "address"
        }
      ],
      "stateMutability": "view",
      "type": "function"
    },
    {
      "inputs": [],
      "name": "pause",
      "outputs": [
        {
          "internalType": "bool",
          "name": "",
          "type": "bool"
        }
      ],
      "stateMutability": "nonpayable",
      "type": "function"
    },
    {
      "inputs": [],
      "name": "paused",
      "outputs": [
        {
          "internalType": "bool",
          "name": "",
          "type": "bool"
        }
      ],
      "stateMutability": "view",
      "type": "function"
    },
    {
      "inputs": [],
      "name": "renounceOwnership",
      "outputs": [],
      "stateMutability": "nonpayable",
      "type": "function"
    },
    {
      "inputs": [
        {
          "internalType": "address",
          "name": "from",
          "type": "address"
        },
        {
          "internalType": "address",
          "name": "to",
          "type": "address"
        },
        {
          "internalType": "uint256",
          "name": "tokenId",
          "type": "uint256"
        }
      ],
      "name": "safeTransferFrom",
      "outputs": [],
      "stateMutability": "nonpayable",
      "type": "function"
    },
    {
      "inputs": [
        {
          "internalType": "address",
          "name": "from",
          "type": "address"
        },
        {
          "internalType": "address",
          "name": "to",
          "type": "address"
        },
        {
          "internalType": "uint256",
          "name": "tokenId",
          "type": "uint256"
        },
        {
          "internalType": "bytes",
          "name": "_data",
          "type": "bytes"
        }
      ],
      "name": "safeTransferFrom",
      "outputs": [],
      "stateMutability": "nonpayable",
      "type": "function"
    },
    {
      "inputs": [
        {
          "internalType": "address",
          "name": "operator",
          "type": "address"
        },
        {
          "internalType": "bool",
          "name": "approved",
          "type": "bool"
        }
      ],
      "name": "setApprovalForAll",
      "outputs": [],
      "stateMutability": "nonpayable",
      "type": "function"
    },
    {
      "inputs": [
        {
          "internalType": "address",
          "name": "_verifiedAddress",
          "type": "address"
        }
      ],
      "name": "setVerifiedAddress",
      "outputs": [],
      "stateMutability": "nonpayable",
      "type": "function"
    },
    {
      "inputs": [
        {
          "internalType": "bytes4",
          "name": "interfaceId",
          "type": "bytes4"
        }
      ],
      "name": "supportsInterface",
      "outputs": [
        {
          "internalType": "bool",
          "name": "",
          "type": "bool"
        }
      ],
      "stateMutability": "view",
      "type": "function"
    },
    {
      "inputs": [],
      "name": "symbol",
      "outputs": [
        {
          "internalType": "string",
          "name": "",
          "type": "string"
        }
      ],
      "stateMutability": "view",
      "type": "function"
    },
    {
      "inputs": [
        {
          "internalType": "uint256",
          "name": "index",
          "type": "uint256"
        }
      ],
      "name": "tokenByIndex",
      "outputs": [
        {
          "internalType": "uint256",
          "name": "",
          "type": "uint256"
        }
      ],
      "stateMutability": "view",
      "type": "function"
    },
    {
      "inputs": [
        {
          "internalType": "address",
          "name": "owner",
          "type": "address"
        },
        {
          "internalType": "uint256",
          "name": "index",
          "type": "uint256"
        }
      ],
      "name": "tokenOfOwnerByIndex",
      "outputs": [
        {
          "internalType": "uint256",
          "name": "",
          "type": "uint256"
        }
      ],
      "stateMutability": "view",
      "type": "function"
    },
    {
      "inputs": [
        {
          "internalType": "uint256",
          "name": "tokenId",
          "type": "uint256"
        }
      ],
      "name": "tokenURI",
      "outputs": [
        {
          "internalType": "string",
          "name": "",
          "type": "string"
        }
      ],
      "stateMutability": "view",
      "type": "function"
    },
    {
      "inputs": [],
      "name": "totalSupply",
      "outputs": [
        {
          "internalType": "uint256",
          "name": "",
          "type": "uint256"
        }
      ],
      "stateMutability": "view",
      "type": "function"
    },
    {
      "inputs": [
        {
          "internalType": "address",
          "name": "from",
          "type": "address"
        },
        {
          "internalType": "address",
          "name": "to",
          "type": "address"
        },
        {
          "internalType": "uint256",
          "name": "tokenId",
          "type": "uint256"
        }
      ],
      "name": "transferFrom",
      "outputs": [],
      "stateMutability": "nonpayable",
      "type": "function"
    },
    {
      "inputs": [
        {
          "internalType": "address",
          "name": "newOwner",
          "type": "address"
        }
      ],
      "name": "transferOwnership",
      "outputs": [],
      "stateMutability": "nonpayable",
      "type": "function"
    },
    {
      "inputs": [],
      "name": "unpause",
      "outputs": [
        {
          "internalType": "bool",
          "name": "",
          "type": "bool"
        }
      ],
      "stateMutability": "nonpayable",
      "type": "function"
    },
    {
      "inputs": [
        {
          "internalType": "bytes32",
          "name": "leaf",
          "type": "bytes32"
        },
        {
          "internalType": "bytes32[]",
          "name": "proof",
          "type": "bytes32[]"
        }
      ],
      "name": "verifyWhitelist",
      "outputs": [
        {
          "internalType": "bool",
          "name": "",
          "type": "bool"
        }
      ],
      "stateMutability": "view",
      "type": "function"
    },
    {
      "inputs": [],
      "name": "whitelistActive",
      "outputs": [
        {
          "internalType": "bool",
          "name": "",
          "type": "bool"
        }
      ],
      "stateMutability": "view",
      "type": "function"
    }
  ],
  "bytecode": "0x608060405264e8d4a51000600c5573c09eac15f9ba6462e8e4612af7c431e1cfe08b87600e60006101000a81548173ffffffffffffffffffffffffffffffffffffffff021916908373ffffffffffffffffffffffffffffffffffffffff1602179055506001600e60146101000a81548160ff0219169083151502179055507f786cc6a5c4201b7672450409f6a717d0e33e88369e82ed52b453ec0cfcc4b23d60001b600f55348015620000b157600080fd5b506040518060400160405280600681526020017f42757267657200000000000000000000000000000000000000000000000000008152506040518060400160405280600681526020017f425552474552000000000000000000000000000000000000000000000000000081525081600090805190602001906200013692919062000261565b5080600190805190602001906200014f92919062000261565b50505062000172620001666200019360201b60201c565b6200019b60201b60201c565b6000600b60146101000a81548160ff02191690831515021790555062000376565b600033905090565b6000600b60009054906101000a900473ffffffffffffffffffffffffffffffffffffffff16905081600b60006101000a81548173ffffffffffffffffffffffffffffffffffffffff021916908373ffffffffffffffffffffffffffffffffffffffff1602179055508173ffffffffffffffffffffffffffffffffffffffff168173ffffffffffffffffffffffffffffffffffffffff167f8be0079c531659141344cd1fd0a4f28419497f9722a3daafe3b4186f6b6457e060405160405180910390a35050565b8280546200026f9062000311565b90600052602060002090601f016020900481019282620002935760008555620002df565b82601f10620002ae57805160ff1916838001178555620002df565b82800160010185558215620002df579182015b82811115620002de578251825591602001919060010190620002c1565b5b509050620002ee9190620002f2565b5090565b5b808211156200030d576000816000905550600101620002f3565b5090565b600060028204905060018216806200032a57607f821691505b6020821081141562000341576200034062000347565b5b50919050565b7f4e487b7100000000000000000000000000000000000000000000000000000000600052602260045260246000fd5b6150e380620003866000396000f3fe6080604052600436106101cd5760003560e01c80635c975abb116100f7578063a22cb46511610095578063d9583b9f11610064578063d9583b9f146106a3578063e985e9c5146106cc578063f2fde38b14610709578063f693ffaf14610732576101cd565b8063a22cb465146105e4578063b88d4fde1461060d578063c87b56dd14610636578063d8021fe414610673576101cd565b8063715018a6116100d1578063715018a61461054c5780638456cb59146105635780638da5cb5b1461058e57806395d89b41146105b9576101cd565b80635c975abb146104a75780636352211e146104d257806370a082311461050f576101cd565b80632f745c591161016f5780633f4ba83a1161013e5780633f4ba83a146103ed57806342842e0e146104185780634f66cbcd146104415780634f6ccce71461046a576101cd565b80632f745c591461031f578063329ea90d1461035c5780633d59cd60146103995780633e4356d7146103c2576101cd565b8063081812fc116101ab578063081812fc14610265578063095ea7b3146102a257806318160ddd146102cb57806323b872dd146102f6576101cd565b806301ffc9a7146101d257806302ce58131461020f57806306fdde031461023a575b600080fd5b3480156101de57600080fd5b506101f960048036038101906101f49190613944565b610762565b6040516102069190613fb8565b60405180910390f35b34801561021b57600080fd5b50610224610774565b6040516102319190613fb8565b60405180910390f35b34801561024657600080fd5b5061024f610787565b60405161025c9190614018565b60405180910390f35b34801561027157600080fd5b5061028c60048036038101906102879190613996565b610819565b6040516102999190613f51565b60405180910390f35b3480156102ae57600080fd5b506102c960048036038101906102c49190613862565b61089e565b005b3480156102d757600080fd5b506102e06109b6565b6040516102ed919061444a565b60405180910390f35b34801561030257600080fd5b5061031d600480360381019061031891906135f8565b6109c3565b005b34801561032b57600080fd5b5061034660048036038101906103419190613862565b610a23565b604051610353919061444a565b60405180910390f35b34801561036857600080fd5b50610383600480360381019061037e91906138f0565b610ac8565b6040516103909190613fb8565b60405180910390f35b3480156103a557600080fd5b506103c060048036038101906103bb91906138c7565b610ba6565b005b3480156103ce57600080fd5b506103d7610c2c565b6040516103e49190613f51565b60405180910390f35b3480156103f957600080fd5b50610402610c56565b60405161040f9190613fb8565b60405180910390f35b34801561042457600080fd5b5061043f600480360381019061043a91906135f8565b610ce3565b005b34801561044d57600080fd5b5061046860048036038101906104639190613593565b610d03565b005b34801561047657600080fd5b50610491600480360381019061048c9190613996565b610dc3565b60405161049e919061444a565b60405180910390f35b3480156104b357600080fd5b506104bc610e5a565b6040516104c99190613fb8565b60405180910390f35b3480156104de57600080fd5b506104f960048036038101906104f49190613996565b610e71565b6040516105069190613f51565b60405180910390f35b34801561051b57600080fd5b5061053660048036038101906105319190613593565b610f23565b604051610543919061444a565b60405180910390f35b34801561055857600080fd5b50610561610fdb565b005b34801561056f57600080fd5b50610578611063565b6040516105859190613fb8565b60405180910390f35b34801561059a57600080fd5b506105a36110f0565b6040516105b09190613f51565b60405180910390f35b3480156105c557600080fd5b506105ce61111a565b6040516105db9190614018565b60405180910390f35b3480156105f057600080fd5b5061060b600480360381019061060691906136c2565b6111ac565b005b34801561061957600080fd5b50610634600480360381019061062f9190613647565b61132d565b005b34801561064257600080fd5b5061065d60048036038101906106589190613996565b61138f565b60405161066a9190614018565b60405180910390f35b61068d60048036038101906106889190613791565b6113a1565b60405161069a919061444a565b60405180910390f35b3480156106af57600080fd5b506106ca60048036038101906106c5919061389e565b6114aa565b005b3480156106d857600080fd5b506106f360048036038101906106ee91906135bc565b611543565b6040516107009190613fb8565b60405180910390f35b34801561071557600080fd5b50610730600480360381019061072b9190613593565b6115d7565b005b61074c600480360381019061074791906136fe565b6116cf565b604051610759919061444a565b60405180910390f35b600061076d82611732565b9050919050565b600e60149054906101000a900460ff1681565b606060008054610796906146e3565b80601f01602080910402602001604051908101604052809291908181526020018280546107c2906146e3565b801561080f5780601f106107e45761010080835404028352916020019161080f565b820191906000526020600020905b8154815290600101906020018083116107f257829003601f168201915b5050505050905090565b6000610824826117ac565b610863576040517f08c379a000000000000000000000000000000000000000000000000000000000815260040161085a9061432a565b60405180910390fd5b6004600083815260200190815260200160002060009054906101000a900473ffffffffffffffffffffffffffffffffffffffff169050919050565b60006108a982610e71565b90508073ffffffffffffffffffffffffffffffffffffffff168373ffffffffffffffffffffffffffffffffffffffff16141561091a576040517f08c379a0000000000000000000000000000000000000000000000000000000008152600401610911906143aa565b60405180910390fd5b8073ffffffffffffffffffffffffffffffffffffffff16610939611818565b73ffffffffffffffffffffffffffffffffffffffff161480610968575061096781610962611818565b611543565b5b6109a7576040517f08c379a000000000000000000000000000000000000000000000000000000000815260040161099e9061422a565b60405180910390fd5b6109b18383611820565b505050565b6000600980549050905090565b6109d46109ce611818565b826118d9565b610a13576040517f08c379a0000000000000000000000000000000000000000000000000000000008152600401610a0a906143ca565b60405180910390fd5b610a1e8383836119b7565b505050565b6000610a2e83610f23565b8210610a6f576040517f08c379a0000000000000000000000000000000000000000000000000000000008152600401610a66906140ea565b60405180910390fd5b600760008473ffffffffffffffffffffffffffffffffffffffff1673ffffffffffffffffffffffffffffffffffffffff168152602001908152602001600020600083815260200190815260200160002054905092915050565b60008083905060005b8351811015610b97576000848281518110610b15577f4e487b7100000000000000000000000000000000000000000000000000000000600052603260045260246000fd5b6020026020010151905080831015610b57578281604051602001610b3a929190613f01565b604051602081830303815290604052805190602001209250610b83565b8083604051602001610b6a929190613f01565b6040516020818303038152906040528051906020012092505b508080610b8f90614746565b915050610ad1565b50600f54811491505092915050565b610bae611818565b73ffffffffffffffffffffffffffffffffffffffff16610bcc6110f0565b73ffffffffffffffffffffffffffffffffffffffff1614610c22576040517f08c379a0000000000000000000000000000000000000000000000000000000008152600401610c199061434a565b60405180910390fd5b80600f8190555050565b6000600e60009054906101000a900473ffffffffffffffffffffffffffffffffffffffff16905090565b6000610c60611818565b73ffffffffffffffffffffffffffffffffffffffff16610c7e6110f0565b73ffffffffffffffffffffffffffffffffffffffff1614610cd4576040517f08c379a0000000000000000000000000000000000000000000000000000000008152600401610ccb9061434a565b60405180910390fd5b610cdc611c13565b6001905090565b610cfe8383836040518060200160405280600081525061132d565b505050565b610d0b611818565b73ffffffffffffffffffffffffffffffffffffffff16610d296110f0565b73ffffffffffffffffffffffffffffffffffffffff1614610d7f576040517f08c379a0000000000000000000000000000000000000000000000000000000008152600401610d769061434a565b60405180910390fd5b80600e60006101000a81548173ffffffffffffffffffffffffffffffffffffffff021916908373ffffffffffffffffffffffffffffffffffffffff16021790555050565b6000610dcd6109b6565b8210610e0e576040517f08c379a0000000000000000000000000000000000000000000000000000000008152600401610e05906143ea565b60405180910390fd5b60098281548110610e48577f4e487b7100000000000000000000000000000000000000000000000000000000600052603260045260246000fd5b90600052602060002001549050919050565b6000600b60149054906101000a900460ff16905090565b6000806002600084815260200190815260200160002060009054906101000a900473ffffffffffffffffffffffffffffffffffffffff169050600073ffffffffffffffffffffffffffffffffffffffff168173ffffffffffffffffffffffffffffffffffffffff161415610f1a576040517f08c379a0000000000000000000000000000000000000000000000000000000008152600401610f119061428a565b60405180910390fd5b80915050919050565b60008073ffffffffffffffffffffffffffffffffffffffff168273ffffffffffffffffffffffffffffffffffffffff161415610f94576040517f08c379a0000000000000000000000000000000000000000000000000000000008152600401610f8b9061426a565b60405180910390fd5b600360008373ffffffffffffffffffffffffffffffffffffffff1673ffffffffffffffffffffffffffffffffffffffff168152602001908152602001600020549050919050565b610fe3611818565b73ffffffffffffffffffffffffffffffffffffffff166110016110f0565b73ffffffffffffffffffffffffffffffffffffffff1614611057576040517f08c379a000000000000000000000000000000000000000000000000000000000815260040161104e9061434a565b60405180910390fd5b6110616000611cb5565b565b600061106d611818565b73ffffffffffffffffffffffffffffffffffffffff1661108b6110f0565b73ffffffffffffffffffffffffffffffffffffffff16146110e1576040517f08c379a00000000000000000000000000000000000000000000000000000000081526004016110d89061434a565b60405180910390fd5b6110e9611d7b565b6001905090565b6000600b60009054906101000a900473ffffffffffffffffffffffffffffffffffffffff16905090565b606060018054611129906146e3565b80601f0160208091040260200160405190810160405280929190818152602001828054611155906146e3565b80156111a25780601f10611177576101008083540402835291602001916111a2565b820191906000526020600020905b81548152906001019060200180831161118557829003601f168201915b5050505050905090565b6111b4611818565b73ffffffffffffffffffffffffffffffffffffffff168273ffffffffffffffffffffffffffffffffffffffff161415611222576040517f08c379a00000000000000000000000000000000000000000000000000000000081526004016112199061418a565b60405180910390fd5b806005600061122f611818565b73ffffffffffffffffffffffffffffffffffffffff1673ffffffffffffffffffffffffffffffffffffffff16815260200190815260200160002060008473ffffffffffffffffffffffffffffffffffffffff1673ffffffffffffffffffffffffffffffffffffffff16815260200190815260200160002060006101000a81548160ff0219169083151502179055508173ffffffffffffffffffffffffffffffffffffffff166112dc611818565b73ffffffffffffffffffffffffffffffffffffffff167f17307eab39ab6107e8899845ad3d59bd9653f200f220920489ca2b5937696c31836040516113219190613fb8565b60405180910390a35050565b61133e611338611818565b836118d9565b61137d576040517f08c379a0000000000000000000000000000000000000000000000000000000008152600401611374906143ca565b60405180910390fd5b61138984848484611e1e565b50505050565b606061139a82611e7a565b9050919050565b600084846113af8282611fcc565b6113ee576040517f08c379a00000000000000000000000000000000000000000000000000000000081526004016113e59061442a565b60405180910390fd5b600e60149054906101000a900460ff1661143d576040517f08c379a0000000000000000000000000000000000000000000000000000000008152600401611434906140aa565b60405180910390fd5b60006114498686610ac8565b905080156114635761145b8a8a612039565b93505061149e565b6040517f08c379a00000000000000000000000000000000000000000000000000000000081526004016114959061424a565b60405180910390fd5b50509695505050505050565b6114b2611818565b73ffffffffffffffffffffffffffffffffffffffff166114d06110f0565b73ffffffffffffffffffffffffffffffffffffffff1614611526576040517f08c379a000000000000000000000000000000000000000000000000000000000815260040161151d9061434a565b60405180910390fd5b80600e60146101000a81548160ff02191690831515021790555050565b6000600560008473ffffffffffffffffffffffffffffffffffffffff1673ffffffffffffffffffffffffffffffffffffffff16815260200190815260200160002060008373ffffffffffffffffffffffffffffffffffffffff1673ffffffffffffffffffffffffffffffffffffffff16815260200190815260200160002060009054906101000a900460ff16905092915050565b6115df611818565b73ffffffffffffffffffffffffffffffffffffffff166115fd6110f0565b73ffffffffffffffffffffffffffffffffffffffff1614611653576040517f08c379a000000000000000000000000000000000000000000000000000000000815260040161164a9061434a565b60405180910390fd5b600073ffffffffffffffffffffffffffffffffffffffff168173ffffffffffffffffffffffffffffffffffffffff1614156116c3576040517f08c379a00000000000000000000000000000000000000000000000000000000081526004016116ba9061412a565b60405180910390fd5b6116cc81611cb5565b50565b600082826116dd8282611fcc565b61171c576040517f08c379a00000000000000000000000000000000000000000000000000000000081526004016117139061442a565b60405180910390fd5b6117268787612039565b92505050949350505050565b60007f780e9d63000000000000000000000000000000000000000000000000000000007bffffffffffffffffffffffffffffffffffffffffffffffffffffffff1916827bffffffffffffffffffffffffffffffffffffffffffffffffffffffff191614806117a557506117a48261214e565b5b9050919050565b60008073ffffffffffffffffffffffffffffffffffffffff166002600084815260200190815260200160002060009054906101000a900473ffffffffffffffffffffffffffffffffffffffff1673ffffffffffffffffffffffffffffffffffffffff1614159050919050565b600033905090565b816004600083815260200190815260200160002060006101000a81548173ffffffffffffffffffffffffffffffffffffffff021916908373ffffffffffffffffffffffffffffffffffffffff160217905550808273ffffffffffffffffffffffffffffffffffffffff1661189383610e71565b73ffffffffffffffffffffffffffffffffffffffff167f8c5be1e5ebec7d5bd14f71427d1e84f3dd0314c0f7b2291e5b200ac8c7c3b92560405160405180910390a45050565b60006118e4826117ac565b611923576040517f08c379a000000000000000000000000000000000000000000000000000000000815260040161191a906141ca565b60405180910390fd5b600061192e83610e71565b90508073ffffffffffffffffffffffffffffffffffffffff168473ffffffffffffffffffffffffffffffffffffffff16148061199d57508373ffffffffffffffffffffffffffffffffffffffff1661198584610819565b73ffffffffffffffffffffffffffffffffffffffff16145b806119ae57506119ad8185611543565b5b91505092915050565b8273ffffffffffffffffffffffffffffffffffffffff166119d782610e71565b73ffffffffffffffffffffffffffffffffffffffff1614611a2d576040517f08c379a0000000000000000000000000000000000000000000000000000000008152600401611a249061436a565b60405180910390fd5b600073ffffffffffffffffffffffffffffffffffffffff168273ffffffffffffffffffffffffffffffffffffffff161415611a9d576040517f08c379a0000000000000000000000000000000000000000000000000000000008152600401611a949061416a565b60405180910390fd5b611aa8838383612230565b611ab3600082611820565b6001600360008573ffffffffffffffffffffffffffffffffffffffff1673ffffffffffffffffffffffffffffffffffffffff1681526020019081526020016000206000828254611b0391906145e2565b925050819055506001600360008473ffffffffffffffffffffffffffffffffffffffff1673ffffffffffffffffffffffffffffffffffffffff1681526020019081526020016000206000828254611b5a919061455b565b92505081905550816002600083815260200190815260200160002060006101000a81548173ffffffffffffffffffffffffffffffffffffffff021916908373ffffffffffffffffffffffffffffffffffffffff160217905550808273ffffffffffffffffffffffffffffffffffffffff168473ffffffffffffffffffffffffffffffffffffffff167fddf252ad1be2c89b69c2b068fc378daa952ba7f163c4a11628f55a4df523b3ef60405160405180910390a4505050565b611c1b610e5a565b611c5a576040517f08c379a0000000000000000000000000000000000000000000000000000000008152600401611c519061408a565b60405180910390fd5b6000600b60146101000a81548160ff0219169083151502179055507f5db9ee0a495bf2e6ff9c91a7834c1ba4fdd244a5e8aa4e537bd38aeae4b073aa611c9e611818565b604051611cab9190613f51565b60405180910390a1565b6000600b60009054906101000a900473ffffffffffffffffffffffffffffffffffffffff16905081600b60006101000a81548173ffffffffffffffffffffffffffffffffffffffff021916908373ffffffffffffffffffffffffffffffffffffffff1602179055508173ffffffffffffffffffffffffffffffffffffffff168173ffffffffffffffffffffffffffffffffffffffff167f8be0079c531659141344cd1fd0a4f28419497f9722a3daafe3b4186f6b6457e060405160405180910390a35050565b611d83610e5a565b15611dc3576040517f08c379a0000000000000000000000000000000000000000000000000000000008152600401611dba9061420a565b60405180910390fd5b6001600b60146101000a81548160ff0219169083151502179055507f62e78cea01bee320cd4e420270b5ea74000d11b0c9f74754ebdbfc544b05a258611e07611818565b604051611e149190613f51565b60405180910390a1565b611e298484846119b7565b611e3584848484612240565b611e74576040517f08c379a0000000000000000000000000000000000000000000000000000000008152600401611e6b9061410a565b60405180910390fd5b50505050565b6060611e85826117ac565b611ec4576040517f08c379a0000000000000000000000000000000000000000000000000000000008152600401611ebb9061430a565b60405180910390fd5b6000600660008481526020019081526020016000208054611ee4906146e3565b80601f0160208091040260200160405190810160405280929190818152602001828054611f10906146e3565b8015611f5d5780601f10611f3257610100808354040283529160200191611f5d565b820191906000526020600020905b815481529060010190602001808311611f4057829003601f168201915b505050505090506000611f6e6123d7565b9050600081511415611f84578192505050611fc7565b600082511115611fb9578082604051602001611fa1929190613f2d565b60405160208183030381529060405292505050611fc7565b611fc2846123ee565b925050505b919050565b6000600e60009054906101000a900473ffffffffffffffffffffffffffffffffffffffff1673ffffffffffffffffffffffffffffffffffffffff1661201a838561249590919063ffffffff16565b73ffffffffffffffffffffffffffffffffffffffff1614905092915050565b6000612043610e5a565b15612083576040517f08c379a000000000000000000000000000000000000000000000000000000000815260040161207a906141ea565b60405180910390fd5b600c543410156120c8576040517f08c379a00000000000000000000000000000000000000000000000000000000081526004016120bf9061440a565b60405180910390fd5b6120d2600d6124bc565b60006120de600d6124d2565b90506120ea84826124e0565b6120f481846126ae565b3373ffffffffffffffffffffffffffffffffffffffff167f381522718816817f694da06ead37444f6a1ad8252bd7d029101cafc183a65ff6848360405161213c92919061403a565b60405180910390a28091505092915050565b60007f80ac58cd000000000000000000000000000000000000000000000000000000007bffffffffffffffffffffffffffffffffffffffffffffffffffffffff1916827bffffffffffffffffffffffffffffffffffffffffffffffffffffffff1916148061221957507f5b5e139f000000000000000000000000000000000000000000000000000000007bffffffffffffffffffffffffffffffffffffffffffffffffffffffff1916827bffffffffffffffffffffffffffffffffffffffffffffffffffffffff1916145b80612229575061222882612722565b5b9050919050565b61223b83838361278c565b505050565b60006122618473ffffffffffffffffffffffffffffffffffffffff166128a0565b156123ca578373ffffffffffffffffffffffffffffffffffffffff1663150b7a0261228a611818565b8786866040518563ffffffff1660e01b81526004016122ac9493929190613f6c565b602060405180830381600087803b1580156122c657600080fd5b505af19250505080156122f757506040513d601f19601f820116820180604052508101906122f4919061396d565b60015b61237a573d8060008114612327576040519150601f19603f3d011682016040523d82523d6000602084013e61232c565b606091505b50600081511415612372576040517f08c379a00000000000000000000000000000000000000000000000000000000081526004016123699061410a565b60405180910390fd5b805181602001fd5b63150b7a0260e01b7bffffffffffffffffffffffffffffffffffffffffffffffffffffffff1916817bffffffffffffffffffffffffffffffffffffffffffffffffffffffff1916149150506123cf565b600190505b949350505050565b606060405180602001604052806000815250905090565b60606123f9826117ac565b612438576040517f08c379a000000000000000000000000000000000000000000000000000000000815260040161242f9061438a565b60405180910390fd5b60006124426123d7565b90506000815111612462576040518060200160405280600081525061248d565b8061246c846128b3565b60405160200161247d929190613f2d565b6040516020818303038152906040525b915050919050565b60008060006124a48585612a60565b915091506124b181612ae3565b819250505092915050565b6001816000016000828254019250508190555050565b600081600001549050919050565b600073ffffffffffffffffffffffffffffffffffffffff168273ffffffffffffffffffffffffffffffffffffffff161415612550576040517f08c379a0000000000000000000000000000000000000000000000000000000008152600401612547906142ea565b60405180910390fd5b612559816117ac565b15612599576040517f08c379a00000000000000000000000000000000000000000000000000000000081526004016125909061414a565b60405180910390fd5b6125a560008383612230565b6001600360008473ffffffffffffffffffffffffffffffffffffffff1673ffffffffffffffffffffffffffffffffffffffff16815260200190815260200160002060008282546125f5919061455b565b92505081905550816002600083815260200190815260200160002060006101000a81548173ffffffffffffffffffffffffffffffffffffffff021916908373ffffffffffffffffffffffffffffffffffffffff160217905550808273ffffffffffffffffffffffffffffffffffffffff16600073ffffffffffffffffffffffffffffffffffffffff167fddf252ad1be2c89b69c2b068fc378daa952ba7f163c4a11628f55a4df523b3ef60405160405180910390a45050565b6126b7826117ac565b6126f6576040517f08c379a00000000000000000000000000000000000000000000000000000000081526004016126ed906142aa565b60405180910390fd5b8060066000848152602001908152602001600020908051906020019061271d92919061330c565b505050565b60007f01ffc9a7000000000000000000000000000000000000000000000000000000007bffffffffffffffffffffffffffffffffffffffffffffffffffffffff1916827bffffffffffffffffffffffffffffffffffffffffffffffffffffffff1916149050919050565b612797838383612e34565b600073ffffffffffffffffffffffffffffffffffffffff168373ffffffffffffffffffffffffffffffffffffffff1614156127da576127d581612e39565b612819565b8173ffffffffffffffffffffffffffffffffffffffff168373ffffffffffffffffffffffffffffffffffffffff1614612818576128178382612e82565b5b5b600073ffffffffffffffffffffffffffffffffffffffff168273ffffffffffffffffffffffffffffffffffffffff16141561285c5761285781612fef565b61289b565b8273ffffffffffffffffffffffffffffffffffffffff168273ffffffffffffffffffffffffffffffffffffffff161461289a576128998282613132565b5b5b505050565b600080823b905060008111915050919050565b606060008214156128fb576040518060400160405280600181526020017f30000000000000000000000000000000000000000000000000000000000000008152509050612a5b565b600082905060005b6000821461292d57808061291690614746565b915050600a8261292691906145b1565b9150612903565b60008167ffffffffffffffff81111561296f577f4e487b7100000000000000000000000000000000000000000000000000000000600052604160045260246000fd5b6040519080825280601f01601f1916602001820160405280156129a15781602001600182028036833780820191505090505b5090505b60008514612a54576001826129ba91906145e2565b9150600a856129c99190614799565b60306129d5919061455b565b60f81b818381518110612a11577f4e487b7100000000000000000000000000000000000000000000000000000000600052603260045260246000fd5b60200101907effffffffffffffffffffffffffffffffffffffffffffffffffffffffffffff1916908160001a905350600a85612a4d91906145b1565b94506129a5565b8093505050505b919050565b600080604183511415612aa25760008060006020860151925060408601519150606086015160001a9050612a96878285856131b1565b94509450505050612adc565b604083511415612ad3576000806020850151915060408501519050612ac88683836132be565b935093505050612adc565b60006002915091505b9250929050565b60006004811115612b1d577f4e487b7100000000000000000000000000000000000000000000000000000000600052602160045260246000fd5b816004811115612b56577f4e487b7100000000000000000000000000000000000000000000000000000000600052602160045260246000fd5b1415612b6157612e31565b60016004811115612b9b577f4e487b7100000000000000000000000000000000000000000000000000000000600052602160045260246000fd5b816004811115612bd4577f4e487b7100000000000000000000000000000000000000000000000000000000600052602160045260246000fd5b1415612c15576040517f08c379a0000000000000000000000000000000000000000000000000000000008152600401612c0c9061406a565b60405180910390fd5b60026004811115612c4f577f4e487b7100000000000000000000000000000000000000000000000000000000600052602160045260246000fd5b816004811115612c88577f4e487b7100000000000000000000000000000000000000000000000000000000600052602160045260246000fd5b1415612cc9576040517f08c379a0000000000000000000000000000000000000000000000000000000008152600401612cc0906140ca565b60405180910390fd5b60036004811115612d03577f4e487b7100000000000000000000000000000000000000000000000000000000600052602160045260246000fd5b816004811115612d3c577f4e487b7100000000000000000000000000000000000000000000000000000000600052602160045260246000fd5b1415612d7d576040517f08c379a0000000000000000000000000000000000000000000000000000000008152600401612d74906141aa565b60405180910390fd5b600480811115612db6577f4e487b7100000000000000000000000000000000000000000000000000000000600052602160045260246000fd5b816004811115612def577f4e487b7100000000000000000000000000000000000000000000000000000000600052602160045260246000fd5b1415612e30576040517f08c379a0000000000000000000000000000000000000000000000000000000008152600401612e27906142ca565b60405180910390fd5b5b50565b505050565b600980549050600a600083815260200190815260200160002081905550600981908060018154018082558091505060019003906000526020600020016000909190919091505550565b60006001612e8f84610f23565b612e9991906145e2565b9050600060086000848152602001908152602001600020549050818114612f7e576000600760008673ffffffffffffffffffffffffffffffffffffffff1673ffffffffffffffffffffffffffffffffffffffff168152602001908152602001600020600084815260200190815260200160002054905080600760008773ffffffffffffffffffffffffffffffffffffffff1673ffffffffffffffffffffffffffffffffffffffff168152602001908152602001600020600084815260200190815260200160002081905550816008600083815260200190815260200160002081905550505b6008600084815260200190815260200160002060009055600760008573ffffffffffffffffffffffffffffffffffffffff1673ffffffffffffffffffffffffffffffffffffffff16815260200190815260200160002060008381526020019081526020016000206000905550505050565b6000600160098054905061300391906145e2565b90506000600a6000848152602001908152602001600020549050600060098381548110613059577f4e487b7100000000000000000000000000000000000000000000000000000000600052603260045260246000fd5b9060005260206000200154905080600983815481106130a1577f4e487b7100000000000000000000000000000000000000000000000000000000600052603260045260246000fd5b906000526020600020018190555081600a600083815260200190815260200160002081905550600a6000858152602001908152602001600020600090556009805480613116577f4e487b7100000000000000000000000000000000000000000000000000000000600052603160045260246000fd5b6001900381819060005260206000200160009055905550505050565b600061313d83610f23565b905081600760008573ffffffffffffffffffffffffffffffffffffffff1673ffffffffffffffffffffffffffffffffffffffff168152602001908152602001600020600083815260200190815260200160002081905550806008600084815260200190815260200160002081905550505050565b6000807f7fffffffffffffffffffffffffffffff5d576e7357a4501ddfe92f46681b20a08360001c11156131ec5760006003915091506132b5565b601b8560ff16141580156132045750601c8560ff1614155b156132165760006004915091506132b5565b60006001878787876040516000815260200160405260405161323b9493929190613fd3565b6020604051602081039080840390855afa15801561325d573d6000803e3d6000fd5b505050602060405103519050600073ffffffffffffffffffffffffffffffffffffffff168173ffffffffffffffffffffffffffffffffffffffff1614156132ac576000600192509250506132b5565b80600092509250505b94509492505050565b6000806000807f7fffffffffffffffffffffffffffffffffffffffffffffffffffffffffffffff85169150601b8560ff1c0190506132fe878288856131b1565b935093505050935093915050565b828054613318906146e3565b90600052602060002090601f01602090048101928261333a5760008555613381565b82601f1061335357805160ff1916838001178555613381565b82800160010185558215613381579182015b82811115613380578251825591602001919060010190613365565b5b50905061338e9190613392565b5090565b5b808211156133ab576000816000905550600101613393565b5090565b60006133c26133bd8461448a565b614465565b905080838252602082019050828560208602820111156133e157600080fd5b60005b8581101561341157816133f788826134eb565b8452602084019350602083019250506001810190506133e4565b5050509392505050565b600061342e613429846144b6565b614465565b90508281526020810184848401111561344657600080fd5b6134518482856146a1565b509392505050565b600061346c613467846144e7565b614465565b90508281526020810184848401111561348457600080fd5b61348f8482856146a1565b509392505050565b6000813590506134a68161503a565b92915050565b600082601f8301126134bd57600080fd5b81356134cd8482602086016133af565b91505092915050565b6000813590506134e581615051565b92915050565b6000813590506134fa81615068565b92915050565b60008135905061350f8161507f565b92915050565b6000815190506135248161507f565b92915050565b600082601f83011261353b57600080fd5b813561354b84826020860161341b565b91505092915050565b600082601f83011261356557600080fd5b8135613575848260208601613459565b91505092915050565b60008135905061358d81615096565b92915050565b6000602082840312156135a557600080fd5b60006135b384828501613497565b91505092915050565b600080604083850312156135cf57600080fd5b60006135dd85828601613497565b92505060206135ee85828601613497565b9150509250929050565b60008060006060848603121561360d57600080fd5b600061361b86828701613497565b935050602061362c86828701613497565b925050604061363d8682870161357e565b9150509250925092565b6000806000806080858703121561365d57600080fd5b600061366b87828801613497565b945050602061367c87828801613497565b935050604061368d8782880161357e565b925050606085013567ffffffffffffffff8111156136aa57600080fd5b6136b68782880161352a565b91505092959194509250565b600080604083850312156136d557600080fd5b60006136e385828601613497565b92505060206136f4858286016134d6565b9150509250929050565b6000806000806080858703121561371457600080fd5b600061372287828801613497565b945050602085013567ffffffffffffffff81111561373f57600080fd5b61374b87828801613554565b935050604061375c878288016134eb565b925050606085013567ffffffffffffffff81111561377957600080fd5b6137858782880161352a565b91505092959194509250565b60008060008060008060c087890312156137aa57600080fd5b60006137b889828a01613497565b965050602087013567ffffffffffffffff8111156137d557600080fd5b6137e189828a01613554565b95505060406137f289828a016134eb565b945050606087013567ffffffffffffffff81111561380f57600080fd5b61381b89828a0161352a565b935050608061382c89828a016134eb565b92505060a087013567ffffffffffffffff81111561384957600080fd5b61385589828a016134ac565b9150509295509295509295565b6000806040838503121561387557600080fd5b600061388385828601613497565b92505060206138948582860161357e565b9150509250929050565b6000602082840312156138b057600080fd5b60006138be848285016134d6565b91505092915050565b6000602082840312156138d957600080fd5b60006138e7848285016134eb565b91505092915050565b6000806040838503121561390357600080fd5b6000613911858286016134eb565b925050602083013567ffffffffffffffff81111561392e57600080fd5b61393a858286016134ac565b9150509250929050565b60006020828403121561395657600080fd5b600061396484828501613500565b91505092915050565b60006020828403121561397f57600080fd5b600061398d84828501613515565b91505092915050565b6000602082840312156139a857600080fd5b60006139b68482850161357e565b91505092915050565b6139c881614616565b82525050565b6139d781614628565b82525050565b6139e681614634565b82525050565b6139fd6139f882614634565b61478f565b82525050565b6000613a0e82614518565b613a18818561452e565b9350613a288185602086016146b0565b613a3181614886565b840191505092915050565b6000613a4782614523565b613a51818561453f565b9350613a618185602086016146b0565b613a6a81614886565b840191505092915050565b6000613a8082614523565b613a8a8185614550565b9350613a9a8185602086016146b0565b80840191505092915050565b6000613ab360188361453f565b9150613abe82614897565b602082019050919050565b6000613ad660148361453f565b9150613ae1826148c0565b602082019050919050565b6000613af960178361453f565b9150613b04826148e9565b602082019050919050565b6000613b1c601f8361453f565b9150613b2782614912565b602082019050919050565b6000613b3f602b8361453f565b9150613b4a8261493b565b604082019050919050565b6000613b6260328361453f565b9150613b6d8261498a565b604082019050919050565b6000613b8560268361453f565b9150613b90826149d9565b604082019050919050565b6000613ba8601c8361453f565b9150613bb382614a28565b602082019050919050565b6000613bcb60248361453f565b9150613bd682614a51565b604082019050919050565b6000613bee60198361453f565b9150613bf982614aa0565b602082019050919050565b6000613c1160228361453f565b9150613c1c82614ac9565b604082019050919050565b6000613c34602c8361453f565b9150613c3f82614b18565b604082019050919050565b6000613c5760128361453f565b9150613c6282614b67565b602082019050919050565b6000613c7a60108361453f565b9150613c8582614b90565b602082019050919050565b6000613c9d60388361453f565b9150613ca882614bb9565b604082019050919050565b6000613cc0600f8361453f565b9150613ccb82614c08565b602082019050919050565b6000613ce3602a8361453f565b9150613cee82614c31565b604082019050919050565b6000613d0660298361453f565b9150613d1182614c80565b604082019050919050565b6000613d29602e8361453f565b9150613d3482614ccf565b604082019050919050565b6000613d4c60228361453f565b9150613d5782614d1e565b604082019050919050565b6000613d6f60208361453f565b9150613d7a82614d6d565b602082019050919050565b6000613d9260318361453f565b9150613d9d82614d96565b604082019050919050565b6000613db5602c8361453f565b9150613dc082614de5565b604082019050919050565b6000613dd860208361453f565b9150613de382614e34565b602082019050919050565b6000613dfb60298361453f565b9150613e0682614e5d565b604082019050919050565b6000613e1e602f8361453f565b9150613e2982614eac565b604082019050919050565b6000613e4160218361453f565b9150613e4c82614efb565b604082019050919050565b6000613e6460318361453f565b9150613e6f82614f4a565b604082019050919050565b6000613e87602c8361453f565b9150613e9282614f99565b604082019050919050565b6000613eaa601f8361453f565b9150613eb582614fe8565b602082019050919050565b6000613ecd60078361453f565b9150613ed882615011565b602082019050919050565b613eec8161468a565b82525050565b613efb81614694565b82525050565b6000613f0d82856139ec565b602082019150613f1d82846139ec565b6020820191508190509392505050565b6000613f398285613a75565b9150613f458284613a75565b91508190509392505050565b6000602082019050613f6660008301846139bf565b92915050565b6000608082019050613f8160008301876139bf565b613f8e60208301866139bf565b613f9b6040830185613ee3565b8181036060830152613fad8184613a03565b905095945050505050565b6000602082019050613fcd60008301846139ce565b92915050565b6000608082019050613fe860008301876139dd565b613ff56020830186613ef2565b61400260408301856139dd565b61400f60608301846139dd565b95945050505050565b600060208201905081810360008301526140328184613a3c565b905092915050565b600060408201905081810360008301526140548185613a3c565b90506140636020830184613ee3565b9392505050565b6000602082019050818103600083015261408381613aa6565b9050919050565b600060208201905081810360008301526140a381613ac9565b9050919050565b600060208201905081810360008301526140c381613aec565b9050919050565b600060208201905081810360008301526140e381613b0f565b9050919050565b6000602082019050818103600083015261410381613b32565b9050919050565b6000602082019050818103600083015261412381613b55565b9050919050565b6000602082019050818103600083015261414381613b78565b9050919050565b6000602082019050818103600083015261416381613b9b565b9050919050565b6000602082019050818103600083015261418381613bbe565b9050919050565b600060208201905081810360008301526141a381613be1565b9050919050565b600060208201905081810360008301526141c381613c04565b9050919050565b600060208201905081810360008301526141e381613c27565b9050919050565b6000602082019050818103600083015261420381613c4a565b9050919050565b6000602082019050818103600083015261422381613c6d565b9050919050565b6000602082019050818103600083015261424381613c90565b9050919050565b6000602082019050818103600083015261426381613cb3565b9050919050565b6000602082019050818103600083015261428381613cd6565b9050919050565b600060208201905081810360008301526142a381613cf9565b9050919050565b600060208201905081810360008301526142c381613d1c565b9050919050565b600060208201905081810360008301526142e381613d3f565b9050919050565b6000602082019050818103600083015261430381613d62565b9050919050565b6000602082019050818103600083015261432381613d85565b9050919050565b6000602082019050818103600083015261434381613da8565b9050919050565b6000602082019050818103600083015261436381613dcb565b9050919050565b6000602082019050818103600083015261438381613dee565b9050919050565b600060208201905081810360008301526143a381613e11565b9050919050565b600060208201905081810360008301526143c381613e34565b9050919050565b600060208201905081810360008301526143e381613e57565b9050919050565b6000602082019050818103600083015261440381613e7a565b9050919050565b6000602082019050818103600083015261442381613e9d565b9050919050565b6000602082019050818103600083015261444381613ec0565b9050919050565b600060208201905061445f6000830184613ee3565b92915050565b600061446f614480565b905061447b8282614715565b919050565b6000604051905090565b600067ffffffffffffffff8211156144a5576144a4614857565b5b602082029050602081019050919050565b600067ffffffffffffffff8211156144d1576144d0614857565b5b6144da82614886565b9050602081019050919050565b600067ffffffffffffffff82111561450257614501614857565b5b61450b82614886565b9050602081019050919050565b600081519050919050565b600081519050919050565b600082825260208201905092915050565b600082825260208201905092915050565b600081905092915050565b60006145668261468a565b91506145718361468a565b9250827fffffffffffffffffffffffffffffffffffffffffffffffffffffffffffffffff038211156145a6576145a56147ca565b5b828201905092915050565b60006145bc8261468a565b91506145c78361468a565b9250826145d7576145d66147f9565b5b828204905092915050565b60006145ed8261468a565b91506145f88361468a565b92508282101561460b5761460a6147ca565b5b828203905092915050565b60006146218261466a565b9050919050565b60008115159050919050565b6000819050919050565b60007fffffffff0000000000000000000000000000000000000000000000000000000082169050919050565b600073ffffffffffffffffffffffffffffffffffffffff82169050919050565b6000819050919050565b600060ff82169050919050565b82818337600083830152505050565b60005b838110156146ce5780820151818401526020810190506146b3565b838111156146dd576000848401525b50505050565b600060028204905060018216806146fb57607f821691505b6020821081141561470f5761470e614828565b5b50919050565b61471e82614886565b810181811067ffffffffffffffff8211171561473d5761473c614857565b5b80604052505050565b60006147518261468a565b91507fffffffffffffffffffffffffffffffffffffffffffffffffffffffffffffffff821415614784576147836147ca565b5b600182019050919050565b6000819050919050565b60006147a48261468a565b91506147af8361468a565b9250826147bf576147be6147f9565b5b828206905092915050565b7f4e487b7100000000000000000000000000000000000000000000000000000000600052601160045260246000fd5b7f4e487b7100000000000000000000000000000000000000000000000000000000600052601260045260246000fd5b7f4e487b7100000000000000000000000000000000000000000000000000000000600052602260045260246000fd5b7f4e487b7100000000000000000000000000000000000000000000000000000000600052604160045260246000fd5b6000601f19601f8301169050919050565b7f45434453413a20696e76616c6964207369676e61747572650000000000000000600082015250565b7f5061757361626c653a206e6f7420706175736564000000000000000000000000600082015250565b7f57686974656c697374206973206e6f7420616374697665000000000000000000600082015250565b7f45434453413a20696e76616c6964207369676e6174757265206c656e67746800600082015250565b7f455243373231456e756d657261626c653a206f776e657220696e646578206f7560008201527f74206f6620626f756e6473000000000000000000000000000000000000000000602082015250565b7f4552433732313a207472616e7366657220746f206e6f6e20455243373231526560008201527f63656976657220696d706c656d656e7465720000000000000000000000000000602082015250565b7f4f776e61626c653a206e6577206f776e657220697320746865207a65726f206160008201527f6464726573730000000000000000000000000000000000000000000000000000602082015250565b7f4552433732313a20746f6b656e20616c7265616479206d696e74656400000000600082015250565b7f4552433732313a207472616e7366657220746f20746865207a65726f2061646460008201527f7265737300000000000000000000000000000000000000000000000000000000602082015250565b7f4552433732313a20617070726f766520746f2063616c6c657200000000000000600082015250565b7f45434453413a20696e76616c6964207369676e6174757265202773272076616c60008201527f7565000000000000000000000000000000000000000000000000000000000000602082015250565b7f4552433732313a206f70657261746f7220717565727920666f72206e6f6e657860008201527f697374656e7420746f6b656e0000000000000000000000000000000000000000602082015250565b7f4d696e74696e6720697320706175736564210000000000000000000000000000600082015250565b7f5061757361626c653a2070617573656400000000000000000000000000000000600082015250565b7f4552433732313a20617070726f76652063616c6c6572206973206e6f74206f7760008201527f6e6572206e6f7220617070726f76656420666f7220616c6c0000000000000000602082015250565b7f4e6f742077686974656c69737465640000000000000000000000000000000000600082015250565b7f4552433732313a2062616c616e636520717565727920666f7220746865207a6560008201527f726f206164647265737300000000000000000000000000000000000000000000602082015250565b7f4552433732313a206f776e657220717565727920666f72206e6f6e657869737460008201527f656e7420746f6b656e0000000000000000000000000000000000000000000000602082015250565b7f45524337323155524953746f726167653a2055524920736574206f66206e6f6e60008201527f6578697374656e7420746f6b656e000000000000000000000000000000000000602082015250565b7f45434453413a20696e76616c6964207369676e6174757265202776272076616c60008201527f7565000000000000000000000000000000000000000000000000000000000000602082015250565b7f4552433732313a206d696e7420746f20746865207a65726f2061646472657373600082015250565b7f45524337323155524953746f726167653a2055524920717565727920666f722060008201527f6e6f6e6578697374656e7420746f6b656e000000000000000000000000000000602082015250565b7f4552433732313a20617070726f76656420717565727920666f72206e6f6e657860008201527f697374656e7420746f6b656e0000000000000000000000000000000000000000602082015250565b7f4f776e61626c653a2063616c6c6572206973206e6f7420746865206f776e6572600082015250565b7f4552433732313a207472616e73666572206f6620746f6b656e2074686174206960008201527f73206e6f74206f776e0000000000000000000000000000000000000000000000602082015250565b7f4552433732314d657461646174613a2055524920717565727920666f72206e6f60008201527f6e6578697374656e7420746f6b656e0000000000000000000000000000000000602082015250565b7f4552433732313a20617070726f76616c20746f2063757272656e74206f776e6560008201527f7200000000000000000000000000000000000000000000000000000000000000602082015250565b7f4552433732313a207472616e736665722063616c6c6572206973206e6f74206f60008201527f776e6572206e6f7220617070726f766564000000000000000000000000000000602082015250565b7f455243373231456e756d657261626c653a20676c6f62616c20696e646578206f60008201527f7574206f6620626f756e64730000000000000000000000000000000000000000602082015250565b7f4574686572206973206e6f7420656e6f75676820746f206d696e74204e465400600082015250565b7f44656e6965642100000000000000000000000000000000000000000000000000600082015250565b61504381614616565b811461504e57600080fd5b50565b61505a81614628565b811461506557600080fd5b50565b61507181614634565b811461507c57600080fd5b50565b6150888161463e565b811461509357600080fd5b50565b61509f8161468a565b81146150aa57600080fd5b5056fea2646970667358221220cf6177f9dfa6ceb576f10e10198e322881188acb6a8a91d6b987de0aa5c72d3564736f6c63430008040033",
  "linkReferences": {},
  "deployedLinkReferences": {}
}