{
  "_format": "hh-sol-artifact-1",
  "contractName": "Burger",
  "sourceName": "contracts/Burger.sol",
  "abi": [
    {
      "inputs": [],
      "stateMutability": "nonpayable",
      "type": "constructor"
    },
    {
      "anonymous": false,
      "inputs": [
        {
          "indexed": true,
          "internalType": "address",
          "name": "owner",
          "type": "address"
        },
        {
          "indexed": true,
          "internalType": "address",
          "name": "approved",
          "type": "address"
        },
        {
          "indexed": true,
          "internalType": "uint256",
          "name": "tokenId",
          "type": "uint256"
        }
      ],
      "name": "Approval",
      "type": "event"
    },
    {
      "anonymous": false,
      "inputs": [
        {
          "indexed": true,
          "internalType": "address",
          "name": "owner",
          "type": "address"
        },
        {
          "indexed": true,
          "internalType": "address",
          "name": "operator",
          "type": "address"
        },
        {
          "indexed": false,
          "internalType": "bool",
          "name": "approved",
          "type": "bool"
        }
      ],
      "name": "ApprovalForAll",
      "type": "event"
    },
    {
      "anonymous": false,
      "inputs": [
        {
          "indexed": true,
          "internalType": "address",
          "name": "_to",
          "type": "address"
        },
        {
          "indexed": true,
          "internalType": "uint256",
          "name": "_id",
          "type": "uint256"
        },
        {
          "indexed": true,
          "internalType": "uint8",
          "name": "_boxType",
          "type": "uint8"
        }
      ],
      "name": "MintNFT",
      "type": "event"
    },
    {
      "anonymous": false,
      "inputs": [
        {
          "indexed": true,
          "internalType": "address",
          "name": "previousOwner",
          "type": "address"
        },
        {
          "indexed": true,
          "internalType": "address",
          "name": "newOwner",
          "type": "address"
        }
      ],
      "name": "OwnershipTransferred",
      "type": "event"
    },
    {
      "anonymous": false,
      "inputs": [
        {
          "indexed": false,
          "internalType": "address",
          "name": "account",
          "type": "address"
        }
      ],
      "name": "Paused",
      "type": "event"
    },
    {
      "anonymous": false,
      "inputs": [
        {
          "indexed": true,
          "internalType": "address",
          "name": "from",
          "type": "address"
        },
        {
          "indexed": true,
          "internalType": "address",
          "name": "to",
          "type": "address"
        },
        {
          "indexed": true,
          "internalType": "uint256",
          "name": "tokenId",
          "type": "uint256"
        }
      ],
      "name": "Transfer",
      "type": "event"
    },
    {
      "anonymous": false,
      "inputs": [
        {
          "indexed": false,
          "internalType": "address",
          "name": "account",
          "type": "address"
        }
      ],
      "name": "Unpaused",
      "type": "event"
    },
    {
      "anonymous": false,
      "inputs": [
        {
          "indexed": false,
          "internalType": "bool",
          "name": "isWhiteList",
          "type": "bool"
        }
      ],
      "name": "whitelistModeChanged",
      "type": "event"
    },
    {
      "inputs": [
        {
          "internalType": "address",
          "name": "to",
          "type": "address"
        },
        {
          "internalType": "uint256",
          "name": "tokenId",
          "type": "uint256"
        }
      ],
      "name": "approve",
      "outputs": [],
      "stateMutability": "nonpayable",
      "type": "function"
    },
    {
      "inputs": [
        {
          "internalType": "address",
          "name": "owner",
          "type": "address"
        }
      ],
      "name": "balanceOf",
      "outputs": [
        {
          "internalType": "uint256",
          "name": "",
          "type": "uint256"
        }
      ],
      "stateMutability": "view",
      "type": "function"
    },
    {
      "inputs": [
        {
          "internalType": "string",
          "name": "newBaseTokenURI",
          "type": "string"
        }
      ],
      "name": "changeBaseTokenURI",
      "outputs": [],
      "stateMutability": "nonpayable",
      "type": "function"
    },
    {
      "inputs": [
        {
          "internalType": "bool",
          "name": "newValue",
          "type": "bool"
        }
      ],
      "name": "changeEnableSaleBNB",
      "outputs": [],
      "stateMutability": "nonpayable",
      "type": "function"
    },
    {
      "inputs": [
        {
          "internalType": "bytes32",
          "name": "newRoot",
          "type": "bytes32"
        }
      ],
      "name": "changeRoot",
      "outputs": [],
      "stateMutability": "nonpayable",
      "type": "function"
    },
    {
      "inputs": [
        {
          "internalType": "bool",
          "name": "newState",
          "type": "bool"
        }
      ],
      "name": "changeWhitelistState",
      "outputs": [],
      "stateMutability": "nonpayable",
      "type": "function"
    },
    {
      "inputs": [
        {
          "internalType": "uint256",
          "name": "tokenId",
          "type": "uint256"
        }
      ],
      "name": "getApproved",
      "outputs": [
        {
          "internalType": "address",
          "name": "",
          "type": "address"
        }
      ],
      "stateMutability": "view",
      "type": "function"
    },
    {
      "inputs": [],
      "name": "getBaseTokenURI",
      "outputs": [
        {
          "internalType": "string",
          "name": "",
          "type": "string"
        }
      ],
      "stateMutability": "view",
      "type": "function"
    },
    {
      "inputs": [
        {
          "internalType": "uint8",
          "name": "boxID",
          "type": "uint8"
        }
      ],
      "name": "getBoxPriceBNB",
      "outputs": [
        {
          "internalType": "uint256",
          "name": "",
          "type": "uint256"
        }
      ],
      "stateMutability": "view",
      "type": "function"
    },
    {
      "inputs": [
        {
          "internalType": "uint8",
          "name": "boxID",
          "type": "uint8"
        }
      ],
      "name": "getBoxPriceBURG",
      "outputs": [
        {
          "internalType": "uint256",
          "name": "",
          "type": "uint256"
        }
      ],
      "stateMutability": "view",
      "type": "function"
    },
    {
      "inputs": [
        {
          "internalType": "uint8",
          "name": "boxId",
          "type": "uint8"
        }
      ],
      "name": "getLimitTokenAmountPerBoxType",
      "outputs": [
        {
          "internalType": "uint256",
          "name": "",
          "type": "uint256"
        }
      ],
      "stateMutability": "view",
      "type": "function"
    },
    {
      "inputs": [],
      "name": "getPriceType",
      "outputs": [
        {
          "internalType": "string",
          "name": "",
          "type": "string"
        }
      ],
      "stateMutability": "view",
      "type": "function"
    },
    {
      "inputs": [
        {
          "internalType": "uint8",
          "name": "boxId",
          "type": "uint8"
        }
      ],
      "name": "getTokenSupply",
      "outputs": [
        {
          "internalType": "uint256",
          "name": "",
          "type": "uint256"
        }
      ],
      "stateMutability": "view",
      "type": "function"
    },
    {
      "inputs": [
        {
          "internalType": "uint256",
          "name": "_tokenId",
          "type": "uint256"
        }
      ],
      "name": "getboxTypeById",
      "outputs": [
        {
          "internalType": "uint8",
          "name": "",
          "type": "uint8"
        }
      ],
      "stateMutability": "view",
      "type": "function"
    },
    {
      "inputs": [],
      "name": "initialize",
      "outputs": [],
      "stateMutability": "nonpayable",
      "type": "function"
    },
    {
      "inputs": [
        {
          "internalType": "address",
          "name": "owner",
          "type": "address"
        },
        {
          "internalType": "address",
          "name": "operator",
          "type": "address"
        }
      ],
      "name": "isApprovedForAll",
      "outputs": [
        {
          "internalType": "bool",
          "name": "",
          "type": "bool"
        }
      ],
      "stateMutability": "view",
      "type": "function"
    },
    {
      "inputs": [],
      "name": "isSaleBNBEnabled",
      "outputs": [
        {
          "internalType": "bool",
          "name": "",
          "type": "bool"
        }
      ],
      "stateMutability": "view",
      "type": "function"
    },
    {
      "inputs": [],
      "name": "isWhitelistActive",
      "outputs": [
        {
          "internalType": "bool",
          "name": "",
          "type": "bool"
        }
      ],
      "stateMutability": "view",
      "type": "function"
    },
    {
      "inputs": [
        {
          "internalType": "address",
          "name": "_to",
          "type": "address"
        }
      ],
      "name": "mintForGoldenTicket",
      "outputs": [
        {
          "internalType": "uint256",
          "name": "",
          "type": "uint256"
        }
      ],
      "stateMutability": "nonpayable",
      "type": "function"
    },
    {
      "inputs": [
        {
          "internalType": "uint8",
          "name": "boxType",
          "type": "uint8"
        }
      ],
      "name": "mintNormal",
      "outputs": [
        {
          "internalType": "uint256",
          "name": "",
          "type": "uint256"
        }
      ],
      "stateMutability": "payable",
      "type": "function"
    },
    {
      "inputs": [
        {
          "internalType": "uint8",
          "name": "boxType",
          "type": "uint8"
        }
      ],
      "name": "mintNormalBURG",
      "outputs": [
        {
          "internalType": "uint256",
          "name": "",
          "type": "uint256"
        }
      ],
      "stateMutability": "nonpayable",
      "type": "function"
    },
    {
      "inputs": [
        {
          "internalType": "address",
          "name": "_to",
          "type": "address"
        },
        {
          "internalType": "uint8",
          "name": "boxType",
          "type": "uint8"
        }
      ],
      "name": "mintOwner",
      "outputs": [
        {
          "internalType": "uint256",
          "name": "",
          "type": "uint256"
        }
      ],
      "stateMutability": "nonpayable",
      "type": "function"
    },
    {
      "inputs": [
        {
          "internalType": "bytes32[]",
          "name": "proof",
          "type": "bytes32[]"
        },
        {
          "internalType": "uint8",
          "name": "boxType",
          "type": "uint8"
        }
      ],
      "name": "mintWhitelist",
      "outputs": [],
      "stateMutability": "payable",
      "type": "function"
    },
    {
      "inputs": [],
      "name": "name",
      "outputs": [
        {
          "internalType": "string",
          "name": "",
          "type": "string"
        }
      ],
      "stateMutability": "view",
      "type": "function"
    },
    {
      "inputs": [],
      "name": "owner",
      "outputs": [
        {
          "internalType": "address",
          "name": "",
          "type": "address"
        }
      ],
      "stateMutability": "view",
      "type": "function"
    },
    {
      "inputs": [
        {
          "internalType": "uint256",
          "name": "tokenId",
          "type": "uint256"
        }
      ],
      "name": "ownerOf",
      "outputs": [
        {
          "internalType": "address",
          "name": "",
          "type": "address"
        }
      ],
      "stateMutability": "view",
      "type": "function"
    },
    {
      "inputs": [],
      "name": "pause",
      "outputs": [
        {
          "internalType": "bool",
          "name": "",
          "type": "bool"
        }
      ],
      "stateMutability": "nonpayable",
      "type": "function"
    },
    {
      "inputs": [],
      "name": "paused",
      "outputs": [
        {
          "internalType": "bool",
          "name": "",
          "type": "bool"
        }
      ],
      "stateMutability": "view",
      "type": "function"
    },
    {
      "inputs": [],
      "name": "renounceOwnership",
      "outputs": [],
      "stateMutability": "nonpayable",
      "type": "function"
    },
    {
      "inputs": [
        {
          "internalType": "address",
          "name": "from",
          "type": "address"
        },
        {
          "internalType": "address",
          "name": "to",
          "type": "address"
        },
        {
          "internalType": "uint256",
          "name": "tokenId",
          "type": "uint256"
        }
      ],
      "name": "safeTransferFrom",
      "outputs": [],
      "stateMutability": "nonpayable",
      "type": "function"
    },
    {
      "inputs": [
        {
          "internalType": "address",
          "name": "from",
          "type": "address"
        },
        {
          "internalType": "address",
          "name": "to",
          "type": "address"
        },
        {
          "internalType": "uint256",
          "name": "tokenId",
          "type": "uint256"
        },
        {
          "internalType": "bytes",
          "name": "_data",
          "type": "bytes"
        }
      ],
      "name": "safeTransferFrom",
      "outputs": [],
      "stateMutability": "nonpayable",
      "type": "function"
    },
    {
      "inputs": [
        {
          "internalType": "address",
          "name": "operator",
          "type": "address"
        },
        {
          "internalType": "bool",
          "name": "approved",
          "type": "bool"
        }
      ],
      "name": "setApprovalForAll",
      "outputs": [],
      "stateMutability": "nonpayable",
      "type": "function"
    },
    {
      "inputs": [
        {
          "internalType": "address",
          "name": "_newAddress",
          "type": "address"
        }
      ],
      "name": "setBURGAddress",
      "outputs": [
        {
          "internalType": "bool",
          "name": "",
          "type": "bool"
        }
      ],
      "stateMutability": "nonpayable",
      "type": "function"
    },
    {
      "inputs": [
        {
          "internalType": "bytes4",
          "name": "interfaceId",
          "type": "bytes4"
        }
      ],
      "name": "supportsInterface",
      "outputs": [
        {
          "internalType": "bool",
          "name": "",
          "type": "bool"
        }
      ],
      "stateMutability": "view",
      "type": "function"
    },
    {
      "inputs": [],
      "name": "symbol",
      "outputs": [
        {
          "internalType": "string",
          "name": "",
          "type": "string"
        }
      ],
      "stateMutability": "view",
      "type": "function"
    },
    {
      "inputs": [
        {
          "internalType": "uint256",
          "name": "index",
          "type": "uint256"
        }
      ],
      "name": "tokenByIndex",
      "outputs": [
        {
          "internalType": "uint256",
          "name": "",
          "type": "uint256"
        }
      ],
      "stateMutability": "view",
      "type": "function"
    },
    {
      "inputs": [
        {
          "internalType": "address",
          "name": "owner",
          "type": "address"
        },
        {
          "internalType": "uint256",
          "name": "index",
          "type": "uint256"
        }
      ],
      "name": "tokenOfOwnerByIndex",
      "outputs": [
        {
          "internalType": "uint256",
          "name": "",
          "type": "uint256"
        }
      ],
      "stateMutability": "view",
      "type": "function"
    },
    {
      "inputs": [
        {
          "internalType": "uint256",
          "name": "_tokenId",
          "type": "uint256"
        }
      ],
      "name": "tokenURI",
      "outputs": [
        {
          "internalType": "string",
          "name": "",
          "type": "string"
        }
      ],
      "stateMutability": "view",
      "type": "function"
    },
    {
      "inputs": [],
      "name": "totalSupply",
      "outputs": [
        {
          "internalType": "uint256",
          "name": "",
          "type": "uint256"
        }
      ],
      "stateMutability": "view",
      "type": "function"
    },
    {
      "inputs": [
        {
          "internalType": "address",
          "name": "from",
          "type": "address"
        },
        {
          "internalType": "address",
          "name": "to",
          "type": "address"
        },
        {
          "internalType": "uint256",
          "name": "tokenId",
          "type": "uint256"
        }
      ],
      "name": "transferFrom",
      "outputs": [],
      "stateMutability": "nonpayable",
      "type": "function"
    },
    {
      "inputs": [
        {
          "internalType": "address",
          "name": "newOwner",
          "type": "address"
        }
      ],
      "name": "transferOwnership",
      "outputs": [],
      "stateMutability": "nonpayable",
      "type": "function"
    },
    {
      "inputs": [],
      "name": "unpause",
      "outputs": [
        {
          "internalType": "bool",
          "name": "",
          "type": "bool"
        }
      ],
      "stateMutability": "nonpayable",
      "type": "function"
    },
    {
      "inputs": [
        {
          "internalType": "uint256[]",
          "name": "_newBoxPricesBNB",
          "type": "uint256[]"
        }
      ],
      "name": "updateBoxPricesBNB",
      "outputs": [
        {
          "internalType": "bool",
          "name": "",
          "type": "bool"
        }
      ],
      "stateMutability": "nonpayable",
      "type": "function"
    },
    {
      "inputs": [
        {
          "internalType": "uint256[]",
          "name": "_newBoxPricesBURG",
          "type": "uint256[]"
        }
      ],
      "name": "updateBoxPricesBURG",
      "outputs": [
        {
          "internalType": "bool",
          "name": "",
          "type": "bool"
        }
      ],
      "stateMutability": "nonpayable",
      "type": "function"
    },
    {
      "inputs": [
        {
          "internalType": "bytes32",
          "name": "leaf",
          "type": "bytes32"
        },
        {
          "internalType": "bytes32[]",
          "name": "proof",
          "type": "bytes32[]"
        }
      ],
      "name": "verifyWhitelist",
      "outputs": [
        {
          "internalType": "bool",
          "name": "",
          "type": "bool"
        }
      ],
      "stateMutability": "view",
      "type": "function"
    },
    {
      "inputs": [
        {
          "internalType": "address",
          "name": "_owner",
          "type": "address"
        }
      ],
      "name": "walletOfOwner",
      "outputs": [
        {
          "internalType": "uint256[]",
          "name": "",
          "type": "uint256[]"
        }
      ],
      "stateMutability": "view",
      "type": "function"
    },
    {
      "inputs": [],
      "name": "whitelistRoot",
      "outputs": [
        {
          "internalType": "bytes32",
          "name": "",
          "type": "bytes32"
        }
      ],
      "stateMutability": "view",
      "type": "function"
    },
    {
      "inputs": [],
      "name": "withdraw",
      "outputs": [],
      "stateMutability": "nonpayable",
      "type": "function"
    }
  ],
  "bytecode": "0x60806040523480156200001157600080fd5b50600054610100900460ff16806200002c575060005460ff16155b620000945760405162461bcd60e51b815260206004820152602e60248201527f496e697469616c697a61626c653a20636f6e747261637420697320616c72656160448201526d191e481a5b9a5d1a585b1a5e995960921b606482015260840160405180910390fd5b600054610100900460ff16158015620000b7576000805461ffff19166101011790555b8015620000ca576000805461ff00191690555b5061389480620000db6000396000f3fe6080604052600436106102935760003560e01c80637f4d058d1161015a578063bdc32be0116100c1578063e0d5f5db1161007a578063e0d5f5db146107b0578063e40e97a7146107d0578063e985e9c5146107f0578063f09542b314610839578063f1859b8c1461084c578063f2fde38b1461086157600080fd5b8063bdc32be014610708578063c87b56dd1461071d578063d124d28f1461073d578063d27e3ebe1461075d578063d883656a1461077d578063d9583b9f1461079057600080fd5b80638d79cc48116101135780638d79cc48146106555780638da5cb5b1461067557806395d89b4114610693578063a22cb465146106a8578063a69a6e82146106c8578063b88d4fde146106e857600080fd5b80637f4d058d14610599578063810b4551146105b95780638129fc1c146105d95780638456cb59146105ee57806384b70ecb146106035780638cba90b01461062357600080fd5b80633d59cd60116101fe5780635c975abb116101b75780635c975abb146104ec5780636352211e1461050457806370a0823114610524578063715018a61461054457806379d72794146105595780637b125a1d1461057957600080fd5b80633d59cd601461042c5780633f4ba83a1461044c57806342842e0e14610461578063438b6300146104815780634f6ccce7146104ae578063524513d6146104ce57600080fd5b80632f745c59116102505780632f745c5914610388578063329ea90d146103a857806334c9a72b146103c8578063386bfc98146103e15780633b86b5da146103f75780633ccfd60b1461041757600080fd5b806301ffc9a71461029857806306fdde03146102cd578063081812fc146102ef578063095ea7b31461032757806318160ddd1461034957806323b872dd14610368575b600080fd5b3480156102a457600080fd5b506102b86102b3366004612f62565b610881565b60405190151581526020015b60405180910390f35b3480156102d957600080fd5b506102e26108ac565b6040516102c49190612fd7565b3480156102fb57600080fd5b5061030f61030a366004612fea565b61093e565b6040516001600160a01b0390911681526020016102c4565b34801561033357600080fd5b5061034761034236600461301a565b6109d8565b005b34801561035557600080fd5b506099545b6040519081526020016102c4565b34801561037457600080fd5b50610347610383366004613044565b610aee565b34801561039457600080fd5b5061035a6103a336600461301a565b610b1f565b3480156103b457600080fd5b506102b86103c3366004613154565b610bb5565b3480156103d457600080fd5b506101635460ff166102b8565b3480156103ed57600080fd5b506101645461035a565b34801561040357600080fd5b5061035a6104123660046131ab565b610c67565b34801561042357600080fd5b50610347610c92565b34801561043857600080fd5b50610347610447366004612fea565b610d0b565b34801561045857600080fd5b506102b8610d3b565b34801561046d57600080fd5b5061034761047c366004613044565b610d76565b34801561048d57600080fd5b506104a161049c3660046131c6565b610d91565b6040516102c491906131e1565b3480156104ba57600080fd5b5061035a6104c9366004612fea565b610e32565b3480156104da57600080fd5b5061016354610100900460ff166102b8565b3480156104f857600080fd5b5060c95460ff166102b8565b34801561051057600080fd5b5061030f61051f366004612fea565b610eb3565b34801561053057600080fd5b5061035a61053f3660046131c6565b610f2a565b34801561055057600080fd5b50610347610fb1565b34801561056557600080fd5b5061035a610574366004613225565b610fe7565b34801561058557600080fd5b506102b86105943660046131c6565b611025565b3480156105a557600080fd5b5061035a6105b43660046131ab565b611077565b3480156105c557600080fd5b5061035a6105d43660046131ab565b611090565b3480156105e557600080fd5b506103476110d6565b3480156105fa57600080fd5b506102b86112c9565b34801561060f57600080fd5b5061034761061e366004613266565b6112fe565b34801561062f57600080fd5b5061064361063e366004612fea565b61133c565b60405160ff90911681526020016102c4565b34801561066157600080fd5b5061035a6106703660046131c6565b6113ae565b34801561068157600080fd5b5060fb546001600160a01b031661030f565b34801561069f57600080fd5b506102e26113e6565b3480156106b457600080fd5b506103476106c3366004613283565b6113f5565b3480156106d457600080fd5b506102b86106e33660046132ba565b611400565b3480156106f457600080fd5b506103476107033660046133a1565b61144a565b34801561071457600080fd5b506102e2611482565b34801561072957600080fd5b506102e2610738366004612fea565b611492565b34801561074957600080fd5b5061035a6107583660046131ab565b611528565b34801561076957600080fd5b5061035a6107783660046131ab565b6118d7565b61034761078b36600461341c565b6118f0565b34801561079c57600080fd5b506103476107ab366004613266565b611bb4565b3480156107bc57600080fd5b506102b86107cb3660046132ba565b611c36565b3480156107dc57600080fd5b506103476107eb366004613460565b611c77565b3480156107fc57600080fd5b506102b861080b3660046134a8565b6001600160a01b039182166000908152606a6020908152604080832093909416825291909152205460ff1690565b61035a6108473660046131ab565b611cb5565b34801561085857600080fd5b506102e2611e8c565b34801561086d57600080fd5b5061034761087c3660046131c6565b611ed8565b60006001600160e01b0319821663780e9d6360e01b14806108a657506108a682611f70565b92915050565b6060606580546108bb906134d2565b80601f01602080910402602001604051908101604052809291908181526020018280546108e7906134d2565b80156109345780601f1061090957610100808354040283529160200191610934565b820191906000526020600020905b81548152906001019060200180831161091757829003601f168201915b5050505050905090565b6000818152606760205260408120546001600160a01b03166109bc5760405162461bcd60e51b815260206004820152602c60248201527f4552433732313a20617070726f76656420717565727920666f72206e6f6e657860448201526b34b9ba32b73a103a37b5b2b760a11b60648201526084015b60405180910390fd5b506000908152606960205260409020546001600160a01b031690565b60006109e382610eb3565b9050806001600160a01b0316836001600160a01b03161415610a515760405162461bcd60e51b815260206004820152602160248201527f4552433732313a20617070726f76616c20746f2063757272656e74206f776e656044820152603960f91b60648201526084016109b3565b336001600160a01b0382161480610a6d5750610a6d813361080b565b610adf5760405162461bcd60e51b815260206004820152603860248201527f4552433732313a20617070726f76652063616c6c6572206973206e6f74206f7760448201527f6e6572206e6f7220617070726f76656420666f7220616c6c000000000000000060648201526084016109b3565b610ae98383611fc0565b505050565b610af8338261202e565b610b145760405162461bcd60e51b81526004016109b39061350d565b610ae9838383612125565b6000610b2a83610f2a565b8210610b8c5760405162461bcd60e51b815260206004820152602b60248201527f455243373231456e756d657261626c653a206f776e657220696e646578206f7560448201526a74206f6620626f756e647360a81b60648201526084016109b3565b506001600160a01b03919091166000908152609760209081526040808320938352929052205490565b600082815b8351811015610c5a576000848281518110610bd757610bd761355e565b6020026020010151905080831015610c1a576040805160208101859052908101829052606001604051602081830303815290604052805190602001209250610c47565b60408051602081018390529081018490526060016040516020818303038152906040528051906020012092505b5080610c528161358a565b915050610bba565b5061016454149392505050565b60006101618260ff1681548110610c8057610c8061355e565b90600052602060002001549050919050565b60fb546001600160a01b03163314610cbc5760405162461bcd60e51b81526004016109b3906135a5565b47610ccf60fb546001600160a01b031690565b6001600160a01b03166108fc829081150290604051600060405180830381858888f19350505050158015610d07573d6000803e3d6000fd5b5050565b60fb546001600160a01b03163314610d355760405162461bcd60e51b81526004016109b3906135a5565b61016455565b60fb546000906001600160a01b03163314610d685760405162461bcd60e51b81526004016109b3906135a5565b610d706122d0565b50600190565b610ae98383836040518060200160405280600081525061144a565b60606000610d9e83610f2a565b90506000816001600160401b03811115610dba57610dba613080565b604051908082528060200260200182016040528015610de3578160200160208202803683370190505b50905060005b82811015610e2a57610dfb8582610b1f565b828281518110610e0d57610e0d61355e565b602090810291909101015280610e228161358a565b915050610de9565b509392505050565b6000610e3d60995490565b8210610ea05760405162461bcd60e51b815260206004820152602c60248201527f455243373231456e756d657261626c653a20676c6f62616c20696e646578206f60448201526b7574206f6620626f756e647360a01b60648201526084016109b3565b60998281548110610c8057610c8061355e565b6000818152606760205260408120546001600160a01b0316806108a65760405162461bcd60e51b815260206004820152602960248201527f4552433732313a206f776e657220717565727920666f72206e6f6e657869737460448201526832b73a103a37b5b2b760b91b60648201526084016109b3565b60006001600160a01b038216610f955760405162461bcd60e51b815260206004820152602a60248201527f4552433732313a2062616c616e636520717565727920666f7220746865207a65604482015269726f206164647265737360b01b60648201526084016109b3565b506001600160a01b031660009081526068602052604090205490565b60fb546001600160a01b03163314610fdb5760405162461bcd60e51b81526004016109b3906135a5565b610fe56000612363565b565b60fb546000906001600160a01b031633146110145760405162461bcd60e51b81526004016109b3906135a5565b61101e83836123b5565b9392505050565b60fb546000906001600160a01b031633146110525760405162461bcd60e51b81526004016109b3906135a5565b5061016580546001600160a01b0319166001600160a01b03831617905560015b919050565b60006101608260ff1681548110610c8057610c8061355e565b60006101678260ff16815481106110a9576110a961355e565b6000918252602090912060048204015460039091166008026101000a90046001600160401b031692915050565b600054610100900460ff16806110ef575060005460ff16155b61110b5760405162461bcd60e51b81526004016109b3906135da565b600054610100900460ff1615801561112d576000805461ffff19166101011790555b61117360405180604001604052806006815260200165213ab933b2b960d11b81525060405180604001604052806006815260200165212aa923a2a960d11b81525061245f565b60408051606081018252662386f26fc10000815266470de4df8200006020820152666a94d74f430000918101919091526111b290610160906003612d45565b5060408051606081018252662386f26fc10000815266470de4df8200006020820152666a94d74f430000918101919091526111f290610161906003612d45565b5060405180606001604052806022815260200161383d6022913980516112219161016291602090910190612d9b565b50610163805461ffff191660011790557fa2fc709bf2f4b9cb44b8a9114485d12d4877bb1beedd81f62f4f85a8056480ee61016455604080516060810182526000808252602082018190529181019190915261128290610166906003612e0f565b506040805160608101825261113081526108986020820152610384918101919091526112b390610167906003612e4f565b5080156112c6576000805461ff00191690555b50565b60fb546000906001600160a01b031633146112f65760405162461bcd60e51b81526004016109b3906135a5565b610d706124e6565b60fb546001600160a01b031633146113285760405162461bcd60e51b81526004016109b3906135a5565b610163805460ff1916911515919091179055565b6000818152606760205260408120546001600160a01b03166113975760405162461bcd60e51b8152602060048201526014602482015273151bdad95b88191bd95cc81b9bdd08195e1a5cdd60621b60448201526064016109b3565b50600090815261015f602052604090205460ff1690565b60fb546000906001600160a01b031633146113db5760405162461bcd60e51b81526004016109b3906135a5565b6108a68260016123b5565b6060606680546108bb906134d2565b610d0733838361253e565b60fb546000906001600160a01b0316331461142d5760405162461bcd60e51b81526004016109b3906135a5565b815161144190610160906020850190612efd565b50600192915050565b611454338361202e565b6114705760405162461bcd60e51b81526004016109b39061350d565b61147c8484848461260d565b50505050565b606061016280546108bb906134d2565b6000818152606760205260409020546060906001600160a01b03166114f05760405162461bcd60e51b8152602060048201526014602482015273151bdad95b88191bd95cc81b9bdd08195e1a5cdd60621b60448201526064016109b3565b6114f8611482565b61150183612640565b604051602001611512929190613628565b6040516020818303038152906040529050919050565b600061153660c95460ff1690565b156115535760405162461bcd60e51b81526004016109b390613657565b600261012d5414156115775760405162461bcd60e51b81526004016109b390613681565b600261012d5561016354610100900460ff16156115cc5760405162461bcd60e51b815260206004820152601360248201527257686974656c6973742069732061637469766560681b60448201526064016109b3565b6101635460ff16156116205760405162461bcd60e51b815260206004820152601f60248201527f53616c657320696e204255524720617265206e6f74207065726d69747465640060448201526064016109b3565b6101618260ff16815481106116375761163761355e565b60009182526020909120015461016554604051636eb1769f60e11b81523360048201523060248201526001600160a01b039091169063dd62ed3e9060440160206040518083038186803b15801561168d57600080fd5b505afa1580156116a1573d6000803e3d6000fd5b505050506040513d601f19601f820116820180604052508101906116c591906136b8565b101561170b5760405162461bcd60e51b81526020600482015260156024820152744e6f7420656e6f7567687420616c6c6f77616e636560581b60448201526064016109b3565b610165546001600160a01b03166323b872dd3361173060fb546001600160a01b031690565b611770606461176a60086101618a60ff16815481106117515761175161355e565b906000526020600020015461273d90919063ffffffff16565b90612749565b6040516001600160e01b031960e086901b1681526001600160a01b0393841660048201529290911660248301526044820152606401602060405180830381600087803b1580156117bf57600080fd5b505af11580156117d3573d6000803e3d6000fd5b505050506040513d601f19601f820116820180604052508101906117f791906136d1565b5061016560009054906101000a90046001600160a01b03166001600160a01b0316639dc29fac3361183f606461176a605c6101618960ff16815481106117515761175161355e565b6040516001600160e01b031960e085901b1681526001600160a01b0390921660048301526024820152604401602060405180830381600087803b15801561188557600080fd5b505af1158015611899573d6000803e3d6000fd5b505050506040513d601f19601f820116820180604052508101906118bd91906136d1565b5060006118ca33846123b5565b600161012d559392505050565b60006101668260ff1681548110610c8057610c8061355e565b60c95460ff16156119135760405162461bcd60e51b81526004016109b390613657565b600261012d5414156119375760405162461bcd60e51b81526004016109b390613681565b600261012d5561016354610100900460ff166119955760405162461bcd60e51b815260206004820152601760248201527f57686974656c697374206973206e6f742061637469766500000000000000000060448201526064016109b3565b6101608160ff16815481106119ac576119ac61355e565b90600052602060002001543410156119f85760405162461bcd60e51b815260206004820152600f60248201526e2737ba1032b737bab3b43a1021272160891b60448201526064016109b3565b6101678160ff1681548110611a0f57611a0f61355e565b90600052602060002090600491828204019190066008029054906101000a90046001600160401b03166001600160401b03166101668260ff1681548110611a5857611a5861355e565b906000526020600020015410611ab05760405162461bcd60e51b815260206004820152601b60248201527f4c696d69746174696f6e20686173206265656e2072656163686564000000000060448201526064016109b3565b604080513360601b6bffffffffffffffffffffffff19166020808301919091528251601481840301815260349092019092528051910120600090611af49084610bb5565b90508015611b0c57611b0633836123b5565b50611b46565b60405162461bcd60e51b815260206004820152600f60248201526e139bdd081dda1a5d195b1a5cdd1959608a1b60448201526064016109b3565b336001600160a01b03166108fc6101608460ff1681548110611b6a57611b6a61355e565b906000526020600020015434611b8091906136ee565b6040518115909202916000818181858888f19350505050158015611ba8573d6000803e3d6000fd5b5050600161012d555050565b60fb546001600160a01b03163314611bde5760405162461bcd60e51b81526004016109b3906135a5565b610163805461ff0019166101008315158102919091179182905560405160ff9190920416151581527f52cf77d97507bfe5c826e8a0dd53032bac06a11f9d0db13603d9887ed5cbf2179060200160405180910390a150565b60fb546000906001600160a01b03163314611c635760405162461bcd60e51b81526004016109b3906135a5565b815161144190610161906020850190612efd565b60fb546001600160a01b03163314611ca15760405162461bcd60e51b81526004016109b3906135a5565b8051610d0790610162906020840190612d9b565b6000611cc360c95460ff1690565b15611ce05760405162461bcd60e51b81526004016109b390613657565b600261012d541415611d045760405162461bcd60e51b81526004016109b390613681565b600261012d5561016354610100900460ff1615611d595760405162461bcd60e51b815260206004820152601360248201527257686974656c6973742069732061637469766560681b60448201526064016109b3565b6101635460ff16611dac5760405162461bcd60e51b815260206004820152601e60248201527f53616c657320696e20424e4220617265206e6f74207065726d6974746564000060448201526064016109b3565b6101608260ff1681548110611dc357611dc361355e565b9060005260206000200154341015611e0f5760405162461bcd60e51b815260206004820152600f60248201526e2737ba1032b737bab3b43a1021272160891b60448201526064016109b3565b6000611e1b33846123b5565b9050336001600160a01b03166108fc6101608560ff1681548110611e4157611e4161355e565b906000526020600020015434611e5791906136ee565b6040518115909202916000818181858888f19350505050158015611e7f573d6000803e3d6000fd5b50600161012d5592915050565b6101635460609060ff1615611eb9575060408051808201909152600381526221272160e91b602082015290565b506040805180820190915260048152634255524760e01b602082015290565b60fb546001600160a01b03163314611f025760405162461bcd60e51b81526004016109b3906135a5565b6001600160a01b038116611f675760405162461bcd60e51b815260206004820152602660248201527f4f776e61626c653a206e6577206f776e657220697320746865207a65726f206160448201526564647265737360d01b60648201526084016109b3565b6112c681612363565b60006001600160e01b031982166380ac58cd60e01b1480611fa157506001600160e01b03198216635b5e139f60e01b145b806108a657506301ffc9a760e01b6001600160e01b03198316146108a6565b600081815260696020526040902080546001600160a01b0319166001600160a01b0384169081179091558190611ff582610eb3565b6001600160a01b03167f8c5be1e5ebec7d5bd14f71427d1e84f3dd0314c0f7b2291e5b200ac8c7c3b92560405160405180910390a45050565b6000818152606760205260408120546001600160a01b03166120a75760405162461bcd60e51b815260206004820152602c60248201527f4552433732313a206f70657261746f7220717565727920666f72206e6f6e657860448201526b34b9ba32b73a103a37b5b2b760a11b60648201526084016109b3565b60006120b283610eb3565b9050806001600160a01b0316846001600160a01b031614806120ed5750836001600160a01b03166120e28461093e565b6001600160a01b0316145b8061211d57506001600160a01b038082166000908152606a602090815260408083209388168352929052205460ff165b949350505050565b826001600160a01b031661213882610eb3565b6001600160a01b0316146121a05760405162461bcd60e51b815260206004820152602960248201527f4552433732313a207472616e73666572206f6620746f6b656e2074686174206960448201526839903737ba1037bbb760b91b60648201526084016109b3565b6001600160a01b0382166122025760405162461bcd60e51b8152602060048201526024808201527f4552433732313a207472616e7366657220746f20746865207a65726f206164646044820152637265737360e01b60648201526084016109b3565b61220d838383612755565b612218600082611fc0565b6001600160a01b03831660009081526068602052604081208054600192906122419084906136ee565b90915550506001600160a01b038216600090815260686020526040812080546001929061226f908490613705565b909155505060008181526067602052604080822080546001600160a01b0319166001600160a01b0386811691821790925591518493918716917fddf252ad1be2c89b69c2b068fc378daa952ba7f163c4a11628f55a4df523b3ef91a4505050565b60c95460ff166123195760405162461bcd60e51b815260206004820152601460248201527314185d5cd8589b194e881b9bdd081c185d5cd95960621b60448201526064016109b3565b60c9805460ff191690557f5db9ee0a495bf2e6ff9c91a7834c1ba4fdd244a5e8aa4e537bd38aeae4b073aa335b6040516001600160a01b03909116815260200160405180910390a1565b60fb80546001600160a01b038381166001600160a01b0319831681179093556040519116919082907f8be0079c531659141344cd1fd0a4f28419497f9722a3daafe3b4186f6b6457e090600090a35050565b6000806123c160995490565b90506123cd848261280d565b600081815261015f60205260409020805460ff191660ff8516908117909155610166805490919081106124025761240261355e565b600091825260208220018054916124188361358a565b91905055508260ff1681856001600160a01b03167faabcc1eb354f11e651c87f835e7de6ac847d514718ed76fad480d55d2632992260405160405180910390a49392505050565b600054610100900460ff1680612478575060005460ff16155b6124945760405162461bcd60e51b81526004016109b3906135da565b600054610100900460ff161580156124b6576000805461ffff19166101011790555b6124be612827565b6124c6612827565b6124d08383612892565b8015610ae9576000805461ff0019169055505050565b60c95460ff16156125095760405162461bcd60e51b81526004016109b390613657565b60c9805460ff191660011790557f62e78cea01bee320cd4e420270b5ea74000d11b0c9f74754ebdbfc544b05a2586123463390565b816001600160a01b0316836001600160a01b031614156125a05760405162461bcd60e51b815260206004820152601960248201527f4552433732313a20617070726f766520746f2063616c6c65720000000000000060448201526064016109b3565b6001600160a01b038381166000818152606a6020908152604080832094871680845294825291829020805460ff191686151590811790915591519182527f17307eab39ab6107e8899845ad3d59bd9653f200f220920489ca2b5937696c31910160405180910390a3505050565b612618848484612125565b61262484848484612927565b61147c5760405162461bcd60e51b81526004016109b39061371d565b6060816126645750506040805180820190915260018152600360fc1b602082015290565b8160005b811561268e57806126788161358a565b91506126879050600a83613785565b9150612668565b6000816001600160401b038111156126a8576126a8613080565b6040519080825280601f01601f1916602001820160405280156126d2576020820181803683370190505b5090505b841561211d576126e76001836136ee565b91506126f4600a86613799565b6126ff906030613705565b60f81b8183815181106127145761271461355e565b60200101906001600160f81b031916908160001a905350612736600a86613785565b94506126d6565b600061101e82846137ad565b600061101e8284613785565b6001600160a01b0383166127b0576127ab81609980546000838152609a60205260408120829055600182018355919091527f72a152ddfb8e864297c917af52ea6c1c68aead0fee1a62673fcc7e0c94979d000155565b6127d3565b816001600160a01b0316836001600160a01b0316146127d3576127d38382612a34565b6001600160a01b0382166127ea57610ae981612ad1565b826001600160a01b0316826001600160a01b031614610ae957610ae98282612b80565b610d07828260405180602001604052806000815250612bc4565b600054610100900460ff1680612840575060005460ff16155b61285c5760405162461bcd60e51b81526004016109b3906135da565b600054610100900460ff1615801561287e576000805461ffff19166101011790555b80156112c6576000805461ff001916905550565b600054610100900460ff16806128ab575060005460ff16155b6128c75760405162461bcd60e51b81526004016109b3906135da565b600054610100900460ff161580156128e9576000805461ffff19166101011790555b82516128fc906065906020860190612d9b565b508151612910906066906020850190612d9b565b508015610ae9576000805461ff0019169055505050565b60006001600160a01b0384163b15612a2957604051630a85bd0160e11b81526001600160a01b0385169063150b7a029061296b9033908990889088906004016137cc565b602060405180830381600087803b15801561298557600080fd5b505af19250505080156129b5575060408051601f3d908101601f191682019092526129b291810190613809565b60015b612a0f573d8080156129e3576040519150601f19603f3d011682016040523d82523d6000602084013e6129e8565b606091505b508051612a075760405162461bcd60e51b81526004016109b39061371d565b805181602001fd5b6001600160e01b031916630a85bd0160e11b14905061211d565b506001949350505050565b60006001612a4184610f2a565b612a4b91906136ee565b600083815260986020526040902054909150808214612a9e576001600160a01b03841660009081526097602090815260408083208584528252808320548484528184208190558352609890915290208190555b5060009182526098602090815260408084208490556001600160a01b039094168352609781528383209183525290812055565b609954600090612ae3906001906136ee565b6000838152609a602052604081205460998054939450909284908110612b0b57612b0b61355e565b906000526020600020015490508060998381548110612b2c57612b2c61355e565b6000918252602080832090910192909255828152609a90915260408082208490558582528120556099805480612b6457612b64613826565b6001900381819060005260206000200160009055905550505050565b6000612b8b83610f2a565b6001600160a01b039093166000908152609760209081526040808320868452825280832085905593825260989052919091209190915550565b612bce8383612bf7565b612bdb6000848484612927565b610ae95760405162461bcd60e51b81526004016109b39061371d565b6001600160a01b038216612c4d5760405162461bcd60e51b815260206004820181905260248201527f4552433732313a206d696e7420746f20746865207a65726f206164647265737360448201526064016109b3565b6000818152606760205260409020546001600160a01b031615612cb25760405162461bcd60e51b815260206004820152601c60248201527f4552433732313a20746f6b656e20616c7265616479206d696e7465640000000060448201526064016109b3565b612cbe60008383612755565b6001600160a01b0382166000908152606860205260408120805460019290612ce7908490613705565b909155505060008181526067602052604080822080546001600160a01b0319166001600160a01b03861690811790915590518392907fddf252ad1be2c89b69c2b068fc378daa952ba7f163c4a11628f55a4df523b3ef908290a45050565b828054828255906000526020600020908101928215612d8b579160200282015b82811115612d8b578251829066ffffffffffffff16905591602001919060010190612d65565b50612d97929150612f37565b5090565b828054612da7906134d2565b90600052602060002090601f016020900481019282612dc95760008555612d8b565b82601f10612de257805160ff1916838001178555612d8b565b82800160010185558215612d8b579182015b82811115612d8b578251825591602001919060010190612df4565b828054828255906000526020600020908101928215612d8b579160200282015b82811115612d8b578251829060ff16905591602001919060010190612e2f565b82805482825590600052602060002090600301600490048101928215612d8b5791602002820160005b83821115612ebd57835183826101000a8154816001600160401b03021916908361ffff1602179055509260200192600801602081600701049283019260010302612e78565b8015612ef05782816101000a8154906001600160401b030219169055600801602081600701049283019260010302612ebd565b5050612d97929150612f37565b828054828255906000526020600020908101928215612d8b5791602002820182811115612d8b578251825591602001919060010190612df4565b5b80821115612d975760008155600101612f38565b6001600160e01b0319811681146112c657600080fd5b600060208284031215612f7457600080fd5b813561101e81612f4c565b60005b83811015612f9a578181015183820152602001612f82565b8381111561147c5750506000910152565b60008151808452612fc3816020860160208601612f7f565b601f01601f19169290920160200192915050565b60208152600061101e6020830184612fab565b600060208284031215612ffc57600080fd5b5035919050565b80356001600160a01b038116811461107257600080fd5b6000806040838503121561302d57600080fd5b61303683613003565b946020939093013593505050565b60008060006060848603121561305957600080fd5b61306284613003565b925061307060208501613003565b9150604084013590509250925092565b634e487b7160e01b600052604160045260246000fd5b604051601f8201601f191681016001600160401b03811182821017156130be576130be613080565b604052919050565b60006001600160401b038211156130df576130df613080565b5060051b60200190565b600082601f8301126130fa57600080fd5b8135602061310f61310a836130c6565b613096565b82815260059290921b8401810191818101908684111561312e57600080fd5b8286015b848110156131495780358352918301918301613132565b509695505050505050565b6000806040838503121561316757600080fd5b8235915060208301356001600160401b0381111561318457600080fd5b613190858286016130e9565b9150509250929050565b803560ff8116811461107257600080fd5b6000602082840312156131bd57600080fd5b61101e8261319a565b6000602082840312156131d857600080fd5b61101e82613003565b6020808252825182820181905260009190848201906040850190845b81811015613219578351835292840192918401916001016131fd565b50909695505050505050565b6000806040838503121561323857600080fd5b61324183613003565b915061324f6020840161319a565b90509250929050565b80151581146112c657600080fd5b60006020828403121561327857600080fd5b813561101e81613258565b6000806040838503121561329657600080fd5b61329f83613003565b915060208301356132af81613258565b809150509250929050565b600060208083850312156132cd57600080fd5b82356001600160401b038111156132e357600080fd5b8301601f810185136132f457600080fd5b803561330261310a826130c6565b81815260059190911b8201830190838101908783111561332157600080fd5b928401925b8284101561333f57833582529284019290840190613326565b979650505050505050565b60006001600160401b0383111561336357613363613080565b613376601f8401601f1916602001613096565b905082815283838301111561338a57600080fd5b828260208301376000602084830101529392505050565b600080600080608085870312156133b757600080fd5b6133c085613003565b93506133ce60208601613003565b92506040850135915060608501356001600160401b038111156133f057600080fd5b8501601f8101871361340157600080fd5b6134108782356020840161334a565b91505092959194509250565b6000806040838503121561342f57600080fd5b82356001600160401b0381111561344557600080fd5b613451858286016130e9565b92505061324f6020840161319a565b60006020828403121561347257600080fd5b81356001600160401b0381111561348857600080fd5b8201601f8101841361349957600080fd5b61211d8482356020840161334a565b600080604083850312156134bb57600080fd5b6134c483613003565b915061324f60208401613003565b600181811c908216806134e657607f821691505b6020821081141561350757634e487b7160e01b600052602260045260246000fd5b50919050565b60208082526031908201527f4552433732313a207472616e736665722063616c6c6572206973206e6f74206f6040820152701ddb995c881b9bdc88185c1c1c9bdd9959607a1b606082015260800190565b634e487b7160e01b600052603260045260246000fd5b634e487b7160e01b600052601160045260246000fd5b600060001982141561359e5761359e613574565b5060010190565b6020808252818101527f4f776e61626c653a2063616c6c6572206973206e6f7420746865206f776e6572604082015260600190565b6020808252602e908201527f496e697469616c697a61626c653a20636f6e747261637420697320616c72656160408201526d191e481a5b9a5d1a585b1a5e995960921b606082015260800190565b6000835161363a818460208801612f7f565b83519083019061364e818360208801612f7f565b01949350505050565b60208082526010908201526f14185d5cd8589b194e881c185d5cd95960821b604082015260600190565b6020808252601f908201527f5265656e7472616e637947756172643a207265656e7472616e742063616c6c00604082015260600190565b6000602082840312156136ca57600080fd5b5051919050565b6000602082840312156136e357600080fd5b815161101e81613258565b60008282101561370057613700613574565b500390565b6000821982111561371857613718613574565b500190565b60208082526032908201527f4552433732313a207472616e7366657220746f206e6f6e20455243373231526560408201527131b2b4bb32b91034b6b83632b6b2b73a32b960711b606082015260800190565b634e487b7160e01b600052601260045260246000fd5b6000826137945761379461376f565b500490565b6000826137a8576137a861376f565b500690565b60008160001904831182151516156137c7576137c7613574565b500290565b6001600160a01b03858116825284166020820152604081018390526080606082018190526000906137ff90830184612fab565b9695505050505050565b60006020828403121561381b57600080fd5b815161101e81612f4c565b634e487b7160e01b600052603160045260246000fdfe687474703a2f2f6c6f63616c686f73743a383038302f6170692f6d6574616474612fa26469706673582212201f93d6c073f16ea50e2d2844d5f4d15fcfde7224ea993cccd5f558f5b58cd6e664736f6c63430008090033",
  "linkReferences": {},
  "deployedLinkReferences": {}
}