{
  "_format": "hh-sol-artifact-1",
  "contractName": "Burger",
  "sourceName": "contracts/Burger.sol",
  "abi": [
    {
      "inputs": [],
      "stateMutability": "nonpayable",
      "type": "constructor"
    },
    {
      "anonymous": false,
      "inputs": [
        {
          "indexed": true,
          "internalType": "address",
          "name": "owner",
          "type": "address"
        },
        {
          "indexed": true,
          "internalType": "address",
          "name": "approved",
          "type": "address"
        },
        {
          "indexed": true,
          "internalType": "uint256",
          "name": "tokenId",
          "type": "uint256"
        }
      ],
      "name": "Approval",
      "type": "event"
    },
    {
      "anonymous": false,
      "inputs": [
        {
          "indexed": true,
          "internalType": "address",
          "name": "owner",
          "type": "address"
        },
        {
          "indexed": true,
          "internalType": "address",
          "name": "operator",
          "type": "address"
        },
        {
          "indexed": false,
          "internalType": "bool",
          "name": "approved",
          "type": "bool"
        }
      ],
      "name": "ApprovalForAll",
      "type": "event"
    },
    {
      "anonymous": false,
      "inputs": [
        {
          "indexed": true,
          "internalType": "address",
          "name": "_to",
          "type": "address"
        },
        {
          "indexed": true,
          "internalType": "uint256",
          "name": "_id",
          "type": "uint256"
        },
        {
          "indexed": true,
          "internalType": "uint8",
          "name": "_boxType",
          "type": "uint8"
        }
      ],
      "name": "MintNFT",
      "type": "event"
    },
    {
      "anonymous": false,
      "inputs": [
        {
          "indexed": true,
          "internalType": "address",
          "name": "previousOwner",
          "type": "address"
        },
        {
          "indexed": true,
          "internalType": "address",
          "name": "newOwner",
          "type": "address"
        }
      ],
      "name": "OwnershipTransferred",
      "type": "event"
    },
    {
      "anonymous": false,
      "inputs": [
        {
          "indexed": false,
          "internalType": "address",
          "name": "account",
          "type": "address"
        }
      ],
      "name": "Paused",
      "type": "event"
    },
    {
      "anonymous": false,
      "inputs": [
        {
          "indexed": true,
          "internalType": "address",
          "name": "from",
          "type": "address"
        },
        {
          "indexed": true,
          "internalType": "address",
          "name": "to",
          "type": "address"
        },
        {
          "indexed": true,
          "internalType": "uint256",
          "name": "tokenId",
          "type": "uint256"
        }
      ],
      "name": "Transfer",
      "type": "event"
    },
    {
      "anonymous": false,
      "inputs": [
        {
          "indexed": false,
          "internalType": "address",
          "name": "account",
          "type": "address"
        }
      ],
      "name": "Unpaused",
      "type": "event"
    },
    {
      "inputs": [
        {
          "internalType": "address",
          "name": "to",
          "type": "address"
        },
        {
          "internalType": "uint256",
          "name": "tokenId",
          "type": "uint256"
        }
      ],
      "name": "approve",
      "outputs": [],
      "stateMutability": "nonpayable",
      "type": "function"
    },
    {
      "inputs": [
        {
          "internalType": "address",
          "name": "owner",
          "type": "address"
        }
      ],
      "name": "balanceOf",
      "outputs": [
        {
          "internalType": "uint256",
          "name": "",
          "type": "uint256"
        }
      ],
      "stateMutability": "view",
      "type": "function"
    },
    {
      "inputs": [
        {
          "internalType": "uint256",
          "name": "",
          "type": "uint256"
        }
      ],
      "name": "boxPriceBNB",
      "outputs": [
        {
          "internalType": "uint256",
          "name": "",
          "type": "uint256"
        }
      ],
      "stateMutability": "view",
      "type": "function"
    },
    {
      "inputs": [
        {
          "internalType": "uint256",
          "name": "",
          "type": "uint256"
        }
      ],
      "name": "boxPriceBURG",
      "outputs": [
        {
          "internalType": "uint256",
          "name": "",
          "type": "uint256"
        }
      ],
      "stateMutability": "view",
      "type": "function"
    },
    {
      "inputs": [
        {
          "internalType": "string",
          "name": "newBaseTokenURI",
          "type": "string"
        }
      ],
      "name": "changeBaseTokenURI",
      "outputs": [],
      "stateMutability": "nonpayable",
      "type": "function"
    },
    {
      "inputs": [
        {
          "internalType": "bytes32",
          "name": "newRoot",
          "type": "bytes32"
        }
      ],
      "name": "changeRoot",
      "outputs": [],
      "stateMutability": "nonpayable",
      "type": "function"
    },
    {
      "inputs": [
        {
          "internalType": "bool",
          "name": "newState",
          "type": "bool"
        }
      ],
      "name": "changeWhitelistState",
      "outputs": [],
      "stateMutability": "nonpayable",
      "type": "function"
    },
    {
      "inputs": [
        {
          "internalType": "uint256",
          "name": "tokenId",
          "type": "uint256"
        }
      ],
      "name": "getApproved",
      "outputs": [
        {
          "internalType": "address",
          "name": "",
          "type": "address"
        }
      ],
      "stateMutability": "view",
      "type": "function"
    },
    {
      "inputs": [
        {
          "internalType": "uint256",
          "name": "_tokenId",
          "type": "uint256"
        }
      ],
      "name": "getboxTypeById",
      "outputs": [
        {
          "internalType": "uint8",
          "name": "",
          "type": "uint8"
        }
      ],
      "stateMutability": "view",
      "type": "function"
    },
    {
      "inputs": [
        {
          "internalType": "address",
          "name": "owner",
          "type": "address"
        },
        {
          "internalType": "address",
          "name": "operator",
          "type": "address"
        }
      ],
      "name": "isApprovedForAll",
      "outputs": [
        {
          "internalType": "bool",
          "name": "",
          "type": "bool"
        }
      ],
      "stateMutability": "view",
      "type": "function"
    },
    {
      "inputs": [
        {
          "internalType": "uint8",
          "name": "boxType",
          "type": "uint8"
        }
      ],
      "name": "mintNormal",
      "outputs": [
        {
          "internalType": "uint256",
          "name": "",
          "type": "uint256"
        }
      ],
      "stateMutability": "payable",
      "type": "function"
    },
    {
      "inputs": [
        {
          "internalType": "uint8",
          "name": "boxType",
          "type": "uint8"
        }
      ],
      "name": "mintNormalBURG",
      "outputs": [
        {
          "internalType": "uint256",
          "name": "",
          "type": "uint256"
        }
      ],
      "stateMutability": "nonpayable",
      "type": "function"
    },
    {
      "inputs": [
        {
          "internalType": "address",
          "name": "_to",
          "type": "address"
        },
        {
          "internalType": "uint8",
          "name": "boxType",
          "type": "uint8"
        }
      ],
      "name": "mintOwner",
      "outputs": [
        {
          "internalType": "uint256",
          "name": "",
          "type": "uint256"
        }
      ],
      "stateMutability": "nonpayable",
      "type": "function"
    },
    {
      "inputs": [
        {
          "internalType": "bytes32[]",
          "name": "proof",
          "type": "bytes32[]"
        }
      ],
      "name": "mintWhitelist",
      "outputs": [],
      "stateMutability": "payable",
      "type": "function"
    },
    {
      "inputs": [],
      "name": "name",
      "outputs": [
        {
          "internalType": "string",
          "name": "",
          "type": "string"
        }
      ],
      "stateMutability": "view",
      "type": "function"
    },
    {
      "inputs": [],
      "name": "owner",
      "outputs": [
        {
          "internalType": "address",
          "name": "",
          "type": "address"
        }
      ],
      "stateMutability": "view",
      "type": "function"
    },
    {
      "inputs": [
        {
          "internalType": "uint256",
          "name": "tokenId",
          "type": "uint256"
        }
      ],
      "name": "ownerOf",
      "outputs": [
        {
          "internalType": "address",
          "name": "",
          "type": "address"
        }
      ],
      "stateMutability": "view",
      "type": "function"
    },
    {
      "inputs": [],
      "name": "pause",
      "outputs": [
        {
          "internalType": "bool",
          "name": "",
          "type": "bool"
        }
      ],
      "stateMutability": "nonpayable",
      "type": "function"
    },
    {
      "inputs": [],
      "name": "paused",
      "outputs": [
        {
          "internalType": "bool",
          "name": "",
          "type": "bool"
        }
      ],
      "stateMutability": "view",
      "type": "function"
    },
    {
      "inputs": [],
      "name": "renounceOwnership",
      "outputs": [],
      "stateMutability": "nonpayable",
      "type": "function"
    },
    {
      "inputs": [
        {
          "internalType": "address",
          "name": "from",
          "type": "address"
        },
        {
          "internalType": "address",
          "name": "to",
          "type": "address"
        },
        {
          "internalType": "uint256",
          "name": "tokenId",
          "type": "uint256"
        }
      ],
      "name": "safeTransferFrom",
      "outputs": [],
      "stateMutability": "nonpayable",
      "type": "function"
    },
    {
      "inputs": [
        {
          "internalType": "address",
          "name": "from",
          "type": "address"
        },
        {
          "internalType": "address",
          "name": "to",
          "type": "address"
        },
        {
          "internalType": "uint256",
          "name": "tokenId",
          "type": "uint256"
        },
        {
          "internalType": "bytes",
          "name": "_data",
          "type": "bytes"
        }
      ],
      "name": "safeTransferFrom",
      "outputs": [],
      "stateMutability": "nonpayable",
      "type": "function"
    },
    {
      "inputs": [],
      "name": "saleBNBEnabled",
      "outputs": [
        {
          "internalType": "bool",
          "name": "",
          "type": "bool"
        }
      ],
      "stateMutability": "view",
      "type": "function"
    },
    {
      "inputs": [],
      "name": "saleBURGEnabled",
      "outputs": [
        {
          "internalType": "bool",
          "name": "",
          "type": "bool"
        }
      ],
      "stateMutability": "view",
      "type": "function"
    },
    {
      "inputs": [
        {
          "internalType": "address",
          "name": "operator",
          "type": "address"
        },
        {
          "internalType": "bool",
          "name": "approved",
          "type": "bool"
        }
      ],
      "name": "setApprovalForAll",
      "outputs": [],
      "stateMutability": "nonpayable",
      "type": "function"
    },
    {
      "inputs": [
        {
          "internalType": "address",
          "name": "_newAddress",
          "type": "address"
        }
      ],
      "name": "setBURGAddress",
      "outputs": [
        {
          "internalType": "bool",
          "name": "",
          "type": "bool"
        }
      ],
      "stateMutability": "nonpayable",
      "type": "function"
    },
    {
      "inputs": [],
      "name": "strBaseTokenURI",
      "outputs": [
        {
          "internalType": "string",
          "name": "",
          "type": "string"
        }
      ],
      "stateMutability": "view",
      "type": "function"
    },
    {
      "inputs": [
        {
          "internalType": "bytes4",
          "name": "interfaceId",
          "type": "bytes4"
        }
      ],
      "name": "supportsInterface",
      "outputs": [
        {
          "internalType": "bool",
          "name": "",
          "type": "bool"
        }
      ],
      "stateMutability": "view",
      "type": "function"
    },
    {
      "inputs": [],
      "name": "symbol",
      "outputs": [
        {
          "internalType": "string",
          "name": "",
          "type": "string"
        }
      ],
      "stateMutability": "view",
      "type": "function"
    },
    {
      "inputs": [
        {
          "internalType": "uint256",
          "name": "index",
          "type": "uint256"
        }
      ],
      "name": "tokenByIndex",
      "outputs": [
        {
          "internalType": "uint256",
          "name": "",
          "type": "uint256"
        }
      ],
      "stateMutability": "view",
      "type": "function"
    },
    {
      "inputs": [
        {
          "internalType": "address",
          "name": "owner",
          "type": "address"
        },
        {
          "internalType": "uint256",
          "name": "index",
          "type": "uint256"
        }
      ],
      "name": "tokenOfOwnerByIndex",
      "outputs": [
        {
          "internalType": "uint256",
          "name": "",
          "type": "uint256"
        }
      ],
      "stateMutability": "view",
      "type": "function"
    },
    {
      "inputs": [
        {
          "internalType": "uint256",
          "name": "_tokenId",
          "type": "uint256"
        }
      ],
      "name": "tokenURI",
      "outputs": [
        {
          "internalType": "string",
          "name": "",
          "type": "string"
        }
      ],
      "stateMutability": "view",
      "type": "function"
    },
    {
      "inputs": [],
      "name": "totalSupply",
      "outputs": [
        {
          "internalType": "uint256",
          "name": "",
          "type": "uint256"
        }
      ],
      "stateMutability": "view",
      "type": "function"
    },
    {
      "inputs": [
        {
          "internalType": "address",
          "name": "from",
          "type": "address"
        },
        {
          "internalType": "address",
          "name": "to",
          "type": "address"
        },
        {
          "internalType": "uint256",
          "name": "tokenId",
          "type": "uint256"
        }
      ],
      "name": "transferFrom",
      "outputs": [],
      "stateMutability": "nonpayable",
      "type": "function"
    },
    {
      "inputs": [
        {
          "internalType": "address",
          "name": "newOwner",
          "type": "address"
        }
      ],
      "name": "transferOwnership",
      "outputs": [],
      "stateMutability": "nonpayable",
      "type": "function"
    },
    {
      "inputs": [],
      "name": "unpause",
      "outputs": [
        {
          "internalType": "bool",
          "name": "",
          "type": "bool"
        }
      ],
      "stateMutability": "nonpayable",
      "type": "function"
    },
    {
      "inputs": [
        {
          "internalType": "uint256[]",
          "name": "_newBoxPricesBNB",
          "type": "uint256[]"
        }
      ],
      "name": "updateBoxPricesBNB",
      "outputs": [
        {
          "internalType": "bool",
          "name": "",
          "type": "bool"
        }
      ],
      "stateMutability": "nonpayable",
      "type": "function"
    },
    {
      "inputs": [
        {
          "internalType": "uint256[]",
          "name": "_newBoxPricesBURG",
          "type": "uint256[]"
        }
      ],
      "name": "updateBoxPricesBURG",
      "outputs": [
        {
          "internalType": "bool",
          "name": "",
          "type": "bool"
        }
      ],
      "stateMutability": "nonpayable",
      "type": "function"
    },
    {
      "inputs": [
        {
          "internalType": "bytes32",
          "name": "leaf",
          "type": "bytes32"
        },
        {
          "internalType": "bytes32[]",
          "name": "proof",
          "type": "bytes32[]"
        }
      ],
      "name": "verifyWhitelist",
      "outputs": [
        {
          "internalType": "bool",
          "name": "",
          "type": "bool"
        }
      ],
      "stateMutability": "view",
      "type": "function"
    },
    {
      "inputs": [
        {
          "internalType": "address",
          "name": "_owner",
          "type": "address"
        }
      ],
      "name": "walletOfOwner",
      "outputs": [
        {
          "internalType": "uint256[]",
          "name": "",
          "type": "uint256[]"
        }
      ],
      "stateMutability": "view",
      "type": "function"
    },
    {
      "inputs": [],
      "name": "whitelistActive",
      "outputs": [
        {
          "internalType": "bool",
          "name": "",
          "type": "bool"
        }
      ],
      "stateMutability": "view",
      "type": "function"
    },
    {
      "inputs": [],
      "name": "whitelistPrice",
      "outputs": [
        {
          "internalType": "uint256",
          "name": "",
          "type": "uint256"
        }
      ],
      "stateMutability": "view",
      "type": "function"
    },
    {
      "inputs": [],
      "name": "withdraw",
      "outputs": [],
      "stateMutability": "nonpayable",
      "type": "function"
    }
  ],
  "bytecode": "0x60806040526040518060600160405280662386f26fc1000066ffffffffffffff16815260200166470de4df82000066ffffffffffffff168152602001666a94d74f43000066ffffffffffffff16815250600d906003620000619291906200033a565b506040518060600160405280662386f26fc1000066ffffffffffffff16815260200166470de4df82000066ffffffffffffff168152602001666a94d74f43000066ffffffffffffff16815250600e906003620000bf9291906200033a565b5066470de4df820000600f5560405180606001604052806022815260200162005ef06022913960109080519060200190620000fc92919062000397565b506001601160006101000a81548160ff0219169083151502179055506001601160016101000a81548160ff0219169083151502179055506000601160026101000a81548160ff0219169083151502179055507fa2fc709bf2f4b9cb44b8a9114485d12d4877bb1beedd81f62f4f85a8056480ee60001b6012553480156200018257600080fd5b506040518060400160405280600681526020017f42757267657200000000000000000000000000000000000000000000000000008152506040518060400160405280600681526020017f425552474552000000000000000000000000000000000000000000000000000081525081600090805190602001906200020792919062000397565b5080600190805190602001906200022092919062000397565b5050506000600a60006101000a81548160ff0219169083151502179055506200025e620002526200026c60201b60201c565b6200027460201b60201c565b6001600b81905550620004ac565b600033905090565b6000600a60019054906101000a900473ffffffffffffffffffffffffffffffffffffffff16905081600a60016101000a81548173ffffffffffffffffffffffffffffffffffffffff021916908373ffffffffffffffffffffffffffffffffffffffff1602179055508173ffffffffffffffffffffffffffffffffffffffff168173ffffffffffffffffffffffffffffffffffffffff167f8be0079c531659141344cd1fd0a4f28419497f9722a3daafe3b4186f6b6457e060405160405180910390a35050565b82805482825590600052602060002090810192821562000384579160200282015b8281111562000383578251829066ffffffffffffff169055916020019190600101906200035b565b5b50905062000393919062000428565b5090565b828054620003a59062000476565b90600052602060002090601f016020900481019282620003c9576000855562000415565b82601f10620003e457805160ff191683800117855562000415565b8280016001018555821562000415579182015b8281111562000414578251825591602001919060010190620003f7565b5b50905062000424919062000428565b5090565b5b808211156200044357600081600090555060010162000429565b5090565b7f4e487b7100000000000000000000000000000000000000000000000000000000600052602260045260246000fd5b600060028204905060018216806200048f57607f821691505b60208210811415620004a657620004a562000447565b5b50919050565b615a3480620004bc6000396000f3fe60806040526004361061025c5760003560e01c806370a0823111610144578063b88d4fde116100b6578063e0d5f5db1161007a578063e0d5f5db14610973578063e40e97a7146109b0578063e985e9c5146109d9578063f09542b314610a16578063f2fde38b14610a46578063fc1a1c3614610a6f5761025c565b8063b88d4fde1461087c578063c87b56dd146108a5578063ca847633146108e2578063d124d28f1461090d578063d9583b9f1461094a5761025c565b806387ddb7b71161010857806387ddb7b7146107465780638cba90b0146107835780638da5cb5b146107c057806395d89b41146107eb578063a22cb46514610816578063a69a6e821461083f5761025c565b806370a082311461064d578063715018a61461068a57806379d72794146106a15780637b125a1d146106de5780638456cb591461071b5761025c565b80632f745c59116101dd57806342842e0e116101a157806342842e0e14610526578063438b63001461054f57806344d843811461058c5780634f6ccce7146105a85780635c975abb146105e55780636352211e146106105761025c565b80632f745c5914610441578063329ea90d1461047e5780633ccfd60b146104bb5780633d59cd60146104d25780633f4ba83a146104fb5761025c565b8063120f91d511610224578063120f91d51461035a578063158d9ac31461039757806318160ddd146103c257806323b872dd146103ed57806329c7f1fa146104165761025c565b806301ffc9a71461026157806302ce58131461029e57806306fdde03146102c9578063081812fc146102f4578063095ea7b314610331575b600080fd5b34801561026d57600080fd5b5061028860048036038101906102839190613c06565b610a9a565b6040516102959190613c4e565b60405180910390f35b3480156102aa57600080fd5b506102b3610b14565b6040516102c09190613c4e565b60405180910390f35b3480156102d557600080fd5b506102de610b27565b6040516102eb9190613d02565b60405180910390f35b34801561030057600080fd5b5061031b60048036038101906103169190613d5a565b610bb9565b6040516103289190613dc8565b60405180910390f35b34801561033d57600080fd5b5061035860048036038101906103539190613e0f565b610c3e565b005b34801561036657600080fd5b50610381600480360381019061037c9190613d5a565b610d56565b60405161038e9190613e5e565b60405180910390f35b3480156103a357600080fd5b506103ac610d7a565b6040516103b99190613c4e565b60405180910390f35b3480156103ce57600080fd5b506103d7610d8d565b6040516103e49190613e5e565b60405180910390f35b3480156103f957600080fd5b50610414600480360381019061040f9190613e79565b610d9a565b005b34801561042257600080fd5b5061042b610dfa565b6040516104389190613c4e565b60405180910390f35b34801561044d57600080fd5b5061046860048036038101906104639190613e0f565b610e0d565b6040516104759190613e5e565b60405180910390f35b34801561048a57600080fd5b506104a560048036038101906104a0919061404a565b610eb2565b6040516104b29190613c4e565b60405180910390f35b3480156104c757600080fd5b506104d0610f6a565b005b3480156104de57600080fd5b506104f960048036038101906104f491906140a6565b61103c565b005b34801561050757600080fd5b506105106110c2565b60405161051d9190613c4e565b60405180910390f35b34801561053257600080fd5b5061054d60048036038101906105489190613e79565b61114f565b005b34801561055b57600080fd5b50610576600480360381019061057191906140d3565b61116f565b60405161058391906141be565b60405180910390f35b6105a660048036038101906105a191906141e0565b61121d565b005b3480156105b457600080fd5b506105cf60048036038101906105ca9190613d5a565b611449565b6040516105dc9190613e5e565b60405180910390f35b3480156105f157600080fd5b506105fa6114ba565b6040516106079190613c4e565b60405180910390f35b34801561061c57600080fd5b5061063760048036038101906106329190613d5a565b6114d1565b6040516106449190613dc8565b60405180910390f35b34801561065957600080fd5b50610674600480360381019061066f91906140d3565b611583565b6040516106819190613e5e565b60405180910390f35b34801561069657600080fd5b5061069f61163b565b005b3480156106ad57600080fd5b506106c860048036038101906106c39190614262565b6116c3565b6040516106d59190613e5e565b60405180910390f35b3480156106ea57600080fd5b50610705600480360381019061070091906140d3565b611753565b6040516107129190613c4e565b60405180910390f35b34801561072757600080fd5b5061073061181b565b60405161073d9190613c4e565b60405180910390f35b34801561075257600080fd5b5061076d60048036038101906107689190613d5a565b6118a8565b60405161077a9190613e5e565b60405180910390f35b34801561078f57600080fd5b506107aa60048036038101906107a59190613d5a565b6118cc565b6040516107b791906142b1565b60405180910390f35b3480156107cc57600080fd5b506107d561193e565b6040516107e29190613dc8565b60405180910390f35b3480156107f757600080fd5b50610800611968565b60405161080d9190613d02565b60405180910390f35b34801561082257600080fd5b5061083d600480360381019061083891906142f8565b6119fa565b005b34801561084b57600080fd5b50610866600480360381019061086191906143fb565b611b7b565b6040516108739190613c4e565b60405180910390f35b34801561088857600080fd5b506108a3600480360381019061089e91906144f9565b611c19565b005b3480156108b157600080fd5b506108cc60048036038101906108c79190613d5a565b611c7b565b6040516108d99190613d02565b60405180910390f35b3480156108ee57600080fd5b506108f7611cfd565b6040516109049190613d02565b60405180910390f35b34801561091957600080fd5b50610934600480360381019061092f919061457c565b611d8b565b6040516109419190613e5e565b60405180910390f35b34801561095657600080fd5b50610971600480360381019061096c91906145a9565b6121e8565b005b34801561097f57600080fd5b5061099a600480360381019061099591906143fb565b612281565b6040516109a79190613c4e565b60405180910390f35b3480156109bc57600080fd5b506109d760048036038101906109d29190614677565b61231f565b005b3480156109e557600080fd5b50610a0060048036038101906109fb91906146c0565b6123b5565b604051610a0d9190613c4e565b60405180910390f35b610a306004803603810190610a2b919061457c565b612449565b604051610a3d9190613e5e565b60405180910390f35b348015610a5257600080fd5b50610a6d6004803603810190610a6891906140d3565b612676565b005b348015610a7b57600080fd5b50610a8461276e565b604051610a919190613e5e565b60405180910390f35b60007f780e9d63000000000000000000000000000000000000000000000000000000007bffffffffffffffffffffffffffffffffffffffffffffffffffffffff1916827bffffffffffffffffffffffffffffffffffffffffffffffffffffffff19161480610b0d5750610b0c82612774565b5b9050919050565b601160029054906101000a900460ff1681565b606060008054610b369061472f565b80601f0160208091040260200160405190810160405280929190818152602001828054610b629061472f565b8015610baf5780601f10610b8457610100808354040283529160200191610baf565b820191906000526020600020905b815481529060010190602001808311610b9257829003601f168201915b5050505050905090565b6000610bc482612856565b610c03576040517f08c379a0000000000000000000000000000000000000000000000000000000008152600401610bfa906147d3565b60405180910390fd5b6004600083815260200190815260200160002060009054906101000a900473ffffffffffffffffffffffffffffffffffffffff169050919050565b6000610c49826114d1565b90508073ffffffffffffffffffffffffffffffffffffffff168373ffffffffffffffffffffffffffffffffffffffff161415610cba576040517f08c379a0000000000000000000000000000000000000000000000000000000008152600401610cb190614865565b60405180910390fd5b8073ffffffffffffffffffffffffffffffffffffffff16610cd96128c2565b73ffffffffffffffffffffffffffffffffffffffff161480610d085750610d0781610d026128c2565b6123b5565b5b610d47576040517f08c379a0000000000000000000000000000000000000000000000000000000008152600401610d3e906148f7565b60405180910390fd5b610d5183836128ca565b505050565b600d8181548110610d6657600080fd5b906000526020600020016000915090505481565b601160019054906101000a900460ff1681565b6000600880549050905090565b610dab610da56128c2565b82612983565b610dea576040517f08c379a0000000000000000000000000000000000000000000000000000000008152600401610de190614989565b60405180910390fd5b610df5838383612a61565b505050565b601160009054906101000a900460ff1681565b6000610e1883611583565b8210610e59576040517f08c379a0000000000000000000000000000000000000000000000000000000008152600401610e5090614a1b565b60405180910390fd5b600660008473ffffffffffffffffffffffffffffffffffffffff1673ffffffffffffffffffffffffffffffffffffffff168152602001908152602001600020600083815260200190815260200160002054905092915050565b60008083905060005b8351811015610f5b576000848281518110610ed957610ed8614a3b565b5b6020026020010151905080831015610f1b578281604051602001610efe929190614a8b565b604051602081830303815290604052805190602001209250610f47565b8083604051602001610f2e929190614a8b565b6040516020818303038152906040528051906020012092505b508080610f5390614ae6565b915050610ebb565b50601254811491505092915050565b610f726128c2565b73ffffffffffffffffffffffffffffffffffffffff16610f9061193e565b73ffffffffffffffffffffffffffffffffffffffff1614610fe6576040517f08c379a0000000000000000000000000000000000000000000000000000000008152600401610fdd90614b7b565b60405180910390fd5b6000479050610ff361193e565b73ffffffffffffffffffffffffffffffffffffffff166108fc829081150290604051600060405180830381858888f19350505050158015611038573d6000803e3d6000fd5b5050565b6110446128c2565b73ffffffffffffffffffffffffffffffffffffffff1661106261193e565b73ffffffffffffffffffffffffffffffffffffffff16146110b8576040517f08c379a00000000000000000000000000000000000000000000000000000000081526004016110af90614b7b565b60405180910390fd5b8060128190555050565b60006110cc6128c2565b73ffffffffffffffffffffffffffffffffffffffff166110ea61193e565b73ffffffffffffffffffffffffffffffffffffffff1614611140576040517f08c379a000000000000000000000000000000000000000000000000000000000815260040161113790614b7b565b60405180910390fd5b611148612cbd565b6001905090565b61116a83838360405180602001604052806000815250611c19565b505050565b6060600061117c83611583565b905060008167ffffffffffffffff81111561119a57611199613f07565b5b6040519080825280602002602001820160405280156111c85781602001602082028036833780820191505090505b50905060005b82811015611212576111e08582610e0d565b8282815181106111f3576111f2614a3b565b5b602002602001018181525050808061120a90614ae6565b9150506111ce565b508092505050919050565b6112256114ba565b15611265576040517f08c379a000000000000000000000000000000000000000000000000000000000815260040161125c90614be7565b60405180910390fd5b6002600b5414156112ab576040517f08c379a00000000000000000000000000000000000000000000000000000000081526004016112a290614c53565b60405180910390fd5b6002600b81905550601160029054906101000a900460ff16611302576040517f08c379a00000000000000000000000000000000000000000000000000000000081526004016112f990614cbf565b60405180910390fd5b600d60018154811061131757611316614a3b565b5b9060005260206000200154341015611364576040517f08c379a000000000000000000000000000000000000000000000000000000000815260040161135b90614d2b565b60405180910390fd5b600061137861137233612d5f565b83610eb2565b905080156113915761138b336002612d8f565b506113cc565b6040517f08c379a00000000000000000000000000000000000000000000000000000000081526004016113c390614d97565b60405180910390fd5b3373ffffffffffffffffffffffffffffffffffffffff166108fc600d6001815481106113fb576113fa614a3b565b5b9060005260206000200154346114119190614db7565b9081150290604051600060405180830381858888f1935050505015801561143c573d6000803e3d6000fd5b50506001600b8190555050565b6000611453610d8d565b8210611494576040517f08c379a000000000000000000000000000000000000000000000000000000000815260040161148b90614e5d565b60405180910390fd5b600882815481106114a8576114a7614a3b565b5b90600052602060002001549050919050565b6000600a60009054906101000a900460ff16905090565b6000806002600084815260200190815260200160002060009054906101000a900473ffffffffffffffffffffffffffffffffffffffff169050600073ffffffffffffffffffffffffffffffffffffffff168173ffffffffffffffffffffffffffffffffffffffff16141561157a576040517f08c379a000000000000000000000000000000000000000000000000000000000815260040161157190614eef565b60405180910390fd5b80915050919050565b60008073ffffffffffffffffffffffffffffffffffffffff168273ffffffffffffffffffffffffffffffffffffffff1614156115f4576040517f08c379a00000000000000000000000000000000000000000000000000000000081526004016115eb90614f81565b60405180910390fd5b600360008373ffffffffffffffffffffffffffffffffffffffff1673ffffffffffffffffffffffffffffffffffffffff168152602001908152602001600020549050919050565b6116436128c2565b73ffffffffffffffffffffffffffffffffffffffff1661166161193e565b73ffffffffffffffffffffffffffffffffffffffff16146116b7576040517f08c379a00000000000000000000000000000000000000000000000000000000081526004016116ae90614b7b565b60405180910390fd5b6116c16000612e4c565b565b60006116cd6128c2565b73ffffffffffffffffffffffffffffffffffffffff166116eb61193e565b73ffffffffffffffffffffffffffffffffffffffff1614611741576040517f08c379a000000000000000000000000000000000000000000000000000000000815260040161173890614b7b565b60405180910390fd5b61174b8383612d8f565b905092915050565b600061175d6128c2565b73ffffffffffffffffffffffffffffffffffffffff1661177b61193e565b73ffffffffffffffffffffffffffffffffffffffff16146117d1576040517f08c379a00000000000000000000000000000000000000000000000000000000081526004016117c890614b7b565b60405180910390fd5b81601360006101000a81548173ffffffffffffffffffffffffffffffffffffffff021916908373ffffffffffffffffffffffffffffffffffffffff16021790555060019050919050565b60006118256128c2565b73ffffffffffffffffffffffffffffffffffffffff1661184361193e565b73ffffffffffffffffffffffffffffffffffffffff1614611899576040517f08c379a000000000000000000000000000000000000000000000000000000000815260040161189090614b7b565b60405180910390fd5b6118a1612f12565b6001905090565b600e81815481106118b857600080fd5b906000526020600020016000915090505481565b60006118d782612856565b611916576040517f08c379a000000000000000000000000000000000000000000000000000000000815260040161190d90614fed565b60405180910390fd5b600c600083815260200190815260200160002060009054906101000a900460ff169050919050565b6000600a60019054906101000a900473ffffffffffffffffffffffffffffffffffffffff16905090565b6060600180546119779061472f565b80601f01602080910402602001604051908101604052809291908181526020018280546119a39061472f565b80156119f05780601f106119c5576101008083540402835291602001916119f0565b820191906000526020600020905b8154815290600101906020018083116119d357829003601f168201915b5050505050905090565b611a026128c2565b73ffffffffffffffffffffffffffffffffffffffff168273ffffffffffffffffffffffffffffffffffffffff161415611a70576040517f08c379a0000000000000000000000000000000000000000000000000000000008152600401611a6790615059565b60405180910390fd5b8060056000611a7d6128c2565b73ffffffffffffffffffffffffffffffffffffffff1673ffffffffffffffffffffffffffffffffffffffff16815260200190815260200160002060008473ffffffffffffffffffffffffffffffffffffffff1673ffffffffffffffffffffffffffffffffffffffff16815260200190815260200160002060006101000a81548160ff0219169083151502179055508173ffffffffffffffffffffffffffffffffffffffff16611b2a6128c2565b73ffffffffffffffffffffffffffffffffffffffff167f17307eab39ab6107e8899845ad3d59bd9653f200f220920489ca2b5937696c3183604051611b6f9190613c4e565b60405180910390a35050565b6000611b856128c2565b73ffffffffffffffffffffffffffffffffffffffff16611ba361193e565b73ffffffffffffffffffffffffffffffffffffffff1614611bf9576040517f08c379a0000000000000000000000000000000000000000000000000000000008152600401611bf090614b7b565b60405180910390fd5b81600d9080519060200190611c0f929190613aaa565b5060019050919050565b611c2a611c246128c2565b83612983565b611c69576040517f08c379a0000000000000000000000000000000000000000000000000000000008152600401611c6090614989565b60405180910390fd5b611c7584848484612fb5565b50505050565b6060611c8682612856565b611cc5576040517f08c379a0000000000000000000000000000000000000000000000000000000008152600401611cbc90614fed565b60405180910390fd5b611ccd613011565b611cd6836130a3565b604051602001611ce79291906150b5565b6040516020818303038152906040529050919050565b60108054611d0a9061472f565b80601f0160208091040260200160405190810160405280929190818152602001828054611d369061472f565b8015611d835780601f10611d5857610100808354040283529160200191611d83565b820191906000526020600020905b815481529060010190602001808311611d6657829003601f168201915b505050505081565b6000611d956114ba565b15611dd5576040517f08c379a0000000000000000000000000000000000000000000000000000000008152600401611dcc90614be7565b60405180910390fd5b6002600b541415611e1b576040517f08c379a0000000000000000000000000000000000000000000000000000000008152600401611e1290614c53565b60405180910390fd5b6002600b81905550601160029054906101000a900460ff1615611e73576040517f08c379a0000000000000000000000000000000000000000000000000000000008152600401611e6a90615125565b60405180910390fd5b601160019054906101000a900460ff16611ec2576040517f08c379a0000000000000000000000000000000000000000000000000000000008152600401611eb990615191565b60405180910390fd5b600e8260ff1681548110611ed957611ed8614a3b565b5b9060005260206000200154601360009054906101000a900473ffffffffffffffffffffffffffffffffffffffff1673ffffffffffffffffffffffffffffffffffffffff1663dd62ed3e33306040518363ffffffff1660e01b8152600401611f419291906151b1565b60206040518083038186803b158015611f5957600080fd5b505afa158015611f6d573d6000803e3d6000fd5b505050506040513d601f19601f82011682018060405250810190611f9191906151ef565b1015611fd2576040517f08c379a0000000000000000000000000000000000000000000000000000000008152600401611fc990615268565b60405180910390fd5b601360009054906101000a900473ffffffffffffffffffffffffffffffffffffffff1673ffffffffffffffffffffffffffffffffffffffff166323b872dd3361201961193e565b61206160646120536008600e8a60ff168154811061203a57612039614a3b565b5b906000526020600020015461320490919063ffffffff16565b61321a90919063ffffffff16565b6040518463ffffffff1660e01b815260040161207f93929190615288565b602060405180830381600087803b15801561209957600080fd5b505af11580156120ad573d6000803e3d6000fd5b505050506040513d601f19601f820116820180604052508101906120d191906152d4565b50601360009054906101000a900473ffffffffffffffffffffffffffffffffffffffff1673ffffffffffffffffffffffffffffffffffffffff16639dc29fac33612159606461214b605c600e8960ff168154811061213257612131614a3b565b5b906000526020600020015461320490919063ffffffff16565b61321a90919063ffffffff16565b6040518363ffffffff1660e01b8152600401612176929190615301565b602060405180830381600087803b15801561219057600080fd5b505af11580156121a4573d6000803e3d6000fd5b505050506040513d601f19601f820116820180604052508101906121c891906152d4565b5060006121d53384612d8f565b9050809150506001600b81905550919050565b6121f06128c2565b73ffffffffffffffffffffffffffffffffffffffff1661220e61193e565b73ffffffffffffffffffffffffffffffffffffffff1614612264576040517f08c379a000000000000000000000000000000000000000000000000000000000815260040161225b90614b7b565b60405180910390fd5b80601160026101000a81548160ff02191690831515021790555050565b600061228b6128c2565b73ffffffffffffffffffffffffffffffffffffffff166122a961193e565b73ffffffffffffffffffffffffffffffffffffffff16146122ff576040517f08c379a00000000000000000000000000000000000000000000000000000000081526004016122f690614b7b565b60405180910390fd5b81600e9080519060200190612315929190613aaa565b5060019050919050565b6123276128c2565b73ffffffffffffffffffffffffffffffffffffffff1661234561193e565b73ffffffffffffffffffffffffffffffffffffffff161461239b576040517f08c379a000000000000000000000000000000000000000000000000000000000815260040161239290614b7b565b60405180910390fd5b80601090805190602001906123b1929190613af7565b5050565b6000600560008473ffffffffffffffffffffffffffffffffffffffff1673ffffffffffffffffffffffffffffffffffffffff16815260200190815260200160002060008373ffffffffffffffffffffffffffffffffffffffff1673ffffffffffffffffffffffffffffffffffffffff16815260200190815260200160002060009054906101000a900460ff16905092915050565b60006124536114ba565b15612493576040517f08c379a000000000000000000000000000000000000000000000000000000000815260040161248a90614be7565b60405180910390fd5b6002600b5414156124d9576040517f08c379a00000000000000000000000000000000000000000000000000000000081526004016124d090614c53565b60405180910390fd5b6002600b81905550601160029054906101000a900460ff1615612531576040517f08c379a000000000000000000000000000000000000000000000000000000000815260040161252890615125565b60405180910390fd5b601160009054906101000a900460ff16612580576040517f08c379a000000000000000000000000000000000000000000000000000000000815260040161257790615191565b60405180910390fd5b600d8260ff168154811061259757612596614a3b565b5b90600052602060002001543410156125e4576040517f08c379a00000000000000000000000000000000000000000000000000000000081526004016125db90614d2b565b60405180910390fd5b60006125f03384612d8f565b90503373ffffffffffffffffffffffffffffffffffffffff166108fc600d8560ff168154811061262357612622614a3b565b5b9060005260206000200154346126399190614db7565b9081150290604051600060405180830381858888f19350505050158015612664573d6000803e3d6000fd5b50809150506001600b81905550919050565b61267e6128c2565b73ffffffffffffffffffffffffffffffffffffffff1661269c61193e565b73ffffffffffffffffffffffffffffffffffffffff16146126f2576040517f08c379a00000000000000000000000000000000000000000000000000000000081526004016126e990614b7b565b60405180910390fd5b600073ffffffffffffffffffffffffffffffffffffffff168173ffffffffffffffffffffffffffffffffffffffff161415612762576040517f08c379a00000000000000000000000000000000000000000000000000000000081526004016127599061539c565b60405180910390fd5b61276b81612e4c565b50565b600f5481565b60007f80ac58cd000000000000000000000000000000000000000000000000000000007bffffffffffffffffffffffffffffffffffffffffffffffffffffffff1916827bffffffffffffffffffffffffffffffffffffffffffffffffffffffff1916148061283f57507f5b5e139f000000000000000000000000000000000000000000000000000000007bffffffffffffffffffffffffffffffffffffffffffffffffffffffff1916827bffffffffffffffffffffffffffffffffffffffffffffffffffffffff1916145b8061284f575061284e82613230565b5b9050919050565b60008073ffffffffffffffffffffffffffffffffffffffff166002600084815260200190815260200160002060009054906101000a900473ffffffffffffffffffffffffffffffffffffffff1673ffffffffffffffffffffffffffffffffffffffff1614159050919050565b600033905090565b816004600083815260200190815260200160002060006101000a81548173ffffffffffffffffffffffffffffffffffffffff021916908373ffffffffffffffffffffffffffffffffffffffff160217905550808273ffffffffffffffffffffffffffffffffffffffff1661293d836114d1565b73ffffffffffffffffffffffffffffffffffffffff167f8c5be1e5ebec7d5bd14f71427d1e84f3dd0314c0f7b2291e5b200ac8c7c3b92560405160405180910390a45050565b600061298e82612856565b6129cd576040517f08c379a00000000000000000000000000000000000000000000000000000000081526004016129c49061542e565b60405180910390fd5b60006129d8836114d1565b90508073ffffffffffffffffffffffffffffffffffffffff168473ffffffffffffffffffffffffffffffffffffffff161480612a4757508373ffffffffffffffffffffffffffffffffffffffff16612a2f84610bb9565b73ffffffffffffffffffffffffffffffffffffffff16145b80612a585750612a5781856123b5565b5b91505092915050565b8273ffffffffffffffffffffffffffffffffffffffff16612a81826114d1565b73ffffffffffffffffffffffffffffffffffffffff1614612ad7576040517f08c379a0000000000000000000000000000000000000000000000000000000008152600401612ace906154c0565b60405180910390fd5b600073ffffffffffffffffffffffffffffffffffffffff168273ffffffffffffffffffffffffffffffffffffffff161415612b47576040517f08c379a0000000000000000000000000000000000000000000000000000000008152600401612b3e90615552565b60405180910390fd5b612b5283838361329a565b612b5d6000826128ca565b6001600360008573ffffffffffffffffffffffffffffffffffffffff1673ffffffffffffffffffffffffffffffffffffffff1681526020019081526020016000206000828254612bad9190614db7565b925050819055506001600360008473ffffffffffffffffffffffffffffffffffffffff1673ffffffffffffffffffffffffffffffffffffffff1681526020019081526020016000206000828254612c049190615572565b92505081905550816002600083815260200190815260200160002060006101000a81548173ffffffffffffffffffffffffffffffffffffffff021916908373ffffffffffffffffffffffffffffffffffffffff160217905550808273ffffffffffffffffffffffffffffffffffffffff168473ffffffffffffffffffffffffffffffffffffffff167fddf252ad1be2c89b69c2b068fc378daa952ba7f163c4a11628f55a4df523b3ef60405160405180910390a4505050565b612cc56114ba565b612d04576040517f08c379a0000000000000000000000000000000000000000000000000000000008152600401612cfb90615614565b60405180910390fd5b6000600a60006101000a81548160ff0219169083151502179055507f5db9ee0a495bf2e6ff9c91a7834c1ba4fdd244a5e8aa4e537bd38aeae4b073aa612d486128c2565b604051612d559190613dc8565b60405180910390a1565b600081604051602001612d72919061567c565b604051602081830303815290604052805190602001209050919050565b6000612da283612d9d610d8d565b6133ae565b81600c6000612daf610d8d565b815260200190815260200160002060006101000a81548160ff021916908360ff1602179055508160ff166001612de3610d8d565b612ded9190614db7565b8473ffffffffffffffffffffffffffffffffffffffff167faabcc1eb354f11e651c87f835e7de6ac847d514718ed76fad480d55d2632992260405160405180910390a46001612e3a610d8d565b612e449190614db7565b905092915050565b6000600a60019054906101000a900473ffffffffffffffffffffffffffffffffffffffff16905081600a60016101000a81548173ffffffffffffffffffffffffffffffffffffffff021916908373ffffffffffffffffffffffffffffffffffffffff1602179055508173ffffffffffffffffffffffffffffffffffffffff168173ffffffffffffffffffffffffffffffffffffffff167f8be0079c531659141344cd1fd0a4f28419497f9722a3daafe3b4186f6b6457e060405160405180910390a35050565b612f1a6114ba565b15612f5a576040517f08c379a0000000000000000000000000000000000000000000000000000000008152600401612f5190614be7565b60405180910390fd5b6001600a60006101000a81548160ff0219169083151502179055507f62e78cea01bee320cd4e420270b5ea74000d11b0c9f74754ebdbfc544b05a258612f9e6128c2565b604051612fab9190613dc8565b60405180910390a1565b612fc0848484612a61565b612fcc848484846133cc565b61300b576040517f08c379a000000000000000000000000000000000000000000000000000000000815260040161300290615709565b60405180910390fd5b50505050565b6060601080546130209061472f565b80601f016020809104026020016040519081016040528092919081815260200182805461304c9061472f565b80156130995780601f1061306e57610100808354040283529160200191613099565b820191906000526020600020905b81548152906001019060200180831161307c57829003601f168201915b5050505050905090565b606060008214156130eb576040518060400160405280600181526020017f300000000000000000000000000000000000000000000000000000000000000081525090506131ff565b600082905060005b6000821461311d57808061310690614ae6565b915050600a826131169190615758565b91506130f3565b60008167ffffffffffffffff81111561313957613138613f07565b5b6040519080825280601f01601f19166020018201604052801561316b5781602001600182028036833780820191505090505b5090505b600085146131f8576001826131849190614db7565b9150600a856131939190615789565b603061319f9190615572565b60f81b8183815181106131b5576131b4614a3b565b5b60200101907effffffffffffffffffffffffffffffffffffffffffffffffffffffffffffff1916908160001a905350600a856131f19190615758565b945061316f565b8093505050505b919050565b6000818361321291906157ba565b905092915050565b600081836132289190615758565b905092915050565b60007f01ffc9a7000000000000000000000000000000000000000000000000000000007bffffffffffffffffffffffffffffffffffffffffffffffffffffffff1916827bffffffffffffffffffffffffffffffffffffffffffffffffffffffff1916149050919050565b6132a5838383613563565b600073ffffffffffffffffffffffffffffffffffffffff168373ffffffffffffffffffffffffffffffffffffffff1614156132e8576132e381613568565b613327565b8173ffffffffffffffffffffffffffffffffffffffff168373ffffffffffffffffffffffffffffffffffffffff16146133265761332583826135b1565b5b5b600073ffffffffffffffffffffffffffffffffffffffff168273ffffffffffffffffffffffffffffffffffffffff16141561336a576133658161371e565b6133a9565b8273ffffffffffffffffffffffffffffffffffffffff168273ffffffffffffffffffffffffffffffffffffffff16146133a8576133a782826137ef565b5b5b505050565b6133c882826040518060200160405280600081525061386e565b5050565b60006133ed8473ffffffffffffffffffffffffffffffffffffffff166138c9565b15613556578373ffffffffffffffffffffffffffffffffffffffff1663150b7a026134166128c2565b8786866040518563ffffffff1660e01b81526004016134389493929190615869565b602060405180830381600087803b15801561345257600080fd5b505af192505050801561348357506040513d601f19601f8201168201806040525081019061348091906158ca565b60015b613506573d80600081146134b3576040519150601f19603f3d011682016040523d82523d6000602084013e6134b8565b606091505b506000815114156134fe576040517f08c379a00000000000000000000000000000000000000000000000000000000081526004016134f590615709565b60405180910390fd5b805181602001fd5b63150b7a0260e01b7bffffffffffffffffffffffffffffffffffffffffffffffffffffffff1916817bffffffffffffffffffffffffffffffffffffffffffffffffffffffff19161491505061355b565b600190505b949350505050565b505050565b6008805490506009600083815260200190815260200160002081905550600881908060018154018082558091505060019003906000526020600020016000909190919091505550565b600060016135be84611583565b6135c89190614db7565b90506000600760008481526020019081526020016000205490508181146136ad576000600660008673ffffffffffffffffffffffffffffffffffffffff1673ffffffffffffffffffffffffffffffffffffffff168152602001908152602001600020600084815260200190815260200160002054905080600660008773ffffffffffffffffffffffffffffffffffffffff1673ffffffffffffffffffffffffffffffffffffffff168152602001908152602001600020600084815260200190815260200160002081905550816007600083815260200190815260200160002081905550505b6007600084815260200190815260200160002060009055600660008573ffffffffffffffffffffffffffffffffffffffff1673ffffffffffffffffffffffffffffffffffffffff16815260200190815260200160002060008381526020019081526020016000206000905550505050565b600060016008805490506137329190614db7565b905060006009600084815260200190815260200160002054905060006008838154811061376257613761614a3b565b5b90600052602060002001549050806008838154811061378457613783614a3b565b5b9060005260206000200181905550816009600083815260200190815260200160002081905550600960008581526020019081526020016000206000905560088054806137d3576137d26158f7565b5b6001900381819060005260206000200160009055905550505050565b60006137fa83611583565b905081600660008573ffffffffffffffffffffffffffffffffffffffff1673ffffffffffffffffffffffffffffffffffffffff168152602001908152602001600020600083815260200190815260200160002081905550806007600084815260200190815260200160002081905550505050565b61387883836138dc565b61388560008484846133cc565b6138c4576040517f08c379a00000000000000000000000000000000000000000000000000000000081526004016138bb90615709565b60405180910390fd5b505050565b600080823b905060008111915050919050565b600073ffffffffffffffffffffffffffffffffffffffff168273ffffffffffffffffffffffffffffffffffffffff16141561394c576040517f08c379a000000000000000000000000000000000000000000000000000000000815260040161394390615972565b60405180910390fd5b61395581612856565b15613995576040517f08c379a000000000000000000000000000000000000000000000000000000000815260040161398c906159de565b60405180910390fd5b6139a16000838361329a565b6001600360008473ffffffffffffffffffffffffffffffffffffffff1673ffffffffffffffffffffffffffffffffffffffff16815260200190815260200160002060008282546139f19190615572565b92505081905550816002600083815260200190815260200160002060006101000a81548173ffffffffffffffffffffffffffffffffffffffff021916908373ffffffffffffffffffffffffffffffffffffffff160217905550808273ffffffffffffffffffffffffffffffffffffffff16600073ffffffffffffffffffffffffffffffffffffffff167fddf252ad1be2c89b69c2b068fc378daa952ba7f163c4a11628f55a4df523b3ef60405160405180910390a45050565b828054828255906000526020600020908101928215613ae6579160200282015b82811115613ae5578251825591602001919060010190613aca565b5b509050613af39190613b7d565b5090565b828054613b039061472f565b90600052602060002090601f016020900481019282613b255760008555613b6c565b82601f10613b3e57805160ff1916838001178555613b6c565b82800160010185558215613b6c579182015b82811115613b6b578251825591602001919060010190613b50565b5b509050613b799190613b7d565b5090565b5b80821115613b96576000816000905550600101613b7e565b5090565b6000604051905090565b600080fd5b600080fd5b60007fffffffff0000000000000000000000000000000000000000000000000000000082169050919050565b613be381613bae565b8114613bee57600080fd5b50565b600081359050613c0081613bda565b92915050565b600060208284031215613c1c57613c1b613ba4565b5b6000613c2a84828501613bf1565b91505092915050565b60008115159050919050565b613c4881613c33565b82525050565b6000602082019050613c636000830184613c3f565b92915050565b600081519050919050565b600082825260208201905092915050565b60005b83811015613ca3578082015181840152602081019050613c88565b83811115613cb2576000848401525b50505050565b6000601f19601f8301169050919050565b6000613cd482613c69565b613cde8185613c74565b9350613cee818560208601613c85565b613cf781613cb8565b840191505092915050565b60006020820190508181036000830152613d1c8184613cc9565b905092915050565b6000819050919050565b613d3781613d24565b8114613d4257600080fd5b50565b600081359050613d5481613d2e565b92915050565b600060208284031215613d7057613d6f613ba4565b5b6000613d7e84828501613d45565b91505092915050565b600073ffffffffffffffffffffffffffffffffffffffff82169050919050565b6000613db282613d87565b9050919050565b613dc281613da7565b82525050565b6000602082019050613ddd6000830184613db9565b92915050565b613dec81613da7565b8114613df757600080fd5b50565b600081359050613e0981613de3565b92915050565b60008060408385031215613e2657613e25613ba4565b5b6000613e3485828601613dfa565b9250506020613e4585828601613d45565b9150509250929050565b613e5881613d24565b82525050565b6000602082019050613e736000830184613e4f565b92915050565b600080600060608486031215613e9257613e91613ba4565b5b6000613ea086828701613dfa565b9350506020613eb186828701613dfa565b9250506040613ec286828701613d45565b9150509250925092565b6000819050919050565b613edf81613ecc565b8114613eea57600080fd5b50565b600081359050613efc81613ed6565b92915050565b600080fd5b7f4e487b7100000000000000000000000000000000000000000000000000000000600052604160045260246000fd5b613f3f82613cb8565b810181811067ffffffffffffffff82111715613f5e57613f5d613f07565b5b80604052505050565b6000613f71613b9a565b9050613f7d8282613f36565b919050565b600067ffffffffffffffff821115613f9d57613f9c613f07565b5b602082029050602081019050919050565b600080fd5b6000613fc6613fc184613f82565b613f67565b90508083825260208201905060208402830185811115613fe957613fe8613fae565b5b835b818110156140125780613ffe8882613eed565b845260208401935050602081019050613feb565b5050509392505050565b600082601f83011261403157614030613f02565b5b8135614041848260208601613fb3565b91505092915050565b6000806040838503121561406157614060613ba4565b5b600061406f85828601613eed565b925050602083013567ffffffffffffffff8111156140905761408f613ba9565b5b61409c8582860161401c565b9150509250929050565b6000602082840312156140bc576140bb613ba4565b5b60006140ca84828501613eed565b91505092915050565b6000602082840312156140e9576140e8613ba4565b5b60006140f784828501613dfa565b91505092915050565b600081519050919050565b600082825260208201905092915050565b6000819050602082019050919050565b61413581613d24565b82525050565b6000614147838361412c565b60208301905092915050565b6000602082019050919050565b600061416b82614100565b614175818561410b565b93506141808361411c565b8060005b838110156141b1578151614198888261413b565b97506141a383614153565b925050600181019050614184565b5085935050505092915050565b600060208201905081810360008301526141d88184614160565b905092915050565b6000602082840312156141f6576141f5613ba4565b5b600082013567ffffffffffffffff81111561421457614213613ba9565b5b6142208482850161401c565b91505092915050565b600060ff82169050919050565b61423f81614229565b811461424a57600080fd5b50565b60008135905061425c81614236565b92915050565b6000806040838503121561427957614278613ba4565b5b600061428785828601613dfa565b92505060206142988582860161424d565b9150509250929050565b6142ab81614229565b82525050565b60006020820190506142c660008301846142a2565b92915050565b6142d581613c33565b81146142e057600080fd5b50565b6000813590506142f2816142cc565b92915050565b6000806040838503121561430f5761430e613ba4565b5b600061431d85828601613dfa565b925050602061432e858286016142e3565b9150509250929050565b600067ffffffffffffffff82111561435357614352613f07565b5b602082029050602081019050919050565b600061437761437284614338565b613f67565b9050808382526020820190506020840283018581111561439a57614399613fae565b5b835b818110156143c357806143af8882613d45565b84526020840193505060208101905061439c565b5050509392505050565b600082601f8301126143e2576143e1613f02565b5b81356143f2848260208601614364565b91505092915050565b60006020828403121561441157614410613ba4565b5b600082013567ffffffffffffffff81111561442f5761442e613ba9565b5b61443b848285016143cd565b91505092915050565b600080fd5b600067ffffffffffffffff82111561446457614463613f07565b5b61446d82613cb8565b9050602081019050919050565b82818337600083830152505050565b600061449c61449784614449565b613f67565b9050828152602081018484840111156144b8576144b7614444565b5b6144c384828561447a565b509392505050565b600082601f8301126144e0576144df613f02565b5b81356144f0848260208601614489565b91505092915050565b6000806000806080858703121561451357614512613ba4565b5b600061452187828801613dfa565b945050602061453287828801613dfa565b935050604061454387828801613d45565b925050606085013567ffffffffffffffff81111561456457614563613ba9565b5b614570878288016144cb565b91505092959194509250565b60006020828403121561459257614591613ba4565b5b60006145a08482850161424d565b91505092915050565b6000602082840312156145bf576145be613ba4565b5b60006145cd848285016142e3565b91505092915050565b600067ffffffffffffffff8211156145f1576145f0613f07565b5b6145fa82613cb8565b9050602081019050919050565b600061461a614615846145d6565b613f67565b90508281526020810184848401111561463657614635614444565b5b61464184828561447a565b509392505050565b600082601f83011261465e5761465d613f02565b5b813561466e848260208601614607565b91505092915050565b60006020828403121561468d5761468c613ba4565b5b600082013567ffffffffffffffff8111156146ab576146aa613ba9565b5b6146b784828501614649565b91505092915050565b600080604083850312156146d7576146d6613ba4565b5b60006146e585828601613dfa565b92505060206146f685828601613dfa565b9150509250929050565b7f4e487b7100000000000000000000000000000000000000000000000000000000600052602260045260246000fd5b6000600282049050600182168061474757607f821691505b6020821081141561475b5761475a614700565b5b50919050565b7f4552433732313a20617070726f76656420717565727920666f72206e6f6e657860008201527f697374656e7420746f6b656e0000000000000000000000000000000000000000602082015250565b60006147bd602c83613c74565b91506147c882614761565b604082019050919050565b600060208201905081810360008301526147ec816147b0565b9050919050565b7f4552433732313a20617070726f76616c20746f2063757272656e74206f776e6560008201527f7200000000000000000000000000000000000000000000000000000000000000602082015250565b600061484f602183613c74565b915061485a826147f3565b604082019050919050565b6000602082019050818103600083015261487e81614842565b9050919050565b7f4552433732313a20617070726f76652063616c6c6572206973206e6f74206f7760008201527f6e6572206e6f7220617070726f76656420666f7220616c6c0000000000000000602082015250565b60006148e1603883613c74565b91506148ec82614885565b604082019050919050565b60006020820190508181036000830152614910816148d4565b9050919050565b7f4552433732313a207472616e736665722063616c6c6572206973206e6f74206f60008201527f776e6572206e6f7220617070726f766564000000000000000000000000000000602082015250565b6000614973603183613c74565b915061497e82614917565b604082019050919050565b600060208201905081810360008301526149a281614966565b9050919050565b7f455243373231456e756d657261626c653a206f776e657220696e646578206f7560008201527f74206f6620626f756e6473000000000000000000000000000000000000000000602082015250565b6000614a05602b83613c74565b9150614a10826149a9565b604082019050919050565b60006020820190508181036000830152614a34816149f8565b9050919050565b7f4e487b7100000000000000000000000000000000000000000000000000000000600052603260045260246000fd5b6000819050919050565b614a85614a8082613ecc565b614a6a565b82525050565b6000614a978285614a74565b602082019150614aa78284614a74565b6020820191508190509392505050565b7f4e487b7100000000000000000000000000000000000000000000000000000000600052601160045260246000fd5b6000614af182613d24565b91507fffffffffffffffffffffffffffffffffffffffffffffffffffffffffffffffff821415614b2457614b23614ab7565b5b600182019050919050565b7f4f776e61626c653a2063616c6c6572206973206e6f7420746865206f776e6572600082015250565b6000614b65602083613c74565b9150614b7082614b2f565b602082019050919050565b60006020820190508181036000830152614b9481614b58565b9050919050565b7f5061757361626c653a2070617573656400000000000000000000000000000000600082015250565b6000614bd1601083613c74565b9150614bdc82614b9b565b602082019050919050565b60006020820190508181036000830152614c0081614bc4565b9050919050565b7f5265656e7472616e637947756172643a207265656e7472616e742063616c6c00600082015250565b6000614c3d601f83613c74565b9150614c4882614c07565b602082019050919050565b60006020820190508181036000830152614c6c81614c30565b9050919050565b7f57686974656c697374206973206e6f7420616374697665000000000000000000600082015250565b6000614ca9601783613c74565b9150614cb482614c73565b602082019050919050565b60006020820190508181036000830152614cd881614c9c565b9050919050565b7f4e6f7420656e6f7567687420424e420000000000000000000000000000000000600082015250565b6000614d15600f83613c74565b9150614d2082614cdf565b602082019050919050565b60006020820190508181036000830152614d4481614d08565b9050919050565b7f4e6f742077686974656c69737465640000000000000000000000000000000000600082015250565b6000614d81600f83613c74565b9150614d8c82614d4b565b602082019050919050565b60006020820190508181036000830152614db081614d74565b9050919050565b6000614dc282613d24565b9150614dcd83613d24565b925082821015614de057614ddf614ab7565b5b828203905092915050565b7f455243373231456e756d657261626c653a20676c6f62616c20696e646578206f60008201527f7574206f6620626f756e64730000000000000000000000000000000000000000602082015250565b6000614e47602c83613c74565b9150614e5282614deb565b604082019050919050565b60006020820190508181036000830152614e7681614e3a565b9050919050565b7f4552433732313a206f776e657220717565727920666f72206e6f6e657869737460008201527f656e7420746f6b656e0000000000000000000000000000000000000000000000602082015250565b6000614ed9602983613c74565b9150614ee482614e7d565b604082019050919050565b60006020820190508181036000830152614f0881614ecc565b9050919050565b7f4552433732313a2062616c616e636520717565727920666f7220746865207a6560008201527f726f206164647265737300000000000000000000000000000000000000000000602082015250565b6000614f6b602a83613c74565b9150614f7682614f0f565b604082019050919050565b60006020820190508181036000830152614f9a81614f5e565b9050919050565b7f546f6b656e20646f6573206e6f74206578697374000000000000000000000000600082015250565b6000614fd7601483613c74565b9150614fe282614fa1565b602082019050919050565b6000602082019050818103600083015261500681614fca565b9050919050565b7f4552433732313a20617070726f766520746f2063616c6c657200000000000000600082015250565b6000615043601983613c74565b915061504e8261500d565b602082019050919050565b6000602082019050818103600083015261507281615036565b9050919050565b600081905092915050565b600061508f82613c69565b6150998185615079565b93506150a9818560208601613c85565b80840191505092915050565b60006150c18285615084565b91506150cd8284615084565b91508190509392505050565b7f57686974656c6973742069732061637469766500000000000000000000000000600082015250565b600061510f601383613c74565b915061511a826150d9565b602082019050919050565b6000602082019050818103600083015261513e81615102565b9050919050565b7f53616c657320696e20424e4220617265206e6f74207065726d69747465640000600082015250565b600061517b601e83613c74565b915061518682615145565b602082019050919050565b600060208201905081810360008301526151aa8161516e565b9050919050565b60006040820190506151c66000830185613db9565b6151d36020830184613db9565b9392505050565b6000815190506151e981613d2e565b92915050565b60006020828403121561520557615204613ba4565b5b6000615213848285016151da565b91505092915050565b7f4e6f7420656e6f7567687420616c6c6f77616e63650000000000000000000000600082015250565b6000615252601583613c74565b915061525d8261521c565b602082019050919050565b6000602082019050818103600083015261528181615245565b9050919050565b600060608201905061529d6000830186613db9565b6152aa6020830185613db9565b6152b76040830184613e4f565b949350505050565b6000815190506152ce816142cc565b92915050565b6000602082840312156152ea576152e9613ba4565b5b60006152f8848285016152bf565b91505092915050565b60006040820190506153166000830185613db9565b6153236020830184613e4f565b9392505050565b7f4f776e61626c653a206e6577206f776e657220697320746865207a65726f206160008201527f6464726573730000000000000000000000000000000000000000000000000000602082015250565b6000615386602683613c74565b91506153918261532a565b604082019050919050565b600060208201905081810360008301526153b581615379565b9050919050565b7f4552433732313a206f70657261746f7220717565727920666f72206e6f6e657860008201527f697374656e7420746f6b656e0000000000000000000000000000000000000000602082015250565b6000615418602c83613c74565b9150615423826153bc565b604082019050919050565b600060208201905081810360008301526154478161540b565b9050919050565b7f4552433732313a207472616e73666572206f6620746f6b656e2074686174206960008201527f73206e6f74206f776e0000000000000000000000000000000000000000000000602082015250565b60006154aa602983613c74565b91506154b58261544e565b604082019050919050565b600060208201905081810360008301526154d98161549d565b9050919050565b7f4552433732313a207472616e7366657220746f20746865207a65726f2061646460008201527f7265737300000000000000000000000000000000000000000000000000000000602082015250565b600061553c602483613c74565b9150615547826154e0565b604082019050919050565b6000602082019050818103600083015261556b8161552f565b9050919050565b600061557d82613d24565b915061558883613d24565b9250827fffffffffffffffffffffffffffffffffffffffffffffffffffffffffffffffff038211156155bd576155bc614ab7565b5b828201905092915050565b7f5061757361626c653a206e6f7420706175736564000000000000000000000000600082015250565b60006155fe601483613c74565b9150615609826155c8565b602082019050919050565b6000602082019050818103600083015261562d816155f1565b9050919050565b60008160601b9050919050565b600061564c82615634565b9050919050565b600061565e82615641565b9050919050565b61567661567182613da7565b615653565b82525050565b60006156888284615665565b60148201915081905092915050565b7f4552433732313a207472616e7366657220746f206e6f6e20455243373231526560008201527f63656976657220696d706c656d656e7465720000000000000000000000000000602082015250565b60006156f3603283613c74565b91506156fe82615697565b604082019050919050565b60006020820190508181036000830152615722816156e6565b9050919050565b7f4e487b7100000000000000000000000000000000000000000000000000000000600052601260045260246000fd5b600061576382613d24565b915061576e83613d24565b92508261577e5761577d615729565b5b828204905092915050565b600061579482613d24565b915061579f83613d24565b9250826157af576157ae615729565b5b828206905092915050565b60006157c582613d24565b91506157d083613d24565b9250817fffffffffffffffffffffffffffffffffffffffffffffffffffffffffffffffff048311821515161561580957615808614ab7565b5b828202905092915050565b600081519050919050565b600082825260208201905092915050565b600061583b82615814565b615845818561581f565b9350615855818560208601613c85565b61585e81613cb8565b840191505092915050565b600060808201905061587e6000830187613db9565b61588b6020830186613db9565b6158986040830185613e4f565b81810360608301526158aa8184615830565b905095945050505050565b6000815190506158c481613bda565b92915050565b6000602082840312156158e0576158df613ba4565b5b60006158ee848285016158b5565b91505092915050565b7f4e487b7100000000000000000000000000000000000000000000000000000000600052603160045260246000fd5b7f4552433732313a206d696e7420746f20746865207a65726f2061646472657373600082015250565b600061595c602083613c74565b915061596782615926565b602082019050919050565b6000602082019050818103600083015261598b8161594f565b9050919050565b7f4552433732313a20746f6b656e20616c7265616479206d696e74656400000000600082015250565b60006159c8601c83613c74565b91506159d382615992565b602082019050919050565b600060208201905081810360008301526159f7816159bb565b905091905056fea2646970667358221220d8071325517a9cb00e60fdf9d10245078f39a82157b5b7978fa180b7401cf47064736f6c63430008090033687474703a2f2f6c6f63616c686f73743a383038302f6170692f6d6574616474612f",
  "linkReferences": {},
  "deployedLinkReferences": {}
}