{
  "_format": "hh-sol-artifact-1",
  "contractName": "Burger",
  "sourceName": "contracts/Burger.sol",
  "abi": [
    {
      "inputs": [],
      "stateMutability": "nonpayable",
      "type": "constructor"
    },
    {
      "anonymous": false,
      "inputs": [
        {
          "indexed": true,
          "internalType": "address",
          "name": "owner",
          "type": "address"
        },
        {
          "indexed": true,
          "internalType": "address",
          "name": "approved",
          "type": "address"
        },
        {
          "indexed": true,
          "internalType": "uint256",
          "name": "tokenId",
          "type": "uint256"
        }
      ],
      "name": "Approval",
      "type": "event"
    },
    {
      "anonymous": false,
      "inputs": [
        {
          "indexed": true,
          "internalType": "address",
          "name": "owner",
          "type": "address"
        },
        {
          "indexed": true,
          "internalType": "address",
          "name": "operator",
          "type": "address"
        },
        {
          "indexed": false,
          "internalType": "bool",
          "name": "approved",
          "type": "bool"
        }
      ],
      "name": "ApprovalForAll",
      "type": "event"
    },
    {
      "anonymous": false,
      "inputs": [
        {
          "indexed": true,
          "internalType": "address",
          "name": "_to",
          "type": "address"
        },
        {
          "indexed": false,
          "internalType": "string",
          "name": "tokenURI",
          "type": "string"
        },
        {
          "indexed": false,
          "internalType": "uint256",
          "name": "id",
          "type": "uint256"
        }
      ],
      "name": "NFTMintEvent",
      "type": "event"
    },
    {
      "anonymous": false,
      "inputs": [
        {
          "indexed": true,
          "internalType": "address",
          "name": "previousOwner",
          "type": "address"
        },
        {
          "indexed": true,
          "internalType": "address",
          "name": "newOwner",
          "type": "address"
        }
      ],
      "name": "OwnershipTransferred",
      "type": "event"
    },
    {
      "anonymous": false,
      "inputs": [
        {
          "indexed": true,
          "internalType": "address",
          "name": "from",
          "type": "address"
        },
        {
          "indexed": true,
          "internalType": "address",
          "name": "to",
          "type": "address"
        },
        {
          "indexed": true,
          "internalType": "uint256",
          "name": "tokenId",
          "type": "uint256"
        }
      ],
      "name": "Transfer",
      "type": "event"
    },
    {
      "inputs": [
        {
          "internalType": "bytes32",
          "name": "messageHash",
          "type": "bytes32"
        },
        {
          "internalType": "bytes",
          "name": "signature",
          "type": "bytes"
        }
      ],
      "name": "_verify",
      "outputs": [
        {
          "internalType": "bool",
          "name": "",
          "type": "bool"
        }
      ],
      "stateMutability": "view",
      "type": "function"
    },
    {
      "inputs": [
        {
          "internalType": "address",
          "name": "to",
          "type": "address"
        },
        {
          "internalType": "uint256",
          "name": "tokenId",
          "type": "uint256"
        }
      ],
      "name": "approve",
      "outputs": [],
      "stateMutability": "nonpayable",
      "type": "function"
    },
    {
      "inputs": [
        {
          "internalType": "address",
          "name": "owner",
          "type": "address"
        }
      ],
      "name": "balanceOf",
      "outputs": [
        {
          "internalType": "uint256",
          "name": "",
          "type": "uint256"
        }
      ],
      "stateMutability": "view",
      "type": "function"
    },
    {
      "inputs": [
        {
          "internalType": "uint256",
          "name": "tokenId",
          "type": "uint256"
        }
      ],
      "name": "getApproved",
      "outputs": [
        {
          "internalType": "address",
          "name": "",
          "type": "address"
        }
      ],
      "stateMutability": "view",
      "type": "function"
    },
    {
      "inputs": [],
      "name": "getVerfiedAddress",
      "outputs": [
        {
          "internalType": "address",
          "name": "",
          "type": "address"
        }
      ],
      "stateMutability": "view",
      "type": "function"
    },
    {
      "inputs": [
        {
          "internalType": "address",
          "name": "owner",
          "type": "address"
        },
        {
          "internalType": "address",
          "name": "operator",
          "type": "address"
        }
      ],
      "name": "isApprovedForAll",
      "outputs": [
        {
          "internalType": "bool",
          "name": "",
          "type": "bool"
        }
      ],
      "stateMutability": "view",
      "type": "function"
    },
    {
      "inputs": [
        {
          "internalType": "address",
          "name": "_to",
          "type": "address"
        },
        {
          "internalType": "string",
          "name": "tokenUri",
          "type": "string"
        },
        {
          "internalType": "bytes32",
          "name": "tokenUriHash",
          "type": "bytes32"
        },
        {
          "internalType": "bytes",
          "name": "signature",
          "type": "bytes"
        }
      ],
      "name": "mint",
      "outputs": [
        {
          "internalType": "uint256",
          "name": "",
          "type": "uint256"
        }
      ],
      "stateMutability": "payable",
      "type": "function"
    },
    {
      "inputs": [
        {
          "internalType": "address",
          "name": "recipient",
          "type": "address"
        },
        {
          "internalType": "string",
          "name": "tokenURI",
          "type": "string"
        }
      ],
      "name": "mintNFT",
      "outputs": [
        {
          "internalType": "uint256",
          "name": "",
          "type": "uint256"
        }
      ],
      "stateMutability": "payable",
      "type": "function"
    },
    {
      "inputs": [],
      "name": "name",
      "outputs": [
        {
          "internalType": "string",
          "name": "",
          "type": "string"
        }
      ],
      "stateMutability": "view",
      "type": "function"
    },
    {
      "inputs": [],
      "name": "owner",
      "outputs": [
        {
          "internalType": "address",
          "name": "",
          "type": "address"
        }
      ],
      "stateMutability": "view",
      "type": "function"
    },
    {
      "inputs": [
        {
          "internalType": "uint256",
          "name": "tokenId",
          "type": "uint256"
        }
      ],
      "name": "ownerOf",
      "outputs": [
        {
          "internalType": "address",
          "name": "",
          "type": "address"
        }
      ],
      "stateMutability": "view",
      "type": "function"
    },
    {
      "inputs": [],
      "name": "renounceOwnership",
      "outputs": [],
      "stateMutability": "nonpayable",
      "type": "function"
    },
    {
      "inputs": [
        {
          "internalType": "address",
          "name": "from",
          "type": "address"
        },
        {
          "internalType": "address",
          "name": "to",
          "type": "address"
        },
        {
          "internalType": "uint256",
          "name": "tokenId",
          "type": "uint256"
        }
      ],
      "name": "safeTransferFrom",
      "outputs": [],
      "stateMutability": "nonpayable",
      "type": "function"
    },
    {
      "inputs": [
        {
          "internalType": "address",
          "name": "from",
          "type": "address"
        },
        {
          "internalType": "address",
          "name": "to",
          "type": "address"
        },
        {
          "internalType": "uint256",
          "name": "tokenId",
          "type": "uint256"
        },
        {
          "internalType": "bytes",
          "name": "_data",
          "type": "bytes"
        }
      ],
      "name": "safeTransferFrom",
      "outputs": [],
      "stateMutability": "nonpayable",
      "type": "function"
    },
    {
      "inputs": [
        {
          "internalType": "address",
          "name": "operator",
          "type": "address"
        },
        {
          "internalType": "bool",
          "name": "approved",
          "type": "bool"
        }
      ],
      "name": "setApprovalForAll",
      "outputs": [],
      "stateMutability": "nonpayable",
      "type": "function"
    },
    {
      "inputs": [
        {
          "internalType": "address",
          "name": "_verifiedAddress",
          "type": "address"
        }
      ],
      "name": "setVerifiedAddress",
      "outputs": [],
      "stateMutability": "nonpayable",
      "type": "function"
    },
    {
      "inputs": [
        {
          "internalType": "bytes4",
          "name": "interfaceId",
          "type": "bytes4"
        }
      ],
      "name": "supportsInterface",
      "outputs": [
        {
          "internalType": "bool",
          "name": "",
          "type": "bool"
        }
      ],
      "stateMutability": "view",
      "type": "function"
    },
    {
      "inputs": [],
      "name": "symbol",
      "outputs": [
        {
          "internalType": "string",
          "name": "",
          "type": "string"
        }
      ],
      "stateMutability": "view",
      "type": "function"
    },
    {
      "inputs": [
        {
          "internalType": "uint256",
          "name": "tokenId",
          "type": "uint256"
        }
      ],
      "name": "tokenURI",
      "outputs": [
        {
          "internalType": "string",
          "name": "",
          "type": "string"
        }
      ],
      "stateMutability": "view",
      "type": "function"
    },
    {
      "inputs": [
        {
          "internalType": "address",
          "name": "from",
          "type": "address"
        },
        {
          "internalType": "address",
          "name": "to",
          "type": "address"
        },
        {
          "internalType": "uint256",
          "name": "tokenId",
          "type": "uint256"
        }
      ],
      "name": "transferFrom",
      "outputs": [],
      "stateMutability": "nonpayable",
      "type": "function"
    },
    {
      "inputs": [
        {
          "internalType": "address",
          "name": "newOwner",
          "type": "address"
        }
      ],
      "name": "transferOwnership",
      "outputs": [],
      "stateMutability": "nonpayable",
      "type": "function"
    }
  ],
  "bytecode": "0x608060405264e8d4a5100060085573c09eac15f9ba6462e8e4612af7c431e1cfe08b87600a60006101000a81548173ffffffffffffffffffffffffffffffffffffffff021916908373ffffffffffffffffffffffffffffffffffffffff1602179055503480156200006f57600080fd5b506040518060400160405280600681526020017f42757267657200000000000000000000000000000000000000000000000000008152506040518060400160405280600681526020017f42555247455200000000000000000000000000000000000000000000000000008152508160009080519060200190620000f492919062000204565b5080600190805190602001906200010d92919062000204565b50505062000130620001246200013660201b60201c565b6200013e60201b60201c565b62000319565b600033905090565b6000600760009054906101000a900473ffffffffffffffffffffffffffffffffffffffff16905081600760006101000a81548173ffffffffffffffffffffffffffffffffffffffff021916908373ffffffffffffffffffffffffffffffffffffffff1602179055508173ffffffffffffffffffffffffffffffffffffffff168173ffffffffffffffffffffffffffffffffffffffff167f8be0079c531659141344cd1fd0a4f28419497f9722a3daafe3b4186f6b6457e060405160405180910390a35050565b8280546200021290620002b4565b90600052602060002090601f01602090048101928262000236576000855562000282565b82601f106200025157805160ff191683800117855562000282565b8280016001018555821562000282579182015b828111156200028157825182559160200191906001019062000264565b5b50905062000291919062000295565b5090565b5b80821115620002b057600081600090555060010162000296565b5090565b60006002820490506001821680620002cd57607f821691505b60208210811415620002e457620002e3620002ea565b5b50919050565b7f4e487b7100000000000000000000000000000000000000000000000000000000600052602260045260246000fd5b613d2580620003296000396000f3fe60806040526004361061012a5760003560e01c8063715018a6116100ab578063c87b56dd1161006f578063c87b56dd146103dc578063cfa8ba4f14610419578063e985e9c514610456578063eacabe1414610493578063f2fde38b146104c3578063f693ffaf146104ec5761012a565b8063715018a61461031d5780638da5cb5b1461033457806395d89b411461035f578063a22cb4651461038a578063b88d4fde146103b35761012a565b80633e4356d7116100f25780633e4356d71461022657806342842e0e146102515780634f66cbcd1461027a5780636352211e146102a357806370a08231146102e05761012a565b806301ffc9a71461012f57806306fdde031461016c578063081812fc14610197578063095ea7b3146101d457806323b872dd146101fd575b600080fd5b34801561013b57600080fd5b506101566004803603810190610151919061293f565b61051c565b6040516101639190612e7b565b60405180910390f35b34801561017857600080fd5b506101816105fe565b60405161018e9190612edb565b60405180910390f35b3480156101a357600080fd5b506101be60048036038101906101b99190612991565b610690565b6040516101cb9190612e14565b60405180910390f35b3480156101e057600080fd5b506101fb60048036038101906101f691906128af565b610715565b005b34801561020957600080fd5b50610224600480360381019061021f91906126c2565b61082d565b005b34801561023257600080fd5b5061023b61088d565b6040516102489190612e14565b60405180910390f35b34801561025d57600080fd5b50610278600480360381019061027391906126c2565b6108b7565b005b34801561028657600080fd5b506102a1600480360381019061029c919061265d565b6108d7565b005b3480156102af57600080fd5b506102ca60048036038101906102c59190612991565b610997565b6040516102d79190612e14565b60405180910390f35b3480156102ec57600080fd5b506103076004803603810190610302919061265d565b610a49565b604051610314919061322d565b60405180910390f35b34801561032957600080fd5b50610332610b01565b005b34801561034057600080fd5b50610349610b89565b6040516103569190612e14565b60405180910390f35b34801561036b57600080fd5b50610374610bb3565b6040516103819190612edb565b60405180910390f35b34801561039657600080fd5b506103b160048036038101906103ac919061278c565b610c45565b005b3480156103bf57600080fd5b506103da60048036038101906103d59190612711565b610dc6565b005b3480156103e857600080fd5b5061040360048036038101906103fe9190612991565b610e28565b6040516104109190612edb565b60405180910390f35b34801561042557600080fd5b50610440600480360381019061043b91906128eb565b610f7a565b60405161044d9190612e7b565b60405180910390f35b34801561046257600080fd5b5061047d60048036038101906104789190612686565b610fe7565b60405161048a9190612e7b565b60405180910390f35b6104ad60048036038101906104a891906127c8565b61107b565b6040516104ba919061322d565b60405180910390f35b3480156104cf57600080fd5b506104ea60048036038101906104e5919061265d565b611148565b005b6105066004803603810190610501919061281c565b611240565b604051610513919061322d565b60405180910390f35b60007f80ac58cd000000000000000000000000000000000000000000000000000000007bffffffffffffffffffffffffffffffffffffffffffffffffffffffff1916827bffffffffffffffffffffffffffffffffffffffffffffffffffffffff191614806105e757507f5b5e139f000000000000000000000000000000000000000000000000000000007bffffffffffffffffffffffffffffffffffffffffffffffffffffffff1916827bffffffffffffffffffffffffffffffffffffffffffffffffffffffff1916145b806105f757506105f6826112a3565b5b9050919050565b60606000805461060d9061349a565b80601f01602080910402602001604051908101604052809291908181526020018280546106399061349a565b80156106865780601f1061065b57610100808354040283529160200191610686565b820191906000526020600020905b81548152906001019060200180831161066957829003601f168201915b5050505050905090565b600061069b8261130d565b6106da576040517f08c379a00000000000000000000000000000000000000000000000000000000081526004016106d19061312d565b60405180910390fd5b6004600083815260200190815260200160002060009054906101000a900473ffffffffffffffffffffffffffffffffffffffff169050919050565b600061072082610997565b90508073ffffffffffffffffffffffffffffffffffffffff168373ffffffffffffffffffffffffffffffffffffffff161415610791576040517f08c379a0000000000000000000000000000000000000000000000000000000008152600401610788906131ad565b60405180910390fd5b8073ffffffffffffffffffffffffffffffffffffffff166107b0611379565b73ffffffffffffffffffffffffffffffffffffffff1614806107df57506107de816107d9611379565b610fe7565b5b61081e576040517f08c379a00000000000000000000000000000000000000000000000000000000081526004016108159061304d565b60405180910390fd5b6108288383611381565b505050565b61083e610838611379565b8261143a565b61087d576040517f08c379a0000000000000000000000000000000000000000000000000000000008152600401610874906131cd565b60405180910390fd5b610888838383611518565b505050565b6000600a60009054906101000a900473ffffffffffffffffffffffffffffffffffffffff16905090565b6108d283838360405180602001604052806000815250610dc6565b505050565b6108df611379565b73ffffffffffffffffffffffffffffffffffffffff166108fd610b89565b73ffffffffffffffffffffffffffffffffffffffff1614610953576040517f08c379a000000000000000000000000000000000000000000000000000000000815260040161094a9061314d565b60405180910390fd5b80600a60006101000a81548173ffffffffffffffffffffffffffffffffffffffff021916908373ffffffffffffffffffffffffffffffffffffffff16021790555050565b6000806002600084815260200190815260200160002060009054906101000a900473ffffffffffffffffffffffffffffffffffffffff169050600073ffffffffffffffffffffffffffffffffffffffff168173ffffffffffffffffffffffffffffffffffffffff161415610a40576040517f08c379a0000000000000000000000000000000000000000000000000000000008152600401610a379061308d565b60405180910390fd5b80915050919050565b60008073ffffffffffffffffffffffffffffffffffffffff168273ffffffffffffffffffffffffffffffffffffffff161415610aba576040517f08c379a0000000000000000000000000000000000000000000000000000000008152600401610ab19061306d565b60405180910390fd5b600360008373ffffffffffffffffffffffffffffffffffffffff1673ffffffffffffffffffffffffffffffffffffffff168152602001908152602001600020549050919050565b610b09611379565b73ffffffffffffffffffffffffffffffffffffffff16610b27610b89565b73ffffffffffffffffffffffffffffffffffffffff1614610b7d576040517f08c379a0000000000000000000000000000000000000000000000000000000008152600401610b749061314d565b60405180910390fd5b610b876000611774565b565b6000600760009054906101000a900473ffffffffffffffffffffffffffffffffffffffff16905090565b606060018054610bc29061349a565b80601f0160208091040260200160405190810160405280929190818152602001828054610bee9061349a565b8015610c3b5780601f10610c1057610100808354040283529160200191610c3b565b820191906000526020600020905b815481529060010190602001808311610c1e57829003601f168201915b5050505050905090565b610c4d611379565b73ffffffffffffffffffffffffffffffffffffffff168273ffffffffffffffffffffffffffffffffffffffff161415610cbb576040517f08c379a0000000000000000000000000000000000000000000000000000000008152600401610cb290612fed565b60405180910390fd5b8060056000610cc8611379565b73ffffffffffffffffffffffffffffffffffffffff1673ffffffffffffffffffffffffffffffffffffffff16815260200190815260200160002060008473ffffffffffffffffffffffffffffffffffffffff1673ffffffffffffffffffffffffffffffffffffffff16815260200190815260200160002060006101000a81548160ff0219169083151502179055508173ffffffffffffffffffffffffffffffffffffffff16610d75611379565b73ffffffffffffffffffffffffffffffffffffffff167f17307eab39ab6107e8899845ad3d59bd9653f200f220920489ca2b5937696c3183604051610dba9190612e7b565b60405180910390a35050565b610dd7610dd1611379565b8361143a565b610e16576040517f08c379a0000000000000000000000000000000000000000000000000000000008152600401610e0d906131cd565b60405180910390fd5b610e228484848461183a565b50505050565b6060610e338261130d565b610e72576040517f08c379a0000000000000000000000000000000000000000000000000000000008152600401610e699061310d565b60405180910390fd5b6000600660008481526020019081526020016000208054610e929061349a565b80601f0160208091040260200160405190810160405280929190818152602001828054610ebe9061349a565b8015610f0b5780601f10610ee057610100808354040283529160200191610f0b565b820191906000526020600020905b815481529060010190602001808311610eee57829003601f168201915b505050505090506000610f1c611896565b9050600081511415610f32578192505050610f75565b600082511115610f67578082604051602001610f4f929190612df0565b60405160208183030381529060405292505050610f75565b610f70846118ad565b925050505b919050565b6000600a60009054906101000a900473ffffffffffffffffffffffffffffffffffffffff1673ffffffffffffffffffffffffffffffffffffffff16610fc8838561195490919063ffffffff16565b73ffffffffffffffffffffffffffffffffffffffff1614905092915050565b6000600560008473ffffffffffffffffffffffffffffffffffffffff1673ffffffffffffffffffffffffffffffffffffffff16815260200190815260200160002060008373ffffffffffffffffffffffffffffffffffffffff1673ffffffffffffffffffffffffffffffffffffffff16815260200190815260200160002060009054906101000a900460ff16905092915050565b60006008543410156110c2576040517f08c379a00000000000000000000000000000000000000000000000000000000081526004016110b9906131ed565b60405180910390fd5b6110cc600961197b565b60006110d86009611991565b90506110e4848261199f565b6110ee8184611b6d565b3373ffffffffffffffffffffffffffffffffffffffff167f381522718816817f694da06ead37444f6a1ad8252bd7d029101cafc183a65ff68483604051611136929190612efd565b60405180910390a28091505092915050565b611150611379565b73ffffffffffffffffffffffffffffffffffffffff1661116e610b89565b73ffffffffffffffffffffffffffffffffffffffff16146111c4576040517f08c379a00000000000000000000000000000000000000000000000000000000081526004016111bb9061314d565b60405180910390fd5b600073ffffffffffffffffffffffffffffffffffffffff168173ffffffffffffffffffffffffffffffffffffffff161415611234576040517f08c379a000000000000000000000000000000000000000000000000000000000815260040161122b90612f8d565b60405180910390fd5b61123d81611774565b50565b6000828261124e8282610f7a565b61128d576040517f08c379a00000000000000000000000000000000000000000000000000000000081526004016112849061320d565b60405180910390fd5b611297878761107b565b92505050949350505050565b60007f01ffc9a7000000000000000000000000000000000000000000000000000000007bffffffffffffffffffffffffffffffffffffffffffffffffffffffff1916827bffffffffffffffffffffffffffffffffffffffffffffffffffffffff1916149050919050565b60008073ffffffffffffffffffffffffffffffffffffffff166002600084815260200190815260200160002060009054906101000a900473ffffffffffffffffffffffffffffffffffffffff1673ffffffffffffffffffffffffffffffffffffffff1614159050919050565b600033905090565b816004600083815260200190815260200160002060006101000a81548173ffffffffffffffffffffffffffffffffffffffff021916908373ffffffffffffffffffffffffffffffffffffffff160217905550808273ffffffffffffffffffffffffffffffffffffffff166113f483610997565b73ffffffffffffffffffffffffffffffffffffffff167f8c5be1e5ebec7d5bd14f71427d1e84f3dd0314c0f7b2291e5b200ac8c7c3b92560405160405180910390a45050565b60006114458261130d565b611484576040517f08c379a000000000000000000000000000000000000000000000000000000000815260040161147b9061302d565b60405180910390fd5b600061148f83610997565b90508073ffffffffffffffffffffffffffffffffffffffff168473ffffffffffffffffffffffffffffffffffffffff1614806114fe57508373ffffffffffffffffffffffffffffffffffffffff166114e684610690565b73ffffffffffffffffffffffffffffffffffffffff16145b8061150f575061150e8185610fe7565b5b91505092915050565b8273ffffffffffffffffffffffffffffffffffffffff1661153882610997565b73ffffffffffffffffffffffffffffffffffffffff161461158e576040517f08c379a00000000000000000000000000000000000000000000000000000000081526004016115859061316d565b60405180910390fd5b600073ffffffffffffffffffffffffffffffffffffffff168273ffffffffffffffffffffffffffffffffffffffff1614156115fe576040517f08c379a00000000000000000000000000000000000000000000000000000000081526004016115f590612fcd565b60405180910390fd5b611609838383611be1565b611614600082611381565b6001600360008573ffffffffffffffffffffffffffffffffffffffff1673ffffffffffffffffffffffffffffffffffffffff16815260200190815260200160002060008282546116649190613399565b925050819055506001600360008473ffffffffffffffffffffffffffffffffffffffff1673ffffffffffffffffffffffffffffffffffffffff16815260200190815260200160002060008282546116bb9190613312565b92505081905550816002600083815260200190815260200160002060006101000a81548173ffffffffffffffffffffffffffffffffffffffff021916908373ffffffffffffffffffffffffffffffffffffffff160217905550808273ffffffffffffffffffffffffffffffffffffffff168473ffffffffffffffffffffffffffffffffffffffff167fddf252ad1be2c89b69c2b068fc378daa952ba7f163c4a11628f55a4df523b3ef60405160405180910390a4505050565b6000600760009054906101000a900473ffffffffffffffffffffffffffffffffffffffff16905081600760006101000a81548173ffffffffffffffffffffffffffffffffffffffff021916908373ffffffffffffffffffffffffffffffffffffffff1602179055508173ffffffffffffffffffffffffffffffffffffffff168173ffffffffffffffffffffffffffffffffffffffff167f8be0079c531659141344cd1fd0a4f28419497f9722a3daafe3b4186f6b6457e060405160405180910390a35050565b611845848484611518565b61185184848484611be6565b611890576040517f08c379a000000000000000000000000000000000000000000000000000000000815260040161188790612f6d565b60405180910390fd5b50505050565b606060405180602001604052806000815250905090565b60606118b88261130d565b6118f7576040517f08c379a00000000000000000000000000000000000000000000000000000000081526004016118ee9061318d565b60405180910390fd5b6000611901611896565b90506000815111611921576040518060200160405280600081525061194c565b8061192b84611d7d565b60405160200161193c929190612df0565b6040516020818303038152906040525b915050919050565b60008060006119638585611f2a565b9150915061197081611fad565b819250505092915050565b6001816000016000828254019250508190555050565b600081600001549050919050565b600073ffffffffffffffffffffffffffffffffffffffff168273ffffffffffffffffffffffffffffffffffffffff161415611a0f576040517f08c379a0000000000000000000000000000000000000000000000000000000008152600401611a06906130ed565b60405180910390fd5b611a188161130d565b15611a58576040517f08c379a0000000000000000000000000000000000000000000000000000000008152600401611a4f90612fad565b60405180910390fd5b611a6460008383611be1565b6001600360008473ffffffffffffffffffffffffffffffffffffffff1673ffffffffffffffffffffffffffffffffffffffff1681526020019081526020016000206000828254611ab49190613312565b92505081905550816002600083815260200190815260200160002060006101000a81548173ffffffffffffffffffffffffffffffffffffffff021916908373ffffffffffffffffffffffffffffffffffffffff160217905550808273ffffffffffffffffffffffffffffffffffffffff16600073ffffffffffffffffffffffffffffffffffffffff167fddf252ad1be2c89b69c2b068fc378daa952ba7f163c4a11628f55a4df523b3ef60405160405180910390a45050565b611b768261130d565b611bb5576040517f08c379a0000000000000000000000000000000000000000000000000000000008152600401611bac906130ad565b60405180910390fd5b80600660008481526020019081526020016000209080519060200190611bdc92919061246c565b505050565b505050565b6000611c078473ffffffffffffffffffffffffffffffffffffffff166122fe565b15611d70578373ffffffffffffffffffffffffffffffffffffffff1663150b7a02611c30611379565b8786866040518563ffffffff1660e01b8152600401611c529493929190612e2f565b602060405180830381600087803b158015611c6c57600080fd5b505af1925050508015611c9d57506040513d601f19601f82011682018060405250810190611c9a9190612968565b60015b611d20573d8060008114611ccd576040519150601f19603f3d011682016040523d82523d6000602084013e611cd2565b606091505b50600081511415611d18576040517f08c379a0000000000000000000000000000000000000000000000000000000008152600401611d0f90612f6d565b60405180910390fd5b805181602001fd5b63150b7a0260e01b7bffffffffffffffffffffffffffffffffffffffffffffffffffffffff1916817bffffffffffffffffffffffffffffffffffffffffffffffffffffffff191614915050611d75565b600190505b949350505050565b60606000821415611dc5576040518060400160405280600181526020017f30000000000000000000000000000000000000000000000000000000000000008152509050611f25565b600082905060005b60008214611df7578080611de0906134fd565b915050600a82611df09190613368565b9150611dcd565b60008167ffffffffffffffff811115611e39577f4e487b7100000000000000000000000000000000000000000000000000000000600052604160045260246000fd5b6040519080825280601f01601f191660200182016040528015611e6b5781602001600182028036833780820191505090505b5090505b60008514611f1e57600182611e849190613399565b9150600a85611e939190613546565b6030611e9f9190613312565b60f81b818381518110611edb577f4e487b7100000000000000000000000000000000000000000000000000000000600052603260045260246000fd5b60200101907effffffffffffffffffffffffffffffffffffffffffffffffffffffffffffff1916908160001a905350600a85611f179190613368565b9450611e6f565b8093505050505b919050565b600080604183511415611f6c5760008060006020860151925060408601519150606086015160001a9050611f6087828585612311565b94509450505050611fa6565b604083511415611f9d576000806020850151915060408501519050611f9286838361241e565b935093505050611fa6565b60006002915091505b9250929050565b60006004811115611fe7577f4e487b7100000000000000000000000000000000000000000000000000000000600052602160045260246000fd5b816004811115612020577f4e487b7100000000000000000000000000000000000000000000000000000000600052602160045260246000fd5b141561202b576122fb565b60016004811115612065577f4e487b7100000000000000000000000000000000000000000000000000000000600052602160045260246000fd5b81600481111561209e577f4e487b7100000000000000000000000000000000000000000000000000000000600052602160045260246000fd5b14156120df576040517f08c379a00000000000000000000000000000000000000000000000000000000081526004016120d690612f2d565b60405180910390fd5b60026004811115612119577f4e487b7100000000000000000000000000000000000000000000000000000000600052602160045260246000fd5b816004811115612152577f4e487b7100000000000000000000000000000000000000000000000000000000600052602160045260246000fd5b1415612193576040517f08c379a000000000000000000000000000000000000000000000000000000000815260040161218a90612f4d565b60405180910390fd5b600360048111156121cd577f4e487b7100000000000000000000000000000000000000000000000000000000600052602160045260246000fd5b816004811115612206577f4e487b7100000000000000000000000000000000000000000000000000000000600052602160045260246000fd5b1415612247576040517f08c379a000000000000000000000000000000000000000000000000000000000815260040161223e9061300d565b60405180910390fd5b600480811115612280577f4e487b7100000000000000000000000000000000000000000000000000000000600052602160045260246000fd5b8160048111156122b9577f4e487b7100000000000000000000000000000000000000000000000000000000600052602160045260246000fd5b14156122fa576040517f08c379a00000000000000000000000000000000000000000000000000000000081526004016122f1906130cd565b60405180910390fd5b5b50565b600080823b905060008111915050919050565b6000807f7fffffffffffffffffffffffffffffff5d576e7357a4501ddfe92f46681b20a08360001c111561234c576000600391509150612415565b601b8560ff16141580156123645750601c8560ff1614155b15612376576000600491509150612415565b60006001878787876040516000815260200160405260405161239b9493929190612e96565b6020604051602081039080840390855afa1580156123bd573d6000803e3d6000fd5b505050602060405103519050600073ffffffffffffffffffffffffffffffffffffffff168173ffffffffffffffffffffffffffffffffffffffff16141561240c57600060019250925050612415565b80600092509250505b94509492505050565b6000806000807f7fffffffffffffffffffffffffffffffffffffffffffffffffffffffffffffff85169150601b8560ff1c01905061245e87828885612311565b935093505050935093915050565b8280546124789061349a565b90600052602060002090601f01602090048101928261249a57600085556124e1565b82601f106124b357805160ff19168380011785556124e1565b828001600101855582156124e1579182015b828111156124e05782518255916020019190600101906124c5565b5b5090506124ee91906124f2565b5090565b5b8082111561250b5760008160009055506001016124f3565b5090565b600061252261251d8461326d565b613248565b90508281526020810184848401111561253a57600080fd5b612545848285613458565b509392505050565b600061256061255b8461329e565b613248565b90508281526020810184848401111561257857600080fd5b612583848285613458565b509392505050565b60008135905061259a81613c7c565b92915050565b6000813590506125af81613c93565b92915050565b6000813590506125c481613caa565b92915050565b6000813590506125d981613cc1565b92915050565b6000815190506125ee81613cc1565b92915050565b600082601f83011261260557600080fd5b813561261584826020860161250f565b91505092915050565b600082601f83011261262f57600080fd5b813561263f84826020860161254d565b91505092915050565b60008135905061265781613cd8565b92915050565b60006020828403121561266f57600080fd5b600061267d8482850161258b565b91505092915050565b6000806040838503121561269957600080fd5b60006126a78582860161258b565b92505060206126b88582860161258b565b9150509250929050565b6000806000606084860312156126d757600080fd5b60006126e58682870161258b565b93505060206126f68682870161258b565b925050604061270786828701612648565b9150509250925092565b6000806000806080858703121561272757600080fd5b60006127358782880161258b565b94505060206127468782880161258b565b935050604061275787828801612648565b925050606085013567ffffffffffffffff81111561277457600080fd5b612780878288016125f4565b91505092959194509250565b6000806040838503121561279f57600080fd5b60006127ad8582860161258b565b92505060206127be858286016125a0565b9150509250929050565b600080604083850312156127db57600080fd5b60006127e98582860161258b565b925050602083013567ffffffffffffffff81111561280657600080fd5b6128128582860161261e565b9150509250929050565b6000806000806080858703121561283257600080fd5b60006128408782880161258b565b945050602085013567ffffffffffffffff81111561285d57600080fd5b6128698782880161261e565b935050604061287a878288016125b5565b925050606085013567ffffffffffffffff81111561289757600080fd5b6128a3878288016125f4565b91505092959194509250565b600080604083850312156128c257600080fd5b60006128d08582860161258b565b92505060206128e185828601612648565b9150509250929050565b600080604083850312156128fe57600080fd5b600061290c858286016125b5565b925050602083013567ffffffffffffffff81111561292957600080fd5b612935858286016125f4565b9150509250929050565b60006020828403121561295157600080fd5b600061295f848285016125ca565b91505092915050565b60006020828403121561297a57600080fd5b6000612988848285016125df565b91505092915050565b6000602082840312156129a357600080fd5b60006129b184828501612648565b91505092915050565b6129c3816133cd565b82525050565b6129d2816133df565b82525050565b6129e1816133eb565b82525050565b60006129f2826132cf565b6129fc81856132e5565b9350612a0c818560208601613467565b612a1581613633565b840191505092915050565b6000612a2b826132da565b612a3581856132f6565b9350612a45818560208601613467565b612a4e81613633565b840191505092915050565b6000612a64826132da565b612a6e8185613307565b9350612a7e818560208601613467565b80840191505092915050565b6000612a976018836132f6565b9150612aa282613644565b602082019050919050565b6000612aba601f836132f6565b9150612ac58261366d565b602082019050919050565b6000612add6032836132f6565b9150612ae882613696565b604082019050919050565b6000612b006026836132f6565b9150612b0b826136e5565b604082019050919050565b6000612b23601c836132f6565b9150612b2e82613734565b602082019050919050565b6000612b466024836132f6565b9150612b518261375d565b604082019050919050565b6000612b696019836132f6565b9150612b74826137ac565b602082019050919050565b6000612b8c6022836132f6565b9150612b97826137d5565b604082019050919050565b6000612baf602c836132f6565b9150612bba82613824565b604082019050919050565b6000612bd26038836132f6565b9150612bdd82613873565b604082019050919050565b6000612bf5602a836132f6565b9150612c00826138c2565b604082019050919050565b6000612c186029836132f6565b9150612c2382613911565b604082019050919050565b6000612c3b602e836132f6565b9150612c4682613960565b604082019050919050565b6000612c5e6022836132f6565b9150612c69826139af565b604082019050919050565b6000612c816020836132f6565b9150612c8c826139fe565b602082019050919050565b6000612ca46031836132f6565b9150612caf82613a27565b604082019050919050565b6000612cc7602c836132f6565b9150612cd282613a76565b604082019050919050565b6000612cea6020836132f6565b9150612cf582613ac5565b602082019050919050565b6000612d0d6029836132f6565b9150612d1882613aee565b604082019050919050565b6000612d30602f836132f6565b9150612d3b82613b3d565b604082019050919050565b6000612d536021836132f6565b9150612d5e82613b8c565b604082019050919050565b6000612d766031836132f6565b9150612d8182613bdb565b604082019050919050565b6000612d99601f836132f6565b9150612da482613c2a565b602082019050919050565b6000612dbc6007836132f6565b9150612dc782613c53565b602082019050919050565b612ddb81613441565b82525050565b612dea8161344b565b82525050565b6000612dfc8285612a59565b9150612e088284612a59565b91508190509392505050565b6000602082019050612e2960008301846129ba565b92915050565b6000608082019050612e4460008301876129ba565b612e5160208301866129ba565b612e5e6040830185612dd2565b8181036060830152612e7081846129e7565b905095945050505050565b6000602082019050612e9060008301846129c9565b92915050565b6000608082019050612eab60008301876129d8565b612eb86020830186612de1565b612ec560408301856129d8565b612ed260608301846129d8565b95945050505050565b60006020820190508181036000830152612ef58184612a20565b905092915050565b60006040820190508181036000830152612f178185612a20565b9050612f266020830184612dd2565b9392505050565b60006020820190508181036000830152612f4681612a8a565b9050919050565b60006020820190508181036000830152612f6681612aad565b9050919050565b60006020820190508181036000830152612f8681612ad0565b9050919050565b60006020820190508181036000830152612fa681612af3565b9050919050565b60006020820190508181036000830152612fc681612b16565b9050919050565b60006020820190508181036000830152612fe681612b39565b9050919050565b6000602082019050818103600083015261300681612b5c565b9050919050565b6000602082019050818103600083015261302681612b7f565b9050919050565b6000602082019050818103600083015261304681612ba2565b9050919050565b6000602082019050818103600083015261306681612bc5565b9050919050565b6000602082019050818103600083015261308681612be8565b9050919050565b600060208201905081810360008301526130a681612c0b565b9050919050565b600060208201905081810360008301526130c681612c2e565b9050919050565b600060208201905081810360008301526130e681612c51565b9050919050565b6000602082019050818103600083015261310681612c74565b9050919050565b6000602082019050818103600083015261312681612c97565b9050919050565b6000602082019050818103600083015261314681612cba565b9050919050565b6000602082019050818103600083015261316681612cdd565b9050919050565b6000602082019050818103600083015261318681612d00565b9050919050565b600060208201905081810360008301526131a681612d23565b9050919050565b600060208201905081810360008301526131c681612d46565b9050919050565b600060208201905081810360008301526131e681612d69565b9050919050565b6000602082019050818103600083015261320681612d8c565b9050919050565b6000602082019050818103600083015261322681612daf565b9050919050565b60006020820190506132426000830184612dd2565b92915050565b6000613252613263565b905061325e82826134cc565b919050565b6000604051905090565b600067ffffffffffffffff82111561328857613287613604565b5b61329182613633565b9050602081019050919050565b600067ffffffffffffffff8211156132b9576132b8613604565b5b6132c282613633565b9050602081019050919050565b600081519050919050565b600081519050919050565b600082825260208201905092915050565b600082825260208201905092915050565b600081905092915050565b600061331d82613441565b915061332883613441565b9250827fffffffffffffffffffffffffffffffffffffffffffffffffffffffffffffffff0382111561335d5761335c613577565b5b828201905092915050565b600061337382613441565b915061337e83613441565b92508261338e5761338d6135a6565b5b828204905092915050565b60006133a482613441565b91506133af83613441565b9250828210156133c2576133c1613577565b5b828203905092915050565b60006133d882613421565b9050919050565b60008115159050919050565b6000819050919050565b60007fffffffff0000000000000000000000000000000000000000000000000000000082169050919050565b600073ffffffffffffffffffffffffffffffffffffffff82169050919050565b6000819050919050565b600060ff82169050919050565b82818337600083830152505050565b60005b8381101561348557808201518184015260208101905061346a565b83811115613494576000848401525b50505050565b600060028204905060018216806134b257607f821691505b602082108114156134c6576134c56135d5565b5b50919050565b6134d582613633565b810181811067ffffffffffffffff821117156134f4576134f3613604565b5b80604052505050565b600061350882613441565b91507fffffffffffffffffffffffffffffffffffffffffffffffffffffffffffffffff82141561353b5761353a613577565b5b600182019050919050565b600061355182613441565b915061355c83613441565b92508261356c5761356b6135a6565b5b828206905092915050565b7f4e487b7100000000000000000000000000000000000000000000000000000000600052601160045260246000fd5b7f4e487b7100000000000000000000000000000000000000000000000000000000600052601260045260246000fd5b7f4e487b7100000000000000000000000000000000000000000000000000000000600052602260045260246000fd5b7f4e487b7100000000000000000000000000000000000000000000000000000000600052604160045260246000fd5b6000601f19601f8301169050919050565b7f45434453413a20696e76616c6964207369676e61747572650000000000000000600082015250565b7f45434453413a20696e76616c6964207369676e6174757265206c656e67746800600082015250565b7f4552433732313a207472616e7366657220746f206e6f6e20455243373231526560008201527f63656976657220696d706c656d656e7465720000000000000000000000000000602082015250565b7f4f776e61626c653a206e6577206f776e657220697320746865207a65726f206160008201527f6464726573730000000000000000000000000000000000000000000000000000602082015250565b7f4552433732313a20746f6b656e20616c7265616479206d696e74656400000000600082015250565b7f4552433732313a207472616e7366657220746f20746865207a65726f2061646460008201527f7265737300000000000000000000000000000000000000000000000000000000602082015250565b7f4552433732313a20617070726f766520746f2063616c6c657200000000000000600082015250565b7f45434453413a20696e76616c6964207369676e6174757265202773272076616c60008201527f7565000000000000000000000000000000000000000000000000000000000000602082015250565b7f4552433732313a206f70657261746f7220717565727920666f72206e6f6e657860008201527f697374656e7420746f6b656e0000000000000000000000000000000000000000602082015250565b7f4552433732313a20617070726f76652063616c6c6572206973206e6f74206f7760008201527f6e6572206e6f7220617070726f76656420666f7220616c6c0000000000000000602082015250565b7f4552433732313a2062616c616e636520717565727920666f7220746865207a6560008201527f726f206164647265737300000000000000000000000000000000000000000000602082015250565b7f4552433732313a206f776e657220717565727920666f72206e6f6e657869737460008201527f656e7420746f6b656e0000000000000000000000000000000000000000000000602082015250565b7f45524337323155524953746f726167653a2055524920736574206f66206e6f6e60008201527f6578697374656e7420746f6b656e000000000000000000000000000000000000602082015250565b7f45434453413a20696e76616c6964207369676e6174757265202776272076616c60008201527f7565000000000000000000000000000000000000000000000000000000000000602082015250565b7f4552433732313a206d696e7420746f20746865207a65726f2061646472657373600082015250565b7f45524337323155524953746f726167653a2055524920717565727920666f722060008201527f6e6f6e6578697374656e7420746f6b656e000000000000000000000000000000602082015250565b7f4552433732313a20617070726f76656420717565727920666f72206e6f6e657860008201527f697374656e7420746f6b656e0000000000000000000000000000000000000000602082015250565b7f4f776e61626c653a2063616c6c6572206973206e6f7420746865206f776e6572600082015250565b7f4552433732313a207472616e73666572206f6620746f6b656e2074686174206960008201527f73206e6f74206f776e0000000000000000000000000000000000000000000000602082015250565b7f4552433732314d657461646174613a2055524920717565727920666f72206e6f60008201527f6e6578697374656e7420746f6b656e0000000000000000000000000000000000602082015250565b7f4552433732313a20617070726f76616c20746f2063757272656e74206f776e6560008201527f7200000000000000000000000000000000000000000000000000000000000000602082015250565b7f4552433732313a207472616e736665722063616c6c6572206973206e6f74206f60008201527f776e6572206e6f7220617070726f766564000000000000000000000000000000602082015250565b7f4574686572206973206e6f7420656e6f75676820746f206d696e74204e465400600082015250565b7f44656e6965642100000000000000000000000000000000000000000000000000600082015250565b613c85816133cd565b8114613c9057600080fd5b50565b613c9c816133df565b8114613ca757600080fd5b50565b613cb3816133eb565b8114613cbe57600080fd5b50565b613cca816133f5565b8114613cd557600080fd5b50565b613ce181613441565b8114613cec57600080fd5b5056fea2646970667358221220da8d5731bbb1978f680b4675de8162a2d7a3e3d1a2b03a8bf5c066e2a0a0d28264736f6c63430008040033",
  "linkReferences": {},
  "deployedLinkReferences": {}
}