{
  "_format": "hh-sol-artifact-1",
  "contractName": "BurgToken",
  "sourceName": "contracts/BurgToken.sol",
  "abi": [
    {
      "inputs": [],
      "stateMutability": "nonpayable",
      "type": "constructor"
    },
    {
      "anonymous": false,
      "inputs": [
        {
          "indexed": true,
          "internalType": "address",
          "name": "owner",
          "type": "address"
        },
        {
          "indexed": true,
          "internalType": "address",
          "name": "spender",
          "type": "address"
        },
        {
          "indexed": false,
          "internalType": "uint256",
          "name": "value",
          "type": "uint256"
        }
      ],
      "name": "Approval",
      "type": "event"
    },
    {
      "anonymous": false,
      "inputs": [
        {
          "indexed": true,
          "internalType": "address",
          "name": "previousOwner",
          "type": "address"
        },
        {
          "indexed": true,
          "internalType": "address",
          "name": "newOwner",
          "type": "address"
        }
      ],
      "name": "OwnershipTransferred",
      "type": "event"
    },
    {
      "anonymous": false,
      "inputs": [
        {
          "indexed": true,
          "internalType": "address",
          "name": "from",
          "type": "address"
        },
        {
          "indexed": true,
          "internalType": "address",
          "name": "to",
          "type": "address"
        },
        {
          "indexed": false,
          "internalType": "uint256",
          "name": "value",
          "type": "uint256"
        }
      ],
      "name": "Transfer",
      "type": "event"
    },
    {
      "inputs": [
        {
          "internalType": "address",
          "name": "owner",
          "type": "address"
        },
        {
          "internalType": "address",
          "name": "spender",
          "type": "address"
        }
      ],
      "name": "allowance",
      "outputs": [
        {
          "internalType": "uint256",
          "name": "",
          "type": "uint256"
        }
      ],
      "stateMutability": "view",
      "type": "function"
    },
    {
      "inputs": [
        {
          "internalType": "address",
          "name": "spender",
          "type": "address"
        },
        {
          "internalType": "uint256",
          "name": "amount",
          "type": "uint256"
        }
      ],
      "name": "approve",
      "outputs": [
        {
          "internalType": "bool",
          "name": "",
          "type": "bool"
        }
      ],
      "stateMutability": "nonpayable",
      "type": "function"
    },
    {
      "inputs": [
        {
          "internalType": "address",
          "name": "account",
          "type": "address"
        }
      ],
      "name": "balanceOf",
      "outputs": [
        {
          "internalType": "uint256",
          "name": "",
          "type": "uint256"
        }
      ],
      "stateMutability": "view",
      "type": "function"
    },
    {
      "inputs": [
        {
          "internalType": "address",
          "name": "_account",
          "type": "address"
        },
        {
          "internalType": "uint256",
          "name": "_amount",
          "type": "uint256"
        }
      ],
      "name": "burn",
      "outputs": [
        {
          "internalType": "bool",
          "name": "",
          "type": "bool"
        }
      ],
      "stateMutability": "nonpayable",
      "type": "function"
    },
    {
      "inputs": [],
      "name": "cap",
      "outputs": [
        {
          "internalType": "uint256",
          "name": "",
          "type": "uint256"
        }
      ],
      "stateMutability": "view",
      "type": "function"
    },
    {
      "inputs": [],
      "name": "decimals",
      "outputs": [
        {
          "internalType": "uint8",
          "name": "",
          "type": "uint8"
        }
      ],
      "stateMutability": "view",
      "type": "function"
    },
    {
      "inputs": [
        {
          "internalType": "address",
          "name": "spender",
          "type": "address"
        },
        {
          "internalType": "uint256",
          "name": "subtractedValue",
          "type": "uint256"
        }
      ],
      "name": "decreaseAllowance",
      "outputs": [
        {
          "internalType": "bool",
          "name": "",
          "type": "bool"
        }
      ],
      "stateMutability": "nonpayable",
      "type": "function"
    },
    {
      "inputs": [
        {
          "internalType": "address",
          "name": "spender",
          "type": "address"
        },
        {
          "internalType": "uint256",
          "name": "addedValue",
          "type": "uint256"
        }
      ],
      "name": "increaseAllowance",
      "outputs": [
        {
          "internalType": "bool",
          "name": "",
          "type": "bool"
        }
      ],
      "stateMutability": "nonpayable",
      "type": "function"
    },
    {
      "inputs": [
        {
          "internalType": "address",
          "name": "_account",
          "type": "address"
        },
        {
          "internalType": "uint256",
          "name": "_amount",
          "type": "uint256"
        }
      ],
      "name": "mint",
      "outputs": [
        {
          "internalType": "bool",
          "name": "",
          "type": "bool"
        }
      ],
      "stateMutability": "nonpayable",
      "type": "function"
    },
    {
      "inputs": [],
      "name": "name",
      "outputs": [
        {
          "internalType": "string",
          "name": "",
          "type": "string"
        }
      ],
      "stateMutability": "view",
      "type": "function"
    },
    {
      "inputs": [],
      "name": "owner",
      "outputs": [
        {
          "internalType": "address",
          "name": "",
          "type": "address"
        }
      ],
      "stateMutability": "view",
      "type": "function"
    },
    {
      "inputs": [],
      "name": "renounceOwnership",
      "outputs": [],
      "stateMutability": "nonpayable",
      "type": "function"
    },
    {
      "inputs": [],
      "name": "symbol",
      "outputs": [
        {
          "internalType": "string",
          "name": "",
          "type": "string"
        }
      ],
      "stateMutability": "view",
      "type": "function"
    },
    {
      "inputs": [],
      "name": "totalSupply",
      "outputs": [
        {
          "internalType": "uint256",
          "name": "",
          "type": "uint256"
        }
      ],
      "stateMutability": "view",
      "type": "function"
    },
    {
      "inputs": [
        {
          "internalType": "address",
          "name": "recipient",
          "type": "address"
        },
        {
          "internalType": "uint256",
          "name": "amount",
          "type": "uint256"
        }
      ],
      "name": "transfer",
      "outputs": [
        {
          "internalType": "bool",
          "name": "",
          "type": "bool"
        }
      ],
      "stateMutability": "nonpayable",
      "type": "function"
    },
    {
      "inputs": [
        {
          "internalType": "address",
          "name": "sender",
          "type": "address"
        },
        {
          "internalType": "address",
          "name": "recipient",
          "type": "address"
        },
        {
          "internalType": "uint256",
          "name": "amount",
          "type": "uint256"
        }
      ],
      "name": "transferFrom",
      "outputs": [
        {
          "internalType": "bool",
          "name": "",
          "type": "bool"
        }
      ],
      "stateMutability": "nonpayable",
      "type": "function"
    },
    {
      "inputs": [
        {
          "internalType": "address",
          "name": "newOwner",
          "type": "address"
        }
      ],
      "name": "transferOwnership",
      "outputs": [],
      "stateMutability": "nonpayable",
      "type": "function"
    }
  ],
  "bytecode": "0x60a06040523480156200001157600080fd5b506a52b7d2dcc80cd2e40000006040518060400160405280600a81526020017f4255524720546f6b656e000000000000000000000000000000000000000000008152506040518060400160405280600481526020017f42555247000000000000000000000000000000000000000000000000000000008152508160039080519060200190620000a292919062000445565b508060049080519060200190620000bb92919062000445565b5050506000811162000104576040517f08c379a0000000000000000000000000000000000000000000000000000000008152600401620000fb9062000556565b60405180910390fd5b8060808181525050506200012d620001216200014f60201b60201c565b6200015760201b60201c565b620001493369021e19e0c9bab24000006200021d60201b60201c565b62000785565b600033905090565b6000600560009054906101000a900473ffffffffffffffffffffffffffffffffffffffff16905081600560006101000a81548173ffffffffffffffffffffffffffffffffffffffff021916908373ffffffffffffffffffffffffffffffffffffffff1602179055508173ffffffffffffffffffffffffffffffffffffffff168173ffffffffffffffffffffffffffffffffffffffff167f8be0079c531659141344cd1fd0a4f28419497f9722a3daafe3b4186f6b6457e060405160405180910390a35050565b6200022d620002ae60201b60201c565b8162000243620002b860201b6200044a1760201c565b6200024f9190620005b1565b111562000293576040517f08c379a00000000000000000000000000000000000000000000000000000000081526004016200028a906200065e565b60405180910390fd5b620002aa8282620002c260201b62000ae51760201c565b5050565b6000608051905090565b6000600254905090565b600073ffffffffffffffffffffffffffffffffffffffff168273ffffffffffffffffffffffffffffffffffffffff16141562000335576040517f08c379a00000000000000000000000000000000000000000000000000000000081526004016200032c90620006d0565b60405180910390fd5b62000349600083836200043b60201b60201c565b80600260008282546200035d9190620005b1565b92505081905550806000808473ffffffffffffffffffffffffffffffffffffffff1673ffffffffffffffffffffffffffffffffffffffff1681526020019081526020016000206000828254620003b49190620005b1565b925050819055508173ffffffffffffffffffffffffffffffffffffffff16600073ffffffffffffffffffffffffffffffffffffffff167fddf252ad1be2c89b69c2b068fc378daa952ba7f163c4a11628f55a4df523b3ef836040516200041b919062000703565b60405180910390a362000437600083836200044060201b60201c565b5050565b505050565b505050565b82805462000453906200074f565b90600052602060002090601f016020900481019282620004775760008555620004c3565b82601f106200049257805160ff1916838001178555620004c3565b82800160010185558215620004c3579182015b82811115620004c2578251825591602001919060010190620004a5565b5b509050620004d29190620004d6565b5090565b5b80821115620004f1576000816000905550600101620004d7565b5090565b600082825260208201905092915050565b7f45524332304361707065643a2063617020697320300000000000000000000000600082015250565b60006200053e601583620004f5565b91506200054b8262000506565b602082019050919050565b6000602082019050818103600083015262000571816200052f565b9050919050565b6000819050919050565b7f4e487b7100000000000000000000000000000000000000000000000000000000600052601160045260246000fd5b6000620005be8262000578565b9150620005cb8362000578565b9250827fffffffffffffffffffffffffffffffffffffffffffffffffffffffffffffffff0382111562000603576200060262000582565b5b828201905092915050565b7f45524332304361707065643a2063617020657863656564656400000000000000600082015250565b600062000646601983620004f5565b915062000653826200060e565b602082019050919050565b60006020820190508181036000830152620006798162000637565b9050919050565b7f45524332303a206d696e7420746f20746865207a65726f206164647265737300600082015250565b6000620006b8601f83620004f5565b9150620006c58262000680565b602082019050919050565b60006020820190508181036000830152620006eb81620006a9565b9050919050565b620006fd8162000578565b82525050565b60006020820190506200071a6000830184620006f2565b92915050565b7f4e487b7100000000000000000000000000000000000000000000000000000000600052602260045260246000fd5b600060028204905060018216806200076857607f821691505b602082108114156200077f576200077e62000720565b5b50919050565b608051611f07620007a160003960006105590152611f076000f3fe608060405234801561001057600080fd5b506004361061010b5760003560e01c806370a08231116100a25780639dc29fac116100715780639dc29fac146102be578063a457c2d7146102ee578063a9059cbb1461031e578063dd62ed3e1461034e578063f2fde38b1461037e5761010b565b806370a0823114610248578063715018a6146102785780638da5cb5b1461028257806395d89b41146102a05761010b565b8063313ce567116100de578063313ce567146101ac578063355274ea146101ca57806339509351146101e857806340c10f19146102185761010b565b806306fdde0314610110578063095ea7b31461012e57806318160ddd1461015e57806323b872dd1461017c575b600080fd5b61011861039a565b6040516101259190611443565b60405180910390f35b610148600480360381019061014391906114fe565b61042c565b6040516101559190611559565b60405180910390f35b61016661044a565b6040516101739190611583565b60405180910390f35b6101966004803603810190610191919061159e565b610454565b6040516101a39190611559565b60405180910390f35b6101b461054c565b6040516101c1919061160d565b60405180910390f35b6101d2610555565b6040516101df9190611583565b60405180910390f35b61020260048036038101906101fd91906114fe565b61057d565b60405161020f9190611559565b60405180910390f35b610232600480360381019061022d91906114fe565b610629565b60405161023f9190611559565b60405180910390f35b610262600480360381019061025d9190611628565b6106bb565b60405161026f9190611583565b60405180910390f35b610280610703565b005b61028a61078b565b6040516102979190611664565b60405180910390f35b6102a86107b5565b6040516102b59190611443565b60405180910390f35b6102d860048036038101906102d391906114fe565b610847565b6040516102e59190611559565b60405180910390f35b610308600480360381019061030391906114fe565b61085d565b6040516103159190611559565b60405180910390f35b610338600480360381019061033391906114fe565b610948565b6040516103459190611559565b60405180910390f35b6103686004803603810190610363919061167f565b610966565b6040516103759190611583565b60405180910390f35b61039860048036038101906103939190611628565b6109ed565b005b6060600380546103a9906116ee565b80601f01602080910402602001604051908101604052809291908181526020018280546103d5906116ee565b80156104225780601f106103f757610100808354040283529160200191610422565b820191906000526020600020905b81548152906001019060200180831161040557829003601f168201915b5050505050905090565b6000610440610439610c45565b8484610c4d565b6001905092915050565b6000600254905090565b6000610461848484610e18565b6000600160008673ffffffffffffffffffffffffffffffffffffffff1673ffffffffffffffffffffffffffffffffffffffff16815260200190815260200160002060006104ac610c45565b73ffffffffffffffffffffffffffffffffffffffff1673ffffffffffffffffffffffffffffffffffffffff1681526020019081526020016000205490508281101561052c576040517f08c379a000000000000000000000000000000000000000000000000000000000815260040161052390611792565b60405180910390fd5b61054085610538610c45565b858403610c4d565b60019150509392505050565b60006012905090565b60007f0000000000000000000000000000000000000000000000000000000000000000905090565b600061061f61058a610c45565b848460016000610598610c45565b73ffffffffffffffffffffffffffffffffffffffff1673ffffffffffffffffffffffffffffffffffffffff16815260200190815260200160002060008873ffffffffffffffffffffffffffffffffffffffff1673ffffffffffffffffffffffffffffffffffffffff1681526020019081526020016000205461061a91906117e1565b610c4d565b6001905092915050565b6000610633610c45565b73ffffffffffffffffffffffffffffffffffffffff1661065161078b565b73ffffffffffffffffffffffffffffffffffffffff16146106a7576040517f08c379a000000000000000000000000000000000000000000000000000000000815260040161069e90611883565b60405180910390fd5b6106b18383611099565b6001905092915050565b60008060008373ffffffffffffffffffffffffffffffffffffffff1673ffffffffffffffffffffffffffffffffffffffff168152602001908152602001600020549050919050565b61070b610c45565b73ffffffffffffffffffffffffffffffffffffffff1661072961078b565b73ffffffffffffffffffffffffffffffffffffffff161461077f576040517f08c379a000000000000000000000000000000000000000000000000000000000815260040161077690611883565b60405180910390fd5b6107896000611103565b565b6000600560009054906101000a900473ffffffffffffffffffffffffffffffffffffffff16905090565b6060600480546107c4906116ee565b80601f01602080910402602001604051908101604052809291908181526020018280546107f0906116ee565b801561083d5780601f106108125761010080835404028352916020019161083d565b820191906000526020600020905b81548152906001019060200180831161082057829003601f168201915b5050505050905090565b600061085383836111c9565b6001905092915050565b6000806001600061086c610c45565b73ffffffffffffffffffffffffffffffffffffffff1673ffffffffffffffffffffffffffffffffffffffff16815260200190815260200160002060008573ffffffffffffffffffffffffffffffffffffffff1673ffffffffffffffffffffffffffffffffffffffff16815260200190815260200160002054905082811015610929576040517f08c379a000000000000000000000000000000000000000000000000000000000815260040161092090611915565b60405180910390fd5b61093d610934610c45565b85858403610c4d565b600191505092915050565b600061095c610955610c45565b8484610e18565b6001905092915050565b6000600160008473ffffffffffffffffffffffffffffffffffffffff1673ffffffffffffffffffffffffffffffffffffffff16815260200190815260200160002060008373ffffffffffffffffffffffffffffffffffffffff1673ffffffffffffffffffffffffffffffffffffffff16815260200190815260200160002054905092915050565b6109f5610c45565b73ffffffffffffffffffffffffffffffffffffffff16610a1361078b565b73ffffffffffffffffffffffffffffffffffffffff1614610a69576040517f08c379a0000000000000000000000000000000000000000000000000000000008152600401610a6090611883565b60405180910390fd5b600073ffffffffffffffffffffffffffffffffffffffff168173ffffffffffffffffffffffffffffffffffffffff161415610ad9576040517f08c379a0000000000000000000000000000000000000000000000000000000008152600401610ad0906119a7565b60405180910390fd5b610ae281611103565b50565b600073ffffffffffffffffffffffffffffffffffffffff168273ffffffffffffffffffffffffffffffffffffffff161415610b55576040517f08c379a0000000000000000000000000000000000000000000000000000000008152600401610b4c90611a13565b60405180910390fd5b610b61600083836113a0565b8060026000828254610b7391906117e1565b92505081905550806000808473ffffffffffffffffffffffffffffffffffffffff1673ffffffffffffffffffffffffffffffffffffffff1681526020019081526020016000206000828254610bc891906117e1565b925050819055508173ffffffffffffffffffffffffffffffffffffffff16600073ffffffffffffffffffffffffffffffffffffffff167fddf252ad1be2c89b69c2b068fc378daa952ba7f163c4a11628f55a4df523b3ef83604051610c2d9190611583565b60405180910390a3610c41600083836113a5565b5050565b600033905090565b600073ffffffffffffffffffffffffffffffffffffffff168373ffffffffffffffffffffffffffffffffffffffff161415610cbd576040517f08c379a0000000000000000000000000000000000000000000000000000000008152600401610cb490611aa5565b60405180910390fd5b600073ffffffffffffffffffffffffffffffffffffffff168273ffffffffffffffffffffffffffffffffffffffff161415610d2d576040517f08c379a0000000000000000000000000000000000000000000000000000000008152600401610d2490611b37565b60405180910390fd5b80600160008573ffffffffffffffffffffffffffffffffffffffff1673ffffffffffffffffffffffffffffffffffffffff16815260200190815260200160002060008473ffffffffffffffffffffffffffffffffffffffff1673ffffffffffffffffffffffffffffffffffffffff168152602001908152602001600020819055508173ffffffffffffffffffffffffffffffffffffffff168373ffffffffffffffffffffffffffffffffffffffff167f8c5be1e5ebec7d5bd14f71427d1e84f3dd0314c0f7b2291e5b200ac8c7c3b92583604051610e0b9190611583565b60405180910390a3505050565b600073ffffffffffffffffffffffffffffffffffffffff168373ffffffffffffffffffffffffffffffffffffffff161415610e88576040517f08c379a0000000000000000000000000000000000000000000000000000000008152600401610e7f90611bc9565b60405180910390fd5b600073ffffffffffffffffffffffffffffffffffffffff168273ffffffffffffffffffffffffffffffffffffffff161415610ef8576040517f08c379a0000000000000000000000000000000000000000000000000000000008152600401610eef90611c5b565b60405180910390fd5b610f038383836113a0565b60008060008573ffffffffffffffffffffffffffffffffffffffff1673ffffffffffffffffffffffffffffffffffffffff16815260200190815260200160002054905081811015610f89576040517f08c379a0000000000000000000000000000000000000000000000000000000008152600401610f8090611ced565b60405180910390fd5b8181036000808673ffffffffffffffffffffffffffffffffffffffff1673ffffffffffffffffffffffffffffffffffffffff16815260200190815260200160002081905550816000808573ffffffffffffffffffffffffffffffffffffffff1673ffffffffffffffffffffffffffffffffffffffff168152602001908152602001600020600082825461101c91906117e1565b925050819055508273ffffffffffffffffffffffffffffffffffffffff168473ffffffffffffffffffffffffffffffffffffffff167fddf252ad1be2c89b69c2b068fc378daa952ba7f163c4a11628f55a4df523b3ef846040516110809190611583565b60405180910390a36110938484846113a5565b50505050565b6110a1610555565b816110aa61044a565b6110b491906117e1565b11156110f5576040517f08c379a00000000000000000000000000000000000000000000000000000000081526004016110ec90611d59565b60405180910390fd5b6110ff8282610ae5565b5050565b6000600560009054906101000a900473ffffffffffffffffffffffffffffffffffffffff16905081600560006101000a81548173ffffffffffffffffffffffffffffffffffffffff021916908373ffffffffffffffffffffffffffffffffffffffff1602179055508173ffffffffffffffffffffffffffffffffffffffff168173ffffffffffffffffffffffffffffffffffffffff167f8be0079c531659141344cd1fd0a4f28419497f9722a3daafe3b4186f6b6457e060405160405180910390a35050565b600073ffffffffffffffffffffffffffffffffffffffff168273ffffffffffffffffffffffffffffffffffffffff161415611239576040517f08c379a000000000000000000000000000000000000000000000000000000000815260040161123090611deb565b60405180910390fd5b611245826000836113a0565b60008060008473ffffffffffffffffffffffffffffffffffffffff1673ffffffffffffffffffffffffffffffffffffffff168152602001908152602001600020549050818110156112cb576040517f08c379a00000000000000000000000000000000000000000000000000000000081526004016112c290611e7d565b60405180910390fd5b8181036000808573ffffffffffffffffffffffffffffffffffffffff1673ffffffffffffffffffffffffffffffffffffffff1681526020019081526020016000208190555081600260008282546113229190611e9d565b92505081905550600073ffffffffffffffffffffffffffffffffffffffff168373ffffffffffffffffffffffffffffffffffffffff167fddf252ad1be2c89b69c2b068fc378daa952ba7f163c4a11628f55a4df523b3ef846040516113879190611583565b60405180910390a361139b836000846113a5565b505050565b505050565b505050565b600081519050919050565b600082825260208201905092915050565b60005b838110156113e45780820151818401526020810190506113c9565b838111156113f3576000848401525b50505050565b6000601f19601f8301169050919050565b6000611415826113aa565b61141f81856113b5565b935061142f8185602086016113c6565b611438816113f9565b840191505092915050565b6000602082019050818103600083015261145d818461140a565b905092915050565b600080fd5b600073ffffffffffffffffffffffffffffffffffffffff82169050919050565b60006114958261146a565b9050919050565b6114a58161148a565b81146114b057600080fd5b50565b6000813590506114c28161149c565b92915050565b6000819050919050565b6114db816114c8565b81146114e657600080fd5b50565b6000813590506114f8816114d2565b92915050565b6000806040838503121561151557611514611465565b5b6000611523858286016114b3565b9250506020611534858286016114e9565b9150509250929050565b60008115159050919050565b6115538161153e565b82525050565b600060208201905061156e600083018461154a565b92915050565b61157d816114c8565b82525050565b60006020820190506115986000830184611574565b92915050565b6000806000606084860312156115b7576115b6611465565b5b60006115c5868287016114b3565b93505060206115d6868287016114b3565b92505060406115e7868287016114e9565b9150509250925092565b600060ff82169050919050565b611607816115f1565b82525050565b600060208201905061162260008301846115fe565b92915050565b60006020828403121561163e5761163d611465565b5b600061164c848285016114b3565b91505092915050565b61165e8161148a565b82525050565b60006020820190506116796000830184611655565b92915050565b6000806040838503121561169657611695611465565b5b60006116a4858286016114b3565b92505060206116b5858286016114b3565b9150509250929050565b7f4e487b7100000000000000000000000000000000000000000000000000000000600052602260045260246000fd5b6000600282049050600182168061170657607f821691505b6020821081141561171a576117196116bf565b5b50919050565b7f45524332303a207472616e7366657220616d6f756e742065786365656473206160008201527f6c6c6f77616e6365000000000000000000000000000000000000000000000000602082015250565b600061177c6028836113b5565b915061178782611720565b604082019050919050565b600060208201905081810360008301526117ab8161176f565b9050919050565b7f4e487b7100000000000000000000000000000000000000000000000000000000600052601160045260246000fd5b60006117ec826114c8565b91506117f7836114c8565b9250827fffffffffffffffffffffffffffffffffffffffffffffffffffffffffffffffff0382111561182c5761182b6117b2565b5b828201905092915050565b7f4f776e61626c653a2063616c6c6572206973206e6f7420746865206f776e6572600082015250565b600061186d6020836113b5565b915061187882611837565b602082019050919050565b6000602082019050818103600083015261189c81611860565b9050919050565b7f45524332303a2064656372656173656420616c6c6f77616e63652062656c6f7760008201527f207a65726f000000000000000000000000000000000000000000000000000000602082015250565b60006118ff6025836113b5565b915061190a826118a3565b604082019050919050565b6000602082019050818103600083015261192e816118f2565b9050919050565b7f4f776e61626c653a206e6577206f776e657220697320746865207a65726f206160008201527f6464726573730000000000000000000000000000000000000000000000000000602082015250565b60006119916026836113b5565b915061199c82611935565b604082019050919050565b600060208201905081810360008301526119c081611984565b9050919050565b7f45524332303a206d696e7420746f20746865207a65726f206164647265737300600082015250565b60006119fd601f836113b5565b9150611a08826119c7565b602082019050919050565b60006020820190508181036000830152611a2c816119f0565b9050919050565b7f45524332303a20617070726f76652066726f6d20746865207a65726f2061646460008201527f7265737300000000000000000000000000000000000000000000000000000000602082015250565b6000611a8f6024836113b5565b9150611a9a82611a33565b604082019050919050565b60006020820190508181036000830152611abe81611a82565b9050919050565b7f45524332303a20617070726f766520746f20746865207a65726f20616464726560008201527f7373000000000000000000000000000000000000000000000000000000000000602082015250565b6000611b216022836113b5565b9150611b2c82611ac5565b604082019050919050565b60006020820190508181036000830152611b5081611b14565b9050919050565b7f45524332303a207472616e736665722066726f6d20746865207a65726f20616460008201527f6472657373000000000000000000000000000000000000000000000000000000602082015250565b6000611bb36025836113b5565b9150611bbe82611b57565b604082019050919050565b60006020820190508181036000830152611be281611ba6565b9050919050565b7f45524332303a207472616e7366657220746f20746865207a65726f206164647260008201527f6573730000000000000000000000000000000000000000000000000000000000602082015250565b6000611c456023836113b5565b9150611c5082611be9565b604082019050919050565b60006020820190508181036000830152611c7481611c38565b9050919050565b7f45524332303a207472616e7366657220616d6f756e742065786365656473206260008201527f616c616e63650000000000000000000000000000000000000000000000000000602082015250565b6000611cd76026836113b5565b9150611ce282611c7b565b604082019050919050565b60006020820190508181036000830152611d0681611cca565b9050919050565b7f45524332304361707065643a2063617020657863656564656400000000000000600082015250565b6000611d436019836113b5565b9150611d4e82611d0d565b602082019050919050565b60006020820190508181036000830152611d7281611d36565b9050919050565b7f45524332303a206275726e2066726f6d20746865207a65726f2061646472657360008201527f7300000000000000000000000000000000000000000000000000000000000000602082015250565b6000611dd56021836113b5565b9150611de082611d79565b604082019050919050565b60006020820190508181036000830152611e0481611dc8565b9050919050565b7f45524332303a206275726e20616d6f756e7420657863656564732062616c616e60008201527f6365000000000000000000000000000000000000000000000000000000000000602082015250565b6000611e676022836113b5565b9150611e7282611e0b565b604082019050919050565b60006020820190508181036000830152611e9681611e5a565b9050919050565b6000611ea8826114c8565b9150611eb3836114c8565b925082821015611ec657611ec56117b2565b5b82820390509291505056fea26469706673582212200085f869957bcf12472e349884c952fb0c1ddf1a6b989cd7fb26f6048faaadfe64736f6c63430008090033",
  "linkReferences": {},
  "deployedLinkReferences": {}
}