{
  "_format": "hh-sol-artifact-1",
  "contractName": "Burger",
  "sourceName": "contracts/Burguer.sol",
  "abi": [
    {
      "inputs": [],
      "stateMutability": "nonpayable",
      "type": "constructor"
    },
    {
      "anonymous": false,
      "inputs": [
        {
          "indexed": true,
          "internalType": "address",
          "name": "owner",
          "type": "address"
        },
        {
          "indexed": true,
          "internalType": "address",
          "name": "approved",
          "type": "address"
        },
        {
          "indexed": true,
          "internalType": "uint256",
          "name": "tokenId",
          "type": "uint256"
        }
      ],
      "name": "Approval",
      "type": "event"
    },
    {
      "anonymous": false,
      "inputs": [
        {
          "indexed": true,
          "internalType": "address",
          "name": "owner",
          "type": "address"
        },
        {
          "indexed": true,
          "internalType": "address",
          "name": "operator",
          "type": "address"
        },
        {
          "indexed": false,
          "internalType": "bool",
          "name": "approved",
          "type": "bool"
        }
      ],
      "name": "ApprovalForAll",
      "type": "event"
    },
    {
      "anonymous": false,
      "inputs": [
        {
          "indexed": true,
          "internalType": "address",
          "name": "_to",
          "type": "address"
        },
        {
          "indexed": true,
          "internalType": "uint256",
          "name": "_id",
          "type": "uint256"
        },
        {
          "indexed": true,
          "internalType": "uint8",
          "name": "_boxType",
          "type": "uint8"
        }
      ],
      "name": "MintNFT",
      "type": "event"
    },
    {
      "anonymous": false,
      "inputs": [
        {
          "indexed": true,
          "internalType": "address",
          "name": "previousOwner",
          "type": "address"
        },
        {
          "indexed": true,
          "internalType": "address",
          "name": "newOwner",
          "type": "address"
        }
      ],
      "name": "OwnershipTransferred",
      "type": "event"
    },
    {
      "anonymous": false,
      "inputs": [
        {
          "indexed": false,
          "internalType": "address",
          "name": "account",
          "type": "address"
        }
      ],
      "name": "Paused",
      "type": "event"
    },
    {
      "anonymous": false,
      "inputs": [
        {
          "indexed": true,
          "internalType": "address",
          "name": "from",
          "type": "address"
        },
        {
          "indexed": true,
          "internalType": "address",
          "name": "to",
          "type": "address"
        },
        {
          "indexed": true,
          "internalType": "uint256",
          "name": "tokenId",
          "type": "uint256"
        }
      ],
      "name": "Transfer",
      "type": "event"
    },
    {
      "anonymous": false,
      "inputs": [
        {
          "indexed": false,
          "internalType": "address",
          "name": "account",
          "type": "address"
        }
      ],
      "name": "Unpaused",
      "type": "event"
    },
    {
      "inputs": [
        {
          "internalType": "address",
          "name": "to",
          "type": "address"
        },
        {
          "internalType": "uint256",
          "name": "tokenId",
          "type": "uint256"
        }
      ],
      "name": "approve",
      "outputs": [],
      "stateMutability": "nonpayable",
      "type": "function"
    },
    {
      "inputs": [
        {
          "internalType": "address",
          "name": "owner",
          "type": "address"
        }
      ],
      "name": "balanceOf",
      "outputs": [
        {
          "internalType": "uint256",
          "name": "",
          "type": "uint256"
        }
      ],
      "stateMutability": "view",
      "type": "function"
    },
    {
      "inputs": [
        {
          "internalType": "uint256",
          "name": "",
          "type": "uint256"
        }
      ],
      "name": "boxPriceBNB",
      "outputs": [
        {
          "internalType": "uint256",
          "name": "",
          "type": "uint256"
        }
      ],
      "stateMutability": "view",
      "type": "function"
    },
    {
      "inputs": [
        {
          "internalType": "string",
          "name": "newBaseTokenURI",
          "type": "string"
        }
      ],
      "name": "changeBaseTokenURI",
      "outputs": [],
      "stateMutability": "nonpayable",
      "type": "function"
    },
    {
      "inputs": [
        {
          "internalType": "bytes32",
          "name": "newRoot",
          "type": "bytes32"
        }
      ],
      "name": "changeRoot",
      "outputs": [],
      "stateMutability": "nonpayable",
      "type": "function"
    },
    {
      "inputs": [
        {
          "internalType": "bool",
          "name": "newState",
          "type": "bool"
        }
      ],
      "name": "changeWhitelistState",
      "outputs": [],
      "stateMutability": "nonpayable",
      "type": "function"
    },
    {
      "inputs": [
        {
          "internalType": "uint256",
          "name": "tokenId",
          "type": "uint256"
        }
      ],
      "name": "getApproved",
      "outputs": [
        {
          "internalType": "address",
          "name": "",
          "type": "address"
        }
      ],
      "stateMutability": "view",
      "type": "function"
    },
    {
      "inputs": [
        {
          "internalType": "uint256",
          "name": "_tokenId",
          "type": "uint256"
        }
      ],
      "name": "getboxTypeById",
      "outputs": [
        {
          "internalType": "uint8",
          "name": "",
          "type": "uint8"
        }
      ],
      "stateMutability": "view",
      "type": "function"
    },
    {
      "inputs": [
        {
          "internalType": "address",
          "name": "owner",
          "type": "address"
        },
        {
          "internalType": "address",
          "name": "operator",
          "type": "address"
        }
      ],
      "name": "isApprovedForAll",
      "outputs": [
        {
          "internalType": "bool",
          "name": "",
          "type": "bool"
        }
      ],
      "stateMutability": "view",
      "type": "function"
    },
    {
      "inputs": [
        {
          "internalType": "uint8",
          "name": "boxType",
          "type": "uint8"
        }
      ],
      "name": "mintNormal",
      "outputs": [
        {
          "internalType": "uint256",
          "name": "",
          "type": "uint256"
        }
      ],
      "stateMutability": "payable",
      "type": "function"
    },
    {
      "inputs": [
        {
          "internalType": "address",
          "name": "_to",
          "type": "address"
        },
        {
          "internalType": "uint8",
          "name": "boxType",
          "type": "uint8"
        }
      ],
      "name": "mintOwner",
      "outputs": [
        {
          "internalType": "uint256",
          "name": "",
          "type": "uint256"
        }
      ],
      "stateMutability": "nonpayable",
      "type": "function"
    },
    {
      "inputs": [
        {
          "internalType": "bytes32",
          "name": "leaf",
          "type": "bytes32"
        },
        {
          "internalType": "bytes32[]",
          "name": "proof",
          "type": "bytes32[]"
        }
      ],
      "name": "mintWhitelist",
      "outputs": [],
      "stateMutability": "payable",
      "type": "function"
    },
    {
      "inputs": [],
      "name": "name",
      "outputs": [
        {
          "internalType": "string",
          "name": "",
          "type": "string"
        }
      ],
      "stateMutability": "view",
      "type": "function"
    },
    {
      "inputs": [],
      "name": "owner",
      "outputs": [
        {
          "internalType": "address",
          "name": "",
          "type": "address"
        }
      ],
      "stateMutability": "view",
      "type": "function"
    },
    {
      "inputs": [
        {
          "internalType": "uint256",
          "name": "tokenId",
          "type": "uint256"
        }
      ],
      "name": "ownerOf",
      "outputs": [
        {
          "internalType": "address",
          "name": "",
          "type": "address"
        }
      ],
      "stateMutability": "view",
      "type": "function"
    },
    {
      "inputs": [],
      "name": "pause",
      "outputs": [
        {
          "internalType": "bool",
          "name": "",
          "type": "bool"
        }
      ],
      "stateMutability": "nonpayable",
      "type": "function"
    },
    {
      "inputs": [],
      "name": "paused",
      "outputs": [
        {
          "internalType": "bool",
          "name": "",
          "type": "bool"
        }
      ],
      "stateMutability": "view",
      "type": "function"
    },
    {
      "inputs": [],
      "name": "renounceOwnership",
      "outputs": [],
      "stateMutability": "nonpayable",
      "type": "function"
    },
    {
      "inputs": [
        {
          "internalType": "address",
          "name": "from",
          "type": "address"
        },
        {
          "internalType": "address",
          "name": "to",
          "type": "address"
        },
        {
          "internalType": "uint256",
          "name": "tokenId",
          "type": "uint256"
        }
      ],
      "name": "safeTransferFrom",
      "outputs": [],
      "stateMutability": "nonpayable",
      "type": "function"
    },
    {
      "inputs": [
        {
          "internalType": "address",
          "name": "from",
          "type": "address"
        },
        {
          "internalType": "address",
          "name": "to",
          "type": "address"
        },
        {
          "internalType": "uint256",
          "name": "tokenId",
          "type": "uint256"
        },
        {
          "internalType": "bytes",
          "name": "_data",
          "type": "bytes"
        }
      ],
      "name": "safeTransferFrom",
      "outputs": [],
      "stateMutability": "nonpayable",
      "type": "function"
    },
    {
      "inputs": [
        {
          "internalType": "address",
          "name": "operator",
          "type": "address"
        },
        {
          "internalType": "bool",
          "name": "approved",
          "type": "bool"
        }
      ],
      "name": "setApprovalForAll",
      "outputs": [],
      "stateMutability": "nonpayable",
      "type": "function"
    },
    {
      "inputs": [],
      "name": "strBaseTokenURI",
      "outputs": [
        {
          "internalType": "string",
          "name": "",
          "type": "string"
        }
      ],
      "stateMutability": "view",
      "type": "function"
    },
    {
      "inputs": [
        {
          "internalType": "bytes4",
          "name": "interfaceId",
          "type": "bytes4"
        }
      ],
      "name": "supportsInterface",
      "outputs": [
        {
          "internalType": "bool",
          "name": "",
          "type": "bool"
        }
      ],
      "stateMutability": "view",
      "type": "function"
    },
    {
      "inputs": [],
      "name": "symbol",
      "outputs": [
        {
          "internalType": "string",
          "name": "",
          "type": "string"
        }
      ],
      "stateMutability": "view",
      "type": "function"
    },
    {
      "inputs": [
        {
          "internalType": "uint256",
          "name": "index",
          "type": "uint256"
        }
      ],
      "name": "tokenByIndex",
      "outputs": [
        {
          "internalType": "uint256",
          "name": "",
          "type": "uint256"
        }
      ],
      "stateMutability": "view",
      "type": "function"
    },
    {
      "inputs": [
        {
          "internalType": "address",
          "name": "owner",
          "type": "address"
        },
        {
          "internalType": "uint256",
          "name": "index",
          "type": "uint256"
        }
      ],
      "name": "tokenOfOwnerByIndex",
      "outputs": [
        {
          "internalType": "uint256",
          "name": "",
          "type": "uint256"
        }
      ],
      "stateMutability": "view",
      "type": "function"
    },
    {
      "inputs": [
        {
          "internalType": "uint256",
          "name": "_tokenId",
          "type": "uint256"
        }
      ],
      "name": "tokenURI",
      "outputs": [
        {
          "internalType": "string",
          "name": "",
          "type": "string"
        }
      ],
      "stateMutability": "view",
      "type": "function"
    },
    {
      "inputs": [],
      "name": "totalSupply",
      "outputs": [
        {
          "internalType": "uint256",
          "name": "",
          "type": "uint256"
        }
      ],
      "stateMutability": "view",
      "type": "function"
    },
    {
      "inputs": [
        {
          "internalType": "address",
          "name": "from",
          "type": "address"
        },
        {
          "internalType": "address",
          "name": "to",
          "type": "address"
        },
        {
          "internalType": "uint256",
          "name": "tokenId",
          "type": "uint256"
        }
      ],
      "name": "transferFrom",
      "outputs": [],
      "stateMutability": "nonpayable",
      "type": "function"
    },
    {
      "inputs": [
        {
          "internalType": "address",
          "name": "newOwner",
          "type": "address"
        }
      ],
      "name": "transferOwnership",
      "outputs": [],
      "stateMutability": "nonpayable",
      "type": "function"
    },
    {
      "inputs": [],
      "name": "unpause",
      "outputs": [
        {
          "internalType": "bool",
          "name": "",
          "type": "bool"
        }
      ],
      "stateMutability": "nonpayable",
      "type": "function"
    },
    {
      "inputs": [
        {
          "internalType": "uint256[]",
          "name": "_newBoxPricesBNB",
          "type": "uint256[]"
        }
      ],
      "name": "updateBoxPricesBNB",
      "outputs": [
        {
          "internalType": "bool",
          "name": "",
          "type": "bool"
        }
      ],
      "stateMutability": "nonpayable",
      "type": "function"
    },
    {
      "inputs": [
        {
          "internalType": "bytes32",
          "name": "leaf",
          "type": "bytes32"
        },
        {
          "internalType": "bytes32[]",
          "name": "proof",
          "type": "bytes32[]"
        }
      ],
      "name": "verifyWhitelist",
      "outputs": [
        {
          "internalType": "bool",
          "name": "",
          "type": "bool"
        }
      ],
      "stateMutability": "view",
      "type": "function"
    },
    {
      "inputs": [
        {
          "internalType": "address",
          "name": "_owner",
          "type": "address"
        }
      ],
      "name": "walletOfOwner",
      "outputs": [
        {
          "internalType": "uint256[]",
          "name": "",
          "type": "uint256[]"
        }
      ],
      "stateMutability": "view",
      "type": "function"
    },
    {
      "inputs": [],
      "name": "whitelistActive",
      "outputs": [
        {
          "internalType": "bool",
          "name": "",
          "type": "bool"
        }
      ],
      "stateMutability": "view",
      "type": "function"
    },
    {
      "inputs": [],
      "name": "whitelistPrice",
      "outputs": [
        {
          "internalType": "uint256",
          "name": "",
          "type": "uint256"
        }
      ],
      "stateMutability": "view",
      "type": "function"
    },
    {
      "inputs": [],
      "name": "withdraw",
      "outputs": [],
      "stateMutability": "nonpayable",
      "type": "function"
    }
  ],
  "bytecode": "0x60806040526040518060600160405280662386f26fc1000066ffffffffffffff16815260200166470de4df82000066ffffffffffffff168152602001666a94d74f43000066ffffffffffffff16815250600d90600362000061929190620002a6565b5066470de4df820000600e556040518060600160405280602a81526020016200530e602a9139600f90805190602001906200009e92919062000303565b506000601060006101000a81548160ff0219169083151502179055507f786cc6a5c4201b7672450409f6a717d0e33e88369e82ed52b453ec0cfcc4b23d60001b601155348015620000ee57600080fd5b506040518060400160405280600681526020017f42757267657200000000000000000000000000000000000000000000000000008152506040518060400160405280600681526020017f425552474552000000000000000000000000000000000000000000000000000081525081600090805190602001906200017392919062000303565b5080600190805190602001906200018c92919062000303565b5050506000600a60006101000a81548160ff021916908315150217905550620001ca620001be620001d860201b60201c565b620001e060201b60201c565b6001600b8190555062000418565b600033905090565b6000600a60019054906101000a900473ffffffffffffffffffffffffffffffffffffffff16905081600a60016101000a81548173ffffffffffffffffffffffffffffffffffffffff021916908373ffffffffffffffffffffffffffffffffffffffff1602179055508173ffffffffffffffffffffffffffffffffffffffff168173ffffffffffffffffffffffffffffffffffffffff167f8be0079c531659141344cd1fd0a4f28419497f9722a3daafe3b4186f6b6457e060405160405180910390a35050565b828054828255906000526020600020908101928215620002f0579160200282015b82811115620002ef578251829066ffffffffffffff16905591602001919060010190620002c7565b5b509050620002ff919062000394565b5090565b8280546200031190620003e2565b90600052602060002090601f01602090048101928262000335576000855562000381565b82601f106200035057805160ff191683800117855562000381565b8280016001018555821562000381579182015b828111156200038057825182559160200191906001019062000363565b5b50905062000390919062000394565b5090565b5b80821115620003af57600081600090555060010162000395565b5090565b7f4e487b7100000000000000000000000000000000000000000000000000000000600052602260045260246000fd5b60006002820490506001821680620003fb57607f821691505b60208210811415620004125762000411620003b3565b5b50919050565b614ee680620004286000396000f3fe60806040526004361061021a5760003560e01c806370a0823111610123578063b88d4fde116100ab578063e40e97a71161006f578063e40e97a714610824578063e985e9c51461084d578063f09542b31461088a578063f2fde38b146108ba578063fc1a1c36146108e35761021a565b8063b88d4fde1461074e578063c0fb5e8f14610777578063c87b56dd14610793578063ca847633146107d0578063d9583b9f146107fb5761021a565b80638cba90b0116100f25780638cba90b0146106555780638da5cb5b1461069257806395d89b41146106bd578063a22cb465146106e8578063a69a6e82146107115761021a565b806370a0823114610599578063715018a6146105d657806379d72794146105ed5780638456cb591461062a5761021a565b8063329ea90d116101a657806342842e0e1161017557806342842e0e1461048e578063438b6300146104b75780634f6ccce7146104f45780635c975abb146105315780636352211e1461055c5761021a565b8063329ea90d146103e65780633ccfd60b146104235780633d59cd601461043a5780633f4ba83a146104635761021a565b8063095ea7b3116101ed578063095ea7b3146102ef578063120f91d51461031857806318160ddd1461035557806323b872dd146103805780632f745c59146103a95761021a565b806301ffc9a71461021f57806302ce58131461025c57806306fdde0314610287578063081812fc146102b2575b600080fd5b34801561022b57600080fd5b50610246600480360381019061024191906133a3565b61090e565b60405161025391906133eb565b60405180910390f35b34801561026857600080fd5b50610271610988565b60405161027e91906133eb565b60405180910390f35b34801561029357600080fd5b5061029c61099b565b6040516102a9919061349f565b60405180910390f35b3480156102be57600080fd5b506102d960048036038101906102d491906134f7565b610a2d565b6040516102e69190613565565b60405180910390f35b3480156102fb57600080fd5b50610316600480360381019061031191906135ac565b610ab2565b005b34801561032457600080fd5b5061033f600480360381019061033a91906134f7565b610bca565b60405161034c91906135fb565b60405180910390f35b34801561036157600080fd5b5061036a610bee565b60405161037791906135fb565b60405180910390f35b34801561038c57600080fd5b506103a760048036038101906103a29190613616565b610bfb565b005b3480156103b557600080fd5b506103d060048036038101906103cb91906135ac565b610c5b565b6040516103dd91906135fb565b60405180910390f35b3480156103f257600080fd5b5061040d600480360381019061040891906137e7565b610d00565b60405161041a91906133eb565b60405180910390f35b34801561042f57600080fd5b50610438610db8565b005b34801561044657600080fd5b50610461600480360381019061045c9190613843565b610e8a565b005b34801561046f57600080fd5b50610478610f10565b60405161048591906133eb565b60405180910390f35b34801561049a57600080fd5b506104b560048036038101906104b09190613616565b610f9d565b005b3480156104c357600080fd5b506104de60048036038101906104d99190613870565b610fbd565b6040516104eb919061395b565b60405180910390f35b34801561050057600080fd5b5061051b600480360381019061051691906134f7565b61106b565b60405161052891906135fb565b60405180910390f35b34801561053d57600080fd5b506105466110dc565b60405161055391906133eb565b60405180910390f35b34801561056857600080fd5b50610583600480360381019061057e91906134f7565b6110f3565b6040516105909190613565565b60405180910390f35b3480156105a557600080fd5b506105c060048036038101906105bb9190613870565b6111a5565b6040516105cd91906135fb565b60405180910390f35b3480156105e257600080fd5b506105eb61125d565b005b3480156105f957600080fd5b50610614600480360381019061060f91906139b6565b6112e5565b60405161062191906135fb565b60405180910390f35b34801561063657600080fd5b5061063f611375565b60405161064c91906133eb565b60405180910390f35b34801561066157600080fd5b5061067c600480360381019061067791906134f7565b611402565b6040516106899190613a05565b60405180910390f35b34801561069e57600080fd5b506106a7611474565b6040516106b49190613565565b60405180910390f35b3480156106c957600080fd5b506106d261149e565b6040516106df919061349f565b60405180910390f35b3480156106f457600080fd5b5061070f600480360381019061070a9190613a4c565b611530565b005b34801561071d57600080fd5b5061073860048036038101906107339190613b4f565b6116b1565b60405161074591906133eb565b60405180910390f35b34801561075a57600080fd5b5061077560048036038101906107709190613c4d565b61174f565b005b610791600480360381019061078c91906137e7565b6117b1565b005b34801561079f57600080fd5b506107ba60048036038101906107b591906134f7565b6119d6565b6040516107c7919061349f565b60405180910390f35b3480156107dc57600080fd5b506107e5611a58565b6040516107f2919061349f565b60405180910390f35b34801561080757600080fd5b50610822600480360381019061081d9190613cd0565b611ae6565b005b34801561083057600080fd5b5061084b60048036038101906108469190613d9e565b611b7f565b005b34801561085957600080fd5b50610874600480360381019061086f9190613de7565b611c15565b60405161088191906133eb565b60405180910390f35b6108a4600480360381019061089f9190613e27565b611ca9565b6040516108b191906135fb565b60405180910390f35b3480156108c657600080fd5b506108e160048036038101906108dc9190613870565b611e87565b005b3480156108ef57600080fd5b506108f8611f7f565b60405161090591906135fb565b60405180910390f35b60007f780e9d63000000000000000000000000000000000000000000000000000000007bffffffffffffffffffffffffffffffffffffffffffffffffffffffff1916827bffffffffffffffffffffffffffffffffffffffffffffffffffffffff19161480610981575061098082611f85565b5b9050919050565b601060009054906101000a900460ff1681565b6060600080546109aa90613e83565b80601f01602080910402602001604051908101604052809291908181526020018280546109d690613e83565b8015610a235780601f106109f857610100808354040283529160200191610a23565b820191906000526020600020905b815481529060010190602001808311610a0657829003601f168201915b5050505050905090565b6000610a3882612067565b610a77576040517f08c379a0000000000000000000000000000000000000000000000000000000008152600401610a6e90613f27565b60405180910390fd5b6004600083815260200190815260200160002060009054906101000a900473ffffffffffffffffffffffffffffffffffffffff169050919050565b6000610abd826110f3565b90508073ffffffffffffffffffffffffffffffffffffffff168373ffffffffffffffffffffffffffffffffffffffff161415610b2e576040517f08c379a0000000000000000000000000000000000000000000000000000000008152600401610b2590613fb9565b60405180910390fd5b8073ffffffffffffffffffffffffffffffffffffffff16610b4d6120d3565b73ffffffffffffffffffffffffffffffffffffffff161480610b7c5750610b7b81610b766120d3565b611c15565b5b610bbb576040517f08c379a0000000000000000000000000000000000000000000000000000000008152600401610bb29061404b565b60405180910390fd5b610bc583836120db565b505050565b600d8181548110610bda57600080fd5b906000526020600020016000915090505481565b6000600880549050905090565b610c0c610c066120d3565b82612194565b610c4b576040517f08c379a0000000000000000000000000000000000000000000000000000000008152600401610c42906140dd565b60405180910390fd5b610c56838383612272565b505050565b6000610c66836111a5565b8210610ca7576040517f08c379a0000000000000000000000000000000000000000000000000000000008152600401610c9e9061416f565b60405180910390fd5b600660008473ffffffffffffffffffffffffffffffffffffffff1673ffffffffffffffffffffffffffffffffffffffff168152602001908152602001600020600083815260200190815260200160002054905092915050565b60008083905060005b8351811015610da9576000848281518110610d2757610d2661418f565b5b6020026020010151905080831015610d69578281604051602001610d4c9291906141df565b604051602081830303815290604052805190602001209250610d95565b8083604051602001610d7c9291906141df565b6040516020818303038152906040528051906020012092505b508080610da19061423a565b915050610d09565b50601154811491505092915050565b610dc06120d3565b73ffffffffffffffffffffffffffffffffffffffff16610dde611474565b73ffffffffffffffffffffffffffffffffffffffff1614610e34576040517f08c379a0000000000000000000000000000000000000000000000000000000008152600401610e2b906142cf565b60405180910390fd5b6000479050610e41611474565b73ffffffffffffffffffffffffffffffffffffffff166108fc829081150290604051600060405180830381858888f19350505050158015610e86573d6000803e3d6000fd5b5050565b610e926120d3565b73ffffffffffffffffffffffffffffffffffffffff16610eb0611474565b73ffffffffffffffffffffffffffffffffffffffff1614610f06576040517f08c379a0000000000000000000000000000000000000000000000000000000008152600401610efd906142cf565b60405180910390fd5b8060118190555050565b6000610f1a6120d3565b73ffffffffffffffffffffffffffffffffffffffff16610f38611474565b73ffffffffffffffffffffffffffffffffffffffff1614610f8e576040517f08c379a0000000000000000000000000000000000000000000000000000000008152600401610f85906142cf565b60405180910390fd5b610f966124ce565b6001905090565b610fb88383836040518060200160405280600081525061174f565b505050565b60606000610fca836111a5565b905060008167ffffffffffffffff811115610fe857610fe76136a4565b5b6040519080825280602002602001820160405280156110165781602001602082028036833780820191505090505b50905060005b828110156110605761102e8582610c5b565b8282815181106110415761104061418f565b5b60200260200101818152505080806110589061423a565b91505061101c565b508092505050919050565b6000611075610bee565b82106110b6576040517f08c379a00000000000000000000000000000000000000000000000000000000081526004016110ad90614361565b60405180910390fd5b600882815481106110ca576110c961418f565b5b90600052602060002001549050919050565b6000600a60009054906101000a900460ff16905090565b6000806002600084815260200190815260200160002060009054906101000a900473ffffffffffffffffffffffffffffffffffffffff169050600073ffffffffffffffffffffffffffffffffffffffff168173ffffffffffffffffffffffffffffffffffffffff16141561119c576040517f08c379a0000000000000000000000000000000000000000000000000000000008152600401611193906143f3565b60405180910390fd5b80915050919050565b60008073ffffffffffffffffffffffffffffffffffffffff168273ffffffffffffffffffffffffffffffffffffffff161415611216576040517f08c379a000000000000000000000000000000000000000000000000000000000815260040161120d90614485565b60405180910390fd5b600360008373ffffffffffffffffffffffffffffffffffffffff1673ffffffffffffffffffffffffffffffffffffffff168152602001908152602001600020549050919050565b6112656120d3565b73ffffffffffffffffffffffffffffffffffffffff16611283611474565b73ffffffffffffffffffffffffffffffffffffffff16146112d9576040517f08c379a00000000000000000000000000000000000000000000000000000000081526004016112d0906142cf565b60405180910390fd5b6112e36000612570565b565b60006112ef6120d3565b73ffffffffffffffffffffffffffffffffffffffff1661130d611474565b73ffffffffffffffffffffffffffffffffffffffff1614611363576040517f08c379a000000000000000000000000000000000000000000000000000000000815260040161135a906142cf565b60405180910390fd5b61136d8383612636565b905092915050565b600061137f6120d3565b73ffffffffffffffffffffffffffffffffffffffff1661139d611474565b73ffffffffffffffffffffffffffffffffffffffff16146113f3576040517f08c379a00000000000000000000000000000000000000000000000000000000081526004016113ea906142cf565b60405180910390fd5b6113fb6126db565b6001905090565b600061140d82612067565b61144c576040517f08c379a0000000000000000000000000000000000000000000000000000000008152600401611443906144f1565b60405180910390fd5b600c600083815260200190815260200160002060009054906101000a900460ff169050919050565b6000600a60019054906101000a900473ffffffffffffffffffffffffffffffffffffffff16905090565b6060600180546114ad90613e83565b80601f01602080910402602001604051908101604052809291908181526020018280546114d990613e83565b80156115265780601f106114fb57610100808354040283529160200191611526565b820191906000526020600020905b81548152906001019060200180831161150957829003601f168201915b5050505050905090565b6115386120d3565b73ffffffffffffffffffffffffffffffffffffffff168273ffffffffffffffffffffffffffffffffffffffff1614156115a6576040517f08c379a000000000000000000000000000000000000000000000000000000000815260040161159d9061455d565b60405180910390fd5b80600560006115b36120d3565b73ffffffffffffffffffffffffffffffffffffffff1673ffffffffffffffffffffffffffffffffffffffff16815260200190815260200160002060008473ffffffffffffffffffffffffffffffffffffffff1673ffffffffffffffffffffffffffffffffffffffff16815260200190815260200160002060006101000a81548160ff0219169083151502179055508173ffffffffffffffffffffffffffffffffffffffff166116606120d3565b73ffffffffffffffffffffffffffffffffffffffff167f17307eab39ab6107e8899845ad3d59bd9653f200f220920489ca2b5937696c31836040516116a591906133eb565b60405180910390a35050565b60006116bb6120d3565b73ffffffffffffffffffffffffffffffffffffffff166116d9611474565b73ffffffffffffffffffffffffffffffffffffffff161461172f576040517f08c379a0000000000000000000000000000000000000000000000000000000008152600401611726906142cf565b60405180910390fd5b81600d9080519060200190611745929190613247565b5060019050919050565b61176061175a6120d3565b83612194565b61179f576040517f08c379a0000000000000000000000000000000000000000000000000000000008152600401611796906140dd565b60405180910390fd5b6117ab8484848461277e565b50505050565b6117b96110dc565b156117f9576040517f08c379a00000000000000000000000000000000000000000000000000000000081526004016117f0906145c9565b60405180910390fd5b6002600b54141561183f576040517f08c379a000000000000000000000000000000000000000000000000000000000815260040161183690614635565b60405180910390fd5b6002600b81905550601060009054906101000a900460ff16611896576040517f08c379a000000000000000000000000000000000000000000000000000000000815260040161188d906146a1565b60405180910390fd5b600d6001815481106118ab576118aa61418f565b5b90600052602060002001543410156118f8576040517f08c379a00000000000000000000000000000000000000000000000000000000081526004016118ef9061470d565b60405180910390fd5b60006119048383610d00565b9050801561191d57611917336002612636565b50611958565b6040517f08c379a000000000000000000000000000000000000000000000000000000000815260040161194f90614779565b60405180910390fd5b3373ffffffffffffffffffffffffffffffffffffffff166108fc600d6001815481106119875761198661418f565b5b90600052602060002001543461199d9190614799565b9081150290604051600060405180830381858888f193505050501580156119c8573d6000803e3d6000fd5b50506001600b819055505050565b60606119e182612067565b611a20576040517f08c379a0000000000000000000000000000000000000000000000000000000008152600401611a17906144f1565b60405180910390fd5b611a286127da565b611a318361286c565b604051602001611a42929190614809565b6040516020818303038152906040529050919050565b600f8054611a6590613e83565b80601f0160208091040260200160405190810160405280929190818152602001828054611a9190613e83565b8015611ade5780601f10611ab357610100808354040283529160200191611ade565b820191906000526020600020905b815481529060010190602001808311611ac157829003601f168201915b505050505081565b611aee6120d3565b73ffffffffffffffffffffffffffffffffffffffff16611b0c611474565b73ffffffffffffffffffffffffffffffffffffffff1614611b62576040517f08c379a0000000000000000000000000000000000000000000000000000000008152600401611b59906142cf565b60405180910390fd5b80601060006101000a81548160ff02191690831515021790555050565b611b876120d3565b73ffffffffffffffffffffffffffffffffffffffff16611ba5611474565b73ffffffffffffffffffffffffffffffffffffffff1614611bfb576040517f08c379a0000000000000000000000000000000000000000000000000000000008152600401611bf2906142cf565b60405180910390fd5b80600f9080519060200190611c11929190613294565b5050565b6000600560008473ffffffffffffffffffffffffffffffffffffffff1673ffffffffffffffffffffffffffffffffffffffff16815260200190815260200160002060008373ffffffffffffffffffffffffffffffffffffffff1673ffffffffffffffffffffffffffffffffffffffff16815260200190815260200160002060009054906101000a900460ff16905092915050565b6000611cb36110dc565b15611cf3576040517f08c379a0000000000000000000000000000000000000000000000000000000008152600401611cea906145c9565b60405180910390fd5b6002600b541415611d39576040517f08c379a0000000000000000000000000000000000000000000000000000000008152600401611d3090614635565b60405180910390fd5b6002600b81905550601060009054906101000a900460ff1615611d91576040517f08c379a0000000000000000000000000000000000000000000000000000000008152600401611d8890614879565b60405180910390fd5b600d8260ff1681548110611da857611da761418f565b5b9060005260206000200154341015611df5576040517f08c379a0000000000000000000000000000000000000000000000000000000008152600401611dec9061470d565b60405180910390fd5b6000611e013384612636565b90503373ffffffffffffffffffffffffffffffffffffffff166108fc600d8560ff1681548110611e3457611e3361418f565b5b906000526020600020015434611e4a9190614799565b9081150290604051600060405180830381858888f19350505050158015611e75573d6000803e3d6000fd5b50809150506001600b81905550919050565b611e8f6120d3565b73ffffffffffffffffffffffffffffffffffffffff16611ead611474565b73ffffffffffffffffffffffffffffffffffffffff1614611f03576040517f08c379a0000000000000000000000000000000000000000000000000000000008152600401611efa906142cf565b60405180910390fd5b600073ffffffffffffffffffffffffffffffffffffffff168173ffffffffffffffffffffffffffffffffffffffff161415611f73576040517f08c379a0000000000000000000000000000000000000000000000000000000008152600401611f6a9061490b565b60405180910390fd5b611f7c81612570565b50565b600e5481565b60007f80ac58cd000000000000000000000000000000000000000000000000000000007bffffffffffffffffffffffffffffffffffffffffffffffffffffffff1916827bffffffffffffffffffffffffffffffffffffffffffffffffffffffff1916148061205057507f5b5e139f000000000000000000000000000000000000000000000000000000007bffffffffffffffffffffffffffffffffffffffffffffffffffffffff1916827bffffffffffffffffffffffffffffffffffffffffffffffffffffffff1916145b80612060575061205f826129cd565b5b9050919050565b60008073ffffffffffffffffffffffffffffffffffffffff166002600084815260200190815260200160002060009054906101000a900473ffffffffffffffffffffffffffffffffffffffff1673ffffffffffffffffffffffffffffffffffffffff1614159050919050565b600033905090565b816004600083815260200190815260200160002060006101000a81548173ffffffffffffffffffffffffffffffffffffffff021916908373ffffffffffffffffffffffffffffffffffffffff160217905550808273ffffffffffffffffffffffffffffffffffffffff1661214e836110f3565b73ffffffffffffffffffffffffffffffffffffffff167f8c5be1e5ebec7d5bd14f71427d1e84f3dd0314c0f7b2291e5b200ac8c7c3b92560405160405180910390a45050565b600061219f82612067565b6121de576040517f08c379a00000000000000000000000000000000000000000000000000000000081526004016121d59061499d565b60405180910390fd5b60006121e9836110f3565b90508073ffffffffffffffffffffffffffffffffffffffff168473ffffffffffffffffffffffffffffffffffffffff16148061225857508373ffffffffffffffffffffffffffffffffffffffff1661224084610a2d565b73ffffffffffffffffffffffffffffffffffffffff16145b8061226957506122688185611c15565b5b91505092915050565b8273ffffffffffffffffffffffffffffffffffffffff16612292826110f3565b73ffffffffffffffffffffffffffffffffffffffff16146122e8576040517f08c379a00000000000000000000000000000000000000000000000000000000081526004016122df90614a2f565b60405180910390fd5b600073ffffffffffffffffffffffffffffffffffffffff168273ffffffffffffffffffffffffffffffffffffffff161415612358576040517f08c379a000000000000000000000000000000000000000000000000000000000815260040161234f90614ac1565b60405180910390fd5b612363838383612a37565b61236e6000826120db565b6001600360008573ffffffffffffffffffffffffffffffffffffffff1673ffffffffffffffffffffffffffffffffffffffff16815260200190815260200160002060008282546123be9190614799565b925050819055506001600360008473ffffffffffffffffffffffffffffffffffffffff1673ffffffffffffffffffffffffffffffffffffffff16815260200190815260200160002060008282546124159190614ae1565b92505081905550816002600083815260200190815260200160002060006101000a81548173ffffffffffffffffffffffffffffffffffffffff021916908373ffffffffffffffffffffffffffffffffffffffff160217905550808273ffffffffffffffffffffffffffffffffffffffff168473ffffffffffffffffffffffffffffffffffffffff167fddf252ad1be2c89b69c2b068fc378daa952ba7f163c4a11628f55a4df523b3ef60405160405180910390a4505050565b6124d66110dc565b612515576040517f08c379a000000000000000000000000000000000000000000000000000000000815260040161250c90614b83565b60405180910390fd5b6000600a60006101000a81548160ff0219169083151502179055507f5db9ee0a495bf2e6ff9c91a7834c1ba4fdd244a5e8aa4e537bd38aeae4b073aa6125596120d3565b6040516125669190613565565b60405180910390a1565b6000600a60019054906101000a900473ffffffffffffffffffffffffffffffffffffffff16905081600a60016101000a81548173ffffffffffffffffffffffffffffffffffffffff021916908373ffffffffffffffffffffffffffffffffffffffff1602179055508173ffffffffffffffffffffffffffffffffffffffff168173ffffffffffffffffffffffffffffffffffffffff167f8be0079c531659141344cd1fd0a4f28419497f9722a3daafe3b4186f6b6457e060405160405180910390a35050565b600061264983612644610bee565b612b4b565b81600c6000612656610bee565b815260200190815260200160002060006101000a81548160ff021916908360ff1602179055508160ff16612688610bee565b8473ffffffffffffffffffffffffffffffffffffffff167faabcc1eb354f11e651c87f835e7de6ac847d514718ed76fad480d55d2632992260405160405180910390a46126d3610bee565b905092915050565b6126e36110dc565b15612723576040517f08c379a000000000000000000000000000000000000000000000000000000000815260040161271a906145c9565b60405180910390fd5b6001600a60006101000a81548160ff0219169083151502179055507f62e78cea01bee320cd4e420270b5ea74000d11b0c9f74754ebdbfc544b05a2586127676120d3565b6040516127749190613565565b60405180910390a1565b612789848484612272565b61279584848484612b69565b6127d4576040517f08c379a00000000000000000000000000000000000000000000000000000000081526004016127cb90614c15565b60405180910390fd5b50505050565b6060600f80546127e990613e83565b80601f016020809104026020016040519081016040528092919081815260200182805461281590613e83565b80156128625780601f1061283757610100808354040283529160200191612862565b820191906000526020600020905b81548152906001019060200180831161284557829003601f168201915b5050505050905090565b606060008214156128b4576040518060400160405280600181526020017f300000000000000000000000000000000000000000000000000000000000000081525090506129c8565b600082905060005b600082146128e65780806128cf9061423a565b915050600a826128df9190614c64565b91506128bc565b60008167ffffffffffffffff811115612902576129016136a4565b5b6040519080825280601f01601f1916602001820160405280156129345781602001600182028036833780820191505090505b5090505b600085146129c15760018261294d9190614799565b9150600a8561295c9190614c95565b60306129689190614ae1565b60f81b81838151811061297e5761297d61418f565b5b60200101907effffffffffffffffffffffffffffffffffffffffffffffffffffffffffffff1916908160001a905350600a856129ba9190614c64565b9450612938565b8093505050505b919050565b60007f01ffc9a7000000000000000000000000000000000000000000000000000000007bffffffffffffffffffffffffffffffffffffffffffffffffffffffff1916827bffffffffffffffffffffffffffffffffffffffffffffffffffffffff1916149050919050565b612a42838383612d00565b600073ffffffffffffffffffffffffffffffffffffffff168373ffffffffffffffffffffffffffffffffffffffff161415612a8557612a8081612d05565b612ac4565b8173ffffffffffffffffffffffffffffffffffffffff168373ffffffffffffffffffffffffffffffffffffffff1614612ac357612ac28382612d4e565b5b5b600073ffffffffffffffffffffffffffffffffffffffff168273ffffffffffffffffffffffffffffffffffffffff161415612b0757612b0281612ebb565b612b46565b8273ffffffffffffffffffffffffffffffffffffffff168273ffffffffffffffffffffffffffffffffffffffff1614612b4557612b448282612f8c565b5b5b505050565b612b6582826040518060200160405280600081525061300b565b5050565b6000612b8a8473ffffffffffffffffffffffffffffffffffffffff16613066565b15612cf3578373ffffffffffffffffffffffffffffffffffffffff1663150b7a02612bb36120d3565b8786866040518563ffffffff1660e01b8152600401612bd59493929190614d1b565b602060405180830381600087803b158015612bef57600080fd5b505af1925050508015612c2057506040513d601f19601f82011682018060405250810190612c1d9190614d7c565b60015b612ca3573d8060008114612c50576040519150601f19603f3d011682016040523d82523d6000602084013e612c55565b606091505b50600081511415612c9b576040517f08c379a0000000000000000000000000000000000000000000000000000000008152600401612c9290614c15565b60405180910390fd5b805181602001fd5b63150b7a0260e01b7bffffffffffffffffffffffffffffffffffffffffffffffffffffffff1916817bffffffffffffffffffffffffffffffffffffffffffffffffffffffff191614915050612cf8565b600190505b949350505050565b505050565b6008805490506009600083815260200190815260200160002081905550600881908060018154018082558091505060019003906000526020600020016000909190919091505550565b60006001612d5b846111a5565b612d659190614799565b9050600060076000848152602001908152602001600020549050818114612e4a576000600660008673ffffffffffffffffffffffffffffffffffffffff1673ffffffffffffffffffffffffffffffffffffffff168152602001908152602001600020600084815260200190815260200160002054905080600660008773ffffffffffffffffffffffffffffffffffffffff1673ffffffffffffffffffffffffffffffffffffffff168152602001908152602001600020600084815260200190815260200160002081905550816007600083815260200190815260200160002081905550505b6007600084815260200190815260200160002060009055600660008573ffffffffffffffffffffffffffffffffffffffff1673ffffffffffffffffffffffffffffffffffffffff16815260200190815260200160002060008381526020019081526020016000206000905550505050565b60006001600880549050612ecf9190614799565b9050600060096000848152602001908152602001600020549050600060088381548110612eff57612efe61418f565b5b906000526020600020015490508060088381548110612f2157612f2061418f565b5b906000526020600020018190555081600960008381526020019081526020016000208190555060096000858152602001908152602001600020600090556008805480612f7057612f6f614da9565b5b6001900381819060005260206000200160009055905550505050565b6000612f97836111a5565b905081600660008573ffffffffffffffffffffffffffffffffffffffff1673ffffffffffffffffffffffffffffffffffffffff168152602001908152602001600020600083815260200190815260200160002081905550806007600084815260200190815260200160002081905550505050565b6130158383613079565b6130226000848484612b69565b613061576040517f08c379a000000000000000000000000000000000000000000000000000000000815260040161305890614c15565b60405180910390fd5b505050565b600080823b905060008111915050919050565b600073ffffffffffffffffffffffffffffffffffffffff168273ffffffffffffffffffffffffffffffffffffffff1614156130e9576040517f08c379a00000000000000000000000000000000000000000000000000000000081526004016130e090614e24565b60405180910390fd5b6130f281612067565b15613132576040517f08c379a000000000000000000000000000000000000000000000000000000000815260040161312990614e90565b60405180910390fd5b61313e60008383612a37565b6001600360008473ffffffffffffffffffffffffffffffffffffffff1673ffffffffffffffffffffffffffffffffffffffff168152602001908152602001600020600082825461318e9190614ae1565b92505081905550816002600083815260200190815260200160002060006101000a81548173ffffffffffffffffffffffffffffffffffffffff021916908373ffffffffffffffffffffffffffffffffffffffff160217905550808273ffffffffffffffffffffffffffffffffffffffff16600073ffffffffffffffffffffffffffffffffffffffff167fddf252ad1be2c89b69c2b068fc378daa952ba7f163c4a11628f55a4df523b3ef60405160405180910390a45050565b828054828255906000526020600020908101928215613283579160200282015b82811115613282578251825591602001919060010190613267565b5b509050613290919061331a565b5090565b8280546132a090613e83565b90600052602060002090601f0160209004810192826132c25760008555613309565b82601f106132db57805160ff1916838001178555613309565b82800160010185558215613309579182015b828111156133085782518255916020019190600101906132ed565b5b509050613316919061331a565b5090565b5b8082111561333357600081600090555060010161331b565b5090565b6000604051905090565b600080fd5b600080fd5b60007fffffffff0000000000000000000000000000000000000000000000000000000082169050919050565b6133808161334b565b811461338b57600080fd5b50565b60008135905061339d81613377565b92915050565b6000602082840312156133b9576133b8613341565b5b60006133c78482850161338e565b91505092915050565b60008115159050919050565b6133e5816133d0565b82525050565b600060208201905061340060008301846133dc565b92915050565b600081519050919050565b600082825260208201905092915050565b60005b83811015613440578082015181840152602081019050613425565b8381111561344f576000848401525b50505050565b6000601f19601f8301169050919050565b600061347182613406565b61347b8185613411565b935061348b818560208601613422565b61349481613455565b840191505092915050565b600060208201905081810360008301526134b98184613466565b905092915050565b6000819050919050565b6134d4816134c1565b81146134df57600080fd5b50565b6000813590506134f1816134cb565b92915050565b60006020828403121561350d5761350c613341565b5b600061351b848285016134e2565b91505092915050565b600073ffffffffffffffffffffffffffffffffffffffff82169050919050565b600061354f82613524565b9050919050565b61355f81613544565b82525050565b600060208201905061357a6000830184613556565b92915050565b61358981613544565b811461359457600080fd5b50565b6000813590506135a681613580565b92915050565b600080604083850312156135c3576135c2613341565b5b60006135d185828601613597565b92505060206135e2858286016134e2565b9150509250929050565b6135f5816134c1565b82525050565b600060208201905061361060008301846135ec565b92915050565b60008060006060848603121561362f5761362e613341565b5b600061363d86828701613597565b935050602061364e86828701613597565b925050604061365f868287016134e2565b9150509250925092565b6000819050919050565b61367c81613669565b811461368757600080fd5b50565b60008135905061369981613673565b92915050565b600080fd5b7f4e487b7100000000000000000000000000000000000000000000000000000000600052604160045260246000fd5b6136dc82613455565b810181811067ffffffffffffffff821117156136fb576136fa6136a4565b5b80604052505050565b600061370e613337565b905061371a82826136d3565b919050565b600067ffffffffffffffff82111561373a576137396136a4565b5b602082029050602081019050919050565b600080fd5b600061376361375e8461371f565b613704565b905080838252602082019050602084028301858111156137865761378561374b565b5b835b818110156137af578061379b888261368a565b845260208401935050602081019050613788565b5050509392505050565b600082601f8301126137ce576137cd61369f565b5b81356137de848260208601613750565b91505092915050565b600080604083850312156137fe576137fd613341565b5b600061380c8582860161368a565b925050602083013567ffffffffffffffff81111561382d5761382c613346565b5b613839858286016137b9565b9150509250929050565b60006020828403121561385957613858613341565b5b60006138678482850161368a565b91505092915050565b60006020828403121561388657613885613341565b5b600061389484828501613597565b91505092915050565b600081519050919050565b600082825260208201905092915050565b6000819050602082019050919050565b6138d2816134c1565b82525050565b60006138e483836138c9565b60208301905092915050565b6000602082019050919050565b60006139088261389d565b61391281856138a8565b935061391d836138b9565b8060005b8381101561394e57815161393588826138d8565b9750613940836138f0565b925050600181019050613921565b5085935050505092915050565b6000602082019050818103600083015261397581846138fd565b905092915050565b600060ff82169050919050565b6139938161397d565b811461399e57600080fd5b50565b6000813590506139b08161398a565b92915050565b600080604083850312156139cd576139cc613341565b5b60006139db85828601613597565b92505060206139ec858286016139a1565b9150509250929050565b6139ff8161397d565b82525050565b6000602082019050613a1a60008301846139f6565b92915050565b613a29816133d0565b8114613a3457600080fd5b50565b600081359050613a4681613a20565b92915050565b60008060408385031215613a6357613a62613341565b5b6000613a7185828601613597565b9250506020613a8285828601613a37565b9150509250929050565b600067ffffffffffffffff821115613aa757613aa66136a4565b5b602082029050602081019050919050565b6000613acb613ac684613a8c565b613704565b90508083825260208201905060208402830185811115613aee57613aed61374b565b5b835b81811015613b175780613b0388826134e2565b845260208401935050602081019050613af0565b5050509392505050565b600082601f830112613b3657613b3561369f565b5b8135613b46848260208601613ab8565b91505092915050565b600060208284031215613b6557613b64613341565b5b600082013567ffffffffffffffff811115613b8357613b82613346565b5b613b8f84828501613b21565b91505092915050565b600080fd5b600067ffffffffffffffff821115613bb857613bb76136a4565b5b613bc182613455565b9050602081019050919050565b82818337600083830152505050565b6000613bf0613beb84613b9d565b613704565b905082815260208101848484011115613c0c57613c0b613b98565b5b613c17848285613bce565b509392505050565b600082601f830112613c3457613c3361369f565b5b8135613c44848260208601613bdd565b91505092915050565b60008060008060808587031215613c6757613c66613341565b5b6000613c7587828801613597565b9450506020613c8687828801613597565b9350506040613c97878288016134e2565b925050606085013567ffffffffffffffff811115613cb857613cb7613346565b5b613cc487828801613c1f565b91505092959194509250565b600060208284031215613ce657613ce5613341565b5b6000613cf484828501613a37565b91505092915050565b600067ffffffffffffffff821115613d1857613d176136a4565b5b613d2182613455565b9050602081019050919050565b6000613d41613d3c84613cfd565b613704565b905082815260208101848484011115613d5d57613d5c613b98565b5b613d68848285613bce565b509392505050565b600082601f830112613d8557613d8461369f565b5b8135613d95848260208601613d2e565b91505092915050565b600060208284031215613db457613db3613341565b5b600082013567ffffffffffffffff811115613dd257613dd1613346565b5b613dde84828501613d70565b91505092915050565b60008060408385031215613dfe57613dfd613341565b5b6000613e0c85828601613597565b9250506020613e1d85828601613597565b9150509250929050565b600060208284031215613e3d57613e3c613341565b5b6000613e4b848285016139a1565b91505092915050565b7f4e487b7100000000000000000000000000000000000000000000000000000000600052602260045260246000fd5b60006002820490506001821680613e9b57607f821691505b60208210811415613eaf57613eae613e54565b5b50919050565b7f4552433732313a20617070726f76656420717565727920666f72206e6f6e657860008201527f697374656e7420746f6b656e0000000000000000000000000000000000000000602082015250565b6000613f11602c83613411565b9150613f1c82613eb5565b604082019050919050565b60006020820190508181036000830152613f4081613f04565b9050919050565b7f4552433732313a20617070726f76616c20746f2063757272656e74206f776e6560008201527f7200000000000000000000000000000000000000000000000000000000000000602082015250565b6000613fa3602183613411565b9150613fae82613f47565b604082019050919050565b60006020820190508181036000830152613fd281613f96565b9050919050565b7f4552433732313a20617070726f76652063616c6c6572206973206e6f74206f7760008201527f6e6572206e6f7220617070726f76656420666f7220616c6c0000000000000000602082015250565b6000614035603883613411565b915061404082613fd9565b604082019050919050565b6000602082019050818103600083015261406481614028565b9050919050565b7f4552433732313a207472616e736665722063616c6c6572206973206e6f74206f60008201527f776e6572206e6f7220617070726f766564000000000000000000000000000000602082015250565b60006140c7603183613411565b91506140d28261406b565b604082019050919050565b600060208201905081810360008301526140f6816140ba565b9050919050565b7f455243373231456e756d657261626c653a206f776e657220696e646578206f7560008201527f74206f6620626f756e6473000000000000000000000000000000000000000000602082015250565b6000614159602b83613411565b9150614164826140fd565b604082019050919050565b600060208201905081810360008301526141888161414c565b9050919050565b7f4e487b7100000000000000000000000000000000000000000000000000000000600052603260045260246000fd5b6000819050919050565b6141d96141d482613669565b6141be565b82525050565b60006141eb82856141c8565b6020820191506141fb82846141c8565b6020820191508190509392505050565b7f4e487b7100000000000000000000000000000000000000000000000000000000600052601160045260246000fd5b6000614245826134c1565b91507fffffffffffffffffffffffffffffffffffffffffffffffffffffffffffffffff8214156142785761427761420b565b5b600182019050919050565b7f4f776e61626c653a2063616c6c6572206973206e6f7420746865206f776e6572600082015250565b60006142b9602083613411565b91506142c482614283565b602082019050919050565b600060208201905081810360008301526142e8816142ac565b9050919050565b7f455243373231456e756d657261626c653a20676c6f62616c20696e646578206f60008201527f7574206f6620626f756e64730000000000000000000000000000000000000000602082015250565b600061434b602c83613411565b9150614356826142ef565b604082019050919050565b6000602082019050818103600083015261437a8161433e565b9050919050565b7f4552433732313a206f776e657220717565727920666f72206e6f6e657869737460008201527f656e7420746f6b656e0000000000000000000000000000000000000000000000602082015250565b60006143dd602983613411565b91506143e882614381565b604082019050919050565b6000602082019050818103600083015261440c816143d0565b9050919050565b7f4552433732313a2062616c616e636520717565727920666f7220746865207a6560008201527f726f206164647265737300000000000000000000000000000000000000000000602082015250565b600061446f602a83613411565b915061447a82614413565b604082019050919050565b6000602082019050818103600083015261449e81614462565b9050919050565b7f546f6b656e20646f6573206e6f74206578697374000000000000000000000000600082015250565b60006144db601483613411565b91506144e6826144a5565b602082019050919050565b6000602082019050818103600083015261450a816144ce565b9050919050565b7f4552433732313a20617070726f766520746f2063616c6c657200000000000000600082015250565b6000614547601983613411565b915061455282614511565b602082019050919050565b600060208201905081810360008301526145768161453a565b9050919050565b7f5061757361626c653a2070617573656400000000000000000000000000000000600082015250565b60006145b3601083613411565b91506145be8261457d565b602082019050919050565b600060208201905081810360008301526145e2816145a6565b9050919050565b7f5265656e7472616e637947756172643a207265656e7472616e742063616c6c00600082015250565b600061461f601f83613411565b915061462a826145e9565b602082019050919050565b6000602082019050818103600083015261464e81614612565b9050919050565b7f57686974656c697374206973206e6f7420616374697665000000000000000000600082015250565b600061468b601783613411565b915061469682614655565b602082019050919050565b600060208201905081810360008301526146ba8161467e565b9050919050565b7f4e6f7420656e6f7567687420424e420000000000000000000000000000000000600082015250565b60006146f7600f83613411565b9150614702826146c1565b602082019050919050565b60006020820190508181036000830152614726816146ea565b9050919050565b7f4e6f742077686974656c69737465640000000000000000000000000000000000600082015250565b6000614763600f83613411565b915061476e8261472d565b602082019050919050565b6000602082019050818103600083015261479281614756565b9050919050565b60006147a4826134c1565b91506147af836134c1565b9250828210156147c2576147c161420b565b5b828203905092915050565b600081905092915050565b60006147e382613406565b6147ed81856147cd565b93506147fd818560208601613422565b80840191505092915050565b600061481582856147d8565b915061482182846147d8565b91508190509392505050565b7f57686974656c6973742069732061637469766500000000000000000000000000600082015250565b6000614863601383613411565b915061486e8261482d565b602082019050919050565b6000602082019050818103600083015261489281614856565b9050919050565b7f4f776e61626c653a206e6577206f776e657220697320746865207a65726f206160008201527f6464726573730000000000000000000000000000000000000000000000000000602082015250565b60006148f5602683613411565b915061490082614899565b604082019050919050565b60006020820190508181036000830152614924816148e8565b9050919050565b7f4552433732313a206f70657261746f7220717565727920666f72206e6f6e657860008201527f697374656e7420746f6b656e0000000000000000000000000000000000000000602082015250565b6000614987602c83613411565b91506149928261492b565b604082019050919050565b600060208201905081810360008301526149b68161497a565b9050919050565b7f4552433732313a207472616e73666572206f6620746f6b656e2074686174206960008201527f73206e6f74206f776e0000000000000000000000000000000000000000000000602082015250565b6000614a19602983613411565b9150614a24826149bd565b604082019050919050565b60006020820190508181036000830152614a4881614a0c565b9050919050565b7f4552433732313a207472616e7366657220746f20746865207a65726f2061646460008201527f7265737300000000000000000000000000000000000000000000000000000000602082015250565b6000614aab602483613411565b9150614ab682614a4f565b604082019050919050565b60006020820190508181036000830152614ada81614a9e565b9050919050565b6000614aec826134c1565b9150614af7836134c1565b9250827fffffffffffffffffffffffffffffffffffffffffffffffffffffffffffffffff03821115614b2c57614b2b61420b565b5b828201905092915050565b7f5061757361626c653a206e6f7420706175736564000000000000000000000000600082015250565b6000614b6d601483613411565b9150614b7882614b37565b602082019050919050565b60006020820190508181036000830152614b9c81614b60565b9050919050565b7f4552433732313a207472616e7366657220746f206e6f6e20455243373231526560008201527f63656976657220696d706c656d656e7465720000000000000000000000000000602082015250565b6000614bff603283613411565b9150614c0a82614ba3565b604082019050919050565b60006020820190508181036000830152614c2e81614bf2565b9050919050565b7f4e487b7100000000000000000000000000000000000000000000000000000000600052601260045260246000fd5b6000614c6f826134c1565b9150614c7a836134c1565b925082614c8a57614c89614c35565b5b828204905092915050565b6000614ca0826134c1565b9150614cab836134c1565b925082614cbb57614cba614c35565b5b828206905092915050565b600081519050919050565b600082825260208201905092915050565b6000614ced82614cc6565b614cf78185614cd1565b9350614d07818560208601613422565b614d1081613455565b840191505092915050565b6000608082019050614d306000830187613556565b614d3d6020830186613556565b614d4a60408301856135ec565b8181036060830152614d5c8184614ce2565b905095945050505050565b600081519050614d7681613377565b92915050565b600060208284031215614d9257614d91613341565b5b6000614da084828501614d67565b91505092915050565b7f4e487b7100000000000000000000000000000000000000000000000000000000600052603160045260246000fd5b7f4552433732313a206d696e7420746f20746865207a65726f2061646472657373600082015250565b6000614e0e602083613411565b9150614e1982614dd8565b602082019050919050565b60006020820190508181036000830152614e3d81614e01565b9050919050565b7f4552433732313a20746f6b656e20616c7265616479206d696e74656400000000600082015250565b6000614e7a601c83613411565b9150614e8582614e44565b602082019050919050565b60006020820190508181036000830152614ea981614e6d565b905091905056fea2646970667358221220e6467b05a27a9468b48d5dc18c7c80455ae7664b39ea6c0514e085992d0c180c64736f6c6343000809003368747470733a2f2f6261636b656e642e63727970746f627572676572732e696f2f6d657461646174612f",
  "linkReferences": {},
  "deployedLinkReferences": {}
}