{
  "_format": "hh-sol-artifact-1",
  "contractName": "Burger",
  "sourceName": "contracts/Burguer.sol",
  "abi": [
    {
      "inputs": [],
      "stateMutability": "nonpayable",
      "type": "constructor"
    },
    {
      "anonymous": false,
      "inputs": [
        {
          "indexed": true,
          "internalType": "address",
          "name": "owner",
          "type": "address"
        },
        {
          "indexed": true,
          "internalType": "address",
          "name": "approved",
          "type": "address"
        },
        {
          "indexed": true,
          "internalType": "uint256",
          "name": "tokenId",
          "type": "uint256"
        }
      ],
      "name": "Approval",
      "type": "event"
    },
    {
      "anonymous": false,
      "inputs": [
        {
          "indexed": true,
          "internalType": "address",
          "name": "owner",
          "type": "address"
        },
        {
          "indexed": true,
          "internalType": "address",
          "name": "operator",
          "type": "address"
        },
        {
          "indexed": false,
          "internalType": "bool",
          "name": "approved",
          "type": "bool"
        }
      ],
      "name": "ApprovalForAll",
      "type": "event"
    },
    {
      "anonymous": false,
      "inputs": [
        {
          "indexed": true,
          "internalType": "address",
          "name": "_to",
          "type": "address"
        },
        {
          "indexed": true,
          "internalType": "uint256",
          "name": "_id",
          "type": "uint256"
        },
        {
          "indexed": true,
          "internalType": "uint8",
          "name": "_boxType",
          "type": "uint8"
        }
      ],
      "name": "MintNFT",
      "type": "event"
    },
    {
      "anonymous": false,
      "inputs": [
        {
          "indexed": true,
          "internalType": "address",
          "name": "previousOwner",
          "type": "address"
        },
        {
          "indexed": true,
          "internalType": "address",
          "name": "newOwner",
          "type": "address"
        }
      ],
      "name": "OwnershipTransferred",
      "type": "event"
    },
    {
      "anonymous": false,
      "inputs": [
        {
          "indexed": false,
          "internalType": "address",
          "name": "account",
          "type": "address"
        }
      ],
      "name": "Paused",
      "type": "event"
    },
    {
      "anonymous": false,
      "inputs": [
        {
          "indexed": true,
          "internalType": "address",
          "name": "from",
          "type": "address"
        },
        {
          "indexed": true,
          "internalType": "address",
          "name": "to",
          "type": "address"
        },
        {
          "indexed": true,
          "internalType": "uint256",
          "name": "tokenId",
          "type": "uint256"
        }
      ],
      "name": "Transfer",
      "type": "event"
    },
    {
      "anonymous": false,
      "inputs": [
        {
          "indexed": false,
          "internalType": "address",
          "name": "account",
          "type": "address"
        }
      ],
      "name": "Unpaused",
      "type": "event"
    },
    {
      "inputs": [
        {
          "internalType": "address",
          "name": "to",
          "type": "address"
        },
        {
          "internalType": "uint256",
          "name": "tokenId",
          "type": "uint256"
        }
      ],
      "name": "approve",
      "outputs": [],
      "stateMutability": "nonpayable",
      "type": "function"
    },
    {
      "inputs": [
        {
          "internalType": "address",
          "name": "owner",
          "type": "address"
        }
      ],
      "name": "balanceOf",
      "outputs": [
        {
          "internalType": "uint256",
          "name": "",
          "type": "uint256"
        }
      ],
      "stateMutability": "view",
      "type": "function"
    },
    {
      "inputs": [
        {
          "internalType": "uint256",
          "name": "",
          "type": "uint256"
        }
      ],
      "name": "boxPriceBNB",
      "outputs": [
        {
          "internalType": "uint256",
          "name": "",
          "type": "uint256"
        }
      ],
      "stateMutability": "view",
      "type": "function"
    },
    {
      "inputs": [
        {
          "internalType": "uint256",
          "name": "",
          "type": "uint256"
        }
      ],
      "name": "boxPriceBURG",
      "outputs": [
        {
          "internalType": "uint256",
          "name": "",
          "type": "uint256"
        }
      ],
      "stateMutability": "view",
      "type": "function"
    },
    {
      "inputs": [
        {
          "internalType": "string",
          "name": "newBaseTokenURI",
          "type": "string"
        }
      ],
      "name": "changeBaseTokenURI",
      "outputs": [],
      "stateMutability": "nonpayable",
      "type": "function"
    },
    {
      "inputs": [
        {
          "internalType": "bytes32",
          "name": "newRoot",
          "type": "bytes32"
        }
      ],
      "name": "changeRoot",
      "outputs": [],
      "stateMutability": "nonpayable",
      "type": "function"
    },
    {
      "inputs": [
        {
          "internalType": "bool",
          "name": "newState",
          "type": "bool"
        }
      ],
      "name": "changeWhitelistState",
      "outputs": [],
      "stateMutability": "nonpayable",
      "type": "function"
    },
    {
      "inputs": [
        {
          "internalType": "uint256",
          "name": "tokenId",
          "type": "uint256"
        }
      ],
      "name": "getApproved",
      "outputs": [
        {
          "internalType": "address",
          "name": "",
          "type": "address"
        }
      ],
      "stateMutability": "view",
      "type": "function"
    },
    {
      "inputs": [
        {
          "internalType": "uint256",
          "name": "_tokenId",
          "type": "uint256"
        }
      ],
      "name": "getboxTypeById",
      "outputs": [
        {
          "internalType": "uint8",
          "name": "",
          "type": "uint8"
        }
      ],
      "stateMutability": "view",
      "type": "function"
    },
    {
      "inputs": [
        {
          "internalType": "address",
          "name": "owner",
          "type": "address"
        },
        {
          "internalType": "address",
          "name": "operator",
          "type": "address"
        }
      ],
      "name": "isApprovedForAll",
      "outputs": [
        {
          "internalType": "bool",
          "name": "",
          "type": "bool"
        }
      ],
      "stateMutability": "view",
      "type": "function"
    },
    {
      "inputs": [
        {
          "internalType": "uint8",
          "name": "boxType",
          "type": "uint8"
        }
      ],
      "name": "mintNormal",
      "outputs": [
        {
          "internalType": "uint256",
          "name": "",
          "type": "uint256"
        }
      ],
      "stateMutability": "payable",
      "type": "function"
    },
    {
      "inputs": [
        {
          "internalType": "uint8",
          "name": "boxType",
          "type": "uint8"
        }
      ],
      "name": "mintNormalBURG",
      "outputs": [
        {
          "internalType": "uint256",
          "name": "",
          "type": "uint256"
        }
      ],
      "stateMutability": "nonpayable",
      "type": "function"
    },
    {
      "inputs": [
        {
          "internalType": "address",
          "name": "_to",
          "type": "address"
        },
        {
          "internalType": "uint8",
          "name": "boxType",
          "type": "uint8"
        }
      ],
      "name": "mintOwner",
      "outputs": [
        {
          "internalType": "uint256",
          "name": "",
          "type": "uint256"
        }
      ],
      "stateMutability": "nonpayable",
      "type": "function"
    },
    {
      "inputs": [
        {
          "internalType": "bytes32",
          "name": "leaf",
          "type": "bytes32"
        },
        {
          "internalType": "bytes32[]",
          "name": "proof",
          "type": "bytes32[]"
        }
      ],
      "name": "mintWhitelist",
      "outputs": [],
      "stateMutability": "payable",
      "type": "function"
    },
    {
      "inputs": [],
      "name": "name",
      "outputs": [
        {
          "internalType": "string",
          "name": "",
          "type": "string"
        }
      ],
      "stateMutability": "view",
      "type": "function"
    },
    {
      "inputs": [],
      "name": "owner",
      "outputs": [
        {
          "internalType": "address",
          "name": "",
          "type": "address"
        }
      ],
      "stateMutability": "view",
      "type": "function"
    },
    {
      "inputs": [
        {
          "internalType": "uint256",
          "name": "tokenId",
          "type": "uint256"
        }
      ],
      "name": "ownerOf",
      "outputs": [
        {
          "internalType": "address",
          "name": "",
          "type": "address"
        }
      ],
      "stateMutability": "view",
      "type": "function"
    },
    {
      "inputs": [],
      "name": "pause",
      "outputs": [
        {
          "internalType": "bool",
          "name": "",
          "type": "bool"
        }
      ],
      "stateMutability": "nonpayable",
      "type": "function"
    },
    {
      "inputs": [],
      "name": "paused",
      "outputs": [
        {
          "internalType": "bool",
          "name": "",
          "type": "bool"
        }
      ],
      "stateMutability": "view",
      "type": "function"
    },
    {
      "inputs": [],
      "name": "renounceOwnership",
      "outputs": [],
      "stateMutability": "nonpayable",
      "type": "function"
    },
    {
      "inputs": [
        {
          "internalType": "address",
          "name": "from",
          "type": "address"
        },
        {
          "internalType": "address",
          "name": "to",
          "type": "address"
        },
        {
          "internalType": "uint256",
          "name": "tokenId",
          "type": "uint256"
        }
      ],
      "name": "safeTransferFrom",
      "outputs": [],
      "stateMutability": "nonpayable",
      "type": "function"
    },
    {
      "inputs": [
        {
          "internalType": "address",
          "name": "from",
          "type": "address"
        },
        {
          "internalType": "address",
          "name": "to",
          "type": "address"
        },
        {
          "internalType": "uint256",
          "name": "tokenId",
          "type": "uint256"
        },
        {
          "internalType": "bytes",
          "name": "_data",
          "type": "bytes"
        }
      ],
      "name": "safeTransferFrom",
      "outputs": [],
      "stateMutability": "nonpayable",
      "type": "function"
    },
    {
      "inputs": [],
      "name": "saleBNBEnabled",
      "outputs": [
        {
          "internalType": "bool",
          "name": "",
          "type": "bool"
        }
      ],
      "stateMutability": "view",
      "type": "function"
    },
    {
      "inputs": [],
      "name": "saleBURGEnabled",
      "outputs": [
        {
          "internalType": "bool",
          "name": "",
          "type": "bool"
        }
      ],
      "stateMutability": "view",
      "type": "function"
    },
    {
      "inputs": [
        {
          "internalType": "address",
          "name": "operator",
          "type": "address"
        },
        {
          "internalType": "bool",
          "name": "approved",
          "type": "bool"
        }
      ],
      "name": "setApprovalForAll",
      "outputs": [],
      "stateMutability": "nonpayable",
      "type": "function"
    },
    {
      "inputs": [
        {
          "internalType": "address",
          "name": "_newAddress",
          "type": "address"
        }
      ],
      "name": "setBURGAddress",
      "outputs": [
        {
          "internalType": "bool",
          "name": "",
          "type": "bool"
        }
      ],
      "stateMutability": "nonpayable",
      "type": "function"
    },
    {
      "inputs": [],
      "name": "strBaseTokenURI",
      "outputs": [
        {
          "internalType": "string",
          "name": "",
          "type": "string"
        }
      ],
      "stateMutability": "view",
      "type": "function"
    },
    {
      "inputs": [
        {
          "internalType": "bytes4",
          "name": "interfaceId",
          "type": "bytes4"
        }
      ],
      "name": "supportsInterface",
      "outputs": [
        {
          "internalType": "bool",
          "name": "",
          "type": "bool"
        }
      ],
      "stateMutability": "view",
      "type": "function"
    },
    {
      "inputs": [],
      "name": "symbol",
      "outputs": [
        {
          "internalType": "string",
          "name": "",
          "type": "string"
        }
      ],
      "stateMutability": "view",
      "type": "function"
    },
    {
      "inputs": [
        {
          "internalType": "uint256",
          "name": "index",
          "type": "uint256"
        }
      ],
      "name": "tokenByIndex",
      "outputs": [
        {
          "internalType": "uint256",
          "name": "",
          "type": "uint256"
        }
      ],
      "stateMutability": "view",
      "type": "function"
    },
    {
      "inputs": [
        {
          "internalType": "address",
          "name": "owner",
          "type": "address"
        },
        {
          "internalType": "uint256",
          "name": "index",
          "type": "uint256"
        }
      ],
      "name": "tokenOfOwnerByIndex",
      "outputs": [
        {
          "internalType": "uint256",
          "name": "",
          "type": "uint256"
        }
      ],
      "stateMutability": "view",
      "type": "function"
    },
    {
      "inputs": [
        {
          "internalType": "uint256",
          "name": "_tokenId",
          "type": "uint256"
        }
      ],
      "name": "tokenURI",
      "outputs": [
        {
          "internalType": "string",
          "name": "",
          "type": "string"
        }
      ],
      "stateMutability": "view",
      "type": "function"
    },
    {
      "inputs": [],
      "name": "totalSupply",
      "outputs": [
        {
          "internalType": "uint256",
          "name": "",
          "type": "uint256"
        }
      ],
      "stateMutability": "view",
      "type": "function"
    },
    {
      "inputs": [
        {
          "internalType": "address",
          "name": "from",
          "type": "address"
        },
        {
          "internalType": "address",
          "name": "to",
          "type": "address"
        },
        {
          "internalType": "uint256",
          "name": "tokenId",
          "type": "uint256"
        }
      ],
      "name": "transferFrom",
      "outputs": [],
      "stateMutability": "nonpayable",
      "type": "function"
    },
    {
      "inputs": [
        {
          "internalType": "address",
          "name": "newOwner",
          "type": "address"
        }
      ],
      "name": "transferOwnership",
      "outputs": [],
      "stateMutability": "nonpayable",
      "type": "function"
    },
    {
      "inputs": [],
      "name": "unpause",
      "outputs": [
        {
          "internalType": "bool",
          "name": "",
          "type": "bool"
        }
      ],
      "stateMutability": "nonpayable",
      "type": "function"
    },
    {
      "inputs": [
        {
          "internalType": "uint256[]",
          "name": "_newBoxPricesBNB",
          "type": "uint256[]"
        }
      ],
      "name": "updateBoxPricesBNB",
      "outputs": [
        {
          "internalType": "bool",
          "name": "",
          "type": "bool"
        }
      ],
      "stateMutability": "nonpayable",
      "type": "function"
    },
    {
      "inputs": [
        {
          "internalType": "uint256[]",
          "name": "_newBoxPricesBURG",
          "type": "uint256[]"
        }
      ],
      "name": "updateBoxPricesBURG",
      "outputs": [
        {
          "internalType": "bool",
          "name": "",
          "type": "bool"
        }
      ],
      "stateMutability": "nonpayable",
      "type": "function"
    },
    {
      "inputs": [
        {
          "internalType": "bytes32",
          "name": "leaf",
          "type": "bytes32"
        },
        {
          "internalType": "bytes32[]",
          "name": "proof",
          "type": "bytes32[]"
        }
      ],
      "name": "verifyWhitelist",
      "outputs": [
        {
          "internalType": "bool",
          "name": "",
          "type": "bool"
        }
      ],
      "stateMutability": "view",
      "type": "function"
    },
    {
      "inputs": [
        {
          "internalType": "address",
          "name": "_owner",
          "type": "address"
        }
      ],
      "name": "walletOfOwner",
      "outputs": [
        {
          "internalType": "uint256[]",
          "name": "",
          "type": "uint256[]"
        }
      ],
      "stateMutability": "view",
      "type": "function"
    },
    {
      "inputs": [],
      "name": "whitelistActive",
      "outputs": [
        {
          "internalType": "bool",
          "name": "",
          "type": "bool"
        }
      ],
      "stateMutability": "view",
      "type": "function"
    },
    {
      "inputs": [],
      "name": "whitelistPrice",
      "outputs": [
        {
          "internalType": "uint256",
          "name": "",
          "type": "uint256"
        }
      ],
      "stateMutability": "view",
      "type": "function"
    },
    {
      "inputs": [],
      "name": "withdraw",
      "outputs": [],
      "stateMutability": "nonpayable",
      "type": "function"
    }
  ],
  "bytecode": "0x60806040526040518060600160405280662386f26fc1000066ffffffffffffff16815260200166470de4df82000066ffffffffffffff168152602001666a94d74f43000066ffffffffffffff16815250600d906003620000619291906200033a565b506040518060600160405280662386f26fc1000066ffffffffffffff16815260200166470de4df82000066ffffffffffffff168152602001666a94d74f43000066ffffffffffffff16815250600e906003620000bf9291906200033a565b5066470de4df820000600f556040518060600160405280602a815260200162005df5602a913960109080519060200190620000fc92919062000397565b506000601160006101000a81548160ff0219169083151502179055506001601160016101000a81548160ff0219169083151502179055506000601160026101000a81548160ff0219169083151502179055507f786cc6a5c4201b7672450409f6a717d0e33e88369e82ed52b453ec0cfcc4b23d60001b6012553480156200018257600080fd5b506040518060400160405280600681526020017f42757267657200000000000000000000000000000000000000000000000000008152506040518060400160405280600681526020017f425552474552000000000000000000000000000000000000000000000000000081525081600090805190602001906200020792919062000397565b5080600190805190602001906200022092919062000397565b5050506000600a60006101000a81548160ff0219169083151502179055506200025e620002526200026c60201b60201c565b6200027460201b60201c565b6001600b81905550620004ac565b600033905090565b6000600a60019054906101000a900473ffffffffffffffffffffffffffffffffffffffff16905081600a60016101000a81548173ffffffffffffffffffffffffffffffffffffffff021916908373ffffffffffffffffffffffffffffffffffffffff1602179055508173ffffffffffffffffffffffffffffffffffffffff168173ffffffffffffffffffffffffffffffffffffffff167f8be0079c531659141344cd1fd0a4f28419497f9722a3daafe3b4186f6b6457e060405160405180910390a35050565b82805482825590600052602060002090810192821562000384579160200282015b8281111562000383578251829066ffffffffffffff169055916020019190600101906200035b565b5b50905062000393919062000428565b5090565b828054620003a59062000476565b90600052602060002090601f016020900481019282620003c9576000855562000415565b82601f10620003e457805160ff191683800117855562000415565b8280016001018555821562000415579182015b8281111562000414578251825591602001919060010190620003f7565b5b50905062000424919062000428565b5090565b5b808211156200044357600081600090555060010162000429565b5090565b7f4e487b7100000000000000000000000000000000000000000000000000000000600052602260045260246000fd5b600060028204905060018216806200048f57607f821691505b60208210811415620004a657620004a562000447565b5b50919050565b61593980620004bc6000396000f3fe60806040526004361061025c5760003560e01c8063715018a611610144578063c0fb5e8f116100b6578063e0d5f5db1161007a578063e0d5f5db14610973578063e40e97a7146109b0578063e985e9c5146109d9578063f09542b314610a16578063f2fde38b14610a46578063fc1a1c3614610a6f5761025c565b8063c0fb5e8f14610889578063c87b56dd146108a5578063ca847633146108e2578063d124d28f1461090d578063d9583b9f1461094a5761025c565b80638cba90b0116101085780638cba90b0146107675780638da5cb5b146107a457806395d89b41146107cf578063a22cb465146107fa578063a69a6e8214610823578063b88d4fde146108605761025c565b8063715018a61461066e57806379d72794146106855780637b125a1d146106c25780638456cb59146106ff57806387ddb7b71461072a5761025c565b80632f745c59116101dd57806342842e0e116101a157806342842e0e14610526578063438b63001461054f5780634f6ccce71461058c5780635c975abb146105c95780636352211e146105f457806370a08231146106315761025c565b80632f745c5914610441578063329ea90d1461047e5780633ccfd60b146104bb5780633d59cd60146104d25780633f4ba83a146104fb5761025c565b8063120f91d511610224578063120f91d51461035a578063158d9ac31461039757806318160ddd146103c257806323b872dd146103ed57806329c7f1fa146104165761025c565b806301ffc9a71461026157806302ce58131461029e57806306fdde03146102c9578063081812fc146102f4578063095ea7b314610331575b600080fd5b34801561026d57600080fd5b5061028860048036038101906102839190613bb7565b610a9a565b6040516102959190613bff565b60405180910390f35b3480156102aa57600080fd5b506102b3610b14565b6040516102c09190613bff565b60405180910390f35b3480156102d557600080fd5b506102de610b27565b6040516102eb9190613cb3565b60405180910390f35b34801561030057600080fd5b5061031b60048036038101906103169190613d0b565b610bb9565b6040516103289190613d79565b60405180910390f35b34801561033d57600080fd5b5061035860048036038101906103539190613dc0565b610c3e565b005b34801561036657600080fd5b50610381600480360381019061037c9190613d0b565b610d56565b60405161038e9190613e0f565b60405180910390f35b3480156103a357600080fd5b506103ac610d7a565b6040516103b99190613bff565b60405180910390f35b3480156103ce57600080fd5b506103d7610d8d565b6040516103e49190613e0f565b60405180910390f35b3480156103f957600080fd5b50610414600480360381019061040f9190613e2a565b610d9a565b005b34801561042257600080fd5b5061042b610dfa565b6040516104389190613bff565b60405180910390f35b34801561044d57600080fd5b5061046860048036038101906104639190613dc0565b610e0d565b6040516104759190613e0f565b60405180910390f35b34801561048a57600080fd5b506104a560048036038101906104a09190613ffb565b610eb2565b6040516104b29190613bff565b60405180910390f35b3480156104c757600080fd5b506104d0610f6a565b005b3480156104de57600080fd5b506104f960048036038101906104f49190614057565b61103c565b005b34801561050757600080fd5b506105106110c2565b60405161051d9190613bff565b60405180910390f35b34801561053257600080fd5b5061054d60048036038101906105489190613e2a565b61114f565b005b34801561055b57600080fd5b5061057660048036038101906105719190614084565b61116f565b604051610583919061416f565b60405180910390f35b34801561059857600080fd5b506105b360048036038101906105ae9190613d0b565b61121d565b6040516105c09190613e0f565b60405180910390f35b3480156105d557600080fd5b506105de61128e565b6040516105eb9190613bff565b60405180910390f35b34801561060057600080fd5b5061061b60048036038101906106169190613d0b565b6112a5565b6040516106289190613d79565b60405180910390f35b34801561063d57600080fd5b5061065860048036038101906106539190614084565b611357565b6040516106659190613e0f565b60405180910390f35b34801561067a57600080fd5b5061068361140f565b005b34801561069157600080fd5b506106ac60048036038101906106a791906141ca565b611497565b6040516106b99190613e0f565b60405180910390f35b3480156106ce57600080fd5b506106e960048036038101906106e49190614084565b611527565b6040516106f69190613bff565b60405180910390f35b34801561070b57600080fd5b506107146115ef565b6040516107219190613bff565b60405180910390f35b34801561073657600080fd5b50610751600480360381019061074c9190613d0b565b61167c565b60405161075e9190613e0f565b60405180910390f35b34801561077357600080fd5b5061078e60048036038101906107899190613d0b565b6116a0565b60405161079b9190614219565b60405180910390f35b3480156107b057600080fd5b506107b9611712565b6040516107c69190613d79565b60405180910390f35b3480156107db57600080fd5b506107e461173c565b6040516107f19190613cb3565b60405180910390f35b34801561080657600080fd5b50610821600480360381019061081c9190614260565b6117ce565b005b34801561082f57600080fd5b5061084a60048036038101906108459190614363565b61194f565b6040516108579190613bff565b60405180910390f35b34801561086c57600080fd5b5061088760048036038101906108829190614461565b6119ed565b005b6108a3600480360381019061089e9190613ffb565b611a4f565b005b3480156108b157600080fd5b506108cc60048036038101906108c79190613d0b565b611c74565b6040516108d99190613cb3565b60405180910390f35b3480156108ee57600080fd5b506108f7611cf6565b6040516109049190613cb3565b60405180910390f35b34801561091957600080fd5b50610934600480360381019061092f91906144e4565b611d84565b6040516109419190613e0f565b60405180910390f35b34801561095657600080fd5b50610971600480360381019061096c9190614511565b6121e1565b005b34801561097f57600080fd5b5061099a60048036038101906109959190614363565b61227a565b6040516109a79190613bff565b60405180910390f35b3480156109bc57600080fd5b506109d760048036038101906109d291906145df565b612318565b005b3480156109e557600080fd5b50610a0060048036038101906109fb9190614628565b6123ae565b604051610a0d9190613bff565b60405180910390f35b610a306004803603810190610a2b91906144e4565b612442565b604051610a3d9190613e0f565b60405180910390f35b348015610a5257600080fd5b50610a6d6004803603810190610a689190614084565b61266f565b005b348015610a7b57600080fd5b50610a84612767565b604051610a919190613e0f565b60405180910390f35b60007f780e9d63000000000000000000000000000000000000000000000000000000007bffffffffffffffffffffffffffffffffffffffffffffffffffffffff1916827bffffffffffffffffffffffffffffffffffffffffffffffffffffffff19161480610b0d5750610b0c8261276d565b5b9050919050565b601160029054906101000a900460ff1681565b606060008054610b3690614697565b80601f0160208091040260200160405190810160405280929190818152602001828054610b6290614697565b8015610baf5780601f10610b8457610100808354040283529160200191610baf565b820191906000526020600020905b815481529060010190602001808311610b9257829003601f168201915b5050505050905090565b6000610bc48261284f565b610c03576040517f08c379a0000000000000000000000000000000000000000000000000000000008152600401610bfa9061473b565b60405180910390fd5b6004600083815260200190815260200160002060009054906101000a900473ffffffffffffffffffffffffffffffffffffffff169050919050565b6000610c49826112a5565b90508073ffffffffffffffffffffffffffffffffffffffff168373ffffffffffffffffffffffffffffffffffffffff161415610cba576040517f08c379a0000000000000000000000000000000000000000000000000000000008152600401610cb1906147cd565b60405180910390fd5b8073ffffffffffffffffffffffffffffffffffffffff16610cd96128bb565b73ffffffffffffffffffffffffffffffffffffffff161480610d085750610d0781610d026128bb565b6123ae565b5b610d47576040517f08c379a0000000000000000000000000000000000000000000000000000000008152600401610d3e9061485f565b60405180910390fd5b610d5183836128c3565b505050565b600d8181548110610d6657600080fd5b906000526020600020016000915090505481565b601160019054906101000a900460ff1681565b6000600880549050905090565b610dab610da56128bb565b8261297c565b610dea576040517f08c379a0000000000000000000000000000000000000000000000000000000008152600401610de1906148f1565b60405180910390fd5b610df5838383612a5a565b505050565b601160009054906101000a900460ff1681565b6000610e1883611357565b8210610e59576040517f08c379a0000000000000000000000000000000000000000000000000000000008152600401610e5090614983565b60405180910390fd5b600660008473ffffffffffffffffffffffffffffffffffffffff1673ffffffffffffffffffffffffffffffffffffffff168152602001908152602001600020600083815260200190815260200160002054905092915050565b60008083905060005b8351811015610f5b576000848281518110610ed957610ed86149a3565b5b6020026020010151905080831015610f1b578281604051602001610efe9291906149f3565b604051602081830303815290604052805190602001209250610f47565b8083604051602001610f2e9291906149f3565b6040516020818303038152906040528051906020012092505b508080610f5390614a4e565b915050610ebb565b50601254811491505092915050565b610f726128bb565b73ffffffffffffffffffffffffffffffffffffffff16610f90611712565b73ffffffffffffffffffffffffffffffffffffffff1614610fe6576040517f08c379a0000000000000000000000000000000000000000000000000000000008152600401610fdd90614ae3565b60405180910390fd5b6000479050610ff3611712565b73ffffffffffffffffffffffffffffffffffffffff166108fc829081150290604051600060405180830381858888f19350505050158015611038573d6000803e3d6000fd5b5050565b6110446128bb565b73ffffffffffffffffffffffffffffffffffffffff16611062611712565b73ffffffffffffffffffffffffffffffffffffffff16146110b8576040517f08c379a00000000000000000000000000000000000000000000000000000000081526004016110af90614ae3565b60405180910390fd5b8060128190555050565b60006110cc6128bb565b73ffffffffffffffffffffffffffffffffffffffff166110ea611712565b73ffffffffffffffffffffffffffffffffffffffff1614611140576040517f08c379a000000000000000000000000000000000000000000000000000000000815260040161113790614ae3565b60405180910390fd5b611148612cb6565b6001905090565b61116a838383604051806020016040528060008152506119ed565b505050565b6060600061117c83611357565b905060008167ffffffffffffffff81111561119a57611199613eb8565b5b6040519080825280602002602001820160405280156111c85781602001602082028036833780820191505090505b50905060005b82811015611212576111e08582610e0d565b8282815181106111f3576111f26149a3565b5b602002602001018181525050808061120a90614a4e565b9150506111ce565b508092505050919050565b6000611227610d8d565b8210611268576040517f08c379a000000000000000000000000000000000000000000000000000000000815260040161125f90614b75565b60405180910390fd5b6008828154811061127c5761127b6149a3565b5b90600052602060002001549050919050565b6000600a60009054906101000a900460ff16905090565b6000806002600084815260200190815260200160002060009054906101000a900473ffffffffffffffffffffffffffffffffffffffff169050600073ffffffffffffffffffffffffffffffffffffffff168173ffffffffffffffffffffffffffffffffffffffff16141561134e576040517f08c379a000000000000000000000000000000000000000000000000000000000815260040161134590614c07565b60405180910390fd5b80915050919050565b60008073ffffffffffffffffffffffffffffffffffffffff168273ffffffffffffffffffffffffffffffffffffffff1614156113c8576040517f08c379a00000000000000000000000000000000000000000000000000000000081526004016113bf90614c99565b60405180910390fd5b600360008373ffffffffffffffffffffffffffffffffffffffff1673ffffffffffffffffffffffffffffffffffffffff168152602001908152602001600020549050919050565b6114176128bb565b73ffffffffffffffffffffffffffffffffffffffff16611435611712565b73ffffffffffffffffffffffffffffffffffffffff161461148b576040517f08c379a000000000000000000000000000000000000000000000000000000000815260040161148290614ae3565b60405180910390fd5b6114956000612d58565b565b60006114a16128bb565b73ffffffffffffffffffffffffffffffffffffffff166114bf611712565b73ffffffffffffffffffffffffffffffffffffffff1614611515576040517f08c379a000000000000000000000000000000000000000000000000000000000815260040161150c90614ae3565b60405180910390fd5b61151f8383612e1e565b905092915050565b60006115316128bb565b73ffffffffffffffffffffffffffffffffffffffff1661154f611712565b73ffffffffffffffffffffffffffffffffffffffff16146115a5576040517f08c379a000000000000000000000000000000000000000000000000000000000815260040161159c90614ae3565b60405180910390fd5b81601360006101000a81548173ffffffffffffffffffffffffffffffffffffffff021916908373ffffffffffffffffffffffffffffffffffffffff16021790555060019050919050565b60006115f96128bb565b73ffffffffffffffffffffffffffffffffffffffff16611617611712565b73ffffffffffffffffffffffffffffffffffffffff161461166d576040517f08c379a000000000000000000000000000000000000000000000000000000000815260040161166490614ae3565b60405180910390fd5b611675612ec3565b6001905090565b600e818154811061168c57600080fd5b906000526020600020016000915090505481565b60006116ab8261284f565b6116ea576040517f08c379a00000000000000000000000000000000000000000000000000000000081526004016116e190614d05565b60405180910390fd5b600c600083815260200190815260200160002060009054906101000a900460ff169050919050565b6000600a60019054906101000a900473ffffffffffffffffffffffffffffffffffffffff16905090565b60606001805461174b90614697565b80601f016020809104026020016040519081016040528092919081815260200182805461177790614697565b80156117c45780601f10611799576101008083540402835291602001916117c4565b820191906000526020600020905b8154815290600101906020018083116117a757829003601f168201915b5050505050905090565b6117d66128bb565b73ffffffffffffffffffffffffffffffffffffffff168273ffffffffffffffffffffffffffffffffffffffff161415611844576040517f08c379a000000000000000000000000000000000000000000000000000000000815260040161183b90614d71565b60405180910390fd5b80600560006118516128bb565b73ffffffffffffffffffffffffffffffffffffffff1673ffffffffffffffffffffffffffffffffffffffff16815260200190815260200160002060008473ffffffffffffffffffffffffffffffffffffffff1673ffffffffffffffffffffffffffffffffffffffff16815260200190815260200160002060006101000a81548160ff0219169083151502179055508173ffffffffffffffffffffffffffffffffffffffff166118fe6128bb565b73ffffffffffffffffffffffffffffffffffffffff167f17307eab39ab6107e8899845ad3d59bd9653f200f220920489ca2b5937696c31836040516119439190613bff565b60405180910390a35050565b60006119596128bb565b73ffffffffffffffffffffffffffffffffffffffff16611977611712565b73ffffffffffffffffffffffffffffffffffffffff16146119cd576040517f08c379a00000000000000000000000000000000000000000000000000000000081526004016119c490614ae3565b60405180910390fd5b81600d90805190602001906119e3929190613a5b565b5060019050919050565b6119fe6119f86128bb565b8361297c565b611a3d576040517f08c379a0000000000000000000000000000000000000000000000000000000008152600401611a34906148f1565b60405180910390fd5b611a4984848484612f66565b50505050565b611a5761128e565b15611a97576040517f08c379a0000000000000000000000000000000000000000000000000000000008152600401611a8e90614ddd565b60405180910390fd5b6002600b541415611add576040517f08c379a0000000000000000000000000000000000000000000000000000000008152600401611ad490614e49565b60405180910390fd5b6002600b81905550601160029054906101000a900460ff16611b34576040517f08c379a0000000000000000000000000000000000000000000000000000000008152600401611b2b90614eb5565b60405180910390fd5b600d600181548110611b4957611b486149a3565b5b9060005260206000200154341015611b96576040517f08c379a0000000000000000000000000000000000000000000000000000000008152600401611b8d90614f21565b60405180910390fd5b6000611ba28383610eb2565b90508015611bbb57611bb5336002612e1e565b50611bf6565b6040517f08c379a0000000000000000000000000000000000000000000000000000000008152600401611bed90614f8d565b60405180910390fd5b3373ffffffffffffffffffffffffffffffffffffffff166108fc600d600181548110611c2557611c246149a3565b5b906000526020600020015434611c3b9190614fad565b9081150290604051600060405180830381858888f19350505050158015611c66573d6000803e3d6000fd5b50506001600b819055505050565b6060611c7f8261284f565b611cbe576040517f08c379a0000000000000000000000000000000000000000000000000000000008152600401611cb590614d05565b60405180910390fd5b611cc6612fc2565b611ccf83613054565b604051602001611ce092919061501d565b6040516020818303038152906040529050919050565b60108054611d0390614697565b80601f0160208091040260200160405190810160405280929190818152602001828054611d2f90614697565b8015611d7c5780601f10611d5157610100808354040283529160200191611d7c565b820191906000526020600020905b815481529060010190602001808311611d5f57829003601f168201915b505050505081565b6000611d8e61128e565b15611dce576040517f08c379a0000000000000000000000000000000000000000000000000000000008152600401611dc590614ddd565b60405180910390fd5b6002600b541415611e14576040517f08c379a0000000000000000000000000000000000000000000000000000000008152600401611e0b90614e49565b60405180910390fd5b6002600b81905550601160029054906101000a900460ff1615611e6c576040517f08c379a0000000000000000000000000000000000000000000000000000000008152600401611e639061508d565b60405180910390fd5b601160019054906101000a900460ff16611ebb576040517f08c379a0000000000000000000000000000000000000000000000000000000008152600401611eb2906150f9565b60405180910390fd5b600e8260ff1681548110611ed257611ed16149a3565b5b9060005260206000200154601360009054906101000a900473ffffffffffffffffffffffffffffffffffffffff1673ffffffffffffffffffffffffffffffffffffffff1663dd62ed3e33306040518363ffffffff1660e01b8152600401611f3a929190615119565b60206040518083038186803b158015611f5257600080fd5b505afa158015611f66573d6000803e3d6000fd5b505050506040513d601f19601f82011682018060405250810190611f8a9190615157565b1015611fcb576040517f08c379a0000000000000000000000000000000000000000000000000000000008152600401611fc2906151d0565b60405180910390fd5b601360009054906101000a900473ffffffffffffffffffffffffffffffffffffffff1673ffffffffffffffffffffffffffffffffffffffff166323b872dd33612012611712565b61205a606461204c6008600e8a60ff1681548110612033576120326149a3565b5b90600052602060002001546131b590919063ffffffff16565b6131cb90919063ffffffff16565b6040518463ffffffff1660e01b8152600401612078939291906151f0565b602060405180830381600087803b15801561209257600080fd5b505af11580156120a6573d6000803e3d6000fd5b505050506040513d601f19601f820116820180604052508101906120ca919061523c565b50601360009054906101000a900473ffffffffffffffffffffffffffffffffffffffff1673ffffffffffffffffffffffffffffffffffffffff16639dc29fac336121526064612144605c600e8960ff168154811061212b5761212a6149a3565b5b90600052602060002001546131b590919063ffffffff16565b6131cb90919063ffffffff16565b6040518363ffffffff1660e01b815260040161216f929190615269565b602060405180830381600087803b15801561218957600080fd5b505af115801561219d573d6000803e3d6000fd5b505050506040513d601f19601f820116820180604052508101906121c1919061523c565b5060006121ce3384612e1e565b9050809150506001600b81905550919050565b6121e96128bb565b73ffffffffffffffffffffffffffffffffffffffff16612207611712565b73ffffffffffffffffffffffffffffffffffffffff161461225d576040517f08c379a000000000000000000000000000000000000000000000000000000000815260040161225490614ae3565b60405180910390fd5b80601160026101000a81548160ff02191690831515021790555050565b60006122846128bb565b73ffffffffffffffffffffffffffffffffffffffff166122a2611712565b73ffffffffffffffffffffffffffffffffffffffff16146122f8576040517f08c379a00000000000000000000000000000000000000000000000000000000081526004016122ef90614ae3565b60405180910390fd5b81600e908051906020019061230e929190613a5b565b5060019050919050565b6123206128bb565b73ffffffffffffffffffffffffffffffffffffffff1661233e611712565b73ffffffffffffffffffffffffffffffffffffffff1614612394576040517f08c379a000000000000000000000000000000000000000000000000000000000815260040161238b90614ae3565b60405180910390fd5b80601090805190602001906123aa929190613aa8565b5050565b6000600560008473ffffffffffffffffffffffffffffffffffffffff1673ffffffffffffffffffffffffffffffffffffffff16815260200190815260200160002060008373ffffffffffffffffffffffffffffffffffffffff1673ffffffffffffffffffffffffffffffffffffffff16815260200190815260200160002060009054906101000a900460ff16905092915050565b600061244c61128e565b1561248c576040517f08c379a000000000000000000000000000000000000000000000000000000000815260040161248390614ddd565b60405180910390fd5b6002600b5414156124d2576040517f08c379a00000000000000000000000000000000000000000000000000000000081526004016124c990614e49565b60405180910390fd5b6002600b81905550601160029054906101000a900460ff161561252a576040517f08c379a00000000000000000000000000000000000000000000000000000000081526004016125219061508d565b60405180910390fd5b601160009054906101000a900460ff16612579576040517f08c379a0000000000000000000000000000000000000000000000000000000008152600401612570906150f9565b60405180910390fd5b600d8260ff16815481106125905761258f6149a3565b5b90600052602060002001543410156125dd576040517f08c379a00000000000000000000000000000000000000000000000000000000081526004016125d490614f21565b60405180910390fd5b60006125e93384612e1e565b90503373ffffffffffffffffffffffffffffffffffffffff166108fc600d8560ff168154811061261c5761261b6149a3565b5b9060005260206000200154346126329190614fad565b9081150290604051600060405180830381858888f1935050505015801561265d573d6000803e3d6000fd5b50809150506001600b81905550919050565b6126776128bb565b73ffffffffffffffffffffffffffffffffffffffff16612695611712565b73ffffffffffffffffffffffffffffffffffffffff16146126eb576040517f08c379a00000000000000000000000000000000000000000000000000000000081526004016126e290614ae3565b60405180910390fd5b600073ffffffffffffffffffffffffffffffffffffffff168173ffffffffffffffffffffffffffffffffffffffff16141561275b576040517f08c379a000000000000000000000000000000000000000000000000000000000815260040161275290615304565b60405180910390fd5b61276481612d58565b50565b600f5481565b60007f80ac58cd000000000000000000000000000000000000000000000000000000007bffffffffffffffffffffffffffffffffffffffffffffffffffffffff1916827bffffffffffffffffffffffffffffffffffffffffffffffffffffffff1916148061283857507f5b5e139f000000000000000000000000000000000000000000000000000000007bffffffffffffffffffffffffffffffffffffffffffffffffffffffff1916827bffffffffffffffffffffffffffffffffffffffffffffffffffffffff1916145b806128485750612847826131e1565b5b9050919050565b60008073ffffffffffffffffffffffffffffffffffffffff166002600084815260200190815260200160002060009054906101000a900473ffffffffffffffffffffffffffffffffffffffff1673ffffffffffffffffffffffffffffffffffffffff1614159050919050565b600033905090565b816004600083815260200190815260200160002060006101000a81548173ffffffffffffffffffffffffffffffffffffffff021916908373ffffffffffffffffffffffffffffffffffffffff160217905550808273ffffffffffffffffffffffffffffffffffffffff16612936836112a5565b73ffffffffffffffffffffffffffffffffffffffff167f8c5be1e5ebec7d5bd14f71427d1e84f3dd0314c0f7b2291e5b200ac8c7c3b92560405160405180910390a45050565b60006129878261284f565b6129c6576040517f08c379a00000000000000000000000000000000000000000000000000000000081526004016129bd90615396565b60405180910390fd5b60006129d1836112a5565b90508073ffffffffffffffffffffffffffffffffffffffff168473ffffffffffffffffffffffffffffffffffffffff161480612a4057508373ffffffffffffffffffffffffffffffffffffffff16612a2884610bb9565b73ffffffffffffffffffffffffffffffffffffffff16145b80612a515750612a5081856123ae565b5b91505092915050565b8273ffffffffffffffffffffffffffffffffffffffff16612a7a826112a5565b73ffffffffffffffffffffffffffffffffffffffff1614612ad0576040517f08c379a0000000000000000000000000000000000000000000000000000000008152600401612ac790615428565b60405180910390fd5b600073ffffffffffffffffffffffffffffffffffffffff168273ffffffffffffffffffffffffffffffffffffffff161415612b40576040517f08c379a0000000000000000000000000000000000000000000000000000000008152600401612b37906154ba565b60405180910390fd5b612b4b83838361324b565b612b566000826128c3565b6001600360008573ffffffffffffffffffffffffffffffffffffffff1673ffffffffffffffffffffffffffffffffffffffff1681526020019081526020016000206000828254612ba69190614fad565b925050819055506001600360008473ffffffffffffffffffffffffffffffffffffffff1673ffffffffffffffffffffffffffffffffffffffff1681526020019081526020016000206000828254612bfd91906154da565b92505081905550816002600083815260200190815260200160002060006101000a81548173ffffffffffffffffffffffffffffffffffffffff021916908373ffffffffffffffffffffffffffffffffffffffff160217905550808273ffffffffffffffffffffffffffffffffffffffff168473ffffffffffffffffffffffffffffffffffffffff167fddf252ad1be2c89b69c2b068fc378daa952ba7f163c4a11628f55a4df523b3ef60405160405180910390a4505050565b612cbe61128e565b612cfd576040517f08c379a0000000000000000000000000000000000000000000000000000000008152600401612cf49061557c565b60405180910390fd5b6000600a60006101000a81548160ff0219169083151502179055507f5db9ee0a495bf2e6ff9c91a7834c1ba4fdd244a5e8aa4e537bd38aeae4b073aa612d416128bb565b604051612d4e9190613d79565b60405180910390a1565b6000600a60019054906101000a900473ffffffffffffffffffffffffffffffffffffffff16905081600a60016101000a81548173ffffffffffffffffffffffffffffffffffffffff021916908373ffffffffffffffffffffffffffffffffffffffff1602179055508173ffffffffffffffffffffffffffffffffffffffff168173ffffffffffffffffffffffffffffffffffffffff167f8be0079c531659141344cd1fd0a4f28419497f9722a3daafe3b4186f6b6457e060405160405180910390a35050565b6000612e3183612e2c610d8d565b61335f565b81600c6000612e3e610d8d565b815260200190815260200160002060006101000a81548160ff021916908360ff1602179055508160ff16612e70610d8d565b8473ffffffffffffffffffffffffffffffffffffffff167faabcc1eb354f11e651c87f835e7de6ac847d514718ed76fad480d55d2632992260405160405180910390a4612ebb610d8d565b905092915050565b612ecb61128e565b15612f0b576040517f08c379a0000000000000000000000000000000000000000000000000000000008152600401612f0290614ddd565b60405180910390fd5b6001600a60006101000a81548160ff0219169083151502179055507f62e78cea01bee320cd4e420270b5ea74000d11b0c9f74754ebdbfc544b05a258612f4f6128bb565b604051612f5c9190613d79565b60405180910390a1565b612f71848484612a5a565b612f7d8484848461337d565b612fbc576040517f08c379a0000000000000000000000000000000000000000000000000000000008152600401612fb39061560e565b60405180910390fd5b50505050565b606060108054612fd190614697565b80601f0160208091040260200160405190810160405280929190818152602001828054612ffd90614697565b801561304a5780601f1061301f5761010080835404028352916020019161304a565b820191906000526020600020905b81548152906001019060200180831161302d57829003601f168201915b5050505050905090565b6060600082141561309c576040518060400160405280600181526020017f300000000000000000000000000000000000000000000000000000000000000081525090506131b0565b600082905060005b600082146130ce5780806130b790614a4e565b915050600a826130c7919061565d565b91506130a4565b60008167ffffffffffffffff8111156130ea576130e9613eb8565b5b6040519080825280601f01601f19166020018201604052801561311c5781602001600182028036833780820191505090505b5090505b600085146131a9576001826131359190614fad565b9150600a85613144919061568e565b603061315091906154da565b60f81b818381518110613166576131656149a3565b5b60200101907effffffffffffffffffffffffffffffffffffffffffffffffffffffffffffff1916908160001a905350600a856131a2919061565d565b9450613120565b8093505050505b919050565b600081836131c391906156bf565b905092915050565b600081836131d9919061565d565b905092915050565b60007f01ffc9a7000000000000000000000000000000000000000000000000000000007bffffffffffffffffffffffffffffffffffffffffffffffffffffffff1916827bffffffffffffffffffffffffffffffffffffffffffffffffffffffff1916149050919050565b613256838383613514565b600073ffffffffffffffffffffffffffffffffffffffff168373ffffffffffffffffffffffffffffffffffffffff1614156132995761329481613519565b6132d8565b8173ffffffffffffffffffffffffffffffffffffffff168373ffffffffffffffffffffffffffffffffffffffff16146132d7576132d68382613562565b5b5b600073ffffffffffffffffffffffffffffffffffffffff168273ffffffffffffffffffffffffffffffffffffffff16141561331b57613316816136cf565b61335a565b8273ffffffffffffffffffffffffffffffffffffffff168273ffffffffffffffffffffffffffffffffffffffff16146133595761335882826137a0565b5b5b505050565b61337982826040518060200160405280600081525061381f565b5050565b600061339e8473ffffffffffffffffffffffffffffffffffffffff1661387a565b15613507578373ffffffffffffffffffffffffffffffffffffffff1663150b7a026133c76128bb565b8786866040518563ffffffff1660e01b81526004016133e9949392919061576e565b602060405180830381600087803b15801561340357600080fd5b505af192505050801561343457506040513d601f19601f8201168201806040525081019061343191906157cf565b60015b6134b7573d8060008114613464576040519150601f19603f3d011682016040523d82523d6000602084013e613469565b606091505b506000815114156134af576040517f08c379a00000000000000000000000000000000000000000000000000000000081526004016134a69061560e565b60405180910390fd5b805181602001fd5b63150b7a0260e01b7bffffffffffffffffffffffffffffffffffffffffffffffffffffffff1916817bffffffffffffffffffffffffffffffffffffffffffffffffffffffff19161491505061350c565b600190505b949350505050565b505050565b6008805490506009600083815260200190815260200160002081905550600881908060018154018082558091505060019003906000526020600020016000909190919091505550565b6000600161356f84611357565b6135799190614fad565b905060006007600084815260200190815260200160002054905081811461365e576000600660008673ffffffffffffffffffffffffffffffffffffffff1673ffffffffffffffffffffffffffffffffffffffff168152602001908152602001600020600084815260200190815260200160002054905080600660008773ffffffffffffffffffffffffffffffffffffffff1673ffffffffffffffffffffffffffffffffffffffff168152602001908152602001600020600084815260200190815260200160002081905550816007600083815260200190815260200160002081905550505b6007600084815260200190815260200160002060009055600660008573ffffffffffffffffffffffffffffffffffffffff1673ffffffffffffffffffffffffffffffffffffffff16815260200190815260200160002060008381526020019081526020016000206000905550505050565b600060016008805490506136e39190614fad565b9050600060096000848152602001908152602001600020549050600060088381548110613713576137126149a3565b5b906000526020600020015490508060088381548110613735576137346149a3565b5b906000526020600020018190555081600960008381526020019081526020016000208190555060096000858152602001908152602001600020600090556008805480613784576137836157fc565b5b6001900381819060005260206000200160009055905550505050565b60006137ab83611357565b905081600660008573ffffffffffffffffffffffffffffffffffffffff1673ffffffffffffffffffffffffffffffffffffffff168152602001908152602001600020600083815260200190815260200160002081905550806007600084815260200190815260200160002081905550505050565b613829838361388d565b613836600084848461337d565b613875576040517f08c379a000000000000000000000000000000000000000000000000000000000815260040161386c9061560e565b60405180910390fd5b505050565b600080823b905060008111915050919050565b600073ffffffffffffffffffffffffffffffffffffffff168273ffffffffffffffffffffffffffffffffffffffff1614156138fd576040517f08c379a00000000000000000000000000000000000000000000000000000000081526004016138f490615877565b60405180910390fd5b6139068161284f565b15613946576040517f08c379a000000000000000000000000000000000000000000000000000000000815260040161393d906158e3565b60405180910390fd5b6139526000838361324b565b6001600360008473ffffffffffffffffffffffffffffffffffffffff1673ffffffffffffffffffffffffffffffffffffffff16815260200190815260200160002060008282546139a291906154da565b92505081905550816002600083815260200190815260200160002060006101000a81548173ffffffffffffffffffffffffffffffffffffffff021916908373ffffffffffffffffffffffffffffffffffffffff160217905550808273ffffffffffffffffffffffffffffffffffffffff16600073ffffffffffffffffffffffffffffffffffffffff167fddf252ad1be2c89b69c2b068fc378daa952ba7f163c4a11628f55a4df523b3ef60405160405180910390a45050565b828054828255906000526020600020908101928215613a97579160200282015b82811115613a96578251825591602001919060010190613a7b565b5b509050613aa49190613b2e565b5090565b828054613ab490614697565b90600052602060002090601f016020900481019282613ad65760008555613b1d565b82601f10613aef57805160ff1916838001178555613b1d565b82800160010185558215613b1d579182015b82811115613b1c578251825591602001919060010190613b01565b5b509050613b2a9190613b2e565b5090565b5b80821115613b47576000816000905550600101613b2f565b5090565b6000604051905090565b600080fd5b600080fd5b60007fffffffff0000000000000000000000000000000000000000000000000000000082169050919050565b613b9481613b5f565b8114613b9f57600080fd5b50565b600081359050613bb181613b8b565b92915050565b600060208284031215613bcd57613bcc613b55565b5b6000613bdb84828501613ba2565b91505092915050565b60008115159050919050565b613bf981613be4565b82525050565b6000602082019050613c146000830184613bf0565b92915050565b600081519050919050565b600082825260208201905092915050565b60005b83811015613c54578082015181840152602081019050613c39565b83811115613c63576000848401525b50505050565b6000601f19601f8301169050919050565b6000613c8582613c1a565b613c8f8185613c25565b9350613c9f818560208601613c36565b613ca881613c69565b840191505092915050565b60006020820190508181036000830152613ccd8184613c7a565b905092915050565b6000819050919050565b613ce881613cd5565b8114613cf357600080fd5b50565b600081359050613d0581613cdf565b92915050565b600060208284031215613d2157613d20613b55565b5b6000613d2f84828501613cf6565b91505092915050565b600073ffffffffffffffffffffffffffffffffffffffff82169050919050565b6000613d6382613d38565b9050919050565b613d7381613d58565b82525050565b6000602082019050613d8e6000830184613d6a565b92915050565b613d9d81613d58565b8114613da857600080fd5b50565b600081359050613dba81613d94565b92915050565b60008060408385031215613dd757613dd6613b55565b5b6000613de585828601613dab565b9250506020613df685828601613cf6565b9150509250929050565b613e0981613cd5565b82525050565b6000602082019050613e246000830184613e00565b92915050565b600080600060608486031215613e4357613e42613b55565b5b6000613e5186828701613dab565b9350506020613e6286828701613dab565b9250506040613e7386828701613cf6565b9150509250925092565b6000819050919050565b613e9081613e7d565b8114613e9b57600080fd5b50565b600081359050613ead81613e87565b92915050565b600080fd5b7f4e487b7100000000000000000000000000000000000000000000000000000000600052604160045260246000fd5b613ef082613c69565b810181811067ffffffffffffffff82111715613f0f57613f0e613eb8565b5b80604052505050565b6000613f22613b4b565b9050613f2e8282613ee7565b919050565b600067ffffffffffffffff821115613f4e57613f4d613eb8565b5b602082029050602081019050919050565b600080fd5b6000613f77613f7284613f33565b613f18565b90508083825260208201905060208402830185811115613f9a57613f99613f5f565b5b835b81811015613fc35780613faf8882613e9e565b845260208401935050602081019050613f9c565b5050509392505050565b600082601f830112613fe257613fe1613eb3565b5b8135613ff2848260208601613f64565b91505092915050565b6000806040838503121561401257614011613b55565b5b600061402085828601613e9e565b925050602083013567ffffffffffffffff81111561404157614040613b5a565b5b61404d85828601613fcd565b9150509250929050565b60006020828403121561406d5761406c613b55565b5b600061407b84828501613e9e565b91505092915050565b60006020828403121561409a57614099613b55565b5b60006140a884828501613dab565b91505092915050565b600081519050919050565b600082825260208201905092915050565b6000819050602082019050919050565b6140e681613cd5565b82525050565b60006140f883836140dd565b60208301905092915050565b6000602082019050919050565b600061411c826140b1565b61412681856140bc565b9350614131836140cd565b8060005b8381101561416257815161414988826140ec565b975061415483614104565b925050600181019050614135565b5085935050505092915050565b600060208201905081810360008301526141898184614111565b905092915050565b600060ff82169050919050565b6141a781614191565b81146141b257600080fd5b50565b6000813590506141c48161419e565b92915050565b600080604083850312156141e1576141e0613b55565b5b60006141ef85828601613dab565b9250506020614200858286016141b5565b9150509250929050565b61421381614191565b82525050565b600060208201905061422e600083018461420a565b92915050565b61423d81613be4565b811461424857600080fd5b50565b60008135905061425a81614234565b92915050565b6000806040838503121561427757614276613b55565b5b600061428585828601613dab565b92505060206142968582860161424b565b9150509250929050565b600067ffffffffffffffff8211156142bb576142ba613eb8565b5b602082029050602081019050919050565b60006142df6142da846142a0565b613f18565b9050808382526020820190506020840283018581111561430257614301613f5f565b5b835b8181101561432b57806143178882613cf6565b845260208401935050602081019050614304565b5050509392505050565b600082601f83011261434a57614349613eb3565b5b813561435a8482602086016142cc565b91505092915050565b60006020828403121561437957614378613b55565b5b600082013567ffffffffffffffff81111561439757614396613b5a565b5b6143a384828501614335565b91505092915050565b600080fd5b600067ffffffffffffffff8211156143cc576143cb613eb8565b5b6143d582613c69565b9050602081019050919050565b82818337600083830152505050565b60006144046143ff846143b1565b613f18565b9050828152602081018484840111156144205761441f6143ac565b5b61442b8482856143e2565b509392505050565b600082601f83011261444857614447613eb3565b5b81356144588482602086016143f1565b91505092915050565b6000806000806080858703121561447b5761447a613b55565b5b600061448987828801613dab565b945050602061449a87828801613dab565b93505060406144ab87828801613cf6565b925050606085013567ffffffffffffffff8111156144cc576144cb613b5a565b5b6144d887828801614433565b91505092959194509250565b6000602082840312156144fa576144f9613b55565b5b6000614508848285016141b5565b91505092915050565b60006020828403121561452757614526613b55565b5b60006145358482850161424b565b91505092915050565b600067ffffffffffffffff82111561455957614558613eb8565b5b61456282613c69565b9050602081019050919050565b600061458261457d8461453e565b613f18565b90508281526020810184848401111561459e5761459d6143ac565b5b6145a98482856143e2565b509392505050565b600082601f8301126145c6576145c5613eb3565b5b81356145d684826020860161456f565b91505092915050565b6000602082840312156145f5576145f4613b55565b5b600082013567ffffffffffffffff81111561461357614612613b5a565b5b61461f848285016145b1565b91505092915050565b6000806040838503121561463f5761463e613b55565b5b600061464d85828601613dab565b925050602061465e85828601613dab565b9150509250929050565b7f4e487b7100000000000000000000000000000000000000000000000000000000600052602260045260246000fd5b600060028204905060018216806146af57607f821691505b602082108114156146c3576146c2614668565b5b50919050565b7f4552433732313a20617070726f76656420717565727920666f72206e6f6e657860008201527f697374656e7420746f6b656e0000000000000000000000000000000000000000602082015250565b6000614725602c83613c25565b9150614730826146c9565b604082019050919050565b6000602082019050818103600083015261475481614718565b9050919050565b7f4552433732313a20617070726f76616c20746f2063757272656e74206f776e6560008201527f7200000000000000000000000000000000000000000000000000000000000000602082015250565b60006147b7602183613c25565b91506147c28261475b565b604082019050919050565b600060208201905081810360008301526147e6816147aa565b9050919050565b7f4552433732313a20617070726f76652063616c6c6572206973206e6f74206f7760008201527f6e6572206e6f7220617070726f76656420666f7220616c6c0000000000000000602082015250565b6000614849603883613c25565b9150614854826147ed565b604082019050919050565b600060208201905081810360008301526148788161483c565b9050919050565b7f4552433732313a207472616e736665722063616c6c6572206973206e6f74206f60008201527f776e6572206e6f7220617070726f766564000000000000000000000000000000602082015250565b60006148db603183613c25565b91506148e68261487f565b604082019050919050565b6000602082019050818103600083015261490a816148ce565b9050919050565b7f455243373231456e756d657261626c653a206f776e657220696e646578206f7560008201527f74206f6620626f756e6473000000000000000000000000000000000000000000602082015250565b600061496d602b83613c25565b915061497882614911565b604082019050919050565b6000602082019050818103600083015261499c81614960565b9050919050565b7f4e487b7100000000000000000000000000000000000000000000000000000000600052603260045260246000fd5b6000819050919050565b6149ed6149e882613e7d565b6149d2565b82525050565b60006149ff82856149dc565b602082019150614a0f82846149dc565b6020820191508190509392505050565b7f4e487b7100000000000000000000000000000000000000000000000000000000600052601160045260246000fd5b6000614a5982613cd5565b91507fffffffffffffffffffffffffffffffffffffffffffffffffffffffffffffffff821415614a8c57614a8b614a1f565b5b600182019050919050565b7f4f776e61626c653a2063616c6c6572206973206e6f7420746865206f776e6572600082015250565b6000614acd602083613c25565b9150614ad882614a97565b602082019050919050565b60006020820190508181036000830152614afc81614ac0565b9050919050565b7f455243373231456e756d657261626c653a20676c6f62616c20696e646578206f60008201527f7574206f6620626f756e64730000000000000000000000000000000000000000602082015250565b6000614b5f602c83613c25565b9150614b6a82614b03565b604082019050919050565b60006020820190508181036000830152614b8e81614b52565b9050919050565b7f4552433732313a206f776e657220717565727920666f72206e6f6e657869737460008201527f656e7420746f6b656e0000000000000000000000000000000000000000000000602082015250565b6000614bf1602983613c25565b9150614bfc82614b95565b604082019050919050565b60006020820190508181036000830152614c2081614be4565b9050919050565b7f4552433732313a2062616c616e636520717565727920666f7220746865207a6560008201527f726f206164647265737300000000000000000000000000000000000000000000602082015250565b6000614c83602a83613c25565b9150614c8e82614c27565b604082019050919050565b60006020820190508181036000830152614cb281614c76565b9050919050565b7f546f6b656e20646f6573206e6f74206578697374000000000000000000000000600082015250565b6000614cef601483613c25565b9150614cfa82614cb9565b602082019050919050565b60006020820190508181036000830152614d1e81614ce2565b9050919050565b7f4552433732313a20617070726f766520746f2063616c6c657200000000000000600082015250565b6000614d5b601983613c25565b9150614d6682614d25565b602082019050919050565b60006020820190508181036000830152614d8a81614d4e565b9050919050565b7f5061757361626c653a2070617573656400000000000000000000000000000000600082015250565b6000614dc7601083613c25565b9150614dd282614d91565b602082019050919050565b60006020820190508181036000830152614df681614dba565b9050919050565b7f5265656e7472616e637947756172643a207265656e7472616e742063616c6c00600082015250565b6000614e33601f83613c25565b9150614e3e82614dfd565b602082019050919050565b60006020820190508181036000830152614e6281614e26565b9050919050565b7f57686974656c697374206973206e6f7420616374697665000000000000000000600082015250565b6000614e9f601783613c25565b9150614eaa82614e69565b602082019050919050565b60006020820190508181036000830152614ece81614e92565b9050919050565b7f4e6f7420656e6f7567687420424e420000000000000000000000000000000000600082015250565b6000614f0b600f83613c25565b9150614f1682614ed5565b602082019050919050565b60006020820190508181036000830152614f3a81614efe565b9050919050565b7f4e6f742077686974656c69737465640000000000000000000000000000000000600082015250565b6000614f77600f83613c25565b9150614f8282614f41565b602082019050919050565b60006020820190508181036000830152614fa681614f6a565b9050919050565b6000614fb882613cd5565b9150614fc383613cd5565b925082821015614fd657614fd5614a1f565b5b828203905092915050565b600081905092915050565b6000614ff782613c1a565b6150018185614fe1565b9350615011818560208601613c36565b80840191505092915050565b60006150298285614fec565b91506150358284614fec565b91508190509392505050565b7f57686974656c6973742069732061637469766500000000000000000000000000600082015250565b6000615077601383613c25565b915061508282615041565b602082019050919050565b600060208201905081810360008301526150a68161506a565b9050919050565b7f53616c657320696e20424e4220617265206e6f74207065726d69747465640000600082015250565b60006150e3601e83613c25565b91506150ee826150ad565b602082019050919050565b60006020820190508181036000830152615112816150d6565b9050919050565b600060408201905061512e6000830185613d6a565b61513b6020830184613d6a565b9392505050565b60008151905061515181613cdf565b92915050565b60006020828403121561516d5761516c613b55565b5b600061517b84828501615142565b91505092915050565b7f4e6f7420656e6f7567687420616c6c6f77616e63650000000000000000000000600082015250565b60006151ba601583613c25565b91506151c582615184565b602082019050919050565b600060208201905081810360008301526151e9816151ad565b9050919050565b60006060820190506152056000830186613d6a565b6152126020830185613d6a565b61521f6040830184613e00565b949350505050565b60008151905061523681614234565b92915050565b60006020828403121561525257615251613b55565b5b600061526084828501615227565b91505092915050565b600060408201905061527e6000830185613d6a565b61528b6020830184613e00565b9392505050565b7f4f776e61626c653a206e6577206f776e657220697320746865207a65726f206160008201527f6464726573730000000000000000000000000000000000000000000000000000602082015250565b60006152ee602683613c25565b91506152f982615292565b604082019050919050565b6000602082019050818103600083015261531d816152e1565b9050919050565b7f4552433732313a206f70657261746f7220717565727920666f72206e6f6e657860008201527f697374656e7420746f6b656e0000000000000000000000000000000000000000602082015250565b6000615380602c83613c25565b915061538b82615324565b604082019050919050565b600060208201905081810360008301526153af81615373565b9050919050565b7f4552433732313a207472616e73666572206f6620746f6b656e2074686174206960008201527f73206e6f74206f776e0000000000000000000000000000000000000000000000602082015250565b6000615412602983613c25565b915061541d826153b6565b604082019050919050565b6000602082019050818103600083015261544181615405565b9050919050565b7f4552433732313a207472616e7366657220746f20746865207a65726f2061646460008201527f7265737300000000000000000000000000000000000000000000000000000000602082015250565b60006154a4602483613c25565b91506154af82615448565b604082019050919050565b600060208201905081810360008301526154d381615497565b9050919050565b60006154e582613cd5565b91506154f083613cd5565b9250827fffffffffffffffffffffffffffffffffffffffffffffffffffffffffffffffff0382111561552557615524614a1f565b5b828201905092915050565b7f5061757361626c653a206e6f7420706175736564000000000000000000000000600082015250565b6000615566601483613c25565b915061557182615530565b602082019050919050565b6000602082019050818103600083015261559581615559565b9050919050565b7f4552433732313a207472616e7366657220746f206e6f6e20455243373231526560008201527f63656976657220696d706c656d656e7465720000000000000000000000000000602082015250565b60006155f8603283613c25565b91506156038261559c565b604082019050919050565b60006020820190508181036000830152615627816155eb565b9050919050565b7f4e487b7100000000000000000000000000000000000000000000000000000000600052601260045260246000fd5b600061566882613cd5565b915061567383613cd5565b9250826156835761568261562e565b5b828204905092915050565b600061569982613cd5565b91506156a483613cd5565b9250826156b4576156b361562e565b5b828206905092915050565b60006156ca82613cd5565b91506156d583613cd5565b9250817fffffffffffffffffffffffffffffffffffffffffffffffffffffffffffffffff048311821515161561570e5761570d614a1f565b5b828202905092915050565b600081519050919050565b600082825260208201905092915050565b600061574082615719565b61574a8185615724565b935061575a818560208601613c36565b61576381613c69565b840191505092915050565b60006080820190506157836000830187613d6a565b6157906020830186613d6a565b61579d6040830185613e00565b81810360608301526157af8184615735565b905095945050505050565b6000815190506157c981613b8b565b92915050565b6000602082840312156157e5576157e4613b55565b5b60006157f3848285016157ba565b91505092915050565b7f4e487b7100000000000000000000000000000000000000000000000000000000600052603160045260246000fd5b7f4552433732313a206d696e7420746f20746865207a65726f2061646472657373600082015250565b6000615861602083613c25565b915061586c8261582b565b602082019050919050565b6000602082019050818103600083015261589081615854565b9050919050565b7f4552433732313a20746f6b656e20616c7265616479206d696e74656400000000600082015250565b60006158cd601c83613c25565b91506158d882615897565b602082019050919050565b600060208201905081810360008301526158fc816158c0565b905091905056fea264697066735822122009c5d25b61a5054310b6ac50253f0ef45651389ced13ef58393f0a6f9efaca8064736f6c6343000809003368747470733a2f2f6261636b656e642e63727970746f627572676572732e696f2f6d657461646174612f",
  "linkReferences": {},
  "deployedLinkReferences": {}
}