{
  "address": "0x2C9222F13cD55F7386E5480494201391307f35bC",
  "abi": [
    {
      "inputs": [],
      "stateMutability": "nonpayable",
      "type": "constructor"
    },
    {
      "anonymous": false,
      "inputs": [
        {
          "indexed": true,
          "internalType": "address",
          "name": "owner",
          "type": "address"
        },
        {
          "indexed": true,
          "internalType": "address",
          "name": "approved",
          "type": "address"
        },
        {
          "indexed": true,
          "internalType": "uint256",
          "name": "tokenId",
          "type": "uint256"
        }
      ],
      "name": "Approval",
      "type": "event"
    },
    {
      "anonymous": false,
      "inputs": [
        {
          "indexed": true,
          "internalType": "address",
          "name": "owner",
          "type": "address"
        },
        {
          "indexed": true,
          "internalType": "address",
          "name": "operator",
          "type": "address"
        },
        {
          "indexed": false,
          "internalType": "bool",
          "name": "approved",
          "type": "bool"
        }
      ],
      "name": "ApprovalForAll",
      "type": "event"
    },
    {
      "anonymous": false,
      "inputs": [
        {
          "indexed": true,
          "internalType": "address",
          "name": "_to",
          "type": "address"
        },
        {
          "indexed": true,
          "internalType": "uint256",
          "name": "_id",
          "type": "uint256"
        },
        {
          "indexed": true,
          "internalType": "uint8",
          "name": "_boxType",
          "type": "uint8"
        }
      ],
      "name": "MintNFT",
      "type": "event"
    },
    {
      "anonymous": false,
      "inputs": [
        {
          "indexed": true,
          "internalType": "address",
          "name": "previousOwner",
          "type": "address"
        },
        {
          "indexed": true,
          "internalType": "address",
          "name": "newOwner",
          "type": "address"
        }
      ],
      "name": "OwnershipTransferred",
      "type": "event"
    },
    {
      "anonymous": false,
      "inputs": [
        {
          "indexed": false,
          "internalType": "address",
          "name": "account",
          "type": "address"
        }
      ],
      "name": "Paused",
      "type": "event"
    },
    {
      "anonymous": false,
      "inputs": [
        {
          "indexed": true,
          "internalType": "address",
          "name": "from",
          "type": "address"
        },
        {
          "indexed": true,
          "internalType": "address",
          "name": "to",
          "type": "address"
        },
        {
          "indexed": true,
          "internalType": "uint256",
          "name": "tokenId",
          "type": "uint256"
        }
      ],
      "name": "Transfer",
      "type": "event"
    },
    {
      "anonymous": false,
      "inputs": [
        {
          "indexed": false,
          "internalType": "address",
          "name": "account",
          "type": "address"
        }
      ],
      "name": "Unpaused",
      "type": "event"
    },
    {
      "anonymous": false,
      "inputs": [
        {
          "indexed": false,
          "internalType": "bool",
          "name": "isWhiteList",
          "type": "bool"
        }
      ],
      "name": "whitelistModeChanged",
      "type": "event"
    },
    {
      "inputs": [
        {
          "internalType": "uint256",
          "name": "",
          "type": "uint256"
        }
      ],
      "name": "_limitTokenAmountPerBoxtype",
      "outputs": [
        {
          "internalType": "uint64",
          "name": "",
          "type": "uint64"
        }
      ],
      "stateMutability": "view",
      "type": "function"
    },
    {
      "inputs": [
        {
          "internalType": "uint256",
          "name": "",
          "type": "uint256"
        }
      ],
      "name": "_tokenSupply",
      "outputs": [
        {
          "internalType": "uint256",
          "name": "",
          "type": "uint256"
        }
      ],
      "stateMutability": "view",
      "type": "function"
    },
    {
      "inputs": [
        {
          "internalType": "address",
          "name": "to",
          "type": "address"
        },
        {
          "internalType": "uint256",
          "name": "tokenId",
          "type": "uint256"
        }
      ],
      "name": "approve",
      "outputs": [],
      "stateMutability": "nonpayable",
      "type": "function"
    },
    {
      "inputs": [
        {
          "internalType": "address",
          "name": "owner",
          "type": "address"
        }
      ],
      "name": "balanceOf",
      "outputs": [
        {
          "internalType": "uint256",
          "name": "",
          "type": "uint256"
        }
      ],
      "stateMutability": "view",
      "type": "function"
    },
    {
      "inputs": [
        {
          "internalType": "uint256",
          "name": "",
          "type": "uint256"
        }
      ],
      "name": "boxPriceBNB",
      "outputs": [
        {
          "internalType": "uint256",
          "name": "",
          "type": "uint256"
        }
      ],
      "stateMutability": "view",
      "type": "function"
    },
    {
      "inputs": [
        {
          "internalType": "uint256",
          "name": "",
          "type": "uint256"
        }
      ],
      "name": "boxPriceBURG",
      "outputs": [
        {
          "internalType": "uint256",
          "name": "",
          "type": "uint256"
        }
      ],
      "stateMutability": "view",
      "type": "function"
    },
    {
      "inputs": [
        {
          "internalType": "string",
          "name": "newBaseTokenURI",
          "type": "string"
        }
      ],
      "name": "changeBaseTokenURI",
      "outputs": [],
      "stateMutability": "nonpayable",
      "type": "function"
    },
    {
      "inputs": [
        {
          "internalType": "bool",
          "name": "newValue",
          "type": "bool"
        }
      ],
      "name": "changeEnableSaleBNB",
      "outputs": [],
      "stateMutability": "nonpayable",
      "type": "function"
    },
    {
      "inputs": [
        {
          "internalType": "bytes32",
          "name": "newRoot",
          "type": "bytes32"
        }
      ],
      "name": "changeRoot",
      "outputs": [],
      "stateMutability": "nonpayable",
      "type": "function"
    },
    {
      "inputs": [
        {
          "internalType": "bool",
          "name": "newState",
          "type": "bool"
        }
      ],
      "name": "changeWhitelistState",
      "outputs": [],
      "stateMutability": "nonpayable",
      "type": "function"
    },
    {
      "inputs": [
        {
          "internalType": "uint256",
          "name": "tokenId",
          "type": "uint256"
        }
      ],
      "name": "getApproved",
      "outputs": [
        {
          "internalType": "address",
          "name": "",
          "type": "address"
        }
      ],
      "stateMutability": "view",
      "type": "function"
    },
    {
      "inputs": [],
      "name": "getPriceType",
      "outputs": [
        {
          "internalType": "string",
          "name": "",
          "type": "string"
        }
      ],
      "stateMutability": "view",
      "type": "function"
    },
    {
      "inputs": [
        {
          "internalType": "uint256",
          "name": "_tokenId",
          "type": "uint256"
        }
      ],
      "name": "getboxTypeById",
      "outputs": [
        {
          "internalType": "uint8",
          "name": "",
          "type": "uint8"
        }
      ],
      "stateMutability": "view",
      "type": "function"
    },
    {
      "inputs": [],
      "name": "initialize",
      "outputs": [],
      "stateMutability": "nonpayable",
      "type": "function"
    },
    {
      "inputs": [
        {
          "internalType": "address",
          "name": "owner",
          "type": "address"
        },
        {
          "internalType": "address",
          "name": "operator",
          "type": "address"
        }
      ],
      "name": "isApprovedForAll",
      "outputs": [
        {
          "internalType": "bool",
          "name": "",
          "type": "bool"
        }
      ],
      "stateMutability": "view",
      "type": "function"
    },
    {
      "inputs": [
        {
          "internalType": "address",
          "name": "_to",
          "type": "address"
        }
      ],
      "name": "mintForGoldenTicket",
      "outputs": [
        {
          "internalType": "uint256",
          "name": "",
          "type": "uint256"
        }
      ],
      "stateMutability": "nonpayable",
      "type": "function"
    },
    {
      "inputs": [
        {
          "internalType": "uint8",
          "name": "boxType",
          "type": "uint8"
        }
      ],
      "name": "mintNormal",
      "outputs": [
        {
          "internalType": "uint256",
          "name": "",
          "type": "uint256"
        }
      ],
      "stateMutability": "payable",
      "type": "function"
    },
    {
      "inputs": [
        {
          "internalType": "uint8",
          "name": "boxType",
          "type": "uint8"
        }
      ],
      "name": "mintNormalBURG",
      "outputs": [
        {
          "internalType": "uint256",
          "name": "",
          "type": "uint256"
        }
      ],
      "stateMutability": "nonpayable",
      "type": "function"
    },
    {
      "inputs": [
        {
          "internalType": "address",
          "name": "_to",
          "type": "address"
        },
        {
          "internalType": "uint8",
          "name": "boxType",
          "type": "uint8"
        }
      ],
      "name": "mintOwner",
      "outputs": [
        {
          "internalType": "uint256",
          "name": "",
          "type": "uint256"
        }
      ],
      "stateMutability": "nonpayable",
      "type": "function"
    },
    {
      "inputs": [
        {
          "internalType": "bytes32[]",
          "name": "proof",
          "type": "bytes32[]"
        },
        {
          "internalType": "uint8",
          "name": "boxType",
          "type": "uint8"
        }
      ],
      "name": "mintWhitelist",
      "outputs": [],
      "stateMutability": "payable",
      "type": "function"
    },
    {
      "inputs": [],
      "name": "name",
      "outputs": [
        {
          "internalType": "string",
          "name": "",
          "type": "string"
        }
      ],
      "stateMutability": "view",
      "type": "function"
    },
    {
      "inputs": [],
      "name": "owner",
      "outputs": [
        {
          "internalType": "address",
          "name": "",
          "type": "address"
        }
      ],
      "stateMutability": "view",
      "type": "function"
    },
    {
      "inputs": [
        {
          "internalType": "uint256",
          "name": "tokenId",
          "type": "uint256"
        }
      ],
      "name": "ownerOf",
      "outputs": [
        {
          "internalType": "address",
          "name": "",
          "type": "address"
        }
      ],
      "stateMutability": "view",
      "type": "function"
    },
    {
      "inputs": [],
      "name": "pause",
      "outputs": [
        {
          "internalType": "bool",
          "name": "",
          "type": "bool"
        }
      ],
      "stateMutability": "nonpayable",
      "type": "function"
    },
    {
      "inputs": [],
      "name": "paused",
      "outputs": [
        {
          "internalType": "bool",
          "name": "",
          "type": "bool"
        }
      ],
      "stateMutability": "view",
      "type": "function"
    },
    {
      "inputs": [],
      "name": "renounceOwnership",
      "outputs": [],
      "stateMutability": "nonpayable",
      "type": "function"
    },
    {
      "inputs": [
        {
          "internalType": "address",
          "name": "from",
          "type": "address"
        },
        {
          "internalType": "address",
          "name": "to",
          "type": "address"
        },
        {
          "internalType": "uint256",
          "name": "tokenId",
          "type": "uint256"
        }
      ],
      "name": "safeTransferFrom",
      "outputs": [],
      "stateMutability": "nonpayable",
      "type": "function"
    },
    {
      "inputs": [
        {
          "internalType": "address",
          "name": "from",
          "type": "address"
        },
        {
          "internalType": "address",
          "name": "to",
          "type": "address"
        },
        {
          "internalType": "uint256",
          "name": "tokenId",
          "type": "uint256"
        },
        {
          "internalType": "bytes",
          "name": "_data",
          "type": "bytes"
        }
      ],
      "name": "safeTransferFrom",
      "outputs": [],
      "stateMutability": "nonpayable",
      "type": "function"
    },
    {
      "inputs": [],
      "name": "saleBNBEnabled",
      "outputs": [
        {
          "internalType": "bool",
          "name": "",
          "type": "bool"
        }
      ],
      "stateMutability": "view",
      "type": "function"
    },
    {
      "inputs": [
        {
          "internalType": "address",
          "name": "operator",
          "type": "address"
        },
        {
          "internalType": "bool",
          "name": "approved",
          "type": "bool"
        }
      ],
      "name": "setApprovalForAll",
      "outputs": [],
      "stateMutability": "nonpayable",
      "type": "function"
    },
    {
      "inputs": [
        {
          "internalType": "address",
          "name": "_newAddress",
          "type": "address"
        }
      ],
      "name": "setBURGAddress",
      "outputs": [
        {
          "internalType": "bool",
          "name": "",
          "type": "bool"
        }
      ],
      "stateMutability": "nonpayable",
      "type": "function"
    },
    {
      "inputs": [],
      "name": "strBaseTokenURI",
      "outputs": [
        {
          "internalType": "string",
          "name": "",
          "type": "string"
        }
      ],
      "stateMutability": "view",
      "type": "function"
    },
    {
      "inputs": [
        {
          "internalType": "bytes4",
          "name": "interfaceId",
          "type": "bytes4"
        }
      ],
      "name": "supportsInterface",
      "outputs": [
        {
          "internalType": "bool",
          "name": "",
          "type": "bool"
        }
      ],
      "stateMutability": "view",
      "type": "function"
    },
    {
      "inputs": [],
      "name": "symbol",
      "outputs": [
        {
          "internalType": "string",
          "name": "",
          "type": "string"
        }
      ],
      "stateMutability": "view",
      "type": "function"
    },
    {
      "inputs": [
        {
          "internalType": "uint256",
          "name": "index",
          "type": "uint256"
        }
      ],
      "name": "tokenByIndex",
      "outputs": [
        {
          "internalType": "uint256",
          "name": "",
          "type": "uint256"
        }
      ],
      "stateMutability": "view",
      "type": "function"
    },
    {
      "inputs": [
        {
          "internalType": "address",
          "name": "owner",
          "type": "address"
        },
        {
          "internalType": "uint256",
          "name": "index",
          "type": "uint256"
        }
      ],
      "name": "tokenOfOwnerByIndex",
      "outputs": [
        {
          "internalType": "uint256",
          "name": "",
          "type": "uint256"
        }
      ],
      "stateMutability": "view",
      "type": "function"
    },
    {
      "inputs": [
        {
          "internalType": "uint256",
          "name": "_tokenId",
          "type": "uint256"
        }
      ],
      "name": "tokenURI",
      "outputs": [
        {
          "internalType": "string",
          "name": "",
          "type": "string"
        }
      ],
      "stateMutability": "view",
      "type": "function"
    },
    {
      "inputs": [],
      "name": "totalSupply",
      "outputs": [
        {
          "internalType": "uint256",
          "name": "",
          "type": "uint256"
        }
      ],
      "stateMutability": "view",
      "type": "function"
    },
    {
      "inputs": [
        {
          "internalType": "address",
          "name": "from",
          "type": "address"
        },
        {
          "internalType": "address",
          "name": "to",
          "type": "address"
        },
        {
          "internalType": "uint256",
          "name": "tokenId",
          "type": "uint256"
        }
      ],
      "name": "transferFrom",
      "outputs": [],
      "stateMutability": "nonpayable",
      "type": "function"
    },
    {
      "inputs": [
        {
          "internalType": "address",
          "name": "newOwner",
          "type": "address"
        }
      ],
      "name": "transferOwnership",
      "outputs": [],
      "stateMutability": "nonpayable",
      "type": "function"
    },
    {
      "inputs": [],
      "name": "unpause",
      "outputs": [
        {
          "internalType": "bool",
          "name": "",
          "type": "bool"
        }
      ],
      "stateMutability": "nonpayable",
      "type": "function"
    },
    {
      "inputs": [
        {
          "internalType": "uint256[]",
          "name": "_newBoxPricesBNB",
          "type": "uint256[]"
        }
      ],
      "name": "updateBoxPricesBNB",
      "outputs": [
        {
          "internalType": "bool",
          "name": "",
          "type": "bool"
        }
      ],
      "stateMutability": "nonpayable",
      "type": "function"
    },
    {
      "inputs": [
        {
          "internalType": "uint256[]",
          "name": "_newBoxPricesBURG",
          "type": "uint256[]"
        }
      ],
      "name": "updateBoxPricesBURG",
      "outputs": [
        {
          "internalType": "bool",
          "name": "",
          "type": "bool"
        }
      ],
      "stateMutability": "nonpayable",
      "type": "function"
    },
    {
      "inputs": [
        {
          "internalType": "bytes32",
          "name": "leaf",
          "type": "bytes32"
        },
        {
          "internalType": "bytes32[]",
          "name": "proof",
          "type": "bytes32[]"
        }
      ],
      "name": "verifyWhitelist",
      "outputs": [
        {
          "internalType": "bool",
          "name": "",
          "type": "bool"
        }
      ],
      "stateMutability": "view",
      "type": "function"
    },
    {
      "inputs": [
        {
          "internalType": "address",
          "name": "_owner",
          "type": "address"
        }
      ],
      "name": "walletOfOwner",
      "outputs": [
        {
          "internalType": "uint256[]",
          "name": "",
          "type": "uint256[]"
        }
      ],
      "stateMutability": "view",
      "type": "function"
    },
    {
      "inputs": [],
      "name": "whitelistActive",
      "outputs": [
        {
          "internalType": "bool",
          "name": "",
          "type": "bool"
        }
      ],
      "stateMutability": "view",
      "type": "function"
    },
    {
      "inputs": [],
      "name": "withdraw",
      "outputs": [],
      "stateMutability": "nonpayable",
      "type": "function"
    }
  ],
  "transactionHash": "0x1d2cb36dbafe1637a52734af14470b6ff076ce847a636f39e446c41002958c1c",
  "args": [],
  "solcInputHash": "d17bbeb4f3af395b3002e3e3066c1912",
  "bytecode": "0x60e0604052662386f26fc10000608090815266470de4df82000060a052666a94d74f43000060c052620000389061016090600362000210565b5060408051606081018252662386f26fc10000815266470de4df8200006020820152666a94d74f430000918101919091526200007a9061016190600362000210565b5060405180606001604052806022815260200162003aba602291398051620000ac91610162916020909101906200026b565b50610163805461ffff191660011790557fa2fc709bf2f4b9cb44b8a9114485d12d4877bb1beedd81f62f4f85a8056480ee6101645560408051606081018252600080825260208201819052918101919091526200010f90610166906003620002e8565b5060408051606081018252611130815261089860208201526103849181019190915262000142906101679060036200032b565b503480156200015057600080fd5b50600054610100900460ff16806200016b575060005460ff16155b620001d35760405162461bcd60e51b815260206004820152602e60248201527f496e697469616c697a61626c653a20636f6e747261637420697320616c72656160448201526d191e481a5b9a5d1a585b1a5e995960921b606482015260840160405180910390fd5b600054610100900460ff16158015620001f6576000805461ffff19166101011790555b801562000209576000805461ff00191690555b506200042f565b82805482825590600052602060002090810192821562000259579160200282015b8281111562000259578251829066ffffffffffffff1690559160200191906001019062000231565b5062000267929150620003db565b5090565b8280546200027990620003f2565b90600052602060002090601f0160209004810192826200029d576000855562000259565b82601f10620002b857805160ff191683800117855562000259565b8280016001018555821562000259579182015b8281111562000259578251825591602001919060010190620002cb565b82805482825590600052602060002090810192821562000259579160200282015b8281111562000259578251829060ff1690559160200191906001019062000309565b82805482825590600052602060002090600301600490048101928215620002595791602002820160005b838211156200039c57835183826101000a8154816001600160401b03021916908361ffff160217905550926020019260080160208160070104928301926001030262000355565b8015620003d15782816101000a8154906001600160401b0302191690556008016020816007010492830192600103026200039c565b5050620002679291505b5b80821115620002675760008155600101620003dc565b600181811c908216806200040757607f821691505b602082108114156200042957634e487b7160e01b600052602260045260246000fd5b50919050565b61367b806200043f6000396000f3fe6080604052600436106102885760003560e01c806379d727941161015a578063b88d4fde116100c1578063e0d5f5db1161007a578063e0d5f5db146107af578063e40e97a7146107cf578063e985e9c5146107ef578063f09542b314610838578063f1859b8c1461084b578063f2fde38b1461086057600080fd5b8063b88d4fde14610707578063c87b56dd14610727578063ca84763314610747578063d124d28f1461075c578063d883656a1461077c578063d9583b9f1461078f57600080fd5b80638cba90b0116101135780638cba90b0146106425780638d79cc48146106745780638da5cb5b1461069457806395d89b41146106b2578063a22cb465146106c7578063a69a6e82146106e757600080fd5b806379d72794146105985780637b125a1d146105b85780638129fc1c146105d85780638456cb59146105ed57806384b70ecb1461060257806387ddb7b71461062257600080fd5b80632f745c59116101fe578063438b6300116101b7578063438b6300146104de5780634f6ccce71461050b5780635c975abb1461052b5780636352211e1461054357806370a0823114610563578063715018a61461058357600080fd5b80632f745c5914610434578063329ea90d146104545780633ccfd60b146104745780633d59cd60146104895780633f4ba83a146104a957806342842e0e146104be57600080fd5b8063081812fc11610250578063081812fc1461036a578063095ea7b3146103a2578063120f91d5146103c457806318160ddd146103e457806323b872dd146103f957806329c7f1fa1461041957600080fd5b8063014d41151461028d57806301ffc9a7146102c057806302ce5813146102f057806306db2e341461031057806306fdde0314610348575b600080fd5b34801561029957600080fd5b506102ad6102a8366004612d55565b610880565b6040519081526020015b60405180910390f35b3480156102cc57600080fd5b506102e06102db366004612d84565b6108a2565b60405190151581526020016102b7565b3480156102fc57600080fd5b50610163546102e090610100900460ff1681565b34801561031c57600080fd5b5061033061032b366004612d55565b6108cd565b6040516001600160401b0390911681526020016102b7565b34801561035457600080fd5b5061035d61090b565b6040516102b79190612df9565b34801561037657600080fd5b5061038a610385366004612d55565b61099d565b6040516001600160a01b0390911681526020016102b7565b3480156103ae57600080fd5b506103c26103bd366004612e23565b610a37565b005b3480156103d057600080fd5b506102ad6103df366004612d55565b610b4d565b3480156103f057600080fd5b506099546102ad565b34801561040557600080fd5b506103c2610414366004612e4d565b610b5e565b34801561042557600080fd5b50610163546102e09060ff1681565b34801561044057600080fd5b506102ad61044f366004612e23565b610b8f565b34801561046057600080fd5b506102e061046f366004612f5d565b610c25565b34801561048057600080fd5b506103c2610cd7565b34801561049557600080fd5b506103c26104a4366004612d55565b610d50565b3480156104b557600080fd5b506102e0610d80565b3480156104ca57600080fd5b506103c26104d9366004612e4d565b610dbb565b3480156104ea57600080fd5b506104fe6104f9366004612fa3565b610dd6565b6040516102b79190612fbe565b34801561051757600080fd5b506102ad610526366004612d55565b610e77565b34801561053757600080fd5b5060c95460ff166102e0565b34801561054f57600080fd5b5061038a61055e366004612d55565b610f0a565b34801561056f57600080fd5b506102ad61057e366004612fa3565b610f81565b34801561058f57600080fd5b506103c2611008565b3480156105a457600080fd5b506102ad6105b3366004613013565b61103e565b3480156105c457600080fd5b506102e06105d3366004612fa3565b61107c565b3480156105e457600080fd5b506103c26110ce565b3480156105f957600080fd5b506102e0611180565b34801561060e57600080fd5b506103c261061d366004613054565b6111b5565b34801561062e57600080fd5b506102ad61063d366004612d55565b6111f3565b34801561064e57600080fd5b5061066261065d366004612d55565b611204565b60405160ff90911681526020016102b7565b34801561068057600080fd5b506102ad61068f366004612fa3565b611276565b3480156106a057600080fd5b5060fb546001600160a01b031661038a565b3480156106be57600080fd5b5061035d6112ae565b3480156106d357600080fd5b506103c26106e2366004613071565b6112bd565b3480156106f357600080fd5b506102e06107023660046130a8565b6112c8565b34801561071357600080fd5b506103c261072236600461318f565b611312565b34801561073357600080fd5b5061035d610742366004612d55565b61134a565b34801561075357600080fd5b5061035d6113e0565b34801561076857600080fd5b506102ad61077736600461320a565b61146f565b6103c261078a366004613225565b61181e565b34801561079b57600080fd5b506103c26107aa366004613054565b611ae2565b3480156107bb57600080fd5b506102e06107ca3660046130a8565b611b64565b3480156107db57600080fd5b506103c26107ea366004613269565b611ba5565b3480156107fb57600080fd5b506102e061080a3660046132b1565b6001600160a01b039182166000908152606a6020908152604080832093909416825291909152205460ff1690565b6102ad61084636600461320a565b611be3565b34801561085757600080fd5b5061035d611dba565b34801561086c57600080fd5b506103c261087b366004612fa3565b611e06565b610166818154811061089157600080fd5b600091825260209091200154905081565b60006001600160e01b0319821663780e9d6360e01b14806108c757506108c782611e9e565b92915050565b61016781815481106108de57600080fd5b9060005260206000209060049182820401919006600802915054906101000a90046001600160401b031681565b60606065805461091a906132db565b80601f0160208091040260200160405190810160405280929190818152602001828054610946906132db565b80156109935780601f1061096857610100808354040283529160200191610993565b820191906000526020600020905b81548152906001019060200180831161097657829003601f168201915b5050505050905090565b6000818152606760205260408120546001600160a01b0316610a1b5760405162461bcd60e51b815260206004820152602c60248201527f4552433732313a20617070726f76656420717565727920666f72206e6f6e657860448201526b34b9ba32b73a103a37b5b2b760a11b60648201526084015b60405180910390fd5b506000908152606960205260409020546001600160a01b031690565b6000610a4282610f0a565b9050806001600160a01b0316836001600160a01b03161415610ab05760405162461bcd60e51b815260206004820152602160248201527f4552433732313a20617070726f76616c20746f2063757272656e74206f776e656044820152603960f91b6064820152608401610a12565b336001600160a01b0382161480610acc5750610acc813361080a565b610b3e5760405162461bcd60e51b815260206004820152603860248201527f4552433732313a20617070726f76652063616c6c6572206973206e6f74206f7760448201527f6e6572206e6f7220617070726f76656420666f7220616c6c00000000000000006064820152608401610a12565b610b488383611eee565b505050565b610160818154811061089157600080fd5b610b683382611f5c565b610b845760405162461bcd60e51b8152600401610a1290613316565b610b48838383612053565b6000610b9a83610f81565b8210610bfc5760405162461bcd60e51b815260206004820152602b60248201527f455243373231456e756d657261626c653a206f776e657220696e646578206f7560448201526a74206f6620626f756e647360a81b6064820152608401610a12565b506001600160a01b03919091166000908152609760209081526040808320938352929052205490565b600082815b8351811015610cca576000848281518110610c4757610c47613367565b6020026020010151905080831015610c8a576040805160208101859052908101829052606001604051602081830303815290604052805190602001209250610cb7565b60408051602081018390529081018490526060016040516020818303038152906040528051906020012092505b5080610cc281613393565b915050610c2a565b5061016454149392505050565b60fb546001600160a01b03163314610d015760405162461bcd60e51b8152600401610a12906133ae565b47610d1460fb546001600160a01b031690565b6001600160a01b03166108fc829081150290604051600060405180830381858888f19350505050158015610d4c573d6000803e3d6000fd5b5050565b60fb546001600160a01b03163314610d7a5760405162461bcd60e51b8152600401610a12906133ae565b61016455565b60fb546000906001600160a01b03163314610dad5760405162461bcd60e51b8152600401610a12906133ae565b610db56121fe565b50600190565b610b4883838360405180602001604052806000815250611312565b60606000610de383610f81565b90506000816001600160401b03811115610dff57610dff612e89565b604051908082528060200260200182016040528015610e28578160200160208202803683370190505b50905060005b82811015610e6f57610e408582610b8f565b828281518110610e5257610e52613367565b602090810291909101015280610e6781613393565b915050610e2e565b509392505050565b6000610e8260995490565b8210610ee55760405162461bcd60e51b815260206004820152602c60248201527f455243373231456e756d657261626c653a20676c6f62616c20696e646578206f60448201526b7574206f6620626f756e647360a01b6064820152608401610a12565b60998281548110610ef857610ef8613367565b90600052602060002001549050919050565b6000818152606760205260408120546001600160a01b0316806108c75760405162461bcd60e51b815260206004820152602960248201527f4552433732313a206f776e657220717565727920666f72206e6f6e657869737460448201526832b73a103a37b5b2b760b91b6064820152608401610a12565b60006001600160a01b038216610fec5760405162461bcd60e51b815260206004820152602a60248201527f4552433732313a2062616c616e636520717565727920666f7220746865207a65604482015269726f206164647265737360b01b6064820152608401610a12565b506001600160a01b031660009081526068602052604090205490565b60fb546001600160a01b031633146110325760405162461bcd60e51b8152600401610a12906133ae565b61103c6000612291565b565b60fb546000906001600160a01b0316331461106b5760405162461bcd60e51b8152600401610a12906133ae565b61107583836122e3565b9392505050565b60fb546000906001600160a01b031633146110a95760405162461bcd60e51b8152600401610a12906133ae565b5061016580546001600160a01b0319166001600160a01b03831617905560015b919050565b600054610100900460ff16806110e7575060005460ff16155b6111035760405162461bcd60e51b8152600401610a12906133e3565b600054610100900460ff16158015611125576000805461ffff19166101011790555b61116b60405180604001604052806006815260200165213ab933b2b960d11b81525060405180604001604052806006815260200165212aa923a2a960d11b81525061238d565b801561117d576000805461ff00191690555b50565b60fb546000906001600160a01b031633146111ad5760405162461bcd60e51b8152600401610a12906133ae565b610db5612414565b60fb546001600160a01b031633146111df5760405162461bcd60e51b8152600401610a12906133ae565b610163805460ff1916911515919091179055565b610161818154811061089157600080fd5b6000818152606760205260408120546001600160a01b031661125f5760405162461bcd60e51b8152602060048201526014602482015273151bdad95b88191bd95cc81b9bdd08195e1a5cdd60621b6044820152606401610a12565b50600090815261015f602052604090205460ff1690565b60fb546000906001600160a01b031633146112a35760405162461bcd60e51b8152600401610a12906133ae565b6108c78260016122e3565b60606066805461091a906132db565b610d4c33838361246c565b60fb546000906001600160a01b031633146112f55760405162461bcd60e51b8152600401610a12906133ae565b815161130990610160906020850190612c82565b50600192915050565b61131c3383611f5c565b6113385760405162461bcd60e51b8152600401610a1290613316565b6113448484848461253b565b50505050565b6000818152606760205260409020546060906001600160a01b03166113a85760405162461bcd60e51b8152602060048201526014602482015273151bdad95b88191bd95cc81b9bdd08195e1a5cdd60621b6044820152606401610a12565b6113b061256e565b6113b98361257e565b6040516020016113ca929190613431565b6040516020818303038152906040529050919050565b61016280546113ee906132db565b80601f016020809104026020016040519081016040528092919081815260200182805461141a906132db565b80156114675780601f1061143c57610100808354040283529160200191611467565b820191906000526020600020905b81548152906001019060200180831161144a57829003601f168201915b505050505081565b600061147d60c95460ff1690565b1561149a5760405162461bcd60e51b8152600401610a1290613460565b600261012d5414156114be5760405162461bcd60e51b8152600401610a129061348a565b600261012d5561016354610100900460ff16156115135760405162461bcd60e51b815260206004820152601360248201527257686974656c6973742069732061637469766560681b6044820152606401610a12565b6101635460ff16156115675760405162461bcd60e51b815260206004820152601f60248201527f53616c657320696e204255524720617265206e6f74207065726d6974746564006044820152606401610a12565b6101618260ff168154811061157e5761157e613367565b60009182526020909120015461016554604051636eb1769f60e11b81523360048201523060248201526001600160a01b039091169063dd62ed3e9060440160206040518083038186803b1580156115d457600080fd5b505afa1580156115e8573d6000803e3d6000fd5b505050506040513d601f19601f8201168201806040525081019061160c91906134c1565b10156116525760405162461bcd60e51b81526020600482015260156024820152744e6f7420656e6f7567687420616c6c6f77616e636560581b6044820152606401610a12565b610165546001600160a01b03166323b872dd3361167760fb546001600160a01b031690565b6116b760646116b160086101618a60ff168154811061169857611698613367565b906000526020600020015461267b90919063ffffffff16565b90612687565b6040516001600160e01b031960e086901b1681526001600160a01b0393841660048201529290911660248301526044820152606401602060405180830381600087803b15801561170657600080fd5b505af115801561171a573d6000803e3d6000fd5b505050506040513d601f19601f8201168201806040525081019061173e91906134da565b5061016560009054906101000a90046001600160a01b03166001600160a01b0316639dc29fac3361178660646116b1605c6101618960ff168154811061169857611698613367565b6040516001600160e01b031960e085901b1681526001600160a01b0390921660048301526024820152604401602060405180830381600087803b1580156117cc57600080fd5b505af11580156117e0573d6000803e3d6000fd5b505050506040513d601f19601f8201168201806040525081019061180491906134da565b50600061181133846122e3565b600161012d559392505050565b60c95460ff16156118415760405162461bcd60e51b8152600401610a1290613460565b600261012d5414156118655760405162461bcd60e51b8152600401610a129061348a565b600261012d5561016354610100900460ff166118c35760405162461bcd60e51b815260206004820152601760248201527f57686974656c697374206973206e6f74206163746976650000000000000000006044820152606401610a12565b6101608160ff16815481106118da576118da613367565b90600052602060002001543410156119265760405162461bcd60e51b815260206004820152600f60248201526e2737ba1032b737bab3b43a1021272160891b6044820152606401610a12565b6101678160ff168154811061193d5761193d613367565b90600052602060002090600491828204019190066008029054906101000a90046001600160401b03166001600160401b03166101668260ff168154811061198657611986613367565b9060005260206000200154106119de5760405162461bcd60e51b815260206004820152601b60248201527f4c696d69746174696f6e20686173206265656e207265616368656400000000006044820152606401610a12565b604080513360601b6bffffffffffffffffffffffff19166020808301919091528251601481840301815260349092019092528051910120600090611a229084610c25565b90508015611a3a57611a3433836122e3565b50611a74565b60405162461bcd60e51b815260206004820152600f60248201526e139bdd081dda1a5d195b1a5cdd1959608a1b6044820152606401610a12565b336001600160a01b03166108fc6101608460ff1681548110611a9857611a98613367565b906000526020600020015434611aae91906134f7565b6040518115909202916000818181858888f19350505050158015611ad6573d6000803e3d6000fd5b5050600161012d555050565b60fb546001600160a01b03163314611b0c5760405162461bcd60e51b8152600401610a12906133ae565b610163805461ff0019166101008315158102919091179182905560405160ff9190920416151581527f52cf77d97507bfe5c826e8a0dd53032bac06a11f9d0db13603d9887ed5cbf2179060200160405180910390a150565b60fb546000906001600160a01b03163314611b915760405162461bcd60e51b8152600401610a12906133ae565b815161130990610161906020850190612c82565b60fb546001600160a01b03163314611bcf5760405162461bcd60e51b8152600401610a12906133ae565b8051610d4c90610162906020840190612ccd565b6000611bf160c95460ff1690565b15611c0e5760405162461bcd60e51b8152600401610a1290613460565b600261012d541415611c325760405162461bcd60e51b8152600401610a129061348a565b600261012d5561016354610100900460ff1615611c875760405162461bcd60e51b815260206004820152601360248201527257686974656c6973742069732061637469766560681b6044820152606401610a12565b6101635460ff16611cda5760405162461bcd60e51b815260206004820152601e60248201527f53616c657320696e20424e4220617265206e6f74207065726d697474656400006044820152606401610a12565b6101608260ff1681548110611cf157611cf1613367565b9060005260206000200154341015611d3d5760405162461bcd60e51b815260206004820152600f60248201526e2737ba1032b737bab3b43a1021272160891b6044820152606401610a12565b6000611d4933846122e3565b9050336001600160a01b03166108fc6101608560ff1681548110611d6f57611d6f613367565b906000526020600020015434611d8591906134f7565b6040518115909202916000818181858888f19350505050158015611dad573d6000803e3d6000fd5b50600161012d5592915050565b6101635460609060ff1615611de7575060408051808201909152600381526221272160e91b602082015290565b506040805180820190915260048152634255524760e01b602082015290565b60fb546001600160a01b03163314611e305760405162461bcd60e51b8152600401610a12906133ae565b6001600160a01b038116611e955760405162461bcd60e51b815260206004820152602660248201527f4f776e61626c653a206e6577206f776e657220697320746865207a65726f206160448201526564647265737360d01b6064820152608401610a12565b61117d81612291565b60006001600160e01b031982166380ac58cd60e01b1480611ecf57506001600160e01b03198216635b5e139f60e01b145b806108c757506301ffc9a760e01b6001600160e01b03198316146108c7565b600081815260696020526040902080546001600160a01b0319166001600160a01b0384169081179091558190611f2382610f0a565b6001600160a01b03167f8c5be1e5ebec7d5bd14f71427d1e84f3dd0314c0f7b2291e5b200ac8c7c3b92560405160405180910390a45050565b6000818152606760205260408120546001600160a01b0316611fd55760405162461bcd60e51b815260206004820152602c60248201527f4552433732313a206f70657261746f7220717565727920666f72206e6f6e657860448201526b34b9ba32b73a103a37b5b2b760a11b6064820152608401610a12565b6000611fe083610f0a565b9050806001600160a01b0316846001600160a01b0316148061201b5750836001600160a01b03166120108461099d565b6001600160a01b0316145b8061204b57506001600160a01b038082166000908152606a602090815260408083209388168352929052205460ff165b949350505050565b826001600160a01b031661206682610f0a565b6001600160a01b0316146120ce5760405162461bcd60e51b815260206004820152602960248201527f4552433732313a207472616e73666572206f6620746f6b656e2074686174206960448201526839903737ba1037bbb760b91b6064820152608401610a12565b6001600160a01b0382166121305760405162461bcd60e51b8152602060048201526024808201527f4552433732313a207472616e7366657220746f20746865207a65726f206164646044820152637265737360e01b6064820152608401610a12565b61213b838383612693565b612146600082611eee565b6001600160a01b038316600090815260686020526040812080546001929061216f9084906134f7565b90915550506001600160a01b038216600090815260686020526040812080546001929061219d90849061350e565b909155505060008181526067602052604080822080546001600160a01b0319166001600160a01b0386811691821790925591518493918716917fddf252ad1be2c89b69c2b068fc378daa952ba7f163c4a11628f55a4df523b3ef91a4505050565b60c95460ff166122475760405162461bcd60e51b815260206004820152601460248201527314185d5cd8589b194e881b9bdd081c185d5cd95960621b6044820152606401610a12565b60c9805460ff191690557f5db9ee0a495bf2e6ff9c91a7834c1ba4fdd244a5e8aa4e537bd38aeae4b073aa335b6040516001600160a01b03909116815260200160405180910390a1565b60fb80546001600160a01b038381166001600160a01b0319831681179093556040519116919082907f8be0079c531659141344cd1fd0a4f28419497f9722a3daafe3b4186f6b6457e090600090a35050565b6000806122ef60995490565b90506122fb848261274b565b600081815261015f60205260409020805460ff191660ff85169081179091556101668054909190811061233057612330613367565b6000918252602082200180549161234683613393565b91905055508260ff1681856001600160a01b03167faabcc1eb354f11e651c87f835e7de6ac847d514718ed76fad480d55d2632992260405160405180910390a49392505050565b600054610100900460ff16806123a6575060005460ff16155b6123c25760405162461bcd60e51b8152600401610a12906133e3565b600054610100900460ff161580156123e4576000805461ffff19166101011790555b6123ec612765565b6123f4612765565b6123fe83836127cf565b8015610b48576000805461ff0019169055505050565b60c95460ff16156124375760405162461bcd60e51b8152600401610a1290613460565b60c9805460ff191660011790557f62e78cea01bee320cd4e420270b5ea74000d11b0c9f74754ebdbfc544b05a2586122743390565b816001600160a01b0316836001600160a01b031614156124ce5760405162461bcd60e51b815260206004820152601960248201527f4552433732313a20617070726f766520746f2063616c6c6572000000000000006044820152606401610a12565b6001600160a01b038381166000818152606a6020908152604080832094871680845294825291829020805460ff191686151590811790915591519182527f17307eab39ab6107e8899845ad3d59bd9653f200f220920489ca2b5937696c31910160405180910390a3505050565b612546848484612053565b61255284848484612864565b6113445760405162461bcd60e51b8152600401610a1290613526565b6060610162805461091a906132db565b6060816125a25750506040805180820190915260018152600360fc1b602082015290565b8160005b81156125cc57806125b681613393565b91506125c59050600a8361358e565b91506125a6565b6000816001600160401b038111156125e6576125e6612e89565b6040519080825280601f01601f191660200182016040528015612610576020820181803683370190505b5090505b841561204b576126256001836134f7565b9150612632600a866135a2565b61263d90603061350e565b60f81b81838151811061265257612652613367565b60200101906001600160f81b031916908160001a905350612674600a8661358e565b9450612614565b600061107582846135b6565b6000611075828461358e565b6001600160a01b0383166126ee576126e981609980546000838152609a60205260408120829055600182018355919091527f72a152ddfb8e864297c917af52ea6c1c68aead0fee1a62673fcc7e0c94979d000155565b612711565b816001600160a01b0316836001600160a01b031614612711576127118382612971565b6001600160a01b03821661272857610b4881612a0e565b826001600160a01b0316826001600160a01b031614610b4857610b488282612abd565b610d4c828260405180602001604052806000815250612b01565b600054610100900460ff168061277e575060005460ff16155b61279a5760405162461bcd60e51b8152600401610a12906133e3565b600054610100900460ff1615801561116b576000805461ffff1916610101179055801561117d576000805461ff001916905550565b600054610100900460ff16806127e8575060005460ff16155b6128045760405162461bcd60e51b8152600401610a12906133e3565b600054610100900460ff16158015612826576000805461ffff19166101011790555b8251612839906065906020860190612ccd565b50815161284d906066906020850190612ccd565b508015610b48576000805461ff0019169055505050565b60006001600160a01b0384163b1561296657604051630a85bd0160e11b81526001600160a01b0385169063150b7a02906128a89033908990889088906004016135d5565b602060405180830381600087803b1580156128c257600080fd5b505af19250505080156128f2575060408051601f3d908101601f191682019092526128ef91810190613612565b60015b61294c573d808015612920576040519150601f19603f3d011682016040523d82523d6000602084013e612925565b606091505b5080516129445760405162461bcd60e51b8152600401610a1290613526565b805181602001fd5b6001600160e01b031916630a85bd0160e11b14905061204b565b506001949350505050565b6000600161297e84610f81565b61298891906134f7565b6000838152609860205260409020549091508082146129db576001600160a01b03841660009081526097602090815260408083208584528252808320548484528184208190558352609890915290208190555b5060009182526098602090815260408084208490556001600160a01b039094168352609781528383209183525290812055565b609954600090612a20906001906134f7565b6000838152609a602052604081205460998054939450909284908110612a4857612a48613367565b906000526020600020015490508060998381548110612a6957612a69613367565b6000918252602080832090910192909255828152609a90915260408082208490558582528120556099805480612aa157612aa161362f565b6001900381819060005260206000200160009055905550505050565b6000612ac883610f81565b6001600160a01b039093166000908152609760209081526040808320868452825280832085905593825260989052919091209190915550565b612b0b8383612b34565b612b186000848484612864565b610b485760405162461bcd60e51b8152600401610a1290613526565b6001600160a01b038216612b8a5760405162461bcd60e51b815260206004820181905260248201527f4552433732313a206d696e7420746f20746865207a65726f20616464726573736044820152606401610a12565b6000818152606760205260409020546001600160a01b031615612bef5760405162461bcd60e51b815260206004820152601c60248201527f4552433732313a20746f6b656e20616c7265616479206d696e746564000000006044820152606401610a12565b612bfb60008383612693565b6001600160a01b0382166000908152606860205260408120805460019290612c2490849061350e565b909155505060008181526067602052604080822080546001600160a01b0319166001600160a01b03861690811790915590518392907fddf252ad1be2c89b69c2b068fc378daa952ba7f163c4a11628f55a4df523b3ef908290a45050565b828054828255906000526020600020908101928215612cbd579160200282015b82811115612cbd578251825591602001919060010190612ca2565b50612cc9929150612d40565b5090565b828054612cd9906132db565b90600052602060002090601f016020900481019282612cfb5760008555612cbd565b82601f10612d1457805160ff1916838001178555612cbd565b82800160010185558215612cbd5791820182811115612cbd578251825591602001919060010190612ca2565b5b80821115612cc95760008155600101612d41565b600060208284031215612d6757600080fd5b5035919050565b6001600160e01b03198116811461117d57600080fd5b600060208284031215612d9657600080fd5b813561107581612d6e565b60005b83811015612dbc578181015183820152602001612da4565b838111156113445750506000910152565b60008151808452612de5816020860160208601612da1565b601f01601f19169290920160200192915050565b6020815260006110756020830184612dcd565b80356001600160a01b03811681146110c957600080fd5b60008060408385031215612e3657600080fd5b612e3f83612e0c565b946020939093013593505050565b600080600060608486031215612e6257600080fd5b612e6b84612e0c565b9250612e7960208501612e0c565b9150604084013590509250925092565b634e487b7160e01b600052604160045260246000fd5b604051601f8201601f191681016001600160401b0381118282101715612ec757612ec7612e89565b604052919050565b60006001600160401b03821115612ee857612ee8612e89565b5060051b60200190565b600082601f830112612f0357600080fd5b81356020612f18612f1383612ecf565b612e9f565b82815260059290921b84018101918181019086841115612f3757600080fd5b8286015b84811015612f525780358352918301918301612f3b565b509695505050505050565b60008060408385031215612f7057600080fd5b8235915060208301356001600160401b03811115612f8d57600080fd5b612f9985828601612ef2565b9150509250929050565b600060208284031215612fb557600080fd5b61107582612e0c565b6020808252825182820181905260009190848201906040850190845b81811015612ff657835183529284019291840191600101612fda565b50909695505050505050565b803560ff811681146110c957600080fd5b6000806040838503121561302657600080fd5b61302f83612e0c565b915061303d60208401613002565b90509250929050565b801515811461117d57600080fd5b60006020828403121561306657600080fd5b813561107581613046565b6000806040838503121561308457600080fd5b61308d83612e0c565b9150602083013561309d81613046565b809150509250929050565b600060208083850312156130bb57600080fd5b82356001600160401b038111156130d157600080fd5b8301601f810185136130e257600080fd5b80356130f0612f1382612ecf565b81815260059190911b8201830190838101908783111561310f57600080fd5b928401925b8284101561312d57833582529284019290840190613114565b979650505050505050565b60006001600160401b0383111561315157613151612e89565b613164601f8401601f1916602001612e9f565b905082815283838301111561317857600080fd5b828260208301376000602084830101529392505050565b600080600080608085870312156131a557600080fd5b6131ae85612e0c565b93506131bc60208601612e0c565b92506040850135915060608501356001600160401b038111156131de57600080fd5b8501601f810187136131ef57600080fd5b6131fe87823560208401613138565b91505092959194509250565b60006020828403121561321c57600080fd5b61107582613002565b6000806040838503121561323857600080fd5b82356001600160401b0381111561324e57600080fd5b61325a85828601612ef2565b92505061303d60208401613002565b60006020828403121561327b57600080fd5b81356001600160401b0381111561329157600080fd5b8201601f810184136132a257600080fd5b61204b84823560208401613138565b600080604083850312156132c457600080fd5b6132cd83612e0c565b915061303d60208401612e0c565b600181811c908216806132ef57607f821691505b6020821081141561331057634e487b7160e01b600052602260045260246000fd5b50919050565b60208082526031908201527f4552433732313a207472616e736665722063616c6c6572206973206e6f74206f6040820152701ddb995c881b9bdc88185c1c1c9bdd9959607a1b606082015260800190565b634e487b7160e01b600052603260045260246000fd5b634e487b7160e01b600052601160045260246000fd5b60006000198214156133a7576133a761337d565b5060010190565b6020808252818101527f4f776e61626c653a2063616c6c6572206973206e6f7420746865206f776e6572604082015260600190565b6020808252602e908201527f496e697469616c697a61626c653a20636f6e747261637420697320616c72656160408201526d191e481a5b9a5d1a585b1a5e995960921b606082015260800190565b60008351613443818460208801612da1565b835190830190613457818360208801612da1565b01949350505050565b60208082526010908201526f14185d5cd8589b194e881c185d5cd95960821b604082015260600190565b6020808252601f908201527f5265656e7472616e637947756172643a207265656e7472616e742063616c6c00604082015260600190565b6000602082840312156134d357600080fd5b5051919050565b6000602082840312156134ec57600080fd5b815161107581613046565b6000828210156135095761350961337d565b500390565b600082198211156135215761352161337d565b500190565b60208082526032908201527f4552433732313a207472616e7366657220746f206e6f6e20455243373231526560408201527131b2b4bb32b91034b6b83632b6b2b73a32b960711b606082015260800190565b634e487b7160e01b600052601260045260246000fd5b60008261359d5761359d613578565b500490565b6000826135b1576135b1613578565b500690565b60008160001904831182151516156135d0576135d061337d565b500290565b6001600160a01b038581168252841660208201526040810183905260806060820181905260009061360890830184612dcd565b9695505050505050565b60006020828403121561362457600080fd5b815161107581612d6e565b634e487b7160e01b600052603160045260246000fdfea26469706673582212209708d0bf05b115d0547d07b2f81192de5820a3d703778e8786f48b106d7ff49664736f6c63430008090033687474703a2f2f6c6f63616c686f73743a383038302f6170692f6d6574616474612f",
  "devdoc": {
    "kind": "dev",
    "methods": {
      "approve(address,uint256)": {
        "details": "See {IERC721-approve}."
      },
      "balanceOf(address)": {
        "details": "See {IERC721-balanceOf}."
      },
      "getApproved(uint256)": {
        "details": "See {IERC721-getApproved}."
      },
      "isApprovedForAll(address,address)": {
        "details": "See {IERC721-isApprovedForAll}."
      },
      "name()": {
        "details": "See {IERC721Metadata-name}."
      },
      "owner()": {
        "details": "Returns the address of the current owner."
      },
      "ownerOf(uint256)": {
        "details": "See {IERC721-ownerOf}."
      },
      "paused()": {
        "details": "Returns true if the contract is paused, and false otherwise."
      },
      "renounceOwnership()": {
        "details": "Leaves the contract without owner. It will not be possible to call `onlyOwner` functions anymore. Can only be called by the current owner. NOTE: Renouncing ownership will leave the contract without an owner, thereby removing any functionality that is only available to the owner."
      },
      "safeTransferFrom(address,address,uint256)": {
        "details": "See {IERC721-safeTransferFrom}."
      },
      "safeTransferFrom(address,address,uint256,bytes)": {
        "details": "See {IERC721-safeTransferFrom}."
      },
      "setApprovalForAll(address,bool)": {
        "details": "See {IERC721-setApprovalForAll}."
      },
      "supportsInterface(bytes4)": {
        "details": "See {IERC165-supportsInterface}."
      },
      "symbol()": {
        "details": "See {IERC721Metadata-symbol}."
      },
      "tokenByIndex(uint256)": {
        "details": "See {IERC721Enumerable-tokenByIndex}."
      },
      "tokenOfOwnerByIndex(address,uint256)": {
        "details": "See {IERC721Enumerable-tokenOfOwnerByIndex}."
      },
      "totalSupply()": {
        "details": "See {IERC721Enumerable-totalSupply}."
      },
      "transferFrom(address,address,uint256)": {
        "details": "See {IERC721-transferFrom}."
      },
      "transferOwnership(address)": {
        "details": "Transfers ownership of the contract to a new account (`newOwner`). Can only be called by the current owner."
      }
    },
    "version": 1
  },
  "userdoc": {
    "kind": "user",
    "methods": {},
    "version": 1
  },
  "storageLayout": {
    "storage": [
      {
        "astId": 131,
        "contract": "contracts/Burger.sol:Burger",
        "label": "_initialized",
        "offset": 0,
        "slot": "0",
        "type": "t_bool"
      },
      {
        "astId": 134,
        "contract": "contracts/Burger.sol:Burger",
        "label": "_initializing",
        "offset": 1,
        "slot": "0",
        "type": "t_bool"
      },
      {
        "astId": 3190,
        "contract": "contracts/Burger.sol:Burger",
        "label": "__gap",
        "offset": 0,
        "slot": "1",
        "type": "t_array(t_uint256)50_storage"
      },
      {
        "astId": 3439,
        "contract": "contracts/Burger.sol:Burger",
        "label": "__gap",
        "offset": 0,
        "slot": "51",
        "type": "t_array(t_uint256)50_storage"
      },
      {
        "astId": 1512,
        "contract": "contracts/Burger.sol:Burger",
        "label": "_name",
        "offset": 0,
        "slot": "101",
        "type": "t_string_storage"
      },
      {
        "astId": 1514,
        "contract": "contracts/Burger.sol:Burger",
        "label": "_symbol",
        "offset": 0,
        "slot": "102",
        "type": "t_string_storage"
      },
      {
        "astId": 1518,
        "contract": "contracts/Burger.sol:Burger",
        "label": "_owners",
        "offset": 0,
        "slot": "103",
        "type": "t_mapping(t_uint256,t_address)"
      },
      {
        "astId": 1522,
        "contract": "contracts/Burger.sol:Burger",
        "label": "_balances",
        "offset": 0,
        "slot": "104",
        "type": "t_mapping(t_address,t_uint256)"
      },
      {
        "astId": 1526,
        "contract": "contracts/Burger.sol:Burger",
        "label": "_tokenApprovals",
        "offset": 0,
        "slot": "105",
        "type": "t_mapping(t_uint256,t_address)"
      },
      {
        "astId": 1532,
        "contract": "contracts/Burger.sol:Burger",
        "label": "_operatorApprovals",
        "offset": 0,
        "slot": "106",
        "type": "t_mapping(t_address,t_mapping(t_address,t_bool))"
      },
      {
        "astId": 2343,
        "contract": "contracts/Burger.sol:Burger",
        "label": "__gap",
        "offset": 0,
        "slot": "107",
        "type": "t_array(t_uint256)44_storage"
      },
      {
        "astId": 2517,
        "contract": "contracts/Burger.sol:Burger",
        "label": "_ownedTokens",
        "offset": 0,
        "slot": "151",
        "type": "t_mapping(t_address,t_mapping(t_uint256,t_uint256))"
      },
      {
        "astId": 2521,
        "contract": "contracts/Burger.sol:Burger",
        "label": "_ownedTokensIndex",
        "offset": 0,
        "slot": "152",
        "type": "t_mapping(t_uint256,t_uint256)"
      },
      {
        "astId": 2524,
        "contract": "contracts/Burger.sol:Burger",
        "label": "_allTokens",
        "offset": 0,
        "slot": "153",
        "type": "t_array(t_uint256)dyn_storage"
      },
      {
        "astId": 2528,
        "contract": "contracts/Burger.sol:Burger",
        "label": "_allTokensIndex",
        "offset": 0,
        "slot": "154",
        "type": "t_mapping(t_uint256,t_uint256)"
      },
      {
        "astId": 2843,
        "contract": "contracts/Burger.sol:Burger",
        "label": "__gap",
        "offset": 0,
        "slot": "155",
        "type": "t_array(t_uint256)46_storage"
      },
      {
        "astId": 192,
        "contract": "contracts/Burger.sol:Burger",
        "label": "_paused",
        "offset": 0,
        "slot": "201",
        "type": "t_bool"
      },
      {
        "astId": 283,
        "contract": "contracts/Burger.sol:Burger",
        "label": "__gap",
        "offset": 0,
        "slot": "202",
        "type": "t_array(t_uint256)49_storage"
      },
      {
        "astId": 10,
        "contract": "contracts/Burger.sol:Burger",
        "label": "_owner",
        "offset": 0,
        "slot": "251",
        "type": "t_address"
      },
      {
        "astId": 124,
        "contract": "contracts/Burger.sol:Burger",
        "label": "__gap",
        "offset": 0,
        "slot": "252",
        "type": "t_array(t_uint256)49_storage"
      },
      {
        "astId": 298,
        "contract": "contracts/Burger.sol:Burger",
        "label": "_status",
        "offset": 0,
        "slot": "301",
        "type": "t_uint256"
      },
      {
        "astId": 341,
        "contract": "contracts/Burger.sol:Burger",
        "label": "__gap",
        "offset": 0,
        "slot": "302",
        "type": "t_array(t_uint256)49_storage"
      },
      {
        "astId": 3895,
        "contract": "contracts/Burger.sol:Burger",
        "label": "boxTypeById",
        "offset": 0,
        "slot": "351",
        "type": "t_mapping(t_uint256,t_uint8)"
      },
      {
        "astId": 3906,
        "contract": "contracts/Burger.sol:Burger",
        "label": "boxPriceBNB",
        "offset": 0,
        "slot": "352",
        "type": "t_array(t_uint256)dyn_storage"
      },
      {
        "astId": 3917,
        "contract": "contracts/Burger.sol:Burger",
        "label": "boxPriceBURG",
        "offset": 0,
        "slot": "353",
        "type": "t_array(t_uint256)dyn_storage"
      },
      {
        "astId": 3920,
        "contract": "contracts/Burger.sol:Burger",
        "label": "strBaseTokenURI",
        "offset": 0,
        "slot": "354",
        "type": "t_string_storage"
      },
      {
        "astId": 3923,
        "contract": "contracts/Burger.sol:Burger",
        "label": "saleBNBEnabled",
        "offset": 0,
        "slot": "355",
        "type": "t_bool"
      },
      {
        "astId": 3926,
        "contract": "contracts/Burger.sol:Burger",
        "label": "whitelistActive",
        "offset": 1,
        "slot": "355",
        "type": "t_bool"
      },
      {
        "astId": 3929,
        "contract": "contracts/Burger.sol:Burger",
        "label": "root",
        "offset": 0,
        "slot": "356",
        "type": "t_bytes32"
      },
      {
        "astId": 3931,
        "contract": "contracts/Burger.sol:Burger",
        "label": "BURG",
        "offset": 0,
        "slot": "357",
        "type": "t_address"
      },
      {
        "astId": 3938,
        "contract": "contracts/Burger.sol:Burger",
        "label": "_tokenSupply",
        "offset": 0,
        "slot": "358",
        "type": "t_array(t_uint256)dyn_storage"
      },
      {
        "astId": 3945,
        "contract": "contracts/Burger.sol:Burger",
        "label": "_limitTokenAmountPerBoxtype",
        "offset": 0,
        "slot": "359",
        "type": "t_array(t_uint64)dyn_storage"
      }
    ],
    "types": {
      "t_address": {
        "encoding": "inplace",
        "label": "address",
        "numberOfBytes": "20"
      },
      "t_array(t_uint256)44_storage": {
        "base": "t_uint256",
        "encoding": "inplace",
        "label": "uint256[44]",
        "numberOfBytes": "1408"
      },
      "t_array(t_uint256)46_storage": {
        "base": "t_uint256",
        "encoding": "inplace",
        "label": "uint256[46]",
        "numberOfBytes": "1472"
      },
      "t_array(t_uint256)49_storage": {
        "base": "t_uint256",
        "encoding": "inplace",
        "label": "uint256[49]",
        "numberOfBytes": "1568"
      },
      "t_array(t_uint256)50_storage": {
        "base": "t_uint256",
        "encoding": "inplace",
        "label": "uint256[50]",
        "numberOfBytes": "1600"
      },
      "t_array(t_uint256)dyn_storage": {
        "base": "t_uint256",
        "encoding": "dynamic_array",
        "label": "uint256[]",
        "numberOfBytes": "32"
      },
      "t_array(t_uint64)dyn_storage": {
        "base": "t_uint64",
        "encoding": "dynamic_array",
        "label": "uint64[]",
        "numberOfBytes": "32"
      },
      "t_bool": {
        "encoding": "inplace",
        "label": "bool",
        "numberOfBytes": "1"
      },
      "t_bytes32": {
        "encoding": "inplace",
        "label": "bytes32",
        "numberOfBytes": "32"
      },
      "t_mapping(t_address,t_bool)": {
        "encoding": "mapping",
        "key": "t_address",
        "label": "mapping(address => bool)",
        "numberOfBytes": "32",
        "value": "t_bool"
      },
      "t_mapping(t_address,t_mapping(t_address,t_bool))": {
        "encoding": "mapping",
        "key": "t_address",
        "label": "mapping(address => mapping(address => bool))",
        "numberOfBytes": "32",
        "value": "t_mapping(t_address,t_bool)"
      },
      "t_mapping(t_address,t_mapping(t_uint256,t_uint256))": {
        "encoding": "mapping",
        "key": "t_address",
        "label": "mapping(address => mapping(uint256 => uint256))",
        "numberOfBytes": "32",
        "value": "t_mapping(t_uint256,t_uint256)"
      },
      "t_mapping(t_address,t_uint256)": {
        "encoding": "mapping",
        "key": "t_address",
        "label": "mapping(address => uint256)",
        "numberOfBytes": "32",
        "value": "t_uint256"
      },
      "t_mapping(t_uint256,t_address)": {
        "encoding": "mapping",
        "key": "t_uint256",
        "label": "mapping(uint256 => address)",
        "numberOfBytes": "32",
        "value": "t_address"
      },
      "t_mapping(t_uint256,t_uint256)": {
        "encoding": "mapping",
        "key": "t_uint256",
        "label": "mapping(uint256 => uint256)",
        "numberOfBytes": "32",
        "value": "t_uint256"
      },
      "t_mapping(t_uint256,t_uint8)": {
        "encoding": "mapping",
        "key": "t_uint256",
        "label": "mapping(uint256 => uint8)",
        "numberOfBytes": "32",
        "value": "t_uint8"
      },
      "t_string_storage": {
        "encoding": "bytes",
        "label": "string",
        "numberOfBytes": "32"
      },
      "t_uint256": {
        "encoding": "inplace",
        "label": "uint256",
        "numberOfBytes": "32"
      },
      "t_uint64": {
        "encoding": "inplace",
        "label": "uint64",
        "numberOfBytes": "8"
      },
      "t_uint8": {
        "encoding": "inplace",
        "label": "uint8",
        "numberOfBytes": "1"
      }
    }
  }
}