{
  "address": "0xE7414c54DBAB6C7aEA117B8ffe0cb31d7F442dD3",
  "abi": [
    {
      "inputs": [],
      "stateMutability": "nonpayable",
      "type": "constructor"
    },
    {
      "anonymous": false,
      "inputs": [
        {
          "indexed": true,
          "internalType": "address",
          "name": "owner",
          "type": "address"
        },
        {
          "indexed": true,
          "internalType": "address",
          "name": "approved",
          "type": "address"
        },
        {
          "indexed": true,
          "internalType": "uint256",
          "name": "tokenId",
          "type": "uint256"
        }
      ],
      "name": "Approval",
      "type": "event"
    },
    {
      "anonymous": false,
      "inputs": [
        {
          "indexed": true,
          "internalType": "address",
          "name": "owner",
          "type": "address"
        },
        {
          "indexed": true,
          "internalType": "address",
          "name": "operator",
          "type": "address"
        },
        {
          "indexed": false,
          "internalType": "bool",
          "name": "approved",
          "type": "bool"
        }
      ],
      "name": "ApprovalForAll",
      "type": "event"
    },
    {
      "anonymous": false,
      "inputs": [
        {
          "indexed": true,
          "internalType": "address",
          "name": "_to",
          "type": "address"
        },
        {
          "indexed": false,
          "internalType": "string",
          "name": "tokenURI",
          "type": "string"
        },
        {
          "indexed": false,
          "internalType": "uint256",
          "name": "id",
          "type": "uint256"
        }
      ],
      "name": "NFTMintEvent",
      "type": "event"
    },
    {
      "anonymous": false,
      "inputs": [
        {
          "indexed": true,
          "internalType": "address",
          "name": "previousOwner",
          "type": "address"
        },
        {
          "indexed": true,
          "internalType": "address",
          "name": "newOwner",
          "type": "address"
        }
      ],
      "name": "OwnershipTransferred",
      "type": "event"
    },
    {
      "anonymous": false,
      "inputs": [
        {
          "indexed": true,
          "internalType": "address",
          "name": "from",
          "type": "address"
        },
        {
          "indexed": true,
          "internalType": "address",
          "name": "to",
          "type": "address"
        },
        {
          "indexed": true,
          "internalType": "uint256",
          "name": "tokenId",
          "type": "uint256"
        }
      ],
      "name": "Transfer",
      "type": "event"
    },
    {
      "inputs": [
        {
          "internalType": "address",
          "name": "to",
          "type": "address"
        },
        {
          "internalType": "uint256",
          "name": "tokenId",
          "type": "uint256"
        }
      ],
      "name": "approve",
      "outputs": [],
      "stateMutability": "nonpayable",
      "type": "function"
    },
    {
      "inputs": [
        {
          "internalType": "address",
          "name": "owner",
          "type": "address"
        }
      ],
      "name": "balanceOf",
      "outputs": [
        {
          "internalType": "uint256",
          "name": "",
          "type": "uint256"
        }
      ],
      "stateMutability": "view",
      "type": "function"
    },
    {
      "inputs": [
        {
          "internalType": "uint256",
          "name": "tokenId",
          "type": "uint256"
        }
      ],
      "name": "getApproved",
      "outputs": [
        {
          "internalType": "address",
          "name": "",
          "type": "address"
        }
      ],
      "stateMutability": "view",
      "type": "function"
    },
    {
      "inputs": [
        {
          "internalType": "address",
          "name": "_address",
          "type": "address"
        }
      ],
      "name": "getTokenIdsOf",
      "outputs": [
        {
          "internalType": "bool",
          "name": "",
          "type": "bool"
        }
      ],
      "stateMutability": "view",
      "type": "function"
    },
    {
      "inputs": [],
      "name": "getVerfiedAddress",
      "outputs": [
        {
          "internalType": "address",
          "name": "",
          "type": "address"
        }
      ],
      "stateMutability": "view",
      "type": "function"
    },
    {
      "inputs": [
        {
          "internalType": "address",
          "name": "owner",
          "type": "address"
        },
        {
          "internalType": "address",
          "name": "operator",
          "type": "address"
        }
      ],
      "name": "isApprovedForAll",
      "outputs": [
        {
          "internalType": "bool",
          "name": "",
          "type": "bool"
        }
      ],
      "stateMutability": "view",
      "type": "function"
    },
    {
      "inputs": [
        {
          "internalType": "address",
          "name": "_to",
          "type": "address"
        },
        {
          "internalType": "string",
          "name": "tokenUri",
          "type": "string"
        },
        {
          "internalType": "bytes32",
          "name": "tokenUriHash",
          "type": "bytes32"
        },
        {
          "internalType": "bytes",
          "name": "signature",
          "type": "bytes"
        }
      ],
      "name": "mint",
      "outputs": [
        {
          "internalType": "uint256",
          "name": "",
          "type": "uint256"
        }
      ],
      "stateMutability": "payable",
      "type": "function"
    },
    {
      "inputs": [],
      "name": "name",
      "outputs": [
        {
          "internalType": "string",
          "name": "",
          "type": "string"
        }
      ],
      "stateMutability": "view",
      "type": "function"
    },
    {
      "inputs": [],
      "name": "owner",
      "outputs": [
        {
          "internalType": "address",
          "name": "",
          "type": "address"
        }
      ],
      "stateMutability": "view",
      "type": "function"
    },
    {
      "inputs": [
        {
          "internalType": "uint256",
          "name": "tokenId",
          "type": "uint256"
        }
      ],
      "name": "ownerOf",
      "outputs": [
        {
          "internalType": "address",
          "name": "",
          "type": "address"
        }
      ],
      "stateMutability": "view",
      "type": "function"
    },
    {
      "inputs": [],
      "name": "renounceOwnership",
      "outputs": [],
      "stateMutability": "nonpayable",
      "type": "function"
    },
    {
      "inputs": [
        {
          "internalType": "address",
          "name": "from",
          "type": "address"
        },
        {
          "internalType": "address",
          "name": "to",
          "type": "address"
        },
        {
          "internalType": "uint256",
          "name": "tokenId",
          "type": "uint256"
        }
      ],
      "name": "safeTransferFrom",
      "outputs": [],
      "stateMutability": "nonpayable",
      "type": "function"
    },
    {
      "inputs": [
        {
          "internalType": "address",
          "name": "from",
          "type": "address"
        },
        {
          "internalType": "address",
          "name": "to",
          "type": "address"
        },
        {
          "internalType": "uint256",
          "name": "tokenId",
          "type": "uint256"
        },
        {
          "internalType": "bytes",
          "name": "_data",
          "type": "bytes"
        }
      ],
      "name": "safeTransferFrom",
      "outputs": [],
      "stateMutability": "nonpayable",
      "type": "function"
    },
    {
      "inputs": [
        {
          "internalType": "address",
          "name": "operator",
          "type": "address"
        },
        {
          "internalType": "bool",
          "name": "approved",
          "type": "bool"
        }
      ],
      "name": "setApprovalForAll",
      "outputs": [],
      "stateMutability": "nonpayable",
      "type": "function"
    },
    {
      "inputs": [
        {
          "internalType": "address",
          "name": "_verifiedAddress",
          "type": "address"
        }
      ],
      "name": "setVerifiedAddress",
      "outputs": [],
      "stateMutability": "nonpayable",
      "type": "function"
    },
    {
      "inputs": [
        {
          "internalType": "bytes4",
          "name": "interfaceId",
          "type": "bytes4"
        }
      ],
      "name": "supportsInterface",
      "outputs": [
        {
          "internalType": "bool",
          "name": "",
          "type": "bool"
        }
      ],
      "stateMutability": "view",
      "type": "function"
    },
    {
      "inputs": [],
      "name": "symbol",
      "outputs": [
        {
          "internalType": "string",
          "name": "",
          "type": "string"
        }
      ],
      "stateMutability": "view",
      "type": "function"
    },
    {
      "inputs": [
        {
          "internalType": "uint256",
          "name": "index",
          "type": "uint256"
        }
      ],
      "name": "tokenByIndex",
      "outputs": [
        {
          "internalType": "uint256",
          "name": "",
          "type": "uint256"
        }
      ],
      "stateMutability": "view",
      "type": "function"
    },
    {
      "inputs": [
        {
          "internalType": "address",
          "name": "owner",
          "type": "address"
        },
        {
          "internalType": "uint256",
          "name": "index",
          "type": "uint256"
        }
      ],
      "name": "tokenOfOwnerByIndex",
      "outputs": [
        {
          "internalType": "uint256",
          "name": "",
          "type": "uint256"
        }
      ],
      "stateMutability": "view",
      "type": "function"
    },
    {
      "inputs": [
        {
          "internalType": "uint256",
          "name": "tokenId",
          "type": "uint256"
        }
      ],
      "name": "tokenURI",
      "outputs": [
        {
          "internalType": "string",
          "name": "",
          "type": "string"
        }
      ],
      "stateMutability": "view",
      "type": "function"
    },
    {
      "inputs": [],
      "name": "totalSupply",
      "outputs": [
        {
          "internalType": "uint256",
          "name": "",
          "type": "uint256"
        }
      ],
      "stateMutability": "view",
      "type": "function"
    },
    {
      "inputs": [
        {
          "internalType": "address",
          "name": "from",
          "type": "address"
        },
        {
          "internalType": "address",
          "name": "to",
          "type": "address"
        },
        {
          "internalType": "uint256",
          "name": "tokenId",
          "type": "uint256"
        }
      ],
      "name": "transferFrom",
      "outputs": [],
      "stateMutability": "nonpayable",
      "type": "function"
    },
    {
      "inputs": [
        {
          "internalType": "address",
          "name": "newOwner",
          "type": "address"
        }
      ],
      "name": "transferOwnership",
      "outputs": [],
      "stateMutability": "nonpayable",
      "type": "function"
    }
  ],
  "transactionHash": "0x5931fae77a8d4054f85d8146cdf811b4b967468d6eb2697603618975352cb147",
  "args": [],
  "solcInputHash": "da54c0686fcbd43dcce6a15c0b6ae718",
  "bytecode": "0x608060405264e8d4a51000600c5573c09eac15f9ba6462e8e4612af7c431e1cfe08b87600e60006101000a81548173ffffffffffffffffffffffffffffffffffffffff021916908373ffffffffffffffffffffffffffffffffffffffff1602179055503480156200006f57600080fd5b506040518060400160405280600681526020017f42757267657200000000000000000000000000000000000000000000000000008152506040518060400160405280600681526020017f42555247455200000000000000000000000000000000000000000000000000008152508160009080519060200190620000f492919062000204565b5080600190805190602001906200010d92919062000204565b50505062000130620001246200013660201b60201c565b6200013e60201b60201c565b62000319565b600033905090565b6000600b60009054906101000a900473ffffffffffffffffffffffffffffffffffffffff16905081600b60006101000a81548173ffffffffffffffffffffffffffffffffffffffff021916908373ffffffffffffffffffffffffffffffffffffffff1602179055508173ffffffffffffffffffffffffffffffffffffffff168173ffffffffffffffffffffffffffffffffffffffff167f8be0079c531659141344cd1fd0a4f28419497f9722a3daafe3b4186f6b6457e060405160405180910390a35050565b8280546200021290620002b4565b90600052602060002090601f01602090048101928262000236576000855562000282565b82601f106200025157805160ff191683800117855562000282565b8280016001018555821562000282579182015b828111156200028157825182559160200191906001019062000264565b5b50905062000291919062000295565b5090565b5b80821115620002b057600081600090555060010162000296565b5090565b60006002820490506001821680620002cd57607f821691505b60208210811415620002e457620002e3620002ea565b5b50919050565b7f4e487b7100000000000000000000000000000000000000000000000000000000600052602260045260246000fd5b6144b680620003296000396000f3fe6080604052600436106101405760003560e01c80635324f9aa116100b6578063a22cb4651161006f578063a22cb46514610482578063b88d4fde146104ab578063c87b56dd146104d4578063e985e9c514610511578063f2fde38b1461054e578063f693ffaf1461057757610140565b80635324f9aa1461035e5780636352211e1461039b57806370a08231146103d8578063715018a6146104155780638da5cb5b1461042c57806395d89b411461045757610140565b806323b872dd1161010857806323b872dd1461023e5780632f745c59146102675780633e4356d7146102a457806342842e0e146102cf5780634f66cbcd146102f85780634f6ccce71461032157610140565b806301ffc9a71461014557806306fdde0314610182578063081812fc146101ad578063095ea7b3146101ea57806318160ddd14610213575b600080fd5b34801561015157600080fd5b5061016c60048036038101906101679190612fac565b6105a7565b604051610179919061352e565b60405180910390f35b34801561018e57600080fd5b506101976105b9565b6040516101a4919061358e565b60405180910390f35b3480156101b957600080fd5b506101d460048036038101906101cf9190612ffe565b61064b565b6040516101e191906134c7565b60405180910390f35b3480156101f657600080fd5b50610211600480360381019061020c9190612f70565b6106d0565b005b34801561021f57600080fd5b506102286107e8565b6040516102359190613920565b60405180910390f35b34801561024a57600080fd5b5061026560048036038101906102609190612dd7565b6107f5565b005b34801561027357600080fd5b5061028e60048036038101906102899190612f70565b610855565b60405161029b9190613920565b60405180910390f35b3480156102b057600080fd5b506102b96108fa565b6040516102c691906134c7565b60405180910390f35b3480156102db57600080fd5b506102f660048036038101906102f19190612dd7565b610924565b005b34801561030457600080fd5b5061031f600480360381019061031a9190612d72565b610944565b005b34801561032d57600080fd5b5061034860048036038101906103439190612ffe565b610a04565b6040516103559190613920565b60405180910390f35b34801561036a57600080fd5b5061038560048036038101906103809190612d72565b610a9b565b604051610392919061352e565b60405180910390f35b3480156103a757600080fd5b506103c260048036038101906103bd9190612ffe565b610aa2565b6040516103cf91906134c7565b60405180910390f35b3480156103e457600080fd5b506103ff60048036038101906103fa9190612d72565b610b54565b60405161040c9190613920565b60405180910390f35b34801561042157600080fd5b5061042a610c0c565b005b34801561043857600080fd5b50610441610c94565b60405161044e91906134c7565b60405180910390f35b34801561046357600080fd5b5061046c610cbe565b604051610479919061358e565b60405180910390f35b34801561048e57600080fd5b506104a960048036038101906104a49190612ea1565b610d50565b005b3480156104b757600080fd5b506104d260048036038101906104cd9190612e26565b610ed1565b005b3480156104e057600080fd5b506104fb60048036038101906104f69190612ffe565b610f33565b604051610508919061358e565b60405180910390f35b34801561051d57600080fd5b5061053860048036038101906105339190612d9b565b610f45565b604051610545919061352e565b60405180910390f35b34801561055a57600080fd5b5061057560048036038101906105709190612d72565b610fd9565b005b610591600480360381019061058c9190612edd565b6110d1565b60405161059e9190613920565b60405180910390f35b60006105b282611134565b9050919050565b6060600080546105c890613b8d565b80601f01602080910402602001604051908101604052809291908181526020018280546105f490613b8d565b80156106415780601f1061061657610100808354040283529160200191610641565b820191906000526020600020905b81548152906001019060200180831161062457829003601f168201915b5050505050905090565b6000610656826111ae565b610695576040517f08c379a000000000000000000000000000000000000000000000000000000000815260040161068c90613800565b60405180910390fd5b6004600083815260200190815260200160002060009054906101000a900473ffffffffffffffffffffffffffffffffffffffff169050919050565b60006106db82610aa2565b90508073ffffffffffffffffffffffffffffffffffffffff168373ffffffffffffffffffffffffffffffffffffffff16141561074c576040517f08c379a000000000000000000000000000000000000000000000000000000000815260040161074390613880565b60405180910390fd5b8073ffffffffffffffffffffffffffffffffffffffff1661076b61121a565b73ffffffffffffffffffffffffffffffffffffffff16148061079a57506107998161079461121a565b610f45565b5b6107d9576040517f08c379a00000000000000000000000000000000000000000000000000000000081526004016107d090613720565b60405180910390fd5b6107e38383611222565b505050565b6000600980549050905090565b61080661080061121a565b826112db565b610845576040517f08c379a000000000000000000000000000000000000000000000000000000000815260040161083c906138a0565b60405180910390fd5b6108508383836113b9565b505050565b600061086083610b54565b82106108a1576040517f08c379a000000000000000000000000000000000000000000000000000000000815260040161089890613620565b60405180910390fd5b600760008473ffffffffffffffffffffffffffffffffffffffff1673ffffffffffffffffffffffffffffffffffffffff168152602001908152602001600020600083815260200190815260200160002054905092915050565b6000600e60009054906101000a900473ffffffffffffffffffffffffffffffffffffffff16905090565b61093f83838360405180602001604052806000815250610ed1565b505050565b61094c61121a565b73ffffffffffffffffffffffffffffffffffffffff1661096a610c94565b73ffffffffffffffffffffffffffffffffffffffff16146109c0576040517f08c379a00000000000000000000000000000000000000000000000000000000081526004016109b790613820565b60405180910390fd5b80600e60006101000a81548173ffffffffffffffffffffffffffffffffffffffff021916908373ffffffffffffffffffffffffffffffffffffffff16021790555050565b6000610a0e6107e8565b8210610a4f576040517f08c379a0000000000000000000000000000000000000000000000000000000008152600401610a46906138c0565b60405180910390fd5b60098281548110610a89577f4e487b7100000000000000000000000000000000000000000000000000000000600052603260045260246000fd5b90600052602060002001549050919050565b6000919050565b6000806002600084815260200190815260200160002060009054906101000a900473ffffffffffffffffffffffffffffffffffffffff169050600073ffffffffffffffffffffffffffffffffffffffff168173ffffffffffffffffffffffffffffffffffffffff161415610b4b576040517f08c379a0000000000000000000000000000000000000000000000000000000008152600401610b4290613760565b60405180910390fd5b80915050919050565b60008073ffffffffffffffffffffffffffffffffffffffff168273ffffffffffffffffffffffffffffffffffffffff161415610bc5576040517f08c379a0000000000000000000000000000000000000000000000000000000008152600401610bbc90613740565b60405180910390fd5b600360008373ffffffffffffffffffffffffffffffffffffffff1673ffffffffffffffffffffffffffffffffffffffff168152602001908152602001600020549050919050565b610c1461121a565b73ffffffffffffffffffffffffffffffffffffffff16610c32610c94565b73ffffffffffffffffffffffffffffffffffffffff1614610c88576040517f08c379a0000000000000000000000000000000000000000000000000000000008152600401610c7f90613820565b60405180910390fd5b610c926000611615565b565b6000600b60009054906101000a900473ffffffffffffffffffffffffffffffffffffffff16905090565b606060018054610ccd90613b8d565b80601f0160208091040260200160405190810160405280929190818152602001828054610cf990613b8d565b8015610d465780601f10610d1b57610100808354040283529160200191610d46565b820191906000526020600020905b815481529060010190602001808311610d2957829003601f168201915b5050505050905090565b610d5861121a565b73ffffffffffffffffffffffffffffffffffffffff168273ffffffffffffffffffffffffffffffffffffffff161415610dc6576040517f08c379a0000000000000000000000000000000000000000000000000000000008152600401610dbd906136c0565b60405180910390fd5b8060056000610dd361121a565b73ffffffffffffffffffffffffffffffffffffffff1673ffffffffffffffffffffffffffffffffffffffff16815260200190815260200160002060008473ffffffffffffffffffffffffffffffffffffffff1673ffffffffffffffffffffffffffffffffffffffff16815260200190815260200160002060006101000a81548160ff0219169083151502179055508173ffffffffffffffffffffffffffffffffffffffff16610e8061121a565b73ffffffffffffffffffffffffffffffffffffffff167f17307eab39ab6107e8899845ad3d59bd9653f200f220920489ca2b5937696c3183604051610ec5919061352e565b60405180910390a35050565b610ee2610edc61121a565b836112db565b610f21576040517f08c379a0000000000000000000000000000000000000000000000000000000008152600401610f18906138a0565b60405180910390fd5b610f2d848484846116db565b50505050565b6060610f3e82611737565b9050919050565b6000600560008473ffffffffffffffffffffffffffffffffffffffff1673ffffffffffffffffffffffffffffffffffffffff16815260200190815260200160002060008373ffffffffffffffffffffffffffffffffffffffff1673ffffffffffffffffffffffffffffffffffffffff16815260200190815260200160002060009054906101000a900460ff16905092915050565b610fe161121a565b73ffffffffffffffffffffffffffffffffffffffff16610fff610c94565b73ffffffffffffffffffffffffffffffffffffffff1614611055576040517f08c379a000000000000000000000000000000000000000000000000000000000815260040161104c90613820565b60405180910390fd5b600073ffffffffffffffffffffffffffffffffffffffff168173ffffffffffffffffffffffffffffffffffffffff1614156110c5576040517f08c379a00000000000000000000000000000000000000000000000000000000081526004016110bc90613660565b60405180910390fd5b6110ce81611615565b50565b600082826110df8282611889565b61111e576040517f08c379a000000000000000000000000000000000000000000000000000000000815260040161111590613900565b60405180910390fd5b61112887876118f6565b92505050949350505050565b60007f780e9d63000000000000000000000000000000000000000000000000000000007bffffffffffffffffffffffffffffffffffffffffffffffffffffffff1916827bffffffffffffffffffffffffffffffffffffffffffffffffffffffff191614806111a757506111a6826119c3565b5b9050919050565b60008073ffffffffffffffffffffffffffffffffffffffff166002600084815260200190815260200160002060009054906101000a900473ffffffffffffffffffffffffffffffffffffffff1673ffffffffffffffffffffffffffffffffffffffff1614159050919050565b600033905090565b816004600083815260200190815260200160002060006101000a81548173ffffffffffffffffffffffffffffffffffffffff021916908373ffffffffffffffffffffffffffffffffffffffff160217905550808273ffffffffffffffffffffffffffffffffffffffff1661129583610aa2565b73ffffffffffffffffffffffffffffffffffffffff167f8c5be1e5ebec7d5bd14f71427d1e84f3dd0314c0f7b2291e5b200ac8c7c3b92560405160405180910390a45050565b60006112e6826111ae565b611325576040517f08c379a000000000000000000000000000000000000000000000000000000000815260040161131c90613700565b60405180910390fd5b600061133083610aa2565b90508073ffffffffffffffffffffffffffffffffffffffff168473ffffffffffffffffffffffffffffffffffffffff16148061139f57508373ffffffffffffffffffffffffffffffffffffffff166113878461064b565b73ffffffffffffffffffffffffffffffffffffffff16145b806113b057506113af8185610f45565b5b91505092915050565b8273ffffffffffffffffffffffffffffffffffffffff166113d982610aa2565b73ffffffffffffffffffffffffffffffffffffffff161461142f576040517f08c379a000000000000000000000000000000000000000000000000000000000815260040161142690613840565b60405180910390fd5b600073ffffffffffffffffffffffffffffffffffffffff168273ffffffffffffffffffffffffffffffffffffffff16141561149f576040517f08c379a0000000000000000000000000000000000000000000000000000000008152600401611496906136a0565b60405180910390fd5b6114aa838383611aa5565b6114b5600082611222565b6001600360008573ffffffffffffffffffffffffffffffffffffffff1673ffffffffffffffffffffffffffffffffffffffff16815260200190815260200160002060008282546115059190613a8c565b925050819055506001600360008473ffffffffffffffffffffffffffffffffffffffff1673ffffffffffffffffffffffffffffffffffffffff168152602001908152602001600020600082825461155c9190613a05565b92505081905550816002600083815260200190815260200160002060006101000a81548173ffffffffffffffffffffffffffffffffffffffff021916908373ffffffffffffffffffffffffffffffffffffffff160217905550808273ffffffffffffffffffffffffffffffffffffffff168473ffffffffffffffffffffffffffffffffffffffff167fddf252ad1be2c89b69c2b068fc378daa952ba7f163c4a11628f55a4df523b3ef60405160405180910390a4505050565b6000600b60009054906101000a900473ffffffffffffffffffffffffffffffffffffffff16905081600b60006101000a81548173ffffffffffffffffffffffffffffffffffffffff021916908373ffffffffffffffffffffffffffffffffffffffff1602179055508173ffffffffffffffffffffffffffffffffffffffff168173ffffffffffffffffffffffffffffffffffffffff167f8be0079c531659141344cd1fd0a4f28419497f9722a3daafe3b4186f6b6457e060405160405180910390a35050565b6116e68484846113b9565b6116f284848484611ab5565b611731576040517f08c379a000000000000000000000000000000000000000000000000000000000815260040161172890613640565b60405180910390fd5b50505050565b6060611742826111ae565b611781576040517f08c379a0000000000000000000000000000000000000000000000000000000008152600401611778906137e0565b60405180910390fd5b60006006600084815260200190815260200160002080546117a190613b8d565b80601f01602080910402602001604051908101604052809291908181526020018280546117cd90613b8d565b801561181a5780601f106117ef5761010080835404028352916020019161181a565b820191906000526020600020905b8154815290600101906020018083116117fd57829003601f168201915b50505050509050600061182b611c4c565b9050600081511415611841578192505050611884565b60008251111561187657808260405160200161185e9291906134a3565b60405160208183030381529060405292505050611884565b61187f84611c63565b925050505b919050565b6000600e60009054906101000a900473ffffffffffffffffffffffffffffffffffffffff1673ffffffffffffffffffffffffffffffffffffffff166118d78385611d0a90919063ffffffff16565b73ffffffffffffffffffffffffffffffffffffffff1614905092915050565b6000600c5434101561193d576040517f08c379a0000000000000000000000000000000000000000000000000000000008152600401611934906138e0565b60405180910390fd5b611947600d611d31565b6000611953600d611d47565b905061195f8482611d55565b6119698184611f23565b3373ffffffffffffffffffffffffffffffffffffffff167f381522718816817f694da06ead37444f6a1ad8252bd7d029101cafc183a65ff684836040516119b19291906135b0565b60405180910390a28091505092915050565b60007f80ac58cd000000000000000000000000000000000000000000000000000000007bffffffffffffffffffffffffffffffffffffffffffffffffffffffff1916827bffffffffffffffffffffffffffffffffffffffffffffffffffffffff19161480611a8e57507f5b5e139f000000000000000000000000000000000000000000000000000000007bffffffffffffffffffffffffffffffffffffffffffffffffffffffff1916827bffffffffffffffffffffffffffffffffffffffffffffffffffffffff1916145b80611a9e5750611a9d82611f97565b5b9050919050565b611ab0838383612001565b505050565b6000611ad68473ffffffffffffffffffffffffffffffffffffffff16612115565b15611c3f578373ffffffffffffffffffffffffffffffffffffffff1663150b7a02611aff61121a565b8786866040518563ffffffff1660e01b8152600401611b2194939291906134e2565b602060405180830381600087803b158015611b3b57600080fd5b505af1925050508015611b6c57506040513d601f19601f82011682018060405250810190611b699190612fd5565b60015b611bef573d8060008114611b9c576040519150601f19603f3d011682016040523d82523d6000602084013e611ba1565b606091505b50600081511415611be7576040517f08c379a0000000000000000000000000000000000000000000000000000000008152600401611bde90613640565b60405180910390fd5b805181602001fd5b63150b7a0260e01b7bffffffffffffffffffffffffffffffffffffffffffffffffffffffff1916817bffffffffffffffffffffffffffffffffffffffffffffffffffffffff191614915050611c44565b600190505b949350505050565b606060405180602001604052806000815250905090565b6060611c6e826111ae565b611cad576040517f08c379a0000000000000000000000000000000000000000000000000000000008152600401611ca490613860565b60405180910390fd5b6000611cb7611c4c565b90506000815111611cd75760405180602001604052806000815250611d02565b80611ce184612128565b604051602001611cf29291906134a3565b6040516020818303038152906040525b915050919050565b6000806000611d1985856122d5565b91509150611d2681612358565b819250505092915050565b6001816000016000828254019250508190555050565b600081600001549050919050565b600073ffffffffffffffffffffffffffffffffffffffff168273ffffffffffffffffffffffffffffffffffffffff161415611dc5576040517f08c379a0000000000000000000000000000000000000000000000000000000008152600401611dbc906137c0565b60405180910390fd5b611dce816111ae565b15611e0e576040517f08c379a0000000000000000000000000000000000000000000000000000000008152600401611e0590613680565b60405180910390fd5b611e1a60008383611aa5565b6001600360008473ffffffffffffffffffffffffffffffffffffffff1673ffffffffffffffffffffffffffffffffffffffff1681526020019081526020016000206000828254611e6a9190613a05565b92505081905550816002600083815260200190815260200160002060006101000a81548173ffffffffffffffffffffffffffffffffffffffff021916908373ffffffffffffffffffffffffffffffffffffffff160217905550808273ffffffffffffffffffffffffffffffffffffffff16600073ffffffffffffffffffffffffffffffffffffffff167fddf252ad1be2c89b69c2b068fc378daa952ba7f163c4a11628f55a4df523b3ef60405160405180910390a45050565b611f2c826111ae565b611f6b576040517f08c379a0000000000000000000000000000000000000000000000000000000008152600401611f6290613780565b60405180910390fd5b80600660008481526020019081526020016000209080519060200190611f92929190612b81565b505050565b60007f01ffc9a7000000000000000000000000000000000000000000000000000000007bffffffffffffffffffffffffffffffffffffffffffffffffffffffff1916827bffffffffffffffffffffffffffffffffffffffffffffffffffffffff1916149050919050565b61200c8383836126a9565b600073ffffffffffffffffffffffffffffffffffffffff168373ffffffffffffffffffffffffffffffffffffffff16141561204f5761204a816126ae565b61208e565b8173ffffffffffffffffffffffffffffffffffffffff168373ffffffffffffffffffffffffffffffffffffffff161461208d5761208c83826126f7565b5b5b600073ffffffffffffffffffffffffffffffffffffffff168273ffffffffffffffffffffffffffffffffffffffff1614156120d1576120cc81612864565b612110565b8273ffffffffffffffffffffffffffffffffffffffff168273ffffffffffffffffffffffffffffffffffffffff161461210f5761210e82826129a7565b5b5b505050565b600080823b905060008111915050919050565b60606000821415612170576040518060400160405280600181526020017f300000000000000000000000000000000000000000000000000000000000000081525090506122d0565b600082905060005b600082146121a257808061218b90613bf0565b915050600a8261219b9190613a5b565b9150612178565b60008167ffffffffffffffff8111156121e4577f4e487b7100000000000000000000000000000000000000000000000000000000600052604160045260246000fd5b6040519080825280601f01601f1916602001820160405280156122165781602001600182028036833780820191505090505b5090505b600085146122c95760018261222f9190613a8c565b9150600a8561223e9190613c39565b603061224a9190613a05565b60f81b818381518110612286577f4e487b7100000000000000000000000000000000000000000000000000000000600052603260045260246000fd5b60200101907effffffffffffffffffffffffffffffffffffffffffffffffffffffffffffff1916908160001a905350600a856122c29190613a5b565b945061221a565b8093505050505b919050565b6000806041835114156123175760008060006020860151925060408601519150606086015160001a905061230b87828585612a26565b94509450505050612351565b60408351141561234857600080602085015191506040850151905061233d868383612b33565b935093505050612351565b60006002915091505b9250929050565b60006004811115612392577f4e487b7100000000000000000000000000000000000000000000000000000000600052602160045260246000fd5b8160048111156123cb577f4e487b7100000000000000000000000000000000000000000000000000000000600052602160045260246000fd5b14156123d6576126a6565b60016004811115612410577f4e487b7100000000000000000000000000000000000000000000000000000000600052602160045260246000fd5b816004811115612449577f4e487b7100000000000000000000000000000000000000000000000000000000600052602160045260246000fd5b141561248a576040517f08c379a0000000000000000000000000000000000000000000000000000000008152600401612481906135e0565b60405180910390fd5b600260048111156124c4577f4e487b7100000000000000000000000000000000000000000000000000000000600052602160045260246000fd5b8160048111156124fd577f4e487b7100000000000000000000000000000000000000000000000000000000600052602160045260246000fd5b141561253e576040517f08c379a000000000000000000000000000000000000000000000000000000000815260040161253590613600565b60405180910390fd5b60036004811115612578577f4e487b7100000000000000000000000000000000000000000000000000000000600052602160045260246000fd5b8160048111156125b1577f4e487b7100000000000000000000000000000000000000000000000000000000600052602160045260246000fd5b14156125f2576040517f08c379a00000000000000000000000000000000000000000000000000000000081526004016125e9906136e0565b60405180910390fd5b60048081111561262b577f4e487b7100000000000000000000000000000000000000000000000000000000600052602160045260246000fd5b816004811115612664577f4e487b7100000000000000000000000000000000000000000000000000000000600052602160045260246000fd5b14156126a5576040517f08c379a000000000000000000000000000000000000000000000000000000000815260040161269c906137a0565b60405180910390fd5b5b50565b505050565b600980549050600a600083815260200190815260200160002081905550600981908060018154018082558091505060019003906000526020600020016000909190919091505550565b6000600161270484610b54565b61270e9190613a8c565b90506000600860008481526020019081526020016000205490508181146127f3576000600760008673ffffffffffffffffffffffffffffffffffffffff1673ffffffffffffffffffffffffffffffffffffffff168152602001908152602001600020600084815260200190815260200160002054905080600760008773ffffffffffffffffffffffffffffffffffffffff1673ffffffffffffffffffffffffffffffffffffffff168152602001908152602001600020600084815260200190815260200160002081905550816008600083815260200190815260200160002081905550505b6008600084815260200190815260200160002060009055600760008573ffffffffffffffffffffffffffffffffffffffff1673ffffffffffffffffffffffffffffffffffffffff16815260200190815260200160002060008381526020019081526020016000206000905550505050565b600060016009805490506128789190613a8c565b90506000600a60008481526020019081526020016000205490506000600983815481106128ce577f4e487b7100000000000000000000000000000000000000000000000000000000600052603260045260246000fd5b906000526020600020015490508060098381548110612916577f4e487b7100000000000000000000000000000000000000000000000000000000600052603260045260246000fd5b906000526020600020018190555081600a600083815260200190815260200160002081905550600a600085815260200190815260200160002060009055600980548061298b577f4e487b7100000000000000000000000000000000000000000000000000000000600052603160045260246000fd5b6001900381819060005260206000200160009055905550505050565b60006129b283610b54565b905081600760008573ffffffffffffffffffffffffffffffffffffffff1673ffffffffffffffffffffffffffffffffffffffff168152602001908152602001600020600083815260200190815260200160002081905550806008600084815260200190815260200160002081905550505050565b6000807f7fffffffffffffffffffffffffffffff5d576e7357a4501ddfe92f46681b20a08360001c1115612a61576000600391509150612b2a565b601b8560ff1614158015612a795750601c8560ff1614155b15612a8b576000600491509150612b2a565b600060018787878760405160008152602001604052604051612ab09493929190613549565b6020604051602081039080840390855afa158015612ad2573d6000803e3d6000fd5b505050602060405103519050600073ffffffffffffffffffffffffffffffffffffffff168173ffffffffffffffffffffffffffffffffffffffff161415612b2157600060019250925050612b2a565b80600092509250505b94509492505050565b6000806000807f7fffffffffffffffffffffffffffffffffffffffffffffffffffffffffffffff85169150601b8560ff1c019050612b7387828885612a26565b935093505050935093915050565b828054612b8d90613b8d565b90600052602060002090601f016020900481019282612baf5760008555612bf6565b82601f10612bc857805160ff1916838001178555612bf6565b82800160010185558215612bf6579182015b82811115612bf5578251825591602001919060010190612bda565b5b509050612c039190612c07565b5090565b5b80821115612c20576000816000905550600101612c08565b5090565b6000612c37612c3284613960565b61393b565b905082815260208101848484011115612c4f57600080fd5b612c5a848285613b4b565b509392505050565b6000612c75612c7084613991565b61393b565b905082815260208101848484011115612c8d57600080fd5b612c98848285613b4b565b509392505050565b600081359050612caf8161440d565b92915050565b600081359050612cc481614424565b92915050565b600081359050612cd98161443b565b92915050565b600081359050612cee81614452565b92915050565b600081519050612d0381614452565b92915050565b600082601f830112612d1a57600080fd5b8135612d2a848260208601612c24565b91505092915050565b600082601f830112612d4457600080fd5b8135612d54848260208601612c62565b91505092915050565b600081359050612d6c81614469565b92915050565b600060208284031215612d8457600080fd5b6000612d9284828501612ca0565b91505092915050565b60008060408385031215612dae57600080fd5b6000612dbc85828601612ca0565b9250506020612dcd85828601612ca0565b9150509250929050565b600080600060608486031215612dec57600080fd5b6000612dfa86828701612ca0565b9350506020612e0b86828701612ca0565b9250506040612e1c86828701612d5d565b9150509250925092565b60008060008060808587031215612e3c57600080fd5b6000612e4a87828801612ca0565b9450506020612e5b87828801612ca0565b9350506040612e6c87828801612d5d565b925050606085013567ffffffffffffffff811115612e8957600080fd5b612e9587828801612d09565b91505092959194509250565b60008060408385031215612eb457600080fd5b6000612ec285828601612ca0565b9250506020612ed385828601612cb5565b9150509250929050565b60008060008060808587031215612ef357600080fd5b6000612f0187828801612ca0565b945050602085013567ffffffffffffffff811115612f1e57600080fd5b612f2a87828801612d33565b9350506040612f3b87828801612cca565b925050606085013567ffffffffffffffff811115612f5857600080fd5b612f6487828801612d09565b91505092959194509250565b60008060408385031215612f8357600080fd5b6000612f9185828601612ca0565b9250506020612fa285828601612d5d565b9150509250929050565b600060208284031215612fbe57600080fd5b6000612fcc84828501612cdf565b91505092915050565b600060208284031215612fe757600080fd5b6000612ff584828501612cf4565b91505092915050565b60006020828403121561301057600080fd5b600061301e84828501612d5d565b91505092915050565b61303081613ac0565b82525050565b61303f81613ad2565b82525050565b61304e81613ade565b82525050565b600061305f826139c2565b61306981856139d8565b9350613079818560208601613b5a565b61308281613d26565b840191505092915050565b6000613098826139cd565b6130a281856139e9565b93506130b2818560208601613b5a565b6130bb81613d26565b840191505092915050565b60006130d1826139cd565b6130db81856139fa565b93506130eb818560208601613b5a565b80840191505092915050565b60006131046018836139e9565b915061310f82613d37565b602082019050919050565b6000613127601f836139e9565b915061313282613d60565b602082019050919050565b600061314a602b836139e9565b915061315582613d89565b604082019050919050565b600061316d6032836139e9565b915061317882613dd8565b604082019050919050565b60006131906026836139e9565b915061319b82613e27565b604082019050919050565b60006131b3601c836139e9565b91506131be82613e76565b602082019050919050565b60006131d66024836139e9565b91506131e182613e9f565b604082019050919050565b60006131f96019836139e9565b915061320482613eee565b602082019050919050565b600061321c6022836139e9565b915061322782613f17565b604082019050919050565b600061323f602c836139e9565b915061324a82613f66565b604082019050919050565b60006132626038836139e9565b915061326d82613fb5565b604082019050919050565b6000613285602a836139e9565b915061329082614004565b604082019050919050565b60006132a86029836139e9565b91506132b382614053565b604082019050919050565b60006132cb602e836139e9565b91506132d6826140a2565b604082019050919050565b60006132ee6022836139e9565b91506132f9826140f1565b604082019050919050565b60006133116020836139e9565b915061331c82614140565b602082019050919050565b60006133346031836139e9565b915061333f82614169565b604082019050919050565b6000613357602c836139e9565b9150613362826141b8565b604082019050919050565b600061337a6020836139e9565b915061338582614207565b602082019050919050565b600061339d6029836139e9565b91506133a882614230565b604082019050919050565b60006133c0602f836139e9565b91506133cb8261427f565b604082019050919050565b60006133e36021836139e9565b91506133ee826142ce565b604082019050919050565b60006134066031836139e9565b91506134118261431d565b604082019050919050565b6000613429602c836139e9565b91506134348261436c565b604082019050919050565b600061344c601f836139e9565b9150613457826143bb565b602082019050919050565b600061346f6007836139e9565b915061347a826143e4565b602082019050919050565b61348e81613b34565b82525050565b61349d81613b3e565b82525050565b60006134af82856130c6565b91506134bb82846130c6565b91508190509392505050565b60006020820190506134dc6000830184613027565b92915050565b60006080820190506134f76000830187613027565b6135046020830186613027565b6135116040830185613485565b81810360608301526135238184613054565b905095945050505050565b60006020820190506135436000830184613036565b92915050565b600060808201905061355e6000830187613045565b61356b6020830186613494565b6135786040830185613045565b6135856060830184613045565b95945050505050565b600060208201905081810360008301526135a8818461308d565b905092915050565b600060408201905081810360008301526135ca818561308d565b90506135d96020830184613485565b9392505050565b600060208201905081810360008301526135f9816130f7565b9050919050565b600060208201905081810360008301526136198161311a565b9050919050565b600060208201905081810360008301526136398161313d565b9050919050565b6000602082019050818103600083015261365981613160565b9050919050565b6000602082019050818103600083015261367981613183565b9050919050565b60006020820190508181036000830152613699816131a6565b9050919050565b600060208201905081810360008301526136b9816131c9565b9050919050565b600060208201905081810360008301526136d9816131ec565b9050919050565b600060208201905081810360008301526136f98161320f565b9050919050565b6000602082019050818103600083015261371981613232565b9050919050565b6000602082019050818103600083015261373981613255565b9050919050565b6000602082019050818103600083015261375981613278565b9050919050565b600060208201905081810360008301526137798161329b565b9050919050565b60006020820190508181036000830152613799816132be565b9050919050565b600060208201905081810360008301526137b9816132e1565b9050919050565b600060208201905081810360008301526137d981613304565b9050919050565b600060208201905081810360008301526137f981613327565b9050919050565b600060208201905081810360008301526138198161334a565b9050919050565b600060208201905081810360008301526138398161336d565b9050919050565b6000602082019050818103600083015261385981613390565b9050919050565b60006020820190508181036000830152613879816133b3565b9050919050565b60006020820190508181036000830152613899816133d6565b9050919050565b600060208201905081810360008301526138b9816133f9565b9050919050565b600060208201905081810360008301526138d98161341c565b9050919050565b600060208201905081810360008301526138f98161343f565b9050919050565b6000602082019050818103600083015261391981613462565b9050919050565b60006020820190506139356000830184613485565b92915050565b6000613945613956565b90506139518282613bbf565b919050565b6000604051905090565b600067ffffffffffffffff82111561397b5761397a613cf7565b5b61398482613d26565b9050602081019050919050565b600067ffffffffffffffff8211156139ac576139ab613cf7565b5b6139b582613d26565b9050602081019050919050565b600081519050919050565b600081519050919050565b600082825260208201905092915050565b600082825260208201905092915050565b600081905092915050565b6000613a1082613b34565b9150613a1b83613b34565b9250827fffffffffffffffffffffffffffffffffffffffffffffffffffffffffffffffff03821115613a5057613a4f613c6a565b5b828201905092915050565b6000613a6682613b34565b9150613a7183613b34565b925082613a8157613a80613c99565b5b828204905092915050565b6000613a9782613b34565b9150613aa283613b34565b925082821015613ab557613ab4613c6a565b5b828203905092915050565b6000613acb82613b14565b9050919050565b60008115159050919050565b6000819050919050565b60007fffffffff0000000000000000000000000000000000000000000000000000000082169050919050565b600073ffffffffffffffffffffffffffffffffffffffff82169050919050565b6000819050919050565b600060ff82169050919050565b82818337600083830152505050565b60005b83811015613b78578082015181840152602081019050613b5d565b83811115613b87576000848401525b50505050565b60006002820490506001821680613ba557607f821691505b60208210811415613bb957613bb8613cc8565b5b50919050565b613bc882613d26565b810181811067ffffffffffffffff82111715613be757613be6613cf7565b5b80604052505050565b6000613bfb82613b34565b91507fffffffffffffffffffffffffffffffffffffffffffffffffffffffffffffffff821415613c2e57613c2d613c6a565b5b600182019050919050565b6000613c4482613b34565b9150613c4f83613b34565b925082613c5f57613c5e613c99565b5b828206905092915050565b7f4e487b7100000000000000000000000000000000000000000000000000000000600052601160045260246000fd5b7f4e487b7100000000000000000000000000000000000000000000000000000000600052601260045260246000fd5b7f4e487b7100000000000000000000000000000000000000000000000000000000600052602260045260246000fd5b7f4e487b7100000000000000000000000000000000000000000000000000000000600052604160045260246000fd5b6000601f19601f8301169050919050565b7f45434453413a20696e76616c6964207369676e61747572650000000000000000600082015250565b7f45434453413a20696e76616c6964207369676e6174757265206c656e67746800600082015250565b7f455243373231456e756d657261626c653a206f776e657220696e646578206f7560008201527f74206f6620626f756e6473000000000000000000000000000000000000000000602082015250565b7f4552433732313a207472616e7366657220746f206e6f6e20455243373231526560008201527f63656976657220696d706c656d656e7465720000000000000000000000000000602082015250565b7f4f776e61626c653a206e6577206f776e657220697320746865207a65726f206160008201527f6464726573730000000000000000000000000000000000000000000000000000602082015250565b7f4552433732313a20746f6b656e20616c7265616479206d696e74656400000000600082015250565b7f4552433732313a207472616e7366657220746f20746865207a65726f2061646460008201527f7265737300000000000000000000000000000000000000000000000000000000602082015250565b7f4552433732313a20617070726f766520746f2063616c6c657200000000000000600082015250565b7f45434453413a20696e76616c6964207369676e6174757265202773272076616c60008201527f7565000000000000000000000000000000000000000000000000000000000000602082015250565b7f4552433732313a206f70657261746f7220717565727920666f72206e6f6e657860008201527f697374656e7420746f6b656e0000000000000000000000000000000000000000602082015250565b7f4552433732313a20617070726f76652063616c6c6572206973206e6f74206f7760008201527f6e6572206e6f7220617070726f76656420666f7220616c6c0000000000000000602082015250565b7f4552433732313a2062616c616e636520717565727920666f7220746865207a6560008201527f726f206164647265737300000000000000000000000000000000000000000000602082015250565b7f4552433732313a206f776e657220717565727920666f72206e6f6e657869737460008201527f656e7420746f6b656e0000000000000000000000000000000000000000000000602082015250565b7f45524337323155524953746f726167653a2055524920736574206f66206e6f6e60008201527f6578697374656e7420746f6b656e000000000000000000000000000000000000602082015250565b7f45434453413a20696e76616c6964207369676e6174757265202776272076616c60008201527f7565000000000000000000000000000000000000000000000000000000000000602082015250565b7f4552433732313a206d696e7420746f20746865207a65726f2061646472657373600082015250565b7f45524337323155524953746f726167653a2055524920717565727920666f722060008201527f6e6f6e6578697374656e7420746f6b656e000000000000000000000000000000602082015250565b7f4552433732313a20617070726f76656420717565727920666f72206e6f6e657860008201527f697374656e7420746f6b656e0000000000000000000000000000000000000000602082015250565b7f4f776e61626c653a2063616c6c6572206973206e6f7420746865206f776e6572600082015250565b7f4552433732313a207472616e73666572206f6620746f6b656e2074686174206960008201527f73206e6f74206f776e0000000000000000000000000000000000000000000000602082015250565b7f4552433732314d657461646174613a2055524920717565727920666f72206e6f60008201527f6e6578697374656e7420746f6b656e0000000000000000000000000000000000602082015250565b7f4552433732313a20617070726f76616c20746f2063757272656e74206f776e6560008201527f7200000000000000000000000000000000000000000000000000000000000000602082015250565b7f4552433732313a207472616e736665722063616c6c6572206973206e6f74206f60008201527f776e6572206e6f7220617070726f766564000000000000000000000000000000602082015250565b7f455243373231456e756d657261626c653a20676c6f62616c20696e646578206f60008201527f7574206f6620626f756e64730000000000000000000000000000000000000000602082015250565b7f4574686572206973206e6f7420656e6f75676820746f206d696e74204e465400600082015250565b7f44656e6965642100000000000000000000000000000000000000000000000000600082015250565b61441681613ac0565b811461442157600080fd5b50565b61442d81613ad2565b811461443857600080fd5b50565b61444481613ade565b811461444f57600080fd5b50565b61445b81613ae8565b811461446657600080fd5b50565b61447281613b34565b811461447d57600080fd5b5056fea26469706673582212207483cc749df4d964341386511d9c9aad21e23745fd17587ad6e886a117e64acd64736f6c63430008040033",
  "devdoc": {
    "kind": "dev",
    "methods": {
      "approve(address,uint256)": {
        "details": "See {IERC721-approve}."
      },
      "balanceOf(address)": {
        "details": "See {IERC721-balanceOf}."
      },
      "getApproved(uint256)": {
        "details": "See {IERC721-getApproved}."
      },
      "isApprovedForAll(address,address)": {
        "details": "See {IERC721-isApprovedForAll}."
      },
      "name()": {
        "details": "See {IERC721Metadata-name}."
      },
      "owner()": {
        "details": "Returns the address of the current owner."
      },
      "ownerOf(uint256)": {
        "details": "See {IERC721-ownerOf}."
      },
      "renounceOwnership()": {
        "details": "Leaves the contract without owner. It will not be possible to call `onlyOwner` functions anymore. Can only be called by the current owner. NOTE: Renouncing ownership will leave the contract without an owner, thereby removing any functionality that is only available to the owner."
      },
      "safeTransferFrom(address,address,uint256)": {
        "details": "See {IERC721-safeTransferFrom}."
      },
      "safeTransferFrom(address,address,uint256,bytes)": {
        "details": "See {IERC721-safeTransferFrom}."
      },
      "setApprovalForAll(address,bool)": {
        "details": "See {IERC721-setApprovalForAll}."
      },
      "symbol()": {
        "details": "See {IERC721Metadata-symbol}."
      },
      "tokenByIndex(uint256)": {
        "details": "See {IERC721Enumerable-tokenByIndex}."
      },
      "tokenOfOwnerByIndex(address,uint256)": {
        "details": "See {IERC721Enumerable-tokenOfOwnerByIndex}."
      },
      "totalSupply()": {
        "details": "See {IERC721Enumerable-totalSupply}."
      },
      "transferFrom(address,address,uint256)": {
        "details": "See {IERC721-transferFrom}."
      },
      "transferOwnership(address)": {
        "details": "Transfers ownership of the contract to a new account (`newOwner`). Can only be called by the current owner."
      }
    },
    "version": 1
  },
  "userdoc": {
    "kind": "user",
    "methods": {},
    "version": 1
  },
  "storageLayout": {
    "storage": [
      {
        "astId": 129,
        "contract": "contracts/Burger.sol:Burger",
        "label": "_name",
        "offset": 0,
        "slot": "0",
        "type": "t_string_storage"
      },
      {
        "astId": 131,
        "contract": "contracts/Burger.sol:Burger",
        "label": "_symbol",
        "offset": 0,
        "slot": "1",
        "type": "t_string_storage"
      },
      {
        "astId": 135,
        "contract": "contracts/Burger.sol:Burger",
        "label": "_owners",
        "offset": 0,
        "slot": "2",
        "type": "t_mapping(t_uint256,t_address)"
      },
      {
        "astId": 139,
        "contract": "contracts/Burger.sol:Burger",
        "label": "_balances",
        "offset": 0,
        "slot": "3",
        "type": "t_mapping(t_address,t_uint256)"
      },
      {
        "astId": 143,
        "contract": "contracts/Burger.sol:Burger",
        "label": "_tokenApprovals",
        "offset": 0,
        "slot": "4",
        "type": "t_mapping(t_uint256,t_address)"
      },
      {
        "astId": 149,
        "contract": "contracts/Burger.sol:Burger",
        "label": "_operatorApprovals",
        "offset": 0,
        "slot": "5",
        "type": "t_mapping(t_address,t_mapping(t_address,t_bool))"
      },
      {
        "astId": 1404,
        "contract": "contracts/Burger.sol:Burger",
        "label": "_tokenURIs",
        "offset": 0,
        "slot": "6",
        "type": "t_mapping(t_uint256,t_string_storage)"
      },
      {
        "astId": 1068,
        "contract": "contracts/Burger.sol:Burger",
        "label": "_ownedTokens",
        "offset": 0,
        "slot": "7",
        "type": "t_mapping(t_address,t_mapping(t_uint256,t_uint256))"
      },
      {
        "astId": 1072,
        "contract": "contracts/Burger.sol:Burger",
        "label": "_ownedTokensIndex",
        "offset": 0,
        "slot": "8",
        "type": "t_mapping(t_uint256,t_uint256)"
      },
      {
        "astId": 1075,
        "contract": "contracts/Burger.sol:Burger",
        "label": "_allTokens",
        "offset": 0,
        "slot": "9",
        "type": "t_array(t_uint256)dyn_storage"
      },
      {
        "astId": 1079,
        "contract": "contracts/Burger.sol:Burger",
        "label": "_allTokensIndex",
        "offset": 0,
        "slot": "10",
        "type": "t_mapping(t_uint256,t_uint256)"
      },
      {
        "astId": 7,
        "contract": "contracts/Burger.sol:Burger",
        "label": "_owner",
        "offset": 0,
        "slot": "11",
        "type": "t_address"
      },
      {
        "astId": 2593,
        "contract": "contracts/Burger.sol:Burger",
        "label": "price",
        "offset": 0,
        "slot": "12",
        "type": "t_uint256"
      },
      {
        "astId": 2603,
        "contract": "contracts/Burger.sol:Burger",
        "label": "_tokenIds",
        "offset": 0,
        "slot": "13",
        "type": "t_struct(Counter)1902_storage"
      },
      {
        "astId": 2606,
        "contract": "contracts/Burger.sol:Burger",
        "label": "VERIFIED_ADDRESS",
        "offset": 0,
        "slot": "14",
        "type": "t_address"
      }
    ],
    "types": {
      "t_address": {
        "encoding": "inplace",
        "label": "address",
        "numberOfBytes": "20"
      },
      "t_array(t_uint256)dyn_storage": {
        "base": "t_uint256",
        "encoding": "dynamic_array",
        "label": "uint256[]",
        "numberOfBytes": "32"
      },
      "t_bool": {
        "encoding": "inplace",
        "label": "bool",
        "numberOfBytes": "1"
      },
      "t_mapping(t_address,t_bool)": {
        "encoding": "mapping",
        "key": "t_address",
        "label": "mapping(address => bool)",
        "numberOfBytes": "32",
        "value": "t_bool"
      },
      "t_mapping(t_address,t_mapping(t_address,t_bool))": {
        "encoding": "mapping",
        "key": "t_address",
        "label": "mapping(address => mapping(address => bool))",
        "numberOfBytes": "32",
        "value": "t_mapping(t_address,t_bool)"
      },
      "t_mapping(t_address,t_mapping(t_uint256,t_uint256))": {
        "encoding": "mapping",
        "key": "t_address",
        "label": "mapping(address => mapping(uint256 => uint256))",
        "numberOfBytes": "32",
        "value": "t_mapping(t_uint256,t_uint256)"
      },
      "t_mapping(t_address,t_uint256)": {
        "encoding": "mapping",
        "key": "t_address",
        "label": "mapping(address => uint256)",
        "numberOfBytes": "32",
        "value": "t_uint256"
      },
      "t_mapping(t_uint256,t_address)": {
        "encoding": "mapping",
        "key": "t_uint256",
        "label": "mapping(uint256 => address)",
        "numberOfBytes": "32",
        "value": "t_address"
      },
      "t_mapping(t_uint256,t_string_storage)": {
        "encoding": "mapping",
        "key": "t_uint256",
        "label": "mapping(uint256 => string)",
        "numberOfBytes": "32",
        "value": "t_string_storage"
      },
      "t_mapping(t_uint256,t_uint256)": {
        "encoding": "mapping",
        "key": "t_uint256",
        "label": "mapping(uint256 => uint256)",
        "numberOfBytes": "32",
        "value": "t_uint256"
      },
      "t_string_storage": {
        "encoding": "bytes",
        "label": "string",
        "numberOfBytes": "32"
      },
      "t_struct(Counter)1902_storage": {
        "encoding": "inplace",
        "label": "struct Counters.Counter",
        "members": [
          {
            "astId": 1901,
            "contract": "contracts/Burger.sol:Burger",
            "label": "_value",
            "offset": 0,
            "slot": "0",
            "type": "t_uint256"
          }
        ],
        "numberOfBytes": "32"
      },
      "t_uint256": {
        "encoding": "inplace",
        "label": "uint256",
        "numberOfBytes": "32"
      }
    }
  }
}