{
  "address": "0x27506abD55a1e20A381A4a0052B2189f3997865d",
  "abi": [
    {
      "inputs": [],
      "stateMutability": "nonpayable",
      "type": "constructor"
    },
    {
      "anonymous": false,
      "inputs": [
        {
          "indexed": true,
          "internalType": "address",
          "name": "owner",
          "type": "address"
        },
        {
          "indexed": true,
          "internalType": "address",
          "name": "approved",
          "type": "address"
        },
        {
          "indexed": true,
          "internalType": "uint256",
          "name": "tokenId",
          "type": "uint256"
        }
      ],
      "name": "Approval",
      "type": "event"
    },
    {
      "anonymous": false,
      "inputs": [
        {
          "indexed": true,
          "internalType": "address",
          "name": "owner",
          "type": "address"
        },
        {
          "indexed": true,
          "internalType": "address",
          "name": "operator",
          "type": "address"
        },
        {
          "indexed": false,
          "internalType": "bool",
          "name": "approved",
          "type": "bool"
        }
      ],
      "name": "ApprovalForAll",
      "type": "event"
    },
    {
      "anonymous": false,
      "inputs": [
        {
          "indexed": true,
          "internalType": "address",
          "name": "_to",
          "type": "address"
        },
        {
          "indexed": false,
          "internalType": "string",
          "name": "tokenURI",
          "type": "string"
        },
        {
          "indexed": false,
          "internalType": "uint256",
          "name": "id",
          "type": "uint256"
        }
      ],
      "name": "NFTMintEvent",
      "type": "event"
    },
    {
      "anonymous": false,
      "inputs": [
        {
          "indexed": true,
          "internalType": "address",
          "name": "previousOwner",
          "type": "address"
        },
        {
          "indexed": true,
          "internalType": "address",
          "name": "newOwner",
          "type": "address"
        }
      ],
      "name": "OwnershipTransferred",
      "type": "event"
    },
    {
      "anonymous": false,
      "inputs": [
        {
          "indexed": true,
          "internalType": "address",
          "name": "from",
          "type": "address"
        },
        {
          "indexed": true,
          "internalType": "address",
          "name": "to",
          "type": "address"
        },
        {
          "indexed": true,
          "internalType": "uint256",
          "name": "tokenId",
          "type": "uint256"
        }
      ],
      "name": "Transfer",
      "type": "event"
    },
    {
      "inputs": [
        {
          "internalType": "address",
          "name": "to",
          "type": "address"
        },
        {
          "internalType": "uint256",
          "name": "tokenId",
          "type": "uint256"
        }
      ],
      "name": "approve",
      "outputs": [],
      "stateMutability": "nonpayable",
      "type": "function"
    },
    {
      "inputs": [
        {
          "internalType": "address",
          "name": "owner",
          "type": "address"
        }
      ],
      "name": "balanceOf",
      "outputs": [
        {
          "internalType": "uint256",
          "name": "",
          "type": "uint256"
        }
      ],
      "stateMutability": "view",
      "type": "function"
    },
    {
      "inputs": [
        {
          "internalType": "uint256",
          "name": "tokenId",
          "type": "uint256"
        }
      ],
      "name": "getApproved",
      "outputs": [
        {
          "internalType": "address",
          "name": "",
          "type": "address"
        }
      ],
      "stateMutability": "view",
      "type": "function"
    },
    {
      "inputs": [],
      "name": "getVerfiedAddress",
      "outputs": [
        {
          "internalType": "address",
          "name": "",
          "type": "address"
        }
      ],
      "stateMutability": "view",
      "type": "function"
    },
    {
      "inputs": [
        {
          "internalType": "address",
          "name": "owner",
          "type": "address"
        },
        {
          "internalType": "address",
          "name": "operator",
          "type": "address"
        }
      ],
      "name": "isApprovedForAll",
      "outputs": [
        {
          "internalType": "bool",
          "name": "",
          "type": "bool"
        }
      ],
      "stateMutability": "view",
      "type": "function"
    },
    {
      "inputs": [
        {
          "internalType": "address",
          "name": "_to",
          "type": "address"
        },
        {
          "internalType": "string",
          "name": "tokenUri",
          "type": "string"
        },
        {
          "internalType": "bytes32",
          "name": "tokenUriHash",
          "type": "bytes32"
        },
        {
          "internalType": "bytes",
          "name": "signature",
          "type": "bytes"
        }
      ],
      "name": "mint",
      "outputs": [
        {
          "internalType": "uint256",
          "name": "",
          "type": "uint256"
        }
      ],
      "stateMutability": "payable",
      "type": "function"
    },
    {
      "inputs": [],
      "name": "name",
      "outputs": [
        {
          "internalType": "string",
          "name": "",
          "type": "string"
        }
      ],
      "stateMutability": "view",
      "type": "function"
    },
    {
      "inputs": [],
      "name": "owner",
      "outputs": [
        {
          "internalType": "address",
          "name": "",
          "type": "address"
        }
      ],
      "stateMutability": "view",
      "type": "function"
    },
    {
      "inputs": [
        {
          "internalType": "uint256",
          "name": "tokenId",
          "type": "uint256"
        }
      ],
      "name": "ownerOf",
      "outputs": [
        {
          "internalType": "address",
          "name": "",
          "type": "address"
        }
      ],
      "stateMutability": "view",
      "type": "function"
    },
    {
      "inputs": [],
      "name": "renounceOwnership",
      "outputs": [],
      "stateMutability": "nonpayable",
      "type": "function"
    },
    {
      "inputs": [
        {
          "internalType": "address",
          "name": "from",
          "type": "address"
        },
        {
          "internalType": "address",
          "name": "to",
          "type": "address"
        },
        {
          "internalType": "uint256",
          "name": "tokenId",
          "type": "uint256"
        }
      ],
      "name": "safeTransferFrom",
      "outputs": [],
      "stateMutability": "nonpayable",
      "type": "function"
    },
    {
      "inputs": [
        {
          "internalType": "address",
          "name": "from",
          "type": "address"
        },
        {
          "internalType": "address",
          "name": "to",
          "type": "address"
        },
        {
          "internalType": "uint256",
          "name": "tokenId",
          "type": "uint256"
        },
        {
          "internalType": "bytes",
          "name": "_data",
          "type": "bytes"
        }
      ],
      "name": "safeTransferFrom",
      "outputs": [],
      "stateMutability": "nonpayable",
      "type": "function"
    },
    {
      "inputs": [
        {
          "internalType": "address",
          "name": "operator",
          "type": "address"
        },
        {
          "internalType": "bool",
          "name": "approved",
          "type": "bool"
        }
      ],
      "name": "setApprovalForAll",
      "outputs": [],
      "stateMutability": "nonpayable",
      "type": "function"
    },
    {
      "inputs": [
        {
          "internalType": "address",
          "name": "_verifiedAddress",
          "type": "address"
        }
      ],
      "name": "setVerifiedAddress",
      "outputs": [],
      "stateMutability": "nonpayable",
      "type": "function"
    },
    {
      "inputs": [
        {
          "internalType": "bytes4",
          "name": "interfaceId",
          "type": "bytes4"
        }
      ],
      "name": "supportsInterface",
      "outputs": [
        {
          "internalType": "bool",
          "name": "",
          "type": "bool"
        }
      ],
      "stateMutability": "view",
      "type": "function"
    },
    {
      "inputs": [],
      "name": "symbol",
      "outputs": [
        {
          "internalType": "string",
          "name": "",
          "type": "string"
        }
      ],
      "stateMutability": "view",
      "type": "function"
    },
    {
      "inputs": [
        {
          "internalType": "uint256",
          "name": "index",
          "type": "uint256"
        }
      ],
      "name": "tokenByIndex",
      "outputs": [
        {
          "internalType": "uint256",
          "name": "",
          "type": "uint256"
        }
      ],
      "stateMutability": "view",
      "type": "function"
    },
    {
      "inputs": [
        {
          "internalType": "address",
          "name": "owner",
          "type": "address"
        },
        {
          "internalType": "uint256",
          "name": "index",
          "type": "uint256"
        }
      ],
      "name": "tokenOfOwnerByIndex",
      "outputs": [
        {
          "internalType": "uint256",
          "name": "",
          "type": "uint256"
        }
      ],
      "stateMutability": "view",
      "type": "function"
    },
    {
      "inputs": [
        {
          "internalType": "uint256",
          "name": "tokenId",
          "type": "uint256"
        }
      ],
      "name": "tokenURI",
      "outputs": [
        {
          "internalType": "string",
          "name": "",
          "type": "string"
        }
      ],
      "stateMutability": "view",
      "type": "function"
    },
    {
      "inputs": [],
      "name": "totalSupply",
      "outputs": [
        {
          "internalType": "uint256",
          "name": "",
          "type": "uint256"
        }
      ],
      "stateMutability": "view",
      "type": "function"
    },
    {
      "inputs": [
        {
          "internalType": "address",
          "name": "from",
          "type": "address"
        },
        {
          "internalType": "address",
          "name": "to",
          "type": "address"
        },
        {
          "internalType": "uint256",
          "name": "tokenId",
          "type": "uint256"
        }
      ],
      "name": "transferFrom",
      "outputs": [],
      "stateMutability": "nonpayable",
      "type": "function"
    },
    {
      "inputs": [
        {
          "internalType": "address",
          "name": "newOwner",
          "type": "address"
        }
      ],
      "name": "transferOwnership",
      "outputs": [],
      "stateMutability": "nonpayable",
      "type": "function"
    }
  ],
  "transactionHash": "0x5c877171978f5fb1a7a14a18feb832e310d0dc04978c31b0caf9950be0c13815",
  "args": [],
  "solcInputHash": "53c24e1dafce5a62bc1dd2ad2e17238a",
  "bytecode": "0x608060405264e8d4a51000600c5573c09eac15f9ba6462e8e4612af7c431e1cfe08b87600e60006101000a81548173ffffffffffffffffffffffffffffffffffffffff021916908373ffffffffffffffffffffffffffffffffffffffff1602179055503480156200006f57600080fd5b506040518060400160405280600681526020017f42757267657200000000000000000000000000000000000000000000000000008152506040518060400160405280600681526020017f42555247455200000000000000000000000000000000000000000000000000008152508160009080519060200190620000f492919062000204565b5080600190805190602001906200010d92919062000204565b50505062000130620001246200013660201b60201c565b6200013e60201b60201c565b62000319565b600033905090565b6000600b60009054906101000a900473ffffffffffffffffffffffffffffffffffffffff16905081600b60006101000a81548173ffffffffffffffffffffffffffffffffffffffff021916908373ffffffffffffffffffffffffffffffffffffffff1602179055508173ffffffffffffffffffffffffffffffffffffffff168173ffffffffffffffffffffffffffffffffffffffff167f8be0079c531659141344cd1fd0a4f28419497f9722a3daafe3b4186f6b6457e060405160405180910390a35050565b8280546200021290620002b4565b90600052602060002090601f01602090048101928262000236576000855562000282565b82601f106200025157805160ff191683800117855562000282565b8280016001018555821562000282579182015b828111156200028157825182559160200191906001019062000264565b5b50905062000291919062000295565b5090565b5b80821115620002b057600081600090555060010162000296565b5090565b60006002820490506001821680620002cd57607f821691505b60208210811415620002e457620002e3620002ea565b5b50919050565b7f4e487b7100000000000000000000000000000000000000000000000000000000600052602260045260246000fd5b61446780620003296000396000f3fe6080604052600436106101355760003560e01c80636352211e116100ab578063a22cb4651161006f578063a22cb4651461043a578063b88d4fde14610463578063c87b56dd1461048c578063e985e9c5146104c9578063f2fde38b14610506578063f693ffaf1461052f57610135565b80636352211e1461035357806370a0823114610390578063715018a6146103cd5780638da5cb5b146103e457806395d89b411461040f57610135565b806323b872dd116100fd57806323b872dd146102335780632f745c591461025c5780633e4356d71461029957806342842e0e146102c45780634f66cbcd146102ed5780634f6ccce71461031657610135565b806301ffc9a71461013a57806306fdde0314610177578063081812fc146101a2578063095ea7b3146101df57806318160ddd14610208575b600080fd5b34801561014657600080fd5b50610161600480360381019061015c9190612f5d565b61055f565b60405161016e91906134df565b60405180910390f35b34801561018357600080fd5b5061018c610571565b604051610199919061353f565b60405180910390f35b3480156101ae57600080fd5b506101c960048036038101906101c49190612faf565b610603565b6040516101d69190613478565b60405180910390f35b3480156101eb57600080fd5b5061020660048036038101906102019190612f21565b610688565b005b34801561021457600080fd5b5061021d6107a0565b60405161022a91906138d1565b60405180910390f35b34801561023f57600080fd5b5061025a60048036038101906102559190612d88565b6107ad565b005b34801561026857600080fd5b50610283600480360381019061027e9190612f21565b61080d565b60405161029091906138d1565b60405180910390f35b3480156102a557600080fd5b506102ae6108b2565b6040516102bb9190613478565b60405180910390f35b3480156102d057600080fd5b506102eb60048036038101906102e69190612d88565b6108dc565b005b3480156102f957600080fd5b50610314600480360381019061030f9190612d23565b6108fc565b005b34801561032257600080fd5b5061033d60048036038101906103389190612faf565b6109bc565b60405161034a91906138d1565b60405180910390f35b34801561035f57600080fd5b5061037a60048036038101906103759190612faf565b610a53565b6040516103879190613478565b60405180910390f35b34801561039c57600080fd5b506103b760048036038101906103b29190612d23565b610b05565b6040516103c491906138d1565b60405180910390f35b3480156103d957600080fd5b506103e2610bbd565b005b3480156103f057600080fd5b506103f9610c45565b6040516104069190613478565b60405180910390f35b34801561041b57600080fd5b50610424610c6f565b604051610431919061353f565b60405180910390f35b34801561044657600080fd5b50610461600480360381019061045c9190612e52565b610d01565b005b34801561046f57600080fd5b5061048a60048036038101906104859190612dd7565b610e82565b005b34801561049857600080fd5b506104b360048036038101906104ae9190612faf565b610ee4565b6040516104c0919061353f565b60405180910390f35b3480156104d557600080fd5b506104f060048036038101906104eb9190612d4c565b610ef6565b6040516104fd91906134df565b60405180910390f35b34801561051257600080fd5b5061052d60048036038101906105289190612d23565b610f8a565b005b61054960048036038101906105449190612e8e565b611082565b60405161055691906138d1565b60405180910390f35b600061056a826110e5565b9050919050565b60606000805461058090613b3e565b80601f01602080910402602001604051908101604052809291908181526020018280546105ac90613b3e565b80156105f95780601f106105ce576101008083540402835291602001916105f9565b820191906000526020600020905b8154815290600101906020018083116105dc57829003601f168201915b5050505050905090565b600061060e8261115f565b61064d576040517f08c379a0000000000000000000000000000000000000000000000000000000008152600401610644906137b1565b60405180910390fd5b6004600083815260200190815260200160002060009054906101000a900473ffffffffffffffffffffffffffffffffffffffff169050919050565b600061069382610a53565b90508073ffffffffffffffffffffffffffffffffffffffff168373ffffffffffffffffffffffffffffffffffffffff161415610704576040517f08c379a00000000000000000000000000000000000000000000000000000000081526004016106fb90613831565b60405180910390fd5b8073ffffffffffffffffffffffffffffffffffffffff166107236111cb565b73ffffffffffffffffffffffffffffffffffffffff16148061075257506107518161074c6111cb565b610ef6565b5b610791576040517f08c379a0000000000000000000000000000000000000000000000000000000008152600401610788906136d1565b60405180910390fd5b61079b83836111d3565b505050565b6000600980549050905090565b6107be6107b86111cb565b8261128c565b6107fd576040517f08c379a00000000000000000000000000000000000000000000000000000000081526004016107f490613851565b60405180910390fd5b61080883838361136a565b505050565b600061081883610b05565b8210610859576040517f08c379a0000000000000000000000000000000000000000000000000000000008152600401610850906135d1565b60405180910390fd5b600760008473ffffffffffffffffffffffffffffffffffffffff1673ffffffffffffffffffffffffffffffffffffffff168152602001908152602001600020600083815260200190815260200160002054905092915050565b6000600e60009054906101000a900473ffffffffffffffffffffffffffffffffffffffff16905090565b6108f783838360405180602001604052806000815250610e82565b505050565b6109046111cb565b73ffffffffffffffffffffffffffffffffffffffff16610922610c45565b73ffffffffffffffffffffffffffffffffffffffff1614610978576040517f08c379a000000000000000000000000000000000000000000000000000000000815260040161096f906137d1565b60405180910390fd5b80600e60006101000a81548173ffffffffffffffffffffffffffffffffffffffff021916908373ffffffffffffffffffffffffffffffffffffffff16021790555050565b60006109c66107a0565b8210610a07576040517f08c379a00000000000000000000000000000000000000000000000000000000081526004016109fe90613871565b60405180910390fd5b60098281548110610a41577f4e487b7100000000000000000000000000000000000000000000000000000000600052603260045260246000fd5b90600052602060002001549050919050565b6000806002600084815260200190815260200160002060009054906101000a900473ffffffffffffffffffffffffffffffffffffffff169050600073ffffffffffffffffffffffffffffffffffffffff168173ffffffffffffffffffffffffffffffffffffffff161415610afc576040517f08c379a0000000000000000000000000000000000000000000000000000000008152600401610af390613711565b60405180910390fd5b80915050919050565b60008073ffffffffffffffffffffffffffffffffffffffff168273ffffffffffffffffffffffffffffffffffffffff161415610b76576040517f08c379a0000000000000000000000000000000000000000000000000000000008152600401610b6d906136f1565b60405180910390fd5b600360008373ffffffffffffffffffffffffffffffffffffffff1673ffffffffffffffffffffffffffffffffffffffff168152602001908152602001600020549050919050565b610bc56111cb565b73ffffffffffffffffffffffffffffffffffffffff16610be3610c45565b73ffffffffffffffffffffffffffffffffffffffff1614610c39576040517f08c379a0000000000000000000000000000000000000000000000000000000008152600401610c30906137d1565b60405180910390fd5b610c4360006115c6565b565b6000600b60009054906101000a900473ffffffffffffffffffffffffffffffffffffffff16905090565b606060018054610c7e90613b3e565b80601f0160208091040260200160405190810160405280929190818152602001828054610caa90613b3e565b8015610cf75780601f10610ccc57610100808354040283529160200191610cf7565b820191906000526020600020905b815481529060010190602001808311610cda57829003601f168201915b5050505050905090565b610d096111cb565b73ffffffffffffffffffffffffffffffffffffffff168273ffffffffffffffffffffffffffffffffffffffff161415610d77576040517f08c379a0000000000000000000000000000000000000000000000000000000008152600401610d6e90613671565b60405180910390fd5b8060056000610d846111cb565b73ffffffffffffffffffffffffffffffffffffffff1673ffffffffffffffffffffffffffffffffffffffff16815260200190815260200160002060008473ffffffffffffffffffffffffffffffffffffffff1673ffffffffffffffffffffffffffffffffffffffff16815260200190815260200160002060006101000a81548160ff0219169083151502179055508173ffffffffffffffffffffffffffffffffffffffff16610e316111cb565b73ffffffffffffffffffffffffffffffffffffffff167f17307eab39ab6107e8899845ad3d59bd9653f200f220920489ca2b5937696c3183604051610e7691906134df565b60405180910390a35050565b610e93610e8d6111cb565b8361128c565b610ed2576040517f08c379a0000000000000000000000000000000000000000000000000000000008152600401610ec990613851565b60405180910390fd5b610ede8484848461168c565b50505050565b6060610eef826116e8565b9050919050565b6000600560008473ffffffffffffffffffffffffffffffffffffffff1673ffffffffffffffffffffffffffffffffffffffff16815260200190815260200160002060008373ffffffffffffffffffffffffffffffffffffffff1673ffffffffffffffffffffffffffffffffffffffff16815260200190815260200160002060009054906101000a900460ff16905092915050565b610f926111cb565b73ffffffffffffffffffffffffffffffffffffffff16610fb0610c45565b73ffffffffffffffffffffffffffffffffffffffff1614611006576040517f08c379a0000000000000000000000000000000000000000000000000000000008152600401610ffd906137d1565b60405180910390fd5b600073ffffffffffffffffffffffffffffffffffffffff168173ffffffffffffffffffffffffffffffffffffffff161415611076576040517f08c379a000000000000000000000000000000000000000000000000000000000815260040161106d90613611565b60405180910390fd5b61107f816115c6565b50565b60008282611090828261183a565b6110cf576040517f08c379a00000000000000000000000000000000000000000000000000000000081526004016110c6906138b1565b60405180910390fd5b6110d987876118a7565b92505050949350505050565b60007f780e9d63000000000000000000000000000000000000000000000000000000007bffffffffffffffffffffffffffffffffffffffffffffffffffffffff1916827bffffffffffffffffffffffffffffffffffffffffffffffffffffffff19161480611158575061115782611974565b5b9050919050565b60008073ffffffffffffffffffffffffffffffffffffffff166002600084815260200190815260200160002060009054906101000a900473ffffffffffffffffffffffffffffffffffffffff1673ffffffffffffffffffffffffffffffffffffffff1614159050919050565b600033905090565b816004600083815260200190815260200160002060006101000a81548173ffffffffffffffffffffffffffffffffffffffff021916908373ffffffffffffffffffffffffffffffffffffffff160217905550808273ffffffffffffffffffffffffffffffffffffffff1661124683610a53565b73ffffffffffffffffffffffffffffffffffffffff167f8c5be1e5ebec7d5bd14f71427d1e84f3dd0314c0f7b2291e5b200ac8c7c3b92560405160405180910390a45050565b60006112978261115f565b6112d6576040517f08c379a00000000000000000000000000000000000000000000000000000000081526004016112cd906136b1565b60405180910390fd5b60006112e183610a53565b90508073ffffffffffffffffffffffffffffffffffffffff168473ffffffffffffffffffffffffffffffffffffffff16148061135057508373ffffffffffffffffffffffffffffffffffffffff1661133884610603565b73ffffffffffffffffffffffffffffffffffffffff16145b8061136157506113608185610ef6565b5b91505092915050565b8273ffffffffffffffffffffffffffffffffffffffff1661138a82610a53565b73ffffffffffffffffffffffffffffffffffffffff16146113e0576040517f08c379a00000000000000000000000000000000000000000000000000000000081526004016113d7906137f1565b60405180910390fd5b600073ffffffffffffffffffffffffffffffffffffffff168273ffffffffffffffffffffffffffffffffffffffff161415611450576040517f08c379a000000000000000000000000000000000000000000000000000000000815260040161144790613651565b60405180910390fd5b61145b838383611a56565b6114666000826111d3565b6001600360008573ffffffffffffffffffffffffffffffffffffffff1673ffffffffffffffffffffffffffffffffffffffff16815260200190815260200160002060008282546114b69190613a3d565b925050819055506001600360008473ffffffffffffffffffffffffffffffffffffffff1673ffffffffffffffffffffffffffffffffffffffff168152602001908152602001600020600082825461150d91906139b6565b92505081905550816002600083815260200190815260200160002060006101000a81548173ffffffffffffffffffffffffffffffffffffffff021916908373ffffffffffffffffffffffffffffffffffffffff160217905550808273ffffffffffffffffffffffffffffffffffffffff168473ffffffffffffffffffffffffffffffffffffffff167fddf252ad1be2c89b69c2b068fc378daa952ba7f163c4a11628f55a4df523b3ef60405160405180910390a4505050565b6000600b60009054906101000a900473ffffffffffffffffffffffffffffffffffffffff16905081600b60006101000a81548173ffffffffffffffffffffffffffffffffffffffff021916908373ffffffffffffffffffffffffffffffffffffffff1602179055508173ffffffffffffffffffffffffffffffffffffffff168173ffffffffffffffffffffffffffffffffffffffff167f8be0079c531659141344cd1fd0a4f28419497f9722a3daafe3b4186f6b6457e060405160405180910390a35050565b61169784848461136a565b6116a384848484611a66565b6116e2576040517f08c379a00000000000000000000000000000000000000000000000000000000081526004016116d9906135f1565b60405180910390fd5b50505050565b60606116f38261115f565b611732576040517f08c379a000000000000000000000000000000000000000000000000000000000815260040161172990613791565b60405180910390fd5b600060066000848152602001908152602001600020805461175290613b3e565b80601f016020809104026020016040519081016040528092919081815260200182805461177e90613b3e565b80156117cb5780601f106117a0576101008083540402835291602001916117cb565b820191906000526020600020905b8154815290600101906020018083116117ae57829003601f168201915b5050505050905060006117dc611bfd565b90506000815114156117f2578192505050611835565b60008251111561182757808260405160200161180f929190613454565b60405160208183030381529060405292505050611835565b61183084611c14565b925050505b919050565b6000600e60009054906101000a900473ffffffffffffffffffffffffffffffffffffffff1673ffffffffffffffffffffffffffffffffffffffff166118888385611cbb90919063ffffffff16565b73ffffffffffffffffffffffffffffffffffffffff1614905092915050565b6000600c543410156118ee576040517f08c379a00000000000000000000000000000000000000000000000000000000081526004016118e590613891565b60405180910390fd5b6118f8600d611ce2565b6000611904600d611cf8565b90506119108482611d06565b61191a8184611ed4565b3373ffffffffffffffffffffffffffffffffffffffff167f381522718816817f694da06ead37444f6a1ad8252bd7d029101cafc183a65ff68483604051611962929190613561565b60405180910390a28091505092915050565b60007f80ac58cd000000000000000000000000000000000000000000000000000000007bffffffffffffffffffffffffffffffffffffffffffffffffffffffff1916827bffffffffffffffffffffffffffffffffffffffffffffffffffffffff19161480611a3f57507f5b5e139f000000000000000000000000000000000000000000000000000000007bffffffffffffffffffffffffffffffffffffffffffffffffffffffff1916827bffffffffffffffffffffffffffffffffffffffffffffffffffffffff1916145b80611a4f5750611a4e82611f48565b5b9050919050565b611a61838383611fb2565b505050565b6000611a878473ffffffffffffffffffffffffffffffffffffffff166120c6565b15611bf0578373ffffffffffffffffffffffffffffffffffffffff1663150b7a02611ab06111cb565b8786866040518563ffffffff1660e01b8152600401611ad29493929190613493565b602060405180830381600087803b158015611aec57600080fd5b505af1925050508015611b1d57506040513d601f19601f82011682018060405250810190611b1a9190612f86565b60015b611ba0573d8060008114611b4d576040519150601f19603f3d011682016040523d82523d6000602084013e611b52565b606091505b50600081511415611b98576040517f08c379a0000000000000000000000000000000000000000000000000000000008152600401611b8f906135f1565b60405180910390fd5b805181602001fd5b63150b7a0260e01b7bffffffffffffffffffffffffffffffffffffffffffffffffffffffff1916817bffffffffffffffffffffffffffffffffffffffffffffffffffffffff191614915050611bf5565b600190505b949350505050565b606060405180602001604052806000815250905090565b6060611c1f8261115f565b611c5e576040517f08c379a0000000000000000000000000000000000000000000000000000000008152600401611c5590613811565b60405180910390fd5b6000611c68611bfd565b90506000815111611c885760405180602001604052806000815250611cb3565b80611c92846120d9565b604051602001611ca3929190613454565b6040516020818303038152906040525b915050919050565b6000806000611cca8585612286565b91509150611cd781612309565b819250505092915050565b6001816000016000828254019250508190555050565b600081600001549050919050565b600073ffffffffffffffffffffffffffffffffffffffff168273ffffffffffffffffffffffffffffffffffffffff161415611d76576040517f08c379a0000000000000000000000000000000000000000000000000000000008152600401611d6d90613771565b60405180910390fd5b611d7f8161115f565b15611dbf576040517f08c379a0000000000000000000000000000000000000000000000000000000008152600401611db690613631565b60405180910390fd5b611dcb60008383611a56565b6001600360008473ffffffffffffffffffffffffffffffffffffffff1673ffffffffffffffffffffffffffffffffffffffff1681526020019081526020016000206000828254611e1b91906139b6565b92505081905550816002600083815260200190815260200160002060006101000a81548173ffffffffffffffffffffffffffffffffffffffff021916908373ffffffffffffffffffffffffffffffffffffffff160217905550808273ffffffffffffffffffffffffffffffffffffffff16600073ffffffffffffffffffffffffffffffffffffffff167fddf252ad1be2c89b69c2b068fc378daa952ba7f163c4a11628f55a4df523b3ef60405160405180910390a45050565b611edd8261115f565b611f1c576040517f08c379a0000000000000000000000000000000000000000000000000000000008152600401611f1390613731565b60405180910390fd5b80600660008481526020019081526020016000209080519060200190611f43929190612b32565b505050565b60007f01ffc9a7000000000000000000000000000000000000000000000000000000007bffffffffffffffffffffffffffffffffffffffffffffffffffffffff1916827bffffffffffffffffffffffffffffffffffffffffffffffffffffffff1916149050919050565b611fbd83838361265a565b600073ffffffffffffffffffffffffffffffffffffffff168373ffffffffffffffffffffffffffffffffffffffff16141561200057611ffb8161265f565b61203f565b8173ffffffffffffffffffffffffffffffffffffffff168373ffffffffffffffffffffffffffffffffffffffff161461203e5761203d83826126a8565b5b5b600073ffffffffffffffffffffffffffffffffffffffff168273ffffffffffffffffffffffffffffffffffffffff1614156120825761207d81612815565b6120c1565b8273ffffffffffffffffffffffffffffffffffffffff168273ffffffffffffffffffffffffffffffffffffffff16146120c0576120bf8282612958565b5b5b505050565b600080823b905060008111915050919050565b60606000821415612121576040518060400160405280600181526020017f30000000000000000000000000000000000000000000000000000000000000008152509050612281565b600082905060005b6000821461215357808061213c90613ba1565b915050600a8261214c9190613a0c565b9150612129565b60008167ffffffffffffffff811115612195577f4e487b7100000000000000000000000000000000000000000000000000000000600052604160045260246000fd5b6040519080825280601f01601f1916602001820160405280156121c75781602001600182028036833780820191505090505b5090505b6000851461227a576001826121e09190613a3d565b9150600a856121ef9190613bea565b60306121fb91906139b6565b60f81b818381518110612237577f4e487b7100000000000000000000000000000000000000000000000000000000600052603260045260246000fd5b60200101907effffffffffffffffffffffffffffffffffffffffffffffffffffffffffffff1916908160001a905350600a856122739190613a0c565b94506121cb565b8093505050505b919050565b6000806041835114156122c85760008060006020860151925060408601519150606086015160001a90506122bc878285856129d7565b94509450505050612302565b6040835114156122f95760008060208501519150604085015190506122ee868383612ae4565b935093505050612302565b60006002915091505b9250929050565b60006004811115612343577f4e487b7100000000000000000000000000000000000000000000000000000000600052602160045260246000fd5b81600481111561237c577f4e487b7100000000000000000000000000000000000000000000000000000000600052602160045260246000fd5b141561238757612657565b600160048111156123c1577f4e487b7100000000000000000000000000000000000000000000000000000000600052602160045260246000fd5b8160048111156123fa577f4e487b7100000000000000000000000000000000000000000000000000000000600052602160045260246000fd5b141561243b576040517f08c379a000000000000000000000000000000000000000000000000000000000815260040161243290613591565b60405180910390fd5b60026004811115612475577f4e487b7100000000000000000000000000000000000000000000000000000000600052602160045260246000fd5b8160048111156124ae577f4e487b7100000000000000000000000000000000000000000000000000000000600052602160045260246000fd5b14156124ef576040517f08c379a00000000000000000000000000000000000000000000000000000000081526004016124e6906135b1565b60405180910390fd5b60036004811115612529577f4e487b7100000000000000000000000000000000000000000000000000000000600052602160045260246000fd5b816004811115612562577f4e487b7100000000000000000000000000000000000000000000000000000000600052602160045260246000fd5b14156125a3576040517f08c379a000000000000000000000000000000000000000000000000000000000815260040161259a90613691565b60405180910390fd5b6004808111156125dc577f4e487b7100000000000000000000000000000000000000000000000000000000600052602160045260246000fd5b816004811115612615577f4e487b7100000000000000000000000000000000000000000000000000000000600052602160045260246000fd5b1415612656576040517f08c379a000000000000000000000000000000000000000000000000000000000815260040161264d90613751565b60405180910390fd5b5b50565b505050565b600980549050600a600083815260200190815260200160002081905550600981908060018154018082558091505060019003906000526020600020016000909190919091505550565b600060016126b584610b05565b6126bf9190613a3d565b90506000600860008481526020019081526020016000205490508181146127a4576000600760008673ffffffffffffffffffffffffffffffffffffffff1673ffffffffffffffffffffffffffffffffffffffff168152602001908152602001600020600084815260200190815260200160002054905080600760008773ffffffffffffffffffffffffffffffffffffffff1673ffffffffffffffffffffffffffffffffffffffff168152602001908152602001600020600084815260200190815260200160002081905550816008600083815260200190815260200160002081905550505b6008600084815260200190815260200160002060009055600760008573ffffffffffffffffffffffffffffffffffffffff1673ffffffffffffffffffffffffffffffffffffffff16815260200190815260200160002060008381526020019081526020016000206000905550505050565b600060016009805490506128299190613a3d565b90506000600a600084815260200190815260200160002054905060006009838154811061287f577f4e487b7100000000000000000000000000000000000000000000000000000000600052603260045260246000fd5b9060005260206000200154905080600983815481106128c7577f4e487b7100000000000000000000000000000000000000000000000000000000600052603260045260246000fd5b906000526020600020018190555081600a600083815260200190815260200160002081905550600a600085815260200190815260200160002060009055600980548061293c577f4e487b7100000000000000000000000000000000000000000000000000000000600052603160045260246000fd5b6001900381819060005260206000200160009055905550505050565b600061296383610b05565b905081600760008573ffffffffffffffffffffffffffffffffffffffff1673ffffffffffffffffffffffffffffffffffffffff168152602001908152602001600020600083815260200190815260200160002081905550806008600084815260200190815260200160002081905550505050565b6000807f7fffffffffffffffffffffffffffffff5d576e7357a4501ddfe92f46681b20a08360001c1115612a12576000600391509150612adb565b601b8560ff1614158015612a2a5750601c8560ff1614155b15612a3c576000600491509150612adb565b600060018787878760405160008152602001604052604051612a6194939291906134fa565b6020604051602081039080840390855afa158015612a83573d6000803e3d6000fd5b505050602060405103519050600073ffffffffffffffffffffffffffffffffffffffff168173ffffffffffffffffffffffffffffffffffffffff161415612ad257600060019250925050612adb565b80600092509250505b94509492505050565b6000806000807f7fffffffffffffffffffffffffffffffffffffffffffffffffffffffffffffff85169150601b8560ff1c019050612b24878288856129d7565b935093505050935093915050565b828054612b3e90613b3e565b90600052602060002090601f016020900481019282612b605760008555612ba7565b82601f10612b7957805160ff1916838001178555612ba7565b82800160010185558215612ba7579182015b82811115612ba6578251825591602001919060010190612b8b565b5b509050612bb49190612bb8565b5090565b5b80821115612bd1576000816000905550600101612bb9565b5090565b6000612be8612be384613911565b6138ec565b905082815260208101848484011115612c0057600080fd5b612c0b848285613afc565b509392505050565b6000612c26612c2184613942565b6138ec565b905082815260208101848484011115612c3e57600080fd5b612c49848285613afc565b509392505050565b600081359050612c60816143be565b92915050565b600081359050612c75816143d5565b92915050565b600081359050612c8a816143ec565b92915050565b600081359050612c9f81614403565b92915050565b600081519050612cb481614403565b92915050565b600082601f830112612ccb57600080fd5b8135612cdb848260208601612bd5565b91505092915050565b600082601f830112612cf557600080fd5b8135612d05848260208601612c13565b91505092915050565b600081359050612d1d8161441a565b92915050565b600060208284031215612d3557600080fd5b6000612d4384828501612c51565b91505092915050565b60008060408385031215612d5f57600080fd5b6000612d6d85828601612c51565b9250506020612d7e85828601612c51565b9150509250929050565b600080600060608486031215612d9d57600080fd5b6000612dab86828701612c51565b9350506020612dbc86828701612c51565b9250506040612dcd86828701612d0e565b9150509250925092565b60008060008060808587031215612ded57600080fd5b6000612dfb87828801612c51565b9450506020612e0c87828801612c51565b9350506040612e1d87828801612d0e565b925050606085013567ffffffffffffffff811115612e3a57600080fd5b612e4687828801612cba565b91505092959194509250565b60008060408385031215612e6557600080fd5b6000612e7385828601612c51565b9250506020612e8485828601612c66565b9150509250929050565b60008060008060808587031215612ea457600080fd5b6000612eb287828801612c51565b945050602085013567ffffffffffffffff811115612ecf57600080fd5b612edb87828801612ce4565b9350506040612eec87828801612c7b565b925050606085013567ffffffffffffffff811115612f0957600080fd5b612f1587828801612cba565b91505092959194509250565b60008060408385031215612f3457600080fd5b6000612f4285828601612c51565b9250506020612f5385828601612d0e565b9150509250929050565b600060208284031215612f6f57600080fd5b6000612f7d84828501612c90565b91505092915050565b600060208284031215612f9857600080fd5b6000612fa684828501612ca5565b91505092915050565b600060208284031215612fc157600080fd5b6000612fcf84828501612d0e565b91505092915050565b612fe181613a71565b82525050565b612ff081613a83565b82525050565b612fff81613a8f565b82525050565b600061301082613973565b61301a8185613989565b935061302a818560208601613b0b565b61303381613cd7565b840191505092915050565b60006130498261397e565b613053818561399a565b9350613063818560208601613b0b565b61306c81613cd7565b840191505092915050565b60006130828261397e565b61308c81856139ab565b935061309c818560208601613b0b565b80840191505092915050565b60006130b560188361399a565b91506130c082613ce8565b602082019050919050565b60006130d8601f8361399a565b91506130e382613d11565b602082019050919050565b60006130fb602b8361399a565b915061310682613d3a565b604082019050919050565b600061311e60328361399a565b915061312982613d89565b604082019050919050565b600061314160268361399a565b915061314c82613dd8565b604082019050919050565b6000613164601c8361399a565b915061316f82613e27565b602082019050919050565b600061318760248361399a565b915061319282613e50565b604082019050919050565b60006131aa60198361399a565b91506131b582613e9f565b602082019050919050565b60006131cd60228361399a565b91506131d882613ec8565b604082019050919050565b60006131f0602c8361399a565b91506131fb82613f17565b604082019050919050565b600061321360388361399a565b915061321e82613f66565b604082019050919050565b6000613236602a8361399a565b915061324182613fb5565b604082019050919050565b600061325960298361399a565b915061326482614004565b604082019050919050565b600061327c602e8361399a565b915061328782614053565b604082019050919050565b600061329f60228361399a565b91506132aa826140a2565b604082019050919050565b60006132c260208361399a565b91506132cd826140f1565b602082019050919050565b60006132e560318361399a565b91506132f08261411a565b604082019050919050565b6000613308602c8361399a565b915061331382614169565b604082019050919050565b600061332b60208361399a565b9150613336826141b8565b602082019050919050565b600061334e60298361399a565b9150613359826141e1565b604082019050919050565b6000613371602f8361399a565b915061337c82614230565b604082019050919050565b600061339460218361399a565b915061339f8261427f565b604082019050919050565b60006133b760318361399a565b91506133c2826142ce565b604082019050919050565b60006133da602c8361399a565b91506133e58261431d565b604082019050919050565b60006133fd601f8361399a565b91506134088261436c565b602082019050919050565b600061342060078361399a565b915061342b82614395565b602082019050919050565b61343f81613ae5565b82525050565b61344e81613aef565b82525050565b60006134608285613077565b915061346c8284613077565b91508190509392505050565b600060208201905061348d6000830184612fd8565b92915050565b60006080820190506134a86000830187612fd8565b6134b56020830186612fd8565b6134c26040830185613436565b81810360608301526134d48184613005565b905095945050505050565b60006020820190506134f46000830184612fe7565b92915050565b600060808201905061350f6000830187612ff6565b61351c6020830186613445565b6135296040830185612ff6565b6135366060830184612ff6565b95945050505050565b60006020820190508181036000830152613559818461303e565b905092915050565b6000604082019050818103600083015261357b818561303e565b905061358a6020830184613436565b9392505050565b600060208201905081810360008301526135aa816130a8565b9050919050565b600060208201905081810360008301526135ca816130cb565b9050919050565b600060208201905081810360008301526135ea816130ee565b9050919050565b6000602082019050818103600083015261360a81613111565b9050919050565b6000602082019050818103600083015261362a81613134565b9050919050565b6000602082019050818103600083015261364a81613157565b9050919050565b6000602082019050818103600083015261366a8161317a565b9050919050565b6000602082019050818103600083015261368a8161319d565b9050919050565b600060208201905081810360008301526136aa816131c0565b9050919050565b600060208201905081810360008301526136ca816131e3565b9050919050565b600060208201905081810360008301526136ea81613206565b9050919050565b6000602082019050818103600083015261370a81613229565b9050919050565b6000602082019050818103600083015261372a8161324c565b9050919050565b6000602082019050818103600083015261374a8161326f565b9050919050565b6000602082019050818103600083015261376a81613292565b9050919050565b6000602082019050818103600083015261378a816132b5565b9050919050565b600060208201905081810360008301526137aa816132d8565b9050919050565b600060208201905081810360008301526137ca816132fb565b9050919050565b600060208201905081810360008301526137ea8161331e565b9050919050565b6000602082019050818103600083015261380a81613341565b9050919050565b6000602082019050818103600083015261382a81613364565b9050919050565b6000602082019050818103600083015261384a81613387565b9050919050565b6000602082019050818103600083015261386a816133aa565b9050919050565b6000602082019050818103600083015261388a816133cd565b9050919050565b600060208201905081810360008301526138aa816133f0565b9050919050565b600060208201905081810360008301526138ca81613413565b9050919050565b60006020820190506138e66000830184613436565b92915050565b60006138f6613907565b90506139028282613b70565b919050565b6000604051905090565b600067ffffffffffffffff82111561392c5761392b613ca8565b5b61393582613cd7565b9050602081019050919050565b600067ffffffffffffffff82111561395d5761395c613ca8565b5b61396682613cd7565b9050602081019050919050565b600081519050919050565b600081519050919050565b600082825260208201905092915050565b600082825260208201905092915050565b600081905092915050565b60006139c182613ae5565b91506139cc83613ae5565b9250827fffffffffffffffffffffffffffffffffffffffffffffffffffffffffffffffff03821115613a0157613a00613c1b565b5b828201905092915050565b6000613a1782613ae5565b9150613a2283613ae5565b925082613a3257613a31613c4a565b5b828204905092915050565b6000613a4882613ae5565b9150613a5383613ae5565b925082821015613a6657613a65613c1b565b5b828203905092915050565b6000613a7c82613ac5565b9050919050565b60008115159050919050565b6000819050919050565b60007fffffffff0000000000000000000000000000000000000000000000000000000082169050919050565b600073ffffffffffffffffffffffffffffffffffffffff82169050919050565b6000819050919050565b600060ff82169050919050565b82818337600083830152505050565b60005b83811015613b29578082015181840152602081019050613b0e565b83811115613b38576000848401525b50505050565b60006002820490506001821680613b5657607f821691505b60208210811415613b6a57613b69613c79565b5b50919050565b613b7982613cd7565b810181811067ffffffffffffffff82111715613b9857613b97613ca8565b5b80604052505050565b6000613bac82613ae5565b91507fffffffffffffffffffffffffffffffffffffffffffffffffffffffffffffffff821415613bdf57613bde613c1b565b5b600182019050919050565b6000613bf582613ae5565b9150613c0083613ae5565b925082613c1057613c0f613c4a565b5b828206905092915050565b7f4e487b7100000000000000000000000000000000000000000000000000000000600052601160045260246000fd5b7f4e487b7100000000000000000000000000000000000000000000000000000000600052601260045260246000fd5b7f4e487b7100000000000000000000000000000000000000000000000000000000600052602260045260246000fd5b7f4e487b7100000000000000000000000000000000000000000000000000000000600052604160045260246000fd5b6000601f19601f8301169050919050565b7f45434453413a20696e76616c6964207369676e61747572650000000000000000600082015250565b7f45434453413a20696e76616c6964207369676e6174757265206c656e67746800600082015250565b7f455243373231456e756d657261626c653a206f776e657220696e646578206f7560008201527f74206f6620626f756e6473000000000000000000000000000000000000000000602082015250565b7f4552433732313a207472616e7366657220746f206e6f6e20455243373231526560008201527f63656976657220696d706c656d656e7465720000000000000000000000000000602082015250565b7f4f776e61626c653a206e6577206f776e657220697320746865207a65726f206160008201527f6464726573730000000000000000000000000000000000000000000000000000602082015250565b7f4552433732313a20746f6b656e20616c7265616479206d696e74656400000000600082015250565b7f4552433732313a207472616e7366657220746f20746865207a65726f2061646460008201527f7265737300000000000000000000000000000000000000000000000000000000602082015250565b7f4552433732313a20617070726f766520746f2063616c6c657200000000000000600082015250565b7f45434453413a20696e76616c6964207369676e6174757265202773272076616c60008201527f7565000000000000000000000000000000000000000000000000000000000000602082015250565b7f4552433732313a206f70657261746f7220717565727920666f72206e6f6e657860008201527f697374656e7420746f6b656e0000000000000000000000000000000000000000602082015250565b7f4552433732313a20617070726f76652063616c6c6572206973206e6f74206f7760008201527f6e6572206e6f7220617070726f76656420666f7220616c6c0000000000000000602082015250565b7f4552433732313a2062616c616e636520717565727920666f7220746865207a6560008201527f726f206164647265737300000000000000000000000000000000000000000000602082015250565b7f4552433732313a206f776e657220717565727920666f72206e6f6e657869737460008201527f656e7420746f6b656e0000000000000000000000000000000000000000000000602082015250565b7f45524337323155524953746f726167653a2055524920736574206f66206e6f6e60008201527f6578697374656e7420746f6b656e000000000000000000000000000000000000602082015250565b7f45434453413a20696e76616c6964207369676e6174757265202776272076616c60008201527f7565000000000000000000000000000000000000000000000000000000000000602082015250565b7f4552433732313a206d696e7420746f20746865207a65726f2061646472657373600082015250565b7f45524337323155524953746f726167653a2055524920717565727920666f722060008201527f6e6f6e6578697374656e7420746f6b656e000000000000000000000000000000602082015250565b7f4552433732313a20617070726f76656420717565727920666f72206e6f6e657860008201527f697374656e7420746f6b656e0000000000000000000000000000000000000000602082015250565b7f4f776e61626c653a2063616c6c6572206973206e6f7420746865206f776e6572600082015250565b7f4552433732313a207472616e73666572206f6620746f6b656e2074686174206960008201527f73206e6f74206f776e0000000000000000000000000000000000000000000000602082015250565b7f4552433732314d657461646174613a2055524920717565727920666f72206e6f60008201527f6e6578697374656e7420746f6b656e0000000000000000000000000000000000602082015250565b7f4552433732313a20617070726f76616c20746f2063757272656e74206f776e6560008201527f7200000000000000000000000000000000000000000000000000000000000000602082015250565b7f4552433732313a207472616e736665722063616c6c6572206973206e6f74206f60008201527f776e6572206e6f7220617070726f766564000000000000000000000000000000602082015250565b7f455243373231456e756d657261626c653a20676c6f62616c20696e646578206f60008201527f7574206f6620626f756e64730000000000000000000000000000000000000000602082015250565b7f4574686572206973206e6f7420656e6f75676820746f206d696e74204e465400600082015250565b7f44656e6965642100000000000000000000000000000000000000000000000000600082015250565b6143c781613a71565b81146143d257600080fd5b50565b6143de81613a83565b81146143e957600080fd5b50565b6143f581613a8f565b811461440057600080fd5b50565b61440c81613a99565b811461441757600080fd5b50565b61442381613ae5565b811461442e57600080fd5b5056fea26469706673582212201f925fcc36e439679d73ae543e0fc10ca487243e801fe702321000c9c0593de864736f6c63430008040033",
  "devdoc": {
    "kind": "dev",
    "methods": {
      "approve(address,uint256)": {
        "details": "See {IERC721-approve}."
      },
      "balanceOf(address)": {
        "details": "See {IERC721-balanceOf}."
      },
      "getApproved(uint256)": {
        "details": "See {IERC721-getApproved}."
      },
      "isApprovedForAll(address,address)": {
        "details": "See {IERC721-isApprovedForAll}."
      },
      "name()": {
        "details": "See {IERC721Metadata-name}."
      },
      "owner()": {
        "details": "Returns the address of the current owner."
      },
      "ownerOf(uint256)": {
        "details": "See {IERC721-ownerOf}."
      },
      "renounceOwnership()": {
        "details": "Leaves the contract without owner. It will not be possible to call `onlyOwner` functions anymore. Can only be called by the current owner. NOTE: Renouncing ownership will leave the contract without an owner, thereby removing any functionality that is only available to the owner."
      },
      "safeTransferFrom(address,address,uint256)": {
        "details": "See {IERC721-safeTransferFrom}."
      },
      "safeTransferFrom(address,address,uint256,bytes)": {
        "details": "See {IERC721-safeTransferFrom}."
      },
      "setApprovalForAll(address,bool)": {
        "details": "See {IERC721-setApprovalForAll}."
      },
      "symbol()": {
        "details": "See {IERC721Metadata-symbol}."
      },
      "tokenByIndex(uint256)": {
        "details": "See {IERC721Enumerable-tokenByIndex}."
      },
      "tokenOfOwnerByIndex(address,uint256)": {
        "details": "See {IERC721Enumerable-tokenOfOwnerByIndex}."
      },
      "totalSupply()": {
        "details": "See {IERC721Enumerable-totalSupply}."
      },
      "transferFrom(address,address,uint256)": {
        "details": "See {IERC721-transferFrom}."
      },
      "transferOwnership(address)": {
        "details": "Transfers ownership of the contract to a new account (`newOwner`). Can only be called by the current owner."
      }
    },
    "version": 1
  },
  "userdoc": {
    "kind": "user",
    "methods": {},
    "version": 1
  },
  "storageLayout": {
    "storage": [
      {
        "astId": 129,
        "contract": "contracts/Burger.sol:Burger",
        "label": "_name",
        "offset": 0,
        "slot": "0",
        "type": "t_string_storage"
      },
      {
        "astId": 131,
        "contract": "contracts/Burger.sol:Burger",
        "label": "_symbol",
        "offset": 0,
        "slot": "1",
        "type": "t_string_storage"
      },
      {
        "astId": 135,
        "contract": "contracts/Burger.sol:Burger",
        "label": "_owners",
        "offset": 0,
        "slot": "2",
        "type": "t_mapping(t_uint256,t_address)"
      },
      {
        "astId": 139,
        "contract": "contracts/Burger.sol:Burger",
        "label": "_balances",
        "offset": 0,
        "slot": "3",
        "type": "t_mapping(t_address,t_uint256)"
      },
      {
        "astId": 143,
        "contract": "contracts/Burger.sol:Burger",
        "label": "_tokenApprovals",
        "offset": 0,
        "slot": "4",
        "type": "t_mapping(t_uint256,t_address)"
      },
      {
        "astId": 149,
        "contract": "contracts/Burger.sol:Burger",
        "label": "_operatorApprovals",
        "offset": 0,
        "slot": "5",
        "type": "t_mapping(t_address,t_mapping(t_address,t_bool))"
      },
      {
        "astId": 1404,
        "contract": "contracts/Burger.sol:Burger",
        "label": "_tokenURIs",
        "offset": 0,
        "slot": "6",
        "type": "t_mapping(t_uint256,t_string_storage)"
      },
      {
        "astId": 1068,
        "contract": "contracts/Burger.sol:Burger",
        "label": "_ownedTokens",
        "offset": 0,
        "slot": "7",
        "type": "t_mapping(t_address,t_mapping(t_uint256,t_uint256))"
      },
      {
        "astId": 1072,
        "contract": "contracts/Burger.sol:Burger",
        "label": "_ownedTokensIndex",
        "offset": 0,
        "slot": "8",
        "type": "t_mapping(t_uint256,t_uint256)"
      },
      {
        "astId": 1075,
        "contract": "contracts/Burger.sol:Burger",
        "label": "_allTokens",
        "offset": 0,
        "slot": "9",
        "type": "t_array(t_uint256)dyn_storage"
      },
      {
        "astId": 1079,
        "contract": "contracts/Burger.sol:Burger",
        "label": "_allTokensIndex",
        "offset": 0,
        "slot": "10",
        "type": "t_mapping(t_uint256,t_uint256)"
      },
      {
        "astId": 7,
        "contract": "contracts/Burger.sol:Burger",
        "label": "_owner",
        "offset": 0,
        "slot": "11",
        "type": "t_address"
      },
      {
        "astId": 2593,
        "contract": "contracts/Burger.sol:Burger",
        "label": "price",
        "offset": 0,
        "slot": "12",
        "type": "t_uint256"
      },
      {
        "astId": 2603,
        "contract": "contracts/Burger.sol:Burger",
        "label": "_tokenIds",
        "offset": 0,
        "slot": "13",
        "type": "t_struct(Counter)1902_storage"
      },
      {
        "astId": 2606,
        "contract": "contracts/Burger.sol:Burger",
        "label": "VERIFIED_ADDRESS",
        "offset": 0,
        "slot": "14",
        "type": "t_address"
      }
    ],
    "types": {
      "t_address": {
        "encoding": "inplace",
        "label": "address",
        "numberOfBytes": "20"
      },
      "t_array(t_uint256)dyn_storage": {
        "base": "t_uint256",
        "encoding": "dynamic_array",
        "label": "uint256[]",
        "numberOfBytes": "32"
      },
      "t_bool": {
        "encoding": "inplace",
        "label": "bool",
        "numberOfBytes": "1"
      },
      "t_mapping(t_address,t_bool)": {
        "encoding": "mapping",
        "key": "t_address",
        "label": "mapping(address => bool)",
        "numberOfBytes": "32",
        "value": "t_bool"
      },
      "t_mapping(t_address,t_mapping(t_address,t_bool))": {
        "encoding": "mapping",
        "key": "t_address",
        "label": "mapping(address => mapping(address => bool))",
        "numberOfBytes": "32",
        "value": "t_mapping(t_address,t_bool)"
      },
      "t_mapping(t_address,t_mapping(t_uint256,t_uint256))": {
        "encoding": "mapping",
        "key": "t_address",
        "label": "mapping(address => mapping(uint256 => uint256))",
        "numberOfBytes": "32",
        "value": "t_mapping(t_uint256,t_uint256)"
      },
      "t_mapping(t_address,t_uint256)": {
        "encoding": "mapping",
        "key": "t_address",
        "label": "mapping(address => uint256)",
        "numberOfBytes": "32",
        "value": "t_uint256"
      },
      "t_mapping(t_uint256,t_address)": {
        "encoding": "mapping",
        "key": "t_uint256",
        "label": "mapping(uint256 => address)",
        "numberOfBytes": "32",
        "value": "t_address"
      },
      "t_mapping(t_uint256,t_string_storage)": {
        "encoding": "mapping",
        "key": "t_uint256",
        "label": "mapping(uint256 => string)",
        "numberOfBytes": "32",
        "value": "t_string_storage"
      },
      "t_mapping(t_uint256,t_uint256)": {
        "encoding": "mapping",
        "key": "t_uint256",
        "label": "mapping(uint256 => uint256)",
        "numberOfBytes": "32",
        "value": "t_uint256"
      },
      "t_string_storage": {
        "encoding": "bytes",
        "label": "string",
        "numberOfBytes": "32"
      },
      "t_struct(Counter)1902_storage": {
        "encoding": "inplace",
        "label": "struct Counters.Counter",
        "members": [
          {
            "astId": 1901,
            "contract": "contracts/Burger.sol:Burger",
            "label": "_value",
            "offset": 0,
            "slot": "0",
            "type": "t_uint256"
          }
        ],
        "numberOfBytes": "32"
      },
      "t_uint256": {
        "encoding": "inplace",
        "label": "uint256",
        "numberOfBytes": "32"
      }
    }
  }
}